{
  "abi": [
    {
      "inputs": [
        {
          "internalType": "address",
          "name": "newResolver",
          "type": "address"
        },
        {
          "internalType": "address payable",
          "name": "newBeneficiary",
          "type": "address"
        },
        {
          "internalType": "address",
          "name": "newAdmin",
          "type": "address"
        }
      ],
      "stateMutability": "nonpayable",
      "type": "constructor"
    },
    {
      "anonymous": false,
      "inputs": [
        {
          "indexed": false,
          "internalType": "bool",
          "name": "is721",
          "type": "bool"
        },
        {
          "indexed": true,
          "internalType": "address",
          "name": "lenderAddress",
          "type": "address"
        },
        {
          "indexed": true,
          "internalType": "address",
          "name": "nftAddress",
          "type": "address"
        },
        {
          "indexed": true,
          "internalType": "uint256",
          "name": "tokenID",
          "type": "uint256"
        },
        {
          "indexed": false,
          "internalType": "uint256",
          "name": "lendingID",
          "type": "uint256"
        },
        {
          "indexed": false,
          "internalType": "uint8",
          "name": "maxRentDuration",
          "type": "uint8"
        },
        {
          "indexed": false,
          "internalType": "bytes4",
          "name": "dailyRentPrice",
          "type": "bytes4"
        },
        {
          "indexed": false,
          "internalType": "uint16",
          "name": "lendAmount",
          "type": "uint16"
        },
        {
          "indexed": false,
          "internalType": "enum IResolver.PaymentToken",
          "name": "paymentToken",
          "type": "uint8"
        }
      ],
      "name": "Lend",
      "type": "event"
    },
    {
      "anonymous": false,
      "inputs": [
        {
          "indexed": true,
          "internalType": "address",
          "name": "renterAddress",
          "type": "address"
        },
        {
          "indexed": true,
          "internalType": "uint256",
          "name": "lendingID",
          "type": "uint256"
        },
        {
          "indexed": true,
          "internalType": "uint256",
          "name": "rentingID",
          "type": "uint256"
        },
        {
          "indexed": false,
          "internalType": "uint16",
          "name": "rentAmount",
          "type": "uint16"
        },
        {
          "indexed": false,
          "internalType": "uint8",
          "name": "rentDuration",
          "type": "uint8"
        },
        {
          "indexed": false,
          "internalType": "uint32",
          "name": "rentedAt",
          "type": "uint32"
        }
      ],
      "name": "Rent",
      "type": "event"
    },
    {
      "anonymous": false,
      "inputs": [
        {
          "indexed": true,
          "internalType": "uint256",
          "name": "rentingID",
          "type": "uint256"
        },
        {
          "indexed": false,
          "internalType": "uint32",
          "name": "collectedAt",
          "type": "uint32"
        }
      ],
      "name": "RentClaimed",
      "type": "event"
    },
    {
      "anonymous": false,
      "inputs": [
        {
          "indexed": true,
          "internalType": "uint256",
          "name": "lendingID",
          "type": "uint256"
        },
        {
          "indexed": false,
          "internalType": "uint32",
          "name": "stoppedAt",
          "type": "uint32"
        }
      ],
      "name": "StopLend",
      "type": "event"
    },
    {
      "anonymous": false,
      "inputs": [
        {
          "indexed": true,
          "internalType": "uint256",
          "name": "rentingID",
          "type": "uint256"
        },
        {
          "indexed": false,
          "internalType": "uint32",
          "name": "stoppedAt",
          "type": "uint32"
        }
      ],
      "name": "StopRent",
      "type": "event"
    },
    {
      "inputs": [
        {
          "internalType": "enum IRegistry.NFTStandard[]",
          "name": "nftStandard",
          "type": "uint8[]"
        },
        {
          "internalType": "address[]",
          "name": "nftAddress",
          "type": "address[]"
        },
        {
          "internalType": "uint256[]",
          "name": "tokenID",
          "type": "uint256[]"
        },
        {
          "internalType": "uint256[]",
          "name": "_lendingID",
          "type": "uint256[]"
        },
        {
          "internalType": "uint256[]",
          "name": "_rentingID",
          "type": "uint256[]"
        }
      ],
      "name": "claimRent",
      "outputs": [],
      "stateMutability": "nonpayable",
      "type": "function"
    },
    {
      "inputs": [
        {
          "internalType": "address",
          "name": "nftAddress",
          "type": "address"
        },
        {
          "internalType": "uint256",
          "name": "tokenID",
          "type": "uint256"
        },
        {
          "internalType": "uint256",
          "name": "_lendingID",
          "type": "uint256"
        }
      ],
      "name": "getLending",
      "outputs": [
        {
          "internalType": "uint8",
          "name": "",
          "type": "uint8"
        },
        {
          "internalType": "address",
          "name": "",
          "type": "address"
        },
        {
          "internalType": "uint8",
          "name": "",
          "type": "uint8"
        },
        {
          "internalType": "bytes4",
          "name": "",
          "type": "bytes4"
        },
        {
          "internalType": "uint16",
          "name": "",
          "type": "uint16"
        },
        {
          "internalType": "uint16",
          "name": "",
          "type": "uint16"
        },
        {
          "internalType": "uint8",
          "name": "",
          "type": "uint8"
        }
      ],
      "stateMutability": "view",
      "type": "function"
    },
    {
      "inputs": [
        {
          "internalType": "address",
          "name": "nftAddress",
          "type": "address"
        },
        {
          "internalType": "uint256",
          "name": "tokenID",
          "type": "uint256"
        },
        {
          "internalType": "uint256",
          "name": "_rentingID",
          "type": "uint256"
        }
      ],
      "name": "getRenting",
      "outputs": [
        {
          "internalType": "address",
          "name": "",
          "type": "address"
        },
        {
          "internalType": "uint16",
          "name": "",
          "type": "uint16"
        },
        {
          "internalType": "uint8",
          "name": "",
          "type": "uint8"
        },
        {
          "internalType": "uint32",
          "name": "",
          "type": "uint32"
        }
      ],
      "stateMutability": "view",
      "type": "function"
    },
    {
      "inputs": [
        {
          "internalType": "enum IRegistry.NFTStandard[]",
          "name": "nftStandard",
          "type": "uint8[]"
        },
        {
          "internalType": "address[]",
          "name": "nftAddress",
          "type": "address[]"
        },
        {
          "internalType": "uint256[]",
          "name": "tokenID",
          "type": "uint256[]"
        },
        {
          "internalType": "uint256[]",
          "name": "lendAmount",
          "type": "uint256[]"
        },
        {
          "internalType": "uint8[]",
          "name": "maxRentDuration",
          "type": "uint8[]"
        },
        {
          "internalType": "bytes4[]",
          "name": "dailyRentPrice",
          "type": "bytes4[]"
        },
        {
          "internalType": "enum IResolver.PaymentToken[]",
          "name": "paymentToken",
          "type": "uint8[]"
        }
      ],
      "name": "lend",
      "outputs": [],
      "stateMutability": "nonpayable",
      "type": "function"
    },
    {
      "inputs": [
        {
          "internalType": "address",
          "name": "",
          "type": "address"
        },
        {
          "internalType": "address",
          "name": "",
          "type": "address"
        },
        {
          "internalType": "uint256[]",
          "name": "",
          "type": "uint256[]"
        },
        {
          "internalType": "uint256[]",
          "name": "",
          "type": "uint256[]"
        },
        {
          "internalType": "bytes",
          "name": "",
          "type": "bytes"
        }
      ],
      "name": "onERC1155BatchReceived",
      "outputs": [
        {
          "internalType": "bytes4",
          "name": "",
          "type": "bytes4"
        }
      ],
      "stateMutability": "nonpayable",
      "type": "function"
    },
    {
      "inputs": [
        {
          "internalType": "address",
          "name": "",
          "type": "address"
        },
        {
          "internalType": "address",
          "name": "",
          "type": "address"
        },
        {
          "internalType": "uint256",
          "name": "",
          "type": "uint256"
        },
        {
          "internalType": "uint256",
          "name": "",
          "type": "uint256"
        },
        {
          "internalType": "bytes",
          "name": "",
          "type": "bytes"
        }
      ],
      "name": "onERC1155Received",
      "outputs": [
        {
          "internalType": "bytes4",
          "name": "",
          "type": "bytes4"
        }
      ],
      "stateMutability": "nonpayable",
      "type": "function"
    },
    {
      "inputs": [
        {
          "internalType": "address",
          "name": "",
          "type": "address"
        },
        {
          "internalType": "address",
          "name": "",
          "type": "address"
        },
        {
          "internalType": "uint256",
          "name": "",
          "type": "uint256"
        },
        {
          "internalType": "bytes",
          "name": "",
          "type": "bytes"
        }
      ],
      "name": "onERC721Received",
      "outputs": [
        {
          "internalType": "bytes4",
          "name": "",
          "type": "bytes4"
        }
      ],
      "stateMutability": "nonpayable",
      "type": "function"
    },
    {
      "inputs": [],
      "name": "paused",
      "outputs": [
        {
          "internalType": "bool",
          "name": "",
          "type": "bool"
        }
      ],
      "stateMutability": "view",
      "type": "function"
    },
    {
      "inputs": [
        {
          "internalType": "enum IRegistry.NFTStandard[]",
          "name": "nftStandard",
          "type": "uint8[]"
        },
        {
          "internalType": "address[]",
          "name": "nftAddress",
          "type": "address[]"
        },
        {
          "internalType": "uint256[]",
          "name": "tokenID",
          "type": "uint256[]"
        },
        {
          "internalType": "uint256[]",
          "name": "_lendingID",
          "type": "uint256[]"
        },
        {
          "internalType": "uint8[]",
          "name": "rentDuration",
          "type": "uint8[]"
        },
        {
          "internalType": "uint256[]",
          "name": "rentAmount",
          "type": "uint256[]"
        }
      ],
      "name": "rent",
      "outputs": [],
      "stateMutability": "payable",
      "type": "function"
    },
    {
      "inputs": [],
      "name": "rentFee",
      "outputs": [
        {
          "internalType": "uint256",
          "name": "",
          "type": "uint256"
        }
      ],
      "stateMutability": "view",
      "type": "function"
    },
    {
      "inputs": [
        {
          "internalType": "address payable",
          "name": "newBeneficiary",
          "type": "address"
        }
      ],
      "name": "setBeneficiary",
      "outputs": [],
      "stateMutability": "nonpayable",
      "type": "function"
    },
    {
      "inputs": [
        {
          "internalType": "bool",
          "name": "newPaused",
          "type": "bool"
        }
      ],
      "name": "setPaused",
      "outputs": [],
      "stateMutability": "nonpayable",
      "type": "function"
    },
    {
      "inputs": [
        {
          "internalType": "uint256",
          "name": "newRentFee",
          "type": "uint256"
        }
      ],
      "name": "setRentFee",
      "outputs": [],
      "stateMutability": "nonpayable",
      "type": "function"
    },
    {
      "inputs": [
        {
          "internalType": "enum IRegistry.NFTStandard[]",
          "name": "nftStandard",
          "type": "uint8[]"
        },
        {
          "internalType": "address[]",
          "name": "nftAddress",
          "type": "address[]"
        },
        {
          "internalType": "uint256[]",
          "name": "tokenID",
          "type": "uint256[]"
        },
        {
          "internalType": "uint256[]",
          "name": "_lendingID",
          "type": "uint256[]"
        }
      ],
      "name": "stopLend",
      "outputs": [],
      "stateMutability": "nonpayable",
      "type": "function"
    },
    {
      "inputs": [
        {
          "internalType": "enum IRegistry.NFTStandard[]",
          "name": "nftStandard",
          "type": "uint8[]"
        },
        {
          "internalType": "address[]",
          "name": "nftAddress",
          "type": "address[]"
        },
        {
          "internalType": "uint256[]",
          "name": "tokenID",
          "type": "uint256[]"
        },
        {
          "internalType": "uint256[]",
          "name": "_lendingID",
          "type": "uint256[]"
        },
        {
          "internalType": "uint256[]",
          "name": "_rentingID",
          "type": "uint256[]"
        }
      ],
      "name": "stopRent",
      "outputs": [],
      "stateMutability": "nonpayable",
      "type": "function"
    },
    {
      "inputs": [
        {
          "internalType": "bytes4",
          "name": "interfaceId",
          "type": "bytes4"
        }
      ],
      "name": "supportsInterface",
      "outputs": [
        {
          "internalType": "bool",
          "name": "",
          "type": "bool"
        }
      ],
      "stateMutability": "view",
      "type": "function"
    }
  ],
  "bytecode": "6080604052600160038190556004556005805460ff1916905560006006553480156200002a57600080fd5b5060405162004c6538038062004c658339810160408190526200004d916200010f565b6200005883620000b1565b6200006382620000b1565b6200006e81620000b1565b600080546001600160a01b039485166001600160a01b03199182161790915560028054938516938216939093179092556001805491909316911617905562000179565b6001600160a01b0381166200010c5760405162461bcd60e51b815260206004820152601360248201527f52654e46543a3a7a65726f206164647265737300000000000000000000000000604482015260640160405180910390fd5b50565b6000806000606084860312156200012557600080fd5b8351620001328162000163565b6020850151909350620001458162000163565b6040850151909250620001588162000163565b809150509250925092565b6001600160a01b03811681146200010c57600080fd5b614adc80620001896000396000f3fe6080604052600436106100f35760003560e01c806376774ea31161008a578063c9c4018311610059578063c9c4018314610315578063cbe55e5414610335578063f23a6e6114610348578063fe46b7cd1461037457600080fd5b806376774ea314610285578063937821a1146102a5578063bc197c81146102c5578063bf2b23ea146102f157600080fd5b80631c31f710116100c65780631c31f710146101b35780631cbb410f146101d3578063296c21b7146101f35780635c975abb1461026b57600080fd5b806301ffc9a7146100f857806314b5685c1461012d578063150b7a021461014f57806316c38b3c14610193575b600080fd5b34801561010457600080fd5b50610118610113366004614526565b6103cf565b60405190151581526020015b60405180910390f35b34801561013957600080fd5b5061014d61014836600461421a565b610406565b005b34801561015b57600080fd5b5061017a61016a366004614072565b630a85bd0160e11b949350505050565b6040516001600160e01b03199091168152602001610124565b34801561019f57600080fd5b5061014d6101ae3660046144ec565b610451565b3480156101bf57600080fd5b5061014d6101ce366004613fa8565b61048e565b3480156101df57600080fd5b5061014d6101ee3660046142de565b6104da565b3480156101ff57600080fd5b5061021361020e366004614145565b61051b565b6040805160ff98891681526001600160a01b039097166020880152948716948601949094526001600160e01b0319909216606085015261ffff90811660808501521660a08301529190911660c082015260e001610124565b34801561027757600080fd5b506005546101189060ff1681565b34801561029157600080fd5b5061014d6102a0366004614541565b6105f1565b3480156102b157600080fd5b5061014d6102c036600461421a565b610671565b3480156102d157600080fd5b5061017a6102e0366004613fc5565b63bc197c8160e01b95945050505050565b3480156102fd57600080fd5b5061030760065481565b604051908152602001610124565b34801561032157600080fd5b5061014d61033036600461417a565b6106a7565b61014d6103433660046143f8565b61070e565b34801561035457600080fd5b5061017a6103633660046140dd565b63f23a6e6160e01b95945050505050565b34801561038057600080fd5b5061039461038f366004614145565b61074d565b604080516001600160a01b03909516855261ffff909316602085015260ff9091169183019190915263ffffffff166060820152608001610124565b60006001600160e01b03198216630271189760e51b148061040057506301ffc9a760e01b6001600160e01b03198316145b92915050565b60055460ff16156104325760405162461bcd60e51b81526004016104299061478d565b60405180910390fd5b61044a6107cb6104458787878787610d18565b610e9e565b5050505050565b6001546001600160a01b0316331461047b5760405162461bcd60e51b8152600401610429906147b4565b6005805460ff1916911515919091179055565b6001546001600160a01b031633146104b85760405162461bcd60e51b8152600401610429906147b4565b600280546001600160a01b0319166001600160a01b0392909216919091179055565b60055460ff16156104fd5760405162461bcd60e51b81526004016104299061478d565b610512610fd361044589898989898989611576565b50505050505050565b6000806000806000806000808a8a8a60405160200161053c939291906145b2565b60408051601f19818403018152918152815160209283012060008181526007909352912080549192509060ff16600181111561057a5761057a614a32565b81546001600160a01b036101008204169060ff600160a81b8204811691600160b01b810460e01b9161ffff600160d01b8304811692600160e01b810490911691600160f01b9091041660038111156105d4576105d4614a32565b985098509850985098509850985050509397509397509397909450565b6001546001600160a01b0316331461061b5760405162461bcd60e51b8152600401610429906147b4565b612710811061066c5760405162461bcd60e51b815260206004820152601960248201527f52654e46543a3a666565206578636565647320313030706374000000000000006044820152606401610429565b600655565b60055460ff16156106945760405162461bcd60e51b81526004016104299061478d565b61044a6116a66104458787878787610d18565b60055460ff16156106ca5760405162461bcd60e51b81526004016104299061478d565b610708611aa7610445868686866000604051908082528060200260200182016040528015610702578160200160208202803683370190505b50610d18565b50505050565b60055460ff16156107315760405162461bcd60e51b81526004016104299061478d565b610745611e606104458888888888886125e1565b505050505050565b600080600080600087878760405160200161076a939291906145b2565b60408051808303601f190181529181528151602092830120600090815260089092529020546001600160a01b03811699600160c81b820461ffff169950600160a01b820460ff169850600160a81b90910463ffffffff169650945050505050565b80515b8160200151811015610d1457600082606001518360000151815181106107f6576107f6614a48565b60200260200101518360800151838151811061081457610814614a48565b6020026020010151846101000151848151811061083357610833614a48565b602002602001015160405160200161084d939291906145b2565b6040516020818303038152906040528051906020012090506000836060015184600001518151811061088157610881614a48565b60200260200101518460800151848151811061089f5761089f614a48565b602002602001015185610120015185815181106108be576108be614a48565b60200260200101516040516020016108d8939291906145b2565b60408051601f198184030181528282528051602091820120600086815260078352838120828252600890935283902060e08501909352815490945090926109d9918490829060ff16600181111561093157610931614a32565b600181111561094257610942614a32565b815281546001600160a01b03610100820416602083015260ff600160a81b8204811660408401526001600160e01b0319600160b01b830460e01b16606084015261ffff600160d01b830481166080850152600160e01b83041660a084015260c090920191600160f01b9091041660038111156109c0576109c0614a32565b60038111156109d1576109d1614a32565b905250612703565b6040805160808101825282546001600160a01b0381168252600160a01b810460ff166020830152600160a81b810463ffffffff1692820192909252600160c81b90910461ffff166060820152610a30903342612786565b815460ff166001811115610a4657610a46614a32565b86604001518681518110610a5c57610a5c614a48565b60200260200101516001811115610a7557610a75614a32565b14610a925760405162461bcd60e51b8152600401610429906146e8565b81548154600160d01b90910461ffff908116600160c81b909204161115610af35760405162461bcd60e51b81526020600482015260156024820152742932a7232a1d1d31b934ba34b1b0b61032b93937b960591b6044820152606401610429565b8054600090610b0f90600160a81b900463ffffffff16426149be565b6040805160e081019091528454919250610c30918590829060ff166001811115610b3b57610b3b614a32565b6001811115610b4c57610b4c614a32565b815281546001600160a01b03610100820416602083015260ff600160a81b8204811660408401526001600160e01b0319600160b01b830460e01b16606084015261ffff600160d01b830481166080850152600160e01b83041660a084015260c090920191600160f01b909104166003811115610bca57610bca614a32565b6003811115610bdb57610bdb614a32565b9052506040805160808101825285546001600160a01b0381168252600160a01b810460ff166020830152600160a81b810463ffffffff1692820192909252600160c81b90910461ffff1660608201528361283b565b81546000868152600760205260409020805461ffff600160c81b909304831692601c91610c66918591600160e01b900416614831565b92506101000a81548161ffff021916908361ffff1602179055508661010001518681518110610c9757610c97614a48565b60200260200101517f58855dd8908b14c6d7922d964418f37efd968bc6b9b857560870b14a898f916d42604051610cda919063ffffffff91909116815260200190565b60405180910390a2505050600090815260086020526040902080546001600160d81b03191690555080610d0c81614a01565b9150506107ce565b5050565b610d20613c04565b604051806101a00160405280600081526020016001815260200187815260200186815260200185815260200160006001600160401b03811115610d6557610d65614a5e565b604051908082528060200260200182016040528015610d8e578160200160208202803683370190505b5081526020016000604051908082528060200260200182016040528015610dbf578160200160208202803683370190505b5081526020016000604051908082528060200260200182016040528015610df0578160200160208202803683370190505b50815260208101859052604081018490526060016000604051908082528060200260200182016040528015610e2f578160200160208202803683370190505b5081526020016000604051908082528060200260200182016040528015610e60578160200160208202803683370190505b5081526020016000604051908082528060200260200182016040528015610e91578160200160208202803683370190505b5090529695505050505050565b600081606001515111610ee45760405162461bcd60e51b815260206004820152600e60248201526d52654e46543a3a6e6f206e66747360901b6044820152606401610429565b806060015151816020015114610fc6578060600151816020015181518110610f0e57610f0e614a48565b60200260200101516001600160a01b03168160600151826000015181518110610f3957610f39614a48565b60200260200101516001600160a01b0316148015610f89575060018160400151826020015181518110610f6e57610f6e614a48565b60200260200101516001811115610f8757610f87614a32565b145b15610fa65760208101805190610f9e82614a01565b905250610ee4565b610fb3818363ffffffff16565b60208101805180835290610f9e82614a01565b610d14818363ffffffff16565b80515b816020015181101561153557610fec8282612ae0565b6000826060015183600001518151811061100857611008614a48565b60200260200101518360800151838151811061102657611026614a48565b6020026020010151600354604051602001611043939291906145b2565b60408051601f198184030181528282528051602091820120600081815260079092529082902060e084019092528154909350909161113b918390829060ff16600181111561109357611093614a32565b60018111156110a4576110a4614a32565b815281546001600160a01b03610100820416602083015260ff600160a81b8204811660408401526001600160e01b0319600160b01b830460e01b16606084015261ffff600160d01b830481166080850152600160e01b83041660a084015260c090920191600160f01b90910416600381111561112257611122614a32565b600381111561113357611133614a32565b905250612c9e565b611173846101800151848151811061115557611155614a48565b6020026020010151600381111561116e5761116e614a32565b612d57565b6000808560400151858151811061118c5761118c614a48565b602002602001015160018111156111a5576111a5614a32565b1490506040518060e00160405280866040015186815181106111c9576111c9614a48565b602002602001015160018111156111e2576111e2614a32565b8152602001336001600160a01b031681526020018660c00151868151811061120c5761120c614a48565b602002602001015160ff1681526020018660e00151868151811061123257611232614a48565b60200260200101516001600160e01b031916815260200182611271578660a00151868151811061126457611264614a48565b6020026020010151611274565b60015b61ffff168152602001826112a5578660a00151868151811061129857611298614a48565b60200260200101516112a8565b60015b61ffff16815260200186610180015186815181106112c8576112c8614a48565b602002602001015160038111156112e1576112e1614a32565b9052600084815260076020526040902081518154829060ff19166001838181111561130e5761130e614a32565b02179055506020820151815460408401516060850151608086015160a0870151610100600160b01b03199094166101006001600160a01b039096169590950260ff60a81b191694909417600160a81b60ff909316929092029190911765ffffffffffff60b01b1916600160b01b60e09290921c9190910261ffff60d01b191617600160d01b61ffff938416021761ffff60e01b198116600160e01b9390921692909202908117835560c084015191839162ffffff60e01b1990911660ff60f01b1990911617600160f01b8360038111156113ea576113ea614a32565b02179055509050508460800151848151811061140857611408614a48565b6020026020010151856060015186600001518151811061142a5761142a614a48565b60200260200101516001600160a01b0316336001600160a01b03167f46e173c7568bb4f093e16923381dcba2a6b48f9cc9e688867965731218500ad3846003548a60c001518a8151811061148057611480614a48565b60200260200101518b60e001518b8151811061149e5761149e614a48565b6020026020010151886114ce578c60a001518c815181106114c1576114c1614a48565b60200260200101516114d1565b60015b8d61018001518d815181106114e8576114e8614a48565b602002602001015160405161150296959493929190614653565b60405180910390a46003805490600061151a83614a01565b9190505550505050808061152d90614a01565b915050610fd6565b506115738133306115558560800151866000015187602001516000612daa565b61156e8660a00151876000015188602001516000612daa565b612e69565b50565b61157e613c04565b604051806101a00160405280600081526020016001815260200189815260200188815260200187815260200186815260200185815260200184815260200160006001600160401b038111156115d5576115d5614a5e565b6040519080825280602002602001820160405280156115fe578160200160208202803683370190505b508152602001600060405190808252806020026020018201604052801561162f578160200160208202803683370190505b5081526020016000604051908082528060200260200182016040528015611660578160200160208202803683370190505b5081526020016000604051908082528060200260200182016040528015611691578160200160208202803683370190505b50815260200192909252509695505050505050565b80515b8160200151811015610d1457600082606001518360000151815181106116d1576116d1614a48565b6020026020010151836080015183815181106116ef576116ef614a48565b6020026020010151846101000151848151811061170e5761170e614a48565b6020026020010151604051602001611728939291906145b2565b6040516020818303038152906040528051906020012090506000836060015184600001518151811061175c5761175c614a48565b60200260200101518460800151848151811061177a5761177a614a48565b6020026020010151856101200151858151811061179957611799614a48565b60200260200101516040516020016117b3939291906145b2565b60408051601f198184030181528282528051602091820120600086815260078352838120828252600890935283902060e085019093528154909450909261180c918490829060ff16600181111561093157610931614a32565b6040805160808101825282546001600160a01b0381168252600160a01b810460ff166020830152600160a81b810463ffffffff1692820192909252600160c81b90910461ffff16606082015261186190612fea565b6040805160808101825282546001600160a01b0381168252600160a01b810460ff166020830152600160a81b810463ffffffff1692820192909252600160c81b90910461ffff1660608201526118b79042613070565b6040805160e0810190915282546119d591908490829060ff1660018111156118e1576118e1614a32565b60018111156118f2576118f2614a32565b815281546001600160a01b03610100820416602083015260ff600160a81b8204811660408401526001600160e01b0319600160b01b830460e01b16606084015261ffff600160d01b830481166080850152600160e01b83041660a084015260c090920191600160f01b90910416600381111561197057611970614a32565b600381111561198157611981614a32565b9052506040805160808101825284546001600160a01b0381168252600160a01b810460ff166020830152600160a81b810463ffffffff1692820192909252600160c81b90910461ffff1660608201526130c6565b85610120015185815181106119ec576119ec614a48565b60200260200101517f4630b53a4335803b2a4f9c1ce896f4cadbf909907810e496eda17614483d7b9442604051611a2f919063ffffffff91909116815260200190565b60405180910390a280548254611a5a9161ffff600160c81b909104811691600160e01b900416614831565b825461ffff91909116600160e01b0261ffff60e01b199091161790915550600090815260086020526040902080546001600160d81b03191690555080611a9f81614a01565b9150506116a9565b80516020820151600091611aba916149be565b6001600160401b03811115611ad157611ad1614a5e565b604051908082528060200260200182016040528015611afa578160200160208202803683370190505b5082519091505b8260200151811015611e2d5760008360600151846000015181518110611b2957611b29614a48565b602002602001015184608001518381518110611b4757611b47614a48565b60200260200101518561010001518481518110611b6657611b66614a48565b6020026020010151604051602001611b80939291906145b2565b60408051601f198184030181528282528051602091820120600081815260079092529082902060e0840190925281549093509091611bd0918390829060ff16600181111561093157610931614a32565b6040805160e081019091528154611ca391908390829060ff166001811115611bfa57611bfa614a32565b6001811115611c0b57611c0b614a32565b815281546001600160a01b03610100820416602083015260ff600160a81b8204811660408401526001600160e01b0319600160b01b830460e01b16606084015261ffff600160d01b830481166080850152600160e01b83041660a084015260c090920191600160f01b909104166003811115611c8957611c89614a32565b6003811115611c9a57611c9a614a32565b90525033613278565b805460ff166001811115611cb957611cb9614a32565b85604001518481518110611ccf57611ccf614a48565b60200260200101516001811115611ce857611ce8614a32565b14611d055760405162461bcd60e51b8152600401610429906146e8565b8054600160d01b810461ffff908116600160e01b9092041614611d635760405162461bcd60e51b815260206004820152601660248201527514995391950e8e9858dd1a5d995b1e481c995b9d195960521b6044820152606401610429565b80548551600160d01b90910461ffff16908590611d8090866149be565b81518110611d9057611d90614a48565b6020026020010181815250508461010001518381518110611db357611db3614a48565b60200260200101517fd0234bc8dd7e933f60cbc1e90fc139a8a9683af1cb92743607dafb9dfb70059b42604051611df6919063ffffffff91909116815260200190565b60405180910390a250600090815260076020526040902080546001600160f81b031916905580611e2581614a01565b915050611b01565b50610d14823033611e4d8660800151876000015188602001516000612daa565b8651602088015161156e91889181612daa565b80515b8160200151811015610d145760008260600151836000015181518110611e8b57611e8b614a48565b602002602001015183608001518381518110611ea957611ea9614a48565b60200260200101518461010001518481518110611ec857611ec8614a48565b6020026020010151604051602001611ee2939291906145b2565b60405160208183030381529060405280519060200120905060008360600151846000015181518110611f1657611f16614a48565b602002602001015184608001518481518110611f3457611f34614a48565b6020026020010151600454604051602001611f51939291906145b2565b60408051601f198184030181528282528051602091820120600086815260078352838120828252600890935283902060e0850190935281549094509092611faa918490829060ff16600181111561093157610931614a32565b6040805160808101825282546001600160a01b0381168252600160a01b810460ff166020830152600160a81b810463ffffffff1692820192909252600160c81b90910461ffff166060820152611fff906132d1565b6040805160e0810190915282546120d491908490829060ff16600181111561202957612029614a32565b600181111561203a5761203a614a32565b815281546001600160a01b03610100820416602083015260ff600160a81b8204811660408401526001600160e01b0319600160b01b830460e01b16606084015261ffff600160d01b830481166080850152600160e01b83041660a084015260c090920191600160f01b9091041660038111156120b8576120b8614a32565b60038111156120c9576120c9614a32565b905250878733613384565b815460ff1660018111156120ea576120ea614a32565b8660400151868151811061210057612100614a48565b6020026020010151600181111561211957612119614a32565b146121365760405162461bcd60e51b8152600401610429906146e8565b81546101608701518051600160e01b90920461ffff16918790811061215d5761215d614a48565b602002602001015111156121b35760405162461bcd60e51b815260206004820152601a60248201527f52654e46543a3a696e76616c69642072656e7420616d6f756e740000000000006044820152606401610429565b8154600090600160f01b900460ff1660038111156121d3576121d3614a32565b6000805460405163c6ee427f60e01b815260ff8416600482015292935090916001600160a01b039091169063c6ee427f9060240160206040518083038186803b15801561221f57600080fd5b505afa158015612233573d6000803e3d6000fd5b505050506040513d601f19601f820116820180604052508101906122579190613f8b565b90506000816001600160a01b031663313ce5676040518163ffffffff1660e01b815260040160206040518083038186803b15801561229457600080fd5b505afa1580156122a8573d6000803e3d6000fd5b505050506040513d601f19601f820116820180604052508101906122cc919061455a565b60ff16905060006122de82600a6148d4565b86549091506000906122fa90600160b01b900460e01b836135ef565b8b61014001518b8151811061231157612311614a48565b602002602001015160ff168c61016001518c8151811061233357612333614a48565b6020026020010151612345919061497c565b61234f919061497c565b9050600081116123715760405162461bcd60e51b815260040161042990614756565b6123866001600160a01b03851633308461367e565b50506040518060800160405280336001600160a01b031681526020018a61014001518a815181106123b9576123b9614a48565b602002602001015160ff1681526020014263ffffffff1681526020018a61016001518a815181106123ec576123ec614a48565b60209081029190910181015161ffff908116909252600089815260088252604090819020845181549386015192860151606090960151909416600160c81b0261ffff60c81b1963ffffffff909616600160a81b029590951665ffffffffffff60a81b1960ff909316600160a01b026001600160a81b03199094166001600160a01b039095169490941792909217169190911791909117905561016089015180518990811061249c5761249c614a48565b6020908102919091018101516000898152600790925260409091208054601c906124d2908490600160e01b900461ffff1661499b565b92506101000a81548161ffff021916908361ffff160217905550600454896101000151898151811061250657612506614a48565b6020026020010151336001600160a01b03167f61e1a1e6f89eaba4ba0119b0023bd32b1bb0412ab96ccd8d0588a3e98a0976318c61016001518c8151811061255057612550614a48565b60200260200101518d61014001518d8151811061256f5761256f614a48565b6020908102919091018101518a546040805161ffff909516855260ff90921692840192909252600160a81b90910463ffffffff169082015260600160405180910390a4600480549060006125c283614a01565b91905055505050505050505080806125d990614a01565b915050611e63565b6125e9613c04565b604051806101a00160405280600081526020016001815260200188815260200187815260200186815260200160006001600160401b0381111561262e5761262e614a5e565b604051908082528060200260200182016040528015612657578160200160208202803683370190505b5081526020016000604051908082528060200260200182016040528015612688578160200160208202803683370190505b50815260200160006040519080825280602002602001820160405280156126b9578160200160208202803683370190505b5081526020808201969096526040805160008082528189018352828401919091526060830196909652608082019490945283519485529484019092525060a0909201529392505050565b61271081602001516136e9565b604081015160ff1661275b5760405162461bcd60e51b815260206004820152601460248201527352654e46543a3a6475726174696f6e207a65726f60601b6044820152606401610429565b60608101516001600160e01b0319166115735760405162461bcd60e51b815260040161042990614756565b816001600160a01b031683600001516001600160a01b0316146127df5760405162461bcd60e51b81526020600482015260116024820152702932a7232a1d1d3737ba103932b73a32b960791b6044820152606401610429565b6127e98382613735565b156128365760405162461bcd60e51b815260206004820152601760248201527f52654e46543a3a706173742072657475726e20646174650000000000000000006044820152606401610429565b505050565b60008360c00151600381111561285357612853614a32565b6000805460405163c6ee427f60e01b815260ff8416600482015292935090916001600160a01b039091169063c6ee427f9060240160206040518083038186803b15801561289f57600080fd5b505afa1580156128b3573d6000803e3d6000fd5b505050506040513d601f19601f820116820180604052508101906128d79190613f8b565b90506000816001600160a01b031663313ce5676040518163ffffffff1660e01b815260040160206040518083038186803b15801561291457600080fd5b505afa158015612928573d6000803e3d6000fd5b505050506040513d601f19601f8201168201806040525081019061294c919061455a565b60ff169050600061295e82600a6148d4565b905060006129708860600151836135ef565b90506000876020015160ff1682896060015161ffff16612990919061497c565b61299a919061497c565b90506000620151806129ac848a61497c565b6129b6919061486f565b905060008211612a145760405162461bcd60e51b815260206004820152602360248201527f52654e46543a3a746f74616c2072656e746572207061796d656e74206973207a60448201526265726f60e81b6064820152608401610429565b60008111612a645760405162461bcd60e51b815260206004820152601d60248201527f52654e46543a3a6c656e646572207061796d656e74206973207a65726f0000006044820152606401610429565b6000612a7082846149be565b9050600654600014612a9c576000612a8c838d60c001516137c3565b9050612a9881846149be565b9250505b60208b0151612ab6906001600160a01b03891690846138a0565b8015612ad3578951612ad3906001600160a01b03891690836138a0565b5050505050505050505050565b60008260a001518281518110612af857612af8614a48565b602002602001015111612b4d5760405162461bcd60e51b815260206004820152601a60248201527f52654e46543a3a6c656e6420616d6f756e74206973207a65726f0000000000006044820152606401610429565b61ffff80168260a001518281518110612b6857612b68614a48565b60200260200101511115612bb25760405162461bcd60e51b81526020600482015260116024820152702932a7232a1d1d3737ba103ab4b73a189b60791b6044820152606401610429565b60008260c001518281518110612bca57612bca614a48565b602002602001015160ff1611612bf25760405162461bcd60e51b81526004016104299061471f565b60ff80168260c001518281518110612c0c57612c0c614a48565b602002602001015160ff161115612c585760405162461bcd60e51b815260206004820152601060248201526f0a4ca9c8ca87474dcdee840ead2dce8760831b6044820152606401610429565b60008260e001518281518110612c7057612c70614a48565b602002602001015160e01c63ffffffff1611610d145760405162461bcd60e51b815260040161042990614756565b612cab81602001516138d0565b604081015160ff1615612cfb5760405162461bcd60e51b815260206004820152601860248201527752654e46543a3a6475726174696f6e206e6f74207a65726f60401b6044820152606401610429565b60608101516001600160e01b031916156115735760405162461bcd60e51b815260206004820152601a60248201527f52654e46543a3a72656e74207072696365206e6f74207a65726f0000000000006044820152606401610429565b60008160ff16116115735760405162461bcd60e51b815260206004820152601860248201527f52654e46543a3a746f6b656e2069732073656e74696e656c00000000000000006044820152606401610429565b6060612db684846149be565b6001600160401b03811115612dcd57612dcd614a5e565b604051908082528060200260200182016040528015612df6578160200160208202803683370190505b509050835b83811015612e605785612e0e84836149be565b81518110612e1e57612e1e614a48565b6020026020010151828683612e3391906149be565b81518110612e4357612e43614a48565b602090810291909101015280612e5881614a01565b915050612dfb565b50949350505050565b60006040860151865181518110612e8257612e82614a48565b60200260200101516001811115612e9b57612e9b614a32565b1415612f61576060850151855181518110612eb857612eb8614a48565b60200260200101516001600160a01b03166323b872dd85858860800151896000015181518110612eea57612eea614a48565b60209081029190910101516040516001600160e01b031960e086901b1681526001600160a01b0393841660048201529290911660248301526044820152606401600060405180830381600087803b158015612f4457600080fd5b505af1158015612f58573d6000803e3d6000fd5b5050505061044a565b6060850151855181518110612f7857612f78614a48565b60200260200101516001600160a01b0316632eb2c2d6858585856040518563ffffffff1660e01b8152600401612fb194939291906145f8565b600060405180830381600087803b158015612fcb57600080fd5b505af1158015612fdf573d6000803e3d6000fd5b505050505050505050565b8051612ff5906136e9565b602081015160ff166130195760405162461bcd60e51b81526004016104299061471f565b604081015163ffffffff166115735760405162461bcd60e51b815260206004820152601860248201527f52654e46543a3a72656e746564206174206973207a65726f00000000000000006044820152606401610429565b61307a8282613735565b610d145760405162461bcd60e51b815260206004820152601d60248201527f52654e46543a3a72657475726e2064617465206e6f74207061737365640000006044820152606401610429565b60008260c0015160038111156130de576130de614a32565b6000805460405163c6ee427f60e01b815260ff8416600482015292935090916001600160a01b039091169063c6ee427f9060240160206040518083038186803b15801561312a57600080fd5b505afa15801561313e573d6000803e3d6000fd5b505050506040513d601f19601f820116820180604052508101906131629190613f8b565b90506000816001600160a01b031663313ce5676040518163ffffffff1660e01b815260040160206040518083038186803b15801561319f57600080fd5b505afa1580156131b3573d6000803e3d6000fd5b505050506040513d601f19601f820116820180604052508101906131d7919061455a565b60ff16905060006131e982600a6148d4565b905060006131fb8760600151836135ef565b90506000866020015160ff1682886060015161ffff1661321b919061497c565b613225919061497c565b9050600060065460001461325457613251828860ff16600381111561324c5761324c614a32565b6137c3565b90505b6020890151612fdf9061326783856149be565b6001600160a01b03891691906138a0565b806001600160a01b031682602001516001600160a01b031614610d145760405162461bcd60e51b81526020600482015260116024820152702932a7232a1d1d3737ba103632b73232b960791b6044820152606401610429565b80516132dc906138d0565b602081015160ff161561332c5760405162461bcd60e51b815260206004820152601860248201527752654e46543a3a6475726174696f6e206e6f74207a65726f60401b6044820152606401610429565b604081015163ffffffff16156115735760405162461bcd60e51b815260206004820152601960248201527f52654e46543a3a72656e746564206174206e6f74207a65726f000000000000006044820152606401610429565b83602001516001600160a01b0316816001600160a01b031614156133ea5760405162461bcd60e51b815260206004820152601860248201527f52654e46543a3a63616e742072656e74206f776e206e667400000000000000006044820152606401610429565b60ff8016836101400151838151811061340557613405614a48565b602002602001015160ff1611156134515760405162461bcd60e51b815260206004820152601060248201526f0a4ca9c8ca87474dcdee840ead2dce8760831b6044820152606401610429565b6000836101400151838151811061346a5761346a614a48565b602002602001015160ff16116134925760405162461bcd60e51b81526004016104299061471f565b61ffff801683610160015183815181106134ae576134ae614a48565b602002602001015111156134f85760405162461bcd60e51b81526020600482015260116024820152702932a7232a1d1d3737ba103ab4b73a189b60791b6044820152606401610429565b6000836101600151838151811061351157613511614a48565b6020026020010151116135665760405162461bcd60e51b815260206004820152601960248201527f52654e46543a3a72656e74416d6f756e74206973207a65726f000000000000006044820152606401610429565b836040015160ff16836101400151838151811061358557613585614a48565b602002602001015160ff1611156107085760405162461bcd60e51b815260206004820152602860248201527f52654e46543a3a72656e74206475726174696f6e206578636565647320616c6c6044820152670deeecac840dac2f60c31b6064820152608401610429565b60006135fb8383613927565b60f083901c61ffff60e085901c1660006136176127108661486f565b905061270f8361ffff16111561362d5761270f92505b61270f8261ffff1611156136415761270f91505b60006136518661ffff861661497c565b905060006136638361ffff861661497c565b905060006136718284614857565b9998505050505050505050565b6040516001600160a01b03808516602483015283166044820152606481018290526107089085906323b872dd60e01b906084015b60408051601f198184030181529190526020810180516001600160e01b03166001600160e01b0319909316929092179091526139b8565b6001600160a01b0381166115735760405162461bcd60e51b815260206004820152601360248201527252654e46543a3a7a65726f206164647265737360681b6044820152606401610429565b6000826040015163ffffffff1682116137905760405162461bcd60e51b815260206004820152601860248201527f52654e46543a3a6e6f77206265666f72652072656e74656400000000000000006044820152606401610429565b62015180836020015160ff166137a6919061497c565b60408401516137bb9063ffffffff16846149be565b119392505050565b6000600654836137d3919061497c565b90506137e16127108261486f565b905060008260038111156137f7576137f7614a32565b6000805460405163c6ee427f60e01b815260ff8416600482015292935090916001600160a01b039091169063c6ee427f9060240160206040518083038186803b15801561384357600080fd5b505afa158015613857573d6000803e3d6000fd5b505050506040513d601f19601f8201168201806040525081019061387b9190613f8b565b600254909150613898906001600160a01b038084169116856138a0565b505092915050565b6040516001600160a01b03831660248201526044810182905261283690849063a9059cbb60e01b906064016136b2565b6001600160a01b038116156115735760405162461bcd60e51b815260206004820152601960248201527f52654e46543a3a6e6f742061207a65726f2061646472657373000000000000006044820152606401610429565b60e082901c61396f5760405162461bcd60e51b815260206004820152601460248201527352654e46543a3a696e76616c696420707269636560601b6044820152606401610429565b612710811015610d145760405162461bcd60e51b815260206004820152601460248201527352654e46543a3a696e76616c6964207363616c6560601b6044820152606401610429565b6000613a0d826040518060400160405280602081526020017f5361666545524332303a206c6f772d6c6576656c2063616c6c206661696c6564815250856001600160a01b0316613a8a9092919063ffffffff16565b8051909150156128365780806020019051810190613a2b9190614509565b6128365760405162461bcd60e51b815260206004820152602a60248201527f5361666545524332303a204552433230206f7065726174696f6e20646964206e6044820152691bdd081cdd58d8d9595960b21b6064820152608401610429565b6060613a998484600085613aa3565b90505b9392505050565b606082471015613b045760405162461bcd60e51b815260206004820152602660248201527f416464726573733a20696e73756666696369656e742062616c616e636520666f6044820152651c8818d85b1b60d21b6064820152608401610429565b843b613b525760405162461bcd60e51b815260206004820152601d60248201527f416464726573733a2063616c6c20746f206e6f6e2d636f6e74726163740000006044820152606401610429565b600080866001600160a01b03168587604051613b6e91906145dc565b60006040518083038185875af1925050503d8060008114613bab576040519150601f19603f3d011682016040523d82523d6000602084013e613bb0565b606091505b5091509150613bc0828286613bcb565b979650505050505050565b60608315613bda575081613a9c565b825115613bea5782518084602001fd5b8160405162461bcd60e51b815260040161042991906146b5565b604051806101a00160405280600081526020016000815260200160608152602001606081526020016060815260200160608152602001606081526020016060815260200160608152602001606081526020016060815260200160608152602001606081525090565b600082601f830112613c7d57600080fd5b81356020613c92613c8d8361480e565b6147de565b80838252828201915082860187848660051b8901011115613cb257600080fd5b60005b85811015613cda578135613cc881614a74565b84529284019290840190600101613cb5565b5090979650505050505050565b600082601f830112613cf857600080fd5b81356020613d08613c8d8361480e565b80838252828201915082860187848660051b8901011115613d2857600080fd5b60005b85811015613cda57613d3c82613eff565b84529284019290840190600101613d2b565b600082601f830112613d5f57600080fd5b81356020613d6f613c8d8361480e565b80838252828201915082860187848660051b8901011115613d8f57600080fd5b6000805b86811015613dbb57823560028110613da9578283fd5b85529385019391850191600101613d93565b509198975050505050505050565b600082601f830112613dda57600080fd5b81356020613dea613c8d8361480e565b80838252828201915082860187848660051b8901011115613e0a57600080fd5b6000805b86811015613dbb57823560048110613e24578283fd5b85529385019391850191600101613e0e565b600082601f830112613e4757600080fd5b81356020613e57613c8d8361480e565b80838252828201915082860187848660051b8901011115613e7757600080fd5b60005b85811015613cda57813584529284019290840190600101613e7a565b600082601f830112613ea757600080fd5b81356020613eb7613c8d8361480e565b80838252828201915082860187848660051b8901011115613ed757600080fd5b60005b85811015613cda578135613eed81614a97565b84529284019290840190600101613eda565b80356001600160e01b031981168114613f1757600080fd5b919050565b600082601f830112613f2d57600080fd5b81356001600160401b03811115613f4657613f46614a5e565b613f59601f8201601f19166020016147de565b818152846020838601011115613f6e57600080fd5b816020850160208301376000918101602001919091529392505050565b600060208284031215613f9d57600080fd5b8151613a9c81614a74565b600060208284031215613fba57600080fd5b8135613a9c81614a74565b600080600080600060a08688031215613fdd57600080fd5b8535613fe881614a74565b94506020860135613ff881614a74565b935060408601356001600160401b038082111561401457600080fd5b61402089838a01613e36565b9450606088013591508082111561403657600080fd5b61404289838a01613e36565b9350608088013591508082111561405857600080fd5b5061406588828901613f1c565b9150509295509295909350565b6000806000806080858703121561408857600080fd5b843561409381614a74565b935060208501356140a381614a74565b92506040850135915060608501356001600160401b038111156140c557600080fd5b6140d187828801613f1c565b91505092959194509250565b600080600080600060a086880312156140f557600080fd5b853561410081614a74565b9450602086013561411081614a74565b9350604086013592506060860135915060808601356001600160401b0381111561413957600080fd5b61406588828901613f1c565b60008060006060848603121561415a57600080fd5b833561416581614a74565b95602085013595506040909401359392505050565b6000806000806080858703121561419057600080fd5b84356001600160401b03808211156141a757600080fd5b6141b388838901613d4e565b955060208701359150808211156141c957600080fd5b6141d588838901613c6c565b945060408701359150808211156141eb57600080fd5b6141f788838901613e36565b9350606087013591508082111561420d57600080fd5b506140d187828801613e36565b600080600080600060a0868803121561423257600080fd5b85356001600160401b038082111561424957600080fd5b61425589838a01613d4e565b9650602088013591508082111561426b57600080fd5b61427789838a01613c6c565b9550604088013591508082111561428d57600080fd5b61429989838a01613e36565b945060608801359150808211156142af57600080fd5b6142bb89838a01613e36565b935060808801359150808211156142d157600080fd5b5061406588828901613e36565b600080600080600080600060e0888a0312156142f957600080fd5b87356001600160401b038082111561431057600080fd5b61431c8b838c01613d4e565b985060208a013591508082111561433257600080fd5b61433e8b838c01613c6c565b975060408a013591508082111561435457600080fd5b6143608b838c01613e36565b965060608a013591508082111561437657600080fd5b6143828b838c01613e36565b955060808a013591508082111561439857600080fd5b6143a48b838c01613e96565b945060a08a01359150808211156143ba57600080fd5b6143c68b838c01613ce7565b935060c08a01359150808211156143dc57600080fd5b506143e98a828b01613dc9565b91505092959891949750929550565b60008060008060008060c0878903121561441157600080fd5b86356001600160401b038082111561442857600080fd5b6144348a838b01613d4e565b9750602089013591508082111561444a57600080fd5b6144568a838b01613c6c565b9650604089013591508082111561446c57600080fd5b6144788a838b01613e36565b9550606089013591508082111561448e57600080fd5b61449a8a838b01613e36565b945060808901359150808211156144b057600080fd5b6144bc8a838b01613e96565b935060a08901359150808211156144d257600080fd5b506144df89828a01613e36565b9150509295509295509295565b6000602082840312156144fe57600080fd5b8135613a9c81614a89565b60006020828403121561451b57600080fd5b8151613a9c81614a89565b60006020828403121561453857600080fd5b613a9c82613eff565b60006020828403121561455357600080fd5b5035919050565b60006020828403121561456c57600080fd5b8151613a9c81614a97565b600081518084526020808501945080840160005b838110156145a75781518752958201959082019060010161458b565b509495945050505050565b60609390931b6bffffffffffffffffffffffff191683526014830191909152603482015260540190565b600082516145ee8184602087016149d5565b9190910192915050565b6001600160a01b0385811682528416602082015260a06040820181905260009061462490830185614577565b82810360608401526146368185614577565b838103608090940193909352505060008152602001949350505050565b86151581526020810186905260ff851660408201526001600160e01b03198416606082015261ffff8316608082015260c08101600483106146a457634e487b7160e01b600052602160045260246000fd5b8260a0830152979650505050505050565b60208152600082518060208401526146d48160408501602087016149d5565b601f01601f19169190910160400192915050565b6020808252601b908201527f52654e46543a3a696e76616c6964206e6674207374616e646172640000000000604082015260600190565b60208082526017908201527f52654e46543a3a6475726174696f6e206973207a65726f000000000000000000604082015260600190565b60208082526019908201527f52654e46543a3a72656e74207072696365206973207a65726f00000000000000604082015260600190565b6020808252600d908201526c14995391950e8e9c185d5cd959609a1b604082015260600190565b60208082526010908201526f2932a7232a1d1d3737ba1030b236b4b760811b604082015260600190565b604051601f8201601f191681016001600160401b038111828210171561480657614806614a5e565b604052919050565b60006001600160401b0382111561482757614827614a5e565b5060051b60200190565b600061ffff80831681851680830382111561484e5761484e614a1c565b01949350505050565b6000821982111561486a5761486a614a1c565b500190565b60008261488c57634e487b7160e01b600052601260045260246000fd5b500490565b600181815b808511156148cc5781600019048211156148b2576148b2614a1c565b808516156148bf57918102915b93841c9390800290614896565b509250929050565b6000613a9c83836000826148ea57506001610400565b816148f757506000610400565b816001811461490d576002811461491757614933565b6001915050610400565b60ff84111561492857614928614a1c565b50506001821b610400565b5060208310610133831016604e8410600b8410161715614956575081810a610400565b6149608383614891565b806000190482111561497457614974614a1c565b029392505050565b600081600019048311821515161561499657614996614a1c565b500290565b600061ffff838116908316818110156149b6576149b6614a1c565b039392505050565b6000828210156149d0576149d0614a1c565b500390565b60005b838110156149f05781810151838201526020016149d8565b838111156107085750506000910152565b6000600019821415614a1557614a15614a1c565b5060010190565b634e487b7160e01b600052601160045260246000fd5b634e487b7160e01b600052602160045260246000fd5b634e487b7160e01b600052603260045260246000fd5b634e487b7160e01b600052604160045260246000fd5b6001600160a01b038116811461157357600080fd5b801515811461157357600080fd5b60ff8116811461157357600080fdfea26469706673582212204fc3f04de8f916ecb20b4f1673fd2b3ad72548589951c39e6f385a83502d7c8064736f6c63430008070033",
  "bytecodeSha1": "a1fe87b90c31f0c63a22af06977294596a8e2cf2",
  "compiler": {
    "evm_version": "istanbul",
    "optimizer": {
      "enabled": true,
      "runs": 200
    },
    "version": "0.8.7+commit.e28d00a7"
  },
  "contractName": "Registry",
  "language": "Solidity",
  "natspec": {
    "kind": "dev",
    "methods": {
      "onERC721Received(address,address,uint256,bytes)": {
        "details": "See {IERC721Receiver-onERC721Received}. Always returns `IERC721Receiver.onERC721Received.selector`."
      },
      "supportsInterface(bytes4)": {
        "details": "See {IERC165-supportsInterface}."
      }
    },
    "version": 1
  },
  "opcodes": "PUSH1 0x80 PUSH1 0x40 MSTORE PUSH1 0x4 CALLDATASIZE LT PUSH2 0xF3 JUMPI PUSH1 0x0 CALLDATALOAD PUSH1 0xE0 SHR DUP1 PUSH4 0x76774EA3 GT PUSH2 0x8A JUMPI DUP1 PUSH4 0xC9C40183 GT PUSH2 0x59 JUMPI DUP1 PUSH4 0xC9C40183 EQ PUSH2 0x315 JUMPI DUP1 PUSH4 0xCBE55E54 EQ PUSH2 0x335 JUMPI DUP1 PUSH4 0xF23A6E61 EQ PUSH2 0x348 JUMPI DUP1 PUSH4 0xFE46B7CD EQ PUSH2 0x374 JUMPI PUSH1 0x0 DUP1 REVERT JUMPDEST DUP1 PUSH4 0x76774EA3 EQ PUSH2 0x285 JUMPI DUP1 PUSH4 0x937821A1 EQ PUSH2 0x2A5 JUMPI DUP1 PUSH4 0xBC197C81 EQ PUSH2 0x2C5 JUMPI DUP1 PUSH4 0xBF2B23EA EQ PUSH2 0x2F1 JUMPI PUSH1 0x0 DUP1 REVERT JUMPDEST DUP1 PUSH4 0x1C31F710 GT PUSH2 0xC6 JUMPI DUP1 PUSH4 0x1C31F710 EQ PUSH2 0x1B3 JUMPI DUP1 PUSH4 0x1CBB410F EQ PUSH2 0x1D3 JUMPI DUP1 PUSH4 0x296C21B7 EQ PUSH2 0x1F3 JUMPI DUP1 PUSH4 0x5C975ABB EQ PUSH2 0x26B JUMPI PUSH1 0x0 DUP1 REVERT JUMPDEST DUP1 PUSH4 0x1FFC9A7 EQ PUSH2 0xF8 JUMPI DUP1 PUSH4 0x14B5685C EQ PUSH2 0x12D JUMPI DUP1 PUSH4 0x150B7A02 EQ PUSH2 0x14F JUMPI DUP1 PUSH4 0x16C38B3C EQ PUSH2 0x193 JUMPI JUMPDEST PUSH1 0x0 DUP1 REVERT JUMPDEST CALLVALUE DUP1 ISZERO PUSH2 0x104 JUMPI PUSH1 0x0 DUP1 REVERT JUMPDEST POP PUSH2 0x118 PUSH2 0x113 CALLDATASIZE PUSH1 0x4 PUSH2 0x4526 JUMP JUMPDEST PUSH2 0x3CF JUMP JUMPDEST PUSH1 0x40 MLOAD SWAP1 ISZERO ISZERO DUP2 MSTORE PUSH1 0x20 ADD JUMPDEST PUSH1 0x40 MLOAD DUP1 SWAP2 SUB SWAP1 RETURN JUMPDEST CALLVALUE DUP1 ISZERO PUSH2 0x139 JUMPI PUSH1 0x0 DUP1 REVERT JUMPDEST POP PUSH2 0x14D PUSH2 0x148 CALLDATASIZE PUSH1 0x4 PUSH2 0x421A JUMP JUMPDEST PUSH2 0x406 JUMP JUMPDEST STOP JUMPDEST CALLVALUE DUP1 ISZERO PUSH2 0x15B JUMPI PUSH1 0x0 DUP1 REVERT JUMPDEST POP PUSH2 0x17A PUSH2 0x16A CALLDATASIZE PUSH1 0x4 PUSH2 0x4072 JUMP JUMPDEST PUSH4 0xA85BD01 PUSH1 0xE1 SHL SWAP5 SWAP4 POP POP POP POP JUMP JUMPDEST PUSH1 0x40 MLOAD PUSH1 0x1 PUSH1 0x1 PUSH1 0xE0 SHL SUB NOT SWAP1 SWAP2 AND DUP2 MSTORE PUSH1 0x20 ADD PUSH2 0x124 JUMP JUMPDEST CALLVALUE DUP1 ISZERO PUSH2 0x19F JUMPI PUSH1 0x0 DUP1 REVERT JUMPDEST POP PUSH2 0x14D PUSH2 0x1AE CALLDATASIZE PUSH1 0x4 PUSH2 0x44EC JUMP JUMPDEST PUSH2 0x451 JUMP JUMPDEST CALLVALUE DUP1 ISZERO PUSH2 0x1BF JUMPI PUSH1 0x0 DUP1 REVERT JUMPDEST POP PUSH2 0x14D PUSH2 0x1CE CALLDATASIZE PUSH1 0x4 PUSH2 0x3FA8 JUMP JUMPDEST PUSH2 0x48E JUMP JUMPDEST CALLVALUE DUP1 ISZERO PUSH2 0x1DF JUMPI PUSH1 0x0 DUP1 REVERT JUMPDEST POP PUSH2 0x14D PUSH2 0x1EE CALLDATASIZE PUSH1 0x4 PUSH2 0x42DE JUMP JUMPDEST PUSH2 0x4DA JUMP JUMPDEST CALLVALUE DUP1 ISZERO PUSH2 0x1FF JUMPI PUSH1 0x0 DUP1 REVERT JUMPDEST POP PUSH2 0x213 PUSH2 0x20E CALLDATASIZE PUSH1 0x4 PUSH2 0x4145 JUMP JUMPDEST PUSH2 0x51B JUMP JUMPDEST PUSH1 0x40 DUP1 MLOAD PUSH1 0xFF SWAP9 DUP10 AND DUP2 MSTORE PUSH1 0x1 PUSH1 0x1 PUSH1 0xA0 SHL SUB SWAP1 SWAP8 AND PUSH1 0x20 DUP9 ADD MSTORE SWAP5 DUP8 AND SWAP5 DUP7 ADD SWAP5 SWAP1 SWAP5 MSTORE PUSH1 0x1 PUSH1 0x1 PUSH1 0xE0 SHL SUB NOT SWAP1 SWAP3 AND PUSH1 0x60 DUP6 ADD MSTORE PUSH2 0xFFFF SWAP1 DUP2 AND PUSH1 0x80 DUP6 ADD MSTORE AND PUSH1 0xA0 DUP4 ADD MSTORE SWAP2 SWAP1 SWAP2 AND PUSH1 0xC0 DUP3 ADD MSTORE PUSH1 0xE0 ADD PUSH2 0x124 JUMP JUMPDEST CALLVALUE DUP1 ISZERO PUSH2 0x277 JUMPI PUSH1 0x0 DUP1 REVERT JUMPDEST POP PUSH1 0x5 SLOAD PUSH2 0x118 SWAP1 PUSH1 0xFF AND DUP2 JUMP JUMPDEST CALLVALUE DUP1 ISZERO PUSH2 0x291 JUMPI PUSH1 0x0 DUP1 REVERT JUMPDEST POP PUSH2 0x14D PUSH2 0x2A0 CALLDATASIZE PUSH1 0x4 PUSH2 0x4541 JUMP JUMPDEST PUSH2 0x5F1 JUMP JUMPDEST CALLVALUE DUP1 ISZERO PUSH2 0x2B1 JUMPI PUSH1 0x0 DUP1 REVERT JUMPDEST POP PUSH2 0x14D PUSH2 0x2C0 CALLDATASIZE PUSH1 0x4 PUSH2 0x421A JUMP JUMPDEST PUSH2 0x671 JUMP JUMPDEST CALLVALUE DUP1 ISZERO PUSH2 0x2D1 JUMPI PUSH1 0x0 DUP1 REVERT JUMPDEST POP PUSH2 0x17A PUSH2 0x2E0 CALLDATASIZE PUSH1 0x4 PUSH2 0x3FC5 JUMP JUMPDEST PUSH4 0xBC197C81 PUSH1 0xE0 SHL SWAP6 SWAP5 POP POP POP POP POP JUMP JUMPDEST CALLVALUE DUP1 ISZERO PUSH2 0x2FD JUMPI PUSH1 0x0 DUP1 REVERT JUMPDEST POP PUSH2 0x307 PUSH1 0x6 SLOAD DUP2 JUMP JUMPDEST PUSH1 0x40 MLOAD SWAP1 DUP2 MSTORE PUSH1 0x20 ADD PUSH2 0x124 JUMP JUMPDEST CALLVALUE DUP1 ISZERO PUSH2 0x321 JUMPI PUSH1 0x0 DUP1 REVERT JUMPDEST POP PUSH2 0x14D PUSH2 0x330 CALLDATASIZE PUSH1 0x4 PUSH2 0x417A JUMP JUMPDEST PUSH2 0x6A7 JUMP JUMPDEST PUSH2 0x14D PUSH2 0x343 CALLDATASIZE PUSH1 0x4 PUSH2 0x43F8 JUMP JUMPDEST PUSH2 0x70E JUMP JUMPDEST CALLVALUE DUP1 ISZERO PUSH2 0x354 JUMPI PUSH1 0x0 DUP1 REVERT JUMPDEST POP PUSH2 0x17A PUSH2 0x363 CALLDATASIZE PUSH1 0x4 PUSH2 0x40DD JUMP JUMPDEST PUSH4 0xF23A6E61 PUSH1 0xE0 SHL SWAP6 SWAP5 POP POP POP POP POP JUMP JUMPDEST CALLVALUE DUP1 ISZERO PUSH2 0x380 JUMPI PUSH1 0x0 DUP1 REVERT JUMPDEST POP PUSH2 0x394 PUSH2 0x38F CALLDATASIZE PUSH1 0x4 PUSH2 0x4145 JUMP JUMPDEST PUSH2 0x74D JUMP JUMPDEST PUSH1 0x40 DUP1 MLOAD PUSH1 0x1 PUSH1 0x1 PUSH1 0xA0 SHL SUB SWAP1 SWAP6 AND DUP6 MSTORE PUSH2 0xFFFF SWAP1 SWAP4 AND PUSH1 0x20 DUP6 ADD MSTORE PUSH1 0xFF SWAP1 SWAP2 AND SWAP2 DUP4 ADD SWAP2 SWAP1 SWAP2 MSTORE PUSH4 0xFFFFFFFF AND PUSH1 0x60 DUP3 ADD MSTORE PUSH1 0x80 ADD PUSH2 0x124 JUMP JUMPDEST PUSH1 0x0 PUSH1 0x1 PUSH1 0x1 PUSH1 0xE0 SHL SUB NOT DUP3 AND PUSH4 0x2711897 PUSH1 0xE5 SHL EQ DUP1 PUSH2 0x400 JUMPI POP PUSH4 0x1FFC9A7 PUSH1 0xE0 SHL PUSH1 0x1 PUSH1 0x1 PUSH1 0xE0 SHL SUB NOT DUP4 AND EQ JUMPDEST SWAP3 SWAP2 POP POP JUMP JUMPDEST PUSH1 0x5 SLOAD PUSH1 0xFF AND ISZERO PUSH2 0x432 JUMPI PUSH1 0x40 MLOAD PUSH3 0x461BCD PUSH1 0xE5 SHL DUP2 MSTORE PUSH1 0x4 ADD PUSH2 0x429 SWAP1 PUSH2 0x478D JUMP JUMPDEST PUSH1 0x40 MLOAD DUP1 SWAP2 SUB SWAP1 REVERT JUMPDEST PUSH2 0x44A PUSH2 0x7CB PUSH2 0x445 DUP8 DUP8 DUP8 DUP8 DUP8 PUSH2 0xD18 JUMP JUMPDEST PUSH2 0xE9E JUMP JUMPDEST POP POP POP POP POP JUMP JUMPDEST PUSH1 0x1 SLOAD PUSH1 0x1 PUSH1 0x1 PUSH1 0xA0 SHL SUB AND CALLER EQ PUSH2 0x47B JUMPI PUSH1 0x40 MLOAD PUSH3 0x461BCD PUSH1 0xE5 SHL DUP2 MSTORE PUSH1 0x4 ADD PUSH2 0x429 SWAP1 PUSH2 0x47B4 JUMP JUMPDEST PUSH1 0x5 DUP1 SLOAD PUSH1 0xFF NOT AND SWAP2 ISZERO ISZERO SWAP2 SWAP1 SWAP2 OR SWAP1 SSTORE JUMP JUMPDEST PUSH1 0x1 SLOAD PUSH1 0x1 PUSH1 0x1 PUSH1 0xA0 SHL SUB AND CALLER EQ PUSH2 0x4B8 JUMPI PUSH1 0x40 MLOAD PUSH3 0x461BCD PUSH1 0xE5 SHL DUP2 MSTORE PUSH1 0x4 ADD PUSH2 0x429 SWAP1 PUSH2 0x47B4 JUMP JUMPDEST PUSH1 0x2 DUP1 SLOAD PUSH1 0x1 PUSH1 0x1 PUSH1 0xA0 SHL SUB NOT AND PUSH1 0x1 PUSH1 0x1 PUSH1 0xA0 SHL SUB SWAP3 SWAP1 SWAP3 AND SWAP2 SWAP1 SWAP2 OR SWAP1 SSTORE JUMP JUMPDEST PUSH1 0x5 SLOAD PUSH1 0xFF AND ISZERO PUSH2 0x4FD JUMPI PUSH1 0x40 MLOAD PUSH3 0x461BCD PUSH1 0xE5 SHL DUP2 MSTORE PUSH1 0x4 ADD PUSH2 0x429 SWAP1 PUSH2 0x478D JUMP JUMPDEST PUSH2 0x512 PUSH2 0xFD3 PUSH2 0x445 DUP10 DUP10 DUP10 DUP10 DUP10 DUP10 DUP10 PUSH2 0x1576 JUMP JUMPDEST POP POP POP POP POP POP POP JUMP JUMPDEST PUSH1 0x0 DUP1 PUSH1 0x0 DUP1 PUSH1 0x0 DUP1 PUSH1 0x0 DUP1 DUP11 DUP11 DUP11 PUSH1 0x40 MLOAD PUSH1 0x20 ADD PUSH2 0x53C SWAP4 SWAP3 SWAP2 SWAP1 PUSH2 0x45B2 JUMP JUMPDEST PUSH1 0x40 DUP1 MLOAD PUSH1 0x1F NOT DUP2 DUP5 SUB ADD DUP2 MSTORE SWAP2 DUP2 MSTORE DUP2 MLOAD PUSH1 0x20 SWAP3 DUP4 ADD KECCAK256 PUSH1 0x0 DUP2 DUP2 MSTORE PUSH1 0x7 SWAP1 SWAP4 MSTORE SWAP2 KECCAK256 DUP1 SLOAD SWAP2 SWAP3 POP SWAP1 PUSH1 0xFF AND PUSH1 0x1 DUP2 GT ISZERO PUSH2 0x57A JUMPI PUSH2 0x57A PUSH2 0x4A32 JUMP JUMPDEST DUP2 SLOAD PUSH1 0x1 PUSH1 0x1 PUSH1 0xA0 SHL SUB PUSH2 0x100 DUP3 DIV AND SWAP1 PUSH1 0xFF PUSH1 0x1 PUSH1 0xA8 SHL DUP3 DIV DUP2 AND SWAP2 PUSH1 0x1 PUSH1 0xB0 SHL DUP2 DIV PUSH1 0xE0 SHL SWAP2 PUSH2 0xFFFF PUSH1 0x1 PUSH1 0xD0 SHL DUP4 DIV DUP2 AND SWAP3 PUSH1 0x1 PUSH1 0xE0 SHL DUP2 DIV SWAP1 SWAP2 AND SWAP2 PUSH1 0x1 PUSH1 0xF0 SHL SWAP1 SWAP2 DIV AND PUSH1 0x3 DUP2 GT ISZERO PUSH2 0x5D4 JUMPI PUSH2 0x5D4 PUSH2 0x4A32 JUMP JUMPDEST SWAP9 POP SWAP9 POP SWAP9 POP SWAP9 POP SWAP9 POP SWAP9 POP SWAP9 POP POP POP SWAP4 SWAP8 POP SWAP4 SWAP8 POP SWAP4 SWAP8 SWAP1 SWAP5 POP JUMP JUMPDEST PUSH1 0x1 SLOAD PUSH1 0x1 PUSH1 0x1 PUSH1 0xA0 SHL SUB AND CALLER EQ PUSH2 0x61B JUMPI PUSH1 0x40 MLOAD PUSH3 0x461BCD PUSH1 0xE5 SHL DUP2 MSTORE PUSH1 0x4 ADD PUSH2 0x429 SWAP1 PUSH2 0x47B4 JUMP JUMPDEST PUSH2 0x2710 DUP2 LT PUSH2 0x66C JUMPI PUSH1 0x40 MLOAD PUSH3 0x461BCD PUSH1 0xE5 SHL DUP2 MSTORE PUSH1 0x20 PUSH1 0x4 DUP3 ADD MSTORE PUSH1 0x19 PUSH1 0x24 DUP3 ADD MSTORE PUSH32 0x52654E46543A3A66656520657863656564732031303070637400000000000000 PUSH1 0x44 DUP3 ADD MSTORE PUSH1 0x64 ADD PUSH2 0x429 JUMP JUMPDEST PUSH1 0x6 SSTORE JUMP JUMPDEST PUSH1 0x5 SLOAD PUSH1 0xFF AND ISZERO PUSH2 0x694 JUMPI PUSH1 0x40 MLOAD PUSH3 0x461BCD PUSH1 0xE5 SHL DUP2 MSTORE PUSH1 0x4 ADD PUSH2 0x429 SWAP1 PUSH2 0x478D JUMP JUMPDEST PUSH2 0x44A PUSH2 0x16A6 PUSH2 0x445 DUP8 DUP8 DUP8 DUP8 DUP8 PUSH2 0xD18 JUMP JUMPDEST PUSH1 0x5 SLOAD PUSH1 0xFF AND ISZERO PUSH2 0x6CA JUMPI PUSH1 0x40 MLOAD PUSH3 0x461BCD PUSH1 0xE5 SHL DUP2 MSTORE PUSH1 0x4 ADD PUSH2 0x429 SWAP1 PUSH2 0x478D JUMP JUMPDEST PUSH2 0x708 PUSH2 0x1AA7 PUSH2 0x445 DUP7 DUP7 DUP7 DUP7 PUSH1 0x0 PUSH1 0x40 MLOAD SWAP1 DUP1 DUP3 MSTORE DUP1 PUSH1 0x20 MUL PUSH1 0x20 ADD DUP3 ADD PUSH1 0x40 MSTORE DUP1 ISZERO PUSH2 0x702 JUMPI DUP2 PUSH1 0x20 ADD PUSH1 0x20 DUP3 MUL DUP1 CALLDATASIZE DUP4 CALLDATACOPY ADD SWAP1 POP JUMPDEST POP PUSH2 0xD18 JUMP JUMPDEST POP POP POP POP JUMP JUMPDEST PUSH1 0x5 SLOAD PUSH1 0xFF AND ISZERO PUSH2 0x731 JUMPI PUSH1 0x40 MLOAD PUSH3 0x461BCD PUSH1 0xE5 SHL DUP2 MSTORE PUSH1 0x4 ADD PUSH2 0x429 SWAP1 PUSH2 0x478D JUMP JUMPDEST PUSH2 0x745 PUSH2 0x1E60 PUSH2 0x445 DUP9 DUP9 DUP9 DUP9 DUP9 DUP9 PUSH2 0x25E1 JUMP JUMPDEST POP POP POP POP POP POP JUMP JUMPDEST PUSH1 0x0 DUP1 PUSH1 0x0 DUP1 PUSH1 0x0 DUP8 DUP8 DUP8 PUSH1 0x40 MLOAD PUSH1 0x20 ADD PUSH2 0x76A SWAP4 SWAP3 SWAP2 SWAP1 PUSH2 0x45B2 JUMP JUMPDEST PUSH1 0x40 DUP1 MLOAD DUP1 DUP4 SUB PUSH1 0x1F NOT ADD DUP2 MSTORE SWAP2 DUP2 MSTORE DUP2 MLOAD PUSH1 0x20 SWAP3 DUP4 ADD KECCAK256 PUSH1 0x0 SWAP1 DUP2 MSTORE PUSH1 0x8 SWAP1 SWAP3 MSTORE SWAP1 KECCAK256 SLOAD PUSH1 0x1 PUSH1 0x1 PUSH1 0xA0 SHL SUB DUP2 AND SWAP10 PUSH1 0x1 PUSH1 0xC8 SHL DUP3 DIV PUSH2 0xFFFF AND SWAP10 POP PUSH1 0x1 PUSH1 0xA0 SHL DUP3 DIV PUSH1 0xFF AND SWAP9 POP PUSH1 0x1 PUSH1 0xA8 SHL SWAP1 SWAP2 DIV PUSH4 0xFFFFFFFF AND SWAP7 POP SWAP5 POP POP POP POP POP JUMP JUMPDEST DUP1 MLOAD JUMPDEST DUP2 PUSH1 0x20 ADD MLOAD DUP2 LT ISZERO PUSH2 0xD14 JUMPI PUSH1 0x0 DUP3 PUSH1 0x60 ADD MLOAD DUP4 PUSH1 0x0 ADD MLOAD DUP2 MLOAD DUP2 LT PUSH2 0x7F6 JUMPI PUSH2 0x7F6 PUSH2 0x4A48 JUMP JUMPDEST PUSH1 0x20 MUL PUSH1 0x20 ADD ADD MLOAD DUP4 PUSH1 0x80 ADD MLOAD DUP4 DUP2 MLOAD DUP2 LT PUSH2 0x814 JUMPI PUSH2 0x814 PUSH2 0x4A48 JUMP JUMPDEST PUSH1 0x20 MUL PUSH1 0x20 ADD ADD MLOAD DUP5 PUSH2 0x100 ADD MLOAD DUP5 DUP2 MLOAD DUP2 LT PUSH2 0x833 JUMPI PUSH2 0x833 PUSH2 0x4A48 JUMP JUMPDEST PUSH1 0x20 MUL PUSH1 0x20 ADD ADD MLOAD PUSH1 0x40 MLOAD PUSH1 0x20 ADD PUSH2 0x84D SWAP4 SWAP3 SWAP2 SWAP1 PUSH2 0x45B2 JUMP JUMPDEST PUSH1 0x40 MLOAD PUSH1 0x20 DUP2 DUP4 SUB SUB DUP2 MSTORE SWAP1 PUSH1 0x40 MSTORE DUP1 MLOAD SWAP1 PUSH1 0x20 ADD KECCAK256 SWAP1 POP PUSH1 0x0 DUP4 PUSH1 0x60 ADD MLOAD DUP5 PUSH1 0x0 ADD MLOAD DUP2 MLOAD DUP2 LT PUSH2 0x881 JUMPI PUSH2 0x881 PUSH2 0x4A48 JUMP JUMPDEST PUSH1 0x20 MUL PUSH1 0x20 ADD ADD MLOAD DUP5 PUSH1 0x80 ADD MLOAD DUP5 DUP2 MLOAD DUP2 LT PUSH2 0x89F JUMPI PUSH2 0x89F PUSH2 0x4A48 JUMP JUMPDEST PUSH1 0x20 MUL PUSH1 0x20 ADD ADD MLOAD DUP6 PUSH2 0x120 ADD MLOAD DUP6 DUP2 MLOAD DUP2 LT PUSH2 0x8BE JUMPI PUSH2 0x8BE PUSH2 0x4A48 JUMP JUMPDEST PUSH1 0x20 MUL PUSH1 0x20 ADD ADD MLOAD PUSH1 0x40 MLOAD PUSH1 0x20 ADD PUSH2 0x8D8 SWAP4 SWAP3 SWAP2 SWAP1 PUSH2 0x45B2 JUMP JUMPDEST PUSH1 0x40 DUP1 MLOAD PUSH1 0x1F NOT DUP2 DUP5 SUB ADD DUP2 MSTORE DUP3 DUP3 MSTORE DUP1 MLOAD PUSH1 0x20 SWAP2 DUP3 ADD KECCAK256 PUSH1 0x0 DUP7 DUP2 MSTORE PUSH1 0x7 DUP4 MSTORE DUP4 DUP2 KECCAK256 DUP3 DUP3 MSTORE PUSH1 0x8 SWAP1 SWAP4 MSTORE DUP4 SWAP1 KECCAK256 PUSH1 0xE0 DUP6 ADD SWAP1 SWAP4 MSTORE DUP2 SLOAD SWAP1 SWAP5 POP SWAP1 SWAP3 PUSH2 0x9D9 SWAP2 DUP5 SWAP1 DUP3 SWAP1 PUSH1 0xFF AND PUSH1 0x1 DUP2 GT ISZERO PUSH2 0x931 JUMPI PUSH2 0x931 PUSH2 0x4A32 JUMP JUMPDEST PUSH1 0x1 DUP2 GT ISZERO PUSH2 0x942 JUMPI PUSH2 0x942 PUSH2 0x4A32 JUMP JUMPDEST DUP2 MSTORE DUP2 SLOAD PUSH1 0x1 PUSH1 0x1 PUSH1 0xA0 SHL SUB PUSH2 0x100 DUP3 DIV AND PUSH1 0x20 DUP4 ADD MSTORE PUSH1 0xFF PUSH1 0x1 PUSH1 0xA8 SHL DUP3 DIV DUP2 AND PUSH1 0x40 DUP5 ADD MSTORE PUSH1 0x1 PUSH1 0x1 PUSH1 0xE0 SHL SUB NOT PUSH1 0x1 PUSH1 0xB0 SHL DUP4 DIV PUSH1 0xE0 SHL AND PUSH1 0x60 DUP5 ADD MSTORE PUSH2 0xFFFF PUSH1 0x1 PUSH1 0xD0 SHL DUP4 DIV DUP2 AND PUSH1 0x80 DUP6 ADD MSTORE PUSH1 0x1 PUSH1 0xE0 SHL DUP4 DIV AND PUSH1 0xA0 DUP5 ADD MSTORE PUSH1 0xC0 SWAP1 SWAP3 ADD SWAP2 PUSH1 0x1 PUSH1 0xF0 SHL SWAP1 SWAP2 DIV AND PUSH1 0x3 DUP2 GT ISZERO PUSH2 0x9C0 JUMPI PUSH2 0x9C0 PUSH2 0x4A32 JUMP JUMPDEST PUSH1 0x3 DUP2 GT ISZERO PUSH2 0x9D1 JUMPI PUSH2 0x9D1 PUSH2 0x4A32 JUMP JUMPDEST SWAP1 MSTORE POP PUSH2 0x2703 JUMP JUMPDEST PUSH1 0x40 DUP1 MLOAD PUSH1 0x80 DUP2 ADD DUP3 MSTORE DUP3 SLOAD PUSH1 0x1 PUSH1 0x1 PUSH1 0xA0 SHL SUB DUP2 AND DUP3 MSTORE PUSH1 0x1 PUSH1 0xA0 SHL DUP2 DIV PUSH1 0xFF AND PUSH1 0x20 DUP4 ADD MSTORE PUSH1 0x1 PUSH1 0xA8 SHL DUP2 DIV PUSH4 0xFFFFFFFF AND SWAP3 DUP3 ADD SWAP3 SWAP1 SWAP3 MSTORE PUSH1 0x1 PUSH1 0xC8 SHL SWAP1 SWAP2 DIV PUSH2 0xFFFF AND PUSH1 0x60 DUP3 ADD MSTORE PUSH2 0xA30 SWAP1 CALLER TIMESTAMP PUSH2 0x2786 JUMP JUMPDEST DUP2 SLOAD PUSH1 0xFF AND PUSH1 0x1 DUP2 GT ISZERO PUSH2 0xA46 JUMPI PUSH2 0xA46 PUSH2 0x4A32 JUMP JUMPDEST DUP7 PUSH1 0x40 ADD MLOAD DUP7 DUP2 MLOAD DUP2 LT PUSH2 0xA5C JUMPI PUSH2 0xA5C PUSH2 0x4A48 JUMP JUMPDEST PUSH1 0x20 MUL PUSH1 0x20 ADD ADD MLOAD PUSH1 0x1 DUP2 GT ISZERO PUSH2 0xA75 JUMPI PUSH2 0xA75 PUSH2 0x4A32 JUMP JUMPDEST EQ PUSH2 0xA92 JUMPI PUSH1 0x40 MLOAD PUSH3 0x461BCD PUSH1 0xE5 SHL DUP2 MSTORE PUSH1 0x4 ADD PUSH2 0x429 SWAP1 PUSH2 0x46E8 JUMP JUMPDEST DUP2 SLOAD DUP2 SLOAD PUSH1 0x1 PUSH1 0xD0 SHL SWAP1 SWAP2 DIV PUSH2 0xFFFF SWAP1 DUP2 AND PUSH1 0x1 PUSH1 0xC8 SHL SWAP1 SWAP3 DIV AND GT ISZERO PUSH2 0xAF3 JUMPI PUSH1 0x40 MLOAD PUSH3 0x461BCD PUSH1 0xE5 SHL DUP2 MSTORE PUSH1 0x20 PUSH1 0x4 DUP3 ADD MSTORE PUSH1 0x15 PUSH1 0x24 DUP3 ADD MSTORE PUSH21 0x2932A7232A1D1D31B934BA34B1B0B61032B93937B9 PUSH1 0x59 SHL PUSH1 0x44 DUP3 ADD MSTORE PUSH1 0x64 ADD PUSH2 0x429 JUMP JUMPDEST DUP1 SLOAD PUSH1 0x0 SWAP1 PUSH2 0xB0F SWAP1 PUSH1 0x1 PUSH1 0xA8 SHL SWAP1 DIV PUSH4 0xFFFFFFFF AND TIMESTAMP PUSH2 0x49BE JUMP JUMPDEST PUSH1 0x40 DUP1 MLOAD PUSH1 0xE0 DUP2 ADD SWAP1 SWAP2 MSTORE DUP5 SLOAD SWAP2 SWAP3 POP PUSH2 0xC30 SWAP2 DUP6 SWAP1 DUP3 SWAP1 PUSH1 0xFF AND PUSH1 0x1 DUP2 GT ISZERO PUSH2 0xB3B JUMPI PUSH2 0xB3B PUSH2 0x4A32 JUMP JUMPDEST PUSH1 0x1 DUP2 GT ISZERO PUSH2 0xB4C JUMPI PUSH2 0xB4C PUSH2 0x4A32 JUMP JUMPDEST DUP2 MSTORE DUP2 SLOAD PUSH1 0x1 PUSH1 0x1 PUSH1 0xA0 SHL SUB PUSH2 0x100 DUP3 DIV AND PUSH1 0x20 DUP4 ADD MSTORE PUSH1 0xFF PUSH1 0x1 PUSH1 0xA8 SHL DUP3 DIV DUP2 AND PUSH1 0x40 DUP5 ADD MSTORE PUSH1 0x1 PUSH1 0x1 PUSH1 0xE0 SHL SUB NOT PUSH1 0x1 PUSH1 0xB0 SHL DUP4 DIV PUSH1 0xE0 SHL AND PUSH1 0x60 DUP5 ADD MSTORE PUSH2 0xFFFF PUSH1 0x1 PUSH1 0xD0 SHL DUP4 DIV DUP2 AND PUSH1 0x80 DUP6 ADD MSTORE PUSH1 0x1 PUSH1 0xE0 SHL DUP4 DIV AND PUSH1 0xA0 DUP5 ADD MSTORE PUSH1 0xC0 SWAP1 SWAP3 ADD SWAP2 PUSH1 0x1 PUSH1 0xF0 SHL SWAP1 SWAP2 DIV AND PUSH1 0x3 DUP2 GT ISZERO PUSH2 0xBCA JUMPI PUSH2 0xBCA PUSH2 0x4A32 JUMP JUMPDEST PUSH1 0x3 DUP2 GT ISZERO PUSH2 0xBDB JUMPI PUSH2 0xBDB PUSH2 0x4A32 JUMP JUMPDEST SWAP1 MSTORE POP PUSH1 0x40 DUP1 MLOAD PUSH1 0x80 DUP2 ADD DUP3 MSTORE DUP6 SLOAD PUSH1 0x1 PUSH1 0x1 PUSH1 0xA0 SHL SUB DUP2 AND DUP3 MSTORE PUSH1 0x1 PUSH1 0xA0 SHL DUP2 DIV PUSH1 0xFF AND PUSH1 0x20 DUP4 ADD MSTORE PUSH1 0x1 PUSH1 0xA8 SHL DUP2 DIV PUSH4 0xFFFFFFFF AND SWAP3 DUP3 ADD SWAP3 SWAP1 SWAP3 MSTORE PUSH1 0x1 PUSH1 0xC8 SHL SWAP1 SWAP2 DIV PUSH2 0xFFFF AND PUSH1 0x60 DUP3 ADD MSTORE DUP4 PUSH2 0x283B JUMP JUMPDEST DUP2 SLOAD PUSH1 0x0 DUP7 DUP2 MSTORE PUSH1 0x7 PUSH1 0x20 MSTORE PUSH1 0x40 SWAP1 KECCAK256 DUP1 SLOAD PUSH2 0xFFFF PUSH1 0x1 PUSH1 0xC8 SHL SWAP1 SWAP4 DIV DUP4 AND SWAP3 PUSH1 0x1C SWAP2 PUSH2 0xC66 SWAP2 DUP6 SWAP2 PUSH1 0x1 PUSH1 0xE0 SHL SWAP1 DIV AND PUSH2 0x4831 JUMP JUMPDEST SWAP3 POP PUSH2 0x100 EXP DUP2 SLOAD DUP2 PUSH2 0xFFFF MUL NOT AND SWAP1 DUP4 PUSH2 0xFFFF AND MUL OR SWAP1 SSTORE POP DUP7 PUSH2 0x100 ADD MLOAD DUP7 DUP2 MLOAD DUP2 LT PUSH2 0xC97 JUMPI PUSH2 0xC97 PUSH2 0x4A48 JUMP JUMPDEST PUSH1 0x20 MUL PUSH1 0x20 ADD ADD MLOAD PUSH32 0x58855DD8908B14C6D7922D964418F37EFD968BC6B9B857560870B14A898F916D TIMESTAMP PUSH1 0x40 MLOAD PUSH2 0xCDA SWAP2 SWAP1 PUSH4 0xFFFFFFFF SWAP2 SWAP1 SWAP2 AND DUP2 MSTORE PUSH1 0x20 ADD SWAP1 JUMP JUMPDEST PUSH1 0x40 MLOAD DUP1 SWAP2 SUB SWAP1 LOG2 POP POP POP PUSH1 0x0 SWAP1 DUP2 MSTORE PUSH1 0x8 PUSH1 0x20 MSTORE PUSH1 0x40 SWAP1 KECCAK256 DUP1 SLOAD PUSH1 0x1 PUSH1 0x1 PUSH1 0xD8 SHL SUB NOT AND SWAP1 SSTORE POP DUP1 PUSH2 0xD0C DUP2 PUSH2 0x4A01 JUMP JUMPDEST SWAP2 POP POP PUSH2 0x7CE JUMP JUMPDEST POP POP JUMP JUMPDEST PUSH2 0xD20 PUSH2 0x3C04 JUMP JUMPDEST PUSH1 0x40 MLOAD DUP1 PUSH2 0x1A0 ADD PUSH1 0x40 MSTORE DUP1 PUSH1 0x0 DUP2 MSTORE PUSH1 0x20 ADD PUSH1 0x1 DUP2 MSTORE PUSH1 0x20 ADD DUP8 DUP2 MSTORE PUSH1 0x20 ADD DUP7 DUP2 MSTORE PUSH1 0x20 ADD DUP6 DUP2 MSTORE PUSH1 0x20 ADD PUSH1 0x0 PUSH1 0x1 PUSH1 0x1 PUSH1 0x40 SHL SUB DUP2 GT ISZERO PUSH2 0xD65 JUMPI PUSH2 0xD65 PUSH2 0x4A5E JUMP JUMPDEST PUSH1 0x40 MLOAD SWAP1 DUP1 DUP3 MSTORE DUP1 PUSH1 0x20 MUL PUSH1 0x20 ADD DUP3 ADD PUSH1 0x40 MSTORE DUP1 ISZERO PUSH2 0xD8E JUMPI DUP2 PUSH1 0x20 ADD PUSH1 0x20 DUP3 MUL DUP1 CALLDATASIZE DUP4 CALLDATACOPY ADD SWAP1 POP JUMPDEST POP DUP2 MSTORE PUSH1 0x20 ADD PUSH1 0x0 PUSH1 0x40 MLOAD SWAP1 DUP1 DUP3 MSTORE DUP1 PUSH1 0x20 MUL PUSH1 0x20 ADD DUP3 ADD PUSH1 0x40 MSTORE DUP1 ISZERO PUSH2 0xDBF JUMPI DUP2 PUSH1 0x20 ADD PUSH1 0x20 DUP3 MUL DUP1 CALLDATASIZE DUP4 CALLDATACOPY ADD SWAP1 POP JUMPDEST POP DUP2 MSTORE PUSH1 0x20 ADD PUSH1 0x0 PUSH1 0x40 MLOAD SWAP1 DUP1 DUP3 MSTORE DUP1 PUSH1 0x20 MUL PUSH1 0x20 ADD DUP3 ADD PUSH1 0x40 MSTORE DUP1 ISZERO PUSH2 0xDF0 JUMPI DUP2 PUSH1 0x20 ADD PUSH1 0x20 DUP3 MUL DUP1 CALLDATASIZE DUP4 CALLDATACOPY ADD SWAP1 POP JUMPDEST POP DUP2 MSTORE PUSH1 0x20 DUP2 ADD DUP6 SWAP1 MSTORE PUSH1 0x40 DUP2 ADD DUP5 SWAP1 MSTORE PUSH1 0x60 ADD PUSH1 0x0 PUSH1 0x40 MLOAD SWAP1 DUP1 DUP3 MSTORE DUP1 PUSH1 0x20 MUL PUSH1 0x20 ADD DUP3 ADD PUSH1 0x40 MSTORE DUP1 ISZERO PUSH2 0xE2F JUMPI DUP2 PUSH1 0x20 ADD PUSH1 0x20 DUP3 MUL DUP1 CALLDATASIZE DUP4 CALLDATACOPY ADD SWAP1 POP JUMPDEST POP DUP2 MSTORE PUSH1 0x20 ADD PUSH1 0x0 PUSH1 0x40 MLOAD SWAP1 DUP1 DUP3 MSTORE DUP1 PUSH1 0x20 MUL PUSH1 0x20 ADD DUP3 ADD PUSH1 0x40 MSTORE DUP1 ISZERO PUSH2 0xE60 JUMPI DUP2 PUSH1 0x20 ADD PUSH1 0x20 DUP3 MUL DUP1 CALLDATASIZE DUP4 CALLDATACOPY ADD SWAP1 POP JUMPDEST POP DUP2 MSTORE PUSH1 0x20 ADD PUSH1 0x0 PUSH1 0x40 MLOAD SWAP1 DUP1 DUP3 MSTORE DUP1 PUSH1 0x20 MUL PUSH1 0x20 ADD DUP3 ADD PUSH1 0x40 MSTORE DUP1 ISZERO PUSH2 0xE91 JUMPI DUP2 PUSH1 0x20 ADD PUSH1 0x20 DUP3 MUL DUP1 CALLDATASIZE DUP4 CALLDATACOPY ADD SWAP1 POP JUMPDEST POP SWAP1 MSTORE SWAP7 SWAP6 POP POP POP POP POP POP JUMP JUMPDEST PUSH1 0x0 DUP2 PUSH1 0x60 ADD MLOAD MLOAD GT PUSH2 0xEE4 JUMPI PUSH1 0x40 MLOAD PUSH3 0x461BCD PUSH1 0xE5 SHL DUP2 MSTORE PUSH1 0x20 PUSH1 0x4 DUP3 ADD MSTORE PUSH1 0xE PUSH1 0x24 DUP3 ADD MSTORE PUSH14 0x52654E46543A3A6E6F206E667473 PUSH1 0x90 SHL PUSH1 0x44 DUP3 ADD MSTORE PUSH1 0x64 ADD PUSH2 0x429 JUMP JUMPDEST DUP1 PUSH1 0x60 ADD MLOAD MLOAD DUP2 PUSH1 0x20 ADD MLOAD EQ PUSH2 0xFC6 JUMPI DUP1 PUSH1 0x60 ADD MLOAD DUP2 PUSH1 0x20 ADD MLOAD DUP2 MLOAD DUP2 LT PUSH2 0xF0E JUMPI PUSH2 0xF0E PUSH2 0x4A48 JUMP JUMPDEST PUSH1 0x20 MUL PUSH1 0x20 ADD ADD MLOAD PUSH1 0x1 PUSH1 0x1 PUSH1 0xA0 SHL SUB AND DUP2 PUSH1 0x60 ADD MLOAD DUP3 PUSH1 0x0 ADD MLOAD DUP2 MLOAD DUP2 LT PUSH2 0xF39 JUMPI PUSH2 0xF39 PUSH2 0x4A48 JUMP JUMPDEST PUSH1 0x20 MUL PUSH1 0x20 ADD ADD MLOAD PUSH1 0x1 PUSH1 0x1 PUSH1 0xA0 SHL SUB AND EQ DUP1 ISZERO PUSH2 0xF89 JUMPI POP PUSH1 0x1 DUP2 PUSH1 0x40 ADD MLOAD DUP3 PUSH1 0x20 ADD MLOAD DUP2 MLOAD DUP2 LT PUSH2 0xF6E JUMPI PUSH2 0xF6E PUSH2 0x4A48 JUMP JUMPDEST PUSH1 0x20 MUL PUSH1 0x20 ADD ADD MLOAD PUSH1 0x1 DUP2 GT ISZERO PUSH2 0xF87 JUMPI PUSH2 0xF87 PUSH2 0x4A32 JUMP JUMPDEST EQ JUMPDEST ISZERO PUSH2 0xFA6 JUMPI PUSH1 0x20 DUP2 ADD DUP1 MLOAD SWAP1 PUSH2 0xF9E DUP3 PUSH2 0x4A01 JUMP JUMPDEST SWAP1 MSTORE POP PUSH2 0xEE4 JUMP JUMPDEST PUSH2 0xFB3 DUP2 DUP4 PUSH4 0xFFFFFFFF AND JUMP JUMPDEST PUSH1 0x20 DUP2 ADD DUP1 MLOAD DUP1 DUP4 MSTORE SWAP1 PUSH2 0xF9E DUP3 PUSH2 0x4A01 JUMP JUMPDEST PUSH2 0xD14 DUP2 DUP4 PUSH4 0xFFFFFFFF AND JUMP JUMPDEST DUP1 MLOAD JUMPDEST DUP2 PUSH1 0x20 ADD MLOAD DUP2 LT ISZERO PUSH2 0x1535 JUMPI PUSH2 0xFEC DUP3 DUP3 PUSH2 0x2AE0 JUMP JUMPDEST PUSH1 0x0 DUP3 PUSH1 0x60 ADD MLOAD DUP4 PUSH1 0x0 ADD MLOAD DUP2 MLOAD DUP2 LT PUSH2 0x1008 JUMPI PUSH2 0x1008 PUSH2 0x4A48 JUMP JUMPDEST PUSH1 0x20 MUL PUSH1 0x20 ADD ADD MLOAD DUP4 PUSH1 0x80 ADD MLOAD DUP4 DUP2 MLOAD DUP2 LT PUSH2 0x1026 JUMPI PUSH2 0x1026 PUSH2 0x4A48 JUMP JUMPDEST PUSH1 0x20 MUL PUSH1 0x20 ADD ADD MLOAD PUSH1 0x3 SLOAD PUSH1 0x40 MLOAD PUSH1 0x20 ADD PUSH2 0x1043 SWAP4 SWAP3 SWAP2 SWAP1 PUSH2 0x45B2 JUMP JUMPDEST PUSH1 0x40 DUP1 MLOAD PUSH1 0x1F NOT DUP2 DUP5 SUB ADD DUP2 MSTORE DUP3 DUP3 MSTORE DUP1 MLOAD PUSH1 0x20 SWAP2 DUP3 ADD KECCAK256 PUSH1 0x0 DUP2 DUP2 MSTORE PUSH1 0x7 SWAP1 SWAP3 MSTORE SWAP1 DUP3 SWAP1 KECCAK256 PUSH1 0xE0 DUP5 ADD SWAP1 SWAP3 MSTORE DUP2 SLOAD SWAP1 SWAP4 POP SWAP1 SWAP2 PUSH2 0x113B SWAP2 DUP4 SWAP1 DUP3 SWAP1 PUSH1 0xFF AND PUSH1 0x1 DUP2 GT ISZERO PUSH2 0x1093 JUMPI PUSH2 0x1093 PUSH2 0x4A32 JUMP JUMPDEST PUSH1 0x1 DUP2 GT ISZERO PUSH2 0x10A4 JUMPI PUSH2 0x10A4 PUSH2 0x4A32 JUMP JUMPDEST DUP2 MSTORE DUP2 SLOAD PUSH1 0x1 PUSH1 0x1 PUSH1 0xA0 SHL SUB PUSH2 0x100 DUP3 DIV AND PUSH1 0x20 DUP4 ADD MSTORE PUSH1 0xFF PUSH1 0x1 PUSH1 0xA8 SHL DUP3 DIV DUP2 AND PUSH1 0x40 DUP5 ADD MSTORE PUSH1 0x1 PUSH1 0x1 PUSH1 0xE0 SHL SUB NOT PUSH1 0x1 PUSH1 0xB0 SHL DUP4 DIV PUSH1 0xE0 SHL AND PUSH1 0x60 DUP5 ADD MSTORE PUSH2 0xFFFF PUSH1 0x1 PUSH1 0xD0 SHL DUP4 DIV DUP2 AND PUSH1 0x80 DUP6 ADD MSTORE PUSH1 0x1 PUSH1 0xE0 SHL DUP4 DIV AND PUSH1 0xA0 DUP5 ADD MSTORE PUSH1 0xC0 SWAP1 SWAP3 ADD SWAP2 PUSH1 0x1 PUSH1 0xF0 SHL SWAP1 SWAP2 DIV AND PUSH1 0x3 DUP2 GT ISZERO PUSH2 0x1122 JUMPI PUSH2 0x1122 PUSH2 0x4A32 JUMP JUMPDEST PUSH1 0x3 DUP2 GT ISZERO PUSH2 0x1133 JUMPI PUSH2 0x1133 PUSH2 0x4A32 JUMP JUMPDEST SWAP1 MSTORE POP PUSH2 0x2C9E JUMP JUMPDEST PUSH2 0x1173 DUP5 PUSH2 0x180 ADD MLOAD DUP5 DUP2 MLOAD DUP2 LT PUSH2 0x1155 JUMPI PUSH2 0x1155 PUSH2 0x4A48 JUMP JUMPDEST PUSH1 0x20 MUL PUSH1 0x20 ADD ADD MLOAD PUSH1 0x3 DUP2 GT ISZERO PUSH2 0x116E JUMPI PUSH2 0x116E PUSH2 0x4A32 JUMP JUMPDEST PUSH2 0x2D57 JUMP JUMPDEST PUSH1 0x0 DUP1 DUP6 PUSH1 0x40 ADD MLOAD DUP6 DUP2 MLOAD DUP2 LT PUSH2 0x118C JUMPI PUSH2 0x118C PUSH2 0x4A48 JUMP JUMPDEST PUSH1 0x20 MUL PUSH1 0x20 ADD ADD MLOAD PUSH1 0x1 DUP2 GT ISZERO PUSH2 0x11A5 JUMPI PUSH2 0x11A5 PUSH2 0x4A32 JUMP JUMPDEST EQ SWAP1 POP PUSH1 0x40 MLOAD DUP1 PUSH1 0xE0 ADD PUSH1 0x40 MSTORE DUP1 DUP7 PUSH1 0x40 ADD MLOAD DUP7 DUP2 MLOAD DUP2 LT PUSH2 0x11C9 JUMPI PUSH2 0x11C9 PUSH2 0x4A48 JUMP JUMPDEST PUSH1 0x20 MUL PUSH1 0x20 ADD ADD MLOAD PUSH1 0x1 DUP2 GT ISZERO PUSH2 0x11E2 JUMPI PUSH2 0x11E2 PUSH2 0x4A32 JUMP JUMPDEST DUP2 MSTORE PUSH1 0x20 ADD CALLER PUSH1 0x1 PUSH1 0x1 PUSH1 0xA0 SHL SUB AND DUP2 MSTORE PUSH1 0x20 ADD DUP7 PUSH1 0xC0 ADD MLOAD DUP7 DUP2 MLOAD DUP2 LT PUSH2 0x120C JUMPI PUSH2 0x120C PUSH2 0x4A48 JUMP JUMPDEST PUSH1 0x20 MUL PUSH1 0x20 ADD ADD MLOAD PUSH1 0xFF AND DUP2 MSTORE PUSH1 0x20 ADD DUP7 PUSH1 0xE0 ADD MLOAD DUP7 DUP2 MLOAD DUP2 LT PUSH2 0x1232 JUMPI PUSH2 0x1232 PUSH2 0x4A48 JUMP JUMPDEST PUSH1 0x20 MUL PUSH1 0x20 ADD ADD MLOAD PUSH1 0x1 PUSH1 0x1 PUSH1 0xE0 SHL SUB NOT AND DUP2 MSTORE PUSH1 0x20 ADD DUP3 PUSH2 0x1271 JUMPI DUP7 PUSH1 0xA0 ADD MLOAD DUP7 DUP2 MLOAD DUP2 LT PUSH2 0x1264 JUMPI PUSH2 0x1264 PUSH2 0x4A48 JUMP JUMPDEST PUSH1 0x20 MUL PUSH1 0x20 ADD ADD MLOAD PUSH2 0x1274 JUMP JUMPDEST PUSH1 0x1 JUMPDEST PUSH2 0xFFFF AND DUP2 MSTORE PUSH1 0x20 ADD DUP3 PUSH2 0x12A5 JUMPI DUP7 PUSH1 0xA0 ADD MLOAD DUP7 DUP2 MLOAD DUP2 LT PUSH2 0x1298 JUMPI PUSH2 0x1298 PUSH2 0x4A48 JUMP JUMPDEST PUSH1 0x20 MUL PUSH1 0x20 ADD ADD MLOAD PUSH2 0x12A8 JUMP JUMPDEST PUSH1 0x1 JUMPDEST PUSH2 0xFFFF AND DUP2 MSTORE PUSH1 0x20 ADD DUP7 PUSH2 0x180 ADD MLOAD DUP7 DUP2 MLOAD DUP2 LT PUSH2 0x12C8 JUMPI PUSH2 0x12C8 PUSH2 0x4A48 JUMP JUMPDEST PUSH1 0x20 MUL PUSH1 0x20 ADD ADD MLOAD PUSH1 0x3 DUP2 GT ISZERO PUSH2 0x12E1 JUMPI PUSH2 0x12E1 PUSH2 0x4A32 JUMP JUMPDEST SWAP1 MSTORE PUSH1 0x0 DUP5 DUP2 MSTORE PUSH1 0x7 PUSH1 0x20 MSTORE PUSH1 0x40 SWAP1 KECCAK256 DUP2 MLOAD DUP2 SLOAD DUP3 SWAP1 PUSH1 0xFF NOT AND PUSH1 0x1 DUP4 DUP2 DUP2 GT ISZERO PUSH2 0x130E JUMPI PUSH2 0x130E PUSH2 0x4A32 JUMP JUMPDEST MUL OR SWAP1 SSTORE POP PUSH1 0x20 DUP3 ADD MLOAD DUP2 SLOAD PUSH1 0x40 DUP5 ADD MLOAD PUSH1 0x60 DUP6 ADD MLOAD PUSH1 0x80 DUP7 ADD MLOAD PUSH1 0xA0 DUP8 ADD MLOAD PUSH2 0x100 PUSH1 0x1 PUSH1 0xB0 SHL SUB NOT SWAP1 SWAP5 AND PUSH2 0x100 PUSH1 0x1 PUSH1 0x1 PUSH1 0xA0 SHL SUB SWAP1 SWAP7 AND SWAP6 SWAP1 SWAP6 MUL PUSH1 0xFF PUSH1 0xA8 SHL NOT AND SWAP5 SWAP1 SWAP5 OR PUSH1 0x1 PUSH1 0xA8 SHL PUSH1 0xFF SWAP1 SWAP4 AND SWAP3 SWAP1 SWAP3 MUL SWAP2 SWAP1 SWAP2 OR PUSH6 0xFFFFFFFFFFFF PUSH1 0xB0 SHL NOT AND PUSH1 0x1 PUSH1 0xB0 SHL PUSH1 0xE0 SWAP3 SWAP1 SWAP3 SHR SWAP2 SWAP1 SWAP2 MUL PUSH2 0xFFFF PUSH1 0xD0 SHL NOT AND OR PUSH1 0x1 PUSH1 0xD0 SHL PUSH2 0xFFFF SWAP4 DUP5 AND MUL OR PUSH2 0xFFFF PUSH1 0xE0 SHL NOT DUP2 AND PUSH1 0x1 PUSH1 0xE0 SHL SWAP4 SWAP1 SWAP3 AND SWAP3 SWAP1 SWAP3 MUL SWAP1 DUP2 OR DUP4 SSTORE PUSH1 0xC0 DUP5 ADD MLOAD SWAP2 DUP4 SWAP2 PUSH3 0xFFFFFF PUSH1 0xE0 SHL NOT SWAP1 SWAP2 AND PUSH1 0xFF PUSH1 0xF0 SHL NOT SWAP1 SWAP2 AND OR PUSH1 0x1 PUSH1 0xF0 SHL DUP4 PUSH1 0x3 DUP2 GT ISZERO PUSH2 0x13EA JUMPI PUSH2 0x13EA PUSH2 0x4A32 JUMP JUMPDEST MUL OR SWAP1 SSTORE POP SWAP1 POP POP DUP5 PUSH1 0x80 ADD MLOAD DUP5 DUP2 MLOAD DUP2 LT PUSH2 0x1408 JUMPI PUSH2 0x1408 PUSH2 0x4A48 JUMP JUMPDEST PUSH1 0x20 MUL PUSH1 0x20 ADD ADD MLOAD DUP6 PUSH1 0x60 ADD MLOAD DUP7 PUSH1 0x0 ADD MLOAD DUP2 MLOAD DUP2 LT PUSH2 0x142A JUMPI PUSH2 0x142A PUSH2 0x4A48 JUMP JUMPDEST PUSH1 0x20 MUL PUSH1 0x20 ADD ADD MLOAD PUSH1 0x1 PUSH1 0x1 PUSH1 0xA0 SHL SUB AND CALLER PUSH1 0x1 PUSH1 0x1 PUSH1 0xA0 SHL SUB AND PUSH32 0x46E173C7568BB4F093E16923381DCBA2A6B48F9CC9E688867965731218500AD3 DUP5 PUSH1 0x3 SLOAD DUP11 PUSH1 0xC0 ADD MLOAD DUP11 DUP2 MLOAD DUP2 LT PUSH2 0x1480 JUMPI PUSH2 0x1480 PUSH2 0x4A48 JUMP JUMPDEST PUSH1 0x20 MUL PUSH1 0x20 ADD ADD MLOAD DUP12 PUSH1 0xE0 ADD MLOAD DUP12 DUP2 MLOAD DUP2 LT PUSH2 0x149E JUMPI PUSH2 0x149E PUSH2 0x4A48 JUMP JUMPDEST PUSH1 0x20 MUL PUSH1 0x20 ADD ADD MLOAD DUP9 PUSH2 0x14CE JUMPI DUP13 PUSH1 0xA0 ADD MLOAD DUP13 DUP2 MLOAD DUP2 LT PUSH2 0x14C1 JUMPI PUSH2 0x14C1 PUSH2 0x4A48 JUMP JUMPDEST PUSH1 0x20 MUL PUSH1 0x20 ADD ADD MLOAD PUSH2 0x14D1 JUMP JUMPDEST PUSH1 0x1 JUMPDEST DUP14 PUSH2 0x180 ADD MLOAD DUP14 DUP2 MLOAD DUP2 LT PUSH2 0x14E8 JUMPI PUSH2 0x14E8 PUSH2 0x4A48 JUMP JUMPDEST PUSH1 0x20 MUL PUSH1 0x20 ADD ADD MLOAD PUSH1 0x40 MLOAD PUSH2 0x1502 SWAP7 SWAP6 SWAP5 SWAP4 SWAP3 SWAP2 SWAP1 PUSH2 0x4653 JUMP JUMPDEST PUSH1 0x40 MLOAD DUP1 SWAP2 SUB SWAP1 LOG4 PUSH1 0x3 DUP1 SLOAD SWAP1 PUSH1 0x0 PUSH2 0x151A DUP4 PUSH2 0x4A01 JUMP JUMPDEST SWAP2 SWAP1 POP SSTORE POP POP POP POP DUP1 DUP1 PUSH2 0x152D SWAP1 PUSH2 0x4A01 JUMP JUMPDEST SWAP2 POP POP PUSH2 0xFD6 JUMP JUMPDEST POP PUSH2 0x1573 DUP2 CALLER ADDRESS PUSH2 0x1555 DUP6 PUSH1 0x80 ADD MLOAD DUP7 PUSH1 0x0 ADD MLOAD DUP8 PUSH1 0x20 ADD MLOAD PUSH1 0x0 PUSH2 0x2DAA JUMP JUMPDEST PUSH2 0x156E DUP7 PUSH1 0xA0 ADD MLOAD DUP8 PUSH1 0x0 ADD MLOAD DUP9 PUSH1 0x20 ADD MLOAD PUSH1 0x0 PUSH2 0x2DAA JUMP JUMPDEST PUSH2 0x2E69 JUMP JUMPDEST POP JUMP JUMPDEST PUSH2 0x157E PUSH2 0x3C04 JUMP JUMPDEST PUSH1 0x40 MLOAD DUP1 PUSH2 0x1A0 ADD PUSH1 0x40 MSTORE DUP1 PUSH1 0x0 DUP2 MSTORE PUSH1 0x20 ADD PUSH1 0x1 DUP2 MSTORE PUSH1 0x20 ADD DUP10 DUP2 MSTORE PUSH1 0x20 ADD DUP9 DUP2 MSTORE PUSH1 0x20 ADD DUP8 DUP2 MSTORE PUSH1 0x20 ADD DUP7 DUP2 MSTORE PUSH1 0x20 ADD DUP6 DUP2 MSTORE PUSH1 0x20 ADD DUP5 DUP2 MSTORE PUSH1 0x20 ADD PUSH1 0x0 PUSH1 0x1 PUSH1 0x1 PUSH1 0x40 SHL SUB DUP2 GT ISZERO PUSH2 0x15D5 JUMPI PUSH2 0x15D5 PUSH2 0x4A5E JUMP JUMPDEST PUSH1 0x40 MLOAD SWAP1 DUP1 DUP3 MSTORE DUP1 PUSH1 0x20 MUL PUSH1 0x20 ADD DUP3 ADD PUSH1 0x40 MSTORE DUP1 ISZERO PUSH2 0x15FE JUMPI DUP2 PUSH1 0x20 ADD PUSH1 0x20 DUP3 MUL DUP1 CALLDATASIZE DUP4 CALLDATACOPY ADD SWAP1 POP JUMPDEST POP DUP2 MSTORE PUSH1 0x20 ADD PUSH1 0x0 PUSH1 0x40 MLOAD SWAP1 DUP1 DUP3 MSTORE DUP1 PUSH1 0x20 MUL PUSH1 0x20 ADD DUP3 ADD PUSH1 0x40 MSTORE DUP1 ISZERO PUSH2 0x162F JUMPI DUP2 PUSH1 0x20 ADD PUSH1 0x20 DUP3 MUL DUP1 CALLDATASIZE DUP4 CALLDATACOPY ADD SWAP1 POP JUMPDEST POP DUP2 MSTORE PUSH1 0x20 ADD PUSH1 0x0 PUSH1 0x40 MLOAD SWAP1 DUP1 DUP3 MSTORE DUP1 PUSH1 0x20 MUL PUSH1 0x20 ADD DUP3 ADD PUSH1 0x40 MSTORE DUP1 ISZERO PUSH2 0x1660 JUMPI DUP2 PUSH1 0x20 ADD PUSH1 0x20 DUP3 MUL DUP1 CALLDATASIZE DUP4 CALLDATACOPY ADD SWAP1 POP JUMPDEST POP DUP2 MSTORE PUSH1 0x20 ADD PUSH1 0x0 PUSH1 0x40 MLOAD SWAP1 DUP1 DUP3 MSTORE DUP1 PUSH1 0x20 MUL PUSH1 0x20 ADD DUP3 ADD PUSH1 0x40 MSTORE DUP1 ISZERO PUSH2 0x1691 JUMPI DUP2 PUSH1 0x20 ADD PUSH1 0x20 DUP3 MUL DUP1 CALLDATASIZE DUP4 CALLDATACOPY ADD SWAP1 POP JUMPDEST POP DUP2 MSTORE PUSH1 0x20 ADD SWAP3 SWAP1 SWAP3 MSTORE POP SWAP7 SWAP6 POP POP POP POP POP POP JUMP JUMPDEST DUP1 MLOAD JUMPDEST DUP2 PUSH1 0x20 ADD MLOAD DUP2 LT ISZERO PUSH2 0xD14 JUMPI PUSH1 0x0 DUP3 PUSH1 0x60 ADD MLOAD DUP4 PUSH1 0x0 ADD MLOAD DUP2 MLOAD DUP2 LT PUSH2 0x16D1 JUMPI PUSH2 0x16D1 PUSH2 0x4A48 JUMP JUMPDEST PUSH1 0x20 MUL PUSH1 0x20 ADD ADD MLOAD DUP4 PUSH1 0x80 ADD MLOAD DUP4 DUP2 MLOAD DUP2 LT PUSH2 0x16EF JUMPI PUSH2 0x16EF PUSH2 0x4A48 JUMP JUMPDEST PUSH1 0x20 MUL PUSH1 0x20 ADD ADD MLOAD DUP5 PUSH2 0x100 ADD MLOAD DUP5 DUP2 MLOAD DUP2 LT PUSH2 0x170E JUMPI PUSH2 0x170E PUSH2 0x4A48 JUMP JUMPDEST PUSH1 0x20 MUL PUSH1 0x20 ADD ADD MLOAD PUSH1 0x40 MLOAD PUSH1 0x20 ADD PUSH2 0x1728 SWAP4 SWAP3 SWAP2 SWAP1 PUSH2 0x45B2 JUMP JUMPDEST PUSH1 0x40 MLOAD PUSH1 0x20 DUP2 DUP4 SUB SUB DUP2 MSTORE SWAP1 PUSH1 0x40 MSTORE DUP1 MLOAD SWAP1 PUSH1 0x20 ADD KECCAK256 SWAP1 POP PUSH1 0x0 DUP4 PUSH1 0x60 ADD MLOAD DUP5 PUSH1 0x0 ADD MLOAD DUP2 MLOAD DUP2 LT PUSH2 0x175C JUMPI PUSH2 0x175C PUSH2 0x4A48 JUMP JUMPDEST PUSH1 0x20 MUL PUSH1 0x20 ADD ADD MLOAD DUP5 PUSH1 0x80 ADD MLOAD DUP5 DUP2 MLOAD DUP2 LT PUSH2 0x177A JUMPI PUSH2 0x177A PUSH2 0x4A48 JUMP JUMPDEST PUSH1 0x20 MUL PUSH1 0x20 ADD ADD MLOAD DUP6 PUSH2 0x120 ADD MLOAD DUP6 DUP2 MLOAD DUP2 LT PUSH2 0x1799 JUMPI PUSH2 0x1799 PUSH2 0x4A48 JUMP JUMPDEST PUSH1 0x20 MUL PUSH1 0x20 ADD ADD MLOAD PUSH1 0x40 MLOAD PUSH1 0x20 ADD PUSH2 0x17B3 SWAP4 SWAP3 SWAP2 SWAP1 PUSH2 0x45B2 JUMP JUMPDEST PUSH1 0x40 DUP1 MLOAD PUSH1 0x1F NOT DUP2 DUP5 SUB ADD DUP2 MSTORE DUP3 DUP3 MSTORE DUP1 MLOAD PUSH1 0x20 SWAP2 DUP3 ADD KECCAK256 PUSH1 0x0 DUP7 DUP2 MSTORE PUSH1 0x7 DUP4 MSTORE DUP4 DUP2 KECCAK256 DUP3 DUP3 MSTORE PUSH1 0x8 SWAP1 SWAP4 MSTORE DUP4 SWAP1 KECCAK256 PUSH1 0xE0 DUP6 ADD SWAP1 SWAP4 MSTORE DUP2 SLOAD SWAP1 SWAP5 POP SWAP1 SWAP3 PUSH2 0x180C SWAP2 DUP5 SWAP1 DUP3 SWAP1 PUSH1 0xFF AND PUSH1 0x1 DUP2 GT ISZERO PUSH2 0x931 JUMPI PUSH2 0x931 PUSH2 0x4A32 JUMP JUMPDEST PUSH1 0x40 DUP1 MLOAD PUSH1 0x80 DUP2 ADD DUP3 MSTORE DUP3 SLOAD PUSH1 0x1 PUSH1 0x1 PUSH1 0xA0 SHL SUB DUP2 AND DUP3 MSTORE PUSH1 0x1 PUSH1 0xA0 SHL DUP2 DIV PUSH1 0xFF AND PUSH1 0x20 DUP4 ADD MSTORE PUSH1 0x1 PUSH1 0xA8 SHL DUP2 DIV PUSH4 0xFFFFFFFF AND SWAP3 DUP3 ADD SWAP3 SWAP1 SWAP3 MSTORE PUSH1 0x1 PUSH1 0xC8 SHL SWAP1 SWAP2 DIV PUSH2 0xFFFF AND PUSH1 0x60 DUP3 ADD MSTORE PUSH2 0x1861 SWAP1 PUSH2 0x2FEA JUMP JUMPDEST PUSH1 0x40 DUP1 MLOAD PUSH1 0x80 DUP2 ADD DUP3 MSTORE DUP3 SLOAD PUSH1 0x1 PUSH1 0x1 PUSH1 0xA0 SHL SUB DUP2 AND DUP3 MSTORE PUSH1 0x1 PUSH1 0xA0 SHL DUP2 DIV PUSH1 0xFF AND PUSH1 0x20 DUP4 ADD MSTORE PUSH1 0x1 PUSH1 0xA8 SHL DUP2 DIV PUSH4 0xFFFFFFFF AND SWAP3 DUP3 ADD SWAP3 SWAP1 SWAP3 MSTORE PUSH1 0x1 PUSH1 0xC8 SHL SWAP1 SWAP2 DIV PUSH2 0xFFFF AND PUSH1 0x60 DUP3 ADD MSTORE PUSH2 0x18B7 SWAP1 TIMESTAMP PUSH2 0x3070 JUMP JUMPDEST PUSH1 0x40 DUP1 MLOAD PUSH1 0xE0 DUP2 ADD SWAP1 SWAP2 MSTORE DUP3 SLOAD PUSH2 0x19D5 SWAP2 SWAP1 DUP5 SWAP1 DUP3 SWAP1 PUSH1 0xFF AND PUSH1 0x1 DUP2 GT ISZERO PUSH2 0x18E1 JUMPI PUSH2 0x18E1 PUSH2 0x4A32 JUMP JUMPDEST PUSH1 0x1 DUP2 GT ISZERO PUSH2 0x18F2 JUMPI PUSH2 0x18F2 PUSH2 0x4A32 JUMP JUMPDEST DUP2 MSTORE DUP2 SLOAD PUSH1 0x1 PUSH1 0x1 PUSH1 0xA0 SHL SUB PUSH2 0x100 DUP3 DIV AND PUSH1 0x20 DUP4 ADD MSTORE PUSH1 0xFF PUSH1 0x1 PUSH1 0xA8 SHL DUP3 DIV DUP2 AND PUSH1 0x40 DUP5 ADD MSTORE PUSH1 0x1 PUSH1 0x1 PUSH1 0xE0 SHL SUB NOT PUSH1 0x1 PUSH1 0xB0 SHL DUP4 DIV PUSH1 0xE0 SHL AND PUSH1 0x60 DUP5 ADD MSTORE PUSH2 0xFFFF PUSH1 0x1 PUSH1 0xD0 SHL DUP4 DIV DUP2 AND PUSH1 0x80 DUP6 ADD MSTORE PUSH1 0x1 PUSH1 0xE0 SHL DUP4 DIV AND PUSH1 0xA0 DUP5 ADD MSTORE PUSH1 0xC0 SWAP1 SWAP3 ADD SWAP2 PUSH1 0x1 PUSH1 0xF0 SHL SWAP1 SWAP2 DIV AND PUSH1 0x3 DUP2 GT ISZERO PUSH2 0x1970 JUMPI PUSH2 0x1970 PUSH2 0x4A32 JUMP JUMPDEST PUSH1 0x3 DUP2 GT ISZERO PUSH2 0x1981 JUMPI PUSH2 0x1981 PUSH2 0x4A32 JUMP JUMPDEST SWAP1 MSTORE POP PUSH1 0x40 DUP1 MLOAD PUSH1 0x80 DUP2 ADD DUP3 MSTORE DUP5 SLOAD PUSH1 0x1 PUSH1 0x1 PUSH1 0xA0 SHL SUB DUP2 AND DUP3 MSTORE PUSH1 0x1 PUSH1 0xA0 SHL DUP2 DIV PUSH1 0xFF AND PUSH1 0x20 DUP4 ADD MSTORE PUSH1 0x1 PUSH1 0xA8 SHL DUP2 DIV PUSH4 0xFFFFFFFF AND SWAP3 DUP3 ADD SWAP3 SWAP1 SWAP3 MSTORE PUSH1 0x1 PUSH1 0xC8 SHL SWAP1 SWAP2 DIV PUSH2 0xFFFF AND PUSH1 0x60 DUP3 ADD MSTORE PUSH2 0x30C6 JUMP JUMPDEST DUP6 PUSH2 0x120 ADD MLOAD DUP6 DUP2 MLOAD DUP2 LT PUSH2 0x19EC JUMPI PUSH2 0x19EC PUSH2 0x4A48 JUMP JUMPDEST PUSH1 0x20 MUL PUSH1 0x20 ADD ADD MLOAD PUSH32 0x4630B53A4335803B2A4F9C1CE896F4CADBF909907810E496EDA17614483D7B94 TIMESTAMP PUSH1 0x40 MLOAD PUSH2 0x1A2F SWAP2 SWAP1 PUSH4 0xFFFFFFFF SWAP2 SWAP1 SWAP2 AND DUP2 MSTORE PUSH1 0x20 ADD SWAP1 JUMP JUMPDEST PUSH1 0x40 MLOAD DUP1 SWAP2 SUB SWAP1 LOG2 DUP1 SLOAD DUP3 SLOAD PUSH2 0x1A5A SWAP2 PUSH2 0xFFFF PUSH1 0x1 PUSH1 0xC8 SHL SWAP1 SWAP2 DIV DUP2 AND SWAP2 PUSH1 0x1 PUSH1 0xE0 SHL SWAP1 DIV AND PUSH2 0x4831 JUMP JUMPDEST DUP3 SLOAD PUSH2 0xFFFF SWAP2 SWAP1 SWAP2 AND PUSH1 0x1 PUSH1 0xE0 SHL MUL PUSH2 0xFFFF PUSH1 0xE0 SHL NOT SWAP1 SWAP2 AND OR SWAP1 SWAP2 SSTORE POP PUSH1 0x0 SWAP1 DUP2 MSTORE PUSH1 0x8 PUSH1 0x20 MSTORE PUSH1 0x40 SWAP1 KECCAK256 DUP1 SLOAD PUSH1 0x1 PUSH1 0x1 PUSH1 0xD8 SHL SUB NOT AND SWAP1 SSTORE POP DUP1 PUSH2 0x1A9F DUP2 PUSH2 0x4A01 JUMP JUMPDEST SWAP2 POP POP PUSH2 0x16A9 JUMP JUMPDEST DUP1 MLOAD PUSH1 0x20 DUP3 ADD MLOAD PUSH1 0x0 SWAP2 PUSH2 0x1ABA SWAP2 PUSH2 0x49BE JUMP JUMPDEST PUSH1 0x1 PUSH1 0x1 PUSH1 0x40 SHL SUB DUP2 GT ISZERO PUSH2 0x1AD1 JUMPI PUSH2 0x1AD1 PUSH2 0x4A5E JUMP JUMPDEST PUSH1 0x40 MLOAD SWAP1 DUP1 DUP3 MSTORE DUP1 PUSH1 0x20 MUL PUSH1 0x20 ADD DUP3 ADD PUSH1 0x40 MSTORE DUP1 ISZERO PUSH2 0x1AFA JUMPI DUP2 PUSH1 0x20 ADD PUSH1 0x20 DUP3 MUL DUP1 CALLDATASIZE DUP4 CALLDATACOPY ADD SWAP1 POP JUMPDEST POP DUP3 MLOAD SWAP1 SWAP2 POP JUMPDEST DUP3 PUSH1 0x20 ADD MLOAD DUP2 LT ISZERO PUSH2 0x1E2D JUMPI PUSH1 0x0 DUP4 PUSH1 0x60 ADD MLOAD DUP5 PUSH1 0x0 ADD MLOAD DUP2 MLOAD DUP2 LT PUSH2 0x1B29 JUMPI PUSH2 0x1B29 PUSH2 0x4A48 JUMP JUMPDEST PUSH1 0x20 MUL PUSH1 0x20 ADD ADD MLOAD DUP5 PUSH1 0x80 ADD MLOAD DUP4 DUP2 MLOAD DUP2 LT PUSH2 0x1B47 JUMPI PUSH2 0x1B47 PUSH2 0x4A48 JUMP JUMPDEST PUSH1 0x20 MUL PUSH1 0x20 ADD ADD MLOAD DUP6 PUSH2 0x100 ADD MLOAD DUP5 DUP2 MLOAD DUP2 LT PUSH2 0x1B66 JUMPI PUSH2 0x1B66 PUSH2 0x4A48 JUMP JUMPDEST PUSH1 0x20 MUL PUSH1 0x20 ADD ADD MLOAD PUSH1 0x40 MLOAD PUSH1 0x20 ADD PUSH2 0x1B80 SWAP4 SWAP3 SWAP2 SWAP1 PUSH2 0x45B2 JUMP JUMPDEST PUSH1 0x40 DUP1 MLOAD PUSH1 0x1F NOT DUP2 DUP5 SUB ADD DUP2 MSTORE DUP3 DUP3 MSTORE DUP1 MLOAD PUSH1 0x20 SWAP2 DUP3 ADD KECCAK256 PUSH1 0x0 DUP2 DUP2 MSTORE PUSH1 0x7 SWAP1 SWAP3 MSTORE SWAP1 DUP3 SWAP1 KECCAK256 PUSH1 0xE0 DUP5 ADD SWAP1 SWAP3 MSTORE DUP2 SLOAD SWAP1 SWAP4 POP SWAP1 SWAP2 PUSH2 0x1BD0 SWAP2 DUP4 SWAP1 DUP3 SWAP1 PUSH1 0xFF AND PUSH1 0x1 DUP2 GT ISZERO PUSH2 0x931 JUMPI PUSH2 0x931 PUSH2 0x4A32 JUMP JUMPDEST PUSH1 0x40 DUP1 MLOAD PUSH1 0xE0 DUP2 ADD SWAP1 SWAP2 MSTORE DUP2 SLOAD PUSH2 0x1CA3 SWAP2 SWAP1 DUP4 SWAP1 DUP3 SWAP1 PUSH1 0xFF AND PUSH1 0x1 DUP2 GT ISZERO PUSH2 0x1BFA JUMPI PUSH2 0x1BFA PUSH2 0x4A32 JUMP JUMPDEST PUSH1 0x1 DUP2 GT ISZERO PUSH2 0x1C0B JUMPI PUSH2 0x1C0B PUSH2 0x4A32 JUMP JUMPDEST DUP2 MSTORE DUP2 SLOAD PUSH1 0x1 PUSH1 0x1 PUSH1 0xA0 SHL SUB PUSH2 0x100 DUP3 DIV AND PUSH1 0x20 DUP4 ADD MSTORE PUSH1 0xFF PUSH1 0x1 PUSH1 0xA8 SHL DUP3 DIV DUP2 AND PUSH1 0x40 DUP5 ADD MSTORE PUSH1 0x1 PUSH1 0x1 PUSH1 0xE0 SHL SUB NOT PUSH1 0x1 PUSH1 0xB0 SHL DUP4 DIV PUSH1 0xE0 SHL AND PUSH1 0x60 DUP5 ADD MSTORE PUSH2 0xFFFF PUSH1 0x1 PUSH1 0xD0 SHL DUP4 DIV DUP2 AND PUSH1 0x80 DUP6 ADD MSTORE PUSH1 0x1 PUSH1 0xE0 SHL DUP4 DIV AND PUSH1 0xA0 DUP5 ADD MSTORE PUSH1 0xC0 SWAP1 SWAP3 ADD SWAP2 PUSH1 0x1 PUSH1 0xF0 SHL SWAP1 SWAP2 DIV AND PUSH1 0x3 DUP2 GT ISZERO PUSH2 0x1C89 JUMPI PUSH2 0x1C89 PUSH2 0x4A32 JUMP JUMPDEST PUSH1 0x3 DUP2 GT ISZERO PUSH2 0x1C9A JUMPI PUSH2 0x1C9A PUSH2 0x4A32 JUMP JUMPDEST SWAP1 MSTORE POP CALLER PUSH2 0x3278 JUMP JUMPDEST DUP1 SLOAD PUSH1 0xFF AND PUSH1 0x1 DUP2 GT ISZERO PUSH2 0x1CB9 JUMPI PUSH2 0x1CB9 PUSH2 0x4A32 JUMP JUMPDEST DUP6 PUSH1 0x40 ADD MLOAD DUP5 DUP2 MLOAD DUP2 LT PUSH2 0x1CCF JUMPI PUSH2 0x1CCF PUSH2 0x4A48 JUMP JUMPDEST PUSH1 0x20 MUL PUSH1 0x20 ADD ADD MLOAD PUSH1 0x1 DUP2 GT ISZERO PUSH2 0x1CE8 JUMPI PUSH2 0x1CE8 PUSH2 0x4A32 JUMP JUMPDEST EQ PUSH2 0x1D05 JUMPI PUSH1 0x40 MLOAD PUSH3 0x461BCD PUSH1 0xE5 SHL DUP2 MSTORE PUSH1 0x4 ADD PUSH2 0x429 SWAP1 PUSH2 0x46E8 JUMP JUMPDEST DUP1 SLOAD PUSH1 0x1 PUSH1 0xD0 SHL DUP2 DIV PUSH2 0xFFFF SWAP1 DUP2 AND PUSH1 0x1 PUSH1 0xE0 SHL SWAP1 SWAP3 DIV AND EQ PUSH2 0x1D63 JUMPI PUSH1 0x40 MLOAD PUSH3 0x461BCD PUSH1 0xE5 SHL DUP2 MSTORE PUSH1 0x20 PUSH1 0x4 DUP3 ADD MSTORE PUSH1 0x16 PUSH1 0x24 DUP3 ADD MSTORE PUSH22 0x14995391950E8E9858DD1A5D995B1E481C995B9D1959 PUSH1 0x52 SHL PUSH1 0x44 DUP3 ADD MSTORE PUSH1 0x64 ADD PUSH2 0x429 JUMP JUMPDEST DUP1 SLOAD DUP6 MLOAD PUSH1 0x1 PUSH1 0xD0 SHL SWAP1 SWAP2 DIV PUSH2 0xFFFF AND SWAP1 DUP6 SWAP1 PUSH2 0x1D80 SWAP1 DUP7 PUSH2 0x49BE JUMP JUMPDEST DUP2 MLOAD DUP2 LT PUSH2 0x1D90 JUMPI PUSH2 0x1D90 PUSH2 0x4A48 JUMP JUMPDEST PUSH1 0x20 MUL PUSH1 0x20 ADD ADD DUP2 DUP2 MSTORE POP POP DUP5 PUSH2 0x100 ADD MLOAD DUP4 DUP2 MLOAD DUP2 LT PUSH2 0x1DB3 JUMPI PUSH2 0x1DB3 PUSH2 0x4A48 JUMP JUMPDEST PUSH1 0x20 MUL PUSH1 0x20 ADD ADD MLOAD PUSH32 0xD0234BC8DD7E933F60CBC1E90FC139A8A9683AF1CB92743607DAFB9DFB70059B TIMESTAMP PUSH1 0x40 MLOAD PUSH2 0x1DF6 SWAP2 SWAP1 PUSH4 0xFFFFFFFF SWAP2 SWAP1 SWAP2 AND DUP2 MSTORE PUSH1 0x20 ADD SWAP1 JUMP JUMPDEST PUSH1 0x40 MLOAD DUP1 SWAP2 SUB SWAP1 LOG2 POP PUSH1 0x0 SWAP1 DUP2 MSTORE PUSH1 0x7 PUSH1 0x20 MSTORE PUSH1 0x40 SWAP1 KECCAK256 DUP1 SLOAD PUSH1 0x1 PUSH1 0x1 PUSH1 0xF8 SHL SUB NOT AND SWAP1 SSTORE DUP1 PUSH2 0x1E25 DUP2 PUSH2 0x4A01 JUMP JUMPDEST SWAP2 POP POP PUSH2 0x1B01 JUMP JUMPDEST POP PUSH2 0xD14 DUP3 ADDRESS CALLER PUSH2 0x1E4D DUP7 PUSH1 0x80 ADD MLOAD DUP8 PUSH1 0x0 ADD MLOAD DUP9 PUSH1 0x20 ADD MLOAD PUSH1 0x0 PUSH2 0x2DAA JUMP JUMPDEST DUP7 MLOAD PUSH1 0x20 DUP9 ADD MLOAD PUSH2 0x156E SWAP2 DUP9 SWAP2 DUP2 PUSH2 0x2DAA JUMP JUMPDEST DUP1 MLOAD JUMPDEST DUP2 PUSH1 0x20 ADD MLOAD DUP2 LT ISZERO PUSH2 0xD14 JUMPI PUSH1 0x0 DUP3 PUSH1 0x60 ADD MLOAD DUP4 PUSH1 0x0 ADD MLOAD DUP2 MLOAD DUP2 LT PUSH2 0x1E8B JUMPI PUSH2 0x1E8B PUSH2 0x4A48 JUMP JUMPDEST PUSH1 0x20 MUL PUSH1 0x20 ADD ADD MLOAD DUP4 PUSH1 0x80 ADD MLOAD DUP4 DUP2 MLOAD DUP2 LT PUSH2 0x1EA9 JUMPI PUSH2 0x1EA9 PUSH2 0x4A48 JUMP JUMPDEST PUSH1 0x20 MUL PUSH1 0x20 ADD ADD MLOAD DUP5 PUSH2 0x100 ADD MLOAD DUP5 DUP2 MLOAD DUP2 LT PUSH2 0x1EC8 JUMPI PUSH2 0x1EC8 PUSH2 0x4A48 JUMP JUMPDEST PUSH1 0x20 MUL PUSH1 0x20 ADD ADD MLOAD PUSH1 0x40 MLOAD PUSH1 0x20 ADD PUSH2 0x1EE2 SWAP4 SWAP3 SWAP2 SWAP1 PUSH2 0x45B2 JUMP JUMPDEST PUSH1 0x40 MLOAD PUSH1 0x20 DUP2 DUP4 SUB SUB DUP2 MSTORE SWAP1 PUSH1 0x40 MSTORE DUP1 MLOAD SWAP1 PUSH1 0x20 ADD KECCAK256 SWAP1 POP PUSH1 0x0 DUP4 PUSH1 0x60 ADD MLOAD DUP5 PUSH1 0x0 ADD MLOAD DUP2 MLOAD DUP2 LT PUSH2 0x1F16 JUMPI PUSH2 0x1F16 PUSH2 0x4A48 JUMP JUMPDEST PUSH1 0x20 MUL PUSH1 0x20 ADD ADD MLOAD DUP5 PUSH1 0x80 ADD MLOAD DUP5 DUP2 MLOAD DUP2 LT PUSH2 0x1F34 JUMPI PUSH2 0x1F34 PUSH2 0x4A48 JUMP JUMPDEST PUSH1 0x20 MUL PUSH1 0x20 ADD ADD MLOAD PUSH1 0x4 SLOAD PUSH1 0x40 MLOAD PUSH1 0x20 ADD PUSH2 0x1F51 SWAP4 SWAP3 SWAP2 SWAP1 PUSH2 0x45B2 JUMP JUMPDEST PUSH1 0x40 DUP1 MLOAD PUSH1 0x1F NOT DUP2 DUP5 SUB ADD DUP2 MSTORE DUP3 DUP3 MSTORE DUP1 MLOAD PUSH1 0x20 SWAP2 DUP3 ADD KECCAK256 PUSH1 0x0 DUP7 DUP2 MSTORE PUSH1 0x7 DUP4 MSTORE DUP4 DUP2 KECCAK256 DUP3 DUP3 MSTORE PUSH1 0x8 SWAP1 SWAP4 MSTORE DUP4 SWAP1 KECCAK256 PUSH1 0xE0 DUP6 ADD SWAP1 SWAP4 MSTORE DUP2 SLOAD SWAP1 SWAP5 POP SWAP1 SWAP3 PUSH2 0x1FAA SWAP2 DUP5 SWAP1 DUP3 SWAP1 PUSH1 0xFF AND PUSH1 0x1 DUP2 GT ISZERO PUSH2 0x931 JUMPI PUSH2 0x931 PUSH2 0x4A32 JUMP JUMPDEST PUSH1 0x40 DUP1 MLOAD PUSH1 0x80 DUP2 ADD DUP3 MSTORE DUP3 SLOAD PUSH1 0x1 PUSH1 0x1 PUSH1 0xA0 SHL SUB DUP2 AND DUP3 MSTORE PUSH1 0x1 PUSH1 0xA0 SHL DUP2 DIV PUSH1 0xFF AND PUSH1 0x20 DUP4 ADD MSTORE PUSH1 0x1 PUSH1 0xA8 SHL DUP2 DIV PUSH4 0xFFFFFFFF AND SWAP3 DUP3 ADD SWAP3 SWAP1 SWAP3 MSTORE PUSH1 0x1 PUSH1 0xC8 SHL SWAP1 SWAP2 DIV PUSH2 0xFFFF AND PUSH1 0x60 DUP3 ADD MSTORE PUSH2 0x1FFF SWAP1 PUSH2 0x32D1 JUMP JUMPDEST PUSH1 0x40 DUP1 MLOAD PUSH1 0xE0 DUP2 ADD SWAP1 SWAP2 MSTORE DUP3 SLOAD PUSH2 0x20D4 SWAP2 SWAP1 DUP5 SWAP1 DUP3 SWAP1 PUSH1 0xFF AND PUSH1 0x1 DUP2 GT ISZERO PUSH2 0x2029 JUMPI PUSH2 0x2029 PUSH2 0x4A32 JUMP JUMPDEST PUSH1 0x1 DUP2 GT ISZERO PUSH2 0x203A JUMPI PUSH2 0x203A PUSH2 0x4A32 JUMP JUMPDEST DUP2 MSTORE DUP2 SLOAD PUSH1 0x1 PUSH1 0x1 PUSH1 0xA0 SHL SUB PUSH2 0x100 DUP3 DIV AND PUSH1 0x20 DUP4 ADD MSTORE PUSH1 0xFF PUSH1 0x1 PUSH1 0xA8 SHL DUP3 DIV DUP2 AND PUSH1 0x40 DUP5 ADD MSTORE PUSH1 0x1 PUSH1 0x1 PUSH1 0xE0 SHL SUB NOT PUSH1 0x1 PUSH1 0xB0 SHL DUP4 DIV PUSH1 0xE0 SHL AND PUSH1 0x60 DUP5 ADD MSTORE PUSH2 0xFFFF PUSH1 0x1 PUSH1 0xD0 SHL DUP4 DIV DUP2 AND PUSH1 0x80 DUP6 ADD MSTORE PUSH1 0x1 PUSH1 0xE0 SHL DUP4 DIV AND PUSH1 0xA0 DUP5 ADD MSTORE PUSH1 0xC0 SWAP1 SWAP3 ADD SWAP2 PUSH1 0x1 PUSH1 0xF0 SHL SWAP1 SWAP2 DIV AND PUSH1 0x3 DUP2 GT ISZERO PUSH2 0x20B8 JUMPI PUSH2 0x20B8 PUSH2 0x4A32 JUMP JUMPDEST PUSH1 0x3 DUP2 GT ISZERO PUSH2 0x20C9 JUMPI PUSH2 0x20C9 PUSH2 0x4A32 JUMP JUMPDEST SWAP1 MSTORE POP DUP8 DUP8 CALLER PUSH2 0x3384 JUMP JUMPDEST DUP2 SLOAD PUSH1 0xFF AND PUSH1 0x1 DUP2 GT ISZERO PUSH2 0x20EA JUMPI PUSH2 0x20EA PUSH2 0x4A32 JUMP JUMPDEST DUP7 PUSH1 0x40 ADD MLOAD DUP7 DUP2 MLOAD DUP2 LT PUSH2 0x2100 JUMPI PUSH2 0x2100 PUSH2 0x4A48 JUMP JUMPDEST PUSH1 0x20 MUL PUSH1 0x20 ADD ADD MLOAD PUSH1 0x1 DUP2 GT ISZERO PUSH2 0x2119 JUMPI PUSH2 0x2119 PUSH2 0x4A32 JUMP JUMPDEST EQ PUSH2 0x2136 JUMPI PUSH1 0x40 MLOAD PUSH3 0x461BCD PUSH1 0xE5 SHL DUP2 MSTORE PUSH1 0x4 ADD PUSH2 0x429 SWAP1 PUSH2 0x46E8 JUMP JUMPDEST DUP2 SLOAD PUSH2 0x160 DUP8 ADD MLOAD DUP1 MLOAD PUSH1 0x1 PUSH1 0xE0 SHL SWAP1 SWAP3 DIV PUSH2 0xFFFF AND SWAP2 DUP8 SWAP1 DUP2 LT PUSH2 0x215D JUMPI PUSH2 0x215D PUSH2 0x4A48 JUMP JUMPDEST PUSH1 0x20 MUL PUSH1 0x20 ADD ADD MLOAD GT ISZERO PUSH2 0x21B3 JUMPI PUSH1 0x40 MLOAD PUSH3 0x461BCD PUSH1 0xE5 SHL DUP2 MSTORE PUSH1 0x20 PUSH1 0x4 DUP3 ADD MSTORE PUSH1 0x1A PUSH1 0x24 DUP3 ADD MSTORE PUSH32 0x52654E46543A3A696E76616C69642072656E7420616D6F756E74000000000000 PUSH1 0x44 DUP3 ADD MSTORE PUSH1 0x64 ADD PUSH2 0x429 JUMP JUMPDEST DUP2 SLOAD PUSH1 0x0 SWAP1 PUSH1 0x1 PUSH1 0xF0 SHL SWAP1 DIV PUSH1 0xFF AND PUSH1 0x3 DUP2 GT ISZERO PUSH2 0x21D3 JUMPI PUSH2 0x21D3 PUSH2 0x4A32 JUMP JUMPDEST PUSH1 0x0 DUP1 SLOAD PUSH1 0x40 MLOAD PUSH4 0xC6EE427F PUSH1 0xE0 SHL DUP2 MSTORE PUSH1 0xFF DUP5 AND PUSH1 0x4 DUP3 ADD MSTORE SWAP3 SWAP4 POP SWAP1 SWAP2 PUSH1 0x1 PUSH1 0x1 PUSH1 0xA0 SHL SUB SWAP1 SWAP2 AND SWAP1 PUSH4 0xC6EE427F SWAP1 PUSH1 0x24 ADD PUSH1 0x20 PUSH1 0x40 MLOAD DUP1 DUP4 SUB DUP2 DUP7 DUP1 EXTCODESIZE ISZERO DUP1 ISZERO PUSH2 0x221F JUMPI PUSH1 0x0 DUP1 REVERT JUMPDEST POP GAS STATICCALL ISZERO DUP1 ISZERO PUSH2 0x2233 JUMPI RETURNDATASIZE PUSH1 0x0 DUP1 RETURNDATACOPY RETURNDATASIZE PUSH1 0x0 REVERT JUMPDEST POP POP POP POP PUSH1 0x40 MLOAD RETURNDATASIZE PUSH1 0x1F NOT PUSH1 0x1F DUP3 ADD AND DUP3 ADD DUP1 PUSH1 0x40 MSTORE POP DUP2 ADD SWAP1 PUSH2 0x2257 SWAP2 SWAP1 PUSH2 0x3F8B JUMP JUMPDEST SWAP1 POP PUSH1 0x0 DUP2 PUSH1 0x1 PUSH1 0x1 PUSH1 0xA0 SHL SUB AND PUSH4 0x313CE567 PUSH1 0x40 MLOAD DUP2 PUSH4 0xFFFFFFFF AND PUSH1 0xE0 SHL DUP2 MSTORE PUSH1 0x4 ADD PUSH1 0x20 PUSH1 0x40 MLOAD DUP1 DUP4 SUB DUP2 DUP7 DUP1 EXTCODESIZE ISZERO DUP1 ISZERO PUSH2 0x2294 JUMPI PUSH1 0x0 DUP1 REVERT JUMPDEST POP GAS STATICCALL ISZERO DUP1 ISZERO PUSH2 0x22A8 JUMPI RETURNDATASIZE PUSH1 0x0 DUP1 RETURNDATACOPY RETURNDATASIZE PUSH1 0x0 REVERT JUMPDEST POP POP POP POP PUSH1 0x40 MLOAD RETURNDATASIZE PUSH1 0x1F NOT PUSH1 0x1F DUP3 ADD AND DUP3 ADD DUP1 PUSH1 0x40 MSTORE POP DUP2 ADD SWAP1 PUSH2 0x22CC SWAP2 SWAP1 PUSH2 0x455A JUMP JUMPDEST PUSH1 0xFF AND SWAP1 POP PUSH1 0x0 PUSH2 0x22DE DUP3 PUSH1 0xA PUSH2 0x48D4 JUMP JUMPDEST DUP7 SLOAD SWAP1 SWAP2 POP PUSH1 0x0 SWAP1 PUSH2 0x22FA SWAP1 PUSH1 0x1 PUSH1 0xB0 SHL SWAP1 DIV PUSH1 0xE0 SHL DUP4 PUSH2 0x35EF JUMP JUMPDEST DUP12 PUSH2 0x140 ADD MLOAD DUP12 DUP2 MLOAD DUP2 LT PUSH2 0x2311 JUMPI PUSH2 0x2311 PUSH2 0x4A48 JUMP JUMPDEST PUSH1 0x20 MUL PUSH1 0x20 ADD ADD MLOAD PUSH1 0xFF AND DUP13 PUSH2 0x160 ADD MLOAD DUP13 DUP2 MLOAD DUP2 LT PUSH2 0x2333 JUMPI PUSH2 0x2333 PUSH2 0x4A48 JUMP JUMPDEST PUSH1 0x20 MUL PUSH1 0x20 ADD ADD MLOAD PUSH2 0x2345 SWAP2 SWAP1 PUSH2 0x497C JUMP JUMPDEST PUSH2 0x234F SWAP2 SWAP1 PUSH2 0x497C JUMP JUMPDEST SWAP1 POP PUSH1 0x0 DUP2 GT PUSH2 0x2371 JUMPI PUSH1 0x40 MLOAD PUSH3 0x461BCD PUSH1 0xE5 SHL DUP2 MSTORE PUSH1 0x4 ADD PUSH2 0x429 SWAP1 PUSH2 0x4756 JUMP JUMPDEST PUSH2 0x2386 PUSH1 0x1 PUSH1 0x1 PUSH1 0xA0 SHL SUB DUP6 AND CALLER ADDRESS DUP5 PUSH2 0x367E JUMP JUMPDEST POP POP PUSH1 0x40 MLOAD DUP1 PUSH1 0x80 ADD PUSH1 0x40 MSTORE DUP1 CALLER PUSH1 0x1 PUSH1 0x1 PUSH1 0xA0 SHL SUB AND DUP2 MSTORE PUSH1 0x20 ADD DUP11 PUSH2 0x140 ADD MLOAD DUP11 DUP2 MLOAD DUP2 LT PUSH2 0x23B9 JUMPI PUSH2 0x23B9 PUSH2 0x4A48 JUMP JUMPDEST PUSH1 0x20 MUL PUSH1 0x20 ADD ADD MLOAD PUSH1 0xFF AND DUP2 MSTORE PUSH1 0x20 ADD TIMESTAMP PUSH4 0xFFFFFFFF AND DUP2 MSTORE PUSH1 0x20 ADD DUP11 PUSH2 0x160 ADD MLOAD DUP11 DUP2 MLOAD DUP2 LT PUSH2 0x23EC JUMPI PUSH2 0x23EC PUSH2 0x4A48 JUMP JUMPDEST PUSH1 0x20 SWAP1 DUP2 MUL SWAP2 SWAP1 SWAP2 ADD DUP2 ADD MLOAD PUSH2 0xFFFF SWAP1 DUP2 AND SWAP1 SWAP3 MSTORE PUSH1 0x0 DUP10 DUP2 MSTORE PUSH1 0x8 DUP3 MSTORE PUSH1 0x40 SWAP1 DUP2 SWAP1 KECCAK256 DUP5 MLOAD DUP2 SLOAD SWAP4 DUP7 ADD MLOAD SWAP3 DUP7 ADD MLOAD PUSH1 0x60 SWAP1 SWAP7 ADD MLOAD SWAP1 SWAP5 AND PUSH1 0x1 PUSH1 0xC8 SHL MUL PUSH2 0xFFFF PUSH1 0xC8 SHL NOT PUSH4 0xFFFFFFFF SWAP1 SWAP7 AND PUSH1 0x1 PUSH1 0xA8 SHL MUL SWAP6 SWAP1 SWAP6 AND PUSH6 0xFFFFFFFFFFFF PUSH1 0xA8 SHL NOT PUSH1 0xFF SWAP1 SWAP4 AND PUSH1 0x1 PUSH1 0xA0 SHL MUL PUSH1 0x1 PUSH1 0x1 PUSH1 0xA8 SHL SUB NOT SWAP1 SWAP5 AND PUSH1 0x1 PUSH1 0x1 PUSH1 0xA0 SHL SUB SWAP1 SWAP6 AND SWAP5 SWAP1 SWAP5 OR SWAP3 SWAP1 SWAP3 OR AND SWAP2 SWAP1 SWAP2 OR SWAP2 SWAP1 SWAP2 OR SWAP1 SSTORE PUSH2 0x160 DUP10 ADD MLOAD DUP1 MLOAD DUP10 SWAP1 DUP2 LT PUSH2 0x249C JUMPI PUSH2 0x249C PUSH2 0x4A48 JUMP JUMPDEST PUSH1 0x20 SWAP1 DUP2 MUL SWAP2 SWAP1 SWAP2 ADD DUP2 ADD MLOAD PUSH1 0x0 DUP10 DUP2 MSTORE PUSH1 0x7 SWAP1 SWAP3 MSTORE PUSH1 0x40 SWAP1 SWAP2 KECCAK256 DUP1 SLOAD PUSH1 0x1C SWAP1 PUSH2 0x24D2 SWAP1 DUP5 SWAP1 PUSH1 0x1 PUSH1 0xE0 SHL SWAP1 DIV PUSH2 0xFFFF AND PUSH2 0x499B JUMP JUMPDEST SWAP3 POP PUSH2 0x100 EXP DUP2 SLOAD DUP2 PUSH2 0xFFFF MUL NOT AND SWAP1 DUP4 PUSH2 0xFFFF AND MUL OR SWAP1 SSTORE POP PUSH1 0x4 SLOAD DUP10 PUSH2 0x100 ADD MLOAD DUP10 DUP2 MLOAD DUP2 LT PUSH2 0x2506 JUMPI PUSH2 0x2506 PUSH2 0x4A48 JUMP JUMPDEST PUSH1 0x20 MUL PUSH1 0x20 ADD ADD MLOAD CALLER PUSH1 0x1 PUSH1 0x1 PUSH1 0xA0 SHL SUB AND PUSH32 0x61E1A1E6F89EABA4BA0119B0023BD32B1BB0412AB96CCD8D0588A3E98A097631 DUP13 PUSH2 0x160 ADD MLOAD DUP13 DUP2 MLOAD DUP2 LT PUSH2 0x2550 JUMPI PUSH2 0x2550 PUSH2 0x4A48 JUMP JUMPDEST PUSH1 0x20 MUL PUSH1 0x20 ADD ADD MLOAD DUP14 PUSH2 0x140 ADD MLOAD DUP14 DUP2 MLOAD DUP2 LT PUSH2 0x256F JUMPI PUSH2 0x256F PUSH2 0x4A48 JUMP JUMPDEST PUSH1 0x20 SWAP1 DUP2 MUL SWAP2 SWAP1 SWAP2 ADD DUP2 ADD MLOAD DUP11 SLOAD PUSH1 0x40 DUP1 MLOAD PUSH2 0xFFFF SWAP1 SWAP6 AND DUP6 MSTORE PUSH1 0xFF SWAP1 SWAP3 AND SWAP3 DUP5 ADD SWAP3 SWAP1 SWAP3 MSTORE PUSH1 0x1 PUSH1 0xA8 SHL SWAP1 SWAP2 DIV PUSH4 0xFFFFFFFF AND SWAP1 DUP3 ADD MSTORE PUSH1 0x60 ADD PUSH1 0x40 MLOAD DUP1 SWAP2 SUB SWAP1 LOG4 PUSH1 0x4 DUP1 SLOAD SWAP1 PUSH1 0x0 PUSH2 0x25C2 DUP4 PUSH2 0x4A01 JUMP JUMPDEST SWAP2 SWAP1 POP SSTORE POP POP POP POP POP POP POP POP DUP1 DUP1 PUSH2 0x25D9 SWAP1 PUSH2 0x4A01 JUMP JUMPDEST SWAP2 POP POP PUSH2 0x1E63 JUMP JUMPDEST PUSH2 0x25E9 PUSH2 0x3C04 JUMP JUMPDEST PUSH1 0x40 MLOAD DUP1 PUSH2 0x1A0 ADD PUSH1 0x40 MSTORE DUP1 PUSH1 0x0 DUP2 MSTORE PUSH1 0x20 ADD PUSH1 0x1 DUP2 MSTORE PUSH1 0x20 ADD DUP9 DUP2 MSTORE PUSH1 0x20 ADD DUP8 DUP2 MSTORE PUSH1 0x20 ADD DUP7 DUP2 MSTORE PUSH1 0x20 ADD PUSH1 0x0 PUSH1 0x1 PUSH1 0x1 PUSH1 0x40 SHL SUB DUP2 GT ISZERO PUSH2 0x262E JUMPI PUSH2 0x262E PUSH2 0x4A5E JUMP JUMPDEST PUSH1 0x40 MLOAD SWAP1 DUP1 DUP3 MSTORE DUP1 PUSH1 0x20 MUL PUSH1 0x20 ADD DUP3 ADD PUSH1 0x40 MSTORE DUP1 ISZERO PUSH2 0x2657 JUMPI DUP2 PUSH1 0x20 ADD PUSH1 0x20 DUP3 MUL DUP1 CALLDATASIZE DUP4 CALLDATACOPY ADD SWAP1 POP JUMPDEST POP DUP2 MSTORE PUSH1 0x20 ADD PUSH1 0x0 PUSH1 0x40 MLOAD SWAP1 DUP1 DUP3 MSTORE DUP1 PUSH1 0x20 MUL PUSH1 0x20 ADD DUP3 ADD PUSH1 0x40 MSTORE DUP1 ISZERO PUSH2 0x2688 JUMPI DUP2 PUSH1 0x20 ADD PUSH1 0x20 DUP3 MUL DUP1 CALLDATASIZE DUP4 CALLDATACOPY ADD SWAP1 POP JUMPDEST POP DUP2 MSTORE PUSH1 0x20 ADD PUSH1 0x0 PUSH1 0x40 MLOAD SWAP1 DUP1 DUP3 MSTORE DUP1 PUSH1 0x20 MUL PUSH1 0x20 ADD DUP3 ADD PUSH1 0x40 MSTORE DUP1 ISZERO PUSH2 0x26B9 JUMPI DUP2 PUSH1 0x20 ADD PUSH1 0x20 DUP3 MUL DUP1 CALLDATASIZE DUP4 CALLDATACOPY ADD SWAP1 POP JUMPDEST POP DUP2 MSTORE PUSH1 0x20 DUP1 DUP3 ADD SWAP7 SWAP1 SWAP7 MSTORE PUSH1 0x40 DUP1 MLOAD PUSH1 0x0 DUP1 DUP3 MSTORE DUP2 DUP10 ADD DUP4 MSTORE DUP3 DUP5 ADD SWAP2 SWAP1 SWAP2 MSTORE PUSH1 0x60 DUP4 ADD SWAP7 SWAP1 SWAP7 MSTORE PUSH1 0x80 DUP3 ADD SWAP5 SWAP1 SWAP5 MSTORE DUP4 MLOAD SWAP5 DUP6 MSTORE SWAP5 DUP5 ADD SWAP1 SWAP3 MSTORE POP PUSH1 0xA0 SWAP1 SWAP3 ADD MSTORE SWAP4 SWAP3 POP POP POP JUMP JUMPDEST PUSH2 0x2710 DUP2 PUSH1 0x20 ADD MLOAD PUSH2 0x36E9 JUMP JUMPDEST PUSH1 0x40 DUP2 ADD MLOAD PUSH1 0xFF AND PUSH2 0x275B JUMPI PUSH1 0x40 MLOAD PUSH3 0x461BCD PUSH1 0xE5 SHL DUP2 MSTORE PUSH1 0x20 PUSH1 0x4 DUP3 ADD MSTORE PUSH1 0x14 PUSH1 0x24 DUP3 ADD MSTORE PUSH20 0x52654E46543A3A6475726174696F6E207A65726F PUSH1 0x60 SHL PUSH1 0x44 DUP3 ADD MSTORE PUSH1 0x64 ADD PUSH2 0x429 JUMP JUMPDEST PUSH1 0x60 DUP2 ADD MLOAD PUSH1 0x1 PUSH1 0x1 PUSH1 0xE0 SHL SUB NOT AND PUSH2 0x1573 JUMPI PUSH1 0x40 MLOAD PUSH3 0x461BCD PUSH1 0xE5 SHL DUP2 MSTORE PUSH1 0x4 ADD PUSH2 0x429 SWAP1 PUSH2 0x4756 JUMP JUMPDEST DUP2 PUSH1 0x1 PUSH1 0x1 PUSH1 0xA0 SHL SUB AND DUP4 PUSH1 0x0 ADD MLOAD PUSH1 0x1 PUSH1 0x1 PUSH1 0xA0 SHL SUB AND EQ PUSH2 0x27DF JUMPI PUSH1 0x40 MLOAD PUSH3 0x461BCD PUSH1 0xE5 SHL DUP2 MSTORE PUSH1 0x20 PUSH1 0x4 DUP3 ADD MSTORE PUSH1 0x11 PUSH1 0x24 DUP3 ADD MSTORE PUSH17 0x2932A7232A1D1D3737BA103932B73A32B9 PUSH1 0x79 SHL PUSH1 0x44 DUP3 ADD MSTORE PUSH1 0x64 ADD PUSH2 0x429 JUMP JUMPDEST PUSH2 0x27E9 DUP4 DUP3 PUSH2 0x3735 JUMP JUMPDEST ISZERO PUSH2 0x2836 JUMPI PUSH1 0x40 MLOAD PUSH3 0x461BCD PUSH1 0xE5 SHL DUP2 MSTORE PUSH1 0x20 PUSH1 0x4 DUP3 ADD MSTORE PUSH1 0x17 PUSH1 0x24 DUP3 ADD MSTORE PUSH32 0x52654E46543A3A706173742072657475726E2064617465000000000000000000 PUSH1 0x44 DUP3 ADD MSTORE PUSH1 0x64 ADD PUSH2 0x429 JUMP JUMPDEST POP POP POP JUMP JUMPDEST PUSH1 0x0 DUP4 PUSH1 0xC0 ADD MLOAD PUSH1 0x3 DUP2 GT ISZERO PUSH2 0x2853 JUMPI PUSH2 0x2853 PUSH2 0x4A32 JUMP JUMPDEST PUSH1 0x0 DUP1 SLOAD PUSH1 0x40 MLOAD PUSH4 0xC6EE427F PUSH1 0xE0 SHL DUP2 MSTORE PUSH1 0xFF DUP5 AND PUSH1 0x4 DUP3 ADD MSTORE SWAP3 SWAP4 POP SWAP1 SWAP2 PUSH1 0x1 PUSH1 0x1 PUSH1 0xA0 SHL SUB SWAP1 SWAP2 AND SWAP1 PUSH4 0xC6EE427F SWAP1 PUSH1 0x24 ADD PUSH1 0x20 PUSH1 0x40 MLOAD DUP1 DUP4 SUB DUP2 DUP7 DUP1 EXTCODESIZE ISZERO DUP1 ISZERO PUSH2 0x289F JUMPI PUSH1 0x0 DUP1 REVERT JUMPDEST POP GAS STATICCALL ISZERO DUP1 ISZERO PUSH2 0x28B3 JUMPI RETURNDATASIZE PUSH1 0x0 DUP1 RETURNDATACOPY RETURNDATASIZE PUSH1 0x0 REVERT JUMPDEST POP POP POP POP PUSH1 0x40 MLOAD RETURNDATASIZE PUSH1 0x1F NOT PUSH1 0x1F DUP3 ADD AND DUP3 ADD DUP1 PUSH1 0x40 MSTORE POP DUP2 ADD SWAP1 PUSH2 0x28D7 SWAP2 SWAP1 PUSH2 0x3F8B JUMP JUMPDEST SWAP1 POP PUSH1 0x0 DUP2 PUSH1 0x1 PUSH1 0x1 PUSH1 0xA0 SHL SUB AND PUSH4 0x313CE567 PUSH1 0x40 MLOAD DUP2 PUSH4 0xFFFFFFFF AND PUSH1 0xE0 SHL DUP2 MSTORE PUSH1 0x4 ADD PUSH1 0x20 PUSH1 0x40 MLOAD DUP1 DUP4 SUB DUP2 DUP7 DUP1 EXTCODESIZE ISZERO DUP1 ISZERO PUSH2 0x2914 JUMPI PUSH1 0x0 DUP1 REVERT JUMPDEST POP GAS STATICCALL ISZERO DUP1 ISZERO PUSH2 0x2928 JUMPI RETURNDATASIZE PUSH1 0x0 DUP1 RETURNDATACOPY RETURNDATASIZE PUSH1 0x0 REVERT JUMPDEST POP POP POP POP PUSH1 0x40 MLOAD RETURNDATASIZE PUSH1 0x1F NOT PUSH1 0x1F DUP3 ADD AND DUP3 ADD DUP1 PUSH1 0x40 MSTORE POP DUP2 ADD SWAP1 PUSH2 0x294C SWAP2 SWAP1 PUSH2 0x455A JUMP JUMPDEST PUSH1 0xFF AND SWAP1 POP PUSH1 0x0 PUSH2 0x295E DUP3 PUSH1 0xA PUSH2 0x48D4 JUMP JUMPDEST SWAP1 POP PUSH1 0x0 PUSH2 0x2970 DUP9 PUSH1 0x60 ADD MLOAD DUP4 PUSH2 0x35EF JUMP JUMPDEST SWAP1 POP PUSH1 0x0 DUP8 PUSH1 0x20 ADD MLOAD PUSH1 0xFF AND DUP3 DUP10 PUSH1 0x60 ADD MLOAD PUSH2 0xFFFF AND PUSH2 0x2990 SWAP2 SWAP1 PUSH2 0x497C JUMP JUMPDEST PUSH2 0x299A SWAP2 SWAP1 PUSH2 0x497C JUMP JUMPDEST SWAP1 POP PUSH1 0x0 PUSH3 0x15180 PUSH2 0x29AC DUP5 DUP11 PUSH2 0x497C JUMP JUMPDEST PUSH2 0x29B6 SWAP2 SWAP1 PUSH2 0x486F JUMP JUMPDEST SWAP1 POP PUSH1 0x0 DUP3 GT PUSH2 0x2A14 JUMPI PUSH1 0x40 MLOAD PUSH3 0x461BCD PUSH1 0xE5 SHL DUP2 MSTORE PUSH1 0x20 PUSH1 0x4 DUP3 ADD MSTORE PUSH1 0x23 PUSH1 0x24 DUP3 ADD MSTORE PUSH32 0x52654E46543A3A746F74616C2072656E746572207061796D656E74206973207A PUSH1 0x44 DUP3 ADD MSTORE PUSH3 0x65726F PUSH1 0xE8 SHL PUSH1 0x64 DUP3 ADD MSTORE PUSH1 0x84 ADD PUSH2 0x429 JUMP JUMPDEST PUSH1 0x0 DUP2 GT PUSH2 0x2A64 JUMPI PUSH1 0x40 MLOAD PUSH3 0x461BCD PUSH1 0xE5 SHL DUP2 MSTORE PUSH1 0x20 PUSH1 0x4 DUP3 ADD MSTORE PUSH1 0x1D PUSH1 0x24 DUP3 ADD MSTORE PUSH32 0x52654E46543A3A6C656E646572207061796D656E74206973207A65726F000000 PUSH1 0x44 DUP3 ADD MSTORE PUSH1 0x64 ADD PUSH2 0x429 JUMP JUMPDEST PUSH1 0x0 PUSH2 0x2A70 DUP3 DUP5 PUSH2 0x49BE JUMP JUMPDEST SWAP1 POP PUSH1 0x6 SLOAD PUSH1 0x0 EQ PUSH2 0x2A9C JUMPI PUSH1 0x0 PUSH2 0x2A8C DUP4 DUP14 PUSH1 0xC0 ADD MLOAD PUSH2 0x37C3 JUMP JUMPDEST SWAP1 POP PUSH2 0x2A98 DUP2 DUP5 PUSH2 0x49BE JUMP JUMPDEST SWAP3 POP POP JUMPDEST PUSH1 0x20 DUP12 ADD MLOAD PUSH2 0x2AB6 SWAP1 PUSH1 0x1 PUSH1 0x1 PUSH1 0xA0 SHL SUB DUP10 AND SWAP1 DUP5 PUSH2 0x38A0 JUMP JUMPDEST DUP1 ISZERO PUSH2 0x2AD3 JUMPI DUP10 MLOAD PUSH2 0x2AD3 SWAP1 PUSH1 0x1 PUSH1 0x1 PUSH1 0xA0 SHL SUB DUP10 AND SWAP1 DUP4 PUSH2 0x38A0 JUMP JUMPDEST POP POP POP POP POP POP POP POP POP POP POP JUMP JUMPDEST PUSH1 0x0 DUP3 PUSH1 0xA0 ADD MLOAD DUP3 DUP2 MLOAD DUP2 LT PUSH2 0x2AF8 JUMPI PUSH2 0x2AF8 PUSH2 0x4A48 JUMP JUMPDEST PUSH1 0x20 MUL PUSH1 0x20 ADD ADD MLOAD GT PUSH2 0x2B4D JUMPI PUSH1 0x40 MLOAD PUSH3 0x461BCD PUSH1 0xE5 SHL DUP2 MSTORE PUSH1 0x20 PUSH1 0x4 DUP3 ADD MSTORE PUSH1 0x1A PUSH1 0x24 DUP3 ADD MSTORE PUSH32 0x52654E46543A3A6C656E6420616D6F756E74206973207A65726F000000000000 PUSH1 0x44 DUP3 ADD MSTORE PUSH1 0x64 ADD PUSH2 0x429 JUMP JUMPDEST PUSH2 0xFFFF DUP1 AND DUP3 PUSH1 0xA0 ADD MLOAD DUP3 DUP2 MLOAD DUP2 LT PUSH2 0x2B68 JUMPI PUSH2 0x2B68 PUSH2 0x4A48 JUMP JUMPDEST PUSH1 0x20 MUL PUSH1 0x20 ADD ADD MLOAD GT ISZERO PUSH2 0x2BB2 JUMPI PUSH1 0x40 MLOAD PUSH3 0x461BCD PUSH1 0xE5 SHL DUP2 MSTORE PUSH1 0x20 PUSH1 0x4 DUP3 ADD MSTORE PUSH1 0x11 PUSH1 0x24 DUP3 ADD MSTORE PUSH17 0x2932A7232A1D1D3737BA103AB4B73A189B PUSH1 0x79 SHL PUSH1 0x44 DUP3 ADD MSTORE PUSH1 0x64 ADD PUSH2 0x429 JUMP JUMPDEST PUSH1 0x0 DUP3 PUSH1 0xC0 ADD MLOAD DUP3 DUP2 MLOAD DUP2 LT PUSH2 0x2BCA JUMPI PUSH2 0x2BCA PUSH2 0x4A48 JUMP JUMPDEST PUSH1 0x20 MUL PUSH1 0x20 ADD ADD MLOAD PUSH1 0xFF AND GT PUSH2 0x2BF2 JUMPI PUSH1 0x40 MLOAD PUSH3 0x461BCD PUSH1 0xE5 SHL DUP2 MSTORE PUSH1 0x4 ADD PUSH2 0x429 SWAP1 PUSH2 0x471F JUMP JUMPDEST PUSH1 0xFF DUP1 AND DUP3 PUSH1 0xC0 ADD MLOAD DUP3 DUP2 MLOAD DUP2 LT PUSH2 0x2C0C JUMPI PUSH2 0x2C0C PUSH2 0x4A48 JUMP JUMPDEST PUSH1 0x20 MUL PUSH1 0x20 ADD ADD MLOAD PUSH1 0xFF AND GT ISZERO PUSH2 0x2C58 JUMPI PUSH1 0x40 MLOAD PUSH3 0x461BCD PUSH1 0xE5 SHL DUP2 MSTORE PUSH1 0x20 PUSH1 0x4 DUP3 ADD MSTORE PUSH1 0x10 PUSH1 0x24 DUP3 ADD MSTORE PUSH16 0xA4CA9C8CA87474DCDEE840EAD2DCE87 PUSH1 0x83 SHL PUSH1 0x44 DUP3 ADD MSTORE PUSH1 0x64 ADD PUSH2 0x429 JUMP JUMPDEST PUSH1 0x0 DUP3 PUSH1 0xE0 ADD MLOAD DUP3 DUP2 MLOAD DUP2 LT PUSH2 0x2C70 JUMPI PUSH2 0x2C70 PUSH2 0x4A48 JUMP JUMPDEST PUSH1 0x20 MUL PUSH1 0x20 ADD ADD MLOAD PUSH1 0xE0 SHR PUSH4 0xFFFFFFFF AND GT PUSH2 0xD14 JUMPI PUSH1 0x40 MLOAD PUSH3 0x461BCD PUSH1 0xE5 SHL DUP2 MSTORE PUSH1 0x4 ADD PUSH2 0x429 SWAP1 PUSH2 0x4756 JUMP JUMPDEST PUSH2 0x2CAB DUP2 PUSH1 0x20 ADD MLOAD PUSH2 0x38D0 JUMP JUMPDEST PUSH1 0x40 DUP2 ADD MLOAD PUSH1 0xFF AND ISZERO PUSH2 0x2CFB JUMPI PUSH1 0x40 MLOAD PUSH3 0x461BCD PUSH1 0xE5 SHL DUP2 MSTORE PUSH1 0x20 PUSH1 0x4 DUP3 ADD MSTORE PUSH1 0x18 PUSH1 0x24 DUP3 ADD MSTORE PUSH24 0x52654E46543A3A6475726174696F6E206E6F74207A65726F PUSH1 0x40 SHL PUSH1 0x44 DUP3 ADD MSTORE PUSH1 0x64 ADD PUSH2 0x429 JUMP JUMPDEST PUSH1 0x60 DUP2 ADD MLOAD PUSH1 0x1 PUSH1 0x1 PUSH1 0xE0 SHL SUB NOT AND ISZERO PUSH2 0x1573 JUMPI PUSH1 0x40 MLOAD PUSH3 0x461BCD PUSH1 0xE5 SHL DUP2 MSTORE PUSH1 0x20 PUSH1 0x4 DUP3 ADD MSTORE PUSH1 0x1A PUSH1 0x24 DUP3 ADD MSTORE PUSH32 0x52654E46543A3A72656E74207072696365206E6F74207A65726F000000000000 PUSH1 0x44 DUP3 ADD MSTORE PUSH1 0x64 ADD PUSH2 0x429 JUMP JUMPDEST PUSH1 0x0 DUP2 PUSH1 0xFF AND GT PUSH2 0x1573 JUMPI PUSH1 0x40 MLOAD PUSH3 0x461BCD PUSH1 0xE5 SHL DUP2 MSTORE PUSH1 0x20 PUSH1 0x4 DUP3 ADD MSTORE PUSH1 0x18 PUSH1 0x24 DUP3 ADD MSTORE PUSH32 0x52654E46543A3A746F6B656E2069732073656E74696E656C0000000000000000 PUSH1 0x44 DUP3 ADD MSTORE PUSH1 0x64 ADD PUSH2 0x429 JUMP JUMPDEST PUSH1 0x60 PUSH2 0x2DB6 DUP5 DUP5 PUSH2 0x49BE JUMP JUMPDEST PUSH1 0x1 PUSH1 0x1 PUSH1 0x40 SHL SUB DUP2 GT ISZERO PUSH2 0x2DCD JUMPI PUSH2 0x2DCD PUSH2 0x4A5E JUMP JUMPDEST PUSH1 0x40 MLOAD SWAP1 DUP1 DUP3 MSTORE DUP1 PUSH1 0x20 MUL PUSH1 0x20 ADD DUP3 ADD PUSH1 0x40 MSTORE DUP1 ISZERO PUSH2 0x2DF6 JUMPI DUP2 PUSH1 0x20 ADD PUSH1 0x20 DUP3 MUL DUP1 CALLDATASIZE DUP4 CALLDATACOPY ADD SWAP1 POP JUMPDEST POP SWAP1 POP DUP4 JUMPDEST DUP4 DUP2 LT ISZERO PUSH2 0x2E60 JUMPI DUP6 PUSH2 0x2E0E DUP5 DUP4 PUSH2 0x49BE JUMP JUMPDEST DUP2 MLOAD DUP2 LT PUSH2 0x2E1E JUMPI PUSH2 0x2E1E PUSH2 0x4A48 JUMP JUMPDEST PUSH1 0x20 MUL PUSH1 0x20 ADD ADD MLOAD DUP3 DUP7 DUP4 PUSH2 0x2E33 SWAP2 SWAP1 PUSH2 0x49BE JUMP JUMPDEST DUP2 MLOAD DUP2 LT PUSH2 0x2E43 JUMPI PUSH2 0x2E43 PUSH2 0x4A48 JUMP JUMPDEST PUSH1 0x20 SWAP1 DUP2 MUL SWAP2 SWAP1 SWAP2 ADD ADD MSTORE DUP1 PUSH2 0x2E58 DUP2 PUSH2 0x4A01 JUMP JUMPDEST SWAP2 POP POP PUSH2 0x2DFB JUMP JUMPDEST POP SWAP5 SWAP4 POP POP POP POP JUMP JUMPDEST PUSH1 0x0 PUSH1 0x40 DUP7 ADD MLOAD DUP7 MLOAD DUP2 MLOAD DUP2 LT PUSH2 0x2E82 JUMPI PUSH2 0x2E82 PUSH2 0x4A48 JUMP JUMPDEST PUSH1 0x20 MUL PUSH1 0x20 ADD ADD MLOAD PUSH1 0x1 DUP2 GT ISZERO PUSH2 0x2E9B JUMPI PUSH2 0x2E9B PUSH2 0x4A32 JUMP JUMPDEST EQ ISZERO PUSH2 0x2F61 JUMPI PUSH1 0x60 DUP6 ADD MLOAD DUP6 MLOAD DUP2 MLOAD DUP2 LT PUSH2 0x2EB8 JUMPI PUSH2 0x2EB8 PUSH2 0x4A48 JUMP JUMPDEST PUSH1 0x20 MUL PUSH1 0x20 ADD ADD MLOAD PUSH1 0x1 PUSH1 0x1 PUSH1 0xA0 SHL SUB AND PUSH4 0x23B872DD DUP6 DUP6 DUP9 PUSH1 0x80 ADD MLOAD DUP10 PUSH1 0x0 ADD MLOAD DUP2 MLOAD DUP2 LT PUSH2 0x2EEA JUMPI PUSH2 0x2EEA PUSH2 0x4A48 JUMP JUMPDEST PUSH1 0x20 SWAP1 DUP2 MUL SWAP2 SWAP1 SWAP2 ADD ADD MLOAD PUSH1 0x40 MLOAD PUSH1 0x1 PUSH1 0x1 PUSH1 0xE0 SHL SUB NOT PUSH1 0xE0 DUP7 SWAP1 SHL AND DUP2 MSTORE PUSH1 0x1 PUSH1 0x1 PUSH1 0xA0 SHL SUB SWAP4 DUP5 AND PUSH1 0x4 DUP3 ADD MSTORE SWAP3 SWAP1 SWAP2 AND PUSH1 0x24 DUP4 ADD MSTORE PUSH1 0x44 DUP3 ADD MSTORE PUSH1 0x64 ADD PUSH1 0x0 PUSH1 0x40 MLOAD DUP1 DUP4 SUB DUP2 PUSH1 0x0 DUP8 DUP1 EXTCODESIZE ISZERO DUP1 ISZERO PUSH2 0x2F44 JUMPI PUSH1 0x0 DUP1 REVERT JUMPDEST POP GAS CALL ISZERO DUP1 ISZERO PUSH2 0x2F58 JUMPI RETURNDATASIZE PUSH1 0x0 DUP1 RETURNDATACOPY RETURNDATASIZE PUSH1 0x0 REVERT JUMPDEST POP POP POP POP PUSH2 0x44A JUMP JUMPDEST PUSH1 0x60 DUP6 ADD MLOAD DUP6 MLOAD DUP2 MLOAD DUP2 LT PUSH2 0x2F78 JUMPI PUSH2 0x2F78 PUSH2 0x4A48 JUMP JUMPDEST PUSH1 0x20 MUL PUSH1 0x20 ADD ADD MLOAD PUSH1 0x1 PUSH1 0x1 PUSH1 0xA0 SHL SUB AND PUSH4 0x2EB2C2D6 DUP6 DUP6 DUP6 DUP6 PUSH1 0x40 MLOAD DUP6 PUSH4 0xFFFFFFFF AND PUSH1 0xE0 SHL DUP2 MSTORE PUSH1 0x4 ADD PUSH2 0x2FB1 SWAP5 SWAP4 SWAP3 SWAP2 SWAP1 PUSH2 0x45F8 JUMP JUMPDEST PUSH1 0x0 PUSH1 0x40 MLOAD DUP1 DUP4 SUB DUP2 PUSH1 0x0 DUP8 DUP1 EXTCODESIZE ISZERO DUP1 ISZERO PUSH2 0x2FCB JUMPI PUSH1 0x0 DUP1 REVERT JUMPDEST POP GAS CALL ISZERO DUP1 ISZERO PUSH2 0x2FDF JUMPI RETURNDATASIZE PUSH1 0x0 DUP1 RETURNDATACOPY RETURNDATASIZE PUSH1 0x0 REVERT JUMPDEST POP POP POP POP POP POP POP POP POP JUMP JUMPDEST DUP1 MLOAD PUSH2 0x2FF5 SWAP1 PUSH2 0x36E9 JUMP JUMPDEST PUSH1 0x20 DUP2 ADD MLOAD PUSH1 0xFF AND PUSH2 0x3019 JUMPI PUSH1 0x40 MLOAD PUSH3 0x461BCD PUSH1 0xE5 SHL DUP2 MSTORE PUSH1 0x4 ADD PUSH2 0x429 SWAP1 PUSH2 0x471F JUMP JUMPDEST PUSH1 0x40 DUP2 ADD MLOAD PUSH4 0xFFFFFFFF AND PUSH2 0x1573 JUMPI PUSH1 0x40 MLOAD PUSH3 0x461BCD PUSH1 0xE5 SHL DUP2 MSTORE PUSH1 0x20 PUSH1 0x4 DUP3 ADD MSTORE PUSH1 0x18 PUSH1 0x24 DUP3 ADD MSTORE PUSH32 0x52654E46543A3A72656E746564206174206973207A65726F0000000000000000 PUSH1 0x44 DUP3 ADD MSTORE PUSH1 0x64 ADD PUSH2 0x429 JUMP JUMPDEST PUSH2 0x307A DUP3 DUP3 PUSH2 0x3735 JUMP JUMPDEST PUSH2 0xD14 JUMPI PUSH1 0x40 MLOAD PUSH3 0x461BCD PUSH1 0xE5 SHL DUP2 MSTORE PUSH1 0x20 PUSH1 0x4 DUP3 ADD MSTORE PUSH1 0x1D PUSH1 0x24 DUP3 ADD MSTORE PUSH32 0x52654E46543A3A72657475726E2064617465206E6F7420706173736564000000 PUSH1 0x44 DUP3 ADD MSTORE PUSH1 0x64 ADD PUSH2 0x429 JUMP JUMPDEST PUSH1 0x0 DUP3 PUSH1 0xC0 ADD MLOAD PUSH1 0x3 DUP2 GT ISZERO PUSH2 0x30DE JUMPI PUSH2 0x30DE PUSH2 0x4A32 JUMP JUMPDEST PUSH1 0x0 DUP1 SLOAD PUSH1 0x40 MLOAD PUSH4 0xC6EE427F PUSH1 0xE0 SHL DUP2 MSTORE PUSH1 0xFF DUP5 AND PUSH1 0x4 DUP3 ADD MSTORE SWAP3 SWAP4 POP SWAP1 SWAP2 PUSH1 0x1 PUSH1 0x1 PUSH1 0xA0 SHL SUB SWAP1 SWAP2 AND SWAP1 PUSH4 0xC6EE427F SWAP1 PUSH1 0x24 ADD PUSH1 0x20 PUSH1 0x40 MLOAD DUP1 DUP4 SUB DUP2 DUP7 DUP1 EXTCODESIZE ISZERO DUP1 ISZERO PUSH2 0x312A JUMPI PUSH1 0x0 DUP1 REVERT JUMPDEST POP GAS STATICCALL ISZERO DUP1 ISZERO PUSH2 0x313E JUMPI RETURNDATASIZE PUSH1 0x0 DUP1 RETURNDATACOPY RETURNDATASIZE PUSH1 0x0 REVERT JUMPDEST POP POP POP POP PUSH1 0x40 MLOAD RETURNDATASIZE PUSH1 0x1F NOT PUSH1 0x1F DUP3 ADD AND DUP3 ADD DUP1 PUSH1 0x40 MSTORE POP DUP2 ADD SWAP1 PUSH2 0x3162 SWAP2 SWAP1 PUSH2 0x3F8B JUMP JUMPDEST SWAP1 POP PUSH1 0x0 DUP2 PUSH1 0x1 PUSH1 0x1 PUSH1 0xA0 SHL SUB AND PUSH4 0x313CE567 PUSH1 0x40 MLOAD DUP2 PUSH4 0xFFFFFFFF AND PUSH1 0xE0 SHL DUP2 MSTORE PUSH1 0x4 ADD PUSH1 0x20 PUSH1 0x40 MLOAD DUP1 DUP4 SUB DUP2 DUP7 DUP1 EXTCODESIZE ISZERO DUP1 ISZERO PUSH2 0x319F JUMPI PUSH1 0x0 DUP1 REVERT JUMPDEST POP GAS STATICCALL ISZERO DUP1 ISZERO PUSH2 0x31B3 JUMPI RETURNDATASIZE PUSH1 0x0 DUP1 RETURNDATACOPY RETURNDATASIZE PUSH1 0x0 REVERT JUMPDEST POP POP POP POP PUSH1 0x40 MLOAD RETURNDATASIZE PUSH1 0x1F NOT PUSH1 0x1F DUP3 ADD AND DUP3 ADD DUP1 PUSH1 0x40 MSTORE POP DUP2 ADD SWAP1 PUSH2 0x31D7 SWAP2 SWAP1 PUSH2 0x455A JUMP JUMPDEST PUSH1 0xFF AND SWAP1 POP PUSH1 0x0 PUSH2 0x31E9 DUP3 PUSH1 0xA PUSH2 0x48D4 JUMP JUMPDEST SWAP1 POP PUSH1 0x0 PUSH2 0x31FB DUP8 PUSH1 0x60 ADD MLOAD DUP4 PUSH2 0x35EF JUMP JUMPDEST SWAP1 POP PUSH1 0x0 DUP7 PUSH1 0x20 ADD MLOAD PUSH1 0xFF AND DUP3 DUP9 PUSH1 0x60 ADD MLOAD PUSH2 0xFFFF AND PUSH2 0x321B SWAP2 SWAP1 PUSH2 0x497C JUMP JUMPDEST PUSH2 0x3225 SWAP2 SWAP1 PUSH2 0x497C JUMP JUMPDEST SWAP1 POP PUSH1 0x0 PUSH1 0x6 SLOAD PUSH1 0x0 EQ PUSH2 0x3254 JUMPI PUSH2 0x3251 DUP3 DUP9 PUSH1 0xFF AND PUSH1 0x3 DUP2 GT ISZERO PUSH2 0x324C JUMPI PUSH2 0x324C PUSH2 0x4A32 JUMP JUMPDEST PUSH2 0x37C3 JUMP JUMPDEST SWAP1 POP JUMPDEST PUSH1 0x20 DUP10 ADD MLOAD PUSH2 0x2FDF SWAP1 PUSH2 0x3267 DUP4 DUP6 PUSH2 0x49BE JUMP JUMPDEST PUSH1 0x1 PUSH1 0x1 PUSH1 0xA0 SHL SUB DUP10 AND SWAP2 SWAP1 PUSH2 0x38A0 JUMP JUMPDEST DUP1 PUSH1 0x1 PUSH1 0x1 PUSH1 0xA0 SHL SUB AND DUP3 PUSH1 0x20 ADD MLOAD PUSH1 0x1 PUSH1 0x1 PUSH1 0xA0 SHL SUB AND EQ PUSH2 0xD14 JUMPI PUSH1 0x40 MLOAD PUSH3 0x461BCD PUSH1 0xE5 SHL DUP2 MSTORE PUSH1 0x20 PUSH1 0x4 DUP3 ADD MSTORE PUSH1 0x11 PUSH1 0x24 DUP3 ADD MSTORE PUSH17 0x2932A7232A1D1D3737BA103632B73232B9 PUSH1 0x79 SHL PUSH1 0x44 DUP3 ADD MSTORE PUSH1 0x64 ADD PUSH2 0x429 JUMP JUMPDEST DUP1 MLOAD PUSH2 0x32DC SWAP1 PUSH2 0x38D0 JUMP JUMPDEST PUSH1 0x20 DUP2 ADD MLOAD PUSH1 0xFF AND ISZERO PUSH2 0x332C JUMPI PUSH1 0x40 MLOAD PUSH3 0x461BCD PUSH1 0xE5 SHL DUP2 MSTORE PUSH1 0x20 PUSH1 0x4 DUP3 ADD MSTORE PUSH1 0x18 PUSH1 0x24 DUP3 ADD MSTORE PUSH24 0x52654E46543A3A6475726174696F6E206E6F74207A65726F PUSH1 0x40 SHL PUSH1 0x44 DUP3 ADD MSTORE PUSH1 0x64 ADD PUSH2 0x429 JUMP JUMPDEST PUSH1 0x40 DUP2 ADD MLOAD PUSH4 0xFFFFFFFF AND ISZERO PUSH2 0x1573 JUMPI PUSH1 0x40 MLOAD PUSH3 0x461BCD PUSH1 0xE5 SHL DUP2 MSTORE PUSH1 0x20 PUSH1 0x4 DUP3 ADD MSTORE PUSH1 0x19 PUSH1 0x24 DUP3 ADD MSTORE PUSH32 0x52654E46543A3A72656E746564206174206E6F74207A65726F00000000000000 PUSH1 0x44 DUP3 ADD MSTORE PUSH1 0x64 ADD PUSH2 0x429 JUMP JUMPDEST DUP4 PUSH1 0x20 ADD MLOAD PUSH1 0x1 PUSH1 0x1 PUSH1 0xA0 SHL SUB AND DUP2 PUSH1 0x1 PUSH1 0x1 PUSH1 0xA0 SHL SUB AND EQ ISZERO PUSH2 0x33EA JUMPI PUSH1 0x40 MLOAD PUSH3 0x461BCD PUSH1 0xE5 SHL DUP2 MSTORE PUSH1 0x20 PUSH1 0x4 DUP3 ADD MSTORE PUSH1 0x18 PUSH1 0x24 DUP3 ADD MSTORE PUSH32 0x52654E46543A3A63616E742072656E74206F776E206E66740000000000000000 PUSH1 0x44 DUP3 ADD MSTORE PUSH1 0x64 ADD PUSH2 0x429 JUMP JUMPDEST PUSH1 0xFF DUP1 AND DUP4 PUSH2 0x140 ADD MLOAD DUP4 DUP2 MLOAD DUP2 LT PUSH2 0x3405 JUMPI PUSH2 0x3405 PUSH2 0x4A48 JUMP JUMPDEST PUSH1 0x20 MUL PUSH1 0x20 ADD ADD MLOAD PUSH1 0xFF AND GT ISZERO PUSH2 0x3451 JUMPI PUSH1 0x40 MLOAD PUSH3 0x461BCD PUSH1 0xE5 SHL DUP2 MSTORE PUSH1 0x20 PUSH1 0x4 DUP3 ADD MSTORE PUSH1 0x10 PUSH1 0x24 DUP3 ADD MSTORE PUSH16 0xA4CA9C8CA87474DCDEE840EAD2DCE87 PUSH1 0x83 SHL PUSH1 0x44 DUP3 ADD MSTORE PUSH1 0x64 ADD PUSH2 0x429 JUMP JUMPDEST PUSH1 0x0 DUP4 PUSH2 0x140 ADD MLOAD DUP4 DUP2 MLOAD DUP2 LT PUSH2 0x346A JUMPI PUSH2 0x346A PUSH2 0x4A48 JUMP JUMPDEST PUSH1 0x20 MUL PUSH1 0x20 ADD ADD MLOAD PUSH1 0xFF AND GT PUSH2 0x3492 JUMPI PUSH1 0x40 MLOAD PUSH3 0x461BCD PUSH1 0xE5 SHL DUP2 MSTORE PUSH1 0x4 ADD PUSH2 0x429 SWAP1 PUSH2 0x471F JUMP JUMPDEST PUSH2 0xFFFF DUP1 AND DUP4 PUSH2 0x160 ADD MLOAD DUP4 DUP2 MLOAD DUP2 LT PUSH2 0x34AE JUMPI PUSH2 0x34AE PUSH2 0x4A48 JUMP JUMPDEST PUSH1 0x20 MUL PUSH1 0x20 ADD ADD MLOAD GT ISZERO PUSH2 0x34F8 JUMPI PUSH1 0x40 MLOAD PUSH3 0x461BCD PUSH1 0xE5 SHL DUP2 MSTORE PUSH1 0x20 PUSH1 0x4 DUP3 ADD MSTORE PUSH1 0x11 PUSH1 0x24 DUP3 ADD MSTORE PUSH17 0x2932A7232A1D1D3737BA103AB4B73A189B PUSH1 0x79 SHL PUSH1 0x44 DUP3 ADD MSTORE PUSH1 0x64 ADD PUSH2 0x429 JUMP JUMPDEST PUSH1 0x0 DUP4 PUSH2 0x160 ADD MLOAD DUP4 DUP2 MLOAD DUP2 LT PUSH2 0x3511 JUMPI PUSH2 0x3511 PUSH2 0x4A48 JUMP JUMPDEST PUSH1 0x20 MUL PUSH1 0x20 ADD ADD MLOAD GT PUSH2 0x3566 JUMPI PUSH1 0x40 MLOAD PUSH3 0x461BCD PUSH1 0xE5 SHL DUP2 MSTORE PUSH1 0x20 PUSH1 0x4 DUP3 ADD MSTORE PUSH1 0x19 PUSH1 0x24 DUP3 ADD MSTORE PUSH32 0x52654E46543A3A72656E74416D6F756E74206973207A65726F00000000000000 PUSH1 0x44 DUP3 ADD MSTORE PUSH1 0x64 ADD PUSH2 0x429 JUMP JUMPDEST DUP4 PUSH1 0x40 ADD MLOAD PUSH1 0xFF AND DUP4 PUSH2 0x140 ADD MLOAD DUP4 DUP2 MLOAD DUP2 LT PUSH2 0x3585 JUMPI PUSH2 0x3585 PUSH2 0x4A48 JUMP JUMPDEST PUSH1 0x20 MUL PUSH1 0x20 ADD ADD MLOAD PUSH1 0xFF AND GT ISZERO PUSH2 0x708 JUMPI PUSH1 0x40 MLOAD PUSH3 0x461BCD PUSH1 0xE5 SHL DUP2 MSTORE PUSH1 0x20 PUSH1 0x4 DUP3 ADD MSTORE PUSH1 0x28 PUSH1 0x24 DUP3 ADD MSTORE PUSH32 0x52654E46543A3A72656E74206475726174696F6E206578636565647320616C6C PUSH1 0x44 DUP3 ADD MSTORE PUSH8 0xDEEECAC840DAC2F PUSH1 0xC3 SHL PUSH1 0x64 DUP3 ADD MSTORE PUSH1 0x84 ADD PUSH2 0x429 JUMP JUMPDEST PUSH1 0x0 PUSH2 0x35FB DUP4 DUP4 PUSH2 0x3927 JUMP JUMPDEST PUSH1 0xF0 DUP4 SWAP1 SHR PUSH2 0xFFFF PUSH1 0xE0 DUP6 SWAP1 SHR AND PUSH1 0x0 PUSH2 0x3617 PUSH2 0x2710 DUP7 PUSH2 0x486F JUMP JUMPDEST SWAP1 POP PUSH2 0x270F DUP4 PUSH2 0xFFFF AND GT ISZERO PUSH2 0x362D JUMPI PUSH2 0x270F SWAP3 POP JUMPDEST PUSH2 0x270F DUP3 PUSH2 0xFFFF AND GT ISZERO PUSH2 0x3641 JUMPI PUSH2 0x270F SWAP2 POP JUMPDEST PUSH1 0x0 PUSH2 0x3651 DUP7 PUSH2 0xFFFF DUP7 AND PUSH2 0x497C JUMP JUMPDEST SWAP1 POP PUSH1 0x0 PUSH2 0x3663 DUP4 PUSH2 0xFFFF DUP7 AND PUSH2 0x497C JUMP JUMPDEST SWAP1 POP PUSH1 0x0 PUSH2 0x3671 DUP3 DUP5 PUSH2 0x4857 JUMP JUMPDEST SWAP10 SWAP9 POP POP POP POP POP POP POP POP POP JUMP JUMPDEST PUSH1 0x40 MLOAD PUSH1 0x1 PUSH1 0x1 PUSH1 0xA0 SHL SUB DUP1 DUP6 AND PUSH1 0x24 DUP4 ADD MSTORE DUP4 AND PUSH1 0x44 DUP3 ADD MSTORE PUSH1 0x64 DUP2 ADD DUP3 SWAP1 MSTORE PUSH2 0x708 SWAP1 DUP6 SWAP1 PUSH4 0x23B872DD PUSH1 0xE0 SHL SWAP1 PUSH1 0x84 ADD JUMPDEST PUSH1 0x40 DUP1 MLOAD PUSH1 0x1F NOT DUP2 DUP5 SUB ADD DUP2 MSTORE SWAP2 SWAP1 MSTORE PUSH1 0x20 DUP2 ADD DUP1 MLOAD PUSH1 0x1 PUSH1 0x1 PUSH1 0xE0 SHL SUB AND PUSH1 0x1 PUSH1 0x1 PUSH1 0xE0 SHL SUB NOT SWAP1 SWAP4 AND SWAP3 SWAP1 SWAP3 OR SWAP1 SWAP2 MSTORE PUSH2 0x39B8 JUMP JUMPDEST PUSH1 0x1 PUSH1 0x1 PUSH1 0xA0 SHL SUB DUP2 AND PUSH2 0x1573 JUMPI PUSH1 0x40 MLOAD PUSH3 0x461BCD PUSH1 0xE5 SHL DUP2 MSTORE PUSH1 0x20 PUSH1 0x4 DUP3 ADD MSTORE PUSH1 0x13 PUSH1 0x24 DUP3 ADD MSTORE PUSH19 0x52654E46543A3A7A65726F2061646472657373 PUSH1 0x68 SHL PUSH1 0x44 DUP3 ADD MSTORE PUSH1 0x64 ADD PUSH2 0x429 JUMP JUMPDEST PUSH1 0x0 DUP3 PUSH1 0x40 ADD MLOAD PUSH4 0xFFFFFFFF AND DUP3 GT PUSH2 0x3790 JUMPI PUSH1 0x40 MLOAD PUSH3 0x461BCD PUSH1 0xE5 SHL DUP2 MSTORE PUSH1 0x20 PUSH1 0x4 DUP3 ADD MSTORE PUSH1 0x18 PUSH1 0x24 DUP3 ADD MSTORE PUSH32 0x52654E46543A3A6E6F77206265666F72652072656E7465640000000000000000 PUSH1 0x44 DUP3 ADD MSTORE PUSH1 0x64 ADD PUSH2 0x429 JUMP JUMPDEST PUSH3 0x15180 DUP4 PUSH1 0x20 ADD MLOAD PUSH1 0xFF AND PUSH2 0x37A6 SWAP2 SWAP1 PUSH2 0x497C JUMP JUMPDEST PUSH1 0x40 DUP5 ADD MLOAD PUSH2 0x37BB SWAP1 PUSH4 0xFFFFFFFF AND DUP5 PUSH2 0x49BE JUMP JUMPDEST GT SWAP4 SWAP3 POP POP POP JUMP JUMPDEST PUSH1 0x0 PUSH1 0x6 SLOAD DUP4 PUSH2 0x37D3 SWAP2 SWAP1 PUSH2 0x497C JUMP JUMPDEST SWAP1 POP PUSH2 0x37E1 PUSH2 0x2710 DUP3 PUSH2 0x486F JUMP JUMPDEST SWAP1 POP PUSH1 0x0 DUP3 PUSH1 0x3 DUP2 GT ISZERO PUSH2 0x37F7 JUMPI PUSH2 0x37F7 PUSH2 0x4A32 JUMP JUMPDEST PUSH1 0x0 DUP1 SLOAD PUSH1 0x40 MLOAD PUSH4 0xC6EE427F PUSH1 0xE0 SHL DUP2 MSTORE PUSH1 0xFF DUP5 AND PUSH1 0x4 DUP3 ADD MSTORE SWAP3 SWAP4 POP SWAP1 SWAP2 PUSH1 0x1 PUSH1 0x1 PUSH1 0xA0 SHL SUB SWAP1 SWAP2 AND SWAP1 PUSH4 0xC6EE427F SWAP1 PUSH1 0x24 ADD PUSH1 0x20 PUSH1 0x40 MLOAD DUP1 DUP4 SUB DUP2 DUP7 DUP1 EXTCODESIZE ISZERO DUP1 ISZERO PUSH2 0x3843 JUMPI PUSH1 0x0 DUP1 REVERT JUMPDEST POP GAS STATICCALL ISZERO DUP1 ISZERO PUSH2 0x3857 JUMPI RETURNDATASIZE PUSH1 0x0 DUP1 RETURNDATACOPY RETURNDATASIZE PUSH1 0x0 REVERT JUMPDEST POP POP POP POP PUSH1 0x40 MLOAD RETURNDATASIZE PUSH1 0x1F NOT PUSH1 0x1F DUP3 ADD AND DUP3 ADD DUP1 PUSH1 0x40 MSTORE POP DUP2 ADD SWAP1 PUSH2 0x387B SWAP2 SWAP1 PUSH2 0x3F8B JUMP JUMPDEST PUSH1 0x2 SLOAD SWAP1 SWAP2 POP PUSH2 0x3898 SWAP1 PUSH1 0x1 PUSH1 0x1 PUSH1 0xA0 SHL SUB DUP1 DUP5 AND SWAP2 AND DUP6 PUSH2 0x38A0 JUMP JUMPDEST POP POP SWAP3 SWAP2 POP POP JUMP JUMPDEST PUSH1 0x40 MLOAD PUSH1 0x1 PUSH1 0x1 PUSH1 0xA0 SHL SUB DUP4 AND PUSH1 0x24 DUP3 ADD MSTORE PUSH1 0x44 DUP2 ADD DUP3 SWAP1 MSTORE PUSH2 0x2836 SWAP1 DUP5 SWAP1 PUSH4 0xA9059CBB PUSH1 0xE0 SHL SWAP1 PUSH1 0x64 ADD PUSH2 0x36B2 JUMP JUMPDEST PUSH1 0x1 PUSH1 0x1 PUSH1 0xA0 SHL SUB DUP2 AND ISZERO PUSH2 0x1573 JUMPI PUSH1 0x40 MLOAD PUSH3 0x461BCD PUSH1 0xE5 SHL DUP2 MSTORE PUSH1 0x20 PUSH1 0x4 DUP3 ADD MSTORE PUSH1 0x19 PUSH1 0x24 DUP3 ADD MSTORE PUSH32 0x52654E46543A3A6E6F742061207A65726F206164647265737300000000000000 PUSH1 0x44 DUP3 ADD MSTORE PUSH1 0x64 ADD PUSH2 0x429 JUMP JUMPDEST PUSH1 0xE0 DUP3 SWAP1 SHR PUSH2 0x396F JUMPI PUSH1 0x40 MLOAD PUSH3 0x461BCD PUSH1 0xE5 SHL DUP2 MSTORE PUSH1 0x20 PUSH1 0x4 DUP3 ADD MSTORE PUSH1 0x14 PUSH1 0x24 DUP3 ADD MSTORE PUSH20 0x52654E46543A3A696E76616C6964207072696365 PUSH1 0x60 SHL PUSH1 0x44 DUP3 ADD MSTORE PUSH1 0x64 ADD PUSH2 0x429 JUMP JUMPDEST PUSH2 0x2710 DUP2 LT ISZERO PUSH2 0xD14 JUMPI PUSH1 0x40 MLOAD PUSH3 0x461BCD PUSH1 0xE5 SHL DUP2 MSTORE PUSH1 0x20 PUSH1 0x4 DUP3 ADD MSTORE PUSH1 0x14 PUSH1 0x24 DUP3 ADD MSTORE PUSH20 0x52654E46543A3A696E76616C6964207363616C65 PUSH1 0x60 SHL PUSH1 0x44 DUP3 ADD MSTORE PUSH1 0x64 ADD PUSH2 0x429 JUMP JUMPDEST PUSH1 0x0 PUSH2 0x3A0D DUP3 PUSH1 0x40 MLOAD DUP1 PUSH1 0x40 ADD PUSH1 0x40 MSTORE DUP1 PUSH1 0x20 DUP2 MSTORE PUSH1 0x20 ADD PUSH32 0x5361666545524332303A206C6F772D6C6576656C2063616C6C206661696C6564 DUP2 MSTORE POP DUP6 PUSH1 0x1 PUSH1 0x1 PUSH1 0xA0 SHL SUB AND PUSH2 0x3A8A SWAP1 SWAP3 SWAP2 SWAP1 PUSH4 0xFFFFFFFF AND JUMP JUMPDEST DUP1 MLOAD SWAP1 SWAP2 POP ISZERO PUSH2 0x2836 JUMPI DUP1 DUP1 PUSH1 0x20 ADD SWAP1 MLOAD DUP2 ADD SWAP1 PUSH2 0x3A2B SWAP2 SWAP1 PUSH2 0x4509 JUMP JUMPDEST PUSH2 0x2836 JUMPI PUSH1 0x40 MLOAD PUSH3 0x461BCD PUSH1 0xE5 SHL DUP2 MSTORE PUSH1 0x20 PUSH1 0x4 DUP3 ADD MSTORE PUSH1 0x2A PUSH1 0x24 DUP3 ADD MSTORE PUSH32 0x5361666545524332303A204552433230206F7065726174696F6E20646964206E PUSH1 0x44 DUP3 ADD MSTORE PUSH10 0x1BDD081CDD58D8D95959 PUSH1 0xB2 SHL PUSH1 0x64 DUP3 ADD MSTORE PUSH1 0x84 ADD PUSH2 0x429 JUMP JUMPDEST PUSH1 0x60 PUSH2 0x3A99 DUP5 DUP5 PUSH1 0x0 DUP6 PUSH2 0x3AA3 JUMP JUMPDEST SWAP1 POP JUMPDEST SWAP4 SWAP3 POP POP POP JUMP JUMPDEST PUSH1 0x60 DUP3 SELFBALANCE LT ISZERO PUSH2 0x3B04 JUMPI PUSH1 0x40 MLOAD PUSH3 0x461BCD PUSH1 0xE5 SHL DUP2 MSTORE PUSH1 0x20 PUSH1 0x4 DUP3 ADD MSTORE PUSH1 0x26 PUSH1 0x24 DUP3 ADD MSTORE PUSH32 0x416464726573733A20696E73756666696369656E742062616C616E636520666F PUSH1 0x44 DUP3 ADD MSTORE PUSH6 0x1C8818D85B1B PUSH1 0xD2 SHL PUSH1 0x64 DUP3 ADD MSTORE PUSH1 0x84 ADD PUSH2 0x429 JUMP JUMPDEST DUP5 EXTCODESIZE PUSH2 0x3B52 JUMPI PUSH1 0x40 MLOAD PUSH3 0x461BCD PUSH1 0xE5 SHL DUP2 MSTORE PUSH1 0x20 PUSH1 0x4 DUP3 ADD MSTORE PUSH1 0x1D PUSH1 0x24 DUP3 ADD MSTORE PUSH32 0x416464726573733A2063616C6C20746F206E6F6E2D636F6E7472616374000000 PUSH1 0x44 DUP3 ADD MSTORE PUSH1 0x64 ADD PUSH2 0x429 JUMP JUMPDEST PUSH1 0x0 DUP1 DUP7 PUSH1 0x1 PUSH1 0x1 PUSH1 0xA0 SHL SUB AND DUP6 DUP8 PUSH1 0x40 MLOAD PUSH2 0x3B6E SWAP2 SWAP1 PUSH2 0x45DC JUMP JUMPDEST PUSH1 0x0 PUSH1 0x40 MLOAD DUP1 DUP4 SUB DUP2 DUP6 DUP8 GAS CALL SWAP3 POP POP POP RETURNDATASIZE DUP1 PUSH1 0x0 DUP2 EQ PUSH2 0x3BAB JUMPI PUSH1 0x40 MLOAD SWAP2 POP PUSH1 0x1F NOT PUSH1 0x3F RETURNDATASIZE ADD AND DUP3 ADD PUSH1 0x40 MSTORE RETURNDATASIZE DUP3 MSTORE RETURNDATASIZE PUSH1 0x0 PUSH1 0x20 DUP5 ADD RETURNDATACOPY PUSH2 0x3BB0 JUMP JUMPDEST PUSH1 0x60 SWAP2 POP JUMPDEST POP SWAP2 POP SWAP2 POP PUSH2 0x3BC0 DUP3 DUP3 DUP7 PUSH2 0x3BCB JUMP JUMPDEST SWAP8 SWAP7 POP POP POP POP POP POP POP JUMP JUMPDEST PUSH1 0x60 DUP4 ISZERO PUSH2 0x3BDA JUMPI POP DUP2 PUSH2 0x3A9C JUMP JUMPDEST DUP3 MLOAD ISZERO PUSH2 0x3BEA JUMPI DUP3 MLOAD DUP1 DUP5 PUSH1 0x20 ADD REVERT JUMPDEST DUP2 PUSH1 0x40 MLOAD PUSH3 0x461BCD PUSH1 0xE5 SHL DUP2 MSTORE PUSH1 0x4 ADD PUSH2 0x429 SWAP2 SWAP1 PUSH2 0x46B5 JUMP JUMPDEST PUSH1 0x40 MLOAD DUP1 PUSH2 0x1A0 ADD PUSH1 0x40 MSTORE DUP1 PUSH1 0x0 DUP2 MSTORE PUSH1 0x20 ADD PUSH1 0x0 DUP2 MSTORE PUSH1 0x20 ADD PUSH1 0x60 DUP2 MSTORE PUSH1 0x20 ADD PUSH1 0x60 DUP2 MSTORE PUSH1 0x20 ADD PUSH1 0x60 DUP2 MSTORE PUSH1 0x20 ADD PUSH1 0x60 DUP2 MSTORE PUSH1 0x20 ADD PUSH1 0x60 DUP2 MSTORE PUSH1 0x20 ADD PUSH1 0x60 DUP2 MSTORE PUSH1 0x20 ADD PUSH1 0x60 DUP2 MSTORE PUSH1 0x20 ADD PUSH1 0x60 DUP2 MSTORE PUSH1 0x20 ADD PUSH1 0x60 DUP2 MSTORE PUSH1 0x20 ADD PUSH1 0x60 DUP2 MSTORE PUSH1 0x20 ADD PUSH1 0x60 DUP2 MSTORE POP SWAP1 JUMP JUMPDEST PUSH1 0x0 DUP3 PUSH1 0x1F DUP4 ADD SLT PUSH2 0x3C7D JUMPI PUSH1 0x0 DUP1 REVERT JUMPDEST DUP2 CALLDATALOAD PUSH1 0x20 PUSH2 0x3C92 PUSH2 0x3C8D DUP4 PUSH2 0x480E JUMP JUMPDEST PUSH2 0x47DE JUMP JUMPDEST DUP1 DUP4 DUP3 MSTORE DUP3 DUP3 ADD SWAP2 POP DUP3 DUP7 ADD DUP8 DUP5 DUP7 PUSH1 0x5 SHL DUP10 ADD ADD GT ISZERO PUSH2 0x3CB2 JUMPI PUSH1 0x0 DUP1 REVERT JUMPDEST PUSH1 0x0 JUMPDEST DUP6 DUP2 LT ISZERO PUSH2 0x3CDA JUMPI DUP2 CALLDATALOAD PUSH2 0x3CC8 DUP2 PUSH2 0x4A74 JUMP JUMPDEST DUP5 MSTORE SWAP3 DUP5 ADD SWAP3 SWAP1 DUP5 ADD SWAP1 PUSH1 0x1 ADD PUSH2 0x3CB5 JUMP JUMPDEST POP SWAP1 SWAP8 SWAP7 POP POP POP POP POP POP POP JUMP JUMPDEST PUSH1 0x0 DUP3 PUSH1 0x1F DUP4 ADD SLT PUSH2 0x3CF8 JUMPI PUSH1 0x0 DUP1 REVERT JUMPDEST DUP2 CALLDATALOAD PUSH1 0x20 PUSH2 0x3D08 PUSH2 0x3C8D DUP4 PUSH2 0x480E JUMP JUMPDEST DUP1 DUP4 DUP3 MSTORE DUP3 DUP3 ADD SWAP2 POP DUP3 DUP7 ADD DUP8 DUP5 DUP7 PUSH1 0x5 SHL DUP10 ADD ADD GT ISZERO PUSH2 0x3D28 JUMPI PUSH1 0x0 DUP1 REVERT JUMPDEST PUSH1 0x0 JUMPDEST DUP6 DUP2 LT ISZERO PUSH2 0x3CDA JUMPI PUSH2 0x3D3C DUP3 PUSH2 0x3EFF JUMP JUMPDEST DUP5 MSTORE SWAP3 DUP5 ADD SWAP3 SWAP1 DUP5 ADD SWAP1 PUSH1 0x1 ADD PUSH2 0x3D2B JUMP JUMPDEST PUSH1 0x0 DUP3 PUSH1 0x1F DUP4 ADD SLT PUSH2 0x3D5F JUMPI PUSH1 0x0 DUP1 REVERT JUMPDEST DUP2 CALLDATALOAD PUSH1 0x20 PUSH2 0x3D6F PUSH2 0x3C8D DUP4 PUSH2 0x480E JUMP JUMPDEST DUP1 DUP4 DUP3 MSTORE DUP3 DUP3 ADD SWAP2 POP DUP3 DUP7 ADD DUP8 DUP5 DUP7 PUSH1 0x5 SHL DUP10 ADD ADD GT ISZERO PUSH2 0x3D8F JUMPI PUSH1 0x0 DUP1 REVERT JUMPDEST PUSH1 0x0 DUP1 JUMPDEST DUP7 DUP2 LT ISZERO PUSH2 0x3DBB JUMPI DUP3 CALLDATALOAD PUSH1 0x2 DUP2 LT PUSH2 0x3DA9 JUMPI DUP3 DUP4 REVERT JUMPDEST DUP6 MSTORE SWAP4 DUP6 ADD SWAP4 SWAP2 DUP6 ADD SWAP2 PUSH1 0x1 ADD PUSH2 0x3D93 JUMP JUMPDEST POP SWAP2 SWAP9 SWAP8 POP POP POP POP POP POP POP POP JUMP JUMPDEST PUSH1 0x0 DUP3 PUSH1 0x1F DUP4 ADD SLT PUSH2 0x3DDA JUMPI PUSH1 0x0 DUP1 REVERT JUMPDEST DUP2 CALLDATALOAD PUSH1 0x20 PUSH2 0x3DEA PUSH2 0x3C8D DUP4 PUSH2 0x480E JUMP JUMPDEST DUP1 DUP4 DUP3 MSTORE DUP3 DUP3 ADD SWAP2 POP DUP3 DUP7 ADD DUP8 DUP5 DUP7 PUSH1 0x5 SHL DUP10 ADD ADD GT ISZERO PUSH2 0x3E0A JUMPI PUSH1 0x0 DUP1 REVERT JUMPDEST PUSH1 0x0 DUP1 JUMPDEST DUP7 DUP2 LT ISZERO PUSH2 0x3DBB JUMPI DUP3 CALLDATALOAD PUSH1 0x4 DUP2 LT PUSH2 0x3E24 JUMPI DUP3 DUP4 REVERT JUMPDEST DUP6 MSTORE SWAP4 DUP6 ADD SWAP4 SWAP2 DUP6 ADD SWAP2 PUSH1 0x1 ADD PUSH2 0x3E0E JUMP JUMPDEST PUSH1 0x0 DUP3 PUSH1 0x1F DUP4 ADD SLT PUSH2 0x3E47 JUMPI PUSH1 0x0 DUP1 REVERT JUMPDEST DUP2 CALLDATALOAD PUSH1 0x20 PUSH2 0x3E57 PUSH2 0x3C8D DUP4 PUSH2 0x480E JUMP JUMPDEST DUP1 DUP4 DUP3 MSTORE DUP3 DUP3 ADD SWAP2 POP DUP3 DUP7 ADD DUP8 DUP5 DUP7 PUSH1 0x5 SHL DUP10 ADD ADD GT ISZERO PUSH2 0x3E77 JUMPI PUSH1 0x0 DUP1 REVERT JUMPDEST PUSH1 0x0 JUMPDEST DUP6 DUP2 LT ISZERO PUSH2 0x3CDA JUMPI DUP2 CALLDATALOAD DUP5 MSTORE SWAP3 DUP5 ADD SWAP3 SWAP1 DUP5 ADD SWAP1 PUSH1 0x1 ADD PUSH2 0x3E7A JUMP JUMPDEST PUSH1 0x0 DUP3 PUSH1 0x1F DUP4 ADD SLT PUSH2 0x3EA7 JUMPI PUSH1 0x0 DUP1 REVERT JUMPDEST DUP2 CALLDATALOAD PUSH1 0x20 PUSH2 0x3EB7 PUSH2 0x3C8D DUP4 PUSH2 0x480E JUMP JUMPDEST DUP1 DUP4 DUP3 MSTORE DUP3 DUP3 ADD SWAP2 POP DUP3 DUP7 ADD DUP8 DUP5 DUP7 PUSH1 0x5 SHL DUP10 ADD ADD GT ISZERO PUSH2 0x3ED7 JUMPI PUSH1 0x0 DUP1 REVERT JUMPDEST PUSH1 0x0 JUMPDEST DUP6 DUP2 LT ISZERO PUSH2 0x3CDA JUMPI DUP2 CALLDATALOAD PUSH2 0x3EED DUP2 PUSH2 0x4A97 JUMP JUMPDEST DUP5 MSTORE SWAP3 DUP5 ADD SWAP3 SWAP1 DUP5 ADD SWAP1 PUSH1 0x1 ADD PUSH2 0x3EDA JUMP JUMPDEST DUP1 CALLDATALOAD PUSH1 0x1 PUSH1 0x1 PUSH1 0xE0 SHL SUB NOT DUP2 AND DUP2 EQ PUSH2 0x3F17 JUMPI PUSH1 0x0 DUP1 REVERT JUMPDEST SWAP2 SWAP1 POP JUMP JUMPDEST PUSH1 0x0 DUP3 PUSH1 0x1F DUP4 ADD SLT PUSH2 0x3F2D JUMPI PUSH1 0x0 DUP1 REVERT JUMPDEST DUP2 CALLDATALOAD PUSH1 0x1 PUSH1 0x1 PUSH1 0x40 SHL SUB DUP2 GT ISZERO PUSH2 0x3F46 JUMPI PUSH2 0x3F46 PUSH2 0x4A5E JUMP JUMPDEST PUSH2 0x3F59 PUSH1 0x1F DUP3 ADD PUSH1 0x1F NOT AND PUSH1 0x20 ADD PUSH2 0x47DE JUMP JUMPDEST DUP2 DUP2 MSTORE DUP5 PUSH1 0x20 DUP4 DUP7 ADD ADD GT ISZERO PUSH2 0x3F6E JUMPI PUSH1 0x0 DUP1 REVERT JUMPDEST DUP2 PUSH1 0x20 DUP6 ADD PUSH1 0x20 DUP4 ADD CALLDATACOPY PUSH1 0x0 SWAP2 DUP2 ADD PUSH1 0x20 ADD SWAP2 SWAP1 SWAP2 MSTORE SWAP4 SWAP3 POP POP POP JUMP JUMPDEST PUSH1 0x0 PUSH1 0x20 DUP3 DUP5 SUB SLT ISZERO PUSH2 0x3F9D JUMPI PUSH1 0x0 DUP1 REVERT JUMPDEST DUP2 MLOAD PUSH2 0x3A9C DUP2 PUSH2 0x4A74 JUMP JUMPDEST PUSH1 0x0 PUSH1 0x20 DUP3 DUP5 SUB SLT ISZERO PUSH2 0x3FBA JUMPI PUSH1 0x0 DUP1 REVERT JUMPDEST DUP2 CALLDATALOAD PUSH2 0x3A9C DUP2 PUSH2 0x4A74 JUMP JUMPDEST PUSH1 0x0 DUP1 PUSH1 0x0 DUP1 PUSH1 0x0 PUSH1 0xA0 DUP7 DUP9 SUB SLT ISZERO PUSH2 0x3FDD JUMPI PUSH1 0x0 DUP1 REVERT JUMPDEST DUP6 CALLDATALOAD PUSH2 0x3FE8 DUP2 PUSH2 0x4A74 JUMP JUMPDEST SWAP5 POP PUSH1 0x20 DUP7 ADD CALLDATALOAD PUSH2 0x3FF8 DUP2 PUSH2 0x4A74 JUMP JUMPDEST SWAP4 POP PUSH1 0x40 DUP7 ADD CALLDATALOAD PUSH1 0x1 PUSH1 0x1 PUSH1 0x40 SHL SUB DUP1 DUP3 GT ISZERO PUSH2 0x4014 JUMPI PUSH1 0x0 DUP1 REVERT JUMPDEST PUSH2 0x4020 DUP10 DUP4 DUP11 ADD PUSH2 0x3E36 JUMP JUMPDEST SWAP5 POP PUSH1 0x60 DUP9 ADD CALLDATALOAD SWAP2 POP DUP1 DUP3 GT ISZERO PUSH2 0x4036 JUMPI PUSH1 0x0 DUP1 REVERT JUMPDEST PUSH2 0x4042 DUP10 DUP4 DUP11 ADD PUSH2 0x3E36 JUMP JUMPDEST SWAP4 POP PUSH1 0x80 DUP9 ADD CALLDATALOAD SWAP2 POP DUP1 DUP3 GT ISZERO PUSH2 0x4058 JUMPI PUSH1 0x0 DUP1 REVERT JUMPDEST POP PUSH2 0x4065 DUP9 DUP3 DUP10 ADD PUSH2 0x3F1C JUMP JUMPDEST SWAP2 POP POP SWAP3 SWAP6 POP SWAP3 SWAP6 SWAP1 SWAP4 POP JUMP JUMPDEST PUSH1 0x0 DUP1 PUSH1 0x0 DUP1 PUSH1 0x80 DUP6 DUP8 SUB SLT ISZERO PUSH2 0x4088 JUMPI PUSH1 0x0 DUP1 REVERT JUMPDEST DUP5 CALLDATALOAD PUSH2 0x4093 DUP2 PUSH2 0x4A74 JUMP JUMPDEST SWAP4 POP PUSH1 0x20 DUP6 ADD CALLDATALOAD PUSH2 0x40A3 DUP2 PUSH2 0x4A74 JUMP JUMPDEST SWAP3 POP PUSH1 0x40 DUP6 ADD CALLDATALOAD SWAP2 POP PUSH1 0x60 DUP6 ADD CALLDATALOAD PUSH1 0x1 PUSH1 0x1 PUSH1 0x40 SHL SUB DUP2 GT ISZERO PUSH2 0x40C5 JUMPI PUSH1 0x0 DUP1 REVERT JUMPDEST PUSH2 0x40D1 DUP8 DUP3 DUP9 ADD PUSH2 0x3F1C JUMP JUMPDEST SWAP2 POP POP SWAP3 SWAP6 SWAP2 SWAP5 POP SWAP3 POP JUMP JUMPDEST PUSH1 0x0 DUP1 PUSH1 0x0 DUP1 PUSH1 0x0 PUSH1 0xA0 DUP7 DUP9 SUB SLT ISZERO PUSH2 0x40F5 JUMPI PUSH1 0x0 DUP1 REVERT JUMPDEST DUP6 CALLDATALOAD PUSH2 0x4100 DUP2 PUSH2 0x4A74 JUMP JUMPDEST SWAP5 POP PUSH1 0x20 DUP7 ADD CALLDATALOAD PUSH2 0x4110 DUP2 PUSH2 0x4A74 JUMP JUMPDEST SWAP4 POP PUSH1 0x40 DUP7 ADD CALLDATALOAD SWAP3 POP PUSH1 0x60 DUP7 ADD CALLDATALOAD SWAP2 POP PUSH1 0x80 DUP7 ADD CALLDATALOAD PUSH1 0x1 PUSH1 0x1 PUSH1 0x40 SHL SUB DUP2 GT ISZERO PUSH2 0x4139 JUMPI PUSH1 0x0 DUP1 REVERT JUMPDEST PUSH2 0x4065 DUP9 DUP3 DUP10 ADD PUSH2 0x3F1C JUMP JUMPDEST PUSH1 0x0 DUP1 PUSH1 0x0 PUSH1 0x60 DUP5 DUP7 SUB SLT ISZERO PUSH2 0x415A JUMPI PUSH1 0x0 DUP1 REVERT JUMPDEST DUP4 CALLDATALOAD PUSH2 0x4165 DUP2 PUSH2 0x4A74 JUMP JUMPDEST SWAP6 PUSH1 0x20 DUP6 ADD CALLDATALOAD SWAP6 POP PUSH1 0x40 SWAP1 SWAP5 ADD CALLDATALOAD SWAP4 SWAP3 POP POP POP JUMP JUMPDEST PUSH1 0x0 DUP1 PUSH1 0x0 DUP1 PUSH1 0x80 DUP6 DUP8 SUB SLT ISZERO PUSH2 0x4190 JUMPI PUSH1 0x0 DUP1 REVERT JUMPDEST DUP5 CALLDATALOAD PUSH1 0x1 PUSH1 0x1 PUSH1 0x40 SHL SUB DUP1 DUP3 GT ISZERO PUSH2 0x41A7 JUMPI PUSH1 0x0 DUP1 REVERT JUMPDEST PUSH2 0x41B3 DUP9 DUP4 DUP10 ADD PUSH2 0x3D4E JUMP JUMPDEST SWAP6 POP PUSH1 0x20 DUP8 ADD CALLDATALOAD SWAP2 POP DUP1 DUP3 GT ISZERO PUSH2 0x41C9 JUMPI PUSH1 0x0 DUP1 REVERT JUMPDEST PUSH2 0x41D5 DUP9 DUP4 DUP10 ADD PUSH2 0x3C6C JUMP JUMPDEST SWAP5 POP PUSH1 0x40 DUP8 ADD CALLDATALOAD SWAP2 POP DUP1 DUP3 GT ISZERO PUSH2 0x41EB JUMPI PUSH1 0x0 DUP1 REVERT JUMPDEST PUSH2 0x41F7 DUP9 DUP4 DUP10 ADD PUSH2 0x3E36 JUMP JUMPDEST SWAP4 POP PUSH1 0x60 DUP8 ADD CALLDATALOAD SWAP2 POP DUP1 DUP3 GT ISZERO PUSH2 0x420D JUMPI PUSH1 0x0 DUP1 REVERT JUMPDEST POP PUSH2 0x40D1 DUP8 DUP3 DUP9 ADD PUSH2 0x3E36 JUMP JUMPDEST PUSH1 0x0 DUP1 PUSH1 0x0 DUP1 PUSH1 0x0 PUSH1 0xA0 DUP7 DUP9 SUB SLT ISZERO PUSH2 0x4232 JUMPI PUSH1 0x0 DUP1 REVERT JUMPDEST DUP6 CALLDATALOAD PUSH1 0x1 PUSH1 0x1 PUSH1 0x40 SHL SUB DUP1 DUP3 GT ISZERO PUSH2 0x4249 JUMPI PUSH1 0x0 DUP1 REVERT JUMPDEST PUSH2 0x4255 DUP10 DUP4 DUP11 ADD PUSH2 0x3D4E JUMP JUMPDEST SWAP7 POP PUSH1 0x20 DUP9 ADD CALLDATALOAD SWAP2 POP DUP1 DUP3 GT ISZERO PUSH2 0x426B JUMPI PUSH1 0x0 DUP1 REVERT JUMPDEST PUSH2 0x4277 DUP10 DUP4 DUP11 ADD PUSH2 0x3C6C JUMP JUMPDEST SWAP6 POP PUSH1 0x40 DUP9 ADD CALLDATALOAD SWAP2 POP DUP1 DUP3 GT ISZERO PUSH2 0x428D JUMPI PUSH1 0x0 DUP1 REVERT JUMPDEST PUSH2 0x4299 DUP10 DUP4 DUP11 ADD PUSH2 0x3E36 JUMP JUMPDEST SWAP5 POP PUSH1 0x60 DUP9 ADD CALLDATALOAD SWAP2 POP DUP1 DUP3 GT ISZERO PUSH2 0x42AF JUMPI PUSH1 0x0 DUP1 REVERT JUMPDEST PUSH2 0x42BB DUP10 DUP4 DUP11 ADD PUSH2 0x3E36 JUMP JUMPDEST SWAP4 POP PUSH1 0x80 DUP9 ADD CALLDATALOAD SWAP2 POP DUP1 DUP3 GT ISZERO PUSH2 0x42D1 JUMPI PUSH1 0x0 DUP1 REVERT JUMPDEST POP PUSH2 0x4065 DUP9 DUP3 DUP10 ADD PUSH2 0x3E36 JUMP JUMPDEST PUSH1 0x0 DUP1 PUSH1 0x0 DUP1 PUSH1 0x0 DUP1 PUSH1 0x0 PUSH1 0xE0 DUP9 DUP11 SUB SLT ISZERO PUSH2 0x42F9 JUMPI PUSH1 0x0 DUP1 REVERT JUMPDEST DUP8 CALLDATALOAD PUSH1 0x1 PUSH1 0x1 PUSH1 0x40 SHL SUB DUP1 DUP3 GT ISZERO PUSH2 0x4310 JUMPI PUSH1 0x0 DUP1 REVERT JUMPDEST PUSH2 0x431C DUP12 DUP4 DUP13 ADD PUSH2 0x3D4E JUMP JUMPDEST SWAP9 POP PUSH1 0x20 DUP11 ADD CALLDATALOAD SWAP2 POP DUP1 DUP3 GT ISZERO PUSH2 0x4332 JUMPI PUSH1 0x0 DUP1 REVERT JUMPDEST PUSH2 0x433E DUP12 DUP4 DUP13 ADD PUSH2 0x3C6C JUMP JUMPDEST SWAP8 POP PUSH1 0x40 DUP11 ADD CALLDATALOAD SWAP2 POP DUP1 DUP3 GT ISZERO PUSH2 0x4354 JUMPI PUSH1 0x0 DUP1 REVERT JUMPDEST PUSH2 0x4360 DUP12 DUP4 DUP13 ADD PUSH2 0x3E36 JUMP JUMPDEST SWAP7 POP PUSH1 0x60 DUP11 ADD CALLDATALOAD SWAP2 POP DUP1 DUP3 GT ISZERO PUSH2 0x4376 JUMPI PUSH1 0x0 DUP1 REVERT JUMPDEST PUSH2 0x4382 DUP12 DUP4 DUP13 ADD PUSH2 0x3E36 JUMP JUMPDEST SWAP6 POP PUSH1 0x80 DUP11 ADD CALLDATALOAD SWAP2 POP DUP1 DUP3 GT ISZERO PUSH2 0x4398 JUMPI PUSH1 0x0 DUP1 REVERT JUMPDEST PUSH2 0x43A4 DUP12 DUP4 DUP13 ADD PUSH2 0x3E96 JUMP JUMPDEST SWAP5 POP PUSH1 0xA0 DUP11 ADD CALLDATALOAD SWAP2 POP DUP1 DUP3 GT ISZERO PUSH2 0x43BA JUMPI PUSH1 0x0 DUP1 REVERT JUMPDEST PUSH2 0x43C6 DUP12 DUP4 DUP13 ADD PUSH2 0x3CE7 JUMP JUMPDEST SWAP4 POP PUSH1 0xC0 DUP11 ADD CALLDATALOAD SWAP2 POP DUP1 DUP3 GT ISZERO PUSH2 0x43DC JUMPI PUSH1 0x0 DUP1 REVERT JUMPDEST POP PUSH2 0x43E9 DUP11 DUP3 DUP12 ADD PUSH2 0x3DC9 JUMP JUMPDEST SWAP2 POP POP SWAP3 SWAP6 SWAP9 SWAP2 SWAP5 SWAP8 POP SWAP3 SWAP6 POP JUMP JUMPDEST PUSH1 0x0 DUP1 PUSH1 0x0 DUP1 PUSH1 0x0 DUP1 PUSH1 0xC0 DUP8 DUP10 SUB SLT ISZERO PUSH2 0x4411 JUMPI PUSH1 0x0 DUP1 REVERT JUMPDEST DUP7 CALLDATALOAD PUSH1 0x1 PUSH1 0x1 PUSH1 0x40 SHL SUB DUP1 DUP3 GT ISZERO PUSH2 0x4428 JUMPI PUSH1 0x0 DUP1 REVERT JUMPDEST PUSH2 0x4434 DUP11 DUP4 DUP12 ADD PUSH2 0x3D4E JUMP JUMPDEST SWAP8 POP PUSH1 0x20 DUP10 ADD CALLDATALOAD SWAP2 POP DUP1 DUP3 GT ISZERO PUSH2 0x444A JUMPI PUSH1 0x0 DUP1 REVERT JUMPDEST PUSH2 0x4456 DUP11 DUP4 DUP12 ADD PUSH2 0x3C6C JUMP JUMPDEST SWAP7 POP PUSH1 0x40 DUP10 ADD CALLDATALOAD SWAP2 POP DUP1 DUP3 GT ISZERO PUSH2 0x446C JUMPI PUSH1 0x0 DUP1 REVERT JUMPDEST PUSH2 0x4478 DUP11 DUP4 DUP12 ADD PUSH2 0x3E36 JUMP JUMPDEST SWAP6 POP PUSH1 0x60 DUP10 ADD CALLDATALOAD SWAP2 POP DUP1 DUP3 GT ISZERO PUSH2 0x448E JUMPI PUSH1 0x0 DUP1 REVERT JUMPDEST PUSH2 0x449A DUP11 DUP4 DUP12 ADD PUSH2 0x3E36 JUMP JUMPDEST SWAP5 POP PUSH1 0x80 DUP10 ADD CALLDATALOAD SWAP2 POP DUP1 DUP3 GT ISZERO PUSH2 0x44B0 JUMPI PUSH1 0x0 DUP1 REVERT JUMPDEST PUSH2 0x44BC DUP11 DUP4 DUP12 ADD PUSH2 0x3E96 JUMP JUMPDEST SWAP4 POP PUSH1 0xA0 DUP10 ADD CALLDATALOAD SWAP2 POP DUP1 DUP3 GT ISZERO PUSH2 0x44D2 JUMPI PUSH1 0x0 DUP1 REVERT JUMPDEST POP PUSH2 0x44DF DUP10 DUP3 DUP11 ADD PUSH2 0x3E36 JUMP JUMPDEST SWAP2 POP POP SWAP3 SWAP6 POP SWAP3 SWAP6 POP SWAP3 SWAP6 JUMP JUMPDEST PUSH1 0x0 PUSH1 0x20 DUP3 DUP5 SUB SLT ISZERO PUSH2 0x44FE JUMPI PUSH1 0x0 DUP1 REVERT JUMPDEST DUP2 CALLDATALOAD PUSH2 0x3A9C DUP2 PUSH2 0x4A89 JUMP JUMPDEST PUSH1 0x0 PUSH1 0x20 DUP3 DUP5 SUB SLT ISZERO PUSH2 0x451B JUMPI PUSH1 0x0 DUP1 REVERT JUMPDEST DUP2 MLOAD PUSH2 0x3A9C DUP2 PUSH2 0x4A89 JUMP JUMPDEST PUSH1 0x0 PUSH1 0x20 DUP3 DUP5 SUB SLT ISZERO PUSH2 0x4538 JUMPI PUSH1 0x0 DUP1 REVERT JUMPDEST PUSH2 0x3A9C DUP3 PUSH2 0x3EFF JUMP JUMPDEST PUSH1 0x0 PUSH1 0x20 DUP3 DUP5 SUB SLT ISZERO PUSH2 0x4553 JUMPI PUSH1 0x0 DUP1 REVERT JUMPDEST POP CALLDATALOAD SWAP2 SWAP1 POP JUMP JUMPDEST PUSH1 0x0 PUSH1 0x20 DUP3 DUP5 SUB SLT ISZERO PUSH2 0x456C JUMPI PUSH1 0x0 DUP1 REVERT JUMPDEST DUP2 MLOAD PUSH2 0x3A9C DUP2 PUSH2 0x4A97 JUMP JUMPDEST PUSH1 0x0 DUP2 MLOAD DUP1 DUP5 MSTORE PUSH1 0x20 DUP1 DUP6 ADD SWAP5 POP DUP1 DUP5 ADD PUSH1 0x0 JUMPDEST DUP4 DUP2 LT ISZERO PUSH2 0x45A7 JUMPI DUP2 MLOAD DUP8 MSTORE SWAP6 DUP3 ADD SWAP6 SWAP1 DUP3 ADD SWAP1 PUSH1 0x1 ADD PUSH2 0x458B JUMP JUMPDEST POP SWAP5 SWAP6 SWAP5 POP POP POP POP POP JUMP JUMPDEST PUSH1 0x60 SWAP4 SWAP1 SWAP4 SHL PUSH12 0xFFFFFFFFFFFFFFFFFFFFFFFF NOT AND DUP4 MSTORE PUSH1 0x14 DUP4 ADD SWAP2 SWAP1 SWAP2 MSTORE PUSH1 0x34 DUP3 ADD MSTORE PUSH1 0x54 ADD SWAP1 JUMP JUMPDEST PUSH1 0x0 DUP3 MLOAD PUSH2 0x45EE DUP2 DUP5 PUSH1 0x20 DUP8 ADD PUSH2 0x49D5 JUMP JUMPDEST SWAP2 SWAP1 SWAP2 ADD SWAP3 SWAP2 POP POP JUMP JUMPDEST PUSH1 0x1 PUSH1 0x1 PUSH1 0xA0 SHL SUB DUP6 DUP2 AND DUP3 MSTORE DUP5 AND PUSH1 0x20 DUP3 ADD MSTORE PUSH1 0xA0 PUSH1 0x40 DUP3 ADD DUP2 SWAP1 MSTORE PUSH1 0x0 SWAP1 PUSH2 0x4624 SWAP1 DUP4 ADD DUP6 PUSH2 0x4577 JUMP JUMPDEST DUP3 DUP2 SUB PUSH1 0x60 DUP5 ADD MSTORE PUSH2 0x4636 DUP2 DUP6 PUSH2 0x4577 JUMP JUMPDEST DUP4 DUP2 SUB PUSH1 0x80 SWAP1 SWAP5 ADD SWAP4 SWAP1 SWAP4 MSTORE POP POP PUSH1 0x0 DUP2 MSTORE PUSH1 0x20 ADD SWAP5 SWAP4 POP POP POP POP JUMP JUMPDEST DUP7 ISZERO ISZERO DUP2 MSTORE PUSH1 0x20 DUP2 ADD DUP7 SWAP1 MSTORE PUSH1 0xFF DUP6 AND PUSH1 0x40 DUP3 ADD MSTORE PUSH1 0x1 PUSH1 0x1 PUSH1 0xE0 SHL SUB NOT DUP5 AND PUSH1 0x60 DUP3 ADD MSTORE PUSH2 0xFFFF DUP4 AND PUSH1 0x80 DUP3 ADD MSTORE PUSH1 0xC0 DUP2 ADD PUSH1 0x4 DUP4 LT PUSH2 0x46A4 JUMPI PUSH4 0x4E487B71 PUSH1 0xE0 SHL PUSH1 0x0 MSTORE PUSH1 0x21 PUSH1 0x4 MSTORE PUSH1 0x24 PUSH1 0x0 REVERT JUMPDEST DUP3 PUSH1 0xA0 DUP4 ADD MSTORE SWAP8 SWAP7 POP POP POP POP POP POP POP JUMP JUMPDEST PUSH1 0x20 DUP2 MSTORE PUSH1 0x0 DUP3 MLOAD DUP1 PUSH1 0x20 DUP5 ADD MSTORE PUSH2 0x46D4 DUP2 PUSH1 0x40 DUP6 ADD PUSH1 0x20 DUP8 ADD PUSH2 0x49D5 JUMP JUMPDEST PUSH1 0x1F ADD PUSH1 0x1F NOT AND SWAP2 SWAP1 SWAP2 ADD PUSH1 0x40 ADD SWAP3 SWAP2 POP POP JUMP JUMPDEST PUSH1 0x20 DUP1 DUP3 MSTORE PUSH1 0x1B SWAP1 DUP3 ADD MSTORE PUSH32 0x52654E46543A3A696E76616C6964206E6674207374616E646172640000000000 PUSH1 0x40 DUP3 ADD MSTORE PUSH1 0x60 ADD SWAP1 JUMP JUMPDEST PUSH1 0x20 DUP1 DUP3 MSTORE PUSH1 0x17 SWAP1 DUP3 ADD MSTORE PUSH32 0x52654E46543A3A6475726174696F6E206973207A65726F000000000000000000 PUSH1 0x40 DUP3 ADD MSTORE PUSH1 0x60 ADD SWAP1 JUMP JUMPDEST PUSH1 0x20 DUP1 DUP3 MSTORE PUSH1 0x19 SWAP1 DUP3 ADD MSTORE PUSH32 0x52654E46543A3A72656E74207072696365206973207A65726F00000000000000 PUSH1 0x40 DUP3 ADD MSTORE PUSH1 0x60 ADD SWAP1 JUMP JUMPDEST PUSH1 0x20 DUP1 DUP3 MSTORE PUSH1 0xD SWAP1 DUP3 ADD MSTORE PUSH13 0x14995391950E8E9C185D5CD959 PUSH1 0x9A SHL PUSH1 0x40 DUP3 ADD MSTORE PUSH1 0x60 ADD SWAP1 JUMP JUMPDEST PUSH1 0x20 DUP1 DUP3 MSTORE PUSH1 0x10 SWAP1 DUP3 ADD MSTORE PUSH16 0x2932A7232A1D1D3737BA1030B236B4B7 PUSH1 0x81 SHL PUSH1 0x40 DUP3 ADD MSTORE PUSH1 0x60 ADD SWAP1 JUMP JUMPDEST PUSH1 0x40 MLOAD PUSH1 0x1F DUP3 ADD PUSH1 0x1F NOT AND DUP2 ADD PUSH1 0x1 PUSH1 0x1 PUSH1 0x40 SHL SUB DUP2 GT DUP3 DUP3 LT OR ISZERO PUSH2 0x4806 JUMPI PUSH2 0x4806 PUSH2 0x4A5E JUMP JUMPDEST PUSH1 0x40 MSTORE SWAP2 SWAP1 POP JUMP JUMPDEST PUSH1 0x0 PUSH1 0x1 PUSH1 0x1 PUSH1 0x40 SHL SUB DUP3 GT ISZERO PUSH2 0x4827 JUMPI PUSH2 0x4827 PUSH2 0x4A5E JUMP JUMPDEST POP PUSH1 0x5 SHL PUSH1 0x20 ADD SWAP1 JUMP JUMPDEST PUSH1 0x0 PUSH2 0xFFFF DUP1 DUP4 AND DUP2 DUP6 AND DUP1 DUP4 SUB DUP3 GT ISZERO PUSH2 0x484E JUMPI PUSH2 0x484E PUSH2 0x4A1C JUMP JUMPDEST ADD SWAP5 SWAP4 POP POP POP POP JUMP JUMPDEST PUSH1 0x0 DUP3 NOT DUP3 GT ISZERO PUSH2 0x486A JUMPI PUSH2 0x486A PUSH2 0x4A1C JUMP JUMPDEST POP ADD SWAP1 JUMP JUMPDEST PUSH1 0x0 DUP3 PUSH2 0x488C JUMPI PUSH4 0x4E487B71 PUSH1 0xE0 SHL PUSH1 0x0 MSTORE PUSH1 0x12 PUSH1 0x4 MSTORE PUSH1 0x24 PUSH1 0x0 REVERT JUMPDEST POP DIV SWAP1 JUMP JUMPDEST PUSH1 0x1 DUP2 DUP2 JUMPDEST DUP1 DUP6 GT ISZERO PUSH2 0x48CC JUMPI DUP2 PUSH1 0x0 NOT DIV DUP3 GT ISZERO PUSH2 0x48B2 JUMPI PUSH2 0x48B2 PUSH2 0x4A1C JUMP JUMPDEST DUP1 DUP6 AND ISZERO PUSH2 0x48BF JUMPI SWAP2 DUP2 MUL SWAP2 JUMPDEST SWAP4 DUP5 SHR SWAP4 SWAP1 DUP1 MUL SWAP1 PUSH2 0x4896 JUMP JUMPDEST POP SWAP3 POP SWAP3 SWAP1 POP JUMP JUMPDEST PUSH1 0x0 PUSH2 0x3A9C DUP4 DUP4 PUSH1 0x0 DUP3 PUSH2 0x48EA JUMPI POP PUSH1 0x1 PUSH2 0x400 JUMP JUMPDEST DUP2 PUSH2 0x48F7 JUMPI POP PUSH1 0x0 PUSH2 0x400 JUMP JUMPDEST DUP2 PUSH1 0x1 DUP2 EQ PUSH2 0x490D JUMPI PUSH1 0x2 DUP2 EQ PUSH2 0x4917 JUMPI PUSH2 0x4933 JUMP JUMPDEST PUSH1 0x1 SWAP2 POP POP PUSH2 0x400 JUMP JUMPDEST PUSH1 0xFF DUP5 GT ISZERO PUSH2 0x4928 JUMPI PUSH2 0x4928 PUSH2 0x4A1C JUMP JUMPDEST POP POP PUSH1 0x1 DUP3 SHL PUSH2 0x400 JUMP JUMPDEST POP PUSH1 0x20 DUP4 LT PUSH2 0x133 DUP4 LT AND PUSH1 0x4E DUP5 LT PUSH1 0xB DUP5 LT AND OR ISZERO PUSH2 0x4956 JUMPI POP DUP2 DUP2 EXP PUSH2 0x400 JUMP JUMPDEST PUSH2 0x4960 DUP4 DUP4 PUSH2 0x4891 JUMP JUMPDEST DUP1 PUSH1 0x0 NOT DIV DUP3 GT ISZERO PUSH2 0x4974 JUMPI PUSH2 0x4974 PUSH2 0x4A1C JUMP JUMPDEST MUL SWAP4 SWAP3 POP POP POP JUMP JUMPDEST PUSH1 0x0 DUP2 PUSH1 0x0 NOT DIV DUP4 GT DUP3 ISZERO ISZERO AND ISZERO PUSH2 0x4996 JUMPI PUSH2 0x4996 PUSH2 0x4A1C JUMP JUMPDEST POP MUL SWAP1 JUMP JUMPDEST PUSH1 0x0 PUSH2 0xFFFF DUP4 DUP2 AND SWAP1 DUP4 AND DUP2 DUP2 LT ISZERO PUSH2 0x49B6 JUMPI PUSH2 0x49B6 PUSH2 0x4A1C JUMP JUMPDEST SUB SWAP4 SWAP3 POP POP POP JUMP JUMPDEST PUSH1 0x0 DUP3 DUP3 LT ISZERO PUSH2 0x49D0 JUMPI PUSH2 0x49D0 PUSH2 0x4A1C JUMP JUMPDEST POP SUB SWAP1 JUMP JUMPDEST PUSH1 0x0 JUMPDEST DUP4 DUP2 LT ISZERO PUSH2 0x49F0 JUMPI DUP2 DUP2 ADD MLOAD DUP4 DUP3 ADD MSTORE PUSH1 0x20 ADD PUSH2 0x49D8 JUMP JUMPDEST DUP4 DUP2 GT ISZERO PUSH2 0x708 JUMPI POP POP PUSH1 0x0 SWAP2 ADD MSTORE JUMP JUMPDEST PUSH1 0x0 PUSH1 0x0 NOT DUP3 EQ ISZERO PUSH2 0x4A15 JUMPI PUSH2 0x4A15 PUSH2 0x4A1C JUMP JUMPDEST POP PUSH1 0x1 ADD SWAP1 JUMP JUMPDEST PUSH4 0x4E487B71 PUSH1 0xE0 SHL PUSH1 0x0 MSTORE PUSH1 0x11 PUSH1 0x4 MSTORE PUSH1 0x24 PUSH1 0x0 REVERT JUMPDEST PUSH4 0x4E487B71 PUSH1 0xE0 SHL PUSH1 0x0 MSTORE PUSH1 0x21 PUSH1 0x4 MSTORE PUSH1 0x24 PUSH1 0x0 REVERT JUMPDEST PUSH4 0x4E487B71 PUSH1 0xE0 SHL PUSH1 0x0 MSTORE PUSH1 0x32 PUSH1 0x4 MSTORE PUSH1 0x24 PUSH1 0x0 REVERT JUMPDEST PUSH4 0x4E487B71 PUSH1 0xE0 SHL PUSH1 0x0 MSTORE PUSH1 0x41 PUSH1 0x4 MSTORE PUSH1 0x24 PUSH1 0x0 REVERT JUMPDEST PUSH1 0x1 PUSH1 0x1 PUSH1 0xA0 SHL SUB DUP2 AND DUP2 EQ PUSH2 0x1573 JUMPI PUSH1 0x0 DUP1 REVERT JUMPDEST DUP1 ISZERO ISZERO DUP2 EQ PUSH2 0x1573 JUMPI PUSH1 0x0 DUP1 REVERT JUMPDEST PUSH1 0xFF DUP2 AND DUP2 EQ PUSH2 0x1573 JUMPI PUSH1 0x0 DUP1 REVERT INVALID LOG2 PUSH5 0x6970667358 0x22 SLT KECCAK256 0x4F 0xC3 CREATE 0x4D 0xE8 0xF9 AND 0xEC 0xB2 SIGNEXTEND 0x4F AND PUSH20 0xFD2B3AD72548589951C39E6F385A83502D7C8064 PUSH20 0x6F6C634300080700330000000000000000000000 ",
  "sha1": "dbbd95d96a784ee37c1fa7a98841ef70e5fd9596",
  "source": "// SPDX-License-Identifier: MIT\npragma solidity =0.8.7;\n\nimport \"OpenZeppelin/openzeppelin-contracts@4.3.0/contracts/token/ERC20/ERC20.sol\";\nimport \"OpenZeppelin/openzeppelin-contracts@4.3.0/contracts/token/ERC20/IERC20.sol\";\nimport \"OpenZeppelin/openzeppelin-contracts@4.3.0/contracts/token/ERC20/utils/SafeERC20.sol\";\nimport \"OpenZeppelin/openzeppelin-contracts@4.3.0/contracts/token/ERC721/IERC721.sol\";\nimport \"OpenZeppelin/openzeppelin-contracts@4.3.0/contracts/token/ERC721/utils/ERC721Holder.sol\";\nimport \"OpenZeppelin/openzeppelin-contracts@4.3.0/contracts/token/ERC1155/IERC1155.sol\";\nimport \"OpenZeppelin/openzeppelin-contracts@4.3.0/contracts/token/ERC1155/utils/ERC1155Holder.sol\";\nimport \"OpenZeppelin/openzeppelin-contracts@4.3.0/contracts/token/ERC1155/utils/ERC1155Receiver.sol\";\n\nimport \"./interfaces/IRegistry.sol\";\n\n//              @@@@@@@@@@@@@@@@        ,@@@@@@@@@@@@@@@@\n//              @@@,,,,,,,,,,@@@        ,@@&,,,,,,,,,,@@@\n//         @@@@@@@@,,,,,,,,,,@@@@@@@@&  ,@@&,,,,,,,,,,@@@@@@@@\n//         @@@**********@@@@@@@@@@@@@&  ,@@@@@@@@**********@@@\n//         @@@**********@@@@@@@@@@@@@&  ,@@@@@@@@**********@@@@@@@@\n//         @@@**********@@@@@@@@@@@@@&       .@@@**********@@@@@@@@\n//    @@@@@@@@**********@@@@@@@@@@@@@&       .@@@**********@@@@@@@@\n//    @@@**********@@@@@@@@@@@@@&            .@@@@@@@@**********@@@\n//    @@@**********@@@@@@@@@@@@@&            .@@@@@@@@**********@@@@@@@@\n//    @@@@@@@@**********@@@@@@@@&            .@@@**********@@@@@@@@@@@@@\n//    @@@@@@@@//////////@@@@@@@@&            .@@@//////////@@@@@@@@@@@@@\n//         @@@//////////@@@@@@@@&            .@@@//////////@@@@@@@@@@@@@\n//         @@@//////////@@@@@@@@&       ,@@@@@@@@//////////@@@@@@@@@@@@@\n//         @@@%%%%%/////(((((@@@&       ,@@@(((((/////%%%%%@@@@@@@@\n//         @@@@@@@@//////////@@@@@@@@&  ,@@@//////////@@@@@@@@@@@@@\n//              @@@%%%%%%%%%%@@@@@@@@&  ,@@@%%%%%%%%%%@@@@@@@@@@@@@\n//              @@@@@@@@@@@@@@@@@@@@@&  ,@@@@@@@@@@@@@@@@@@@@@@@@@@\n//                   @@@@@@@@@@@@@@@@&        @@@@@@@@@@@@@@@@\n//                   @@@@@@@@@@@@@@@@&        @@@@@@@@@@@@@@@@\n\ncontract Registry is IRegistry, ERC721Holder, ERC1155Receiver, ERC1155Holder {\n    using SafeERC20 for ERC20;\n\n    IResolver private resolver;\n    address private admin;\n    address payable private beneficiary;\n    uint256 private lendingID = 1;\n    uint256 private rentingID = 1;\n    bool public paused = false;\n    uint256 public rentFee = 0;\n    uint256 private constant SECONDS_IN_DAY = 86400;\n    mapping(bytes32 => Lending) private lendings;\n    mapping(bytes32 => Renting) private rentings;\n\n    modifier onlyAdmin() {\n        require(msg.sender == admin, \"ReNFT::not admin\");\n        _;\n    }\n\n    modifier notPaused() {\n        require(!paused, \"ReNFT::paused\");\n        _;\n    }\n\n    constructor(\n        address newResolver,\n        address payable newBeneficiary,\n        address newAdmin\n    ) {\n        ensureIsNotZeroAddr(newResolver);\n        ensureIsNotZeroAddr(newBeneficiary);\n        ensureIsNotZeroAddr(newAdmin);\n        resolver = IResolver(newResolver);\n        beneficiary = newBeneficiary;\n        admin = newAdmin;\n    }\n\n    function lend(\n        IRegistry.NFTStandard[] memory nftStandard,\n        address[] memory nftAddress,\n        uint256[] memory tokenID,\n        uint256[] memory lendAmount,\n        uint8[] memory maxRentDuration,\n        bytes4[] memory dailyRentPrice,\n        IResolver.PaymentToken[] memory paymentToken\n    ) external override notPaused {\n        bundleCall(\n            handleLend,\n            createLendCallData(\n                nftStandard,\n                nftAddress,\n                tokenID,\n                lendAmount,\n                maxRentDuration,\n                dailyRentPrice,\n                paymentToken\n            )\n        );\n    }\n\n    function stopLend(\n        IRegistry.NFTStandard[] memory nftStandard,\n        address[] memory nftAddress,\n        uint256[] memory tokenID,\n        uint256[] memory _lendingID\n    ) external override notPaused {\n        bundleCall(\n            handleStopLend,\n            createActionCallData(\n                nftStandard,\n                nftAddress,\n                tokenID,\n                _lendingID,\n                new uint256[](0)\n            )\n        );\n    }\n\n    function rent(\n        IRegistry.NFTStandard[] memory nftStandard,\n        address[] memory nftAddress,\n        uint256[] memory tokenID,\n        uint256[] memory _lendingID,\n        uint8[] memory rentDuration,\n        uint256[] memory rentAmount\n    ) external payable override notPaused {\n        bundleCall(\n            handleRent,\n            createRentCallData(\n                nftStandard,\n                nftAddress,\n                tokenID,\n                _lendingID,\n                rentDuration,\n                rentAmount\n            )\n        );\n    }\n\n    function stopRent(\n        IRegistry.NFTStandard[] memory nftStandard,\n        address[] memory nftAddress,\n        uint256[] memory tokenID,\n        uint256[] memory _lendingID,\n        uint256[] memory _rentingID\n    ) external override notPaused {\n        bundleCall(\n            handleStopRent,\n            createActionCallData(\n                nftStandard,\n                nftAddress,\n                tokenID,\n                _lendingID,\n                _rentingID\n            )\n        );\n    }\n\n    function claimRent(\n        IRegistry.NFTStandard[] memory nftStandard,\n        address[] memory nftAddress,\n        uint256[] memory tokenID,\n        uint256[] memory _lendingID,\n        uint256[] memory _rentingID\n    ) external override notPaused {\n        bundleCall(\n            handleClaimRent,\n            createActionCallData(\n                nftStandard,\n                nftAddress,\n                tokenID,\n                _lendingID,\n                _rentingID\n            )\n        );\n    }\n\n    //      .-.     .-.     .-.     .-.     .-.     .-.     .-.     .-.     .-.     .-.\n    // `._.'   `._.'   `._.'   `._.'   `._.'   `._.'   `._.'   `._.'   `._.'   `._.'   `._.'\n\n    function handleLend(IRegistry.CallData memory cd) private {\n        for (uint256 i = cd.left; i < cd.right; i++) {\n            ensureIsLendable(cd, i);\n            bytes32 identifier = keccak256(\n                abi.encodePacked(\n                    cd.nftAddress[cd.left],\n                    cd.tokenID[i],\n                    lendingID\n                )\n            );\n            IRegistry.Lending storage lending = lendings[identifier];\n            ensureIsNull(lending);\n            ensureTokenNotSentinel(uint8(cd.paymentToken[i]));\n            bool is721 = cd.nftStandard[i] == IRegistry.NFTStandard.E721;\n            lendings[identifier] = IRegistry.Lending({\n                nftStandard: cd.nftStandard[i],\n                lenderAddress: payable(msg.sender),\n                maxRentDuration: cd.maxRentDuration[i],\n                dailyRentPrice: cd.dailyRentPrice[i],\n                lendAmount: is721 ? 1 : uint16(cd.lendAmount[i]),\n                availableAmount: is721 ? 1 : uint16(cd.lendAmount[i]),\n                paymentToken: cd.paymentToken[i]\n            });\n            emit IRegistry.Lend(\n                is721,\n                msg.sender,\n                cd.nftAddress[cd.left],\n                cd.tokenID[i],\n                lendingID,\n                cd.maxRentDuration[i],\n                cd.dailyRentPrice[i],\n                is721 ? 1 : uint16(cd.lendAmount[i]),\n                cd.paymentToken[i]\n            );\n            lendingID++;\n        }\n        safeTransfer(\n            cd,\n            msg.sender,\n            address(this),\n            sliceArr(cd.tokenID, cd.left, cd.right, 0),\n            sliceArr(cd.lendAmount, cd.left, cd.right, 0)\n        );\n    }\n\n    function handleStopLend(IRegistry.CallData memory cd) private {\n        uint256[] memory lentAmounts = new uint256[](cd.right - cd.left);\n        for (uint256 i = cd.left; i < cd.right; i++) {\n            bytes32 lendingIdentifier = keccak256(\n                abi.encodePacked(\n                    cd.nftAddress[cd.left],\n                    cd.tokenID[i],\n                    cd.lendingID[i]\n                )\n            );\n            Lending storage lending = lendings[lendingIdentifier];\n            ensureIsNotNull(lending);\n            ensureIsStoppable(lending, msg.sender);\n            require(\n                cd.nftStandard[i] == lending.nftStandard,\n                \"ReNFT::invalid nft standard\"\n            );\n            require(\n                lending.lendAmount == lending.availableAmount,\n                \"ReNFT::actively rented\"\n            );\n            lentAmounts[i - cd.left] = lending.lendAmount;\n            emit IRegistry.StopLend(cd.lendingID[i], uint32(block.timestamp));\n            delete lendings[lendingIdentifier];\n        }\n        safeTransfer(\n            cd,\n            address(this),\n            msg.sender,\n            sliceArr(cd.tokenID, cd.left, cd.right, 0),\n            sliceArr(lentAmounts, cd.left, cd.right, cd.left)\n        );\n    }\n\n    function handleRent(IRegistry.CallData memory cd) private {\n        for (uint256 i = cd.left; i < cd.right; i++) {\n            bytes32 lendingIdentifier = keccak256(\n                abi.encodePacked(\n                    cd.nftAddress[cd.left],\n                    cd.tokenID[i],\n                    cd.lendingID[i]\n                )\n            );\n            bytes32 rentingIdentifier = keccak256(\n                abi.encodePacked(\n                    cd.nftAddress[cd.left],\n                    cd.tokenID[i],\n                    rentingID\n                )\n            );\n            IRegistry.Lending storage lending = lendings[lendingIdentifier];\n            IRegistry.Renting storage renting = rentings[rentingIdentifier];\n            ensureIsNotNull(lending);\n            ensureIsNull(renting);\n            ensureIsRentable(lending, cd, i, msg.sender);\n            require(\n                cd.nftStandard[i] == lending.nftStandard,\n                \"ReNFT::invalid nft standard\"\n            );\n            require(\n                cd.rentAmount[i] <= lending.availableAmount,\n                \"ReNFT::invalid rent amount\"\n            );\n            uint8 paymentTokenIx = uint8(lending.paymentToken);\n            address paymentToken = resolver.getPaymentToken(paymentTokenIx);\n            uint256 decimals = ERC20(paymentToken).decimals();\n            {\n                uint256 scale = 10**decimals;\n                uint256 rentPrice = cd.rentAmount[i] *\n                    cd.rentDuration[i] *\n                    unpackPrice(lending.dailyRentPrice, scale);\n                require(rentPrice > 0, \"ReNFT::rent price is zero\");\n                ERC20(paymentToken).safeTransferFrom(\n                    msg.sender,\n                    address(this),\n                    rentPrice\n                );\n            }\n            rentings[rentingIdentifier] = IRegistry.Renting({\n                renterAddress: payable(msg.sender),\n                rentAmount: uint16(cd.rentAmount[i]),\n                rentDuration: cd.rentDuration[i],\n                rentedAt: uint32(block.timestamp)\n            });\n            lendings[lendingIdentifier].availableAmount -= uint16(\n                cd.rentAmount[i]\n            );\n            emit IRegistry.Rent(\n                msg.sender,\n                cd.lendingID[i],\n                rentingID,\n                uint16(cd.rentAmount[i]),\n                cd.rentDuration[i],\n                renting.rentedAt\n            );\n            rentingID++;\n        }\n    }\n\n    function handleStopRent(IRegistry.CallData memory cd) private {\n        for (uint256 i = cd.left; i < cd.right; i++) {\n            bytes32 lendingIdentifier = keccak256(\n                abi.encodePacked(\n                    cd.nftAddress[cd.left],\n                    cd.tokenID[i],\n                    cd.lendingID[i]\n                )\n            );\n            bytes32 rentingIdentifier = keccak256(\n                abi.encodePacked(\n                    cd.nftAddress[cd.left],\n                    cd.tokenID[i],\n                    cd.rentingID[i]\n                )\n            );\n            IRegistry.Lending storage lending = lendings[lendingIdentifier];\n            IRegistry.Renting storage renting = rentings[rentingIdentifier];\n            ensureIsNotNull(lending);\n            ensureIsReturnable(renting, msg.sender, block.timestamp);\n            require(\n                cd.nftStandard[i] == lending.nftStandard,\n                \"ReNFT::invalid nft standard\"\n            );\n            require(\n                renting.rentAmount <= lending.lendAmount,\n                \"ReNFT::critical error\"\n            );\n            uint256 secondsSinceRentStart = block.timestamp - renting.rentedAt;\n            distributePayments(lending, renting, secondsSinceRentStart);\n            lendings[lendingIdentifier].availableAmount += renting.rentAmount;\n            emit IRegistry.StopRent(cd.lendingID[i], uint32(block.timestamp));\n            delete rentings[rentingIdentifier];\n        }\n    }\n\n    function handleClaimRent(CallData memory cd) private {\n        for (uint256 i = cd.left; i < cd.right; i++) {\n            bytes32 lendingIdentifier = keccak256(\n                abi.encodePacked(\n                    cd.nftAddress[cd.left],\n                    cd.tokenID[i],\n                    cd.lendingID[i]\n                )\n            );\n            bytes32 rentingIdentifier = keccak256(\n                abi.encodePacked(\n                    cd.nftAddress[cd.left],\n                    cd.tokenID[i],\n                    cd.rentingID[i]\n                )\n            );\n            IRegistry.Lending storage lending = lendings[lendingIdentifier];\n            IRegistry.Renting storage renting = rentings[rentingIdentifier];\n            ensureIsNotNull(lending);\n            ensureIsNotNull(renting);\n            ensureIsClaimable(renting, block.timestamp);\n            distributeClaimPayment(lending, renting);\n            emit IRegistry.RentClaimed(\n                cd.rentingID[i],\n                uint32(block.timestamp)\n            );\n            lending.availableAmount =\n                lending.availableAmount +\n                renting.rentAmount;\n            delete rentings[rentingIdentifier];\n        }\n    }\n\n    //      .-.     .-.     .-.     .-.     .-.     .-.     .-.     .-.     .-.     .-.\n    // `._.'   `._.'   `._.'   `._.'   `._.'   `._.'   `._.'   `._.'   `._.'   `._.'   `._.'\n\n    function bundleCall(\n        function(IRegistry.CallData memory) handler,\n        IRegistry.CallData memory cd\n    ) private {\n        require(cd.nftAddress.length > 0, \"ReNFT::no nfts\");\n        while (cd.right != cd.nftAddress.length) {\n            if (\n                (cd.nftAddress[cd.left] == cd.nftAddress[cd.right]) &&\n                (cd.nftStandard[cd.right] == IRegistry.NFTStandard.E1155)\n            ) {\n                cd.right++;\n            } else {\n                handler(cd);\n                cd.left = cd.right;\n                cd.right++;\n            }\n        }\n        handler(cd);\n    }\n\n    function takeFee(uint256 rentAmt, IResolver.PaymentToken paymentToken)\n        private\n        returns (uint256 fee)\n    {\n        fee = rentAmt * rentFee;\n        fee /= 10000;\n        uint8 paymentTokenIx = uint8(paymentToken);\n        ERC20 pmtToken = ERC20(resolver.getPaymentToken(paymentTokenIx));\n        pmtToken.safeTransfer(beneficiary, fee);\n    }\n\n    function distributePayments(\n        IRegistry.Lending memory lending,\n        IRegistry.Renting memory renting,\n        uint256 secondsSinceRentStart\n    ) private {\n        uint8 paymentTokenIx = uint8(lending.paymentToken);\n        address pmtToken = resolver.getPaymentToken(paymentTokenIx);\n        uint256 decimals = ERC20(pmtToken).decimals();\n        uint256 scale = 10**decimals;\n        uint256 rentPrice = unpackPrice(lending.dailyRentPrice, scale);\n        uint256 totalRenterPmt = renting.rentAmount *\n            rentPrice *\n            renting.rentDuration;\n        uint256 sendLenderAmt = (secondsSinceRentStart * rentPrice) /\n            SECONDS_IN_DAY;\n        require(totalRenterPmt > 0, \"ReNFT::total renter payment is zero\");\n        require(sendLenderAmt > 0, \"ReNFT::lender payment is zero\");\n        uint256 sendRenterAmt = totalRenterPmt - sendLenderAmt;\n        if (rentFee != 0) {\n            uint256 takenFee = takeFee(sendLenderAmt, lending.paymentToken);\n            sendLenderAmt -= takenFee;\n        }\n        ERC20(pmtToken).safeTransfer(lending.lenderAddress, sendLenderAmt);\n        if (sendRenterAmt > 0) {\n            ERC20(pmtToken).safeTransfer(renting.renterAddress, sendRenterAmt);\n        }\n    }\n\n    function distributeClaimPayment(\n        IRegistry.Lending memory lending,\n        IRegistry.Renting memory renting\n    ) private {\n        uint8 paymentTokenIx = uint8(lending.paymentToken);\n        ERC20 paymentToken = ERC20(resolver.getPaymentToken(paymentTokenIx));\n        uint256 decimals = ERC20(paymentToken).decimals();\n        uint256 scale = 10**decimals;\n        uint256 rentPrice = unpackPrice(lending.dailyRentPrice, scale);\n        uint256 finalAmt = renting.rentAmount *\n            rentPrice *\n            renting.rentDuration;\n        uint256 takenFee = 0;\n        if (rentFee != 0) {\n            takenFee = takeFee(\n                finalAmt,\n                IResolver.PaymentToken(paymentTokenIx)\n            );\n        }\n        paymentToken.safeTransfer(lending.lenderAddress, finalAmt - takenFee);\n    }\n\n    function safeTransfer(\n        CallData memory cd,\n        address from,\n        address to,\n        uint256[] memory tokenID,\n        uint256[] memory lendAmount\n    ) private {\n        if (cd.nftStandard[cd.left] == IRegistry.NFTStandard.E721) {\n            IERC721(cd.nftAddress[cd.left]).transferFrom(\n                from,\n                to,\n                cd.tokenID[cd.left]\n            );\n        } else {\n            IERC1155(cd.nftAddress[cd.left]).safeBatchTransferFrom(\n                from,\n                to,\n                tokenID,\n                lendAmount,\n                \"\"\n            );\n        }\n    }\n\n    //      .-.     .-.     .-.     .-.     .-.     .-.     .-.     .-.     .-.     .-.\n    // `._.'   `._.'   `._.'   `._.'   `._.'   `._.'   `._.'   `._.'   `._.'   `._.'   `._.'\n\n    function getLending(\n        address nftAddress,\n        uint256 tokenID,\n        uint256 _lendingID\n    )\n        external\n        view\n        returns (\n            uint8,\n            address,\n            uint8,\n            bytes4,\n            uint16,\n            uint16,\n            uint8\n        )\n    {\n        bytes32 identifier = keccak256(\n            abi.encodePacked(nftAddress, tokenID, _lendingID)\n        );\n        IRegistry.Lending storage lending = lendings[identifier];\n        return (\n            uint8(lending.nftStandard),\n            lending.lenderAddress,\n            lending.maxRentDuration,\n            lending.dailyRentPrice,\n            lending.lendAmount,\n            lending.availableAmount,\n            uint8(lending.paymentToken)\n        );\n    }\n\n    function getRenting(\n        address nftAddress,\n        uint256 tokenID,\n        uint256 _rentingID\n    )\n        external\n        view\n        returns (\n            address,\n            uint16,\n            uint8,\n            uint32\n        )\n    {\n        bytes32 identifier = keccak256(\n            abi.encodePacked(nftAddress, tokenID, _rentingID)\n        );\n        IRegistry.Renting storage renting = rentings[identifier];\n        return (\n            renting.renterAddress,\n            renting.rentAmount,\n            renting.rentDuration,\n            renting.rentedAt\n        );\n    }\n\n    //      .-.     .-.     .-.     .-.     .-.     .-.     .-.     .-.     .-.     .-.\n    // `._.'   `._.'   `._.'   `._.'   `._.'   `._.'   `._.'   `._.'   `._.'   `._.'   `._.'\n\n    function createLendCallData(\n        IRegistry.NFTStandard[] memory nftStandard,\n        address[] memory nftAddress,\n        uint256[] memory tokenID,\n        uint256[] memory lendAmount,\n        uint8[] memory maxRentDuration,\n        bytes4[] memory dailyRentPrice,\n        IResolver.PaymentToken[] memory paymentToken\n    ) private pure returns (CallData memory cd) {\n        cd = CallData({\n            left: 0,\n            right: 1,\n            nftStandard: nftStandard,\n            nftAddress: nftAddress,\n            tokenID: tokenID,\n            lendAmount: lendAmount,\n            lendingID: new uint256[](0),\n            rentingID: new uint256[](0),\n            rentDuration: new uint8[](0),\n            rentAmount: new uint256[](0),\n            maxRentDuration: maxRentDuration,\n            dailyRentPrice: dailyRentPrice,\n            paymentToken: paymentToken\n        });\n    }\n\n    function createRentCallData(\n        IRegistry.NFTStandard[] memory nftStandard,\n        address[] memory nftAddress,\n        uint256[] memory tokenID,\n        uint256[] memory _lendingID,\n        uint8[] memory rentDuration,\n        uint256[] memory rentAmount\n    ) private pure returns (CallData memory cd) {\n        cd = CallData({\n            left: 0,\n            right: 1,\n            nftStandard: nftStandard,\n            nftAddress: nftAddress,\n            tokenID: tokenID,\n            lendAmount: new uint256[](0),\n            lendingID: _lendingID,\n            rentingID: new uint256[](0),\n            rentDuration: rentDuration,\n            rentAmount: rentAmount,\n            maxRentDuration: new uint8[](0),\n            dailyRentPrice: new bytes4[](0),\n            paymentToken: new IResolver.PaymentToken[](0)\n        });\n    }\n\n    function createActionCallData(\n        IRegistry.NFTStandard[] memory nftStandard,\n        address[] memory nftAddress,\n        uint256[] memory tokenID,\n        uint256[] memory _lendingID,\n        uint256[] memory _rentingID\n    ) private pure returns (CallData memory cd) {\n        cd = CallData({\n            left: 0,\n            right: 1,\n            nftStandard: nftStandard,\n            nftAddress: nftAddress,\n            tokenID: tokenID,\n            lendAmount: new uint256[](0),\n            lendingID: _lendingID,\n            rentingID: _rentingID,\n            rentDuration: new uint8[](0),\n            rentAmount: new uint256[](0),\n            maxRentDuration: new uint8[](0),\n            dailyRentPrice: new bytes4[](0),\n            paymentToken: new IResolver.PaymentToken[](0)\n        });\n    }\n\n    function unpackPrice(bytes4 price, uint256 scale)\n        private\n        pure\n        returns (uint256)\n    {\n        ensureIsUnpackablePrice(price, scale);\n        uint16 whole = uint16(bytes2(price));\n        uint16 decimal = uint16(bytes2(price << 16));\n        uint256 decimalScale = scale / 10000;\n        if (whole > 9999) {\n            whole = 9999;\n        }\n        if (decimal > 9999) {\n            decimal = 9999;\n        }\n        uint256 w = whole * scale;\n        uint256 d = decimal * decimalScale;\n        uint256 fullPrice = w + d;\n        return fullPrice;\n    }\n\n    function sliceArr(\n        uint256[] memory arr,\n        uint256 fromIx,\n        uint256 toIx,\n        uint256 arrOffset\n    ) private pure returns (uint256[] memory r) {\n        r = new uint256[](toIx - fromIx);\n        for (uint256 i = fromIx; i < toIx; i++) {\n            r[i - fromIx] = arr[i - arrOffset];\n        }\n    }\n\n    //      .-.     .-.     .-.     .-.     .-.     .-.     .-.     .-.     .-.     .-.\n    // `._.'   `._.'   `._.'   `._.'   `._.'   `._.'   `._.'   `._.'   `._.'   `._.'   `._.'\n\n    function ensureIsNotZeroAddr(address addr) private pure {\n        require(addr != address(0), \"ReNFT::zero address\");\n    }\n\n    function ensureIsZeroAddr(address addr) private pure {\n        require(addr == address(0), \"ReNFT::not a zero address\");\n    }\n\n    function ensureIsNull(Lending memory lending) private pure {\n        ensureIsZeroAddr(lending.lenderAddress);\n        require(lending.maxRentDuration == 0, \"ReNFT::duration not zero\");\n        require(lending.dailyRentPrice == 0, \"ReNFT::rent price not zero\");\n    }\n\n    function ensureIsNotNull(Lending memory lending) private pure {\n        ensureIsNotZeroAddr(lending.lenderAddress);\n        require(lending.maxRentDuration != 0, \"ReNFT::duration zero\");\n        require(lending.dailyRentPrice != 0, \"ReNFT::rent price is zero\");\n    }\n\n    function ensureIsNull(Renting memory renting) private pure {\n        ensureIsZeroAddr(renting.renterAddress);\n        require(renting.rentDuration == 0, \"ReNFT::duration not zero\");\n        require(renting.rentedAt == 0, \"ReNFT::rented at not zero\");\n    }\n\n    function ensureIsNotNull(Renting memory renting) private pure {\n        ensureIsNotZeroAddr(renting.renterAddress);\n        require(renting.rentDuration != 0, \"ReNFT::duration is zero\");\n        require(renting.rentedAt != 0, \"ReNFT::rented at is zero\");\n    }\n\n    function ensureIsLendable(CallData memory cd, uint256 i) private pure {\n        require(cd.lendAmount[i] > 0, \"ReNFT::lend amount is zero\");\n        require(cd.lendAmount[i] <= type(uint16).max, \"ReNFT::not uint16\");\n        require(cd.maxRentDuration[i] > 0, \"ReNFT::duration is zero\");\n        require(cd.maxRentDuration[i] <= type(uint8).max, \"ReNFT::not uint8\");\n        require(uint32(cd.dailyRentPrice[i]) > 0, \"ReNFT::rent price is zero\");\n    }\n\n    function ensureIsRentable(\n        Lending memory lending,\n        CallData memory cd,\n        uint256 i,\n        address msgSender\n    ) private pure {\n        require(msgSender != lending.lenderAddress, \"ReNFT::cant rent own nft\");\n        require(cd.rentDuration[i] <= type(uint8).max, \"ReNFT::not uint8\");\n        require(cd.rentDuration[i] > 0, \"ReNFT::duration is zero\");\n        require(cd.rentAmount[i] <= type(uint16).max, \"ReNFT::not uint16\");\n        require(cd.rentAmount[i] > 0, \"ReNFT::rentAmount is zero\");\n        require(\n            cd.rentDuration[i] <= lending.maxRentDuration,\n            \"ReNFT::rent duration exceeds allowed max\"\n        );\n    }\n\n    function ensureIsReturnable(\n        Renting memory renting,\n        address msgSender,\n        uint256 blockTimestamp\n    ) private pure {\n        require(renting.renterAddress == msgSender, \"ReNFT::not renter\");\n        require(\n            !isPastReturnDate(renting, blockTimestamp),\n            \"ReNFT::past return date\"\n        );\n    }\n\n    function ensureIsStoppable(Lending memory lending, address msgSender)\n        private\n        pure\n    {\n        require(lending.lenderAddress == msgSender, \"ReNFT::not lender\");\n    }\n\n    function ensureIsUnpackablePrice(bytes4 price, uint256 scale) private pure {\n        require(uint32(price) > 0, \"ReNFT::invalid price\");\n        require(scale >= 10000, \"ReNFT::invalid scale\");\n    }\n\n    function ensureTokenNotSentinel(uint8 paymentIx) private pure {\n        require(paymentIx > 0, \"ReNFT::token is sentinel\");\n    }\n\n    function ensureIsClaimable(\n        IRegistry.Renting memory renting,\n        uint256 blockTimestamp\n    ) private pure {\n        require(\n            isPastReturnDate(renting, blockTimestamp),\n            \"ReNFT::return date not passed\"\n        );\n    }\n\n    function isPastReturnDate(Renting memory renting, uint256 nowTime)\n        private\n        pure\n        returns (bool)\n    {\n        require(nowTime > renting.rentedAt, \"ReNFT::now before rented\");\n        return\n            nowTime - renting.rentedAt > renting.rentDuration * SECONDS_IN_DAY;\n    }\n\n    //      .-.     .-.     .-.     .-.     .-.     .-.     .-.     .-.     .-.     .-.\n    // `._.'   `._.'   `._.'   `._.'   `._.'   `._.'   `._.'   `._.'   `._.'   `._.'   `._.'\n\n    function setRentFee(uint256 newRentFee) external onlyAdmin {\n        require(newRentFee < 10000, \"ReNFT::fee exceeds 100pct\");\n        rentFee = newRentFee;\n    }\n\n    function setBeneficiary(address payable newBeneficiary) external onlyAdmin {\n        beneficiary = newBeneficiary;\n    }\n\n    function setPaused(bool newPaused) external onlyAdmin {\n        paused = newPaused;\n    }\n}\n\n//              @@@@@@@@@@@@@@@@        ,@@@@@@@@@@@@@@@@\n//              @@@,,,,,,,,,,@@@        ,@@&,,,,,,,,,,@@@\n//         @@@@@@@@,,,,,,,,,,@@@@@@@@&  ,@@&,,,,,,,,,,@@@@@@@@\n//         @@@**********@@@@@@@@@@@@@&  ,@@@@@@@@**********@@@\n//         @@@**********@@@@@@@@@@@@@&  ,@@@@@@@@**********@@@@@@@@\n//         @@@**********@@@@@@@@@@@@@&       .@@@**********@@@@@@@@\n//    @@@@@@@@**********@@@@@@@@@@@@@&       .@@@**********@@@@@@@@\n//    @@@**********@@@@@@@@@@@@@&            .@@@@@@@@**********@@@\n//    @@@**********@@@@@@@@@@@@@&            .@@@@@@@@**********@@@@@@@@\n//    @@@@@@@@**********@@@@@@@@&            .@@@**********@@@@@@@@@@@@@\n//    @@@@@@@@//////////@@@@@@@@&            .@@@//////////@@@@@@@@@@@@@\n//         @@@//////////@@@@@@@@&            .@@@//////////@@@@@@@@@@@@@\n//         @@@//////////@@@@@@@@&       ,@@@@@@@@//////////@@@@@@@@@@@@@\n//         @@@%%%%%/////(((((@@@&       ,@@@(((((/////%%%%%@@@@@@@@\n//         @@@@@@@@//////////@@@@@@@@&  ,@@@//////////@@@@@@@@@@@@@\n//              @@@%%%%%%%%%%@@@@@@@@&  ,@@@%%%%%%%%%%@@@@@@@@@@@@@\n//              @@@@@@@@@@@@@@@@@@@@@&  ,@@@@@@@@@@@@@@@@@@@@@@@@@@\n//                   @@@@@@@@@@@@@@@@&        @@@@@@@@@@@@@@@@\n//                   @@@@@@@@@@@@@@@@&        @@@@@@@@@@@@@@@@\n",
  "sourcePath": "contracts/Registry.sol",
  "type": "contract"
}