{
  "abi": [
    {
      "inputs": [
        {
          "internalType": "address",
          "name": "newResolver",
          "type": "address"
        },
        {
          "internalType": "address payable",
          "name": "newBeneficiary",
          "type": "address"
        },
        {
          "internalType": "address",
          "name": "newAdmin",
          "type": "address"
        }
      ],
      "stateMutability": "nonpayable",
      "type": "constructor"
    },
    {
      "anonymous": false,
      "inputs": [
        {
          "indexed": false,
          "internalType": "bool",
          "name": "is721",
          "type": "bool"
        },
        {
          "indexed": true,
          "internalType": "address",
          "name": "lenderAddress",
          "type": "address"
        },
        {
          "indexed": true,
          "internalType": "address",
          "name": "nftAddress",
          "type": "address"
        },
        {
          "indexed": true,
          "internalType": "uint256",
          "name": "tokenID",
          "type": "uint256"
        },
        {
          "indexed": false,
          "internalType": "uint256",
          "name": "lendingID",
          "type": "uint256"
        },
        {
          "indexed": false,
          "internalType": "uint8",
          "name": "maxRentDuration",
          "type": "uint8"
        },
        {
          "indexed": false,
          "internalType": "bytes4",
          "name": "dailyRentPrice",
          "type": "bytes4"
        },
        {
          "indexed": false,
          "internalType": "uint16",
          "name": "lendAmount",
          "type": "uint16"
        },
        {
          "indexed": false,
          "internalType": "enum IResolver.PaymentToken",
          "name": "paymentToken",
          "type": "uint8"
        }
      ],
      "name": "Lend",
      "type": "event"
    },
    {
      "anonymous": false,
      "inputs": [
        {
          "indexed": true,
          "internalType": "address",
          "name": "renterAddress",
          "type": "address"
        },
        {
          "indexed": true,
          "internalType": "uint256",
          "name": "lendingID",
          "type": "uint256"
        },
        {
          "indexed": true,
          "internalType": "uint256",
          "name": "rentingID",
          "type": "uint256"
        },
        {
          "indexed": false,
          "internalType": "uint16",
          "name": "rentAmount",
          "type": "uint16"
        },
        {
          "indexed": false,
          "internalType": "uint8",
          "name": "rentDuration",
          "type": "uint8"
        },
        {
          "indexed": false,
          "internalType": "uint32",
          "name": "rentedAt",
          "type": "uint32"
        }
      ],
      "name": "Rent",
      "type": "event"
    },
    {
      "anonymous": false,
      "inputs": [
        {
          "indexed": true,
          "internalType": "uint256",
          "name": "lendingId",
          "type": "uint256"
        },
        {
          "indexed": false,
          "internalType": "uint32",
          "name": "collectedAt",
          "type": "uint32"
        }
      ],
      "name": "RentClaimed",
      "type": "event"
    },
    {
      "anonymous": false,
      "inputs": [
        {
          "indexed": true,
          "internalType": "uint256",
          "name": "lendingID",
          "type": "uint256"
        },
        {
          "indexed": false,
          "internalType": "uint32",
          "name": "stoppedAt",
          "type": "uint32"
        }
      ],
      "name": "StopLend",
      "type": "event"
    },
    {
      "anonymous": false,
      "inputs": [
        {
          "indexed": true,
          "internalType": "uint256",
          "name": "rentingID",
          "type": "uint256"
        },
        {
          "indexed": false,
          "internalType": "uint32",
          "name": "stoppedAt",
          "type": "uint32"
        }
      ],
      "name": "StopRent",
      "type": "event"
    },
    {
      "inputs": [
        {
          "internalType": "enum IRegistry.NFTStandard[]",
          "name": "nftStandard",
          "type": "uint8[]"
        },
        {
          "internalType": "address[]",
          "name": "nftAddress",
          "type": "address[]"
        },
        {
          "internalType": "uint256[]",
          "name": "tokenID",
          "type": "uint256[]"
        },
        {
          "internalType": "uint256[]",
          "name": "_lendingID",
          "type": "uint256[]"
        },
        {
          "internalType": "uint256[]",
          "name": "_rentingID",
          "type": "uint256[]"
        }
      ],
      "name": "claimRent",
      "outputs": [],
      "stateMutability": "nonpayable",
      "type": "function"
    },
    {
      "inputs": [
        {
          "internalType": "address",
          "name": "nftAddress",
          "type": "address"
        },
        {
          "internalType": "uint256",
          "name": "tokenID",
          "type": "uint256"
        },
        {
          "internalType": "uint256",
          "name": "_lendingID",
          "type": "uint256"
        }
      ],
      "name": "getLending",
      "outputs": [
        {
          "internalType": "uint8",
          "name": "",
          "type": "uint8"
        },
        {
          "internalType": "address",
          "name": "",
          "type": "address"
        },
        {
          "internalType": "uint8",
          "name": "",
          "type": "uint8"
        },
        {
          "internalType": "bytes4",
          "name": "",
          "type": "bytes4"
        },
        {
          "internalType": "uint16",
          "name": "",
          "type": "uint16"
        },
        {
          "internalType": "uint16",
          "name": "",
          "type": "uint16"
        },
        {
          "internalType": "uint8",
          "name": "",
          "type": "uint8"
        }
      ],
      "stateMutability": "view",
      "type": "function"
    },
    {
      "inputs": [
        {
          "internalType": "address",
          "name": "nftAddress",
          "type": "address"
        },
        {
          "internalType": "uint256",
          "name": "tokenID",
          "type": "uint256"
        },
        {
          "internalType": "uint256",
          "name": "_rentingID",
          "type": "uint256"
        }
      ],
      "name": "getRenting",
      "outputs": [
        {
          "internalType": "address",
          "name": "",
          "type": "address"
        },
        {
          "internalType": "uint16",
          "name": "",
          "type": "uint16"
        },
        {
          "internalType": "uint8",
          "name": "",
          "type": "uint8"
        },
        {
          "internalType": "uint32",
          "name": "",
          "type": "uint32"
        }
      ],
      "stateMutability": "view",
      "type": "function"
    },
    {
      "inputs": [
        {
          "internalType": "enum IRegistry.NFTStandard[]",
          "name": "nftStandard",
          "type": "uint8[]"
        },
        {
          "internalType": "address[]",
          "name": "nftAddress",
          "type": "address[]"
        },
        {
          "internalType": "uint256[]",
          "name": "tokenID",
          "type": "uint256[]"
        },
        {
          "internalType": "uint256[]",
          "name": "lendAmount",
          "type": "uint256[]"
        },
        {
          "internalType": "uint8[]",
          "name": "maxRentDuration",
          "type": "uint8[]"
        },
        {
          "internalType": "bytes4[]",
          "name": "dailyRentPrice",
          "type": "bytes4[]"
        },
        {
          "internalType": "enum IResolver.PaymentToken[]",
          "name": "paymentToken",
          "type": "uint8[]"
        }
      ],
      "name": "lend",
      "outputs": [],
      "stateMutability": "nonpayable",
      "type": "function"
    },
    {
      "inputs": [
        {
          "internalType": "address",
          "name": "",
          "type": "address"
        },
        {
          "internalType": "address",
          "name": "",
          "type": "address"
        },
        {
          "internalType": "uint256[]",
          "name": "",
          "type": "uint256[]"
        },
        {
          "internalType": "uint256[]",
          "name": "",
          "type": "uint256[]"
        },
        {
          "internalType": "bytes",
          "name": "",
          "type": "bytes"
        }
      ],
      "name": "onERC1155BatchReceived",
      "outputs": [
        {
          "internalType": "bytes4",
          "name": "",
          "type": "bytes4"
        }
      ],
      "stateMutability": "nonpayable",
      "type": "function"
    },
    {
      "inputs": [
        {
          "internalType": "address",
          "name": "",
          "type": "address"
        },
        {
          "internalType": "address",
          "name": "",
          "type": "address"
        },
        {
          "internalType": "uint256",
          "name": "",
          "type": "uint256"
        },
        {
          "internalType": "uint256",
          "name": "",
          "type": "uint256"
        },
        {
          "internalType": "bytes",
          "name": "",
          "type": "bytes"
        }
      ],
      "name": "onERC1155Received",
      "outputs": [
        {
          "internalType": "bytes4",
          "name": "",
          "type": "bytes4"
        }
      ],
      "stateMutability": "nonpayable",
      "type": "function"
    },
    {
      "inputs": [
        {
          "internalType": "address",
          "name": "",
          "type": "address"
        },
        {
          "internalType": "address",
          "name": "",
          "type": "address"
        },
        {
          "internalType": "uint256",
          "name": "",
          "type": "uint256"
        },
        {
          "internalType": "bytes",
          "name": "",
          "type": "bytes"
        }
      ],
      "name": "onERC721Received",
      "outputs": [
        {
          "internalType": "bytes4",
          "name": "",
          "type": "bytes4"
        }
      ],
      "stateMutability": "nonpayable",
      "type": "function"
    },
    {
      "inputs": [],
      "name": "paused",
      "outputs": [
        {
          "internalType": "bool",
          "name": "",
          "type": "bool"
        }
      ],
      "stateMutability": "view",
      "type": "function"
    },
    {
      "inputs": [
        {
          "internalType": "enum IRegistry.NFTStandard[]",
          "name": "nftStandard",
          "type": "uint8[]"
        },
        {
          "internalType": "address[]",
          "name": "nftAddress",
          "type": "address[]"
        },
        {
          "internalType": "uint256[]",
          "name": "tokenID",
          "type": "uint256[]"
        },
        {
          "internalType": "uint256[]",
          "name": "_lendingID",
          "type": "uint256[]"
        },
        {
          "internalType": "uint8[]",
          "name": "rentDuration",
          "type": "uint8[]"
        },
        {
          "internalType": "uint256[]",
          "name": "rentAmount",
          "type": "uint256[]"
        }
      ],
      "name": "rent",
      "outputs": [],
      "stateMutability": "payable",
      "type": "function"
    },
    {
      "inputs": [],
      "name": "rentFee",
      "outputs": [
        {
          "internalType": "uint256",
          "name": "",
          "type": "uint256"
        }
      ],
      "stateMutability": "view",
      "type": "function"
    },
    {
      "inputs": [
        {
          "internalType": "address payable",
          "name": "newBeneficiary",
          "type": "address"
        }
      ],
      "name": "setBeneficiary",
      "outputs": [],
      "stateMutability": "nonpayable",
      "type": "function"
    },
    {
      "inputs": [
        {
          "internalType": "bool",
          "name": "newPaused",
          "type": "bool"
        }
      ],
      "name": "setPaused",
      "outputs": [],
      "stateMutability": "nonpayable",
      "type": "function"
    },
    {
      "inputs": [
        {
          "internalType": "uint256",
          "name": "newRentFee",
          "type": "uint256"
        }
      ],
      "name": "setRentFee",
      "outputs": [],
      "stateMutability": "nonpayable",
      "type": "function"
    },
    {
      "inputs": [
        {
          "internalType": "enum IRegistry.NFTStandard[]",
          "name": "nftStandard",
          "type": "uint8[]"
        },
        {
          "internalType": "address[]",
          "name": "nftAddress",
          "type": "address[]"
        },
        {
          "internalType": "uint256[]",
          "name": "tokenID",
          "type": "uint256[]"
        },
        {
          "internalType": "uint256[]",
          "name": "_lendingID",
          "type": "uint256[]"
        }
      ],
      "name": "stopLend",
      "outputs": [],
      "stateMutability": "nonpayable",
      "type": "function"
    },
    {
      "inputs": [
        {
          "internalType": "enum IRegistry.NFTStandard[]",
          "name": "nftStandard",
          "type": "uint8[]"
        },
        {
          "internalType": "address[]",
          "name": "nftAddress",
          "type": "address[]"
        },
        {
          "internalType": "uint256[]",
          "name": "tokenID",
          "type": "uint256[]"
        },
        {
          "internalType": "uint256[]",
          "name": "_lendingID",
          "type": "uint256[]"
        },
        {
          "internalType": "uint256[]",
          "name": "_rentingID",
          "type": "uint256[]"
        }
      ],
      "name": "stopRent",
      "outputs": [],
      "stateMutability": "nonpayable",
      "type": "function"
    },
    {
      "inputs": [
        {
          "internalType": "bytes4",
          "name": "interfaceId",
          "type": "bytes4"
        }
      ],
      "name": "supportsInterface",
      "outputs": [
        {
          "internalType": "bool",
          "name": "",
          "type": "bool"
        }
      ],
      "stateMutability": "view",
      "type": "function"
    }
  ],
  "bytecode": "6080604052600160038190556004556005805460ff1916905560006006553480156200002a57600080fd5b5060405162004b1138038062004b118339810160408190526200004d916200010f565b6200005883620000b1565b6200006382620000b1565b6200006e81620000b1565b600080546001600160a01b039485166001600160a01b03199182161790915560028054938516938216939093179092556001805491909316911617905562000179565b6001600160a01b0381166200010c5760405162461bcd60e51b815260206004820152601360248201527f52654e46543a3a7a65726f206164647265737300000000000000000000000000604482015260640160405180910390fd5b50565b6000806000606084860312156200012557600080fd5b8351620001328162000163565b6020850151909350620001458162000163565b6040850151909250620001588162000163565b809150509250925092565b6001600160a01b03811681146200010c57600080fd5b61498880620001896000396000f3fe6080604052600436106100f35760003560e01c806376774ea31161008a578063c9c4018311610059578063c9c4018314610315578063cbe55e5414610335578063f23a6e6114610348578063fe46b7cd1461037457600080fd5b806376774ea314610285578063937821a1146102a5578063bc197c81146102c5578063bf2b23ea146102f157600080fd5b80631c31f710116100c65780631c31f710146101b35780631cbb410f146101d3578063296c21b7146101f35780635c975abb1461026b57600080fd5b806301ffc9a7146100f857806314b5685c1461012d578063150b7a021461014f57806316c38b3c14610193575b600080fd5b34801561010457600080fd5b506101186101133660046143aa565b6103cf565b60405190151581526020015b60405180910390f35b34801561013957600080fd5b5061014d61014836600461409e565b610406565b005b34801561015b57600080fd5b5061017a61016a366004613ef6565b630a85bd0160e11b949350505050565b6040516001600160e01b03199091168152602001610124565b34801561019f57600080fd5b5061014d6101ae366004614370565b610451565b3480156101bf57600080fd5b5061014d6101ce366004613e2c565b61048e565b3480156101df57600080fd5b5061014d6101ee366004614162565b6104da565b3480156101ff57600080fd5b5061021361020e366004613fc9565b61051b565b6040805160ff98891681526001600160a01b039097166020880152948716948601949094526001600160e01b0319909216606085015261ffff90811660808501521660a08301529190911660c082015260e001610124565b34801561027757600080fd5b506005546101189060ff1681565b34801561029157600080fd5b5061014d6102a03660046143c5565b6105f1565b3480156102b157600080fd5b5061014d6102c036600461409e565b610671565b3480156102d157600080fd5b5061017a6102e0366004613e49565b63bc197c8160e01b95945050505050565b3480156102fd57600080fd5b5061030760065481565b604051908152602001610124565b34801561032157600080fd5b5061014d610330366004613ffe565b6106a7565b61014d61034336600461427c565b61070e565b34801561035457600080fd5b5061017a610363366004613f61565b63f23a6e6160e01b95945050505050565b34801561038057600080fd5b5061039461038f366004613fc9565b61074d565b604080516001600160a01b03909516855261ffff909316602085015260ff9091169183019190915263ffffffff166060820152608001610124565b60006001600160e01b03198216630271189760e51b148061040057506301ffc9a760e01b6001600160e01b03198316145b92915050565b60055460ff16156104325760405162461bcd60e51b815260040161042990614639565b60405180910390fd5b61044a6107cb6104458787878787610d18565b610e9e565b5050505050565b6001546001600160a01b0316331461047b5760405162461bcd60e51b815260040161042990614660565b6005805460ff1916911515919091179055565b6001546001600160a01b031633146104b85760405162461bcd60e51b815260040161042990614660565b600280546001600160a01b0319166001600160a01b0392909216919091179055565b60055460ff16156104fd5760405162461bcd60e51b815260040161042990614639565b610512610fd361044589898989898989611578565b50505050505050565b6000806000806000806000808a8a8a60405160200161053c93929190614436565b60408051601f19818403018152918152815160209283012060008181526007909352912080549192509060ff16600181111561057a5761057a6148de565b81546001600160a01b036101008204169060ff600160a81b8204811691600160b01b810460e01b9161ffff600160d01b8304811692600160e01b810490911691600160f01b9091041660038111156105d4576105d46148de565b985098509850985098509850985050509397509397509397909450565b6001546001600160a01b0316331461061b5760405162461bcd60e51b815260040161042990614660565b612710811061066c5760405162461bcd60e51b815260206004820152601960248201527f52654e46543a3a666565206578636565647320313030706374000000000000006044820152606401610429565b600655565b60055460ff16156106945760405162461bcd60e51b815260040161042990614639565b61044a6116a86104458787878787610d18565b60055460ff16156106ca5760405162461bcd60e51b815260040161042990614639565b610708611aa9610445868686866000604051908082528060200260200182016040528015610702578160200160208202803683370190505b50610d18565b50505050565b60055460ff16156107315760405162461bcd60e51b815260040161042990614639565b610745611e766104458888888888886125cf565b505050505050565b600080600080600087878760405160200161076a93929190614436565b60408051808303601f190181529181528151602092830120600090815260089092529020546001600160a01b03811699600160c81b820461ffff169950600160a01b820460ff169850600160a81b90910463ffffffff169650945050505050565b80515b8160200151811015610d1457600082606001518360000151815181106107f6576107f66148f4565b602002602001015183608001518381518110610814576108146148f4565b60200260200101518461010001518481518110610833576108336148f4565b602002602001015160405160200161084d93929190614436565b60405160208183030381529060405280519060200120905060008360600151846000015181518110610881576108816148f4565b60200260200101518460800151848151811061089f5761089f6148f4565b602002602001015185610120015185815181106108be576108be6148f4565b60200260200101516040516020016108d893929190614436565b60408051601f198184030181528282528051602091820120600086815260078352838120828252600890935283902060e08501909352815490945090926109d9918490829060ff166001811115610931576109316148de565b6001811115610942576109426148de565b815281546001600160a01b03610100820416602083015260ff600160a81b8204811660408401526001600160e01b0319600160b01b830460e01b16606084015261ffff600160d01b830481166080850152600160e01b83041660a084015260c090920191600160f01b9091041660038111156109c0576109c06148de565b60038111156109d1576109d16148de565b9052506126f1565b6040805160808101825282546001600160a01b0381168252600160a01b810460ff166020830152600160a81b810463ffffffff1692820192909252600160c81b90910461ffff166060820152610a30903342612774565b815460ff166001811115610a4657610a466148de565b86604001518681518110610a5c57610a5c6148f4565b60200260200101516001811115610a7557610a756148de565b14610a925760405162461bcd60e51b81526004016104299061456a565b81548154600160d01b90910461ffff908116600160c81b909204161115610af35760405162461bcd60e51b81526020600482015260156024820152742932a7232a1d1d31b934ba34b1b0b61032b93937b960591b6044820152606401610429565b8054600090610b0f90600160a81b900463ffffffff164261486a565b6040805160e081019091528454919250610c30918590829060ff166001811115610b3b57610b3b6148de565b6001811115610b4c57610b4c6148de565b815281546001600160a01b03610100820416602083015260ff600160a81b8204811660408401526001600160e01b0319600160b01b830460e01b16606084015261ffff600160d01b830481166080850152600160e01b83041660a084015260c090920191600160f01b909104166003811115610bca57610bca6148de565b6003811115610bdb57610bdb6148de565b9052506040805160808101825285546001600160a01b0381168252600160a01b810460ff166020830152600160a81b810463ffffffff1692820192909252600160c81b90910461ffff16606082015283612824565b81546000868152600760205260409020805461ffff600160c81b909304831692601c91610c66918591600160e01b9004166146dd565b92506101000a81548161ffff021916908361ffff1602179055508661010001518681518110610c9757610c976148f4565b60200260200101517f58855dd8908b14c6d7922d964418f37efd968bc6b9b857560870b14a898f916d42604051610cda919063ffffffff91909116815260200190565b60405180910390a2505050600090815260086020526040902080546001600160d81b03191690555080610d0c816148ad565b9150506107ce565b5050565b610d20613a88565b604051806101a00160405280600081526020016001815260200187815260200186815260200185815260200160006001600160401b03811115610d6557610d6561490a565b604051908082528060200260200182016040528015610d8e578160200160208202803683370190505b5081526020016000604051908082528060200260200182016040528015610dbf578160200160208202803683370190505b5081526020016000604051908082528060200260200182016040528015610df0578160200160208202803683370190505b50815260208101859052604081018490526060016000604051908082528060200260200182016040528015610e2f578160200160208202803683370190505b5081526020016000604051908082528060200260200182016040528015610e60578160200160208202803683370190505b5081526020016000604051908082528060200260200182016040528015610e91578160200160208202803683370190505b5090529695505050505050565b600081606001515111610ee45760405162461bcd60e51b815260206004820152600e60248201526d52654e46543a3a6e6f206e66747360901b6044820152606401610429565b806060015151816020015114610fc6578060600151816020015181518110610f0e57610f0e6148f4565b60200260200101516001600160a01b03168160600151826000015181518110610f3957610f396148f4565b60200260200101516001600160a01b0316148015610f89575060018160400151826020015181518110610f6e57610f6e6148f4565b60200260200101516001811115610f8757610f876148de565b145b15610fa65760208101805190610f9e826148ad565b905250610ee4565b610fb3818363ffffffff16565b60208101805180835290610f9e826148ad565b610d14818363ffffffff16565b80515b816020015181101561153757610fec8282612ab6565b60008260600151836000015181518110611008576110086148f4565b602002602001015183608001518381518110611026576110266148f4565b602002602001015160035460405160200161104393929190614436565b60408051601f198184030181528282528051602091820120600081815260079092529082902060e084019092528154909350909161113b918390829060ff166001811115611093576110936148de565b60018111156110a4576110a46148de565b815281546001600160a01b03610100820416602083015260ff600160a81b8204811660408401526001600160e01b0319600160b01b830460e01b16606084015261ffff600160d01b830481166080850152600160e01b83041660a084015260c090920191600160f01b909104166003811115611122576111226148de565b6003811115611133576111336148de565b905250612c2c565b6111738461018001518481518110611155576111556148f4565b6020026020010151600381111561116e5761116e6148de565b612ce5565b6000808560400151858151811061118c5761118c6148f4565b602002602001015160018111156111a5576111a56148de565b1490506040518060e00160405280866040015186815181106111c9576111c96148f4565b602002602001015160018111156111e2576111e26148de565b8152602001336001600160a01b031681526020018660c00151868151811061120c5761120c6148f4565b602002602001015160ff1681526020018660e001518681518110611232576112326148f4565b60200260200101516001600160e01b031916815260200182611271578660a001518681518110611264576112646148f4565b6020026020010151611274565b60015b60ff168152602001826112a4578660a001518681518110611297576112976148f4565b60200260200101516112a7565b60015b60ff1661ffff16815260200186610180015186815181106112ca576112ca6148f4565b602002602001015160038111156112e3576112e36148de565b9052600084815260076020526040902081518154829060ff191660018381811115611310576113106148de565b02179055506020820151815460408401516060850151608086015160a0870151610100600160b01b03199094166101006001600160a01b039096169590950260ff60a81b191694909417600160a81b60ff909316929092029190911765ffffffffffff60b01b1916600160b01b60e09290921c9190910261ffff60d01b191617600160d01b61ffff938416021761ffff60e01b198116600160e01b9390921692909202908117835560c084015191839162ffffff60e01b1990911660ff60f01b1990911617600160f01b8360038111156113ec576113ec6148de565b02179055509050508460800151848151811061140a5761140a6148f4565b6020026020010151856060015186600001518151811061142c5761142c6148f4565b60200260200101516001600160a01b0316336001600160a01b03167f46e173c7568bb4f093e16923381dcba2a6b48f9cc9e688867965731218500ad3846003548a60c001518a81518110611482576114826148f4565b60200260200101518b60e001518b815181106114a0576114a06148f4565b6020026020010151886114d0578c60a001518c815181106114c3576114c36148f4565b60200260200101516114d3565b60015b8d61018001518d815181106114ea576114ea6148f4565b6020026020010151604051611504969594939291906144d7565b60405180910390a46003805490600061151c836148ad565b9190505550505050808061152f906148ad565b915050610fd6565b506115758133306115578560800151866000015187602001516000612d38565b6115708660a00151876000015188602001516000612d38565b612df7565b50565b611580613a88565b604051806101a00160405280600081526020016001815260200189815260200188815260200187815260200186815260200185815260200184815260200160006001600160401b038111156115d7576115d761490a565b604051908082528060200260200182016040528015611600578160200160208202803683370190505b5081526020016000604051908082528060200260200182016040528015611631578160200160208202803683370190505b5081526020016000604051908082528060200260200182016040528015611662578160200160208202803683370190505b5081526020016000604051908082528060200260200182016040528015611693578160200160208202803683370190505b50815260200192909252509695505050505050565b80515b8160200151811015610d1457600082606001518360000151815181106116d3576116d36148f4565b6020026020010151836080015183815181106116f1576116f16148f4565b60200260200101518461010001518481518110611710576117106148f4565b602002602001015160405160200161172a93929190614436565b6040516020818303038152906040528051906020012090506000836060015184600001518151811061175e5761175e6148f4565b60200260200101518460800151848151811061177c5761177c6148f4565b6020026020010151856101200151858151811061179b5761179b6148f4565b60200260200101516040516020016117b593929190614436565b60408051601f198184030181528282528051602091820120600086815260078352838120828252600890935283902060e085019093528154909450909261180e918490829060ff166001811115610931576109316148de565b6040805160808101825282546001600160a01b0381168252600160a01b810460ff166020830152600160a81b810463ffffffff1692820192909252600160c81b90910461ffff16606082015261186390612f78565b6040805160808101825282546001600160a01b0381168252600160a01b810460ff166020830152600160a81b810463ffffffff1692820192909252600160c81b90910461ffff1660608201526118b99042612ffe565b6040805160e0810190915282546119d791908490829060ff1660018111156118e3576118e36148de565b60018111156118f4576118f46148de565b815281546001600160a01b03610100820416602083015260ff600160a81b8204811660408401526001600160e01b0319600160b01b830460e01b16606084015261ffff600160d01b830481166080850152600160e01b83041660a084015260c090920191600160f01b909104166003811115611972576119726148de565b6003811115611983576119836148de565b9052506040805160808101825284546001600160a01b0381168252600160a01b810460ff166020830152600160a81b810463ffffffff1692820192909252600160c81b90910461ffff166060820152613054565b85610100015185815181106119ee576119ee6148f4565b60200260200101517f4630b53a4335803b2a4f9c1ce896f4cadbf909907810e496eda17614483d7b9442604051611a31919063ffffffff91909116815260200190565b60405180910390a280548254611a5c9161ffff600160c81b909104811691600160e01b9004166146dd565b825461ffff91909116600160e01b0261ffff60e01b199091161790915550600090815260086020526040902080546001600160d81b03191690555080611aa1816148ad565b9150506116ab565b80516020820151600091611abc9161486a565b6001600160401b03811115611ad357611ad361490a565b604051908082528060200260200182016040528015611afc578160200160208202803683370190505b5082519091506000905b8360200151811015611e3e5760008460600151856000015181518110611b2e57611b2e6148f4565b602002602001015185608001518381518110611b4c57611b4c6148f4565b60200260200101518661010001518481518110611b6b57611b6b6148f4565b6020026020010151604051602001611b8593929190614436565b60408051601f19818403018152918152815160209283012060008181526007909352912080549192509060ff166001811115611bc357611bc36148de565b86604001518481518110611bd957611bd96148f4565b60200260200101516001811115611bf257611bf26148de565b14611c0f5760405162461bcd60e51b81526004016104299061456a565b8054600160d01b810461ffff908116600160e01b9092041614611c6d5760405162461bcd60e51b815260206004820152601660248201527514995391950e8e9858dd1a5d995b1e481c995b9d195960521b6044820152606401610429565b6040805160e081019091528154611c9791908390829060ff166001811115610931576109316148de565b6040805160e081019091528154611d6a91908390829060ff166001811115611cc157611cc16148de565b6001811115611cd257611cd26148de565b815281546001600160a01b03610100820416602083015260ff600160a81b8204811660408401526001600160e01b0319600160b01b830460e01b16606084015261ffff600160d01b830481166080850152600160e01b83041660a084015260c090920191600160f01b909104166003811115611d5057611d506148de565b6003811115611d6157611d616148de565b905250336131f3565b80548651600160d01b90910461ffff16908690611d87908661486a565b81518110611d9757611d976148f4565b60209081029190910101528054610100870151805160ff90921695509084908110611dc457611dc46148f4565b60200260200101517fd0234bc8dd7e933f60cbc1e90fc139a8a9683af1cb92743607dafb9dfb70059b42604051611e07919063ffffffff91909116815260200190565b60405180910390a250600090815260076020526040902080546001600160f81b031916905580611e36816148ad565b915050611b06565b50611e71833033611e5e8760800151886000015189602001516000612d38565b8751602089015161157091899181612d38565b505050565b80515b8160200151811015610d145760008260600151836000015181518110611ea157611ea16148f4565b602002602001015183608001518381518110611ebf57611ebf6148f4565b60200260200101518461010001518481518110611ede57611ede6148f4565b6020026020010151604051602001611ef893929190614436565b60405160208183030381529060405280519060200120905060008360600151846000015181518110611f2c57611f2c6148f4565b602002602001015184608001518481518110611f4a57611f4a6148f4565b6020026020010151600454604051602001611f6793929190614436565b60408051601f198184030181528282528051602091820120600086815260078352838120828252600890935283902060e0850190935281549094509092611fc0918490829060ff166001811115610931576109316148de565b6040805160808101825282546001600160a01b0381168252600160a01b810460ff166020830152600160a81b810463ffffffff1692820192909252600160c81b90910461ffff1660608201526120159061324c565b6040805160e0810190915282546120ea91908490829060ff16600181111561203f5761203f6148de565b6001811115612050576120506148de565b815281546001600160a01b03610100820416602083015260ff600160a81b8204811660408401526001600160e01b0319600160b01b830460e01b16606084015261ffff600160d01b830481166080850152600160e01b83041660a084015260c090920191600160f01b9091041660038111156120ce576120ce6148de565b60038111156120df576120df6148de565b9052508787336132ff565b815460ff166001811115612100576121006148de565b86604001518681518110612116576121166148f4565b6020026020010151600181111561212f5761212f6148de565b1461214c5760405162461bcd60e51b81526004016104299061456a565b81546101608701518051600160e01b90920461ffff169187908110612173576121736148f4565b602002602001015111156121c95760405162461bcd60e51b815260206004820152601a60248201527f52654e46543a3a696e76616c69642072656e7420616d6f756e740000000000006044820152606401610429565b8154600090600160f01b900460ff1660038111156121e9576121e96148de565b6000805460405163c6ee427f60e01b815260ff8416600482015292935090916001600160a01b039091169063c6ee427f9060240160206040518083038186803b15801561223557600080fd5b505afa158015612249573d6000803e3d6000fd5b505050506040513d601f19601f8201168201806040525081019061226d9190613e0f565b90506000816001600160a01b031663313ce5676040518163ffffffff1660e01b815260040160206040518083038186803b1580156122aa57600080fd5b505afa1580156122be573d6000803e3d6000fd5b505050506040513d601f19601f820116820180604052508101906122e291906143de565b60ff16905060006122f482600a614780565b865490915060009061231090600160b01b900460e01b83613473565b8b61014001518b81518110612327576123276148f4565b602002602001015160ff1661233c9190614828565b90506000811161235e5760405162461bcd60e51b8152600401610429906145d8565b6123736001600160a01b038516333084613502565b50506040518060800160405280336001600160a01b031681526020018a61014001518a815181106123a6576123a66148f4565b602002602001015160ff1681526020014263ffffffff1681526020018a61016001518a815181106123d9576123d96148f4565b60209081029190910181015160ff90811690925260008981526008825260409081902084518154938601519286015160609096015161ffff16600160c81b0261ffff60c81b1963ffffffff909716600160a81b029690961665ffffffffffff60a81b1993909516600160a01b026001600160a81b03199094166001600160a01b0390911617929092171691909117919091179055610160890151805189908110612485576124856148f4565b602002602001015160ff1660076000898152602001908152602001600020600001601c8282829054906101000a900461ffff166124c29190614847565b92506101000a81548161ffff021916908361ffff16021790555060045489610100015189815181106124f6576124f66148f4565b6020026020010151336001600160a01b03167f61e1a1e6f89eaba4ba0119b0023bd32b1bb0412ab96ccd8d0588a3e98a0976318c61016001518c81518110612540576125406148f4565b60200260200101518d61014001518d8151811061255f5761255f6148f4565b6020908102919091018101518a546040805160ff95861681529490921692840192909252600160a81b90910463ffffffff169082015260600160405180910390a4600480549060006125b0836148ad565b91905055505050505050505080806125c7906148ad565b915050611e79565b6125d7613a88565b604051806101a00160405280600081526020016001815260200188815260200187815260200186815260200160006001600160401b0381111561261c5761261c61490a565b604051908082528060200260200182016040528015612645578160200160208202803683370190505b5081526020016000604051908082528060200260200182016040528015612676578160200160208202803683370190505b50815260200160006040519080825280602002602001820160405280156126a7578160200160208202803683370190505b5081526020808201969096526040805160008082528189018352828401919091526060830196909652608082019490945283519485529484019092525060a0909201529392505050565b6126fe816020015161356d565b604081015160ff166127495760405162461bcd60e51b815260206004820152601460248201527352654e46543a3a6475726174696f6e207a65726f60601b6044820152606401610429565b60608101516001600160e01b0319166115755760405162461bcd60e51b8152600401610429906145d8565b816001600160a01b031683600001516001600160a01b0316146127cd5760405162461bcd60e51b81526020600482015260116024820152702932a7232a1d1d3737ba103932b73a32b960791b6044820152606401610429565b6127d783826135b9565b15611e715760405162461bcd60e51b815260206004820152601760248201527f52654e46543a3a706173742072657475726e20646174650000000000000000006044820152606401610429565b60008360c00151600381111561283c5761283c6148de565b6000805460405163c6ee427f60e01b815260ff8416600482015292935090916001600160a01b039091169063c6ee427f9060240160206040518083038186803b15801561288857600080fd5b505afa15801561289c573d6000803e3d6000fd5b505050506040513d601f19601f820116820180604052508101906128c09190613e0f565b90506000816001600160a01b031663313ce5676040518163ffffffff1660e01b815260040160206040518083038186803b1580156128fd57600080fd5b505afa158015612911573d6000803e3d6000fd5b505050506040513d601f19601f8201168201806040525081019061293591906143de565b60ff169050600061294782600a614780565b90506000612959886060015183613473565b90506000876020015160ff16826129709190614828565b9050600062015180612982848a614828565b61298c919061471b565b9050600082116129ea5760405162461bcd60e51b815260206004820152602360248201527f52654e46543a3a746f74616c2072656e746572207061796d656e74206973207a60448201526265726f60e81b6064820152608401610429565b60008111612a3a5760405162461bcd60e51b815260206004820152601d60248201527f52654e46543a3a6c656e646572207061796d656e74206973207a65726f0000006044820152606401610429565b6000612a46828461486a565b9050600654600014612a72576000612a62838d60c00151613647565b9050612a6e818461486a565b9250505b60208b0151612a8c906001600160a01b0389169084613724565b8015612aa9578951612aa9906001600160a01b0389169083613724565b5050505050505050505050565b60008260a001518281518110612ace57612ace6148f4565b602002602001015111612b235760405162461bcd60e51b815260206004820152601a60248201527f52654e46543a3a6c656e6420616d6f756e74206973207a65726f0000000000006044820152606401610429565b60ff80168260a001518281518110612b3d57612b3d6148f4565b60200260200101511115612b635760405162461bcd60e51b81526004016104299061460f565b60008260c001518281518110612b7b57612b7b6148f4565b602002602001015160ff1611612ba35760405162461bcd60e51b8152600401610429906145a1565b60ff80168260c001518281518110612bbd57612bbd6148f4565b602002602001015160ff161115612be65760405162461bcd60e51b81526004016104299061460f565b60008260e001518281518110612bfe57612bfe6148f4565b602002602001015160e01c63ffffffff1611610d145760405162461bcd60e51b8152600401610429906145d8565b612c398160200151613754565b604081015160ff1615612c895760405162461bcd60e51b815260206004820152601860248201527752654e46543a3a6475726174696f6e206e6f74207a65726f60401b6044820152606401610429565b60608101516001600160e01b031916156115755760405162461bcd60e51b815260206004820152601a60248201527f52654e46543a3a72656e74207072696365206e6f74207a65726f0000000000006044820152606401610429565b60008160ff16116115755760405162461bcd60e51b815260206004820152601860248201527f52654e46543a3a746f6b656e2069732073656e74696e656c00000000000000006044820152606401610429565b6060612d44848461486a565b6001600160401b03811115612d5b57612d5b61490a565b604051908082528060200260200182016040528015612d84578160200160208202803683370190505b509050835b83811015612dee5785612d9c848361486a565b81518110612dac57612dac6148f4565b6020026020010151828683612dc1919061486a565b81518110612dd157612dd16148f4565b602090810291909101015280612de6816148ad565b915050612d89565b50949350505050565b60006040860151865181518110612e1057612e106148f4565b60200260200101516001811115612e2957612e296148de565b1415612eef576060850151855181518110612e4657612e466148f4565b60200260200101516001600160a01b03166323b872dd85858860800151896000015181518110612e7857612e786148f4565b60209081029190910101516040516001600160e01b031960e086901b1681526001600160a01b0393841660048201529290911660248301526044820152606401600060405180830381600087803b158015612ed257600080fd5b505af1158015612ee6573d6000803e3d6000fd5b5050505061044a565b6060850151855181518110612f0657612f066148f4565b60200260200101516001600160a01b0316632eb2c2d6858585856040518563ffffffff1660e01b8152600401612f3f949392919061447c565b600060405180830381600087803b158015612f5957600080fd5b505af1158015612f6d573d6000803e3d6000fd5b505050505050505050565b8051612f839061356d565b602081015160ff16612fa75760405162461bcd60e51b8152600401610429906145a1565b604081015163ffffffff166115755760405162461bcd60e51b815260206004820152601860248201527f52654e46543a3a72656e746564206174206973207a65726f00000000000000006044820152606401610429565b61300882826135b9565b610d145760405162461bcd60e51b815260206004820152601d60248201527f52654e46543a3a72657475726e2064617465206e6f74207061737365640000006044820152606401610429565b60008260c00151600381111561306c5761306c6148de565b6000805460405163c6ee427f60e01b815260ff8416600482015292935090916001600160a01b039091169063c6ee427f9060240160206040518083038186803b1580156130b857600080fd5b505afa1580156130cc573d6000803e3d6000fd5b505050506040513d601f19601f820116820180604052508101906130f09190613e0f565b90506000816001600160a01b031663313ce5676040518163ffffffff1660e01b815260040160206040518083038186803b15801561312d57600080fd5b505afa158015613141573d6000803e3d6000fd5b505050506040513d601f19601f8201168201806040525081019061316591906143de565b60ff169050600061317782600a614780565b90506000613189876060015183613473565b90506000866020015160ff16826131a09190614828565b905060006006546000146131cf576131cc828860ff1660038111156131c7576131c76148de565b613647565b90505b6020890151612f6d906131e2838561486a565b6001600160a01b0389169190613724565b806001600160a01b031682602001516001600160a01b031614610d145760405162461bcd60e51b81526020600482015260116024820152702932a7232a1d1d3737ba103632b73232b960791b6044820152606401610429565b805161325790613754565b602081015160ff16156132a75760405162461bcd60e51b815260206004820152601860248201527752654e46543a3a6475726174696f6e206e6f74207a65726f60401b6044820152606401610429565b604081015163ffffffff16156115755760405162461bcd60e51b815260206004820152601960248201527f52654e46543a3a72656e746564206174206e6f74207a65726f000000000000006044820152606401610429565b83602001516001600160a01b0316816001600160a01b031614156133655760405162461bcd60e51b815260206004820152601860248201527f52654e46543a3a63616e742072656e74206f776e206e667400000000000000006044820152606401610429565b60ff80168361014001518381518110613380576133806148f4565b602002602001015160ff1611156133a95760405162461bcd60e51b81526004016104299061460f565b600083610140015183815181106133c2576133c26148f4565b602002602001015160ff16116133ea5760405162461bcd60e51b8152600401610429906145a1565b836040015160ff168361014001518381518110613409576134096148f4565b602002602001015160ff1611156107085760405162461bcd60e51b815260206004820152602860248201527f52654e46543a3a72656e74206475726174696f6e206578636565647320616c6c6044820152670deeecac840dac2f60c31b6064820152608401610429565b600061347f83836137ab565b60f083901c61ffff60e085901c16600061349b6127108661471b565b905061270f8361ffff1611156134b15761270f92505b61270f8261ffff1611156134c55761270f91505b60006134d58661ffff8616614828565b905060006134e78361ffff8616614828565b905060006134f58284614703565b9998505050505050505050565b6040516001600160a01b03808516602483015283166044820152606481018290526107089085906323b872dd60e01b906084015b60408051601f198184030181529190526020810180516001600160e01b03166001600160e01b03199093169290921790915261383c565b6001600160a01b0381166115755760405162461bcd60e51b815260206004820152601360248201527252654e46543a3a7a65726f206164647265737360681b6044820152606401610429565b6000826040015163ffffffff1682116136145760405162461bcd60e51b815260206004820152601860248201527f52654e46543a3a6e6f77206265666f72652072656e74656400000000000000006044820152606401610429565b62015180836020015160ff1661362a9190614828565b604084015161363f9063ffffffff168461486a565b119392505050565b6000600654836136579190614828565b90506136656127108261471b565b9050600082600381111561367b5761367b6148de565b6000805460405163c6ee427f60e01b815260ff8416600482015292935090916001600160a01b039091169063c6ee427f9060240160206040518083038186803b1580156136c757600080fd5b505afa1580156136db573d6000803e3d6000fd5b505050506040513d601f19601f820116820180604052508101906136ff9190613e0f565b60025490915061371c906001600160a01b03808416911685613724565b505092915050565b6040516001600160a01b038316602482015260448101829052611e7190849063a9059cbb60e01b90606401613536565b6001600160a01b038116156115755760405162461bcd60e51b815260206004820152601960248201527f52654e46543a3a6e6f742061207a65726f2061646472657373000000000000006044820152606401610429565b60e082901c6137f35760405162461bcd60e51b815260206004820152601460248201527352654e46543a3a696e76616c696420707269636560601b6044820152606401610429565b612710811015610d145760405162461bcd60e51b815260206004820152601460248201527352654e46543a3a696e76616c6964207363616c6560601b6044820152606401610429565b6000613891826040518060400160405280602081526020017f5361666545524332303a206c6f772d6c6576656c2063616c6c206661696c6564815250856001600160a01b031661390e9092919063ffffffff16565b805190915015611e7157808060200190518101906138af919061438d565b611e715760405162461bcd60e51b815260206004820152602a60248201527f5361666545524332303a204552433230206f7065726174696f6e20646964206e6044820152691bdd081cdd58d8d9595960b21b6064820152608401610429565b606061391d8484600085613927565b90505b9392505050565b6060824710156139885760405162461bcd60e51b815260206004820152602660248201527f416464726573733a20696e73756666696369656e742062616c616e636520666f6044820152651c8818d85b1b60d21b6064820152608401610429565b843b6139d65760405162461bcd60e51b815260206004820152601d60248201527f416464726573733a2063616c6c20746f206e6f6e2d636f6e74726163740000006044820152606401610429565b600080866001600160a01b031685876040516139f29190614460565b60006040518083038185875af1925050503d8060008114613a2f576040519150601f19603f3d011682016040523d82523d6000602084013e613a34565b606091505b5091509150613a44828286613a4f565b979650505050505050565b60608315613a5e575081613920565b825115613a6e5782518084602001fd5b8160405162461bcd60e51b81526004016104299190614537565b604051806101a00160405280600081526020016000815260200160608152602001606081526020016060815260200160608152602001606081526020016060815260200160608152602001606081526020016060815260200160608152602001606081525090565b600082601f830112613b0157600080fd5b81356020613b16613b11836146ba565b61468a565b80838252828201915082860187848660051b8901011115613b3657600080fd5b60005b85811015613b5e578135613b4c81614920565b84529284019290840190600101613b39565b5090979650505050505050565b600082601f830112613b7c57600080fd5b81356020613b8c613b11836146ba565b80838252828201915082860187848660051b8901011115613bac57600080fd5b60005b85811015613b5e57613bc082613d83565b84529284019290840190600101613baf565b600082601f830112613be357600080fd5b81356020613bf3613b11836146ba565b80838252828201915082860187848660051b8901011115613c1357600080fd5b6000805b86811015613c3f57823560028110613c2d578283fd5b85529385019391850191600101613c17565b509198975050505050505050565b600082601f830112613c5e57600080fd5b81356020613c6e613b11836146ba565b80838252828201915082860187848660051b8901011115613c8e57600080fd5b6000805b86811015613c3f57823560048110613ca8578283fd5b85529385019391850191600101613c92565b600082601f830112613ccb57600080fd5b81356020613cdb613b11836146ba565b80838252828201915082860187848660051b8901011115613cfb57600080fd5b60005b85811015613b5e57813584529284019290840190600101613cfe565b600082601f830112613d2b57600080fd5b81356020613d3b613b11836146ba565b80838252828201915082860187848660051b8901011115613d5b57600080fd5b60005b85811015613b5e578135613d7181614943565b84529284019290840190600101613d5e565b80356001600160e01b031981168114613d9b57600080fd5b919050565b600082601f830112613db157600080fd5b81356001600160401b03811115613dca57613dca61490a565b613ddd601f8201601f191660200161468a565b818152846020838601011115613df257600080fd5b816020850160208301376000918101602001919091529392505050565b600060208284031215613e2157600080fd5b815161392081614920565b600060208284031215613e3e57600080fd5b813561392081614920565b600080600080600060a08688031215613e6157600080fd5b8535613e6c81614920565b94506020860135613e7c81614920565b935060408601356001600160401b0380821115613e9857600080fd5b613ea489838a01613cba565b94506060880135915080821115613eba57600080fd5b613ec689838a01613cba565b93506080880135915080821115613edc57600080fd5b50613ee988828901613da0565b9150509295509295909350565b60008060008060808587031215613f0c57600080fd5b8435613f1781614920565b93506020850135613f2781614920565b92506040850135915060608501356001600160401b03811115613f4957600080fd5b613f5587828801613da0565b91505092959194509250565b600080600080600060a08688031215613f7957600080fd5b8535613f8481614920565b94506020860135613f9481614920565b9350604086013592506060860135915060808601356001600160401b03811115613fbd57600080fd5b613ee988828901613da0565b600080600060608486031215613fde57600080fd5b8335613fe981614920565b95602085013595506040909401359392505050565b6000806000806080858703121561401457600080fd5b84356001600160401b038082111561402b57600080fd5b61403788838901613bd2565b9550602087013591508082111561404d57600080fd5b61405988838901613af0565b9450604087013591508082111561406f57600080fd5b61407b88838901613cba565b9350606087013591508082111561409157600080fd5b50613f5587828801613cba565b600080600080600060a086880312156140b657600080fd5b85356001600160401b03808211156140cd57600080fd5b6140d989838a01613bd2565b965060208801359150808211156140ef57600080fd5b6140fb89838a01613af0565b9550604088013591508082111561411157600080fd5b61411d89838a01613cba565b9450606088013591508082111561413357600080fd5b61413f89838a01613cba565b9350608088013591508082111561415557600080fd5b50613ee988828901613cba565b600080600080600080600060e0888a03121561417d57600080fd5b87356001600160401b038082111561419457600080fd5b6141a08b838c01613bd2565b985060208a01359150808211156141b657600080fd5b6141c28b838c01613af0565b975060408a01359150808211156141d857600080fd5b6141e48b838c01613cba565b965060608a01359150808211156141fa57600080fd5b6142068b838c01613cba565b955060808a013591508082111561421c57600080fd5b6142288b838c01613d1a565b945060a08a013591508082111561423e57600080fd5b61424a8b838c01613b6b565b935060c08a013591508082111561426057600080fd5b5061426d8a828b01613c4d565b91505092959891949750929550565b60008060008060008060c0878903121561429557600080fd5b86356001600160401b03808211156142ac57600080fd5b6142b88a838b01613bd2565b975060208901359150808211156142ce57600080fd5b6142da8a838b01613af0565b965060408901359150808211156142f057600080fd5b6142fc8a838b01613cba565b9550606089013591508082111561431257600080fd5b61431e8a838b01613cba565b9450608089013591508082111561433457600080fd5b6143408a838b01613d1a565b935060a089013591508082111561435657600080fd5b5061436389828a01613cba565b9150509295509295509295565b60006020828403121561438257600080fd5b813561392081614935565b60006020828403121561439f57600080fd5b815161392081614935565b6000602082840312156143bc57600080fd5b61392082613d83565b6000602082840312156143d757600080fd5b5035919050565b6000602082840312156143f057600080fd5b815161392081614943565b600081518084526020808501945080840160005b8381101561442b5781518752958201959082019060010161440f565b509495945050505050565b60609390931b6bffffffffffffffffffffffff191683526014830191909152603482015260540190565b60008251614472818460208701614881565b9190910192915050565b6001600160a01b0385811682528416602082015260a0604082018190526000906144a8908301856143fb565b82810360608401526144ba81856143fb565b838103608090940193909352505060008152602001949350505050565b86151581526020810186905260ff85811660408301526001600160e01b0319851660608301528316608082015260c081016004831061452657634e487b7160e01b600052602160045260246000fd5b8260a0830152979650505050505050565b6020815260008251806020840152614556816040850160208701614881565b601f01601f19169190910160400192915050565b6020808252601b908201527f52654e46543a3a696e76616c6964206e6674207374616e646172640000000000604082015260600190565b60208082526017908201527f52654e46543a3a6475726174696f6e206973207a65726f000000000000000000604082015260600190565b60208082526019908201527f52654e46543a3a72656e74207072696365206973207a65726f00000000000000604082015260600190565b60208082526010908201526f0a4ca9c8ca87474dcdee840ead2dce8760831b604082015260600190565b6020808252600d908201526c14995391950e8e9c185d5cd959609a1b604082015260600190565b60208082526010908201526f2932a7232a1d1d3737ba1030b236b4b760811b604082015260600190565b604051601f8201601f191681016001600160401b03811182821017156146b2576146b261490a565b604052919050565b60006001600160401b038211156146d3576146d361490a565b5060051b60200190565b600061ffff8083168185168083038211156146fa576146fa6148c8565b01949350505050565b60008219821115614716576147166148c8565b500190565b60008261473857634e487b7160e01b600052601260045260246000fd5b500490565b600181815b8085111561477857816000190482111561475e5761475e6148c8565b8085161561476b57918102915b93841c9390800290614742565b509250929050565b6000613920838360008261479657506001610400565b816147a357506000610400565b81600181146147b957600281146147c3576147df565b6001915050610400565b60ff8411156147d4576147d46148c8565b50506001821b610400565b5060208310610133831016604e8410600b8410161715614802575081810a610400565b61480c838361473d565b8060001904821115614820576148206148c8565b029392505050565b6000816000190483118215151615614842576148426148c8565b500290565b600061ffff83811690831681811015614862576148626148c8565b039392505050565b60008282101561487c5761487c6148c8565b500390565b60005b8381101561489c578181015183820152602001614884565b838111156107085750506000910152565b60006000198214156148c1576148c16148c8565b5060010190565b634e487b7160e01b600052601160045260246000fd5b634e487b7160e01b600052602160045260246000fd5b634e487b7160e01b600052603260045260246000fd5b634e487b7160e01b600052604160045260246000fd5b6001600160a01b038116811461157557600080fd5b801515811461157557600080fd5b60ff8116811461157557600080fdfea2646970667358221220d661644cc96eb97c0e638b3c2a113476b9d8f764b5196db7330b5999ad0e7b6b64736f6c63430008070033",
  "bytecodeSha1": "7f0dca0c030ba088a9414c8c7d4a9392ed4edfe2",
  "compiler": {
    "evm_version": "istanbul",
    "optimizer": {
      "enabled": true,
      "runs": 200
    },
    "version": "0.8.7+commit.e28d00a7"
  },
  "contractName": "Registry",
  "language": "Solidity",
  "natspec": {
    "kind": "dev",
    "methods": {
      "onERC721Received(address,address,uint256,bytes)": {
        "details": "See {IERC721Receiver-onERC721Received}. Always returns `IERC721Receiver.onERC721Received.selector`."
      },
      "supportsInterface(bytes4)": {
        "details": "See {IERC165-supportsInterface}."
      }
    },
    "version": 1
  },
  "opcodes": "PUSH1 0x80 PUSH1 0x40 MSTORE PUSH1 0x4 CALLDATASIZE LT PUSH2 0xF3 JUMPI PUSH1 0x0 CALLDATALOAD PUSH1 0xE0 SHR DUP1 PUSH4 0x76774EA3 GT PUSH2 0x8A JUMPI DUP1 PUSH4 0xC9C40183 GT PUSH2 0x59 JUMPI DUP1 PUSH4 0xC9C40183 EQ PUSH2 0x315 JUMPI DUP1 PUSH4 0xCBE55E54 EQ PUSH2 0x335 JUMPI DUP1 PUSH4 0xF23A6E61 EQ PUSH2 0x348 JUMPI DUP1 PUSH4 0xFE46B7CD EQ PUSH2 0x374 JUMPI PUSH1 0x0 DUP1 REVERT JUMPDEST DUP1 PUSH4 0x76774EA3 EQ PUSH2 0x285 JUMPI DUP1 PUSH4 0x937821A1 EQ PUSH2 0x2A5 JUMPI DUP1 PUSH4 0xBC197C81 EQ PUSH2 0x2C5 JUMPI DUP1 PUSH4 0xBF2B23EA EQ PUSH2 0x2F1 JUMPI PUSH1 0x0 DUP1 REVERT JUMPDEST DUP1 PUSH4 0x1C31F710 GT PUSH2 0xC6 JUMPI DUP1 PUSH4 0x1C31F710 EQ PUSH2 0x1B3 JUMPI DUP1 PUSH4 0x1CBB410F EQ PUSH2 0x1D3 JUMPI DUP1 PUSH4 0x296C21B7 EQ PUSH2 0x1F3 JUMPI DUP1 PUSH4 0x5C975ABB EQ PUSH2 0x26B JUMPI PUSH1 0x0 DUP1 REVERT JUMPDEST DUP1 PUSH4 0x1FFC9A7 EQ PUSH2 0xF8 JUMPI DUP1 PUSH4 0x14B5685C EQ PUSH2 0x12D JUMPI DUP1 PUSH4 0x150B7A02 EQ PUSH2 0x14F JUMPI DUP1 PUSH4 0x16C38B3C EQ PUSH2 0x193 JUMPI JUMPDEST PUSH1 0x0 DUP1 REVERT JUMPDEST CALLVALUE DUP1 ISZERO PUSH2 0x104 JUMPI PUSH1 0x0 DUP1 REVERT JUMPDEST POP PUSH2 0x118 PUSH2 0x113 CALLDATASIZE PUSH1 0x4 PUSH2 0x43AA JUMP JUMPDEST PUSH2 0x3CF JUMP JUMPDEST PUSH1 0x40 MLOAD SWAP1 ISZERO ISZERO DUP2 MSTORE PUSH1 0x20 ADD JUMPDEST PUSH1 0x40 MLOAD DUP1 SWAP2 SUB SWAP1 RETURN JUMPDEST CALLVALUE DUP1 ISZERO PUSH2 0x139 JUMPI PUSH1 0x0 DUP1 REVERT JUMPDEST POP PUSH2 0x14D PUSH2 0x148 CALLDATASIZE PUSH1 0x4 PUSH2 0x409E JUMP JUMPDEST PUSH2 0x406 JUMP JUMPDEST STOP JUMPDEST CALLVALUE DUP1 ISZERO PUSH2 0x15B JUMPI PUSH1 0x0 DUP1 REVERT JUMPDEST POP PUSH2 0x17A PUSH2 0x16A CALLDATASIZE PUSH1 0x4 PUSH2 0x3EF6 JUMP JUMPDEST PUSH4 0xA85BD01 PUSH1 0xE1 SHL SWAP5 SWAP4 POP POP POP POP JUMP JUMPDEST PUSH1 0x40 MLOAD PUSH1 0x1 PUSH1 0x1 PUSH1 0xE0 SHL SUB NOT SWAP1 SWAP2 AND DUP2 MSTORE PUSH1 0x20 ADD PUSH2 0x124 JUMP JUMPDEST CALLVALUE DUP1 ISZERO PUSH2 0x19F JUMPI PUSH1 0x0 DUP1 REVERT JUMPDEST POP PUSH2 0x14D PUSH2 0x1AE CALLDATASIZE PUSH1 0x4 PUSH2 0x4370 JUMP JUMPDEST PUSH2 0x451 JUMP JUMPDEST CALLVALUE DUP1 ISZERO PUSH2 0x1BF JUMPI PUSH1 0x0 DUP1 REVERT JUMPDEST POP PUSH2 0x14D PUSH2 0x1CE CALLDATASIZE PUSH1 0x4 PUSH2 0x3E2C JUMP JUMPDEST PUSH2 0x48E JUMP JUMPDEST CALLVALUE DUP1 ISZERO PUSH2 0x1DF JUMPI PUSH1 0x0 DUP1 REVERT JUMPDEST POP PUSH2 0x14D PUSH2 0x1EE CALLDATASIZE PUSH1 0x4 PUSH2 0x4162 JUMP JUMPDEST PUSH2 0x4DA JUMP JUMPDEST CALLVALUE DUP1 ISZERO PUSH2 0x1FF JUMPI PUSH1 0x0 DUP1 REVERT JUMPDEST POP PUSH2 0x213 PUSH2 0x20E CALLDATASIZE PUSH1 0x4 PUSH2 0x3FC9 JUMP JUMPDEST PUSH2 0x51B JUMP JUMPDEST PUSH1 0x40 DUP1 MLOAD PUSH1 0xFF SWAP9 DUP10 AND DUP2 MSTORE PUSH1 0x1 PUSH1 0x1 PUSH1 0xA0 SHL SUB SWAP1 SWAP8 AND PUSH1 0x20 DUP9 ADD MSTORE SWAP5 DUP8 AND SWAP5 DUP7 ADD SWAP5 SWAP1 SWAP5 MSTORE PUSH1 0x1 PUSH1 0x1 PUSH1 0xE0 SHL SUB NOT SWAP1 SWAP3 AND PUSH1 0x60 DUP6 ADD MSTORE PUSH2 0xFFFF SWAP1 DUP2 AND PUSH1 0x80 DUP6 ADD MSTORE AND PUSH1 0xA0 DUP4 ADD MSTORE SWAP2 SWAP1 SWAP2 AND PUSH1 0xC0 DUP3 ADD MSTORE PUSH1 0xE0 ADD PUSH2 0x124 JUMP JUMPDEST CALLVALUE DUP1 ISZERO PUSH2 0x277 JUMPI PUSH1 0x0 DUP1 REVERT JUMPDEST POP PUSH1 0x5 SLOAD PUSH2 0x118 SWAP1 PUSH1 0xFF AND DUP2 JUMP JUMPDEST CALLVALUE DUP1 ISZERO PUSH2 0x291 JUMPI PUSH1 0x0 DUP1 REVERT JUMPDEST POP PUSH2 0x14D PUSH2 0x2A0 CALLDATASIZE PUSH1 0x4 PUSH2 0x43C5 JUMP JUMPDEST PUSH2 0x5F1 JUMP JUMPDEST CALLVALUE DUP1 ISZERO PUSH2 0x2B1 JUMPI PUSH1 0x0 DUP1 REVERT JUMPDEST POP PUSH2 0x14D PUSH2 0x2C0 CALLDATASIZE PUSH1 0x4 PUSH2 0x409E JUMP JUMPDEST PUSH2 0x671 JUMP JUMPDEST CALLVALUE DUP1 ISZERO PUSH2 0x2D1 JUMPI PUSH1 0x0 DUP1 REVERT JUMPDEST POP PUSH2 0x17A PUSH2 0x2E0 CALLDATASIZE PUSH1 0x4 PUSH2 0x3E49 JUMP JUMPDEST PUSH4 0xBC197C81 PUSH1 0xE0 SHL SWAP6 SWAP5 POP POP POP POP POP JUMP JUMPDEST CALLVALUE DUP1 ISZERO PUSH2 0x2FD JUMPI PUSH1 0x0 DUP1 REVERT JUMPDEST POP PUSH2 0x307 PUSH1 0x6 SLOAD DUP2 JUMP JUMPDEST PUSH1 0x40 MLOAD SWAP1 DUP2 MSTORE PUSH1 0x20 ADD PUSH2 0x124 JUMP JUMPDEST CALLVALUE DUP1 ISZERO PUSH2 0x321 JUMPI PUSH1 0x0 DUP1 REVERT JUMPDEST POP PUSH2 0x14D PUSH2 0x330 CALLDATASIZE PUSH1 0x4 PUSH2 0x3FFE JUMP JUMPDEST PUSH2 0x6A7 JUMP JUMPDEST PUSH2 0x14D PUSH2 0x343 CALLDATASIZE PUSH1 0x4 PUSH2 0x427C JUMP JUMPDEST PUSH2 0x70E JUMP JUMPDEST CALLVALUE DUP1 ISZERO PUSH2 0x354 JUMPI PUSH1 0x0 DUP1 REVERT JUMPDEST POP PUSH2 0x17A PUSH2 0x363 CALLDATASIZE PUSH1 0x4 PUSH2 0x3F61 JUMP JUMPDEST PUSH4 0xF23A6E61 PUSH1 0xE0 SHL SWAP6 SWAP5 POP POP POP POP POP JUMP JUMPDEST CALLVALUE DUP1 ISZERO PUSH2 0x380 JUMPI PUSH1 0x0 DUP1 REVERT JUMPDEST POP PUSH2 0x394 PUSH2 0x38F CALLDATASIZE PUSH1 0x4 PUSH2 0x3FC9 JUMP JUMPDEST PUSH2 0x74D JUMP JUMPDEST PUSH1 0x40 DUP1 MLOAD PUSH1 0x1 PUSH1 0x1 PUSH1 0xA0 SHL SUB SWAP1 SWAP6 AND DUP6 MSTORE PUSH2 0xFFFF SWAP1 SWAP4 AND PUSH1 0x20 DUP6 ADD MSTORE PUSH1 0xFF SWAP1 SWAP2 AND SWAP2 DUP4 ADD SWAP2 SWAP1 SWAP2 MSTORE PUSH4 0xFFFFFFFF AND PUSH1 0x60 DUP3 ADD MSTORE PUSH1 0x80 ADD PUSH2 0x124 JUMP JUMPDEST PUSH1 0x0 PUSH1 0x1 PUSH1 0x1 PUSH1 0xE0 SHL SUB NOT DUP3 AND PUSH4 0x2711897 PUSH1 0xE5 SHL EQ DUP1 PUSH2 0x400 JUMPI POP PUSH4 0x1FFC9A7 PUSH1 0xE0 SHL PUSH1 0x1 PUSH1 0x1 PUSH1 0xE0 SHL SUB NOT DUP4 AND EQ JUMPDEST SWAP3 SWAP2 POP POP JUMP JUMPDEST PUSH1 0x5 SLOAD PUSH1 0xFF AND ISZERO PUSH2 0x432 JUMPI PUSH1 0x40 MLOAD PUSH3 0x461BCD PUSH1 0xE5 SHL DUP2 MSTORE PUSH1 0x4 ADD PUSH2 0x429 SWAP1 PUSH2 0x4639 JUMP JUMPDEST PUSH1 0x40 MLOAD DUP1 SWAP2 SUB SWAP1 REVERT JUMPDEST PUSH2 0x44A PUSH2 0x7CB PUSH2 0x445 DUP8 DUP8 DUP8 DUP8 DUP8 PUSH2 0xD18 JUMP JUMPDEST PUSH2 0xE9E JUMP JUMPDEST POP POP POP POP POP JUMP JUMPDEST PUSH1 0x1 SLOAD PUSH1 0x1 PUSH1 0x1 PUSH1 0xA0 SHL SUB AND CALLER EQ PUSH2 0x47B JUMPI PUSH1 0x40 MLOAD PUSH3 0x461BCD PUSH1 0xE5 SHL DUP2 MSTORE PUSH1 0x4 ADD PUSH2 0x429 SWAP1 PUSH2 0x4660 JUMP JUMPDEST PUSH1 0x5 DUP1 SLOAD PUSH1 0xFF NOT AND SWAP2 ISZERO ISZERO SWAP2 SWAP1 SWAP2 OR SWAP1 SSTORE JUMP JUMPDEST PUSH1 0x1 SLOAD PUSH1 0x1 PUSH1 0x1 PUSH1 0xA0 SHL SUB AND CALLER EQ PUSH2 0x4B8 JUMPI PUSH1 0x40 MLOAD PUSH3 0x461BCD PUSH1 0xE5 SHL DUP2 MSTORE PUSH1 0x4 ADD PUSH2 0x429 SWAP1 PUSH2 0x4660 JUMP JUMPDEST PUSH1 0x2 DUP1 SLOAD PUSH1 0x1 PUSH1 0x1 PUSH1 0xA0 SHL SUB NOT AND PUSH1 0x1 PUSH1 0x1 PUSH1 0xA0 SHL SUB SWAP3 SWAP1 SWAP3 AND SWAP2 SWAP1 SWAP2 OR SWAP1 SSTORE JUMP JUMPDEST PUSH1 0x5 SLOAD PUSH1 0xFF AND ISZERO PUSH2 0x4FD JUMPI PUSH1 0x40 MLOAD PUSH3 0x461BCD PUSH1 0xE5 SHL DUP2 MSTORE PUSH1 0x4 ADD PUSH2 0x429 SWAP1 PUSH2 0x4639 JUMP JUMPDEST PUSH2 0x512 PUSH2 0xFD3 PUSH2 0x445 DUP10 DUP10 DUP10 DUP10 DUP10 DUP10 DUP10 PUSH2 0x1578 JUMP JUMPDEST POP POP POP POP POP POP POP JUMP JUMPDEST PUSH1 0x0 DUP1 PUSH1 0x0 DUP1 PUSH1 0x0 DUP1 PUSH1 0x0 DUP1 DUP11 DUP11 DUP11 PUSH1 0x40 MLOAD PUSH1 0x20 ADD PUSH2 0x53C SWAP4 SWAP3 SWAP2 SWAP1 PUSH2 0x4436 JUMP JUMPDEST PUSH1 0x40 DUP1 MLOAD PUSH1 0x1F NOT DUP2 DUP5 SUB ADD DUP2 MSTORE SWAP2 DUP2 MSTORE DUP2 MLOAD PUSH1 0x20 SWAP3 DUP4 ADD KECCAK256 PUSH1 0x0 DUP2 DUP2 MSTORE PUSH1 0x7 SWAP1 SWAP4 MSTORE SWAP2 KECCAK256 DUP1 SLOAD SWAP2 SWAP3 POP SWAP1 PUSH1 0xFF AND PUSH1 0x1 DUP2 GT ISZERO PUSH2 0x57A JUMPI PUSH2 0x57A PUSH2 0x48DE JUMP JUMPDEST DUP2 SLOAD PUSH1 0x1 PUSH1 0x1 PUSH1 0xA0 SHL SUB PUSH2 0x100 DUP3 DIV AND SWAP1 PUSH1 0xFF PUSH1 0x1 PUSH1 0xA8 SHL DUP3 DIV DUP2 AND SWAP2 PUSH1 0x1 PUSH1 0xB0 SHL DUP2 DIV PUSH1 0xE0 SHL SWAP2 PUSH2 0xFFFF PUSH1 0x1 PUSH1 0xD0 SHL DUP4 DIV DUP2 AND SWAP3 PUSH1 0x1 PUSH1 0xE0 SHL DUP2 DIV SWAP1 SWAP2 AND SWAP2 PUSH1 0x1 PUSH1 0xF0 SHL SWAP1 SWAP2 DIV AND PUSH1 0x3 DUP2 GT ISZERO PUSH2 0x5D4 JUMPI PUSH2 0x5D4 PUSH2 0x48DE JUMP JUMPDEST SWAP9 POP SWAP9 POP SWAP9 POP SWAP9 POP SWAP9 POP SWAP9 POP SWAP9 POP POP POP SWAP4 SWAP8 POP SWAP4 SWAP8 POP SWAP4 SWAP8 SWAP1 SWAP5 POP JUMP JUMPDEST PUSH1 0x1 SLOAD PUSH1 0x1 PUSH1 0x1 PUSH1 0xA0 SHL SUB AND CALLER EQ PUSH2 0x61B JUMPI PUSH1 0x40 MLOAD PUSH3 0x461BCD PUSH1 0xE5 SHL DUP2 MSTORE PUSH1 0x4 ADD PUSH2 0x429 SWAP1 PUSH2 0x4660 JUMP JUMPDEST PUSH2 0x2710 DUP2 LT PUSH2 0x66C JUMPI PUSH1 0x40 MLOAD PUSH3 0x461BCD PUSH1 0xE5 SHL DUP2 MSTORE PUSH1 0x20 PUSH1 0x4 DUP3 ADD MSTORE PUSH1 0x19 PUSH1 0x24 DUP3 ADD MSTORE PUSH32 0x52654E46543A3A66656520657863656564732031303070637400000000000000 PUSH1 0x44 DUP3 ADD MSTORE PUSH1 0x64 ADD PUSH2 0x429 JUMP JUMPDEST PUSH1 0x6 SSTORE JUMP JUMPDEST PUSH1 0x5 SLOAD PUSH1 0xFF AND ISZERO PUSH2 0x694 JUMPI PUSH1 0x40 MLOAD PUSH3 0x461BCD PUSH1 0xE5 SHL DUP2 MSTORE PUSH1 0x4 ADD PUSH2 0x429 SWAP1 PUSH2 0x4639 JUMP JUMPDEST PUSH2 0x44A PUSH2 0x16A8 PUSH2 0x445 DUP8 DUP8 DUP8 DUP8 DUP8 PUSH2 0xD18 JUMP JUMPDEST PUSH1 0x5 SLOAD PUSH1 0xFF AND ISZERO PUSH2 0x6CA JUMPI PUSH1 0x40 MLOAD PUSH3 0x461BCD PUSH1 0xE5 SHL DUP2 MSTORE PUSH1 0x4 ADD PUSH2 0x429 SWAP1 PUSH2 0x4639 JUMP JUMPDEST PUSH2 0x708 PUSH2 0x1AA9 PUSH2 0x445 DUP7 DUP7 DUP7 DUP7 PUSH1 0x0 PUSH1 0x40 MLOAD SWAP1 DUP1 DUP3 MSTORE DUP1 PUSH1 0x20 MUL PUSH1 0x20 ADD DUP3 ADD PUSH1 0x40 MSTORE DUP1 ISZERO PUSH2 0x702 JUMPI DUP2 PUSH1 0x20 ADD PUSH1 0x20 DUP3 MUL DUP1 CALLDATASIZE DUP4 CALLDATACOPY ADD SWAP1 POP JUMPDEST POP PUSH2 0xD18 JUMP JUMPDEST POP POP POP POP JUMP JUMPDEST PUSH1 0x5 SLOAD PUSH1 0xFF AND ISZERO PUSH2 0x731 JUMPI PUSH1 0x40 MLOAD PUSH3 0x461BCD PUSH1 0xE5 SHL DUP2 MSTORE PUSH1 0x4 ADD PUSH2 0x429 SWAP1 PUSH2 0x4639 JUMP JUMPDEST PUSH2 0x745 PUSH2 0x1E76 PUSH2 0x445 DUP9 DUP9 DUP9 DUP9 DUP9 DUP9 PUSH2 0x25CF JUMP JUMPDEST POP POP POP POP POP POP JUMP JUMPDEST PUSH1 0x0 DUP1 PUSH1 0x0 DUP1 PUSH1 0x0 DUP8 DUP8 DUP8 PUSH1 0x40 MLOAD PUSH1 0x20 ADD PUSH2 0x76A SWAP4 SWAP3 SWAP2 SWAP1 PUSH2 0x4436 JUMP JUMPDEST PUSH1 0x40 DUP1 MLOAD DUP1 DUP4 SUB PUSH1 0x1F NOT ADD DUP2 MSTORE SWAP2 DUP2 MSTORE DUP2 MLOAD PUSH1 0x20 SWAP3 DUP4 ADD KECCAK256 PUSH1 0x0 SWAP1 DUP2 MSTORE PUSH1 0x8 SWAP1 SWAP3 MSTORE SWAP1 KECCAK256 SLOAD PUSH1 0x1 PUSH1 0x1 PUSH1 0xA0 SHL SUB DUP2 AND SWAP10 PUSH1 0x1 PUSH1 0xC8 SHL DUP3 DIV PUSH2 0xFFFF AND SWAP10 POP PUSH1 0x1 PUSH1 0xA0 SHL DUP3 DIV PUSH1 0xFF AND SWAP9 POP PUSH1 0x1 PUSH1 0xA8 SHL SWAP1 SWAP2 DIV PUSH4 0xFFFFFFFF AND SWAP7 POP SWAP5 POP POP POP POP POP JUMP JUMPDEST DUP1 MLOAD JUMPDEST DUP2 PUSH1 0x20 ADD MLOAD DUP2 LT ISZERO PUSH2 0xD14 JUMPI PUSH1 0x0 DUP3 PUSH1 0x60 ADD MLOAD DUP4 PUSH1 0x0 ADD MLOAD DUP2 MLOAD DUP2 LT PUSH2 0x7F6 JUMPI PUSH2 0x7F6 PUSH2 0x48F4 JUMP JUMPDEST PUSH1 0x20 MUL PUSH1 0x20 ADD ADD MLOAD DUP4 PUSH1 0x80 ADD MLOAD DUP4 DUP2 MLOAD DUP2 LT PUSH2 0x814 JUMPI PUSH2 0x814 PUSH2 0x48F4 JUMP JUMPDEST PUSH1 0x20 MUL PUSH1 0x20 ADD ADD MLOAD DUP5 PUSH2 0x100 ADD MLOAD DUP5 DUP2 MLOAD DUP2 LT PUSH2 0x833 JUMPI PUSH2 0x833 PUSH2 0x48F4 JUMP JUMPDEST PUSH1 0x20 MUL PUSH1 0x20 ADD ADD MLOAD PUSH1 0x40 MLOAD PUSH1 0x20 ADD PUSH2 0x84D SWAP4 SWAP3 SWAP2 SWAP1 PUSH2 0x4436 JUMP JUMPDEST PUSH1 0x40 MLOAD PUSH1 0x20 DUP2 DUP4 SUB SUB DUP2 MSTORE SWAP1 PUSH1 0x40 MSTORE DUP1 MLOAD SWAP1 PUSH1 0x20 ADD KECCAK256 SWAP1 POP PUSH1 0x0 DUP4 PUSH1 0x60 ADD MLOAD DUP5 PUSH1 0x0 ADD MLOAD DUP2 MLOAD DUP2 LT PUSH2 0x881 JUMPI PUSH2 0x881 PUSH2 0x48F4 JUMP JUMPDEST PUSH1 0x20 MUL PUSH1 0x20 ADD ADD MLOAD DUP5 PUSH1 0x80 ADD MLOAD DUP5 DUP2 MLOAD DUP2 LT PUSH2 0x89F JUMPI PUSH2 0x89F PUSH2 0x48F4 JUMP JUMPDEST PUSH1 0x20 MUL PUSH1 0x20 ADD ADD MLOAD DUP6 PUSH2 0x120 ADD MLOAD DUP6 DUP2 MLOAD DUP2 LT PUSH2 0x8BE JUMPI PUSH2 0x8BE PUSH2 0x48F4 JUMP JUMPDEST PUSH1 0x20 MUL PUSH1 0x20 ADD ADD MLOAD PUSH1 0x40 MLOAD PUSH1 0x20 ADD PUSH2 0x8D8 SWAP4 SWAP3 SWAP2 SWAP1 PUSH2 0x4436 JUMP JUMPDEST PUSH1 0x40 DUP1 MLOAD PUSH1 0x1F NOT DUP2 DUP5 SUB ADD DUP2 MSTORE DUP3 DUP3 MSTORE DUP1 MLOAD PUSH1 0x20 SWAP2 DUP3 ADD KECCAK256 PUSH1 0x0 DUP7 DUP2 MSTORE PUSH1 0x7 DUP4 MSTORE DUP4 DUP2 KECCAK256 DUP3 DUP3 MSTORE PUSH1 0x8 SWAP1 SWAP4 MSTORE DUP4 SWAP1 KECCAK256 PUSH1 0xE0 DUP6 ADD SWAP1 SWAP4 MSTORE DUP2 SLOAD SWAP1 SWAP5 POP SWAP1 SWAP3 PUSH2 0x9D9 SWAP2 DUP5 SWAP1 DUP3 SWAP1 PUSH1 0xFF AND PUSH1 0x1 DUP2 GT ISZERO PUSH2 0x931 JUMPI PUSH2 0x931 PUSH2 0x48DE JUMP JUMPDEST PUSH1 0x1 DUP2 GT ISZERO PUSH2 0x942 JUMPI PUSH2 0x942 PUSH2 0x48DE JUMP JUMPDEST DUP2 MSTORE DUP2 SLOAD PUSH1 0x1 PUSH1 0x1 PUSH1 0xA0 SHL SUB PUSH2 0x100 DUP3 DIV AND PUSH1 0x20 DUP4 ADD MSTORE PUSH1 0xFF PUSH1 0x1 PUSH1 0xA8 SHL DUP3 DIV DUP2 AND PUSH1 0x40 DUP5 ADD MSTORE PUSH1 0x1 PUSH1 0x1 PUSH1 0xE0 SHL SUB NOT PUSH1 0x1 PUSH1 0xB0 SHL DUP4 DIV PUSH1 0xE0 SHL AND PUSH1 0x60 DUP5 ADD MSTORE PUSH2 0xFFFF PUSH1 0x1 PUSH1 0xD0 SHL DUP4 DIV DUP2 AND PUSH1 0x80 DUP6 ADD MSTORE PUSH1 0x1 PUSH1 0xE0 SHL DUP4 DIV AND PUSH1 0xA0 DUP5 ADD MSTORE PUSH1 0xC0 SWAP1 SWAP3 ADD SWAP2 PUSH1 0x1 PUSH1 0xF0 SHL SWAP1 SWAP2 DIV AND PUSH1 0x3 DUP2 GT ISZERO PUSH2 0x9C0 JUMPI PUSH2 0x9C0 PUSH2 0x48DE JUMP JUMPDEST PUSH1 0x3 DUP2 GT ISZERO PUSH2 0x9D1 JUMPI PUSH2 0x9D1 PUSH2 0x48DE JUMP JUMPDEST SWAP1 MSTORE POP PUSH2 0x26F1 JUMP JUMPDEST PUSH1 0x40 DUP1 MLOAD PUSH1 0x80 DUP2 ADD DUP3 MSTORE DUP3 SLOAD PUSH1 0x1 PUSH1 0x1 PUSH1 0xA0 SHL SUB DUP2 AND DUP3 MSTORE PUSH1 0x1 PUSH1 0xA0 SHL DUP2 DIV PUSH1 0xFF AND PUSH1 0x20 DUP4 ADD MSTORE PUSH1 0x1 PUSH1 0xA8 SHL DUP2 DIV PUSH4 0xFFFFFFFF AND SWAP3 DUP3 ADD SWAP3 SWAP1 SWAP3 MSTORE PUSH1 0x1 PUSH1 0xC8 SHL SWAP1 SWAP2 DIV PUSH2 0xFFFF AND PUSH1 0x60 DUP3 ADD MSTORE PUSH2 0xA30 SWAP1 CALLER TIMESTAMP PUSH2 0x2774 JUMP JUMPDEST DUP2 SLOAD PUSH1 0xFF AND PUSH1 0x1 DUP2 GT ISZERO PUSH2 0xA46 JUMPI PUSH2 0xA46 PUSH2 0x48DE JUMP JUMPDEST DUP7 PUSH1 0x40 ADD MLOAD DUP7 DUP2 MLOAD DUP2 LT PUSH2 0xA5C JUMPI PUSH2 0xA5C PUSH2 0x48F4 JUMP JUMPDEST PUSH1 0x20 MUL PUSH1 0x20 ADD ADD MLOAD PUSH1 0x1 DUP2 GT ISZERO PUSH2 0xA75 JUMPI PUSH2 0xA75 PUSH2 0x48DE JUMP JUMPDEST EQ PUSH2 0xA92 JUMPI PUSH1 0x40 MLOAD PUSH3 0x461BCD PUSH1 0xE5 SHL DUP2 MSTORE PUSH1 0x4 ADD PUSH2 0x429 SWAP1 PUSH2 0x456A JUMP JUMPDEST DUP2 SLOAD DUP2 SLOAD PUSH1 0x1 PUSH1 0xD0 SHL SWAP1 SWAP2 DIV PUSH2 0xFFFF SWAP1 DUP2 AND PUSH1 0x1 PUSH1 0xC8 SHL SWAP1 SWAP3 DIV AND GT ISZERO PUSH2 0xAF3 JUMPI PUSH1 0x40 MLOAD PUSH3 0x461BCD PUSH1 0xE5 SHL DUP2 MSTORE PUSH1 0x20 PUSH1 0x4 DUP3 ADD MSTORE PUSH1 0x15 PUSH1 0x24 DUP3 ADD MSTORE PUSH21 0x2932A7232A1D1D31B934BA34B1B0B61032B93937B9 PUSH1 0x59 SHL PUSH1 0x44 DUP3 ADD MSTORE PUSH1 0x64 ADD PUSH2 0x429 JUMP JUMPDEST DUP1 SLOAD PUSH1 0x0 SWAP1 PUSH2 0xB0F SWAP1 PUSH1 0x1 PUSH1 0xA8 SHL SWAP1 DIV PUSH4 0xFFFFFFFF AND TIMESTAMP PUSH2 0x486A JUMP JUMPDEST PUSH1 0x40 DUP1 MLOAD PUSH1 0xE0 DUP2 ADD SWAP1 SWAP2 MSTORE DUP5 SLOAD SWAP2 SWAP3 POP PUSH2 0xC30 SWAP2 DUP6 SWAP1 DUP3 SWAP1 PUSH1 0xFF AND PUSH1 0x1 DUP2 GT ISZERO PUSH2 0xB3B JUMPI PUSH2 0xB3B PUSH2 0x48DE JUMP JUMPDEST PUSH1 0x1 DUP2 GT ISZERO PUSH2 0xB4C JUMPI PUSH2 0xB4C PUSH2 0x48DE JUMP JUMPDEST DUP2 MSTORE DUP2 SLOAD PUSH1 0x1 PUSH1 0x1 PUSH1 0xA0 SHL SUB PUSH2 0x100 DUP3 DIV AND PUSH1 0x20 DUP4 ADD MSTORE PUSH1 0xFF PUSH1 0x1 PUSH1 0xA8 SHL DUP3 DIV DUP2 AND PUSH1 0x40 DUP5 ADD MSTORE PUSH1 0x1 PUSH1 0x1 PUSH1 0xE0 SHL SUB NOT PUSH1 0x1 PUSH1 0xB0 SHL DUP4 DIV PUSH1 0xE0 SHL AND PUSH1 0x60 DUP5 ADD MSTORE PUSH2 0xFFFF PUSH1 0x1 PUSH1 0xD0 SHL DUP4 DIV DUP2 AND PUSH1 0x80 DUP6 ADD MSTORE PUSH1 0x1 PUSH1 0xE0 SHL DUP4 DIV AND PUSH1 0xA0 DUP5 ADD MSTORE PUSH1 0xC0 SWAP1 SWAP3 ADD SWAP2 PUSH1 0x1 PUSH1 0xF0 SHL SWAP1 SWAP2 DIV AND PUSH1 0x3 DUP2 GT ISZERO PUSH2 0xBCA JUMPI PUSH2 0xBCA PUSH2 0x48DE JUMP JUMPDEST PUSH1 0x3 DUP2 GT ISZERO PUSH2 0xBDB JUMPI PUSH2 0xBDB PUSH2 0x48DE JUMP JUMPDEST SWAP1 MSTORE POP PUSH1 0x40 DUP1 MLOAD PUSH1 0x80 DUP2 ADD DUP3 MSTORE DUP6 SLOAD PUSH1 0x1 PUSH1 0x1 PUSH1 0xA0 SHL SUB DUP2 AND DUP3 MSTORE PUSH1 0x1 PUSH1 0xA0 SHL DUP2 DIV PUSH1 0xFF AND PUSH1 0x20 DUP4 ADD MSTORE PUSH1 0x1 PUSH1 0xA8 SHL DUP2 DIV PUSH4 0xFFFFFFFF AND SWAP3 DUP3 ADD SWAP3 SWAP1 SWAP3 MSTORE PUSH1 0x1 PUSH1 0xC8 SHL SWAP1 SWAP2 DIV PUSH2 0xFFFF AND PUSH1 0x60 DUP3 ADD MSTORE DUP4 PUSH2 0x2824 JUMP JUMPDEST DUP2 SLOAD PUSH1 0x0 DUP7 DUP2 MSTORE PUSH1 0x7 PUSH1 0x20 MSTORE PUSH1 0x40 SWAP1 KECCAK256 DUP1 SLOAD PUSH2 0xFFFF PUSH1 0x1 PUSH1 0xC8 SHL SWAP1 SWAP4 DIV DUP4 AND SWAP3 PUSH1 0x1C SWAP2 PUSH2 0xC66 SWAP2 DUP6 SWAP2 PUSH1 0x1 PUSH1 0xE0 SHL SWAP1 DIV AND PUSH2 0x46DD JUMP JUMPDEST SWAP3 POP PUSH2 0x100 EXP DUP2 SLOAD DUP2 PUSH2 0xFFFF MUL NOT AND SWAP1 DUP4 PUSH2 0xFFFF AND MUL OR SWAP1 SSTORE POP DUP7 PUSH2 0x100 ADD MLOAD DUP7 DUP2 MLOAD DUP2 LT PUSH2 0xC97 JUMPI PUSH2 0xC97 PUSH2 0x48F4 JUMP JUMPDEST PUSH1 0x20 MUL PUSH1 0x20 ADD ADD MLOAD PUSH32 0x58855DD8908B14C6D7922D964418F37EFD968BC6B9B857560870B14A898F916D TIMESTAMP PUSH1 0x40 MLOAD PUSH2 0xCDA SWAP2 SWAP1 PUSH4 0xFFFFFFFF SWAP2 SWAP1 SWAP2 AND DUP2 MSTORE PUSH1 0x20 ADD SWAP1 JUMP JUMPDEST PUSH1 0x40 MLOAD DUP1 SWAP2 SUB SWAP1 LOG2 POP POP POP PUSH1 0x0 SWAP1 DUP2 MSTORE PUSH1 0x8 PUSH1 0x20 MSTORE PUSH1 0x40 SWAP1 KECCAK256 DUP1 SLOAD PUSH1 0x1 PUSH1 0x1 PUSH1 0xD8 SHL SUB NOT AND SWAP1 SSTORE POP DUP1 PUSH2 0xD0C DUP2 PUSH2 0x48AD JUMP JUMPDEST SWAP2 POP POP PUSH2 0x7CE JUMP JUMPDEST POP POP JUMP JUMPDEST PUSH2 0xD20 PUSH2 0x3A88 JUMP JUMPDEST PUSH1 0x40 MLOAD DUP1 PUSH2 0x1A0 ADD PUSH1 0x40 MSTORE DUP1 PUSH1 0x0 DUP2 MSTORE PUSH1 0x20 ADD PUSH1 0x1 DUP2 MSTORE PUSH1 0x20 ADD DUP8 DUP2 MSTORE PUSH1 0x20 ADD DUP7 DUP2 MSTORE PUSH1 0x20 ADD DUP6 DUP2 MSTORE PUSH1 0x20 ADD PUSH1 0x0 PUSH1 0x1 PUSH1 0x1 PUSH1 0x40 SHL SUB DUP2 GT ISZERO PUSH2 0xD65 JUMPI PUSH2 0xD65 PUSH2 0x490A JUMP JUMPDEST PUSH1 0x40 MLOAD SWAP1 DUP1 DUP3 MSTORE DUP1 PUSH1 0x20 MUL PUSH1 0x20 ADD DUP3 ADD PUSH1 0x40 MSTORE DUP1 ISZERO PUSH2 0xD8E JUMPI DUP2 PUSH1 0x20 ADD PUSH1 0x20 DUP3 MUL DUP1 CALLDATASIZE DUP4 CALLDATACOPY ADD SWAP1 POP JUMPDEST POP DUP2 MSTORE PUSH1 0x20 ADD PUSH1 0x0 PUSH1 0x40 MLOAD SWAP1 DUP1 DUP3 MSTORE DUP1 PUSH1 0x20 MUL PUSH1 0x20 ADD DUP3 ADD PUSH1 0x40 MSTORE DUP1 ISZERO PUSH2 0xDBF JUMPI DUP2 PUSH1 0x20 ADD PUSH1 0x20 DUP3 MUL DUP1 CALLDATASIZE DUP4 CALLDATACOPY ADD SWAP1 POP JUMPDEST POP DUP2 MSTORE PUSH1 0x20 ADD PUSH1 0x0 PUSH1 0x40 MLOAD SWAP1 DUP1 DUP3 MSTORE DUP1 PUSH1 0x20 MUL PUSH1 0x20 ADD DUP3 ADD PUSH1 0x40 MSTORE DUP1 ISZERO PUSH2 0xDF0 JUMPI DUP2 PUSH1 0x20 ADD PUSH1 0x20 DUP3 MUL DUP1 CALLDATASIZE DUP4 CALLDATACOPY ADD SWAP1 POP JUMPDEST POP DUP2 MSTORE PUSH1 0x20 DUP2 ADD DUP6 SWAP1 MSTORE PUSH1 0x40 DUP2 ADD DUP5 SWAP1 MSTORE PUSH1 0x60 ADD PUSH1 0x0 PUSH1 0x40 MLOAD SWAP1 DUP1 DUP3 MSTORE DUP1 PUSH1 0x20 MUL PUSH1 0x20 ADD DUP3 ADD PUSH1 0x40 MSTORE DUP1 ISZERO PUSH2 0xE2F JUMPI DUP2 PUSH1 0x20 ADD PUSH1 0x20 DUP3 MUL DUP1 CALLDATASIZE DUP4 CALLDATACOPY ADD SWAP1 POP JUMPDEST POP DUP2 MSTORE PUSH1 0x20 ADD PUSH1 0x0 PUSH1 0x40 MLOAD SWAP1 DUP1 DUP3 MSTORE DUP1 PUSH1 0x20 MUL PUSH1 0x20 ADD DUP3 ADD PUSH1 0x40 MSTORE DUP1 ISZERO PUSH2 0xE60 JUMPI DUP2 PUSH1 0x20 ADD PUSH1 0x20 DUP3 MUL DUP1 CALLDATASIZE DUP4 CALLDATACOPY ADD SWAP1 POP JUMPDEST POP DUP2 MSTORE PUSH1 0x20 ADD PUSH1 0x0 PUSH1 0x40 MLOAD SWAP1 DUP1 DUP3 MSTORE DUP1 PUSH1 0x20 MUL PUSH1 0x20 ADD DUP3 ADD PUSH1 0x40 MSTORE DUP1 ISZERO PUSH2 0xE91 JUMPI DUP2 PUSH1 0x20 ADD PUSH1 0x20 DUP3 MUL DUP1 CALLDATASIZE DUP4 CALLDATACOPY ADD SWAP1 POP JUMPDEST POP SWAP1 MSTORE SWAP7 SWAP6 POP POP POP POP POP POP JUMP JUMPDEST PUSH1 0x0 DUP2 PUSH1 0x60 ADD MLOAD MLOAD GT PUSH2 0xEE4 JUMPI PUSH1 0x40 MLOAD PUSH3 0x461BCD PUSH1 0xE5 SHL DUP2 MSTORE PUSH1 0x20 PUSH1 0x4 DUP3 ADD MSTORE PUSH1 0xE PUSH1 0x24 DUP3 ADD MSTORE PUSH14 0x52654E46543A3A6E6F206E667473 PUSH1 0x90 SHL PUSH1 0x44 DUP3 ADD MSTORE PUSH1 0x64 ADD PUSH2 0x429 JUMP JUMPDEST DUP1 PUSH1 0x60 ADD MLOAD MLOAD DUP2 PUSH1 0x20 ADD MLOAD EQ PUSH2 0xFC6 JUMPI DUP1 PUSH1 0x60 ADD MLOAD DUP2 PUSH1 0x20 ADD MLOAD DUP2 MLOAD DUP2 LT PUSH2 0xF0E JUMPI PUSH2 0xF0E PUSH2 0x48F4 JUMP JUMPDEST PUSH1 0x20 MUL PUSH1 0x20 ADD ADD MLOAD PUSH1 0x1 PUSH1 0x1 PUSH1 0xA0 SHL SUB AND DUP2 PUSH1 0x60 ADD MLOAD DUP3 PUSH1 0x0 ADD MLOAD DUP2 MLOAD DUP2 LT PUSH2 0xF39 JUMPI PUSH2 0xF39 PUSH2 0x48F4 JUMP JUMPDEST PUSH1 0x20 MUL PUSH1 0x20 ADD ADD MLOAD PUSH1 0x1 PUSH1 0x1 PUSH1 0xA0 SHL SUB AND EQ DUP1 ISZERO PUSH2 0xF89 JUMPI POP PUSH1 0x1 DUP2 PUSH1 0x40 ADD MLOAD DUP3 PUSH1 0x20 ADD MLOAD DUP2 MLOAD DUP2 LT PUSH2 0xF6E JUMPI PUSH2 0xF6E PUSH2 0x48F4 JUMP JUMPDEST PUSH1 0x20 MUL PUSH1 0x20 ADD ADD MLOAD PUSH1 0x1 DUP2 GT ISZERO PUSH2 0xF87 JUMPI PUSH2 0xF87 PUSH2 0x48DE JUMP JUMPDEST EQ JUMPDEST ISZERO PUSH2 0xFA6 JUMPI PUSH1 0x20 DUP2 ADD DUP1 MLOAD SWAP1 PUSH2 0xF9E DUP3 PUSH2 0x48AD JUMP JUMPDEST SWAP1 MSTORE POP PUSH2 0xEE4 JUMP JUMPDEST PUSH2 0xFB3 DUP2 DUP4 PUSH4 0xFFFFFFFF AND JUMP JUMPDEST PUSH1 0x20 DUP2 ADD DUP1 MLOAD DUP1 DUP4 MSTORE SWAP1 PUSH2 0xF9E DUP3 PUSH2 0x48AD JUMP JUMPDEST PUSH2 0xD14 DUP2 DUP4 PUSH4 0xFFFFFFFF AND JUMP JUMPDEST DUP1 MLOAD JUMPDEST DUP2 PUSH1 0x20 ADD MLOAD DUP2 LT ISZERO PUSH2 0x1537 JUMPI PUSH2 0xFEC DUP3 DUP3 PUSH2 0x2AB6 JUMP JUMPDEST PUSH1 0x0 DUP3 PUSH1 0x60 ADD MLOAD DUP4 PUSH1 0x0 ADD MLOAD DUP2 MLOAD DUP2 LT PUSH2 0x1008 JUMPI PUSH2 0x1008 PUSH2 0x48F4 JUMP JUMPDEST PUSH1 0x20 MUL PUSH1 0x20 ADD ADD MLOAD DUP4 PUSH1 0x80 ADD MLOAD DUP4 DUP2 MLOAD DUP2 LT PUSH2 0x1026 JUMPI PUSH2 0x1026 PUSH2 0x48F4 JUMP JUMPDEST PUSH1 0x20 MUL PUSH1 0x20 ADD ADD MLOAD PUSH1 0x3 SLOAD PUSH1 0x40 MLOAD PUSH1 0x20 ADD PUSH2 0x1043 SWAP4 SWAP3 SWAP2 SWAP1 PUSH2 0x4436 JUMP JUMPDEST PUSH1 0x40 DUP1 MLOAD PUSH1 0x1F NOT DUP2 DUP5 SUB ADD DUP2 MSTORE DUP3 DUP3 MSTORE DUP1 MLOAD PUSH1 0x20 SWAP2 DUP3 ADD KECCAK256 PUSH1 0x0 DUP2 DUP2 MSTORE PUSH1 0x7 SWAP1 SWAP3 MSTORE SWAP1 DUP3 SWAP1 KECCAK256 PUSH1 0xE0 DUP5 ADD SWAP1 SWAP3 MSTORE DUP2 SLOAD SWAP1 SWAP4 POP SWAP1 SWAP2 PUSH2 0x113B SWAP2 DUP4 SWAP1 DUP3 SWAP1 PUSH1 0xFF AND PUSH1 0x1 DUP2 GT ISZERO PUSH2 0x1093 JUMPI PUSH2 0x1093 PUSH2 0x48DE JUMP JUMPDEST PUSH1 0x1 DUP2 GT ISZERO PUSH2 0x10A4 JUMPI PUSH2 0x10A4 PUSH2 0x48DE JUMP JUMPDEST DUP2 MSTORE DUP2 SLOAD PUSH1 0x1 PUSH1 0x1 PUSH1 0xA0 SHL SUB PUSH2 0x100 DUP3 DIV AND PUSH1 0x20 DUP4 ADD MSTORE PUSH1 0xFF PUSH1 0x1 PUSH1 0xA8 SHL DUP3 DIV DUP2 AND PUSH1 0x40 DUP5 ADD MSTORE PUSH1 0x1 PUSH1 0x1 PUSH1 0xE0 SHL SUB NOT PUSH1 0x1 PUSH1 0xB0 SHL DUP4 DIV PUSH1 0xE0 SHL AND PUSH1 0x60 DUP5 ADD MSTORE PUSH2 0xFFFF PUSH1 0x1 PUSH1 0xD0 SHL DUP4 DIV DUP2 AND PUSH1 0x80 DUP6 ADD MSTORE PUSH1 0x1 PUSH1 0xE0 SHL DUP4 DIV AND PUSH1 0xA0 DUP5 ADD MSTORE PUSH1 0xC0 SWAP1 SWAP3 ADD SWAP2 PUSH1 0x1 PUSH1 0xF0 SHL SWAP1 SWAP2 DIV AND PUSH1 0x3 DUP2 GT ISZERO PUSH2 0x1122 JUMPI PUSH2 0x1122 PUSH2 0x48DE JUMP JUMPDEST PUSH1 0x3 DUP2 GT ISZERO PUSH2 0x1133 JUMPI PUSH2 0x1133 PUSH2 0x48DE JUMP JUMPDEST SWAP1 MSTORE POP PUSH2 0x2C2C JUMP JUMPDEST PUSH2 0x1173 DUP5 PUSH2 0x180 ADD MLOAD DUP5 DUP2 MLOAD DUP2 LT PUSH2 0x1155 JUMPI PUSH2 0x1155 PUSH2 0x48F4 JUMP JUMPDEST PUSH1 0x20 MUL PUSH1 0x20 ADD ADD MLOAD PUSH1 0x3 DUP2 GT ISZERO PUSH2 0x116E JUMPI PUSH2 0x116E PUSH2 0x48DE JUMP JUMPDEST PUSH2 0x2CE5 JUMP JUMPDEST PUSH1 0x0 DUP1 DUP6 PUSH1 0x40 ADD MLOAD DUP6 DUP2 MLOAD DUP2 LT PUSH2 0x118C JUMPI PUSH2 0x118C PUSH2 0x48F4 JUMP JUMPDEST PUSH1 0x20 MUL PUSH1 0x20 ADD ADD MLOAD PUSH1 0x1 DUP2 GT ISZERO PUSH2 0x11A5 JUMPI PUSH2 0x11A5 PUSH2 0x48DE JUMP JUMPDEST EQ SWAP1 POP PUSH1 0x40 MLOAD DUP1 PUSH1 0xE0 ADD PUSH1 0x40 MSTORE DUP1 DUP7 PUSH1 0x40 ADD MLOAD DUP7 DUP2 MLOAD DUP2 LT PUSH2 0x11C9 JUMPI PUSH2 0x11C9 PUSH2 0x48F4 JUMP JUMPDEST PUSH1 0x20 MUL PUSH1 0x20 ADD ADD MLOAD PUSH1 0x1 DUP2 GT ISZERO PUSH2 0x11E2 JUMPI PUSH2 0x11E2 PUSH2 0x48DE JUMP JUMPDEST DUP2 MSTORE PUSH1 0x20 ADD CALLER PUSH1 0x1 PUSH1 0x1 PUSH1 0xA0 SHL SUB AND DUP2 MSTORE PUSH1 0x20 ADD DUP7 PUSH1 0xC0 ADD MLOAD DUP7 DUP2 MLOAD DUP2 LT PUSH2 0x120C JUMPI PUSH2 0x120C PUSH2 0x48F4 JUMP JUMPDEST PUSH1 0x20 MUL PUSH1 0x20 ADD ADD MLOAD PUSH1 0xFF AND DUP2 MSTORE PUSH1 0x20 ADD DUP7 PUSH1 0xE0 ADD MLOAD DUP7 DUP2 MLOAD DUP2 LT PUSH2 0x1232 JUMPI PUSH2 0x1232 PUSH2 0x48F4 JUMP JUMPDEST PUSH1 0x20 MUL PUSH1 0x20 ADD ADD MLOAD PUSH1 0x1 PUSH1 0x1 PUSH1 0xE0 SHL SUB NOT AND DUP2 MSTORE PUSH1 0x20 ADD DUP3 PUSH2 0x1271 JUMPI DUP7 PUSH1 0xA0 ADD MLOAD DUP7 DUP2 MLOAD DUP2 LT PUSH2 0x1264 JUMPI PUSH2 0x1264 PUSH2 0x48F4 JUMP JUMPDEST PUSH1 0x20 MUL PUSH1 0x20 ADD ADD MLOAD PUSH2 0x1274 JUMP JUMPDEST PUSH1 0x1 JUMPDEST PUSH1 0xFF AND DUP2 MSTORE PUSH1 0x20 ADD DUP3 PUSH2 0x12A4 JUMPI DUP7 PUSH1 0xA0 ADD MLOAD DUP7 DUP2 MLOAD DUP2 LT PUSH2 0x1297 JUMPI PUSH2 0x1297 PUSH2 0x48F4 JUMP JUMPDEST PUSH1 0x20 MUL PUSH1 0x20 ADD ADD MLOAD PUSH2 0x12A7 JUMP JUMPDEST PUSH1 0x1 JUMPDEST PUSH1 0xFF AND PUSH2 0xFFFF AND DUP2 MSTORE PUSH1 0x20 ADD DUP7 PUSH2 0x180 ADD MLOAD DUP7 DUP2 MLOAD DUP2 LT PUSH2 0x12CA JUMPI PUSH2 0x12CA PUSH2 0x48F4 JUMP JUMPDEST PUSH1 0x20 MUL PUSH1 0x20 ADD ADD MLOAD PUSH1 0x3 DUP2 GT ISZERO PUSH2 0x12E3 JUMPI PUSH2 0x12E3 PUSH2 0x48DE JUMP JUMPDEST SWAP1 MSTORE PUSH1 0x0 DUP5 DUP2 MSTORE PUSH1 0x7 PUSH1 0x20 MSTORE PUSH1 0x40 SWAP1 KECCAK256 DUP2 MLOAD DUP2 SLOAD DUP3 SWAP1 PUSH1 0xFF NOT AND PUSH1 0x1 DUP4 DUP2 DUP2 GT ISZERO PUSH2 0x1310 JUMPI PUSH2 0x1310 PUSH2 0x48DE JUMP JUMPDEST MUL OR SWAP1 SSTORE POP PUSH1 0x20 DUP3 ADD MLOAD DUP2 SLOAD PUSH1 0x40 DUP5 ADD MLOAD PUSH1 0x60 DUP6 ADD MLOAD PUSH1 0x80 DUP7 ADD MLOAD PUSH1 0xA0 DUP8 ADD MLOAD PUSH2 0x100 PUSH1 0x1 PUSH1 0xB0 SHL SUB NOT SWAP1 SWAP5 AND PUSH2 0x100 PUSH1 0x1 PUSH1 0x1 PUSH1 0xA0 SHL SUB SWAP1 SWAP7 AND SWAP6 SWAP1 SWAP6 MUL PUSH1 0xFF PUSH1 0xA8 SHL NOT AND SWAP5 SWAP1 SWAP5 OR PUSH1 0x1 PUSH1 0xA8 SHL PUSH1 0xFF SWAP1 SWAP4 AND SWAP3 SWAP1 SWAP3 MUL SWAP2 SWAP1 SWAP2 OR PUSH6 0xFFFFFFFFFFFF PUSH1 0xB0 SHL NOT AND PUSH1 0x1 PUSH1 0xB0 SHL PUSH1 0xE0 SWAP3 SWAP1 SWAP3 SHR SWAP2 SWAP1 SWAP2 MUL PUSH2 0xFFFF PUSH1 0xD0 SHL NOT AND OR PUSH1 0x1 PUSH1 0xD0 SHL PUSH2 0xFFFF SWAP4 DUP5 AND MUL OR PUSH2 0xFFFF PUSH1 0xE0 SHL NOT DUP2 AND PUSH1 0x1 PUSH1 0xE0 SHL SWAP4 SWAP1 SWAP3 AND SWAP3 SWAP1 SWAP3 MUL SWAP1 DUP2 OR DUP4 SSTORE PUSH1 0xC0 DUP5 ADD MLOAD SWAP2 DUP4 SWAP2 PUSH3 0xFFFFFF PUSH1 0xE0 SHL NOT SWAP1 SWAP2 AND PUSH1 0xFF PUSH1 0xF0 SHL NOT SWAP1 SWAP2 AND OR PUSH1 0x1 PUSH1 0xF0 SHL DUP4 PUSH1 0x3 DUP2 GT ISZERO PUSH2 0x13EC JUMPI PUSH2 0x13EC PUSH2 0x48DE JUMP JUMPDEST MUL OR SWAP1 SSTORE POP SWAP1 POP POP DUP5 PUSH1 0x80 ADD MLOAD DUP5 DUP2 MLOAD DUP2 LT PUSH2 0x140A JUMPI PUSH2 0x140A PUSH2 0x48F4 JUMP JUMPDEST PUSH1 0x20 MUL PUSH1 0x20 ADD ADD MLOAD DUP6 PUSH1 0x60 ADD MLOAD DUP7 PUSH1 0x0 ADD MLOAD DUP2 MLOAD DUP2 LT PUSH2 0x142C JUMPI PUSH2 0x142C PUSH2 0x48F4 JUMP JUMPDEST PUSH1 0x20 MUL PUSH1 0x20 ADD ADD MLOAD PUSH1 0x1 PUSH1 0x1 PUSH1 0xA0 SHL SUB AND CALLER PUSH1 0x1 PUSH1 0x1 PUSH1 0xA0 SHL SUB AND PUSH32 0x46E173C7568BB4F093E16923381DCBA2A6B48F9CC9E688867965731218500AD3 DUP5 PUSH1 0x3 SLOAD DUP11 PUSH1 0xC0 ADD MLOAD DUP11 DUP2 MLOAD DUP2 LT PUSH2 0x1482 JUMPI PUSH2 0x1482 PUSH2 0x48F4 JUMP JUMPDEST PUSH1 0x20 MUL PUSH1 0x20 ADD ADD MLOAD DUP12 PUSH1 0xE0 ADD MLOAD DUP12 DUP2 MLOAD DUP2 LT PUSH2 0x14A0 JUMPI PUSH2 0x14A0 PUSH2 0x48F4 JUMP JUMPDEST PUSH1 0x20 MUL PUSH1 0x20 ADD ADD MLOAD DUP9 PUSH2 0x14D0 JUMPI DUP13 PUSH1 0xA0 ADD MLOAD DUP13 DUP2 MLOAD DUP2 LT PUSH2 0x14C3 JUMPI PUSH2 0x14C3 PUSH2 0x48F4 JUMP JUMPDEST PUSH1 0x20 MUL PUSH1 0x20 ADD ADD MLOAD PUSH2 0x14D3 JUMP JUMPDEST PUSH1 0x1 JUMPDEST DUP14 PUSH2 0x180 ADD MLOAD DUP14 DUP2 MLOAD DUP2 LT PUSH2 0x14EA JUMPI PUSH2 0x14EA PUSH2 0x48F4 JUMP JUMPDEST PUSH1 0x20 MUL PUSH1 0x20 ADD ADD MLOAD PUSH1 0x40 MLOAD PUSH2 0x1504 SWAP7 SWAP6 SWAP5 SWAP4 SWAP3 SWAP2 SWAP1 PUSH2 0x44D7 JUMP JUMPDEST PUSH1 0x40 MLOAD DUP1 SWAP2 SUB SWAP1 LOG4 PUSH1 0x3 DUP1 SLOAD SWAP1 PUSH1 0x0 PUSH2 0x151C DUP4 PUSH2 0x48AD JUMP JUMPDEST SWAP2 SWAP1 POP SSTORE POP POP POP POP DUP1 DUP1 PUSH2 0x152F SWAP1 PUSH2 0x48AD JUMP JUMPDEST SWAP2 POP POP PUSH2 0xFD6 JUMP JUMPDEST POP PUSH2 0x1575 DUP2 CALLER ADDRESS PUSH2 0x1557 DUP6 PUSH1 0x80 ADD MLOAD DUP7 PUSH1 0x0 ADD MLOAD DUP8 PUSH1 0x20 ADD MLOAD PUSH1 0x0 PUSH2 0x2D38 JUMP JUMPDEST PUSH2 0x1570 DUP7 PUSH1 0xA0 ADD MLOAD DUP8 PUSH1 0x0 ADD MLOAD DUP9 PUSH1 0x20 ADD MLOAD PUSH1 0x0 PUSH2 0x2D38 JUMP JUMPDEST PUSH2 0x2DF7 JUMP JUMPDEST POP JUMP JUMPDEST PUSH2 0x1580 PUSH2 0x3A88 JUMP JUMPDEST PUSH1 0x40 MLOAD DUP1 PUSH2 0x1A0 ADD PUSH1 0x40 MSTORE DUP1 PUSH1 0x0 DUP2 MSTORE PUSH1 0x20 ADD PUSH1 0x1 DUP2 MSTORE PUSH1 0x20 ADD DUP10 DUP2 MSTORE PUSH1 0x20 ADD DUP9 DUP2 MSTORE PUSH1 0x20 ADD DUP8 DUP2 MSTORE PUSH1 0x20 ADD DUP7 DUP2 MSTORE PUSH1 0x20 ADD DUP6 DUP2 MSTORE PUSH1 0x20 ADD DUP5 DUP2 MSTORE PUSH1 0x20 ADD PUSH1 0x0 PUSH1 0x1 PUSH1 0x1 PUSH1 0x40 SHL SUB DUP2 GT ISZERO PUSH2 0x15D7 JUMPI PUSH2 0x15D7 PUSH2 0x490A JUMP JUMPDEST PUSH1 0x40 MLOAD SWAP1 DUP1 DUP3 MSTORE DUP1 PUSH1 0x20 MUL PUSH1 0x20 ADD DUP3 ADD PUSH1 0x40 MSTORE DUP1 ISZERO PUSH2 0x1600 JUMPI DUP2 PUSH1 0x20 ADD PUSH1 0x20 DUP3 MUL DUP1 CALLDATASIZE DUP4 CALLDATACOPY ADD SWAP1 POP JUMPDEST POP DUP2 MSTORE PUSH1 0x20 ADD PUSH1 0x0 PUSH1 0x40 MLOAD SWAP1 DUP1 DUP3 MSTORE DUP1 PUSH1 0x20 MUL PUSH1 0x20 ADD DUP3 ADD PUSH1 0x40 MSTORE DUP1 ISZERO PUSH2 0x1631 JUMPI DUP2 PUSH1 0x20 ADD PUSH1 0x20 DUP3 MUL DUP1 CALLDATASIZE DUP4 CALLDATACOPY ADD SWAP1 POP JUMPDEST POP DUP2 MSTORE PUSH1 0x20 ADD PUSH1 0x0 PUSH1 0x40 MLOAD SWAP1 DUP1 DUP3 MSTORE DUP1 PUSH1 0x20 MUL PUSH1 0x20 ADD DUP3 ADD PUSH1 0x40 MSTORE DUP1 ISZERO PUSH2 0x1662 JUMPI DUP2 PUSH1 0x20 ADD PUSH1 0x20 DUP3 MUL DUP1 CALLDATASIZE DUP4 CALLDATACOPY ADD SWAP1 POP JUMPDEST POP DUP2 MSTORE PUSH1 0x20 ADD PUSH1 0x0 PUSH1 0x40 MLOAD SWAP1 DUP1 DUP3 MSTORE DUP1 PUSH1 0x20 MUL PUSH1 0x20 ADD DUP3 ADD PUSH1 0x40 MSTORE DUP1 ISZERO PUSH2 0x1693 JUMPI DUP2 PUSH1 0x20 ADD PUSH1 0x20 DUP3 MUL DUP1 CALLDATASIZE DUP4 CALLDATACOPY ADD SWAP1 POP JUMPDEST POP DUP2 MSTORE PUSH1 0x20 ADD SWAP3 SWAP1 SWAP3 MSTORE POP SWAP7 SWAP6 POP POP POP POP POP POP JUMP JUMPDEST DUP1 MLOAD JUMPDEST DUP2 PUSH1 0x20 ADD MLOAD DUP2 LT ISZERO PUSH2 0xD14 JUMPI PUSH1 0x0 DUP3 PUSH1 0x60 ADD MLOAD DUP4 PUSH1 0x0 ADD MLOAD DUP2 MLOAD DUP2 LT PUSH2 0x16D3 JUMPI PUSH2 0x16D3 PUSH2 0x48F4 JUMP JUMPDEST PUSH1 0x20 MUL PUSH1 0x20 ADD ADD MLOAD DUP4 PUSH1 0x80 ADD MLOAD DUP4 DUP2 MLOAD DUP2 LT PUSH2 0x16F1 JUMPI PUSH2 0x16F1 PUSH2 0x48F4 JUMP JUMPDEST PUSH1 0x20 MUL PUSH1 0x20 ADD ADD MLOAD DUP5 PUSH2 0x100 ADD MLOAD DUP5 DUP2 MLOAD DUP2 LT PUSH2 0x1710 JUMPI PUSH2 0x1710 PUSH2 0x48F4 JUMP JUMPDEST PUSH1 0x20 MUL PUSH1 0x20 ADD ADD MLOAD PUSH1 0x40 MLOAD PUSH1 0x20 ADD PUSH2 0x172A SWAP4 SWAP3 SWAP2 SWAP1 PUSH2 0x4436 JUMP JUMPDEST PUSH1 0x40 MLOAD PUSH1 0x20 DUP2 DUP4 SUB SUB DUP2 MSTORE SWAP1 PUSH1 0x40 MSTORE DUP1 MLOAD SWAP1 PUSH1 0x20 ADD KECCAK256 SWAP1 POP PUSH1 0x0 DUP4 PUSH1 0x60 ADD MLOAD DUP5 PUSH1 0x0 ADD MLOAD DUP2 MLOAD DUP2 LT PUSH2 0x175E JUMPI PUSH2 0x175E PUSH2 0x48F4 JUMP JUMPDEST PUSH1 0x20 MUL PUSH1 0x20 ADD ADD MLOAD DUP5 PUSH1 0x80 ADD MLOAD DUP5 DUP2 MLOAD DUP2 LT PUSH2 0x177C JUMPI PUSH2 0x177C PUSH2 0x48F4 JUMP JUMPDEST PUSH1 0x20 MUL PUSH1 0x20 ADD ADD MLOAD DUP6 PUSH2 0x120 ADD MLOAD DUP6 DUP2 MLOAD DUP2 LT PUSH2 0x179B JUMPI PUSH2 0x179B PUSH2 0x48F4 JUMP JUMPDEST PUSH1 0x20 MUL PUSH1 0x20 ADD ADD MLOAD PUSH1 0x40 MLOAD PUSH1 0x20 ADD PUSH2 0x17B5 SWAP4 SWAP3 SWAP2 SWAP1 PUSH2 0x4436 JUMP JUMPDEST PUSH1 0x40 DUP1 MLOAD PUSH1 0x1F NOT DUP2 DUP5 SUB ADD DUP2 MSTORE DUP3 DUP3 MSTORE DUP1 MLOAD PUSH1 0x20 SWAP2 DUP3 ADD KECCAK256 PUSH1 0x0 DUP7 DUP2 MSTORE PUSH1 0x7 DUP4 MSTORE DUP4 DUP2 KECCAK256 DUP3 DUP3 MSTORE PUSH1 0x8 SWAP1 SWAP4 MSTORE DUP4 SWAP1 KECCAK256 PUSH1 0xE0 DUP6 ADD SWAP1 SWAP4 MSTORE DUP2 SLOAD SWAP1 SWAP5 POP SWAP1 SWAP3 PUSH2 0x180E SWAP2 DUP5 SWAP1 DUP3 SWAP1 PUSH1 0xFF AND PUSH1 0x1 DUP2 GT ISZERO PUSH2 0x931 JUMPI PUSH2 0x931 PUSH2 0x48DE JUMP JUMPDEST PUSH1 0x40 DUP1 MLOAD PUSH1 0x80 DUP2 ADD DUP3 MSTORE DUP3 SLOAD PUSH1 0x1 PUSH1 0x1 PUSH1 0xA0 SHL SUB DUP2 AND DUP3 MSTORE PUSH1 0x1 PUSH1 0xA0 SHL DUP2 DIV PUSH1 0xFF AND PUSH1 0x20 DUP4 ADD MSTORE PUSH1 0x1 PUSH1 0xA8 SHL DUP2 DIV PUSH4 0xFFFFFFFF AND SWAP3 DUP3 ADD SWAP3 SWAP1 SWAP3 MSTORE PUSH1 0x1 PUSH1 0xC8 SHL SWAP1 SWAP2 DIV PUSH2 0xFFFF AND PUSH1 0x60 DUP3 ADD MSTORE PUSH2 0x1863 SWAP1 PUSH2 0x2F78 JUMP JUMPDEST PUSH1 0x40 DUP1 MLOAD PUSH1 0x80 DUP2 ADD DUP3 MSTORE DUP3 SLOAD PUSH1 0x1 PUSH1 0x1 PUSH1 0xA0 SHL SUB DUP2 AND DUP3 MSTORE PUSH1 0x1 PUSH1 0xA0 SHL DUP2 DIV PUSH1 0xFF AND PUSH1 0x20 DUP4 ADD MSTORE PUSH1 0x1 PUSH1 0xA8 SHL DUP2 DIV PUSH4 0xFFFFFFFF AND SWAP3 DUP3 ADD SWAP3 SWAP1 SWAP3 MSTORE PUSH1 0x1 PUSH1 0xC8 SHL SWAP1 SWAP2 DIV PUSH2 0xFFFF AND PUSH1 0x60 DUP3 ADD MSTORE PUSH2 0x18B9 SWAP1 TIMESTAMP PUSH2 0x2FFE JUMP JUMPDEST PUSH1 0x40 DUP1 MLOAD PUSH1 0xE0 DUP2 ADD SWAP1 SWAP2 MSTORE DUP3 SLOAD PUSH2 0x19D7 SWAP2 SWAP1 DUP5 SWAP1 DUP3 SWAP1 PUSH1 0xFF AND PUSH1 0x1 DUP2 GT ISZERO PUSH2 0x18E3 JUMPI PUSH2 0x18E3 PUSH2 0x48DE JUMP JUMPDEST PUSH1 0x1 DUP2 GT ISZERO PUSH2 0x18F4 JUMPI PUSH2 0x18F4 PUSH2 0x48DE JUMP JUMPDEST DUP2 MSTORE DUP2 SLOAD PUSH1 0x1 PUSH1 0x1 PUSH1 0xA0 SHL SUB PUSH2 0x100 DUP3 DIV AND PUSH1 0x20 DUP4 ADD MSTORE PUSH1 0xFF PUSH1 0x1 PUSH1 0xA8 SHL DUP3 DIV DUP2 AND PUSH1 0x40 DUP5 ADD MSTORE PUSH1 0x1 PUSH1 0x1 PUSH1 0xE0 SHL SUB NOT PUSH1 0x1 PUSH1 0xB0 SHL DUP4 DIV PUSH1 0xE0 SHL AND PUSH1 0x60 DUP5 ADD MSTORE PUSH2 0xFFFF PUSH1 0x1 PUSH1 0xD0 SHL DUP4 DIV DUP2 AND PUSH1 0x80 DUP6 ADD MSTORE PUSH1 0x1 PUSH1 0xE0 SHL DUP4 DIV AND PUSH1 0xA0 DUP5 ADD MSTORE PUSH1 0xC0 SWAP1 SWAP3 ADD SWAP2 PUSH1 0x1 PUSH1 0xF0 SHL SWAP1 SWAP2 DIV AND PUSH1 0x3 DUP2 GT ISZERO PUSH2 0x1972 JUMPI PUSH2 0x1972 PUSH2 0x48DE JUMP JUMPDEST PUSH1 0x3 DUP2 GT ISZERO PUSH2 0x1983 JUMPI PUSH2 0x1983 PUSH2 0x48DE JUMP JUMPDEST SWAP1 MSTORE POP PUSH1 0x40 DUP1 MLOAD PUSH1 0x80 DUP2 ADD DUP3 MSTORE DUP5 SLOAD PUSH1 0x1 PUSH1 0x1 PUSH1 0xA0 SHL SUB DUP2 AND DUP3 MSTORE PUSH1 0x1 PUSH1 0xA0 SHL DUP2 DIV PUSH1 0xFF AND PUSH1 0x20 DUP4 ADD MSTORE PUSH1 0x1 PUSH1 0xA8 SHL DUP2 DIV PUSH4 0xFFFFFFFF AND SWAP3 DUP3 ADD SWAP3 SWAP1 SWAP3 MSTORE PUSH1 0x1 PUSH1 0xC8 SHL SWAP1 SWAP2 DIV PUSH2 0xFFFF AND PUSH1 0x60 DUP3 ADD MSTORE PUSH2 0x3054 JUMP JUMPDEST DUP6 PUSH2 0x100 ADD MLOAD DUP6 DUP2 MLOAD DUP2 LT PUSH2 0x19EE JUMPI PUSH2 0x19EE PUSH2 0x48F4 JUMP JUMPDEST PUSH1 0x20 MUL PUSH1 0x20 ADD ADD MLOAD PUSH32 0x4630B53A4335803B2A4F9C1CE896F4CADBF909907810E496EDA17614483D7B94 TIMESTAMP PUSH1 0x40 MLOAD PUSH2 0x1A31 SWAP2 SWAP1 PUSH4 0xFFFFFFFF SWAP2 SWAP1 SWAP2 AND DUP2 MSTORE PUSH1 0x20 ADD SWAP1 JUMP JUMPDEST PUSH1 0x40 MLOAD DUP1 SWAP2 SUB SWAP1 LOG2 DUP1 SLOAD DUP3 SLOAD PUSH2 0x1A5C SWAP2 PUSH2 0xFFFF PUSH1 0x1 PUSH1 0xC8 SHL SWAP1 SWAP2 DIV DUP2 AND SWAP2 PUSH1 0x1 PUSH1 0xE0 SHL SWAP1 DIV AND PUSH2 0x46DD JUMP JUMPDEST DUP3 SLOAD PUSH2 0xFFFF SWAP2 SWAP1 SWAP2 AND PUSH1 0x1 PUSH1 0xE0 SHL MUL PUSH2 0xFFFF PUSH1 0xE0 SHL NOT SWAP1 SWAP2 AND OR SWAP1 SWAP2 SSTORE POP PUSH1 0x0 SWAP1 DUP2 MSTORE PUSH1 0x8 PUSH1 0x20 MSTORE PUSH1 0x40 SWAP1 KECCAK256 DUP1 SLOAD PUSH1 0x1 PUSH1 0x1 PUSH1 0xD8 SHL SUB NOT AND SWAP1 SSTORE POP DUP1 PUSH2 0x1AA1 DUP2 PUSH2 0x48AD JUMP JUMPDEST SWAP2 POP POP PUSH2 0x16AB JUMP JUMPDEST DUP1 MLOAD PUSH1 0x20 DUP3 ADD MLOAD PUSH1 0x0 SWAP2 PUSH2 0x1ABC SWAP2 PUSH2 0x486A JUMP JUMPDEST PUSH1 0x1 PUSH1 0x1 PUSH1 0x40 SHL SUB DUP2 GT ISZERO PUSH2 0x1AD3 JUMPI PUSH2 0x1AD3 PUSH2 0x490A JUMP JUMPDEST PUSH1 0x40 MLOAD SWAP1 DUP1 DUP3 MSTORE DUP1 PUSH1 0x20 MUL PUSH1 0x20 ADD DUP3 ADD PUSH1 0x40 MSTORE DUP1 ISZERO PUSH2 0x1AFC JUMPI DUP2 PUSH1 0x20 ADD PUSH1 0x20 DUP3 MUL DUP1 CALLDATASIZE DUP4 CALLDATACOPY ADD SWAP1 POP JUMPDEST POP DUP3 MLOAD SWAP1 SWAP2 POP PUSH1 0x0 SWAP1 JUMPDEST DUP4 PUSH1 0x20 ADD MLOAD DUP2 LT ISZERO PUSH2 0x1E3E JUMPI PUSH1 0x0 DUP5 PUSH1 0x60 ADD MLOAD DUP6 PUSH1 0x0 ADD MLOAD DUP2 MLOAD DUP2 LT PUSH2 0x1B2E JUMPI PUSH2 0x1B2E PUSH2 0x48F4 JUMP JUMPDEST PUSH1 0x20 MUL PUSH1 0x20 ADD ADD MLOAD DUP6 PUSH1 0x80 ADD MLOAD DUP4 DUP2 MLOAD DUP2 LT PUSH2 0x1B4C JUMPI PUSH2 0x1B4C PUSH2 0x48F4 JUMP JUMPDEST PUSH1 0x20 MUL PUSH1 0x20 ADD ADD MLOAD DUP7 PUSH2 0x100 ADD MLOAD DUP5 DUP2 MLOAD DUP2 LT PUSH2 0x1B6B JUMPI PUSH2 0x1B6B PUSH2 0x48F4 JUMP JUMPDEST PUSH1 0x20 MUL PUSH1 0x20 ADD ADD MLOAD PUSH1 0x40 MLOAD PUSH1 0x20 ADD PUSH2 0x1B85 SWAP4 SWAP3 SWAP2 SWAP1 PUSH2 0x4436 JUMP JUMPDEST PUSH1 0x40 DUP1 MLOAD PUSH1 0x1F NOT DUP2 DUP5 SUB ADD DUP2 MSTORE SWAP2 DUP2 MSTORE DUP2 MLOAD PUSH1 0x20 SWAP3 DUP4 ADD KECCAK256 PUSH1 0x0 DUP2 DUP2 MSTORE PUSH1 0x7 SWAP1 SWAP4 MSTORE SWAP2 KECCAK256 DUP1 SLOAD SWAP2 SWAP3 POP SWAP1 PUSH1 0xFF AND PUSH1 0x1 DUP2 GT ISZERO PUSH2 0x1BC3 JUMPI PUSH2 0x1BC3 PUSH2 0x48DE JUMP JUMPDEST DUP7 PUSH1 0x40 ADD MLOAD DUP5 DUP2 MLOAD DUP2 LT PUSH2 0x1BD9 JUMPI PUSH2 0x1BD9 PUSH2 0x48F4 JUMP JUMPDEST PUSH1 0x20 MUL PUSH1 0x20 ADD ADD MLOAD PUSH1 0x1 DUP2 GT ISZERO PUSH2 0x1BF2 JUMPI PUSH2 0x1BF2 PUSH2 0x48DE JUMP JUMPDEST EQ PUSH2 0x1C0F JUMPI PUSH1 0x40 MLOAD PUSH3 0x461BCD PUSH1 0xE5 SHL DUP2 MSTORE PUSH1 0x4 ADD PUSH2 0x429 SWAP1 PUSH2 0x456A JUMP JUMPDEST DUP1 SLOAD PUSH1 0x1 PUSH1 0xD0 SHL DUP2 DIV PUSH2 0xFFFF SWAP1 DUP2 AND PUSH1 0x1 PUSH1 0xE0 SHL SWAP1 SWAP3 DIV AND EQ PUSH2 0x1C6D JUMPI PUSH1 0x40 MLOAD PUSH3 0x461BCD PUSH1 0xE5 SHL DUP2 MSTORE PUSH1 0x20 PUSH1 0x4 DUP3 ADD MSTORE PUSH1 0x16 PUSH1 0x24 DUP3 ADD MSTORE PUSH22 0x14995391950E8E9858DD1A5D995B1E481C995B9D1959 PUSH1 0x52 SHL PUSH1 0x44 DUP3 ADD MSTORE PUSH1 0x64 ADD PUSH2 0x429 JUMP JUMPDEST PUSH1 0x40 DUP1 MLOAD PUSH1 0xE0 DUP2 ADD SWAP1 SWAP2 MSTORE DUP2 SLOAD PUSH2 0x1C97 SWAP2 SWAP1 DUP4 SWAP1 DUP3 SWAP1 PUSH1 0xFF AND PUSH1 0x1 DUP2 GT ISZERO PUSH2 0x931 JUMPI PUSH2 0x931 PUSH2 0x48DE JUMP JUMPDEST PUSH1 0x40 DUP1 MLOAD PUSH1 0xE0 DUP2 ADD SWAP1 SWAP2 MSTORE DUP2 SLOAD PUSH2 0x1D6A SWAP2 SWAP1 DUP4 SWAP1 DUP3 SWAP1 PUSH1 0xFF AND PUSH1 0x1 DUP2 GT ISZERO PUSH2 0x1CC1 JUMPI PUSH2 0x1CC1 PUSH2 0x48DE JUMP JUMPDEST PUSH1 0x1 DUP2 GT ISZERO PUSH2 0x1CD2 JUMPI PUSH2 0x1CD2 PUSH2 0x48DE JUMP JUMPDEST DUP2 MSTORE DUP2 SLOAD PUSH1 0x1 PUSH1 0x1 PUSH1 0xA0 SHL SUB PUSH2 0x100 DUP3 DIV AND PUSH1 0x20 DUP4 ADD MSTORE PUSH1 0xFF PUSH1 0x1 PUSH1 0xA8 SHL DUP3 DIV DUP2 AND PUSH1 0x40 DUP5 ADD MSTORE PUSH1 0x1 PUSH1 0x1 PUSH1 0xE0 SHL SUB NOT PUSH1 0x1 PUSH1 0xB0 SHL DUP4 DIV PUSH1 0xE0 SHL AND PUSH1 0x60 DUP5 ADD MSTORE PUSH2 0xFFFF PUSH1 0x1 PUSH1 0xD0 SHL DUP4 DIV DUP2 AND PUSH1 0x80 DUP6 ADD MSTORE PUSH1 0x1 PUSH1 0xE0 SHL DUP4 DIV AND PUSH1 0xA0 DUP5 ADD MSTORE PUSH1 0xC0 SWAP1 SWAP3 ADD SWAP2 PUSH1 0x1 PUSH1 0xF0 SHL SWAP1 SWAP2 DIV AND PUSH1 0x3 DUP2 GT ISZERO PUSH2 0x1D50 JUMPI PUSH2 0x1D50 PUSH2 0x48DE JUMP JUMPDEST PUSH1 0x3 DUP2 GT ISZERO PUSH2 0x1D61 JUMPI PUSH2 0x1D61 PUSH2 0x48DE JUMP JUMPDEST SWAP1 MSTORE POP CALLER PUSH2 0x31F3 JUMP JUMPDEST DUP1 SLOAD DUP7 MLOAD PUSH1 0x1 PUSH1 0xD0 SHL SWAP1 SWAP2 DIV PUSH2 0xFFFF AND SWAP1 DUP7 SWAP1 PUSH2 0x1D87 SWAP1 DUP7 PUSH2 0x486A JUMP JUMPDEST DUP2 MLOAD DUP2 LT PUSH2 0x1D97 JUMPI PUSH2 0x1D97 PUSH2 0x48F4 JUMP JUMPDEST PUSH1 0x20 SWAP1 DUP2 MUL SWAP2 SWAP1 SWAP2 ADD ADD MSTORE DUP1 SLOAD PUSH2 0x100 DUP8 ADD MLOAD DUP1 MLOAD PUSH1 0xFF SWAP1 SWAP3 AND SWAP6 POP SWAP1 DUP5 SWAP1 DUP2 LT PUSH2 0x1DC4 JUMPI PUSH2 0x1DC4 PUSH2 0x48F4 JUMP JUMPDEST PUSH1 0x20 MUL PUSH1 0x20 ADD ADD MLOAD PUSH32 0xD0234BC8DD7E933F60CBC1E90FC139A8A9683AF1CB92743607DAFB9DFB70059B TIMESTAMP PUSH1 0x40 MLOAD PUSH2 0x1E07 SWAP2 SWAP1 PUSH4 0xFFFFFFFF SWAP2 SWAP1 SWAP2 AND DUP2 MSTORE PUSH1 0x20 ADD SWAP1 JUMP JUMPDEST PUSH1 0x40 MLOAD DUP1 SWAP2 SUB SWAP1 LOG2 POP PUSH1 0x0 SWAP1 DUP2 MSTORE PUSH1 0x7 PUSH1 0x20 MSTORE PUSH1 0x40 SWAP1 KECCAK256 DUP1 SLOAD PUSH1 0x1 PUSH1 0x1 PUSH1 0xF8 SHL SUB NOT AND SWAP1 SSTORE DUP1 PUSH2 0x1E36 DUP2 PUSH2 0x48AD JUMP JUMPDEST SWAP2 POP POP PUSH2 0x1B06 JUMP JUMPDEST POP PUSH2 0x1E71 DUP4 ADDRESS CALLER PUSH2 0x1E5E DUP8 PUSH1 0x80 ADD MLOAD DUP9 PUSH1 0x0 ADD MLOAD DUP10 PUSH1 0x20 ADD MLOAD PUSH1 0x0 PUSH2 0x2D38 JUMP JUMPDEST DUP8 MLOAD PUSH1 0x20 DUP10 ADD MLOAD PUSH2 0x1570 SWAP2 DUP10 SWAP2 DUP2 PUSH2 0x2D38 JUMP JUMPDEST POP POP POP JUMP JUMPDEST DUP1 MLOAD JUMPDEST DUP2 PUSH1 0x20 ADD MLOAD DUP2 LT ISZERO PUSH2 0xD14 JUMPI PUSH1 0x0 DUP3 PUSH1 0x60 ADD MLOAD DUP4 PUSH1 0x0 ADD MLOAD DUP2 MLOAD DUP2 LT PUSH2 0x1EA1 JUMPI PUSH2 0x1EA1 PUSH2 0x48F4 JUMP JUMPDEST PUSH1 0x20 MUL PUSH1 0x20 ADD ADD MLOAD DUP4 PUSH1 0x80 ADD MLOAD DUP4 DUP2 MLOAD DUP2 LT PUSH2 0x1EBF JUMPI PUSH2 0x1EBF PUSH2 0x48F4 JUMP JUMPDEST PUSH1 0x20 MUL PUSH1 0x20 ADD ADD MLOAD DUP5 PUSH2 0x100 ADD MLOAD DUP5 DUP2 MLOAD DUP2 LT PUSH2 0x1EDE JUMPI PUSH2 0x1EDE PUSH2 0x48F4 JUMP JUMPDEST PUSH1 0x20 MUL PUSH1 0x20 ADD ADD MLOAD PUSH1 0x40 MLOAD PUSH1 0x20 ADD PUSH2 0x1EF8 SWAP4 SWAP3 SWAP2 SWAP1 PUSH2 0x4436 JUMP JUMPDEST PUSH1 0x40 MLOAD PUSH1 0x20 DUP2 DUP4 SUB SUB DUP2 MSTORE SWAP1 PUSH1 0x40 MSTORE DUP1 MLOAD SWAP1 PUSH1 0x20 ADD KECCAK256 SWAP1 POP PUSH1 0x0 DUP4 PUSH1 0x60 ADD MLOAD DUP5 PUSH1 0x0 ADD MLOAD DUP2 MLOAD DUP2 LT PUSH2 0x1F2C JUMPI PUSH2 0x1F2C PUSH2 0x48F4 JUMP JUMPDEST PUSH1 0x20 MUL PUSH1 0x20 ADD ADD MLOAD DUP5 PUSH1 0x80 ADD MLOAD DUP5 DUP2 MLOAD DUP2 LT PUSH2 0x1F4A JUMPI PUSH2 0x1F4A PUSH2 0x48F4 JUMP JUMPDEST PUSH1 0x20 MUL PUSH1 0x20 ADD ADD MLOAD PUSH1 0x4 SLOAD PUSH1 0x40 MLOAD PUSH1 0x20 ADD PUSH2 0x1F67 SWAP4 SWAP3 SWAP2 SWAP1 PUSH2 0x4436 JUMP JUMPDEST PUSH1 0x40 DUP1 MLOAD PUSH1 0x1F NOT DUP2 DUP5 SUB ADD DUP2 MSTORE DUP3 DUP3 MSTORE DUP1 MLOAD PUSH1 0x20 SWAP2 DUP3 ADD KECCAK256 PUSH1 0x0 DUP7 DUP2 MSTORE PUSH1 0x7 DUP4 MSTORE DUP4 DUP2 KECCAK256 DUP3 DUP3 MSTORE PUSH1 0x8 SWAP1 SWAP4 MSTORE DUP4 SWAP1 KECCAK256 PUSH1 0xE0 DUP6 ADD SWAP1 SWAP4 MSTORE DUP2 SLOAD SWAP1 SWAP5 POP SWAP1 SWAP3 PUSH2 0x1FC0 SWAP2 DUP5 SWAP1 DUP3 SWAP1 PUSH1 0xFF AND PUSH1 0x1 DUP2 GT ISZERO PUSH2 0x931 JUMPI PUSH2 0x931 PUSH2 0x48DE JUMP JUMPDEST PUSH1 0x40 DUP1 MLOAD PUSH1 0x80 DUP2 ADD DUP3 MSTORE DUP3 SLOAD PUSH1 0x1 PUSH1 0x1 PUSH1 0xA0 SHL SUB DUP2 AND DUP3 MSTORE PUSH1 0x1 PUSH1 0xA0 SHL DUP2 DIV PUSH1 0xFF AND PUSH1 0x20 DUP4 ADD MSTORE PUSH1 0x1 PUSH1 0xA8 SHL DUP2 DIV PUSH4 0xFFFFFFFF AND SWAP3 DUP3 ADD SWAP3 SWAP1 SWAP3 MSTORE PUSH1 0x1 PUSH1 0xC8 SHL SWAP1 SWAP2 DIV PUSH2 0xFFFF AND PUSH1 0x60 DUP3 ADD MSTORE PUSH2 0x2015 SWAP1 PUSH2 0x324C JUMP JUMPDEST PUSH1 0x40 DUP1 MLOAD PUSH1 0xE0 DUP2 ADD SWAP1 SWAP2 MSTORE DUP3 SLOAD PUSH2 0x20EA SWAP2 SWAP1 DUP5 SWAP1 DUP3 SWAP1 PUSH1 0xFF AND PUSH1 0x1 DUP2 GT ISZERO PUSH2 0x203F JUMPI PUSH2 0x203F PUSH2 0x48DE JUMP JUMPDEST PUSH1 0x1 DUP2 GT ISZERO PUSH2 0x2050 JUMPI PUSH2 0x2050 PUSH2 0x48DE JUMP JUMPDEST DUP2 MSTORE DUP2 SLOAD PUSH1 0x1 PUSH1 0x1 PUSH1 0xA0 SHL SUB PUSH2 0x100 DUP3 DIV AND PUSH1 0x20 DUP4 ADD MSTORE PUSH1 0xFF PUSH1 0x1 PUSH1 0xA8 SHL DUP3 DIV DUP2 AND PUSH1 0x40 DUP5 ADD MSTORE PUSH1 0x1 PUSH1 0x1 PUSH1 0xE0 SHL SUB NOT PUSH1 0x1 PUSH1 0xB0 SHL DUP4 DIV PUSH1 0xE0 SHL AND PUSH1 0x60 DUP5 ADD MSTORE PUSH2 0xFFFF PUSH1 0x1 PUSH1 0xD0 SHL DUP4 DIV DUP2 AND PUSH1 0x80 DUP6 ADD MSTORE PUSH1 0x1 PUSH1 0xE0 SHL DUP4 DIV AND PUSH1 0xA0 DUP5 ADD MSTORE PUSH1 0xC0 SWAP1 SWAP3 ADD SWAP2 PUSH1 0x1 PUSH1 0xF0 SHL SWAP1 SWAP2 DIV AND PUSH1 0x3 DUP2 GT ISZERO PUSH2 0x20CE JUMPI PUSH2 0x20CE PUSH2 0x48DE JUMP JUMPDEST PUSH1 0x3 DUP2 GT ISZERO PUSH2 0x20DF JUMPI PUSH2 0x20DF PUSH2 0x48DE JUMP JUMPDEST SWAP1 MSTORE POP DUP8 DUP8 CALLER PUSH2 0x32FF JUMP JUMPDEST DUP2 SLOAD PUSH1 0xFF AND PUSH1 0x1 DUP2 GT ISZERO PUSH2 0x2100 JUMPI PUSH2 0x2100 PUSH2 0x48DE JUMP JUMPDEST DUP7 PUSH1 0x40 ADD MLOAD DUP7 DUP2 MLOAD DUP2 LT PUSH2 0x2116 JUMPI PUSH2 0x2116 PUSH2 0x48F4 JUMP JUMPDEST PUSH1 0x20 MUL PUSH1 0x20 ADD ADD MLOAD PUSH1 0x1 DUP2 GT ISZERO PUSH2 0x212F JUMPI PUSH2 0x212F PUSH2 0x48DE JUMP JUMPDEST EQ PUSH2 0x214C JUMPI PUSH1 0x40 MLOAD PUSH3 0x461BCD PUSH1 0xE5 SHL DUP2 MSTORE PUSH1 0x4 ADD PUSH2 0x429 SWAP1 PUSH2 0x456A JUMP JUMPDEST DUP2 SLOAD PUSH2 0x160 DUP8 ADD MLOAD DUP1 MLOAD PUSH1 0x1 PUSH1 0xE0 SHL SWAP1 SWAP3 DIV PUSH2 0xFFFF AND SWAP2 DUP8 SWAP1 DUP2 LT PUSH2 0x2173 JUMPI PUSH2 0x2173 PUSH2 0x48F4 JUMP JUMPDEST PUSH1 0x20 MUL PUSH1 0x20 ADD ADD MLOAD GT ISZERO PUSH2 0x21C9 JUMPI PUSH1 0x40 MLOAD PUSH3 0x461BCD PUSH1 0xE5 SHL DUP2 MSTORE PUSH1 0x20 PUSH1 0x4 DUP3 ADD MSTORE PUSH1 0x1A PUSH1 0x24 DUP3 ADD MSTORE PUSH32 0x52654E46543A3A696E76616C69642072656E7420616D6F756E74000000000000 PUSH1 0x44 DUP3 ADD MSTORE PUSH1 0x64 ADD PUSH2 0x429 JUMP JUMPDEST DUP2 SLOAD PUSH1 0x0 SWAP1 PUSH1 0x1 PUSH1 0xF0 SHL SWAP1 DIV PUSH1 0xFF AND PUSH1 0x3 DUP2 GT ISZERO PUSH2 0x21E9 JUMPI PUSH2 0x21E9 PUSH2 0x48DE JUMP JUMPDEST PUSH1 0x0 DUP1 SLOAD PUSH1 0x40 MLOAD PUSH4 0xC6EE427F PUSH1 0xE0 SHL DUP2 MSTORE PUSH1 0xFF DUP5 AND PUSH1 0x4 DUP3 ADD MSTORE SWAP3 SWAP4 POP SWAP1 SWAP2 PUSH1 0x1 PUSH1 0x1 PUSH1 0xA0 SHL SUB SWAP1 SWAP2 AND SWAP1 PUSH4 0xC6EE427F SWAP1 PUSH1 0x24 ADD PUSH1 0x20 PUSH1 0x40 MLOAD DUP1 DUP4 SUB DUP2 DUP7 DUP1 EXTCODESIZE ISZERO DUP1 ISZERO PUSH2 0x2235 JUMPI PUSH1 0x0 DUP1 REVERT JUMPDEST POP GAS STATICCALL ISZERO DUP1 ISZERO PUSH2 0x2249 JUMPI RETURNDATASIZE PUSH1 0x0 DUP1 RETURNDATACOPY RETURNDATASIZE PUSH1 0x0 REVERT JUMPDEST POP POP POP POP PUSH1 0x40 MLOAD RETURNDATASIZE PUSH1 0x1F NOT PUSH1 0x1F DUP3 ADD AND DUP3 ADD DUP1 PUSH1 0x40 MSTORE POP DUP2 ADD SWAP1 PUSH2 0x226D SWAP2 SWAP1 PUSH2 0x3E0F JUMP JUMPDEST SWAP1 POP PUSH1 0x0 DUP2 PUSH1 0x1 PUSH1 0x1 PUSH1 0xA0 SHL SUB AND PUSH4 0x313CE567 PUSH1 0x40 MLOAD DUP2 PUSH4 0xFFFFFFFF AND PUSH1 0xE0 SHL DUP2 MSTORE PUSH1 0x4 ADD PUSH1 0x20 PUSH1 0x40 MLOAD DUP1 DUP4 SUB DUP2 DUP7 DUP1 EXTCODESIZE ISZERO DUP1 ISZERO PUSH2 0x22AA JUMPI PUSH1 0x0 DUP1 REVERT JUMPDEST POP GAS STATICCALL ISZERO DUP1 ISZERO PUSH2 0x22BE JUMPI RETURNDATASIZE PUSH1 0x0 DUP1 RETURNDATACOPY RETURNDATASIZE PUSH1 0x0 REVERT JUMPDEST POP POP POP POP PUSH1 0x40 MLOAD RETURNDATASIZE PUSH1 0x1F NOT PUSH1 0x1F DUP3 ADD AND DUP3 ADD DUP1 PUSH1 0x40 MSTORE POP DUP2 ADD SWAP1 PUSH2 0x22E2 SWAP2 SWAP1 PUSH2 0x43DE JUMP JUMPDEST PUSH1 0xFF AND SWAP1 POP PUSH1 0x0 PUSH2 0x22F4 DUP3 PUSH1 0xA PUSH2 0x4780 JUMP JUMPDEST DUP7 SLOAD SWAP1 SWAP2 POP PUSH1 0x0 SWAP1 PUSH2 0x2310 SWAP1 PUSH1 0x1 PUSH1 0xB0 SHL SWAP1 DIV PUSH1 0xE0 SHL DUP4 PUSH2 0x3473 JUMP JUMPDEST DUP12 PUSH2 0x140 ADD MLOAD DUP12 DUP2 MLOAD DUP2 LT PUSH2 0x2327 JUMPI PUSH2 0x2327 PUSH2 0x48F4 JUMP JUMPDEST PUSH1 0x20 MUL PUSH1 0x20 ADD ADD MLOAD PUSH1 0xFF AND PUSH2 0x233C SWAP2 SWAP1 PUSH2 0x4828 JUMP JUMPDEST SWAP1 POP PUSH1 0x0 DUP2 GT PUSH2 0x235E JUMPI PUSH1 0x40 MLOAD PUSH3 0x461BCD PUSH1 0xE5 SHL DUP2 MSTORE PUSH1 0x4 ADD PUSH2 0x429 SWAP1 PUSH2 0x45D8 JUMP JUMPDEST PUSH2 0x2373 PUSH1 0x1 PUSH1 0x1 PUSH1 0xA0 SHL SUB DUP6 AND CALLER ADDRESS DUP5 PUSH2 0x3502 JUMP JUMPDEST POP POP PUSH1 0x40 MLOAD DUP1 PUSH1 0x80 ADD PUSH1 0x40 MSTORE DUP1 CALLER PUSH1 0x1 PUSH1 0x1 PUSH1 0xA0 SHL SUB AND DUP2 MSTORE PUSH1 0x20 ADD DUP11 PUSH2 0x140 ADD MLOAD DUP11 DUP2 MLOAD DUP2 LT PUSH2 0x23A6 JUMPI PUSH2 0x23A6 PUSH2 0x48F4 JUMP JUMPDEST PUSH1 0x20 MUL PUSH1 0x20 ADD ADD MLOAD PUSH1 0xFF AND DUP2 MSTORE PUSH1 0x20 ADD TIMESTAMP PUSH4 0xFFFFFFFF AND DUP2 MSTORE PUSH1 0x20 ADD DUP11 PUSH2 0x160 ADD MLOAD DUP11 DUP2 MLOAD DUP2 LT PUSH2 0x23D9 JUMPI PUSH2 0x23D9 PUSH2 0x48F4 JUMP JUMPDEST PUSH1 0x20 SWAP1 DUP2 MUL SWAP2 SWAP1 SWAP2 ADD DUP2 ADD MLOAD PUSH1 0xFF SWAP1 DUP2 AND SWAP1 SWAP3 MSTORE PUSH1 0x0 DUP10 DUP2 MSTORE PUSH1 0x8 DUP3 MSTORE PUSH1 0x40 SWAP1 DUP2 SWAP1 KECCAK256 DUP5 MLOAD DUP2 SLOAD SWAP4 DUP7 ADD MLOAD SWAP3 DUP7 ADD MLOAD PUSH1 0x60 SWAP1 SWAP7 ADD MLOAD PUSH2 0xFFFF AND PUSH1 0x1 PUSH1 0xC8 SHL MUL PUSH2 0xFFFF PUSH1 0xC8 SHL NOT PUSH4 0xFFFFFFFF SWAP1 SWAP8 AND PUSH1 0x1 PUSH1 0xA8 SHL MUL SWAP7 SWAP1 SWAP7 AND PUSH6 0xFFFFFFFFFFFF PUSH1 0xA8 SHL NOT SWAP4 SWAP1 SWAP6 AND PUSH1 0x1 PUSH1 0xA0 SHL MUL PUSH1 0x1 PUSH1 0x1 PUSH1 0xA8 SHL SUB NOT SWAP1 SWAP5 AND PUSH1 0x1 PUSH1 0x1 PUSH1 0xA0 SHL SUB SWAP1 SWAP2 AND OR SWAP3 SWAP1 SWAP3 OR AND SWAP2 SWAP1 SWAP2 OR SWAP2 SWAP1 SWAP2 OR SWAP1 SSTORE PUSH2 0x160 DUP10 ADD MLOAD DUP1 MLOAD DUP10 SWAP1 DUP2 LT PUSH2 0x2485 JUMPI PUSH2 0x2485 PUSH2 0x48F4 JUMP JUMPDEST PUSH1 0x20 MUL PUSH1 0x20 ADD ADD MLOAD PUSH1 0xFF AND PUSH1 0x7 PUSH1 0x0 DUP10 DUP2 MSTORE PUSH1 0x20 ADD SWAP1 DUP2 MSTORE PUSH1 0x20 ADD PUSH1 0x0 KECCAK256 PUSH1 0x0 ADD PUSH1 0x1C DUP3 DUP3 DUP3 SWAP1 SLOAD SWAP1 PUSH2 0x100 EXP SWAP1 DIV PUSH2 0xFFFF AND PUSH2 0x24C2 SWAP2 SWAP1 PUSH2 0x4847 JUMP JUMPDEST SWAP3 POP PUSH2 0x100 EXP DUP2 SLOAD DUP2 PUSH2 0xFFFF MUL NOT AND SWAP1 DUP4 PUSH2 0xFFFF AND MUL OR SWAP1 SSTORE POP PUSH1 0x4 SLOAD DUP10 PUSH2 0x100 ADD MLOAD DUP10 DUP2 MLOAD DUP2 LT PUSH2 0x24F6 JUMPI PUSH2 0x24F6 PUSH2 0x48F4 JUMP JUMPDEST PUSH1 0x20 MUL PUSH1 0x20 ADD ADD MLOAD CALLER PUSH1 0x1 PUSH1 0x1 PUSH1 0xA0 SHL SUB AND PUSH32 0x61E1A1E6F89EABA4BA0119B0023BD32B1BB0412AB96CCD8D0588A3E98A097631 DUP13 PUSH2 0x160 ADD MLOAD DUP13 DUP2 MLOAD DUP2 LT PUSH2 0x2540 JUMPI PUSH2 0x2540 PUSH2 0x48F4 JUMP JUMPDEST PUSH1 0x20 MUL PUSH1 0x20 ADD ADD MLOAD DUP14 PUSH2 0x140 ADD MLOAD DUP14 DUP2 MLOAD DUP2 LT PUSH2 0x255F JUMPI PUSH2 0x255F PUSH2 0x48F4 JUMP JUMPDEST PUSH1 0x20 SWAP1 DUP2 MUL SWAP2 SWAP1 SWAP2 ADD DUP2 ADD MLOAD DUP11 SLOAD PUSH1 0x40 DUP1 MLOAD PUSH1 0xFF SWAP6 DUP7 AND DUP2 MSTORE SWAP5 SWAP1 SWAP3 AND SWAP3 DUP5 ADD SWAP3 SWAP1 SWAP3 MSTORE PUSH1 0x1 PUSH1 0xA8 SHL SWAP1 SWAP2 DIV PUSH4 0xFFFFFFFF AND SWAP1 DUP3 ADD MSTORE PUSH1 0x60 ADD PUSH1 0x40 MLOAD DUP1 SWAP2 SUB SWAP1 LOG4 PUSH1 0x4 DUP1 SLOAD SWAP1 PUSH1 0x0 PUSH2 0x25B0 DUP4 PUSH2 0x48AD JUMP JUMPDEST SWAP2 SWAP1 POP SSTORE POP POP POP POP POP POP POP POP DUP1 DUP1 PUSH2 0x25C7 SWAP1 PUSH2 0x48AD JUMP JUMPDEST SWAP2 POP POP PUSH2 0x1E79 JUMP JUMPDEST PUSH2 0x25D7 PUSH2 0x3A88 JUMP JUMPDEST PUSH1 0x40 MLOAD DUP1 PUSH2 0x1A0 ADD PUSH1 0x40 MSTORE DUP1 PUSH1 0x0 DUP2 MSTORE PUSH1 0x20 ADD PUSH1 0x1 DUP2 MSTORE PUSH1 0x20 ADD DUP9 DUP2 MSTORE PUSH1 0x20 ADD DUP8 DUP2 MSTORE PUSH1 0x20 ADD DUP7 DUP2 MSTORE PUSH1 0x20 ADD PUSH1 0x0 PUSH1 0x1 PUSH1 0x1 PUSH1 0x40 SHL SUB DUP2 GT ISZERO PUSH2 0x261C JUMPI PUSH2 0x261C PUSH2 0x490A JUMP JUMPDEST PUSH1 0x40 MLOAD SWAP1 DUP1 DUP3 MSTORE DUP1 PUSH1 0x20 MUL PUSH1 0x20 ADD DUP3 ADD PUSH1 0x40 MSTORE DUP1 ISZERO PUSH2 0x2645 JUMPI DUP2 PUSH1 0x20 ADD PUSH1 0x20 DUP3 MUL DUP1 CALLDATASIZE DUP4 CALLDATACOPY ADD SWAP1 POP JUMPDEST POP DUP2 MSTORE PUSH1 0x20 ADD PUSH1 0x0 PUSH1 0x40 MLOAD SWAP1 DUP1 DUP3 MSTORE DUP1 PUSH1 0x20 MUL PUSH1 0x20 ADD DUP3 ADD PUSH1 0x40 MSTORE DUP1 ISZERO PUSH2 0x2676 JUMPI DUP2 PUSH1 0x20 ADD PUSH1 0x20 DUP3 MUL DUP1 CALLDATASIZE DUP4 CALLDATACOPY ADD SWAP1 POP JUMPDEST POP DUP2 MSTORE PUSH1 0x20 ADD PUSH1 0x0 PUSH1 0x40 MLOAD SWAP1 DUP1 DUP3 MSTORE DUP1 PUSH1 0x20 MUL PUSH1 0x20 ADD DUP3 ADD PUSH1 0x40 MSTORE DUP1 ISZERO PUSH2 0x26A7 JUMPI DUP2 PUSH1 0x20 ADD PUSH1 0x20 DUP3 MUL DUP1 CALLDATASIZE DUP4 CALLDATACOPY ADD SWAP1 POP JUMPDEST POP DUP2 MSTORE PUSH1 0x20 DUP1 DUP3 ADD SWAP7 SWAP1 SWAP7 MSTORE PUSH1 0x40 DUP1 MLOAD PUSH1 0x0 DUP1 DUP3 MSTORE DUP2 DUP10 ADD DUP4 MSTORE DUP3 DUP5 ADD SWAP2 SWAP1 SWAP2 MSTORE PUSH1 0x60 DUP4 ADD SWAP7 SWAP1 SWAP7 MSTORE PUSH1 0x80 DUP3 ADD SWAP5 SWAP1 SWAP5 MSTORE DUP4 MLOAD SWAP5 DUP6 MSTORE SWAP5 DUP5 ADD SWAP1 SWAP3 MSTORE POP PUSH1 0xA0 SWAP1 SWAP3 ADD MSTORE SWAP4 SWAP3 POP POP POP JUMP JUMPDEST PUSH2 0x26FE DUP2 PUSH1 0x20 ADD MLOAD PUSH2 0x356D JUMP JUMPDEST PUSH1 0x40 DUP2 ADD MLOAD PUSH1 0xFF AND PUSH2 0x2749 JUMPI PUSH1 0x40 MLOAD PUSH3 0x461BCD PUSH1 0xE5 SHL DUP2 MSTORE PUSH1 0x20 PUSH1 0x4 DUP3 ADD MSTORE PUSH1 0x14 PUSH1 0x24 DUP3 ADD MSTORE PUSH20 0x52654E46543A3A6475726174696F6E207A65726F PUSH1 0x60 SHL PUSH1 0x44 DUP3 ADD MSTORE PUSH1 0x64 ADD PUSH2 0x429 JUMP JUMPDEST PUSH1 0x60 DUP2 ADD MLOAD PUSH1 0x1 PUSH1 0x1 PUSH1 0xE0 SHL SUB NOT AND PUSH2 0x1575 JUMPI PUSH1 0x40 MLOAD PUSH3 0x461BCD PUSH1 0xE5 SHL DUP2 MSTORE PUSH1 0x4 ADD PUSH2 0x429 SWAP1 PUSH2 0x45D8 JUMP JUMPDEST DUP2 PUSH1 0x1 PUSH1 0x1 PUSH1 0xA0 SHL SUB AND DUP4 PUSH1 0x0 ADD MLOAD PUSH1 0x1 PUSH1 0x1 PUSH1 0xA0 SHL SUB AND EQ PUSH2 0x27CD JUMPI PUSH1 0x40 MLOAD PUSH3 0x461BCD PUSH1 0xE5 SHL DUP2 MSTORE PUSH1 0x20 PUSH1 0x4 DUP3 ADD MSTORE PUSH1 0x11 PUSH1 0x24 DUP3 ADD MSTORE PUSH17 0x2932A7232A1D1D3737BA103932B73A32B9 PUSH1 0x79 SHL PUSH1 0x44 DUP3 ADD MSTORE PUSH1 0x64 ADD PUSH2 0x429 JUMP JUMPDEST PUSH2 0x27D7 DUP4 DUP3 PUSH2 0x35B9 JUMP JUMPDEST ISZERO PUSH2 0x1E71 JUMPI PUSH1 0x40 MLOAD PUSH3 0x461BCD PUSH1 0xE5 SHL DUP2 MSTORE PUSH1 0x20 PUSH1 0x4 DUP3 ADD MSTORE PUSH1 0x17 PUSH1 0x24 DUP3 ADD MSTORE PUSH32 0x52654E46543A3A706173742072657475726E2064617465000000000000000000 PUSH1 0x44 DUP3 ADD MSTORE PUSH1 0x64 ADD PUSH2 0x429 JUMP JUMPDEST PUSH1 0x0 DUP4 PUSH1 0xC0 ADD MLOAD PUSH1 0x3 DUP2 GT ISZERO PUSH2 0x283C JUMPI PUSH2 0x283C PUSH2 0x48DE JUMP JUMPDEST PUSH1 0x0 DUP1 SLOAD PUSH1 0x40 MLOAD PUSH4 0xC6EE427F PUSH1 0xE0 SHL DUP2 MSTORE PUSH1 0xFF DUP5 AND PUSH1 0x4 DUP3 ADD MSTORE SWAP3 SWAP4 POP SWAP1 SWAP2 PUSH1 0x1 PUSH1 0x1 PUSH1 0xA0 SHL SUB SWAP1 SWAP2 AND SWAP1 PUSH4 0xC6EE427F SWAP1 PUSH1 0x24 ADD PUSH1 0x20 PUSH1 0x40 MLOAD DUP1 DUP4 SUB DUP2 DUP7 DUP1 EXTCODESIZE ISZERO DUP1 ISZERO PUSH2 0x2888 JUMPI PUSH1 0x0 DUP1 REVERT JUMPDEST POP GAS STATICCALL ISZERO DUP1 ISZERO PUSH2 0x289C JUMPI RETURNDATASIZE PUSH1 0x0 DUP1 RETURNDATACOPY RETURNDATASIZE PUSH1 0x0 REVERT JUMPDEST POP POP POP POP PUSH1 0x40 MLOAD RETURNDATASIZE PUSH1 0x1F NOT PUSH1 0x1F DUP3 ADD AND DUP3 ADD DUP1 PUSH1 0x40 MSTORE POP DUP2 ADD SWAP1 PUSH2 0x28C0 SWAP2 SWAP1 PUSH2 0x3E0F JUMP JUMPDEST SWAP1 POP PUSH1 0x0 DUP2 PUSH1 0x1 PUSH1 0x1 PUSH1 0xA0 SHL SUB AND PUSH4 0x313CE567 PUSH1 0x40 MLOAD DUP2 PUSH4 0xFFFFFFFF AND PUSH1 0xE0 SHL DUP2 MSTORE PUSH1 0x4 ADD PUSH1 0x20 PUSH1 0x40 MLOAD DUP1 DUP4 SUB DUP2 DUP7 DUP1 EXTCODESIZE ISZERO DUP1 ISZERO PUSH2 0x28FD JUMPI PUSH1 0x0 DUP1 REVERT JUMPDEST POP GAS STATICCALL ISZERO DUP1 ISZERO PUSH2 0x2911 JUMPI RETURNDATASIZE PUSH1 0x0 DUP1 RETURNDATACOPY RETURNDATASIZE PUSH1 0x0 REVERT JUMPDEST POP POP POP POP PUSH1 0x40 MLOAD RETURNDATASIZE PUSH1 0x1F NOT PUSH1 0x1F DUP3 ADD AND DUP3 ADD DUP1 PUSH1 0x40 MSTORE POP DUP2 ADD SWAP1 PUSH2 0x2935 SWAP2 SWAP1 PUSH2 0x43DE JUMP JUMPDEST PUSH1 0xFF AND SWAP1 POP PUSH1 0x0 PUSH2 0x2947 DUP3 PUSH1 0xA PUSH2 0x4780 JUMP JUMPDEST SWAP1 POP PUSH1 0x0 PUSH2 0x2959 DUP9 PUSH1 0x60 ADD MLOAD DUP4 PUSH2 0x3473 JUMP JUMPDEST SWAP1 POP PUSH1 0x0 DUP8 PUSH1 0x20 ADD MLOAD PUSH1 0xFF AND DUP3 PUSH2 0x2970 SWAP2 SWAP1 PUSH2 0x4828 JUMP JUMPDEST SWAP1 POP PUSH1 0x0 PUSH3 0x15180 PUSH2 0x2982 DUP5 DUP11 PUSH2 0x4828 JUMP JUMPDEST PUSH2 0x298C SWAP2 SWAP1 PUSH2 0x471B JUMP JUMPDEST SWAP1 POP PUSH1 0x0 DUP3 GT PUSH2 0x29EA JUMPI PUSH1 0x40 MLOAD PUSH3 0x461BCD PUSH1 0xE5 SHL DUP2 MSTORE PUSH1 0x20 PUSH1 0x4 DUP3 ADD MSTORE PUSH1 0x23 PUSH1 0x24 DUP3 ADD MSTORE PUSH32 0x52654E46543A3A746F74616C2072656E746572207061796D656E74206973207A PUSH1 0x44 DUP3 ADD MSTORE PUSH3 0x65726F PUSH1 0xE8 SHL PUSH1 0x64 DUP3 ADD MSTORE PUSH1 0x84 ADD PUSH2 0x429 JUMP JUMPDEST PUSH1 0x0 DUP2 GT PUSH2 0x2A3A JUMPI PUSH1 0x40 MLOAD PUSH3 0x461BCD PUSH1 0xE5 SHL DUP2 MSTORE PUSH1 0x20 PUSH1 0x4 DUP3 ADD MSTORE PUSH1 0x1D PUSH1 0x24 DUP3 ADD MSTORE PUSH32 0x52654E46543A3A6C656E646572207061796D656E74206973207A65726F000000 PUSH1 0x44 DUP3 ADD MSTORE PUSH1 0x64 ADD PUSH2 0x429 JUMP JUMPDEST PUSH1 0x0 PUSH2 0x2A46 DUP3 DUP5 PUSH2 0x486A JUMP JUMPDEST SWAP1 POP PUSH1 0x6 SLOAD PUSH1 0x0 EQ PUSH2 0x2A72 JUMPI PUSH1 0x0 PUSH2 0x2A62 DUP4 DUP14 PUSH1 0xC0 ADD MLOAD PUSH2 0x3647 JUMP JUMPDEST SWAP1 POP PUSH2 0x2A6E DUP2 DUP5 PUSH2 0x486A JUMP JUMPDEST SWAP3 POP POP JUMPDEST PUSH1 0x20 DUP12 ADD MLOAD PUSH2 0x2A8C SWAP1 PUSH1 0x1 PUSH1 0x1 PUSH1 0xA0 SHL SUB DUP10 AND SWAP1 DUP5 PUSH2 0x3724 JUMP JUMPDEST DUP1 ISZERO PUSH2 0x2AA9 JUMPI DUP10 MLOAD PUSH2 0x2AA9 SWAP1 PUSH1 0x1 PUSH1 0x1 PUSH1 0xA0 SHL SUB DUP10 AND SWAP1 DUP4 PUSH2 0x3724 JUMP JUMPDEST POP POP POP POP POP POP POP POP POP POP POP JUMP JUMPDEST PUSH1 0x0 DUP3 PUSH1 0xA0 ADD MLOAD DUP3 DUP2 MLOAD DUP2 LT PUSH2 0x2ACE JUMPI PUSH2 0x2ACE PUSH2 0x48F4 JUMP JUMPDEST PUSH1 0x20 MUL PUSH1 0x20 ADD ADD MLOAD GT PUSH2 0x2B23 JUMPI PUSH1 0x40 MLOAD PUSH3 0x461BCD PUSH1 0xE5 SHL DUP2 MSTORE PUSH1 0x20 PUSH1 0x4 DUP3 ADD MSTORE PUSH1 0x1A PUSH1 0x24 DUP3 ADD MSTORE PUSH32 0x52654E46543A3A6C656E6420616D6F756E74206973207A65726F000000000000 PUSH1 0x44 DUP3 ADD MSTORE PUSH1 0x64 ADD PUSH2 0x429 JUMP JUMPDEST PUSH1 0xFF DUP1 AND DUP3 PUSH1 0xA0 ADD MLOAD DUP3 DUP2 MLOAD DUP2 LT PUSH2 0x2B3D JUMPI PUSH2 0x2B3D PUSH2 0x48F4 JUMP JUMPDEST PUSH1 0x20 MUL PUSH1 0x20 ADD ADD MLOAD GT ISZERO PUSH2 0x2B63 JUMPI PUSH1 0x40 MLOAD PUSH3 0x461BCD PUSH1 0xE5 SHL DUP2 MSTORE PUSH1 0x4 ADD PUSH2 0x429 SWAP1 PUSH2 0x460F JUMP JUMPDEST PUSH1 0x0 DUP3 PUSH1 0xC0 ADD MLOAD DUP3 DUP2 MLOAD DUP2 LT PUSH2 0x2B7B JUMPI PUSH2 0x2B7B PUSH2 0x48F4 JUMP JUMPDEST PUSH1 0x20 MUL PUSH1 0x20 ADD ADD MLOAD PUSH1 0xFF AND GT PUSH2 0x2BA3 JUMPI PUSH1 0x40 MLOAD PUSH3 0x461BCD PUSH1 0xE5 SHL DUP2 MSTORE PUSH1 0x4 ADD PUSH2 0x429 SWAP1 PUSH2 0x45A1 JUMP JUMPDEST PUSH1 0xFF DUP1 AND DUP3 PUSH1 0xC0 ADD MLOAD DUP3 DUP2 MLOAD DUP2 LT PUSH2 0x2BBD JUMPI PUSH2 0x2BBD PUSH2 0x48F4 JUMP JUMPDEST PUSH1 0x20 MUL PUSH1 0x20 ADD ADD MLOAD PUSH1 0xFF AND GT ISZERO PUSH2 0x2BE6 JUMPI PUSH1 0x40 MLOAD PUSH3 0x461BCD PUSH1 0xE5 SHL DUP2 MSTORE PUSH1 0x4 ADD PUSH2 0x429 SWAP1 PUSH2 0x460F JUMP JUMPDEST PUSH1 0x0 DUP3 PUSH1 0xE0 ADD MLOAD DUP3 DUP2 MLOAD DUP2 LT PUSH2 0x2BFE JUMPI PUSH2 0x2BFE PUSH2 0x48F4 JUMP JUMPDEST PUSH1 0x20 MUL PUSH1 0x20 ADD ADD MLOAD PUSH1 0xE0 SHR PUSH4 0xFFFFFFFF AND GT PUSH2 0xD14 JUMPI PUSH1 0x40 MLOAD PUSH3 0x461BCD PUSH1 0xE5 SHL DUP2 MSTORE PUSH1 0x4 ADD PUSH2 0x429 SWAP1 PUSH2 0x45D8 JUMP JUMPDEST PUSH2 0x2C39 DUP2 PUSH1 0x20 ADD MLOAD PUSH2 0x3754 JUMP JUMPDEST PUSH1 0x40 DUP2 ADD MLOAD PUSH1 0xFF AND ISZERO PUSH2 0x2C89 JUMPI PUSH1 0x40 MLOAD PUSH3 0x461BCD PUSH1 0xE5 SHL DUP2 MSTORE PUSH1 0x20 PUSH1 0x4 DUP3 ADD MSTORE PUSH1 0x18 PUSH1 0x24 DUP3 ADD MSTORE PUSH24 0x52654E46543A3A6475726174696F6E206E6F74207A65726F PUSH1 0x40 SHL PUSH1 0x44 DUP3 ADD MSTORE PUSH1 0x64 ADD PUSH2 0x429 JUMP JUMPDEST PUSH1 0x60 DUP2 ADD MLOAD PUSH1 0x1 PUSH1 0x1 PUSH1 0xE0 SHL SUB NOT AND ISZERO PUSH2 0x1575 JUMPI PUSH1 0x40 MLOAD PUSH3 0x461BCD PUSH1 0xE5 SHL DUP2 MSTORE PUSH1 0x20 PUSH1 0x4 DUP3 ADD MSTORE PUSH1 0x1A PUSH1 0x24 DUP3 ADD MSTORE PUSH32 0x52654E46543A3A72656E74207072696365206E6F74207A65726F000000000000 PUSH1 0x44 DUP3 ADD MSTORE PUSH1 0x64 ADD PUSH2 0x429 JUMP JUMPDEST PUSH1 0x0 DUP2 PUSH1 0xFF AND GT PUSH2 0x1575 JUMPI PUSH1 0x40 MLOAD PUSH3 0x461BCD PUSH1 0xE5 SHL DUP2 MSTORE PUSH1 0x20 PUSH1 0x4 DUP3 ADD MSTORE PUSH1 0x18 PUSH1 0x24 DUP3 ADD MSTORE PUSH32 0x52654E46543A3A746F6B656E2069732073656E74696E656C0000000000000000 PUSH1 0x44 DUP3 ADD MSTORE PUSH1 0x64 ADD PUSH2 0x429 JUMP JUMPDEST PUSH1 0x60 PUSH2 0x2D44 DUP5 DUP5 PUSH2 0x486A JUMP JUMPDEST PUSH1 0x1 PUSH1 0x1 PUSH1 0x40 SHL SUB DUP2 GT ISZERO PUSH2 0x2D5B JUMPI PUSH2 0x2D5B PUSH2 0x490A JUMP JUMPDEST PUSH1 0x40 MLOAD SWAP1 DUP1 DUP3 MSTORE DUP1 PUSH1 0x20 MUL PUSH1 0x20 ADD DUP3 ADD PUSH1 0x40 MSTORE DUP1 ISZERO PUSH2 0x2D84 JUMPI DUP2 PUSH1 0x20 ADD PUSH1 0x20 DUP3 MUL DUP1 CALLDATASIZE DUP4 CALLDATACOPY ADD SWAP1 POP JUMPDEST POP SWAP1 POP DUP4 JUMPDEST DUP4 DUP2 LT ISZERO PUSH2 0x2DEE JUMPI DUP6 PUSH2 0x2D9C DUP5 DUP4 PUSH2 0x486A JUMP JUMPDEST DUP2 MLOAD DUP2 LT PUSH2 0x2DAC JUMPI PUSH2 0x2DAC PUSH2 0x48F4 JUMP JUMPDEST PUSH1 0x20 MUL PUSH1 0x20 ADD ADD MLOAD DUP3 DUP7 DUP4 PUSH2 0x2DC1 SWAP2 SWAP1 PUSH2 0x486A JUMP JUMPDEST DUP2 MLOAD DUP2 LT PUSH2 0x2DD1 JUMPI PUSH2 0x2DD1 PUSH2 0x48F4 JUMP JUMPDEST PUSH1 0x20 SWAP1 DUP2 MUL SWAP2 SWAP1 SWAP2 ADD ADD MSTORE DUP1 PUSH2 0x2DE6 DUP2 PUSH2 0x48AD JUMP JUMPDEST SWAP2 POP POP PUSH2 0x2D89 JUMP JUMPDEST POP SWAP5 SWAP4 POP POP POP POP JUMP JUMPDEST PUSH1 0x0 PUSH1 0x40 DUP7 ADD MLOAD DUP7 MLOAD DUP2 MLOAD DUP2 LT PUSH2 0x2E10 JUMPI PUSH2 0x2E10 PUSH2 0x48F4 JUMP JUMPDEST PUSH1 0x20 MUL PUSH1 0x20 ADD ADD MLOAD PUSH1 0x1 DUP2 GT ISZERO PUSH2 0x2E29 JUMPI PUSH2 0x2E29 PUSH2 0x48DE JUMP JUMPDEST EQ ISZERO PUSH2 0x2EEF JUMPI PUSH1 0x60 DUP6 ADD MLOAD DUP6 MLOAD DUP2 MLOAD DUP2 LT PUSH2 0x2E46 JUMPI PUSH2 0x2E46 PUSH2 0x48F4 JUMP JUMPDEST PUSH1 0x20 MUL PUSH1 0x20 ADD ADD MLOAD PUSH1 0x1 PUSH1 0x1 PUSH1 0xA0 SHL SUB AND PUSH4 0x23B872DD DUP6 DUP6 DUP9 PUSH1 0x80 ADD MLOAD DUP10 PUSH1 0x0 ADD MLOAD DUP2 MLOAD DUP2 LT PUSH2 0x2E78 JUMPI PUSH2 0x2E78 PUSH2 0x48F4 JUMP JUMPDEST PUSH1 0x20 SWAP1 DUP2 MUL SWAP2 SWAP1 SWAP2 ADD ADD MLOAD PUSH1 0x40 MLOAD PUSH1 0x1 PUSH1 0x1 PUSH1 0xE0 SHL SUB NOT PUSH1 0xE0 DUP7 SWAP1 SHL AND DUP2 MSTORE PUSH1 0x1 PUSH1 0x1 PUSH1 0xA0 SHL SUB SWAP4 DUP5 AND PUSH1 0x4 DUP3 ADD MSTORE SWAP3 SWAP1 SWAP2 AND PUSH1 0x24 DUP4 ADD MSTORE PUSH1 0x44 DUP3 ADD MSTORE PUSH1 0x64 ADD PUSH1 0x0 PUSH1 0x40 MLOAD DUP1 DUP4 SUB DUP2 PUSH1 0x0 DUP8 DUP1 EXTCODESIZE ISZERO DUP1 ISZERO PUSH2 0x2ED2 JUMPI PUSH1 0x0 DUP1 REVERT JUMPDEST POP GAS CALL ISZERO DUP1 ISZERO PUSH2 0x2EE6 JUMPI RETURNDATASIZE PUSH1 0x0 DUP1 RETURNDATACOPY RETURNDATASIZE PUSH1 0x0 REVERT JUMPDEST POP POP POP POP PUSH2 0x44A JUMP JUMPDEST PUSH1 0x60 DUP6 ADD MLOAD DUP6 MLOAD DUP2 MLOAD DUP2 LT PUSH2 0x2F06 JUMPI PUSH2 0x2F06 PUSH2 0x48F4 JUMP JUMPDEST PUSH1 0x20 MUL PUSH1 0x20 ADD ADD MLOAD PUSH1 0x1 PUSH1 0x1 PUSH1 0xA0 SHL SUB AND PUSH4 0x2EB2C2D6 DUP6 DUP6 DUP6 DUP6 PUSH1 0x40 MLOAD DUP6 PUSH4 0xFFFFFFFF AND PUSH1 0xE0 SHL DUP2 MSTORE PUSH1 0x4 ADD PUSH2 0x2F3F SWAP5 SWAP4 SWAP3 SWAP2 SWAP1 PUSH2 0x447C JUMP JUMPDEST PUSH1 0x0 PUSH1 0x40 MLOAD DUP1 DUP4 SUB DUP2 PUSH1 0x0 DUP8 DUP1 EXTCODESIZE ISZERO DUP1 ISZERO PUSH2 0x2F59 JUMPI PUSH1 0x0 DUP1 REVERT JUMPDEST POP GAS CALL ISZERO DUP1 ISZERO PUSH2 0x2F6D JUMPI RETURNDATASIZE PUSH1 0x0 DUP1 RETURNDATACOPY RETURNDATASIZE PUSH1 0x0 REVERT JUMPDEST POP POP POP POP POP POP POP POP POP JUMP JUMPDEST DUP1 MLOAD PUSH2 0x2F83 SWAP1 PUSH2 0x356D JUMP JUMPDEST PUSH1 0x20 DUP2 ADD MLOAD PUSH1 0xFF AND PUSH2 0x2FA7 JUMPI PUSH1 0x40 MLOAD PUSH3 0x461BCD PUSH1 0xE5 SHL DUP2 MSTORE PUSH1 0x4 ADD PUSH2 0x429 SWAP1 PUSH2 0x45A1 JUMP JUMPDEST PUSH1 0x40 DUP2 ADD MLOAD PUSH4 0xFFFFFFFF AND PUSH2 0x1575 JUMPI PUSH1 0x40 MLOAD PUSH3 0x461BCD PUSH1 0xE5 SHL DUP2 MSTORE PUSH1 0x20 PUSH1 0x4 DUP3 ADD MSTORE PUSH1 0x18 PUSH1 0x24 DUP3 ADD MSTORE PUSH32 0x52654E46543A3A72656E746564206174206973207A65726F0000000000000000 PUSH1 0x44 DUP3 ADD MSTORE PUSH1 0x64 ADD PUSH2 0x429 JUMP JUMPDEST PUSH2 0x3008 DUP3 DUP3 PUSH2 0x35B9 JUMP JUMPDEST PUSH2 0xD14 JUMPI PUSH1 0x40 MLOAD PUSH3 0x461BCD PUSH1 0xE5 SHL DUP2 MSTORE PUSH1 0x20 PUSH1 0x4 DUP3 ADD MSTORE PUSH1 0x1D PUSH1 0x24 DUP3 ADD MSTORE PUSH32 0x52654E46543A3A72657475726E2064617465206E6F7420706173736564000000 PUSH1 0x44 DUP3 ADD MSTORE PUSH1 0x64 ADD PUSH2 0x429 JUMP JUMPDEST PUSH1 0x0 DUP3 PUSH1 0xC0 ADD MLOAD PUSH1 0x3 DUP2 GT ISZERO PUSH2 0x306C JUMPI PUSH2 0x306C PUSH2 0x48DE JUMP JUMPDEST PUSH1 0x0 DUP1 SLOAD PUSH1 0x40 MLOAD PUSH4 0xC6EE427F PUSH1 0xE0 SHL DUP2 MSTORE PUSH1 0xFF DUP5 AND PUSH1 0x4 DUP3 ADD MSTORE SWAP3 SWAP4 POP SWAP1 SWAP2 PUSH1 0x1 PUSH1 0x1 PUSH1 0xA0 SHL SUB SWAP1 SWAP2 AND SWAP1 PUSH4 0xC6EE427F SWAP1 PUSH1 0x24 ADD PUSH1 0x20 PUSH1 0x40 MLOAD DUP1 DUP4 SUB DUP2 DUP7 DUP1 EXTCODESIZE ISZERO DUP1 ISZERO PUSH2 0x30B8 JUMPI PUSH1 0x0 DUP1 REVERT JUMPDEST POP GAS STATICCALL ISZERO DUP1 ISZERO PUSH2 0x30CC JUMPI RETURNDATASIZE PUSH1 0x0 DUP1 RETURNDATACOPY RETURNDATASIZE PUSH1 0x0 REVERT JUMPDEST POP POP POP POP PUSH1 0x40 MLOAD RETURNDATASIZE PUSH1 0x1F NOT PUSH1 0x1F DUP3 ADD AND DUP3 ADD DUP1 PUSH1 0x40 MSTORE POP DUP2 ADD SWAP1 PUSH2 0x30F0 SWAP2 SWAP1 PUSH2 0x3E0F JUMP JUMPDEST SWAP1 POP PUSH1 0x0 DUP2 PUSH1 0x1 PUSH1 0x1 PUSH1 0xA0 SHL SUB AND PUSH4 0x313CE567 PUSH1 0x40 MLOAD DUP2 PUSH4 0xFFFFFFFF AND PUSH1 0xE0 SHL DUP2 MSTORE PUSH1 0x4 ADD PUSH1 0x20 PUSH1 0x40 MLOAD DUP1 DUP4 SUB DUP2 DUP7 DUP1 EXTCODESIZE ISZERO DUP1 ISZERO PUSH2 0x312D JUMPI PUSH1 0x0 DUP1 REVERT JUMPDEST POP GAS STATICCALL ISZERO DUP1 ISZERO PUSH2 0x3141 JUMPI RETURNDATASIZE PUSH1 0x0 DUP1 RETURNDATACOPY RETURNDATASIZE PUSH1 0x0 REVERT JUMPDEST POP POP POP POP PUSH1 0x40 MLOAD RETURNDATASIZE PUSH1 0x1F NOT PUSH1 0x1F DUP3 ADD AND DUP3 ADD DUP1 PUSH1 0x40 MSTORE POP DUP2 ADD SWAP1 PUSH2 0x3165 SWAP2 SWAP1 PUSH2 0x43DE JUMP JUMPDEST PUSH1 0xFF AND SWAP1 POP PUSH1 0x0 PUSH2 0x3177 DUP3 PUSH1 0xA PUSH2 0x4780 JUMP JUMPDEST SWAP1 POP PUSH1 0x0 PUSH2 0x3189 DUP8 PUSH1 0x60 ADD MLOAD DUP4 PUSH2 0x3473 JUMP JUMPDEST SWAP1 POP PUSH1 0x0 DUP7 PUSH1 0x20 ADD MLOAD PUSH1 0xFF AND DUP3 PUSH2 0x31A0 SWAP2 SWAP1 PUSH2 0x4828 JUMP JUMPDEST SWAP1 POP PUSH1 0x0 PUSH1 0x6 SLOAD PUSH1 0x0 EQ PUSH2 0x31CF JUMPI PUSH2 0x31CC DUP3 DUP9 PUSH1 0xFF AND PUSH1 0x3 DUP2 GT ISZERO PUSH2 0x31C7 JUMPI PUSH2 0x31C7 PUSH2 0x48DE JUMP JUMPDEST PUSH2 0x3647 JUMP JUMPDEST SWAP1 POP JUMPDEST PUSH1 0x20 DUP10 ADD MLOAD PUSH2 0x2F6D SWAP1 PUSH2 0x31E2 DUP4 DUP6 PUSH2 0x486A JUMP JUMPDEST PUSH1 0x1 PUSH1 0x1 PUSH1 0xA0 SHL SUB DUP10 AND SWAP2 SWAP1 PUSH2 0x3724 JUMP JUMPDEST DUP1 PUSH1 0x1 PUSH1 0x1 PUSH1 0xA0 SHL SUB AND DUP3 PUSH1 0x20 ADD MLOAD PUSH1 0x1 PUSH1 0x1 PUSH1 0xA0 SHL SUB AND EQ PUSH2 0xD14 JUMPI PUSH1 0x40 MLOAD PUSH3 0x461BCD PUSH1 0xE5 SHL DUP2 MSTORE PUSH1 0x20 PUSH1 0x4 DUP3 ADD MSTORE PUSH1 0x11 PUSH1 0x24 DUP3 ADD MSTORE PUSH17 0x2932A7232A1D1D3737BA103632B73232B9 PUSH1 0x79 SHL PUSH1 0x44 DUP3 ADD MSTORE PUSH1 0x64 ADD PUSH2 0x429 JUMP JUMPDEST DUP1 MLOAD PUSH2 0x3257 SWAP1 PUSH2 0x3754 JUMP JUMPDEST PUSH1 0x20 DUP2 ADD MLOAD PUSH1 0xFF AND ISZERO PUSH2 0x32A7 JUMPI PUSH1 0x40 MLOAD PUSH3 0x461BCD PUSH1 0xE5 SHL DUP2 MSTORE PUSH1 0x20 PUSH1 0x4 DUP3 ADD MSTORE PUSH1 0x18 PUSH1 0x24 DUP3 ADD MSTORE PUSH24 0x52654E46543A3A6475726174696F6E206E6F74207A65726F PUSH1 0x40 SHL PUSH1 0x44 DUP3 ADD MSTORE PUSH1 0x64 ADD PUSH2 0x429 JUMP JUMPDEST PUSH1 0x40 DUP2 ADD MLOAD PUSH4 0xFFFFFFFF AND ISZERO PUSH2 0x1575 JUMPI PUSH1 0x40 MLOAD PUSH3 0x461BCD PUSH1 0xE5 SHL DUP2 MSTORE PUSH1 0x20 PUSH1 0x4 DUP3 ADD MSTORE PUSH1 0x19 PUSH1 0x24 DUP3 ADD MSTORE PUSH32 0x52654E46543A3A72656E746564206174206E6F74207A65726F00000000000000 PUSH1 0x44 DUP3 ADD MSTORE PUSH1 0x64 ADD PUSH2 0x429 JUMP JUMPDEST DUP4 PUSH1 0x20 ADD MLOAD PUSH1 0x1 PUSH1 0x1 PUSH1 0xA0 SHL SUB AND DUP2 PUSH1 0x1 PUSH1 0x1 PUSH1 0xA0 SHL SUB AND EQ ISZERO PUSH2 0x3365 JUMPI PUSH1 0x40 MLOAD PUSH3 0x461BCD PUSH1 0xE5 SHL DUP2 MSTORE PUSH1 0x20 PUSH1 0x4 DUP3 ADD MSTORE PUSH1 0x18 PUSH1 0x24 DUP3 ADD MSTORE PUSH32 0x52654E46543A3A63616E742072656E74206F776E206E66740000000000000000 PUSH1 0x44 DUP3 ADD MSTORE PUSH1 0x64 ADD PUSH2 0x429 JUMP JUMPDEST PUSH1 0xFF DUP1 AND DUP4 PUSH2 0x140 ADD MLOAD DUP4 DUP2 MLOAD DUP2 LT PUSH2 0x3380 JUMPI PUSH2 0x3380 PUSH2 0x48F4 JUMP JUMPDEST PUSH1 0x20 MUL PUSH1 0x20 ADD ADD MLOAD PUSH1 0xFF AND GT ISZERO PUSH2 0x33A9 JUMPI PUSH1 0x40 MLOAD PUSH3 0x461BCD PUSH1 0xE5 SHL DUP2 MSTORE PUSH1 0x4 ADD PUSH2 0x429 SWAP1 PUSH2 0x460F JUMP JUMPDEST PUSH1 0x0 DUP4 PUSH2 0x140 ADD MLOAD DUP4 DUP2 MLOAD DUP2 LT PUSH2 0x33C2 JUMPI PUSH2 0x33C2 PUSH2 0x48F4 JUMP JUMPDEST PUSH1 0x20 MUL PUSH1 0x20 ADD ADD MLOAD PUSH1 0xFF AND GT PUSH2 0x33EA JUMPI PUSH1 0x40 MLOAD PUSH3 0x461BCD PUSH1 0xE5 SHL DUP2 MSTORE PUSH1 0x4 ADD PUSH2 0x429 SWAP1 PUSH2 0x45A1 JUMP JUMPDEST DUP4 PUSH1 0x40 ADD MLOAD PUSH1 0xFF AND DUP4 PUSH2 0x140 ADD MLOAD DUP4 DUP2 MLOAD DUP2 LT PUSH2 0x3409 JUMPI PUSH2 0x3409 PUSH2 0x48F4 JUMP JUMPDEST PUSH1 0x20 MUL PUSH1 0x20 ADD ADD MLOAD PUSH1 0xFF AND GT ISZERO PUSH2 0x708 JUMPI PUSH1 0x40 MLOAD PUSH3 0x461BCD PUSH1 0xE5 SHL DUP2 MSTORE PUSH1 0x20 PUSH1 0x4 DUP3 ADD MSTORE PUSH1 0x28 PUSH1 0x24 DUP3 ADD MSTORE PUSH32 0x52654E46543A3A72656E74206475726174696F6E206578636565647320616C6C PUSH1 0x44 DUP3 ADD MSTORE PUSH8 0xDEEECAC840DAC2F PUSH1 0xC3 SHL PUSH1 0x64 DUP3 ADD MSTORE PUSH1 0x84 ADD PUSH2 0x429 JUMP JUMPDEST PUSH1 0x0 PUSH2 0x347F DUP4 DUP4 PUSH2 0x37AB JUMP JUMPDEST PUSH1 0xF0 DUP4 SWAP1 SHR PUSH2 0xFFFF PUSH1 0xE0 DUP6 SWAP1 SHR AND PUSH1 0x0 PUSH2 0x349B PUSH2 0x2710 DUP7 PUSH2 0x471B JUMP JUMPDEST SWAP1 POP PUSH2 0x270F DUP4 PUSH2 0xFFFF AND GT ISZERO PUSH2 0x34B1 JUMPI PUSH2 0x270F SWAP3 POP JUMPDEST PUSH2 0x270F DUP3 PUSH2 0xFFFF AND GT ISZERO PUSH2 0x34C5 JUMPI PUSH2 0x270F SWAP2 POP JUMPDEST PUSH1 0x0 PUSH2 0x34D5 DUP7 PUSH2 0xFFFF DUP7 AND PUSH2 0x4828 JUMP JUMPDEST SWAP1 POP PUSH1 0x0 PUSH2 0x34E7 DUP4 PUSH2 0xFFFF DUP7 AND PUSH2 0x4828 JUMP JUMPDEST SWAP1 POP PUSH1 0x0 PUSH2 0x34F5 DUP3 DUP5 PUSH2 0x4703 JUMP JUMPDEST SWAP10 SWAP9 POP POP POP POP POP POP POP POP POP JUMP JUMPDEST PUSH1 0x40 MLOAD PUSH1 0x1 PUSH1 0x1 PUSH1 0xA0 SHL SUB DUP1 DUP6 AND PUSH1 0x24 DUP4 ADD MSTORE DUP4 AND PUSH1 0x44 DUP3 ADD MSTORE PUSH1 0x64 DUP2 ADD DUP3 SWAP1 MSTORE PUSH2 0x708 SWAP1 DUP6 SWAP1 PUSH4 0x23B872DD PUSH1 0xE0 SHL SWAP1 PUSH1 0x84 ADD JUMPDEST PUSH1 0x40 DUP1 MLOAD PUSH1 0x1F NOT DUP2 DUP5 SUB ADD DUP2 MSTORE SWAP2 SWAP1 MSTORE PUSH1 0x20 DUP2 ADD DUP1 MLOAD PUSH1 0x1 PUSH1 0x1 PUSH1 0xE0 SHL SUB AND PUSH1 0x1 PUSH1 0x1 PUSH1 0xE0 SHL SUB NOT SWAP1 SWAP4 AND SWAP3 SWAP1 SWAP3 OR SWAP1 SWAP2 MSTORE PUSH2 0x383C JUMP JUMPDEST PUSH1 0x1 PUSH1 0x1 PUSH1 0xA0 SHL SUB DUP2 AND PUSH2 0x1575 JUMPI PUSH1 0x40 MLOAD PUSH3 0x461BCD PUSH1 0xE5 SHL DUP2 MSTORE PUSH1 0x20 PUSH1 0x4 DUP3 ADD MSTORE PUSH1 0x13 PUSH1 0x24 DUP3 ADD MSTORE PUSH19 0x52654E46543A3A7A65726F2061646472657373 PUSH1 0x68 SHL PUSH1 0x44 DUP3 ADD MSTORE PUSH1 0x64 ADD PUSH2 0x429 JUMP JUMPDEST PUSH1 0x0 DUP3 PUSH1 0x40 ADD MLOAD PUSH4 0xFFFFFFFF AND DUP3 GT PUSH2 0x3614 JUMPI PUSH1 0x40 MLOAD PUSH3 0x461BCD PUSH1 0xE5 SHL DUP2 MSTORE PUSH1 0x20 PUSH1 0x4 DUP3 ADD MSTORE PUSH1 0x18 PUSH1 0x24 DUP3 ADD MSTORE PUSH32 0x52654E46543A3A6E6F77206265666F72652072656E7465640000000000000000 PUSH1 0x44 DUP3 ADD MSTORE PUSH1 0x64 ADD PUSH2 0x429 JUMP JUMPDEST PUSH3 0x15180 DUP4 PUSH1 0x20 ADD MLOAD PUSH1 0xFF AND PUSH2 0x362A SWAP2 SWAP1 PUSH2 0x4828 JUMP JUMPDEST PUSH1 0x40 DUP5 ADD MLOAD PUSH2 0x363F SWAP1 PUSH4 0xFFFFFFFF AND DUP5 PUSH2 0x486A JUMP JUMPDEST GT SWAP4 SWAP3 POP POP POP JUMP JUMPDEST PUSH1 0x0 PUSH1 0x6 SLOAD DUP4 PUSH2 0x3657 SWAP2 SWAP1 PUSH2 0x4828 JUMP JUMPDEST SWAP1 POP PUSH2 0x3665 PUSH2 0x2710 DUP3 PUSH2 0x471B JUMP JUMPDEST SWAP1 POP PUSH1 0x0 DUP3 PUSH1 0x3 DUP2 GT ISZERO PUSH2 0x367B JUMPI PUSH2 0x367B PUSH2 0x48DE JUMP JUMPDEST PUSH1 0x0 DUP1 SLOAD PUSH1 0x40 MLOAD PUSH4 0xC6EE427F PUSH1 0xE0 SHL DUP2 MSTORE PUSH1 0xFF DUP5 AND PUSH1 0x4 DUP3 ADD MSTORE SWAP3 SWAP4 POP SWAP1 SWAP2 PUSH1 0x1 PUSH1 0x1 PUSH1 0xA0 SHL SUB SWAP1 SWAP2 AND SWAP1 PUSH4 0xC6EE427F SWAP1 PUSH1 0x24 ADD PUSH1 0x20 PUSH1 0x40 MLOAD DUP1 DUP4 SUB DUP2 DUP7 DUP1 EXTCODESIZE ISZERO DUP1 ISZERO PUSH2 0x36C7 JUMPI PUSH1 0x0 DUP1 REVERT JUMPDEST POP GAS STATICCALL ISZERO DUP1 ISZERO PUSH2 0x36DB JUMPI RETURNDATASIZE PUSH1 0x0 DUP1 RETURNDATACOPY RETURNDATASIZE PUSH1 0x0 REVERT JUMPDEST POP POP POP POP PUSH1 0x40 MLOAD RETURNDATASIZE PUSH1 0x1F NOT PUSH1 0x1F DUP3 ADD AND DUP3 ADD DUP1 PUSH1 0x40 MSTORE POP DUP2 ADD SWAP1 PUSH2 0x36FF SWAP2 SWAP1 PUSH2 0x3E0F JUMP JUMPDEST PUSH1 0x2 SLOAD SWAP1 SWAP2 POP PUSH2 0x371C SWAP1 PUSH1 0x1 PUSH1 0x1 PUSH1 0xA0 SHL SUB DUP1 DUP5 AND SWAP2 AND DUP6 PUSH2 0x3724 JUMP JUMPDEST POP POP SWAP3 SWAP2 POP POP JUMP JUMPDEST PUSH1 0x40 MLOAD PUSH1 0x1 PUSH1 0x1 PUSH1 0xA0 SHL SUB DUP4 AND PUSH1 0x24 DUP3 ADD MSTORE PUSH1 0x44 DUP2 ADD DUP3 SWAP1 MSTORE PUSH2 0x1E71 SWAP1 DUP5 SWAP1 PUSH4 0xA9059CBB PUSH1 0xE0 SHL SWAP1 PUSH1 0x64 ADD PUSH2 0x3536 JUMP JUMPDEST PUSH1 0x1 PUSH1 0x1 PUSH1 0xA0 SHL SUB DUP2 AND ISZERO PUSH2 0x1575 JUMPI PUSH1 0x40 MLOAD PUSH3 0x461BCD PUSH1 0xE5 SHL DUP2 MSTORE PUSH1 0x20 PUSH1 0x4 DUP3 ADD MSTORE PUSH1 0x19 PUSH1 0x24 DUP3 ADD MSTORE PUSH32 0x52654E46543A3A6E6F742061207A65726F206164647265737300000000000000 PUSH1 0x44 DUP3 ADD MSTORE PUSH1 0x64 ADD PUSH2 0x429 JUMP JUMPDEST PUSH1 0xE0 DUP3 SWAP1 SHR PUSH2 0x37F3 JUMPI PUSH1 0x40 MLOAD PUSH3 0x461BCD PUSH1 0xE5 SHL DUP2 MSTORE PUSH1 0x20 PUSH1 0x4 DUP3 ADD MSTORE PUSH1 0x14 PUSH1 0x24 DUP3 ADD MSTORE PUSH20 0x52654E46543A3A696E76616C6964207072696365 PUSH1 0x60 SHL PUSH1 0x44 DUP3 ADD MSTORE PUSH1 0x64 ADD PUSH2 0x429 JUMP JUMPDEST PUSH2 0x2710 DUP2 LT ISZERO PUSH2 0xD14 JUMPI PUSH1 0x40 MLOAD PUSH3 0x461BCD PUSH1 0xE5 SHL DUP2 MSTORE PUSH1 0x20 PUSH1 0x4 DUP3 ADD MSTORE PUSH1 0x14 PUSH1 0x24 DUP3 ADD MSTORE PUSH20 0x52654E46543A3A696E76616C6964207363616C65 PUSH1 0x60 SHL PUSH1 0x44 DUP3 ADD MSTORE PUSH1 0x64 ADD PUSH2 0x429 JUMP JUMPDEST PUSH1 0x0 PUSH2 0x3891 DUP3 PUSH1 0x40 MLOAD DUP1 PUSH1 0x40 ADD PUSH1 0x40 MSTORE DUP1 PUSH1 0x20 DUP2 MSTORE PUSH1 0x20 ADD PUSH32 0x5361666545524332303A206C6F772D6C6576656C2063616C6C206661696C6564 DUP2 MSTORE POP DUP6 PUSH1 0x1 PUSH1 0x1 PUSH1 0xA0 SHL SUB AND PUSH2 0x390E SWAP1 SWAP3 SWAP2 SWAP1 PUSH4 0xFFFFFFFF AND JUMP JUMPDEST DUP1 MLOAD SWAP1 SWAP2 POP ISZERO PUSH2 0x1E71 JUMPI DUP1 DUP1 PUSH1 0x20 ADD SWAP1 MLOAD DUP2 ADD SWAP1 PUSH2 0x38AF SWAP2 SWAP1 PUSH2 0x438D JUMP JUMPDEST PUSH2 0x1E71 JUMPI PUSH1 0x40 MLOAD PUSH3 0x461BCD PUSH1 0xE5 SHL DUP2 MSTORE PUSH1 0x20 PUSH1 0x4 DUP3 ADD MSTORE PUSH1 0x2A PUSH1 0x24 DUP3 ADD MSTORE PUSH32 0x5361666545524332303A204552433230206F7065726174696F6E20646964206E PUSH1 0x44 DUP3 ADD MSTORE PUSH10 0x1BDD081CDD58D8D95959 PUSH1 0xB2 SHL PUSH1 0x64 DUP3 ADD MSTORE PUSH1 0x84 ADD PUSH2 0x429 JUMP JUMPDEST PUSH1 0x60 PUSH2 0x391D DUP5 DUP5 PUSH1 0x0 DUP6 PUSH2 0x3927 JUMP JUMPDEST SWAP1 POP JUMPDEST SWAP4 SWAP3 POP POP POP JUMP JUMPDEST PUSH1 0x60 DUP3 SELFBALANCE LT ISZERO PUSH2 0x3988 JUMPI PUSH1 0x40 MLOAD PUSH3 0x461BCD PUSH1 0xE5 SHL DUP2 MSTORE PUSH1 0x20 PUSH1 0x4 DUP3 ADD MSTORE PUSH1 0x26 PUSH1 0x24 DUP3 ADD MSTORE PUSH32 0x416464726573733A20696E73756666696369656E742062616C616E636520666F PUSH1 0x44 DUP3 ADD MSTORE PUSH6 0x1C8818D85B1B PUSH1 0xD2 SHL PUSH1 0x64 DUP3 ADD MSTORE PUSH1 0x84 ADD PUSH2 0x429 JUMP JUMPDEST DUP5 EXTCODESIZE PUSH2 0x39D6 JUMPI PUSH1 0x40 MLOAD PUSH3 0x461BCD PUSH1 0xE5 SHL DUP2 MSTORE PUSH1 0x20 PUSH1 0x4 DUP3 ADD MSTORE PUSH1 0x1D PUSH1 0x24 DUP3 ADD MSTORE PUSH32 0x416464726573733A2063616C6C20746F206E6F6E2D636F6E7472616374000000 PUSH1 0x44 DUP3 ADD MSTORE PUSH1 0x64 ADD PUSH2 0x429 JUMP JUMPDEST PUSH1 0x0 DUP1 DUP7 PUSH1 0x1 PUSH1 0x1 PUSH1 0xA0 SHL SUB AND DUP6 DUP8 PUSH1 0x40 MLOAD PUSH2 0x39F2 SWAP2 SWAP1 PUSH2 0x4460 JUMP JUMPDEST PUSH1 0x0 PUSH1 0x40 MLOAD DUP1 DUP4 SUB DUP2 DUP6 DUP8 GAS CALL SWAP3 POP POP POP RETURNDATASIZE DUP1 PUSH1 0x0 DUP2 EQ PUSH2 0x3A2F JUMPI PUSH1 0x40 MLOAD SWAP2 POP PUSH1 0x1F NOT PUSH1 0x3F RETURNDATASIZE ADD AND DUP3 ADD PUSH1 0x40 MSTORE RETURNDATASIZE DUP3 MSTORE RETURNDATASIZE PUSH1 0x0 PUSH1 0x20 DUP5 ADD RETURNDATACOPY PUSH2 0x3A34 JUMP JUMPDEST PUSH1 0x60 SWAP2 POP JUMPDEST POP SWAP2 POP SWAP2 POP PUSH2 0x3A44 DUP3 DUP3 DUP7 PUSH2 0x3A4F JUMP JUMPDEST SWAP8 SWAP7 POP POP POP POP POP POP POP JUMP JUMPDEST PUSH1 0x60 DUP4 ISZERO PUSH2 0x3A5E JUMPI POP DUP2 PUSH2 0x3920 JUMP JUMPDEST DUP3 MLOAD ISZERO PUSH2 0x3A6E JUMPI DUP3 MLOAD DUP1 DUP5 PUSH1 0x20 ADD REVERT JUMPDEST DUP2 PUSH1 0x40 MLOAD PUSH3 0x461BCD PUSH1 0xE5 SHL DUP2 MSTORE PUSH1 0x4 ADD PUSH2 0x429 SWAP2 SWAP1 PUSH2 0x4537 JUMP JUMPDEST PUSH1 0x40 MLOAD DUP1 PUSH2 0x1A0 ADD PUSH1 0x40 MSTORE DUP1 PUSH1 0x0 DUP2 MSTORE PUSH1 0x20 ADD PUSH1 0x0 DUP2 MSTORE PUSH1 0x20 ADD PUSH1 0x60 DUP2 MSTORE PUSH1 0x20 ADD PUSH1 0x60 DUP2 MSTORE PUSH1 0x20 ADD PUSH1 0x60 DUP2 MSTORE PUSH1 0x20 ADD PUSH1 0x60 DUP2 MSTORE PUSH1 0x20 ADD PUSH1 0x60 DUP2 MSTORE PUSH1 0x20 ADD PUSH1 0x60 DUP2 MSTORE PUSH1 0x20 ADD PUSH1 0x60 DUP2 MSTORE PUSH1 0x20 ADD PUSH1 0x60 DUP2 MSTORE PUSH1 0x20 ADD PUSH1 0x60 DUP2 MSTORE PUSH1 0x20 ADD PUSH1 0x60 DUP2 MSTORE PUSH1 0x20 ADD PUSH1 0x60 DUP2 MSTORE POP SWAP1 JUMP JUMPDEST PUSH1 0x0 DUP3 PUSH1 0x1F DUP4 ADD SLT PUSH2 0x3B01 JUMPI PUSH1 0x0 DUP1 REVERT JUMPDEST DUP2 CALLDATALOAD PUSH1 0x20 PUSH2 0x3B16 PUSH2 0x3B11 DUP4 PUSH2 0x46BA JUMP JUMPDEST PUSH2 0x468A JUMP JUMPDEST DUP1 DUP4 DUP3 MSTORE DUP3 DUP3 ADD SWAP2 POP DUP3 DUP7 ADD DUP8 DUP5 DUP7 PUSH1 0x5 SHL DUP10 ADD ADD GT ISZERO PUSH2 0x3B36 JUMPI PUSH1 0x0 DUP1 REVERT JUMPDEST PUSH1 0x0 JUMPDEST DUP6 DUP2 LT ISZERO PUSH2 0x3B5E JUMPI DUP2 CALLDATALOAD PUSH2 0x3B4C DUP2 PUSH2 0x4920 JUMP JUMPDEST DUP5 MSTORE SWAP3 DUP5 ADD SWAP3 SWAP1 DUP5 ADD SWAP1 PUSH1 0x1 ADD PUSH2 0x3B39 JUMP JUMPDEST POP SWAP1 SWAP8 SWAP7 POP POP POP POP POP POP POP JUMP JUMPDEST PUSH1 0x0 DUP3 PUSH1 0x1F DUP4 ADD SLT PUSH2 0x3B7C JUMPI PUSH1 0x0 DUP1 REVERT JUMPDEST DUP2 CALLDATALOAD PUSH1 0x20 PUSH2 0x3B8C PUSH2 0x3B11 DUP4 PUSH2 0x46BA JUMP JUMPDEST DUP1 DUP4 DUP3 MSTORE DUP3 DUP3 ADD SWAP2 POP DUP3 DUP7 ADD DUP8 DUP5 DUP7 PUSH1 0x5 SHL DUP10 ADD ADD GT ISZERO PUSH2 0x3BAC JUMPI PUSH1 0x0 DUP1 REVERT JUMPDEST PUSH1 0x0 JUMPDEST DUP6 DUP2 LT ISZERO PUSH2 0x3B5E JUMPI PUSH2 0x3BC0 DUP3 PUSH2 0x3D83 JUMP JUMPDEST DUP5 MSTORE SWAP3 DUP5 ADD SWAP3 SWAP1 DUP5 ADD SWAP1 PUSH1 0x1 ADD PUSH2 0x3BAF JUMP JUMPDEST PUSH1 0x0 DUP3 PUSH1 0x1F DUP4 ADD SLT PUSH2 0x3BE3 JUMPI PUSH1 0x0 DUP1 REVERT JUMPDEST DUP2 CALLDATALOAD PUSH1 0x20 PUSH2 0x3BF3 PUSH2 0x3B11 DUP4 PUSH2 0x46BA JUMP JUMPDEST DUP1 DUP4 DUP3 MSTORE DUP3 DUP3 ADD SWAP2 POP DUP3 DUP7 ADD DUP8 DUP5 DUP7 PUSH1 0x5 SHL DUP10 ADD ADD GT ISZERO PUSH2 0x3C13 JUMPI PUSH1 0x0 DUP1 REVERT JUMPDEST PUSH1 0x0 DUP1 JUMPDEST DUP7 DUP2 LT ISZERO PUSH2 0x3C3F JUMPI DUP3 CALLDATALOAD PUSH1 0x2 DUP2 LT PUSH2 0x3C2D JUMPI DUP3 DUP4 REVERT JUMPDEST DUP6 MSTORE SWAP4 DUP6 ADD SWAP4 SWAP2 DUP6 ADD SWAP2 PUSH1 0x1 ADD PUSH2 0x3C17 JUMP JUMPDEST POP SWAP2 SWAP9 SWAP8 POP POP POP POP POP POP POP POP JUMP JUMPDEST PUSH1 0x0 DUP3 PUSH1 0x1F DUP4 ADD SLT PUSH2 0x3C5E JUMPI PUSH1 0x0 DUP1 REVERT JUMPDEST DUP2 CALLDATALOAD PUSH1 0x20 PUSH2 0x3C6E PUSH2 0x3B11 DUP4 PUSH2 0x46BA JUMP JUMPDEST DUP1 DUP4 DUP3 MSTORE DUP3 DUP3 ADD SWAP2 POP DUP3 DUP7 ADD DUP8 DUP5 DUP7 PUSH1 0x5 SHL DUP10 ADD ADD GT ISZERO PUSH2 0x3C8E JUMPI PUSH1 0x0 DUP1 REVERT JUMPDEST PUSH1 0x0 DUP1 JUMPDEST DUP7 DUP2 LT ISZERO PUSH2 0x3C3F JUMPI DUP3 CALLDATALOAD PUSH1 0x4 DUP2 LT PUSH2 0x3CA8 JUMPI DUP3 DUP4 REVERT JUMPDEST DUP6 MSTORE SWAP4 DUP6 ADD SWAP4 SWAP2 DUP6 ADD SWAP2 PUSH1 0x1 ADD PUSH2 0x3C92 JUMP JUMPDEST PUSH1 0x0 DUP3 PUSH1 0x1F DUP4 ADD SLT PUSH2 0x3CCB JUMPI PUSH1 0x0 DUP1 REVERT JUMPDEST DUP2 CALLDATALOAD PUSH1 0x20 PUSH2 0x3CDB PUSH2 0x3B11 DUP4 PUSH2 0x46BA JUMP JUMPDEST DUP1 DUP4 DUP3 MSTORE DUP3 DUP3 ADD SWAP2 POP DUP3 DUP7 ADD DUP8 DUP5 DUP7 PUSH1 0x5 SHL DUP10 ADD ADD GT ISZERO PUSH2 0x3CFB JUMPI PUSH1 0x0 DUP1 REVERT JUMPDEST PUSH1 0x0 JUMPDEST DUP6 DUP2 LT ISZERO PUSH2 0x3B5E JUMPI DUP2 CALLDATALOAD DUP5 MSTORE SWAP3 DUP5 ADD SWAP3 SWAP1 DUP5 ADD SWAP1 PUSH1 0x1 ADD PUSH2 0x3CFE JUMP JUMPDEST PUSH1 0x0 DUP3 PUSH1 0x1F DUP4 ADD SLT PUSH2 0x3D2B JUMPI PUSH1 0x0 DUP1 REVERT JUMPDEST DUP2 CALLDATALOAD PUSH1 0x20 PUSH2 0x3D3B PUSH2 0x3B11 DUP4 PUSH2 0x46BA JUMP JUMPDEST DUP1 DUP4 DUP3 MSTORE DUP3 DUP3 ADD SWAP2 POP DUP3 DUP7 ADD DUP8 DUP5 DUP7 PUSH1 0x5 SHL DUP10 ADD ADD GT ISZERO PUSH2 0x3D5B JUMPI PUSH1 0x0 DUP1 REVERT JUMPDEST PUSH1 0x0 JUMPDEST DUP6 DUP2 LT ISZERO PUSH2 0x3B5E JUMPI DUP2 CALLDATALOAD PUSH2 0x3D71 DUP2 PUSH2 0x4943 JUMP JUMPDEST DUP5 MSTORE SWAP3 DUP5 ADD SWAP3 SWAP1 DUP5 ADD SWAP1 PUSH1 0x1 ADD PUSH2 0x3D5E JUMP JUMPDEST DUP1 CALLDATALOAD PUSH1 0x1 PUSH1 0x1 PUSH1 0xE0 SHL SUB NOT DUP2 AND DUP2 EQ PUSH2 0x3D9B JUMPI PUSH1 0x0 DUP1 REVERT JUMPDEST SWAP2 SWAP1 POP JUMP JUMPDEST PUSH1 0x0 DUP3 PUSH1 0x1F DUP4 ADD SLT PUSH2 0x3DB1 JUMPI PUSH1 0x0 DUP1 REVERT JUMPDEST DUP2 CALLDATALOAD PUSH1 0x1 PUSH1 0x1 PUSH1 0x40 SHL SUB DUP2 GT ISZERO PUSH2 0x3DCA JUMPI PUSH2 0x3DCA PUSH2 0x490A JUMP JUMPDEST PUSH2 0x3DDD PUSH1 0x1F DUP3 ADD PUSH1 0x1F NOT AND PUSH1 0x20 ADD PUSH2 0x468A JUMP JUMPDEST DUP2 DUP2 MSTORE DUP5 PUSH1 0x20 DUP4 DUP7 ADD ADD GT ISZERO PUSH2 0x3DF2 JUMPI PUSH1 0x0 DUP1 REVERT JUMPDEST DUP2 PUSH1 0x20 DUP6 ADD PUSH1 0x20 DUP4 ADD CALLDATACOPY PUSH1 0x0 SWAP2 DUP2 ADD PUSH1 0x20 ADD SWAP2 SWAP1 SWAP2 MSTORE SWAP4 SWAP3 POP POP POP JUMP JUMPDEST PUSH1 0x0 PUSH1 0x20 DUP3 DUP5 SUB SLT ISZERO PUSH2 0x3E21 JUMPI PUSH1 0x0 DUP1 REVERT JUMPDEST DUP2 MLOAD PUSH2 0x3920 DUP2 PUSH2 0x4920 JUMP JUMPDEST PUSH1 0x0 PUSH1 0x20 DUP3 DUP5 SUB SLT ISZERO PUSH2 0x3E3E JUMPI PUSH1 0x0 DUP1 REVERT JUMPDEST DUP2 CALLDATALOAD PUSH2 0x3920 DUP2 PUSH2 0x4920 JUMP JUMPDEST PUSH1 0x0 DUP1 PUSH1 0x0 DUP1 PUSH1 0x0 PUSH1 0xA0 DUP7 DUP9 SUB SLT ISZERO PUSH2 0x3E61 JUMPI PUSH1 0x0 DUP1 REVERT JUMPDEST DUP6 CALLDATALOAD PUSH2 0x3E6C DUP2 PUSH2 0x4920 JUMP JUMPDEST SWAP5 POP PUSH1 0x20 DUP7 ADD CALLDATALOAD PUSH2 0x3E7C DUP2 PUSH2 0x4920 JUMP JUMPDEST SWAP4 POP PUSH1 0x40 DUP7 ADD CALLDATALOAD PUSH1 0x1 PUSH1 0x1 PUSH1 0x40 SHL SUB DUP1 DUP3 GT ISZERO PUSH2 0x3E98 JUMPI PUSH1 0x0 DUP1 REVERT JUMPDEST PUSH2 0x3EA4 DUP10 DUP4 DUP11 ADD PUSH2 0x3CBA JUMP JUMPDEST SWAP5 POP PUSH1 0x60 DUP9 ADD CALLDATALOAD SWAP2 POP DUP1 DUP3 GT ISZERO PUSH2 0x3EBA JUMPI PUSH1 0x0 DUP1 REVERT JUMPDEST PUSH2 0x3EC6 DUP10 DUP4 DUP11 ADD PUSH2 0x3CBA JUMP JUMPDEST SWAP4 POP PUSH1 0x80 DUP9 ADD CALLDATALOAD SWAP2 POP DUP1 DUP3 GT ISZERO PUSH2 0x3EDC JUMPI PUSH1 0x0 DUP1 REVERT JUMPDEST POP PUSH2 0x3EE9 DUP9 DUP3 DUP10 ADD PUSH2 0x3DA0 JUMP JUMPDEST SWAP2 POP POP SWAP3 SWAP6 POP SWAP3 SWAP6 SWAP1 SWAP4 POP JUMP JUMPDEST PUSH1 0x0 DUP1 PUSH1 0x0 DUP1 PUSH1 0x80 DUP6 DUP8 SUB SLT ISZERO PUSH2 0x3F0C JUMPI PUSH1 0x0 DUP1 REVERT JUMPDEST DUP5 CALLDATALOAD PUSH2 0x3F17 DUP2 PUSH2 0x4920 JUMP JUMPDEST SWAP4 POP PUSH1 0x20 DUP6 ADD CALLDATALOAD PUSH2 0x3F27 DUP2 PUSH2 0x4920 JUMP JUMPDEST SWAP3 POP PUSH1 0x40 DUP6 ADD CALLDATALOAD SWAP2 POP PUSH1 0x60 DUP6 ADD CALLDATALOAD PUSH1 0x1 PUSH1 0x1 PUSH1 0x40 SHL SUB DUP2 GT ISZERO PUSH2 0x3F49 JUMPI PUSH1 0x0 DUP1 REVERT JUMPDEST PUSH2 0x3F55 DUP8 DUP3 DUP9 ADD PUSH2 0x3DA0 JUMP JUMPDEST SWAP2 POP POP SWAP3 SWAP6 SWAP2 SWAP5 POP SWAP3 POP JUMP JUMPDEST PUSH1 0x0 DUP1 PUSH1 0x0 DUP1 PUSH1 0x0 PUSH1 0xA0 DUP7 DUP9 SUB SLT ISZERO PUSH2 0x3F79 JUMPI PUSH1 0x0 DUP1 REVERT JUMPDEST DUP6 CALLDATALOAD PUSH2 0x3F84 DUP2 PUSH2 0x4920 JUMP JUMPDEST SWAP5 POP PUSH1 0x20 DUP7 ADD CALLDATALOAD PUSH2 0x3F94 DUP2 PUSH2 0x4920 JUMP JUMPDEST SWAP4 POP PUSH1 0x40 DUP7 ADD CALLDATALOAD SWAP3 POP PUSH1 0x60 DUP7 ADD CALLDATALOAD SWAP2 POP PUSH1 0x80 DUP7 ADD CALLDATALOAD PUSH1 0x1 PUSH1 0x1 PUSH1 0x40 SHL SUB DUP2 GT ISZERO PUSH2 0x3FBD JUMPI PUSH1 0x0 DUP1 REVERT JUMPDEST PUSH2 0x3EE9 DUP9 DUP3 DUP10 ADD PUSH2 0x3DA0 JUMP JUMPDEST PUSH1 0x0 DUP1 PUSH1 0x0 PUSH1 0x60 DUP5 DUP7 SUB SLT ISZERO PUSH2 0x3FDE JUMPI PUSH1 0x0 DUP1 REVERT JUMPDEST DUP4 CALLDATALOAD PUSH2 0x3FE9 DUP2 PUSH2 0x4920 JUMP JUMPDEST SWAP6 PUSH1 0x20 DUP6 ADD CALLDATALOAD SWAP6 POP PUSH1 0x40 SWAP1 SWAP5 ADD CALLDATALOAD SWAP4 SWAP3 POP POP POP JUMP JUMPDEST PUSH1 0x0 DUP1 PUSH1 0x0 DUP1 PUSH1 0x80 DUP6 DUP8 SUB SLT ISZERO PUSH2 0x4014 JUMPI PUSH1 0x0 DUP1 REVERT JUMPDEST DUP5 CALLDATALOAD PUSH1 0x1 PUSH1 0x1 PUSH1 0x40 SHL SUB DUP1 DUP3 GT ISZERO PUSH2 0x402B JUMPI PUSH1 0x0 DUP1 REVERT JUMPDEST PUSH2 0x4037 DUP9 DUP4 DUP10 ADD PUSH2 0x3BD2 JUMP JUMPDEST SWAP6 POP PUSH1 0x20 DUP8 ADD CALLDATALOAD SWAP2 POP DUP1 DUP3 GT ISZERO PUSH2 0x404D JUMPI PUSH1 0x0 DUP1 REVERT JUMPDEST PUSH2 0x4059 DUP9 DUP4 DUP10 ADD PUSH2 0x3AF0 JUMP JUMPDEST SWAP5 POP PUSH1 0x40 DUP8 ADD CALLDATALOAD SWAP2 POP DUP1 DUP3 GT ISZERO PUSH2 0x406F JUMPI PUSH1 0x0 DUP1 REVERT JUMPDEST PUSH2 0x407B DUP9 DUP4 DUP10 ADD PUSH2 0x3CBA JUMP JUMPDEST SWAP4 POP PUSH1 0x60 DUP8 ADD CALLDATALOAD SWAP2 POP DUP1 DUP3 GT ISZERO PUSH2 0x4091 JUMPI PUSH1 0x0 DUP1 REVERT JUMPDEST POP PUSH2 0x3F55 DUP8 DUP3 DUP9 ADD PUSH2 0x3CBA JUMP JUMPDEST PUSH1 0x0 DUP1 PUSH1 0x0 DUP1 PUSH1 0x0 PUSH1 0xA0 DUP7 DUP9 SUB SLT ISZERO PUSH2 0x40B6 JUMPI PUSH1 0x0 DUP1 REVERT JUMPDEST DUP6 CALLDATALOAD PUSH1 0x1 PUSH1 0x1 PUSH1 0x40 SHL SUB DUP1 DUP3 GT ISZERO PUSH2 0x40CD JUMPI PUSH1 0x0 DUP1 REVERT JUMPDEST PUSH2 0x40D9 DUP10 DUP4 DUP11 ADD PUSH2 0x3BD2 JUMP JUMPDEST SWAP7 POP PUSH1 0x20 DUP9 ADD CALLDATALOAD SWAP2 POP DUP1 DUP3 GT ISZERO PUSH2 0x40EF JUMPI PUSH1 0x0 DUP1 REVERT JUMPDEST PUSH2 0x40FB DUP10 DUP4 DUP11 ADD PUSH2 0x3AF0 JUMP JUMPDEST SWAP6 POP PUSH1 0x40 DUP9 ADD CALLDATALOAD SWAP2 POP DUP1 DUP3 GT ISZERO PUSH2 0x4111 JUMPI PUSH1 0x0 DUP1 REVERT JUMPDEST PUSH2 0x411D DUP10 DUP4 DUP11 ADD PUSH2 0x3CBA JUMP JUMPDEST SWAP5 POP PUSH1 0x60 DUP9 ADD CALLDATALOAD SWAP2 POP DUP1 DUP3 GT ISZERO PUSH2 0x4133 JUMPI PUSH1 0x0 DUP1 REVERT JUMPDEST PUSH2 0x413F DUP10 DUP4 DUP11 ADD PUSH2 0x3CBA JUMP JUMPDEST SWAP4 POP PUSH1 0x80 DUP9 ADD CALLDATALOAD SWAP2 POP DUP1 DUP3 GT ISZERO PUSH2 0x4155 JUMPI PUSH1 0x0 DUP1 REVERT JUMPDEST POP PUSH2 0x3EE9 DUP9 DUP3 DUP10 ADD PUSH2 0x3CBA JUMP JUMPDEST PUSH1 0x0 DUP1 PUSH1 0x0 DUP1 PUSH1 0x0 DUP1 PUSH1 0x0 PUSH1 0xE0 DUP9 DUP11 SUB SLT ISZERO PUSH2 0x417D JUMPI PUSH1 0x0 DUP1 REVERT JUMPDEST DUP8 CALLDATALOAD PUSH1 0x1 PUSH1 0x1 PUSH1 0x40 SHL SUB DUP1 DUP3 GT ISZERO PUSH2 0x4194 JUMPI PUSH1 0x0 DUP1 REVERT JUMPDEST PUSH2 0x41A0 DUP12 DUP4 DUP13 ADD PUSH2 0x3BD2 JUMP JUMPDEST SWAP9 POP PUSH1 0x20 DUP11 ADD CALLDATALOAD SWAP2 POP DUP1 DUP3 GT ISZERO PUSH2 0x41B6 JUMPI PUSH1 0x0 DUP1 REVERT JUMPDEST PUSH2 0x41C2 DUP12 DUP4 DUP13 ADD PUSH2 0x3AF0 JUMP JUMPDEST SWAP8 POP PUSH1 0x40 DUP11 ADD CALLDATALOAD SWAP2 POP DUP1 DUP3 GT ISZERO PUSH2 0x41D8 JUMPI PUSH1 0x0 DUP1 REVERT JUMPDEST PUSH2 0x41E4 DUP12 DUP4 DUP13 ADD PUSH2 0x3CBA JUMP JUMPDEST SWAP7 POP PUSH1 0x60 DUP11 ADD CALLDATALOAD SWAP2 POP DUP1 DUP3 GT ISZERO PUSH2 0x41FA JUMPI PUSH1 0x0 DUP1 REVERT JUMPDEST PUSH2 0x4206 DUP12 DUP4 DUP13 ADD PUSH2 0x3CBA JUMP JUMPDEST SWAP6 POP PUSH1 0x80 DUP11 ADD CALLDATALOAD SWAP2 POP DUP1 DUP3 GT ISZERO PUSH2 0x421C JUMPI PUSH1 0x0 DUP1 REVERT JUMPDEST PUSH2 0x4228 DUP12 DUP4 DUP13 ADD PUSH2 0x3D1A JUMP JUMPDEST SWAP5 POP PUSH1 0xA0 DUP11 ADD CALLDATALOAD SWAP2 POP DUP1 DUP3 GT ISZERO PUSH2 0x423E JUMPI PUSH1 0x0 DUP1 REVERT JUMPDEST PUSH2 0x424A DUP12 DUP4 DUP13 ADD PUSH2 0x3B6B JUMP JUMPDEST SWAP4 POP PUSH1 0xC0 DUP11 ADD CALLDATALOAD SWAP2 POP DUP1 DUP3 GT ISZERO PUSH2 0x4260 JUMPI PUSH1 0x0 DUP1 REVERT JUMPDEST POP PUSH2 0x426D DUP11 DUP3 DUP12 ADD PUSH2 0x3C4D JUMP JUMPDEST SWAP2 POP POP SWAP3 SWAP6 SWAP9 SWAP2 SWAP5 SWAP8 POP SWAP3 SWAP6 POP JUMP JUMPDEST PUSH1 0x0 DUP1 PUSH1 0x0 DUP1 PUSH1 0x0 DUP1 PUSH1 0xC0 DUP8 DUP10 SUB SLT ISZERO PUSH2 0x4295 JUMPI PUSH1 0x0 DUP1 REVERT JUMPDEST DUP7 CALLDATALOAD PUSH1 0x1 PUSH1 0x1 PUSH1 0x40 SHL SUB DUP1 DUP3 GT ISZERO PUSH2 0x42AC JUMPI PUSH1 0x0 DUP1 REVERT JUMPDEST PUSH2 0x42B8 DUP11 DUP4 DUP12 ADD PUSH2 0x3BD2 JUMP JUMPDEST SWAP8 POP PUSH1 0x20 DUP10 ADD CALLDATALOAD SWAP2 POP DUP1 DUP3 GT ISZERO PUSH2 0x42CE JUMPI PUSH1 0x0 DUP1 REVERT JUMPDEST PUSH2 0x42DA DUP11 DUP4 DUP12 ADD PUSH2 0x3AF0 JUMP JUMPDEST SWAP7 POP PUSH1 0x40 DUP10 ADD CALLDATALOAD SWAP2 POP DUP1 DUP3 GT ISZERO PUSH2 0x42F0 JUMPI PUSH1 0x0 DUP1 REVERT JUMPDEST PUSH2 0x42FC DUP11 DUP4 DUP12 ADD PUSH2 0x3CBA JUMP JUMPDEST SWAP6 POP PUSH1 0x60 DUP10 ADD CALLDATALOAD SWAP2 POP DUP1 DUP3 GT ISZERO PUSH2 0x4312 JUMPI PUSH1 0x0 DUP1 REVERT JUMPDEST PUSH2 0x431E DUP11 DUP4 DUP12 ADD PUSH2 0x3CBA JUMP JUMPDEST SWAP5 POP PUSH1 0x80 DUP10 ADD CALLDATALOAD SWAP2 POP DUP1 DUP3 GT ISZERO PUSH2 0x4334 JUMPI PUSH1 0x0 DUP1 REVERT JUMPDEST PUSH2 0x4340 DUP11 DUP4 DUP12 ADD PUSH2 0x3D1A JUMP JUMPDEST SWAP4 POP PUSH1 0xA0 DUP10 ADD CALLDATALOAD SWAP2 POP DUP1 DUP3 GT ISZERO PUSH2 0x4356 JUMPI PUSH1 0x0 DUP1 REVERT JUMPDEST POP PUSH2 0x4363 DUP10 DUP3 DUP11 ADD PUSH2 0x3CBA JUMP JUMPDEST SWAP2 POP POP SWAP3 SWAP6 POP SWAP3 SWAP6 POP SWAP3 SWAP6 JUMP JUMPDEST PUSH1 0x0 PUSH1 0x20 DUP3 DUP5 SUB SLT ISZERO PUSH2 0x4382 JUMPI PUSH1 0x0 DUP1 REVERT JUMPDEST DUP2 CALLDATALOAD PUSH2 0x3920 DUP2 PUSH2 0x4935 JUMP JUMPDEST PUSH1 0x0 PUSH1 0x20 DUP3 DUP5 SUB SLT ISZERO PUSH2 0x439F JUMPI PUSH1 0x0 DUP1 REVERT JUMPDEST DUP2 MLOAD PUSH2 0x3920 DUP2 PUSH2 0x4935 JUMP JUMPDEST PUSH1 0x0 PUSH1 0x20 DUP3 DUP5 SUB SLT ISZERO PUSH2 0x43BC JUMPI PUSH1 0x0 DUP1 REVERT JUMPDEST PUSH2 0x3920 DUP3 PUSH2 0x3D83 JUMP JUMPDEST PUSH1 0x0 PUSH1 0x20 DUP3 DUP5 SUB SLT ISZERO PUSH2 0x43D7 JUMPI PUSH1 0x0 DUP1 REVERT JUMPDEST POP CALLDATALOAD SWAP2 SWAP1 POP JUMP JUMPDEST PUSH1 0x0 PUSH1 0x20 DUP3 DUP5 SUB SLT ISZERO PUSH2 0x43F0 JUMPI PUSH1 0x0 DUP1 REVERT JUMPDEST DUP2 MLOAD PUSH2 0x3920 DUP2 PUSH2 0x4943 JUMP JUMPDEST PUSH1 0x0 DUP2 MLOAD DUP1 DUP5 MSTORE PUSH1 0x20 DUP1 DUP6 ADD SWAP5 POP DUP1 DUP5 ADD PUSH1 0x0 JUMPDEST DUP4 DUP2 LT ISZERO PUSH2 0x442B JUMPI DUP2 MLOAD DUP8 MSTORE SWAP6 DUP3 ADD SWAP6 SWAP1 DUP3 ADD SWAP1 PUSH1 0x1 ADD PUSH2 0x440F JUMP JUMPDEST POP SWAP5 SWAP6 SWAP5 POP POP POP POP POP JUMP JUMPDEST PUSH1 0x60 SWAP4 SWAP1 SWAP4 SHL PUSH12 0xFFFFFFFFFFFFFFFFFFFFFFFF NOT AND DUP4 MSTORE PUSH1 0x14 DUP4 ADD SWAP2 SWAP1 SWAP2 MSTORE PUSH1 0x34 DUP3 ADD MSTORE PUSH1 0x54 ADD SWAP1 JUMP JUMPDEST PUSH1 0x0 DUP3 MLOAD PUSH2 0x4472 DUP2 DUP5 PUSH1 0x20 DUP8 ADD PUSH2 0x4881 JUMP JUMPDEST SWAP2 SWAP1 SWAP2 ADD SWAP3 SWAP2 POP POP JUMP JUMPDEST PUSH1 0x1 PUSH1 0x1 PUSH1 0xA0 SHL SUB DUP6 DUP2 AND DUP3 MSTORE DUP5 AND PUSH1 0x20 DUP3 ADD MSTORE PUSH1 0xA0 PUSH1 0x40 DUP3 ADD DUP2 SWAP1 MSTORE PUSH1 0x0 SWAP1 PUSH2 0x44A8 SWAP1 DUP4 ADD DUP6 PUSH2 0x43FB JUMP JUMPDEST DUP3 DUP2 SUB PUSH1 0x60 DUP5 ADD MSTORE PUSH2 0x44BA DUP2 DUP6 PUSH2 0x43FB JUMP JUMPDEST DUP4 DUP2 SUB PUSH1 0x80 SWAP1 SWAP5 ADD SWAP4 SWAP1 SWAP4 MSTORE POP POP PUSH1 0x0 DUP2 MSTORE PUSH1 0x20 ADD SWAP5 SWAP4 POP POP POP POP JUMP JUMPDEST DUP7 ISZERO ISZERO DUP2 MSTORE PUSH1 0x20 DUP2 ADD DUP7 SWAP1 MSTORE PUSH1 0xFF DUP6 DUP2 AND PUSH1 0x40 DUP4 ADD MSTORE PUSH1 0x1 PUSH1 0x1 PUSH1 0xE0 SHL SUB NOT DUP6 AND PUSH1 0x60 DUP4 ADD MSTORE DUP4 AND PUSH1 0x80 DUP3 ADD MSTORE PUSH1 0xC0 DUP2 ADD PUSH1 0x4 DUP4 LT PUSH2 0x4526 JUMPI PUSH4 0x4E487B71 PUSH1 0xE0 SHL PUSH1 0x0 MSTORE PUSH1 0x21 PUSH1 0x4 MSTORE PUSH1 0x24 PUSH1 0x0 REVERT JUMPDEST DUP3 PUSH1 0xA0 DUP4 ADD MSTORE SWAP8 SWAP7 POP POP POP POP POP POP POP JUMP JUMPDEST PUSH1 0x20 DUP2 MSTORE PUSH1 0x0 DUP3 MLOAD DUP1 PUSH1 0x20 DUP5 ADD MSTORE PUSH2 0x4556 DUP2 PUSH1 0x40 DUP6 ADD PUSH1 0x20 DUP8 ADD PUSH2 0x4881 JUMP JUMPDEST PUSH1 0x1F ADD PUSH1 0x1F NOT AND SWAP2 SWAP1 SWAP2 ADD PUSH1 0x40 ADD SWAP3 SWAP2 POP POP JUMP JUMPDEST PUSH1 0x20 DUP1 DUP3 MSTORE PUSH1 0x1B SWAP1 DUP3 ADD MSTORE PUSH32 0x52654E46543A3A696E76616C6964206E6674207374616E646172640000000000 PUSH1 0x40 DUP3 ADD MSTORE PUSH1 0x60 ADD SWAP1 JUMP JUMPDEST PUSH1 0x20 DUP1 DUP3 MSTORE PUSH1 0x17 SWAP1 DUP3 ADD MSTORE PUSH32 0x52654E46543A3A6475726174696F6E206973207A65726F000000000000000000 PUSH1 0x40 DUP3 ADD MSTORE PUSH1 0x60 ADD SWAP1 JUMP JUMPDEST PUSH1 0x20 DUP1 DUP3 MSTORE PUSH1 0x19 SWAP1 DUP3 ADD MSTORE PUSH32 0x52654E46543A3A72656E74207072696365206973207A65726F00000000000000 PUSH1 0x40 DUP3 ADD MSTORE PUSH1 0x60 ADD SWAP1 JUMP JUMPDEST PUSH1 0x20 DUP1 DUP3 MSTORE PUSH1 0x10 SWAP1 DUP3 ADD MSTORE PUSH16 0xA4CA9C8CA87474DCDEE840EAD2DCE87 PUSH1 0x83 SHL PUSH1 0x40 DUP3 ADD MSTORE PUSH1 0x60 ADD SWAP1 JUMP JUMPDEST PUSH1 0x20 DUP1 DUP3 MSTORE PUSH1 0xD SWAP1 DUP3 ADD MSTORE PUSH13 0x14995391950E8E9C185D5CD959 PUSH1 0x9A SHL PUSH1 0x40 DUP3 ADD MSTORE PUSH1 0x60 ADD SWAP1 JUMP JUMPDEST PUSH1 0x20 DUP1 DUP3 MSTORE PUSH1 0x10 SWAP1 DUP3 ADD MSTORE PUSH16 0x2932A7232A1D1D3737BA1030B236B4B7 PUSH1 0x81 SHL PUSH1 0x40 DUP3 ADD MSTORE PUSH1 0x60 ADD SWAP1 JUMP JUMPDEST PUSH1 0x40 MLOAD PUSH1 0x1F DUP3 ADD PUSH1 0x1F NOT AND DUP2 ADD PUSH1 0x1 PUSH1 0x1 PUSH1 0x40 SHL SUB DUP2 GT DUP3 DUP3 LT OR ISZERO PUSH2 0x46B2 JUMPI PUSH2 0x46B2 PUSH2 0x490A JUMP JUMPDEST PUSH1 0x40 MSTORE SWAP2 SWAP1 POP JUMP JUMPDEST PUSH1 0x0 PUSH1 0x1 PUSH1 0x1 PUSH1 0x40 SHL SUB DUP3 GT ISZERO PUSH2 0x46D3 JUMPI PUSH2 0x46D3 PUSH2 0x490A JUMP JUMPDEST POP PUSH1 0x5 SHL PUSH1 0x20 ADD SWAP1 JUMP JUMPDEST PUSH1 0x0 PUSH2 0xFFFF DUP1 DUP4 AND DUP2 DUP6 AND DUP1 DUP4 SUB DUP3 GT ISZERO PUSH2 0x46FA JUMPI PUSH2 0x46FA PUSH2 0x48C8 JUMP JUMPDEST ADD SWAP5 SWAP4 POP POP POP POP JUMP JUMPDEST PUSH1 0x0 DUP3 NOT DUP3 GT ISZERO PUSH2 0x4716 JUMPI PUSH2 0x4716 PUSH2 0x48C8 JUMP JUMPDEST POP ADD SWAP1 JUMP JUMPDEST PUSH1 0x0 DUP3 PUSH2 0x4738 JUMPI PUSH4 0x4E487B71 PUSH1 0xE0 SHL PUSH1 0x0 MSTORE PUSH1 0x12 PUSH1 0x4 MSTORE PUSH1 0x24 PUSH1 0x0 REVERT JUMPDEST POP DIV SWAP1 JUMP JUMPDEST PUSH1 0x1 DUP2 DUP2 JUMPDEST DUP1 DUP6 GT ISZERO PUSH2 0x4778 JUMPI DUP2 PUSH1 0x0 NOT DIV DUP3 GT ISZERO PUSH2 0x475E JUMPI PUSH2 0x475E PUSH2 0x48C8 JUMP JUMPDEST DUP1 DUP6 AND ISZERO PUSH2 0x476B JUMPI SWAP2 DUP2 MUL SWAP2 JUMPDEST SWAP4 DUP5 SHR SWAP4 SWAP1 DUP1 MUL SWAP1 PUSH2 0x4742 JUMP JUMPDEST POP SWAP3 POP SWAP3 SWAP1 POP JUMP JUMPDEST PUSH1 0x0 PUSH2 0x3920 DUP4 DUP4 PUSH1 0x0 DUP3 PUSH2 0x4796 JUMPI POP PUSH1 0x1 PUSH2 0x400 JUMP JUMPDEST DUP2 PUSH2 0x47A3 JUMPI POP PUSH1 0x0 PUSH2 0x400 JUMP JUMPDEST DUP2 PUSH1 0x1 DUP2 EQ PUSH2 0x47B9 JUMPI PUSH1 0x2 DUP2 EQ PUSH2 0x47C3 JUMPI PUSH2 0x47DF JUMP JUMPDEST PUSH1 0x1 SWAP2 POP POP PUSH2 0x400 JUMP JUMPDEST PUSH1 0xFF DUP5 GT ISZERO PUSH2 0x47D4 JUMPI PUSH2 0x47D4 PUSH2 0x48C8 JUMP JUMPDEST POP POP PUSH1 0x1 DUP3 SHL PUSH2 0x400 JUMP JUMPDEST POP PUSH1 0x20 DUP4 LT PUSH2 0x133 DUP4 LT AND PUSH1 0x4E DUP5 LT PUSH1 0xB DUP5 LT AND OR ISZERO PUSH2 0x4802 JUMPI POP DUP2 DUP2 EXP PUSH2 0x400 JUMP JUMPDEST PUSH2 0x480C DUP4 DUP4 PUSH2 0x473D JUMP JUMPDEST DUP1 PUSH1 0x0 NOT DIV DUP3 GT ISZERO PUSH2 0x4820 JUMPI PUSH2 0x4820 PUSH2 0x48C8 JUMP JUMPDEST MUL SWAP4 SWAP3 POP POP POP JUMP JUMPDEST PUSH1 0x0 DUP2 PUSH1 0x0 NOT DIV DUP4 GT DUP3 ISZERO ISZERO AND ISZERO PUSH2 0x4842 JUMPI PUSH2 0x4842 PUSH2 0x48C8 JUMP JUMPDEST POP MUL SWAP1 JUMP JUMPDEST PUSH1 0x0 PUSH2 0xFFFF DUP4 DUP2 AND SWAP1 DUP4 AND DUP2 DUP2 LT ISZERO PUSH2 0x4862 JUMPI PUSH2 0x4862 PUSH2 0x48C8 JUMP JUMPDEST SUB SWAP4 SWAP3 POP POP POP JUMP JUMPDEST PUSH1 0x0 DUP3 DUP3 LT ISZERO PUSH2 0x487C JUMPI PUSH2 0x487C PUSH2 0x48C8 JUMP JUMPDEST POP SUB SWAP1 JUMP JUMPDEST PUSH1 0x0 JUMPDEST DUP4 DUP2 LT ISZERO PUSH2 0x489C JUMPI DUP2 DUP2 ADD MLOAD DUP4 DUP3 ADD MSTORE PUSH1 0x20 ADD PUSH2 0x4884 JUMP JUMPDEST DUP4 DUP2 GT ISZERO PUSH2 0x708 JUMPI POP POP PUSH1 0x0 SWAP2 ADD MSTORE JUMP JUMPDEST PUSH1 0x0 PUSH1 0x0 NOT DUP3 EQ ISZERO PUSH2 0x48C1 JUMPI PUSH2 0x48C1 PUSH2 0x48C8 JUMP JUMPDEST POP PUSH1 0x1 ADD SWAP1 JUMP JUMPDEST PUSH4 0x4E487B71 PUSH1 0xE0 SHL PUSH1 0x0 MSTORE PUSH1 0x11 PUSH1 0x4 MSTORE PUSH1 0x24 PUSH1 0x0 REVERT JUMPDEST PUSH4 0x4E487B71 PUSH1 0xE0 SHL PUSH1 0x0 MSTORE PUSH1 0x21 PUSH1 0x4 MSTORE PUSH1 0x24 PUSH1 0x0 REVERT JUMPDEST PUSH4 0x4E487B71 PUSH1 0xE0 SHL PUSH1 0x0 MSTORE PUSH1 0x32 PUSH1 0x4 MSTORE PUSH1 0x24 PUSH1 0x0 REVERT JUMPDEST PUSH4 0x4E487B71 PUSH1 0xE0 SHL PUSH1 0x0 MSTORE PUSH1 0x41 PUSH1 0x4 MSTORE PUSH1 0x24 PUSH1 0x0 REVERT JUMPDEST PUSH1 0x1 PUSH1 0x1 PUSH1 0xA0 SHL SUB DUP2 AND DUP2 EQ PUSH2 0x1575 JUMPI PUSH1 0x0 DUP1 REVERT JUMPDEST DUP1 ISZERO ISZERO DUP2 EQ PUSH2 0x1575 JUMPI PUSH1 0x0 DUP1 REVERT JUMPDEST PUSH1 0xFF DUP2 AND DUP2 EQ PUSH2 0x1575 JUMPI PUSH1 0x0 DUP1 REVERT INVALID LOG2 PUSH5 0x6970667358 0x22 SLT KECCAK256 0xD6 PUSH2 0x644C 0xC9 PUSH15 0xB97C0E638B3C2A113476B9D8F764B5 NOT PUSH14 0xB7330B5999AD0E7B6B64736F6C63 NUMBER STOP ADDMOD SMOD STOP CALLER ",
  "sha1": "a7f7a15d2f49bbbc5068315d13394ede9591cdf6",
  "source": "// SPDX-License-Identifier: MIT\npragma solidity =0.8.7;\n\nimport \"OpenZeppelin/openzeppelin-contracts@4.3.0/contracts/token/ERC20/ERC20.sol\";\nimport \"OpenZeppelin/openzeppelin-contracts@4.3.0/contracts/token/ERC20/IERC20.sol\";\nimport \"OpenZeppelin/openzeppelin-contracts@4.3.0/contracts/token/ERC20/utils/SafeERC20.sol\";\nimport \"OpenZeppelin/openzeppelin-contracts@4.3.0/contracts/token/ERC721/IERC721.sol\";\nimport \"OpenZeppelin/openzeppelin-contracts@4.3.0/contracts/token/ERC721/utils/ERC721Holder.sol\";\nimport \"OpenZeppelin/openzeppelin-contracts@4.3.0/contracts/token/ERC1155/IERC1155.sol\";\nimport \"OpenZeppelin/openzeppelin-contracts@4.3.0/contracts/token/ERC1155/utils/ERC1155Holder.sol\";\nimport \"OpenZeppelin/openzeppelin-contracts@4.3.0/contracts/token/ERC1155/utils/ERC1155Receiver.sol\";\n\nimport \"./interfaces/IRegistry.sol\";\n\n//              @@@@@@@@@@@@@@@@        ,@@@@@@@@@@@@@@@@\n//              @@@,,,,,,,,,,@@@        ,@@&,,,,,,,,,,@@@\n//         @@@@@@@@,,,,,,,,,,@@@@@@@@&  ,@@&,,,,,,,,,,@@@@@@@@\n//         @@@**********@@@@@@@@@@@@@&  ,@@@@@@@@**********@@@\n//         @@@**********@@@@@@@@@@@@@&  ,@@@@@@@@**********@@@@@@@@\n//         @@@**********@@@@@@@@@@@@@&       .@@@**********@@@@@@@@\n//    @@@@@@@@**********@@@@@@@@@@@@@&       .@@@**********@@@@@@@@\n//    @@@**********@@@@@@@@@@@@@&            .@@@@@@@@**********@@@\n//    @@@**********@@@@@@@@@@@@@&            .@@@@@@@@**********@@@@@@@@\n//    @@@@@@@@**********@@@@@@@@&            .@@@**********@@@@@@@@@@@@@\n//    @@@@@@@@//////////@@@@@@@@&            .@@@//////////@@@@@@@@@@@@@\n//         @@@//////////@@@@@@@@&            .@@@//////////@@@@@@@@@@@@@\n//         @@@//////////@@@@@@@@&       ,@@@@@@@@//////////@@@@@@@@@@@@@\n//         @@@%%%%%/////(((((@@@&       ,@@@(((((/////%%%%%@@@@@@@@\n//         @@@@@@@@//////////@@@@@@@@&  ,@@@//////////@@@@@@@@@@@@@\n//              @@@%%%%%%%%%%@@@@@@@@&  ,@@@%%%%%%%%%%@@@@@@@@@@@@@\n//              @@@@@@@@@@@@@@@@@@@@@&  ,@@@@@@@@@@@@@@@@@@@@@@@@@@\n//                   @@@@@@@@@@@@@@@@&        @@@@@@@@@@@@@@@@\n//                   @@@@@@@@@@@@@@@@&        @@@@@@@@@@@@@@@@\n\ncontract Registry is IRegistry, ERC721Holder, ERC1155Receiver, ERC1155Holder {\n    using SafeERC20 for ERC20;\n\n    IResolver private resolver;\n    address private admin;\n    address payable private beneficiary;\n    uint256 private lendingID = 1;\n    uint256 private rentingID = 1;\n    bool public paused = false;\n    uint256 public rentFee = 0;\n    uint256 private constant SECONDS_IN_DAY = 86400;\n    mapping(bytes32 => Lending) private lendings;\n    mapping(bytes32 => Renting) private rentings;\n\n    modifier onlyAdmin() {\n        require(msg.sender == admin, \"ReNFT::not admin\");\n        _;\n    }\n\n    modifier notPaused() {\n        require(!paused, \"ReNFT::paused\");\n        _;\n    }\n\n    constructor(\n        address newResolver,\n        address payable newBeneficiary,\n        address newAdmin\n    ) {\n        ensureIsNotZeroAddr(newResolver);\n        ensureIsNotZeroAddr(newBeneficiary);\n        ensureIsNotZeroAddr(newAdmin);\n        resolver = IResolver(newResolver);\n        beneficiary = newBeneficiary;\n        admin = newAdmin;\n    }\n\n    function lend(\n        IRegistry.NFTStandard[] memory nftStandard,\n        address[] memory nftAddress,\n        uint256[] memory tokenID,\n        uint256[] memory lendAmount,\n        uint8[] memory maxRentDuration,\n        bytes4[] memory dailyRentPrice,\n        IResolver.PaymentToken[] memory paymentToken\n    ) external override notPaused {\n        bundleCall(\n            handleLend,\n            createLendCallData(\n                nftStandard,\n                nftAddress,\n                tokenID,\n                lendAmount,\n                maxRentDuration,\n                dailyRentPrice,\n                paymentToken\n            )\n        );\n    }\n\n    function stopLend(\n        IRegistry.NFTStandard[] memory nftStandard,\n        address[] memory nftAddress,\n        uint256[] memory tokenID,\n        uint256[] memory _lendingID\n    ) external override notPaused {\n        bundleCall(\n            handleStopLend,\n            createActionCallData(\n                nftStandard,\n                nftAddress,\n                tokenID,\n                _lendingID,\n                new uint256[](0)\n            )\n        );\n    }\n\n    function rent(\n        IRegistry.NFTStandard[] memory nftStandard,\n        address[] memory nftAddress,\n        uint256[] memory tokenID,\n        uint256[] memory _lendingID,\n        uint8[] memory rentDuration,\n        uint256[] memory rentAmount\n    ) external payable override notPaused {\n        bundleCall(\n            handleRent,\n            createRentCallData(\n                nftStandard,\n                nftAddress,\n                tokenID,\n                _lendingID,\n                rentDuration,\n                rentAmount\n            )\n        );\n    }\n\n    function stopRent(\n        IRegistry.NFTStandard[] memory nftStandard,\n        address[] memory nftAddress,\n        uint256[] memory tokenID,\n        uint256[] memory _lendingID,\n        uint256[] memory _rentingID\n    ) external override notPaused {\n        bundleCall(\n            handleStopRent,\n            createActionCallData(\n                nftStandard,\n                nftAddress,\n                tokenID,\n                _lendingID,\n                _rentingID\n            )\n        );\n    }\n\n    function claimRent(\n        IRegistry.NFTStandard[] memory nftStandard,\n        address[] memory nftAddress,\n        uint256[] memory tokenID,\n        uint256[] memory _lendingID,\n        uint256[] memory _rentingID\n    ) external override notPaused {\n        bundleCall(\n            handleClaimRent,\n            createActionCallData(\n                nftStandard,\n                nftAddress,\n                tokenID,\n                _lendingID,\n                _rentingID\n            )\n        );\n    }\n\n    //      .-.     .-.     .-.     .-.     .-.     .-.     .-.     .-.     .-.     .-.\n    // `._.'   `._.'   `._.'   `._.'   `._.'   `._.'   `._.'   `._.'   `._.'   `._.'   `._.'\n\n    function handleLend(IRegistry.CallData memory cd) private {\n        for (uint256 i = cd.left; i < cd.right; i++) {\n            ensureIsLendable(cd, i);\n            bytes32 identifier = keccak256(\n                abi.encodePacked(\n                    cd.nftAddress[cd.left],\n                    cd.tokenID[i],\n                    lendingID\n                )\n            );\n            IRegistry.Lending storage lending = lendings[identifier];\n            ensureIsNull(lending);\n            ensureTokenNotSentinel(uint8(cd.paymentToken[i]));\n            bool is721 = cd.nftStandard[i] == IRegistry.NFTStandard.E721;\n            lendings[identifier] = IRegistry.Lending({\n                nftStandard: cd.nftStandard[i],\n                lenderAddress: payable(msg.sender),\n                maxRentDuration: cd.maxRentDuration[i],\n                dailyRentPrice: cd.dailyRentPrice[i],\n                lendAmount: is721 ? 1 : uint8(cd.lendAmount[i]),\n                availableAmount: is721 ? 1 : uint8(cd.lendAmount[i]),\n                paymentToken: cd.paymentToken[i]\n            });\n            emit IRegistry.Lend(\n                is721,\n                msg.sender,\n                cd.nftAddress[cd.left],\n                cd.tokenID[i],\n                lendingID,\n                cd.maxRentDuration[i],\n                cd.dailyRentPrice[i],\n                is721 ? 1 : uint8(cd.lendAmount[i]),\n                cd.paymentToken[i]\n            );\n            lendingID++;\n        }\n        safeTransfer(\n            cd,\n            msg.sender,\n            address(this),\n            sliceArr(cd.tokenID, cd.left, cd.right, 0),\n            sliceArr(cd.lendAmount, cd.left, cd.right, 0)\n        );\n    }\n\n    function handleStopLend(IRegistry.CallData memory cd) private {\n        uint256[] memory lentAmounts = new uint256[](cd.right - cd.left);\n        IRegistry.NFTStandard nftStandard = IRegistry.NFTStandard.E721;\n        for (uint256 i = cd.left; i < cd.right; i++) {\n            bytes32 lendingIdentifier = keccak256(\n                abi.encodePacked(\n                    cd.nftAddress[cd.left],\n                    cd.tokenID[i],\n                    cd.lendingID[i]\n                )\n            );\n            Lending storage lending = lendings[lendingIdentifier];\n            require(\n                cd.nftStandard[i] == lending.nftStandard,\n                \"ReNFT::invalid nft standard\"\n            );\n            // the condition below ensures there are no rentings tied up to this lending\n            require(\n                lending.lendAmount == lending.availableAmount,\n                \"ReNFT::actively rented\"\n            );\n            ensureIsNotNull(lending);\n            ensureIsStoppable(lending, msg.sender);\n            lentAmounts[i - cd.left] = lending.lendAmount;\n            nftStandard = lending.nftStandard;\n            emit IRegistry.StopLend(cd.lendingID[i], uint32(block.timestamp));\n            delete lendings[lendingIdentifier];\n        }\n        safeTransfer(\n            cd,\n            address(this),\n            msg.sender,\n            sliceArr(cd.tokenID, cd.left, cd.right, 0),\n            sliceArr(lentAmounts, cd.left, cd.right, cd.left)\n        );\n    }\n\n    function handleRent(IRegistry.CallData memory cd) private {\n        for (uint256 i = cd.left; i < cd.right; i++) {\n            bytes32 lendingIdentifier = keccak256(\n                abi.encodePacked(\n                    cd.nftAddress[cd.left],\n                    cd.tokenID[i],\n                    cd.lendingID[i]\n                )\n            );\n            bytes32 rentingIdentifier = keccak256(\n                abi.encodePacked(\n                    cd.nftAddress[cd.left],\n                    cd.tokenID[i],\n                    rentingID\n                )\n            );\n            IRegistry.Lending storage lending = lendings[lendingIdentifier];\n            IRegistry.Renting storage renting = rentings[rentingIdentifier];\n            ensureIsNotNull(lending);\n            ensureIsNull(renting);\n            ensureIsRentable(lending, cd, i, msg.sender);\n            require(\n                cd.nftStandard[i] == lending.nftStandard,\n                \"ReNFT::invalid nft standard\"\n            );\n            require(\n                cd.rentAmount[i] <= lending.availableAmount,\n                \"ReNFT::invalid rent amount\"\n            );\n            uint8 paymentTokenIx = uint8(lending.paymentToken);\n            address paymentToken = resolver.getPaymentToken(paymentTokenIx);\n            uint256 decimals = ERC20(paymentToken).decimals();\n            {\n                uint256 scale = 10**decimals;\n                uint256 rentPrice = cd.rentDuration[i] *\n                    unpackPrice(lending.dailyRentPrice, scale);\n                require(rentPrice > 0, \"ReNFT::rent price is zero\");\n                ERC20(paymentToken).safeTransferFrom(\n                    msg.sender,\n                    address(this),\n                    rentPrice\n                );\n            }\n            rentings[rentingIdentifier] = IRegistry.Renting({\n                renterAddress: payable(msg.sender),\n                rentAmount: uint8(cd.rentAmount[i]),\n                rentDuration: cd.rentDuration[i],\n                rentedAt: uint32(block.timestamp)\n            });\n            lendings[lendingIdentifier].availableAmount -= uint8(\n                cd.rentAmount[i]\n            );\n            emit IRegistry.Rent(\n                msg.sender,\n                cd.lendingID[i],\n                rentingID,\n                uint8(cd.rentAmount[i]),\n                cd.rentDuration[i],\n                renting.rentedAt\n            );\n            rentingID++;\n        }\n    }\n\n    function handleStopRent(IRegistry.CallData memory cd) private {\n        for (uint256 i = cd.left; i < cd.right; i++) {\n            bytes32 lendingIdentifier = keccak256(\n                abi.encodePacked(\n                    cd.nftAddress[cd.left],\n                    cd.tokenID[i],\n                    cd.lendingID[i]\n                )\n            );\n            bytes32 rentingIdentifier = keccak256(\n                abi.encodePacked(\n                    cd.nftAddress[cd.left],\n                    cd.tokenID[i],\n                    cd.rentingID[i]\n                )\n            );\n            IRegistry.Lending storage lending = lendings[lendingIdentifier];\n            IRegistry.Renting storage renting = rentings[rentingIdentifier];\n            ensureIsNotNull(lending);\n            ensureIsReturnable(renting, msg.sender, block.timestamp);\n            require(\n                cd.nftStandard[i] == lending.nftStandard,\n                \"ReNFT::invalid nft standard\"\n            );\n            require(\n                renting.rentAmount <= lending.lendAmount,\n                \"ReNFT::critical error\"\n            );\n            uint256 secondsSinceRentStart = block.timestamp - renting.rentedAt;\n            distributePayments(lending, renting, secondsSinceRentStart);\n            lendings[lendingIdentifier].availableAmount += renting.rentAmount;\n            emit IRegistry.StopRent(cd.lendingID[i], uint32(block.timestamp));\n            delete rentings[rentingIdentifier];\n        }\n    }\n\n    function handleClaimRent(CallData memory cd) private {\n        for (uint256 i = cd.left; i < cd.right; i++) {\n            bytes32 lendingIdentifier = keccak256(\n                abi.encodePacked(\n                    cd.nftAddress[cd.left],\n                    cd.tokenID[i],\n                    cd.lendingID[i]\n                )\n            );\n            bytes32 rentingIdentifier = keccak256(\n                abi.encodePacked(\n                    cd.nftAddress[cd.left],\n                    cd.tokenID[i],\n                    cd.rentingID[i]\n                )\n            );\n            IRegistry.Lending storage lending = lendings[lendingIdentifier];\n            IRegistry.Renting storage renting = rentings[rentingIdentifier];\n            ensureIsNotNull(lending);\n            ensureIsNotNull(renting);\n            ensureIsClaimable(renting, block.timestamp);\n            distributeClaimPayment(lending, renting);\n            emit IRegistry.RentClaimed(\n                cd.lendingID[i],\n                uint32(block.timestamp)\n            );\n            lending.availableAmount =\n                lending.availableAmount +\n                renting.rentAmount;\n            delete rentings[rentingIdentifier];\n        }\n    }\n\n    //      .-.     .-.     .-.     .-.     .-.     .-.     .-.     .-.     .-.     .-.\n    // `._.'   `._.'   `._.'   `._.'   `._.'   `._.'   `._.'   `._.'   `._.'   `._.'   `._.'\n\n    function bundleCall(\n        function(IRegistry.CallData memory) handler,\n        IRegistry.CallData memory cd\n    ) private {\n        require(cd.nftAddress.length > 0, \"ReNFT::no nfts\");\n        while (cd.right != cd.nftAddress.length) {\n            if (\n                (cd.nftAddress[cd.left] == cd.nftAddress[cd.right]) &&\n                (cd.nftStandard[cd.right] == IRegistry.NFTStandard.E1155)\n            ) {\n                cd.right++;\n            } else {\n                handler(cd);\n                cd.left = cd.right;\n                cd.right++;\n            }\n        }\n        handler(cd);\n    }\n\n    function takeFee(uint256 rentAmt, IResolver.PaymentToken paymentToken)\n        private\n        returns (uint256 fee)\n    {\n        fee = rentAmt * rentFee;\n        fee /= 10000;\n        uint8 paymentTokenIx = uint8(paymentToken);\n        ERC20 pmtToken = ERC20(resolver.getPaymentToken(paymentTokenIx));\n        pmtToken.safeTransfer(beneficiary, fee);\n    }\n\n    function distributePayments(\n        IRegistry.Lending memory lending,\n        IRegistry.Renting memory renting,\n        uint256 secondsSinceRentStart\n    ) private {\n        uint8 paymentTokenIx = uint8(lending.paymentToken);\n        address pmtToken = resolver.getPaymentToken(paymentTokenIx);\n        uint256 decimals = ERC20(pmtToken).decimals();\n        uint256 scale = 10**decimals;\n        uint256 rentPrice = unpackPrice(lending.dailyRentPrice, scale);\n        uint256 totalRenterPmt = rentPrice * renting.rentDuration;\n        uint256 sendLenderAmt = (secondsSinceRentStart * rentPrice) /\n            SECONDS_IN_DAY;\n        require(totalRenterPmt > 0, \"ReNFT::total renter payment is zero\");\n        require(sendLenderAmt > 0, \"ReNFT::lender payment is zero\");\n        uint256 sendRenterAmt = totalRenterPmt - sendLenderAmt;\n        if (rentFee != 0) {\n            uint256 takenFee = takeFee(sendLenderAmt, lending.paymentToken);\n            sendLenderAmt -= takenFee;\n        }\n        ERC20(pmtToken).safeTransfer(lending.lenderAddress, sendLenderAmt);\n        if (sendRenterAmt > 0) {\n            ERC20(pmtToken).safeTransfer(renting.renterAddress, sendRenterAmt);\n        }\n    }\n\n    function distributeClaimPayment(\n        IRegistry.Lending memory lending,\n        IRegistry.Renting memory renting\n    ) private {\n        uint8 paymentTokenIx = uint8(lending.paymentToken);\n        ERC20 paymentToken = ERC20(resolver.getPaymentToken(paymentTokenIx));\n        uint256 decimals = ERC20(paymentToken).decimals();\n        uint256 scale = 10**decimals;\n        uint256 rentPrice = unpackPrice(lending.dailyRentPrice, scale);\n        uint256 finalAmt = rentPrice * renting.rentDuration;\n        uint256 takenFee = 0;\n        if (rentFee != 0) {\n            takenFee = takeFee(\n                finalAmt,\n                IResolver.PaymentToken(paymentTokenIx)\n            );\n        }\n        paymentToken.safeTransfer(lending.lenderAddress, finalAmt - takenFee);\n    }\n\n    function safeTransfer(\n        CallData memory cd,\n        address from,\n        address to,\n        uint256[] memory tokenID,\n        uint256[] memory lendAmount\n    ) private {\n        if (cd.nftStandard[cd.left] == IRegistry.NFTStandard.E721) {\n            IERC721(cd.nftAddress[cd.left]).transferFrom(\n                from,\n                to,\n                cd.tokenID[cd.left]\n            );\n        } else {\n            IERC1155(cd.nftAddress[cd.left]).safeBatchTransferFrom(\n                from,\n                to,\n                tokenID,\n                lendAmount,\n                \"\"\n            );\n        }\n    }\n\n    //      .-.     .-.     .-.     .-.     .-.     .-.     .-.     .-.     .-.     .-.\n    // `._.'   `._.'   `._.'   `._.'   `._.'   `._.'   `._.'   `._.'   `._.'   `._.'   `._.'\n\n    function getLending(\n        address nftAddress,\n        uint256 tokenID,\n        uint256 _lendingID\n    )\n        external\n        view\n        returns (\n            uint8,\n            address,\n            uint8,\n            bytes4,\n            uint16,\n            uint16,\n            uint8\n        )\n    {\n        bytes32 identifier = keccak256(\n            abi.encodePacked(nftAddress, tokenID, _lendingID)\n        );\n        IRegistry.Lending storage lending = lendings[identifier];\n        return (\n            uint8(lending.nftStandard),\n            lending.lenderAddress,\n            lending.maxRentDuration,\n            lending.dailyRentPrice,\n            lending.lendAmount,\n            lending.availableAmount,\n            uint8(lending.paymentToken)\n        );\n    }\n\n    function getRenting(\n        address nftAddress,\n        uint256 tokenID,\n        uint256 _rentingID\n    )\n        external\n        view\n        returns (\n            address,\n            uint16,\n            uint8,\n            uint32\n        )\n    {\n        bytes32 identifier = keccak256(\n            abi.encodePacked(nftAddress, tokenID, _rentingID)\n        );\n        IRegistry.Renting storage renting = rentings[identifier];\n        return (\n            renting.renterAddress,\n            renting.rentAmount,\n            renting.rentDuration,\n            renting.rentedAt\n        );\n    }\n\n    //      .-.     .-.     .-.     .-.     .-.     .-.     .-.     .-.     .-.     .-.\n    // `._.'   `._.'   `._.'   `._.'   `._.'   `._.'   `._.'   `._.'   `._.'   `._.'   `._.'\n\n    function createLendCallData(\n        IRegistry.NFTStandard[] memory nftStandard,\n        address[] memory nftAddress,\n        uint256[] memory tokenID,\n        uint256[] memory lendAmount,\n        uint8[] memory maxRentDuration,\n        bytes4[] memory dailyRentPrice,\n        IResolver.PaymentToken[] memory paymentToken\n    ) private pure returns (CallData memory cd) {\n        cd = CallData({\n            left: 0,\n            right: 1,\n            nftStandard: nftStandard,\n            nftAddress: nftAddress,\n            tokenID: tokenID,\n            lendAmount: lendAmount,\n            lendingID: new uint256[](0),\n            rentingID: new uint256[](0),\n            rentDuration: new uint8[](0),\n            rentAmount: new uint256[](0),\n            maxRentDuration: maxRentDuration,\n            dailyRentPrice: dailyRentPrice,\n            paymentToken: paymentToken\n        });\n    }\n\n    function createRentCallData(\n        IRegistry.NFTStandard[] memory nftStandard,\n        address[] memory nftAddress,\n        uint256[] memory tokenID,\n        uint256[] memory _lendingID,\n        uint8[] memory rentDuration,\n        uint256[] memory rentAmount\n    ) private pure returns (CallData memory cd) {\n        cd = CallData({\n            left: 0,\n            right: 1,\n            nftStandard: nftStandard,\n            nftAddress: nftAddress,\n            tokenID: tokenID,\n            lendAmount: new uint256[](0),\n            lendingID: _lendingID,\n            rentingID: new uint256[](0),\n            rentDuration: rentDuration,\n            rentAmount: rentAmount,\n            maxRentDuration: new uint8[](0),\n            dailyRentPrice: new bytes4[](0),\n            paymentToken: new IResolver.PaymentToken[](0)\n        });\n    }\n\n    function createActionCallData(\n        IRegistry.NFTStandard[] memory nftStandard,\n        address[] memory nftAddress,\n        uint256[] memory tokenID,\n        uint256[] memory _lendingID,\n        uint256[] memory _rentingID\n    ) private pure returns (CallData memory cd) {\n        cd = CallData({\n            left: 0,\n            right: 1,\n            nftStandard: nftStandard,\n            nftAddress: nftAddress,\n            tokenID: tokenID,\n            lendAmount: new uint256[](0),\n            lendingID: _lendingID,\n            rentingID: _rentingID,\n            rentDuration: new uint8[](0),\n            rentAmount: new uint256[](0),\n            maxRentDuration: new uint8[](0),\n            dailyRentPrice: new bytes4[](0),\n            paymentToken: new IResolver.PaymentToken[](0)\n        });\n    }\n\n    function unpackPrice(bytes4 price, uint256 scale)\n        private\n        pure\n        returns (uint256)\n    {\n        ensureIsUnpackablePrice(price, scale);\n        uint16 whole = uint16(bytes2(price));\n        uint16 decimal = uint16(bytes2(price << 16));\n        uint256 decimalScale = scale / 10000;\n        if (whole > 9999) {\n            whole = 9999;\n        }\n        if (decimal > 9999) {\n            decimal = 9999;\n        }\n        uint256 w = whole * scale;\n        uint256 d = decimal * decimalScale;\n        uint256 fullPrice = w + d;\n        return fullPrice;\n    }\n\n    function sliceArr(\n        uint256[] memory arr,\n        uint256 fromIx,\n        uint256 toIx,\n        uint256 arrOffset\n    ) private pure returns (uint256[] memory r) {\n        r = new uint256[](toIx - fromIx);\n        for (uint256 i = fromIx; i < toIx; i++) {\n            r[i - fromIx] = arr[i - arrOffset];\n        }\n    }\n\n    //      .-.     .-.     .-.     .-.     .-.     .-.     .-.     .-.     .-.     .-.\n    // `._.'   `._.'   `._.'   `._.'   `._.'   `._.'   `._.'   `._.'   `._.'   `._.'   `._.'\n\n    function ensureIsNotZeroAddr(address addr) private pure {\n        require(addr != address(0), \"ReNFT::zero address\");\n    }\n\n    function ensureIsZeroAddr(address addr) private pure {\n        require(addr == address(0), \"ReNFT::not a zero address\");\n    }\n\n    function ensureIsNull(Lending memory lending) private pure {\n        ensureIsZeroAddr(lending.lenderAddress);\n        require(lending.maxRentDuration == 0, \"ReNFT::duration not zero\");\n        require(lending.dailyRentPrice == 0, \"ReNFT::rent price not zero\");\n    }\n\n    function ensureIsNotNull(Lending memory lending) private pure {\n        ensureIsNotZeroAddr(lending.lenderAddress);\n        require(lending.maxRentDuration != 0, \"ReNFT::duration zero\");\n        require(lending.dailyRentPrice != 0, \"ReNFT::rent price is zero\");\n    }\n\n    function ensureIsNull(Renting memory renting) private pure {\n        ensureIsZeroAddr(renting.renterAddress);\n        require(renting.rentDuration == 0, \"ReNFT::duration not zero\");\n        require(renting.rentedAt == 0, \"ReNFT::rented at not zero\");\n    }\n\n    function ensureIsNotNull(Renting memory renting) private pure {\n        ensureIsNotZeroAddr(renting.renterAddress);\n        require(renting.rentDuration != 0, \"ReNFT::duration is zero\");\n        require(renting.rentedAt != 0, \"ReNFT::rented at is zero\");\n    }\n\n    function ensureIsLendable(CallData memory cd, uint256 i) private pure {\n        require(cd.lendAmount[i] > 0, \"ReNFT::lend amount is zero\");\n        require(cd.lendAmount[i] <= type(uint8).max, \"ReNFT::not uint8\");\n        require(cd.maxRentDuration[i] > 0, \"ReNFT::duration is zero\");\n        require(cd.maxRentDuration[i] <= type(uint8).max, \"ReNFT::not uint8\");\n        require(uint32(cd.dailyRentPrice[i]) > 0, \"ReNFT::rent price is zero\");\n    }\n\n    function ensureIsRentable(\n        Lending memory lending,\n        CallData memory cd,\n        uint256 i,\n        address msgSender\n    ) private pure {\n        require(msgSender != lending.lenderAddress, \"ReNFT::cant rent own nft\");\n        require(cd.rentDuration[i] <= type(uint8).max, \"ReNFT::not uint8\");\n        require(cd.rentDuration[i] > 0, \"ReNFT::duration is zero\");\n        require(\n            cd.rentDuration[i] <= lending.maxRentDuration,\n            \"ReNFT::rent duration exceeds allowed max\"\n        );\n    }\n\n    function ensureIsReturnable(\n        Renting memory renting,\n        address msgSender,\n        uint256 blockTimestamp\n    ) private pure {\n        require(renting.renterAddress == msgSender, \"ReNFT::not renter\");\n        require(\n            !isPastReturnDate(renting, blockTimestamp),\n            \"ReNFT::past return date\"\n        );\n    }\n\n    function ensureIsStoppable(Lending memory lending, address msgSender)\n        private\n        pure\n    {\n        require(lending.lenderAddress == msgSender, \"ReNFT::not lender\");\n    }\n\n    function ensureIsUnpackablePrice(bytes4 price, uint256 scale) private pure {\n        require(uint32(price) > 0, \"ReNFT::invalid price\");\n        require(scale >= 10000, \"ReNFT::invalid scale\");\n    }\n\n    function ensureTokenNotSentinel(uint8 paymentIx) private pure {\n        require(paymentIx > 0, \"ReNFT::token is sentinel\");\n    }\n\n    function ensureIsClaimable(\n        IRegistry.Renting memory renting,\n        uint256 blockTimestamp\n    ) private pure {\n        require(\n            isPastReturnDate(renting, blockTimestamp),\n            \"ReNFT::return date not passed\"\n        );\n    }\n\n    function isPastReturnDate(Renting memory renting, uint256 nowTime)\n        private\n        pure\n        returns (bool)\n    {\n        require(nowTime > renting.rentedAt, \"ReNFT::now before rented\");\n        return\n            nowTime - renting.rentedAt > renting.rentDuration * SECONDS_IN_DAY;\n    }\n\n    //      .-.     .-.     .-.     .-.     .-.     .-.     .-.     .-.     .-.     .-.\n    // `._.'   `._.'   `._.'   `._.'   `._.'   `._.'   `._.'   `._.'   `._.'   `._.'   `._.'\n\n    function setRentFee(uint256 newRentFee) external onlyAdmin {\n        require(newRentFee < 10000, \"ReNFT::fee exceeds 100pct\");\n        rentFee = newRentFee;\n    }\n\n    function setBeneficiary(address payable newBeneficiary) external onlyAdmin {\n        beneficiary = newBeneficiary;\n    }\n\n    function setPaused(bool newPaused) external onlyAdmin {\n        paused = newPaused;\n    }\n}\n\n//              @@@@@@@@@@@@@@@@        ,@@@@@@@@@@@@@@@@\n//              @@@,,,,,,,,,,@@@        ,@@&,,,,,,,,,,@@@\n//         @@@@@@@@,,,,,,,,,,@@@@@@@@&  ,@@&,,,,,,,,,,@@@@@@@@\n//         @@@**********@@@@@@@@@@@@@&  ,@@@@@@@@**********@@@\n//         @@@**********@@@@@@@@@@@@@&  ,@@@@@@@@**********@@@@@@@@\n//         @@@**********@@@@@@@@@@@@@&       .@@@**********@@@@@@@@\n//    @@@@@@@@**********@@@@@@@@@@@@@&       .@@@**********@@@@@@@@\n//    @@@**********@@@@@@@@@@@@@&            .@@@@@@@@**********@@@\n//    @@@**********@@@@@@@@@@@@@&            .@@@@@@@@**********@@@@@@@@\n//    @@@@@@@@**********@@@@@@@@&            .@@@**********@@@@@@@@@@@@@\n//    @@@@@@@@//////////@@@@@@@@&            .@@@//////////@@@@@@@@@@@@@\n//         @@@//////////@@@@@@@@&            .@@@//////////@@@@@@@@@@@@@\n//         @@@//////////@@@@@@@@&       ,@@@@@@@@//////////@@@@@@@@@@@@@\n//         @@@%%%%%/////(((((@@@&       ,@@@(((((/////%%%%%@@@@@@@@\n//         @@@@@@@@//////////@@@@@@@@&  ,@@@//////////@@@@@@@@@@@@@\n//              @@@%%%%%%%%%%@@@@@@@@&  ,@@@%%%%%%%%%%@@@@@@@@@@@@@\n//              @@@@@@@@@@@@@@@@@@@@@&  ,@@@@@@@@@@@@@@@@@@@@@@@@@@\n//                   @@@@@@@@@@@@@@@@&        @@@@@@@@@@@@@@@@\n//                   @@@@@@@@@@@@@@@@&        @@@@@@@@@@@@@@@@\n",
  "sourcePath": "contracts/Registry.sol",
  "type": "contract"
}