{
  "abi": [
    {
      "inputs": [
        {
          "internalType": "address",
          "name": "newResolver",
          "type": "address"
        },
        {
          "internalType": "address payable",
          "name": "newBeneficiary",
          "type": "address"
        },
        {
          "internalType": "address",
          "name": "newAdmin",
          "type": "address"
        }
      ],
      "stateMutability": "nonpayable",
      "type": "constructor"
    },
    {
      "anonymous": false,
      "inputs": [
        {
          "indexed": false,
          "internalType": "bool",
          "name": "is721",
          "type": "bool"
        },
        {
          "indexed": true,
          "internalType": "address",
          "name": "lenderAddress",
          "type": "address"
        },
        {
          "indexed": true,
          "internalType": "address",
          "name": "nftAddress",
          "type": "address"
        },
        {
          "indexed": true,
          "internalType": "uint256",
          "name": "tokenID",
          "type": "uint256"
        },
        {
          "indexed": false,
          "internalType": "uint256",
          "name": "lendingID",
          "type": "uint256"
        },
        {
          "indexed": false,
          "internalType": "uint8",
          "name": "maxRentDuration",
          "type": "uint8"
        },
        {
          "indexed": false,
          "internalType": "bytes4",
          "name": "dailyRentPrice",
          "type": "bytes4"
        },
        {
          "indexed": false,
          "internalType": "uint16",
          "name": "lendAmount",
          "type": "uint16"
        },
        {
          "indexed": false,
          "internalType": "uint8",
          "name": "paymentToken",
          "type": "uint8"
        },
        {
          "indexed": false,
          "internalType": "bool",
          "name": "willAutoRenew",
          "type": "bool"
        }
      ],
      "name": "Lend",
      "type": "event"
    },
    {
      "anonymous": false,
      "inputs": [
        {
          "indexed": true,
          "internalType": "address",
          "name": "renterAddress",
          "type": "address"
        },
        {
          "indexed": true,
          "internalType": "uint256",
          "name": "lendingID",
          "type": "uint256"
        },
        {
          "indexed": true,
          "internalType": "uint256",
          "name": "rentingID",
          "type": "uint256"
        },
        {
          "indexed": false,
          "internalType": "uint16",
          "name": "rentAmount",
          "type": "uint16"
        },
        {
          "indexed": false,
          "internalType": "uint8",
          "name": "rentDuration",
          "type": "uint8"
        },
        {
          "indexed": false,
          "internalType": "uint32",
          "name": "rentedAt",
          "type": "uint32"
        }
      ],
      "name": "Rent",
      "type": "event"
    },
    {
      "anonymous": false,
      "inputs": [
        {
          "indexed": true,
          "internalType": "uint256",
          "name": "rentingID",
          "type": "uint256"
        },
        {
          "indexed": false,
          "internalType": "uint32",
          "name": "collectedAt",
          "type": "uint32"
        }
      ],
      "name": "RentClaimed",
      "type": "event"
    },
    {
      "anonymous": false,
      "inputs": [
        {
          "indexed": true,
          "internalType": "uint256",
          "name": "lendingID",
          "type": "uint256"
        },
        {
          "indexed": false,
          "internalType": "uint32",
          "name": "stoppedAt",
          "type": "uint32"
        },
        {
          "indexed": false,
          "internalType": "uint16",
          "name": "amount",
          "type": "uint16"
        }
      ],
      "name": "StopLend",
      "type": "event"
    },
    {
      "anonymous": false,
      "inputs": [
        {
          "indexed": true,
          "internalType": "uint256",
          "name": "rentingID",
          "type": "uint256"
        },
        {
          "indexed": false,
          "internalType": "uint32",
          "name": "stoppedAt",
          "type": "uint32"
        }
      ],
      "name": "StopRent",
      "type": "event"
    },
    {
      "inputs": [
        {
          "internalType": "enum IRegistry.NFTStandard[]",
          "name": "nftStandard",
          "type": "uint8[]"
        },
        {
          "internalType": "address[]",
          "name": "nftAddress",
          "type": "address[]"
        },
        {
          "internalType": "uint256[]",
          "name": "tokenID",
          "type": "uint256[]"
        },
        {
          "internalType": "uint256[]",
          "name": "_lendingID",
          "type": "uint256[]"
        },
        {
          "internalType": "uint256[]",
          "name": "_rentingID",
          "type": "uint256[]"
        }
      ],
      "name": "claimRent",
      "outputs": [],
      "stateMutability": "nonpayable",
      "type": "function"
    },
    {
      "inputs": [
        {
          "internalType": "address",
          "name": "nftAddress",
          "type": "address"
        },
        {
          "internalType": "uint256",
          "name": "tokenID",
          "type": "uint256"
        },
        {
          "internalType": "uint256",
          "name": "_lendingID",
          "type": "uint256"
        }
      ],
      "name": "getLending",
      "outputs": [
        {
          "internalType": "uint8",
          "name": "",
          "type": "uint8"
        },
        {
          "internalType": "address",
          "name": "",
          "type": "address"
        },
        {
          "internalType": "uint8",
          "name": "",
          "type": "uint8"
        },
        {
          "internalType": "bytes4",
          "name": "",
          "type": "bytes4"
        },
        {
          "internalType": "uint16",
          "name": "",
          "type": "uint16"
        },
        {
          "internalType": "uint16",
          "name": "",
          "type": "uint16"
        },
        {
          "internalType": "uint8",
          "name": "",
          "type": "uint8"
        }
      ],
      "stateMutability": "view",
      "type": "function"
    },
    {
      "inputs": [
        {
          "internalType": "address",
          "name": "nftAddress",
          "type": "address"
        },
        {
          "internalType": "uint256",
          "name": "tokenID",
          "type": "uint256"
        },
        {
          "internalType": "uint256",
          "name": "_rentingID",
          "type": "uint256"
        }
      ],
      "name": "getRenting",
      "outputs": [
        {
          "internalType": "address",
          "name": "",
          "type": "address"
        },
        {
          "internalType": "uint16",
          "name": "",
          "type": "uint16"
        },
        {
          "internalType": "uint8",
          "name": "",
          "type": "uint8"
        },
        {
          "internalType": "uint32",
          "name": "",
          "type": "uint32"
        }
      ],
      "stateMutability": "view",
      "type": "function"
    },
    {
      "inputs": [
        {
          "internalType": "enum IRegistry.NFTStandard[]",
          "name": "nftStandard",
          "type": "uint8[]"
        },
        {
          "internalType": "address[]",
          "name": "nftAddress",
          "type": "address[]"
        },
        {
          "internalType": "uint256[]",
          "name": "tokenID",
          "type": "uint256[]"
        },
        {
          "internalType": "uint256[]",
          "name": "lendAmount",
          "type": "uint256[]"
        },
        {
          "internalType": "uint8[]",
          "name": "maxRentDuration",
          "type": "uint8[]"
        },
        {
          "internalType": "bytes4[]",
          "name": "dailyRentPrice",
          "type": "bytes4[]"
        },
        {
          "internalType": "uint8[]",
          "name": "paymentToken",
          "type": "uint8[]"
        },
        {
          "internalType": "bool[]",
          "name": "willAutoRenew",
          "type": "bool[]"
        }
      ],
      "name": "lend",
      "outputs": [],
      "stateMutability": "nonpayable",
      "type": "function"
    },
    {
      "inputs": [
        {
          "internalType": "address",
          "name": "",
          "type": "address"
        },
        {
          "internalType": "address",
          "name": "",
          "type": "address"
        },
        {
          "internalType": "uint256[]",
          "name": "",
          "type": "uint256[]"
        },
        {
          "internalType": "uint256[]",
          "name": "",
          "type": "uint256[]"
        },
        {
          "internalType": "bytes",
          "name": "",
          "type": "bytes"
        }
      ],
      "name": "onERC1155BatchReceived",
      "outputs": [
        {
          "internalType": "bytes4",
          "name": "",
          "type": "bytes4"
        }
      ],
      "stateMutability": "nonpayable",
      "type": "function"
    },
    {
      "inputs": [
        {
          "internalType": "address",
          "name": "",
          "type": "address"
        },
        {
          "internalType": "address",
          "name": "",
          "type": "address"
        },
        {
          "internalType": "uint256",
          "name": "",
          "type": "uint256"
        },
        {
          "internalType": "uint256",
          "name": "",
          "type": "uint256"
        },
        {
          "internalType": "bytes",
          "name": "",
          "type": "bytes"
        }
      ],
      "name": "onERC1155Received",
      "outputs": [
        {
          "internalType": "bytes4",
          "name": "",
          "type": "bytes4"
        }
      ],
      "stateMutability": "nonpayable",
      "type": "function"
    },
    {
      "inputs": [
        {
          "internalType": "address",
          "name": "",
          "type": "address"
        },
        {
          "internalType": "address",
          "name": "",
          "type": "address"
        },
        {
          "internalType": "uint256",
          "name": "",
          "type": "uint256"
        },
        {
          "internalType": "bytes",
          "name": "",
          "type": "bytes"
        }
      ],
      "name": "onERC721Received",
      "outputs": [
        {
          "internalType": "bytes4",
          "name": "",
          "type": "bytes4"
        }
      ],
      "stateMutability": "nonpayable",
      "type": "function"
    },
    {
      "inputs": [],
      "name": "paused",
      "outputs": [
        {
          "internalType": "bool",
          "name": "",
          "type": "bool"
        }
      ],
      "stateMutability": "view",
      "type": "function"
    },
    {
      "inputs": [
        {
          "internalType": "enum IRegistry.NFTStandard[]",
          "name": "nftStandard",
          "type": "uint8[]"
        },
        {
          "internalType": "address[]",
          "name": "nftAddress",
          "type": "address[]"
        },
        {
          "internalType": "uint256[]",
          "name": "tokenID",
          "type": "uint256[]"
        },
        {
          "internalType": "uint256[]",
          "name": "_lendingID",
          "type": "uint256[]"
        },
        {
          "internalType": "uint8[]",
          "name": "rentDuration",
          "type": "uint8[]"
        },
        {
          "internalType": "uint256[]",
          "name": "rentAmount",
          "type": "uint256[]"
        }
      ],
      "name": "rent",
      "outputs": [],
      "stateMutability": "payable",
      "type": "function"
    },
    {
      "inputs": [],
      "name": "rentFee",
      "outputs": [
        {
          "internalType": "uint256",
          "name": "",
          "type": "uint256"
        }
      ],
      "stateMutability": "view",
      "type": "function"
    },
    {
      "inputs": [
        {
          "internalType": "address payable",
          "name": "newBeneficiary",
          "type": "address"
        }
      ],
      "name": "setBeneficiary",
      "outputs": [],
      "stateMutability": "nonpayable",
      "type": "function"
    },
    {
      "inputs": [
        {
          "internalType": "bool",
          "name": "newPaused",
          "type": "bool"
        }
      ],
      "name": "setPaused",
      "outputs": [],
      "stateMutability": "nonpayable",
      "type": "function"
    },
    {
      "inputs": [
        {
          "internalType": "uint256",
          "name": "newRentFee",
          "type": "uint256"
        }
      ],
      "name": "setRentFee",
      "outputs": [],
      "stateMutability": "nonpayable",
      "type": "function"
    },
    {
      "inputs": [
        {
          "internalType": "enum IRegistry.NFTStandard[]",
          "name": "nftStandard",
          "type": "uint8[]"
        },
        {
          "internalType": "address[]",
          "name": "nftAddress",
          "type": "address[]"
        },
        {
          "internalType": "uint256[]",
          "name": "tokenID",
          "type": "uint256[]"
        },
        {
          "internalType": "uint256[]",
          "name": "_lendingID",
          "type": "uint256[]"
        }
      ],
      "name": "stopLend",
      "outputs": [],
      "stateMutability": "nonpayable",
      "type": "function"
    },
    {
      "inputs": [
        {
          "internalType": "enum IRegistry.NFTStandard[]",
          "name": "nftStandard",
          "type": "uint8[]"
        },
        {
          "internalType": "address[]",
          "name": "nftAddress",
          "type": "address[]"
        },
        {
          "internalType": "uint256[]",
          "name": "tokenID",
          "type": "uint256[]"
        },
        {
          "internalType": "uint256[]",
          "name": "_lendingID",
          "type": "uint256[]"
        },
        {
          "internalType": "uint256[]",
          "name": "_rentingID",
          "type": "uint256[]"
        }
      ],
      "name": "stopRent",
      "outputs": [],
      "stateMutability": "nonpayable",
      "type": "function"
    },
    {
      "inputs": [
        {
          "internalType": "bytes4",
          "name": "interfaceId",
          "type": "bytes4"
        }
      ],
      "name": "supportsInterface",
      "outputs": [
        {
          "internalType": "bool",
          "name": "",
          "type": "bool"
        }
      ],
      "stateMutability": "view",
      "type": "function"
    }
  ],
  "bytecode": "6080604052600160038190556004556005805460ff1916905560006006553480156200002a57600080fd5b5060405162004f7a38038062004f7a8339810160408190526200004d916200010f565b6200005883620000b1565b6200006382620000b1565b6200006e81620000b1565b600080546001600160a01b039485166001600160a01b03199182161790915560028054938516938216939093179092556001805491909316911617905562000179565b6001600160a01b0381166200010c5760405162461bcd60e51b815260206004820152601360248201527f52654e46543a3a7a65726f206164647265737300000000000000000000000000604482015260640160405180910390fd5b50565b6000806000606084860312156200012557600080fd5b8351620001328162000163565b6020850151909350620001458162000163565b6040850151909250620001588162000163565b809150509250925092565b6001600160a01b03811681146200010c57600080fd5b614df180620001896000396000f3fe6080604052600436106100f35760003560e01c8063937821a11161008a578063cbe55e5411610059578063cbe55e5414610315578063dc68a14214610328578063f23a6e6114610348578063fe46b7cd1461037457600080fd5b8063937821a114610285578063bc197c81146102a5578063bf2b23ea146102d1578063c9c40183146102f557600080fd5b80631c31f710116100c65780631c31f710146101b3578063296c21b7146101d35780635c975abb1461024b57806376774ea31461026557600080fd5b806301ffc9a7146100f857806314b5685c1461012d578063150b7a021461014f57806316c38b3c14610193575b600080fd5b34801561010457600080fd5b50610118610113366004614865565b6103cf565b60405190151581526020015b60405180910390f35b34801561013957600080fd5b5061014d610148366004614534565b610406565b005b34801561015b57600080fd5b5061017a61016a36600461438c565b630a85bd0160e11b949350505050565b6040516001600160e01b03199091168152602001610124565b34801561019f57600080fd5b5061014d6101ae36600461482b565b610451565b3480156101bf57600080fd5b5061014d6101ce3660046142c2565b61048e565b3480156101df57600080fd5b506101f36101ee36600461445f565b6104da565b6040805160ff98891681526001600160a01b039097166020880152948716948601949094526001600160e01b0319909216606085015261ffff90811660808501521660a08301529190911660c082015260e001610124565b34801561025757600080fd5b506005546101189060ff1681565b34801561027157600080fd5b5061014d610280366004614880565b610593565b34801561029157600080fd5b5061014d6102a0366004614534565b610613565b3480156102b157600080fd5b5061017a6102c03660046142df565b63bc197c8160e01b95945050505050565b3480156102dd57600080fd5b506102e760065481565b604051908152602001610124565b34801561030157600080fd5b5061014d610310366004614494565b610649565b61014d610323366004614737565b6106b0565b34801561033457600080fd5b5061014d6103433660046145f8565b6106ef565b34801561035457600080fd5b5061017a6103633660046143f7565b63f23a6e6160e01b95945050505050565b34801561038057600080fd5b5061039461038f36600461445f565b610732565b604080516001600160a01b03909516855261ffff909316602085015260ff9091169183019190915263ffffffff166060820152608001610124565b60006001600160e01b03198216630271189760e51b148061040057506301ffc9a760e01b6001600160e01b03198316145b92915050565b60055460ff16156104325760405162461bcd60e51b815260040161042990614aa2565b60405180910390fd5b61044a6107b06104458787878787610d76565b610f2d565b5050505050565b6001546001600160a01b0316331461047b5760405162461bcd60e51b815260040161042990614ac9565b6005805460ff1916911515919091179055565b6001546001600160a01b031633146104b85760405162461bcd60e51b815260040161042990614ac9565b600280546001600160a01b0319166001600160a01b0392909216919091179055565b6000806000806000806000808a8a8a6040516020016104fb939291906148f1565b60408051601f19818403018152918152815160209283012060008181526007909352912080549192509060ff16600181111561053957610539614d47565b9054909c6001600160a01b036101008304169c5060ff600160a81b830481169c50600160b01b830460e01b9b5061ffff600160d01b840481169b50600160e01b8404169950600160f01b9092049091169650945050505050565b6001546001600160a01b031633146105bd5760405162461bcd60e51b815260040161042990614ac9565b612710811061060e5760405162461bcd60e51b815260206004820152601960248201527f52654e46543a3a666565206578636565647320313030706374000000000000006044820152606401610429565b600655565b60055460ff16156106365760405162461bcd60e51b815260040161042990614aa2565b61044a6110626104458787878787610d76565b60055460ff161561066c5760405162461bcd60e51b815260040161042990614aa2565b6106aa61149f6104458686868660006040519080825280602002602001820160405280156106a4578160200160208202803683370190505b50610d76565b50505050565b60055460ff16156106d35760405162461bcd60e51b815260040161042990614aa2565b6106e761185b610445888888888888611fb1565b505050505050565b60055460ff16156107125760405162461bcd60e51b815260040161042990614aa2565b6107286120e26104458a8a8a8a8a8a8a8a6126cf565b5050505050505050565b600080600080600087878760405160200161074f939291906148f1565b60408051808303601f190181529181528151602092830120600090815260089092529020546001600160a01b03811699600160c81b820461ffff169950600160a01b820460ff169850600160a81b90910463ffffffff169650945050505050565b80515b8160200151811015610d7257600082606001518360000151815181106107db576107db614d5d565b6020026020010151836080015183815181106107f9576107f9614d5d565b6020026020010151846101000151848151811061081857610818614d5d565b6020026020010151604051602001610832939291906148f1565b6040516020818303038152906040528051906020012090506000836060015184600001518151811061086657610866614d5d565b60200260200101518460800151848151811061088457610884614d5d565b602002602001015185610120015185815181106108a3576108a3614d5d565b60200260200101516040516020016108bd939291906148f1565b60408051601f19818403018152828252805160209182012060008681526007835283812082825260089093528390206101008501909352815490945090926109ab918490829060ff16600181111561091757610917614d47565b600181111561092857610928614d47565b8152905461010081046001600160a01b03166020830152600160a81b810460ff9081166040840152600160b01b820460e090811b6001600160e01b0319166060850152600160d01b830461ffff9081166080860152600160e01b84041660a0850152600160f01b8304821660c0850152600160f81b909204161515910152612808565b6040805160808101825282546001600160a01b0381168252600160a01b810460ff166020830152600160a81b810463ffffffff1692820192909252600160c81b90910461ffff166060820152610a009061288b565b6040805160808101825282546001600160a01b0381168252600160a01b810460ff166020830152600160a81b810463ffffffff1692820192909252600160c81b90910461ffff166060820152610a57903342612911565b815460ff166001811115610a6d57610a6d614d47565b86604001518681518110610a8357610a83614d5d565b60200260200101516001811115610a9c57610a9c614d47565b14610ab95760405162461bcd60e51b8152600401610429906149fd565b81548154600160d01b90910461ffff908116600160c81b909204161115610b1a5760405162461bcd60e51b81526020600482015260156024820152742932a7232a1d1d31b934ba34b1b0b61032b93937b960591b6044820152606401610429565b8054600090610b3690600160a81b900463ffffffff1642614cd3565b6040805161010081019091528454919250610c53918590829060ff166001811115610b6357610b63614d47565b6001811115610b7457610b74614d47565b815290546001600160a01b036101008204811660208085019190915260ff600160a81b80850482166040808801919091526001600160e01b0319600160b01b870460e090811b919091166060808a019190915261ffff600160d01b890481166080808c0191909152600160e01b8a04821660a08c0152600160f01b8a04871660c08c0152600160f81b909904861615159290990191909152815196870182528b549586168752600160a01b86049093169386019390935263ffffffff9084041691840191909152600160c81b90910490921691810191909152836129c6565b610cde838389606001518a6000015181518110610c7257610c72614d5d565b60200260200101518a604001518b6000015181518110610c9457610c94614d5d565b60200260200101518b608001518b81518110610cb257610cb2614d5d565b60200260200101518c61010001518c81518110610cd157610cd1614d5d565b6020026020010151612c4f565b8661012001518681518110610cf557610cf5614d5d565b60200260200101517f58855dd8908b14c6d7922d964418f37efd968bc6b9b857560870b14a898f916d42604051610d38919063ffffffff91909116815260200190565b60405180910390a2505050600090815260086020526040902080546001600160d81b03191690555080610d6a81614d16565b9150506107b3565b5050565b610d7e613f1b565b604051806101c00160405280600081526020016001815260200187815260200186815260200185815260200160006001600160401b03811115610dc357610dc3614d73565b604051908082528060200260200182016040528015610dec578160200160208202803683370190505b5081526020016000604051908082528060200260200182016040528015610e1d578160200160208202803683370190505b5081526020016000604051908082528060200260200182016040528015610e4e578160200160208202803683370190505b50815260208101859052604081018490526060016000604051908082528060200260200182016040528015610e8d578160200160208202803683370190505b5081526020016000604051908082528060200260200182016040528015610ebe578160200160208202803683370190505b5081526020016000604051908082528060200260200182016040528015610eef578160200160208202803683370190505b5081526020016000604051908082528060200260200182016040528015610f20578160200160208202803683370190505b5090529695505050505050565b600081606001515111610f735760405162461bcd60e51b815260206004820152600e60248201526d52654e46543a3a6e6f206e66747360901b6044820152606401610429565b806060015151816020015114611055578060600151816020015181518110610f9d57610f9d614d5d565b60200260200101516001600160a01b03168160600151826000015181518110610fc857610fc8614d5d565b60200260200101516001600160a01b0316148015611018575060018160400151826020015181518110610ffd57610ffd614d5d565b6020026020010151600181111561101657611016614d47565b145b15611035576020810180519061102d82614d16565b905250610f73565b611042818363ffffffff16565b6020810180518083529061102d82614d16565b610d72818363ffffffff16565b80515b8160200151811015610d72576000826060015183600001518151811061108d5761108d614d5d565b6020026020010151836080015183815181106110ab576110ab614d5d565b602002602001015184610100015184815181106110ca576110ca614d5d565b60200260200101516040516020016110e4939291906148f1565b6040516020818303038152906040528051906020012090506000836060015184600001518151811061111857611118614d5d565b60200260200101518460800151848151811061113657611136614d5d565b6020026020010151856101200151858151811061115557611155614d5d565b602002602001015160405160200161116f939291906148f1565b60408051601f19818403018152828252805160209182012060008681526007835283812082825260089093528390206101008501909352815490945090926111c9918490829060ff16600181111561091757610917614d47565b6040805160808101825282546001600160a01b0381168252600160a01b810460ff166020830152600160a81b810463ffffffff1692820192909252600160c81b90910461ffff16606082015261121e9061288b565b6040805160808101825282546001600160a01b0381168252600160a01b810460ff166020830152600160a81b810463ffffffff1692820192909252600160c81b90910461ffff1660608201526112749042612f4f565b604080516101008101909152825461138e91908490829060ff16600181111561129f5761129f614d47565b60018111156112b0576112b0614d47565b815290546001600160a01b036101008204811660208085019190915260ff600160a81b80850482166040808801919091526001600160e01b0319600160b01b870460e090811b919091166060808a019190915261ffff600160d01b890481166080808c0191909152600160e01b8a04821660a08c0152600160f01b8a04871660c08c0152600160f81b909904861615159290990191909152815196870182528a549586168752600160a01b86049093169386019390935263ffffffff9084041691840191909152600160c81b90910490921691810191909152612fa5565b61140c828288606001518960000151815181106113ad576113ad614d5d565b602002602001015189604001518a60000151815181106113cf576113cf614d5d565b60200260200101518a608001518a815181106113ed576113ed614d5d565b60200260200101518b61010001518b81518110610cd157610cd1614d5d565b856101200151858151811061142357611423614d5d565b60200260200101517f4630b53a4335803b2a4f9c1ce896f4cadbf909907810e496eda17614483d7b9442604051611466919063ffffffff91909116815260200190565b60405180910390a25050600090815260086020526040902080546001600160d81b0319169055508061149781614d16565b915050611065565b805160208201516000916114b291614cd3565b6001600160401b038111156114c9576114c9614d73565b6040519080825280602002602001820160405280156114f2578160200160208202803683370190505b5082519091505b8260200151811015611823576000836060015184600001518151811061152157611521614d5d565b60200260200101518460800151838151811061153f5761153f614d5d565b6020026020010151856101000151848151811061155e5761155e614d5d565b6020026020010151604051602001611578939291906148f1565b60408051601f19818403018152828252805160209182012060008181526007909252908290206101008401909252815490935090916115c9918390829060ff16600181111561091757610917614d47565b604080516101008101909152815461168991908390829060ff1660018111156115f4576115f4614d47565b600181111561160557611605614d47565b8152905461010081046001600160a01b03166020830152600160a81b810460ff9081166040840152600160b01b820460e090811b6001600160e01b0319166060850152600160d01b830461ffff9081166080860152600160e01b84041660a0850152600160f01b8304821660c0850152600160f81b90920416151591015233613136565b805460ff16600181111561169f5761169f614d47565b856040015184815181106116b5576116b5614d5d565b602002602001015160018111156116ce576116ce614d47565b146116eb5760405162461bcd60e51b8152600401610429906149fd565b8054600160d01b810461ffff908116600160e01b90920416146117495760405162461bcd60e51b815260206004820152601660248201527514995391950e8e9858dd1a5d995b1e481c995b9d195960521b6044820152606401610429565b80548551600160d01b90910461ffff169085906117669086614cd3565b8151811061177657611776614d5d565b602002602001018181525050846101000151838151811061179957611799614d5d565b60200260200101517ffc33a7c95ee492cb6247bd90b28bbe1f459d8f80f3dc65f934cd020cf1e83efb4283600001601a9054906101000a900461ffff166040516117f992919063ffffffff92909216825261ffff16602082015260400190565b60405180910390a2506000908152600760205260408120558061181b81614d16565b9150506114f9565b50610d72823033611843866080015187600001518860200151600061318f565b865160208801516118569188918161318f565b61324e565b80515b8160200151811015610d72576000826060015183600001518151811061188657611886614d5d565b6020026020010151836080015183815181106118a4576118a4614d5d565b602002602001015184610100015184815181106118c3576118c3614d5d565b60200260200101516040516020016118dd939291906148f1565b6040516020818303038152906040528051906020012090506000836060015184600001518151811061191157611911614d5d565b60200260200101518460800151848151811061192f5761192f614d5d565b602002602001015160045460405160200161194c939291906148f1565b60408051601f19818403018152828252805160209182012060008681526007835283812082825260089093528390206101008501909352815490945090926119a6918490829060ff16600181111561091757610917614d47565b6040805160808101825282546001600160a01b0381168252600160a01b810460ff166020830152600160a81b810463ffffffff1692820192909252600160c81b90910461ffff1660608201526119fb906133c4565b6040805161010081019091528254611abd91908490829060ff166001811115611a2657611a26614d47565b6001811115611a3757611a37614d47565b8152905461010081046001600160a01b03166020830152600160a81b810460ff9081166040840152600160b01b820460e090811b6001600160e01b0319166060850152600160d01b830461ffff9081166080860152600160e01b84041660a0850152600160f01b8304821660c0850152600160f81b909204161515910152878733613477565b815460ff166001811115611ad357611ad3614d47565b86604001518681518110611ae957611ae9614d5d565b60200260200101516001811115611b0257611b02614d47565b14611b1f5760405162461bcd60e51b8152600401610429906149fd565b81546101608701518051600160e01b90920461ffff169187908110611b4657611b46614d5d565b60200260200101511115611b9c5760405162461bcd60e51b815260206004820152601a60248201527f52654e46543a3a696e76616c69642072656e7420616d6f756e740000000000006044820152606401610429565b81546000805460405163c6ee427f60e01b8152600160f01b90930460ff1660048401819052926001600160a01b039091169063c6ee427f9060240160206040518083038186803b158015611bef57600080fd5b505afa158015611c03573d6000803e3d6000fd5b505050506040513d601f19601f82011682018060405250810190611c2791906142a5565b90506000816001600160a01b031663313ce5676040518163ffffffff1660e01b815260040160206040518083038186803b158015611c6457600080fd5b505afa158015611c78573d6000803e3d6000fd5b505050506040513d601f19601f82011682018060405250810190611c9c9190614899565b60ff1690506000611cae82600a614be9565b8654909150600090611cca90600160b01b900460e01b836136e2565b8b61014001518b81518110611ce157611ce1614d5d565b602002602001015160ff168c61016001518c81518110611d0357611d03614d5d565b6020026020010151611d159190614c91565b611d1f9190614c91565b905060008111611d415760405162461bcd60e51b815260040161042990614a6b565b611d566001600160a01b038516333084613771565b50506040518060800160405280336001600160a01b031681526020018a61014001518a81518110611d8957611d89614d5d565b602002602001015160ff1681526020014263ffffffff1681526020018a61016001518a81518110611dbc57611dbc614d5d565b60209081029190910181015161ffff908116909252600089815260088252604090819020845181549386015192860151606090960151909416600160c81b0261ffff60c81b1963ffffffff909616600160a81b029590951665ffffffffffff60a81b1960ff909316600160a01b026001600160a81b03199094166001600160a01b0390951694909417929092171691909117919091179055610160890151805189908110611e6c57611e6c614d5d565b6020908102919091018101516000898152600790925260409091208054601c90611ea2908490600160e01b900461ffff16614cb0565b92506101000a81548161ffff021916908361ffff1602179055506004548961010001518981518110611ed657611ed6614d5d565b6020026020010151336001600160a01b03167f61e1a1e6f89eaba4ba0119b0023bd32b1bb0412ab96ccd8d0588a3e98a0976318c61016001518c81518110611f2057611f20614d5d565b60200260200101518d61014001518d81518110611f3f57611f3f614d5d565b6020908102919091018101518a546040805161ffff909516855260ff90921692840192909252600160a81b90910463ffffffff169082015260600160405180910390a460048054906000611f9283614d16565b9190505550505050505050508080611fa990614d16565b91505061185e565b611fb9613f1b565b604051806101c00160405280600081526020016001815260200188815260200187815260200186815260200160006001600160401b03811115611ffe57611ffe614d73565b604051908082528060200260200182016040528015612027578160200160208202803683370190505b5081526020016000604051908082528060200260200182016040528015612058578160200160208202803683370190505b5081526020016000604051908082528060200260200182016040528015612089578160200160208202803683370190505b508152602080820196909652604080516000808252818901835282840191909152606083019690965260808201949094528351858152808701855260a082015283519485529484019092525060c0909201529392505050565b80515b8160200151811015612693576120fb82826137dc565b6000826060015183600001518151811061211757612117614d5d565b60200260200101518360800151838151811061213557612135614d5d565b6020026020010151600354604051602001612152939291906148f1565b60408051601f1981840301815282825280516020918201206000818152600790925290829020610100840190925281549093509091612237918390829060ff1660018111156121a3576121a3614d47565b60018111156121b4576121b4614d47565b8152905461010081046001600160a01b03166020830152600160a81b810460ff9081166040840152600160b01b820460e090811b6001600160e01b0319166060850152600160d01b830461ffff9081166080860152600160e01b84041660a0850152600160f01b8304821660c0850152600160f81b90920416151591015261399a565b61225e846101800151848151811061225157612251614d5d565b6020026020010151613a53565b6000808560400151858151811061227757612277614d5d565b6020026020010151600181111561229057612290614d47565b14905060008560a0015185815181106122ab576122ab614d5d565b60200260200101519050811561231e578061ffff1660011461231e5760405162461bcd60e51b815260206004820152602660248201527f52654e46543a3a6c656e64416d6f756e742073686f756c6420626520657175616044820152656c20746f203160d01b6064820152608401610429565b6040518061010001604052808760400151878151811061234057612340614d5d565b6020026020010151600181111561235957612359614d47565b8152602001336001600160a01b031681526020018760c00151878151811061238357612383614d5d565b602002602001015160ff1681526020018760e0015187815181106123a9576123a9614d5d565b60200260200101516001600160e01b03191681526020018261ffff1681526020018261ffff16815260200187610180015187815181106123eb576123eb614d5d565b602002602001015160ff168152602001876101a00151878151811061241257612412614d5d565b6020908102919091018101511515909152600086815260079091526040902081518154829060ff19166001838181111561244e5761244e614d47565b0217905550602082015181546040840151606085015160808087015160a088015160c089015160e0998a0151610100600160b01b03199097166101006001600160a01b039099169890980260ff60a81b191697909717600160a81b60ff968716021765ffffffffffff60b01b1916600160b01b9490991c9390930261ffff60d01b191697909717600160d01b61ffff988916021762ffffff60e01b1916600160e01b979092169690960260ff60f01b191617600160f01b9190931602919091176001600160f81b0316600160f81b9115159190910217905586015180518690811061253b5761253b614d5d565b6020026020010151866060015187600001518151811061255d5761255d614d5d565b60200260200101516001600160a01b0316336001600160a01b03167ff8d82fdbb496215c151d63910926322dcb6ba0f8cbd5fa216ef261106bb1ab46856003548b60c001518b815181106125b3576125b3614d5d565b60200260200101518c60e001518c815181106125d1576125d1614d5d565b6020026020010151888e61018001518e815181106125f1576125f1614d5d565b60200260200101518f6101a001518f8151811061261057612610614d5d565b6020908102919091018101516040805198151589529188019690965260ff948516908701526001600160e01b0319909216606086015261ffff1660808501521660a0830152151560c082015260e00160405180910390a46003805490600061267783614d16565b919050555050505050808061268b90614d16565b9150506120e5565b506126cc8133306126b3856080015186600001518760200151600061318f565b6118568660a0015187600001518860200151600061318f565b50565b6126d7613f1b565b604051806101c0016040528060008152602001600181526020018a815260200189815260200188815260200187815260200186815260200185815260200160006001600160401b0381111561272e5761272e614d73565b604051908082528060200260200182016040528015612757578160200160208202803683370190505b5081526020016000604051908082528060200260200182016040528015612788578160200160208202803683370190505b50815260200160006040519080825280602002602001820160405280156127b9578160200160208202803683370190505b50815260200160006040519080825280602002602001820160405280156127ea578160200160208202803683370190505b50815260200184815260200183815250905098975050505050505050565b6128158160200151613aa6565b604081015160ff166128605760405162461bcd60e51b815260206004820152601460248201527352654e46543a3a6475726174696f6e207a65726f60601b6044820152606401610429565b60608101516001600160e01b0319166126cc5760405162461bcd60e51b815260040161042990614a6b565b805161289690613aa6565b602081015160ff166128ba5760405162461bcd60e51b815260040161042990614a34565b604081015163ffffffff166126cc5760405162461bcd60e51b815260206004820152601860248201527f52654e46543a3a72656e746564206174206973207a65726f00000000000000006044820152606401610429565b816001600160a01b031683600001516001600160a01b03161461296a5760405162461bcd60e51b81526020600482015260116024820152702932a7232a1d1d3737ba103932b73a32b960791b6044820152606401610429565b6129748382613af2565b156129c15760405162461bcd60e51b815260206004820152601760248201527f52654e46543a3a706173742072657475726e20646174650000000000000000006044820152606401610429565b505050565b60c08301516000805460405163c6ee427f60e01b815260ff841660048201526001600160a01b039091169063c6ee427f9060240160206040518083038186803b158015612a1257600080fd5b505afa158015612a26573d6000803e3d6000fd5b505050506040513d601f19601f82011682018060405250810190612a4a91906142a5565b90506000816001600160a01b031663313ce5676040518163ffffffff1660e01b815260040160206040518083038186803b158015612a8757600080fd5b505afa158015612a9b573d6000803e3d6000fd5b505050506040513d601f19601f82011682018060405250810190612abf9190614899565b60ff1690506000612ad182600a614be9565b90506000612ae38860600151836136e2565b876060015161ffff16612af69190614c91565b90506000876020015160ff1682612b0d9190614c91565b9050600062015180612b1f848a614c91565b612b299190614b84565b905060008211612b875760405162461bcd60e51b815260206004820152602360248201527f52654e46543a3a746f74616c2072656e746572207061796d656e74206973207a60448201526265726f60e81b6064820152608401610429565b60008111612bd75760405162461bcd60e51b815260206004820152601d60248201527f52654e46543a3a6c656e646572207061796d656e74206973207a65726f0000006044820152606401610429565b6000612be38284614cd3565b9050600654600014612c0b576000612bfb8389613b80565b9050612c078184614cd3565b9250505b60208b0151612c25906001600160a01b0389169084613bb7565b8015612c42578951612c42906001600160a01b0389169083613bb7565b5050505050505050505050565b8554600160f81b900460ff16612f025784548654600160c81b90910461ffff908116600160d01b909204161115612d43578454865461ffff600160c81b9092048216918891601a91612cab918591600160d01b90910416614cb0565b825461ffff91821661010093840a908102908302199091161790925588548854604051637921219560e11b81526001600160a01b03808b16965063f242432a95612d0c95309504909116928992600160c81b90910490911690600401614937565b600060405180830381600087803b158015612d2657600080fd5b505af1158015612d3a573d6000803e3d6000fd5b50505050612eb0565b84548654600160d01b900461ffff908116600160c81b909204161415612eb0576000836001811115612d7757612d77614d47565b1415612df25785546040516323b872dd60e01b81523060048201526101009091046001600160a01b039081166024830152604482018490528516906323b872dd90606401600060405180830381600087803b158015612dd557600080fd5b505af1158015612de9573d6000803e3d6000fd5b50505050612e6e565b85548554604051637921219560e11b81526001600160a01b038781169363f242432a93612e3b933093610100909304909216918891600160c81b900461ffff1690600401614937565b600060405180830381600087803b158015612e5557600080fd5b505af1158015612e69573d6000803e3d6000fd5b505050505b60076000858484604051602001612e87939291906148f1565b60408051601f198184030181529181528151602092830120835290820192909252016000908120555b8454604080514263ffffffff168152600160c81b90920461ffff16602083015282917ffc33a7c95ee492cb6247bd90b28bbe1f459d8f80f3dc65f934cd020cf1e83efb910160405180910390a26106e7565b8454865461ffff600160c81b9092048216918891601c91612f2d918591600160e01b90910416614b46565b92506101000a81548161ffff021916908361ffff160217905550505050505050565b612f598282613af2565b610d725760405162461bcd60e51b815260206004820152601d60248201527f52654e46543a3a72657475726e2064617465206e6f74207061737365640000006044820152606401610429565b60c08201516000805460405163c6ee427f60e01b815260ff841660048201526001600160a01b039091169063c6ee427f9060240160206040518083038186803b158015612ff157600080fd5b505afa158015613005573d6000803e3d6000fd5b505050506040513d601f19601f8201168201806040525081019061302991906142a5565b90506000816001600160a01b031663313ce5676040518163ffffffff1660e01b815260040160206040518083038186803b15801561306657600080fd5b505afa15801561307a573d6000803e3d6000fd5b505050506040513d601f19601f8201168201806040525081019061309e9190614899565b60ff16905060006130b082600a614be9565b905060006130c28760600151836136e2565b866060015161ffff166130d59190614c91565b90506000866020015160ff16826130ec9190614c91565b90506000600654600014613107576131048287613b80565b90505b602089015161312b9061311a8385614cd3565b6001600160a01b0389169190613bb7565b505050505050505050565b806001600160a01b031682602001516001600160a01b031614610d725760405162461bcd60e51b81526020600482015260116024820152702932a7232a1d1d3737ba103632b73232b960791b6044820152606401610429565b606061319b8484614cd3565b6001600160401b038111156131b2576131b2614d73565b6040519080825280602002602001820160405280156131db578160200160208202803683370190505b509050835b8381101561324557856131f38483614cd3565b8151811061320357613203614d5d565b60200260200101518286836132189190614cd3565b8151811061322857613228614d5d565b60209081029190910101528061323d81614d16565b9150506131e0565b50949350505050565b6000604086015186518151811061326757613267614d5d565b6020026020010151600181111561328057613280614d47565b141561334657606085015185518151811061329d5761329d614d5d565b60200260200101516001600160a01b03166323b872dd858588608001518960000151815181106132cf576132cf614d5d565b60209081029190910101516040516001600160e01b031960e086901b1681526001600160a01b0393841660048201529290911660248301526044820152606401600060405180830381600087803b15801561332957600080fd5b505af115801561333d573d6000803e3d6000fd5b5050505061044a565b606085015185518151811061335d5761335d614d5d565b60200260200101516001600160a01b0316632eb2c2d6858585856040518563ffffffff1660e01b8152600401613396949392919061496f565b600060405180830381600087803b1580156133b057600080fd5b505af115801561312b573d6000803e3d6000fd5b80516133cf90613be7565b602081015160ff161561341f5760405162461bcd60e51b815260206004820152601860248201527752654e46543a3a6475726174696f6e206e6f74207a65726f60401b6044820152606401610429565b604081015163ffffffff16156126cc5760405162461bcd60e51b815260206004820152601960248201527f52654e46543a3a72656e746564206174206e6f74207a65726f000000000000006044820152606401610429565b83602001516001600160a01b0316816001600160a01b031614156134dd5760405162461bcd60e51b815260206004820152601860248201527f52654e46543a3a63616e742072656e74206f776e206e667400000000000000006044820152606401610429565b60ff801683610140015183815181106134f8576134f8614d5d565b602002602001015160ff1611156135445760405162461bcd60e51b815260206004820152601060248201526f0a4ca9c8ca87474dcdee840ead2dce8760831b6044820152606401610429565b6000836101400151838151811061355d5761355d614d5d565b602002602001015160ff16116135855760405162461bcd60e51b815260040161042990614a34565b61ffff801683610160015183815181106135a1576135a1614d5d565b602002602001015111156135eb5760405162461bcd60e51b81526020600482015260116024820152702932a7232a1d1d3737ba103ab4b73a189b60791b6044820152606401610429565b6000836101600151838151811061360457613604614d5d565b6020026020010151116136595760405162461bcd60e51b815260206004820152601960248201527f52654e46543a3a72656e74416d6f756e74206973207a65726f000000000000006044820152606401610429565b836040015160ff16836101400151838151811061367857613678614d5d565b602002602001015160ff1611156106aa5760405162461bcd60e51b815260206004820152602860248201527f52654e46543a3a72656e74206475726174696f6e206578636565647320616c6c6044820152670deeecac840dac2f60c31b6064820152608401610429565b60006136ee8383613c3e565b60f083901c61ffff60e085901c16600061370a61271086614b84565b905061270f8361ffff1611156137205761270f92505b61270f8261ffff1611156137345761270f91505b60006137448661ffff8616614c91565b905060006137568361ffff8616614c91565b905060006137648284614b6c565b9998505050505050505050565b6040516001600160a01b03808516602483015283166044820152606481018290526106aa9085906323b872dd60e01b906084015b60408051601f198184030181529190526020810180516001600160e01b03166001600160e01b031990931692909217909152613ccf565b60008260a0015182815181106137f4576137f4614d5d565b6020026020010151116138495760405162461bcd60e51b815260206004820152601a60248201527f52654e46543a3a6c656e6420616d6f756e74206973207a65726f0000000000006044820152606401610429565b61ffff80168260a00151828151811061386457613864614d5d565b602002602001015111156138ae5760405162461bcd60e51b81526020600482015260116024820152702932a7232a1d1d3737ba103ab4b73a189b60791b6044820152606401610429565b60008260c0015182815181106138c6576138c6614d5d565b602002602001015160ff16116138ee5760405162461bcd60e51b815260040161042990614a34565b60ff80168260c00151828151811061390857613908614d5d565b602002602001015160ff1611156139545760405162461bcd60e51b815260206004820152601060248201526f0a4ca9c8ca87474dcdee840ead2dce8760831b6044820152606401610429565b60008260e00151828151811061396c5761396c614d5d565b602002602001015160e01c63ffffffff1611610d725760405162461bcd60e51b815260040161042990614a6b565b6139a78160200151613be7565b604081015160ff16156139f75760405162461bcd60e51b815260206004820152601860248201527752654e46543a3a6475726174696f6e206e6f74207a65726f60401b6044820152606401610429565b60608101516001600160e01b031916156126cc5760405162461bcd60e51b815260206004820152601a60248201527f52654e46543a3a72656e74207072696365206e6f74207a65726f0000000000006044820152606401610429565b60008160ff16116126cc5760405162461bcd60e51b815260206004820152601860248201527f52654e46543a3a746f6b656e2069732073656e74696e656c00000000000000006044820152606401610429565b6001600160a01b0381166126cc5760405162461bcd60e51b815260206004820152601360248201527252654e46543a3a7a65726f206164647265737360681b6044820152606401610429565b6000826040015163ffffffff168211613b4d5760405162461bcd60e51b815260206004820152601860248201527f52654e46543a3a6e6f77206265666f72652072656e74656400000000000000006044820152606401610429565b62015180836020015160ff16613b639190614c91565b6040840151613b789063ffffffff1684614cd3565b119392505050565b600060065483613b909190614c91565b9050613b9e61271082614b84565b600254909150610400906001600160a01b038481169116835b6040516001600160a01b0383166024820152604481018290526129c190849063a9059cbb60e01b906064016137a5565b6001600160a01b038116156126cc5760405162461bcd60e51b815260206004820152601960248201527f52654e46543a3a6e6f742061207a65726f2061646472657373000000000000006044820152606401610429565b60e082901c613c865760405162461bcd60e51b815260206004820152601460248201527352654e46543a3a696e76616c696420707269636560601b6044820152606401610429565b612710811015610d725760405162461bcd60e51b815260206004820152601460248201527352654e46543a3a696e76616c6964207363616c6560601b6044820152606401610429565b6000613d24826040518060400160405280602081526020017f5361666545524332303a206c6f772d6c6576656c2063616c6c206661696c6564815250856001600160a01b0316613da19092919063ffffffff16565b8051909150156129c15780806020019051810190613d429190614848565b6129c15760405162461bcd60e51b815260206004820152602a60248201527f5361666545524332303a204552433230206f7065726174696f6e20646964206e6044820152691bdd081cdd58d8d9595960b21b6064820152608401610429565b6060613db08484600085613dba565b90505b9392505050565b606082471015613e1b5760405162461bcd60e51b815260206004820152602660248201527f416464726573733a20696e73756666696369656e742062616c616e636520666f6044820152651c8818d85b1b60d21b6064820152608401610429565b843b613e695760405162461bcd60e51b815260206004820152601d60248201527f416464726573733a2063616c6c20746f206e6f6e2d636f6e74726163740000006044820152606401610429565b600080866001600160a01b03168587604051613e85919061491b565b60006040518083038185875af1925050503d8060008114613ec2576040519150601f19603f3d011682016040523d82523d6000602084013e613ec7565b606091505b5091509150613ed7828286613ee2565b979650505050505050565b60608315613ef1575081613db3565b825115613f015782518084602001fd5b8160405162461bcd60e51b815260040161042991906149ca565b604051806101c0016040528060008152602001600081526020016060815260200160608152602001606081526020016060815260200160608152602001606081526020016060815260200160608152602001606081526020016060815260200160608152602001606081525090565b600082601f830112613f9b57600080fd5b81356020613fb0613fab83614b23565b614af3565b80838252828201915082860187848660051b8901011115613fd057600080fd5b60005b85811015613ff8578135613fe681614d89565b84529284019290840190600101613fd3565b5090979650505050505050565b600082601f83011261401657600080fd5b81356020614026613fab83614b23565b80838252828201915082860187848660051b890101111561404657600080fd5b60005b85811015613ff857813561405c81614d9e565b84529284019290840190600101614049565b600082601f83011261407f57600080fd5b8135602061408f613fab83614b23565b80838252828201915082860187848660051b89010111156140af57600080fd5b60005b85811015613ff8576140c382614219565b845292840192908401906001016140b2565b600082601f8301126140e657600080fd5b813560206140f6613fab83614b23565b80838252828201915082860187848660051b890101111561411657600080fd5b6000805b8681101561414257823560028110614130578283fd5b8552938501939185019160010161411a565b509198975050505050505050565b600082601f83011261416157600080fd5b81356020614171613fab83614b23565b80838252828201915082860187848660051b890101111561419157600080fd5b60005b85811015613ff857813584529284019290840190600101614194565b600082601f8301126141c157600080fd5b813560206141d1613fab83614b23565b80838252828201915082860187848660051b89010111156141f157600080fd5b60005b85811015613ff857813561420781614dac565b845292840192908401906001016141f4565b80356001600160e01b03198116811461423157600080fd5b919050565b600082601f83011261424757600080fd5b81356001600160401b0381111561426057614260614d73565b614273601f8201601f1916602001614af3565b81815284602083860101111561428857600080fd5b816020850160208301376000918101602001919091529392505050565b6000602082840312156142b757600080fd5b8151613db381614d89565b6000602082840312156142d457600080fd5b8135613db381614d89565b600080600080600060a086880312156142f757600080fd5b853561430281614d89565b9450602086013561431281614d89565b935060408601356001600160401b038082111561432e57600080fd5b61433a89838a01614150565b9450606088013591508082111561435057600080fd5b61435c89838a01614150565b9350608088013591508082111561437257600080fd5b5061437f88828901614236565b9150509295509295909350565b600080600080608085870312156143a257600080fd5b84356143ad81614d89565b935060208501356143bd81614d89565b92506040850135915060608501356001600160401b038111156143df57600080fd5b6143eb87828801614236565b91505092959194509250565b600080600080600060a0868803121561440f57600080fd5b853561441a81614d89565b9450602086013561442a81614d89565b9350604086013592506060860135915060808601356001600160401b0381111561445357600080fd5b61437f88828901614236565b60008060006060848603121561447457600080fd5b833561447f81614d89565b95602085013595506040909401359392505050565b600080600080608085870312156144aa57600080fd5b84356001600160401b03808211156144c157600080fd5b6144cd888389016140d5565b955060208701359150808211156144e357600080fd5b6144ef88838901613f8a565b9450604087013591508082111561450557600080fd5b61451188838901614150565b9350606087013591508082111561452757600080fd5b506143eb87828801614150565b600080600080600060a0868803121561454c57600080fd5b85356001600160401b038082111561456357600080fd5b61456f89838a016140d5565b9650602088013591508082111561458557600080fd5b61459189838a01613f8a565b955060408801359150808211156145a757600080fd5b6145b389838a01614150565b945060608801359150808211156145c957600080fd5b6145d589838a01614150565b935060808801359150808211156145eb57600080fd5b5061437f88828901614150565b600080600080600080600080610100898b03121561461557600080fd5b88356001600160401b038082111561462c57600080fd5b6146388c838d016140d5565b995060208b013591508082111561464e57600080fd5b61465a8c838d01613f8a565b985060408b013591508082111561467057600080fd5b61467c8c838d01614150565b975060608b013591508082111561469257600080fd5b61469e8c838d01614150565b965060808b01359150808211156146b457600080fd5b6146c08c838d016141b0565b955060a08b01359150808211156146d657600080fd5b6146e28c838d0161406e565b945060c08b01359150808211156146f857600080fd5b6147048c838d016141b0565b935060e08b013591508082111561471a57600080fd5b506147278b828c01614005565b9150509295985092959890939650565b60008060008060008060c0878903121561475057600080fd5b86356001600160401b038082111561476757600080fd5b6147738a838b016140d5565b9750602089013591508082111561478957600080fd5b6147958a838b01613f8a565b965060408901359150808211156147ab57600080fd5b6147b78a838b01614150565b955060608901359150808211156147cd57600080fd5b6147d98a838b01614150565b945060808901359150808211156147ef57600080fd5b6147fb8a838b016141b0565b935060a089013591508082111561481157600080fd5b5061481e89828a01614150565b9150509295509295509295565b60006020828403121561483d57600080fd5b8135613db381614d9e565b60006020828403121561485a57600080fd5b8151613db381614d9e565b60006020828403121561487757600080fd5b613db382614219565b60006020828403121561489257600080fd5b5035919050565b6000602082840312156148ab57600080fd5b8151613db381614dac565b600081518084526020808501945080840160005b838110156148e6578151875295820195908201906001016148ca565b509495945050505050565b60609390931b6bffffffffffffffffffffffff191683526014830191909152603482015260540190565b6000825161492d818460208701614cea565b9190910192915050565b6001600160a01b0394851681529290931660208301526040820152606081019190915260a06080820181905260009082015260c00190565b6001600160a01b0385811682528416602082015260a06040820181905260009061499b908301856148b6565b82810360608401526149ad81856148b6565b838103608090940193909352505060008152602001949350505050565b60208152600082518060208401526149e9816040850160208701614cea565b601f01601f19169190910160400192915050565b6020808252601b908201527f52654e46543a3a696e76616c6964206e6674207374616e646172640000000000604082015260600190565b60208082526017908201527f52654e46543a3a6475726174696f6e206973207a65726f000000000000000000604082015260600190565b60208082526019908201527f52654e46543a3a72656e74207072696365206973207a65726f00000000000000604082015260600190565b6020808252600d908201526c14995391950e8e9c185d5cd959609a1b604082015260600190565b60208082526010908201526f2932a7232a1d1d3737ba1030b236b4b760811b604082015260600190565b604051601f8201601f191681016001600160401b0381118282101715614b1b57614b1b614d73565b604052919050565b60006001600160401b03821115614b3c57614b3c614d73565b5060051b60200190565b600061ffff808316818516808303821115614b6357614b63614d31565b01949350505050565b60008219821115614b7f57614b7f614d31565b500190565b600082614ba157634e487b7160e01b600052601260045260246000fd5b500490565b600181815b80851115614be1578160001904821115614bc757614bc7614d31565b80851615614bd457918102915b93841c9390800290614bab565b509250929050565b6000613db38383600082614bff57506001610400565b81614c0c57506000610400565b8160018114614c225760028114614c2c57614c48565b6001915050610400565b60ff841115614c3d57614c3d614d31565b50506001821b610400565b5060208310610133831016604e8410600b8410161715614c6b575081810a610400565b614c758383614ba6565b8060001904821115614c8957614c89614d31565b029392505050565b6000816000190483118215151615614cab57614cab614d31565b500290565b600061ffff83811690831681811015614ccb57614ccb614d31565b039392505050565b600082821015614ce557614ce5614d31565b500390565b60005b83811015614d05578181015183820152602001614ced565b838111156106aa5750506000910152565b6000600019821415614d2a57614d2a614d31565b5060010190565b634e487b7160e01b600052601160045260246000fd5b634e487b7160e01b600052602160045260246000fd5b634e487b7160e01b600052603260045260246000fd5b634e487b7160e01b600052604160045260246000fd5b6001600160a01b03811681146126cc57600080fd5b80151581146126cc57600080fd5b60ff811681146126cc57600080fdfea2646970667358221220959aa84dc9612489200535ca02718710f16c79ec7e39a0d76e55dc56ffc1572d64736f6c63430008070033",
  "bytecodeSha1": "ffc744c645f5f126fa30f52e75081dc035936d0b",
  "compiler": {
    "evm_version": "istanbul",
    "optimizer": {
      "enabled": true,
      "runs": 200
    },
    "version": "0.8.7+commit.e28d00a7"
  },
  "contractName": "Registry",
  "language": "Solidity",
  "natspec": {
    "kind": "dev",
    "methods": {
      "onERC721Received(address,address,uint256,bytes)": {
        "details": "See {IERC721Receiver-onERC721Received}. Always returns `IERC721Receiver.onERC721Received.selector`."
      },
      "supportsInterface(bytes4)": {
        "details": "See {IERC165-supportsInterface}."
      }
    },
    "version": 1
  },
  "opcodes": "PUSH1 0x80 PUSH1 0x40 MSTORE PUSH1 0x4 CALLDATASIZE LT PUSH2 0xF3 JUMPI PUSH1 0x0 CALLDATALOAD PUSH1 0xE0 SHR DUP1 PUSH4 0x937821A1 GT PUSH2 0x8A JUMPI DUP1 PUSH4 0xCBE55E54 GT PUSH2 0x59 JUMPI DUP1 PUSH4 0xCBE55E54 EQ PUSH2 0x315 JUMPI DUP1 PUSH4 0xDC68A142 EQ PUSH2 0x328 JUMPI DUP1 PUSH4 0xF23A6E61 EQ PUSH2 0x348 JUMPI DUP1 PUSH4 0xFE46B7CD EQ PUSH2 0x374 JUMPI PUSH1 0x0 DUP1 REVERT JUMPDEST DUP1 PUSH4 0x937821A1 EQ PUSH2 0x285 JUMPI DUP1 PUSH4 0xBC197C81 EQ PUSH2 0x2A5 JUMPI DUP1 PUSH4 0xBF2B23EA EQ PUSH2 0x2D1 JUMPI DUP1 PUSH4 0xC9C40183 EQ PUSH2 0x2F5 JUMPI PUSH1 0x0 DUP1 REVERT JUMPDEST DUP1 PUSH4 0x1C31F710 GT PUSH2 0xC6 JUMPI DUP1 PUSH4 0x1C31F710 EQ PUSH2 0x1B3 JUMPI DUP1 PUSH4 0x296C21B7 EQ PUSH2 0x1D3 JUMPI DUP1 PUSH4 0x5C975ABB EQ PUSH2 0x24B JUMPI DUP1 PUSH4 0x76774EA3 EQ PUSH2 0x265 JUMPI PUSH1 0x0 DUP1 REVERT JUMPDEST DUP1 PUSH4 0x1FFC9A7 EQ PUSH2 0xF8 JUMPI DUP1 PUSH4 0x14B5685C EQ PUSH2 0x12D JUMPI DUP1 PUSH4 0x150B7A02 EQ PUSH2 0x14F JUMPI DUP1 PUSH4 0x16C38B3C EQ PUSH2 0x193 JUMPI JUMPDEST PUSH1 0x0 DUP1 REVERT JUMPDEST CALLVALUE DUP1 ISZERO PUSH2 0x104 JUMPI PUSH1 0x0 DUP1 REVERT JUMPDEST POP PUSH2 0x118 PUSH2 0x113 CALLDATASIZE PUSH1 0x4 PUSH2 0x4865 JUMP JUMPDEST PUSH2 0x3CF JUMP JUMPDEST PUSH1 0x40 MLOAD SWAP1 ISZERO ISZERO DUP2 MSTORE PUSH1 0x20 ADD JUMPDEST PUSH1 0x40 MLOAD DUP1 SWAP2 SUB SWAP1 RETURN JUMPDEST CALLVALUE DUP1 ISZERO PUSH2 0x139 JUMPI PUSH1 0x0 DUP1 REVERT JUMPDEST POP PUSH2 0x14D PUSH2 0x148 CALLDATASIZE PUSH1 0x4 PUSH2 0x4534 JUMP JUMPDEST PUSH2 0x406 JUMP JUMPDEST STOP JUMPDEST CALLVALUE DUP1 ISZERO PUSH2 0x15B JUMPI PUSH1 0x0 DUP1 REVERT JUMPDEST POP PUSH2 0x17A PUSH2 0x16A CALLDATASIZE PUSH1 0x4 PUSH2 0x438C JUMP JUMPDEST PUSH4 0xA85BD01 PUSH1 0xE1 SHL SWAP5 SWAP4 POP POP POP POP JUMP JUMPDEST PUSH1 0x40 MLOAD PUSH1 0x1 PUSH1 0x1 PUSH1 0xE0 SHL SUB NOT SWAP1 SWAP2 AND DUP2 MSTORE PUSH1 0x20 ADD PUSH2 0x124 JUMP JUMPDEST CALLVALUE DUP1 ISZERO PUSH2 0x19F JUMPI PUSH1 0x0 DUP1 REVERT JUMPDEST POP PUSH2 0x14D PUSH2 0x1AE CALLDATASIZE PUSH1 0x4 PUSH2 0x482B JUMP JUMPDEST PUSH2 0x451 JUMP JUMPDEST CALLVALUE DUP1 ISZERO PUSH2 0x1BF JUMPI PUSH1 0x0 DUP1 REVERT JUMPDEST POP PUSH2 0x14D PUSH2 0x1CE CALLDATASIZE PUSH1 0x4 PUSH2 0x42C2 JUMP JUMPDEST PUSH2 0x48E JUMP JUMPDEST CALLVALUE DUP1 ISZERO PUSH2 0x1DF JUMPI PUSH1 0x0 DUP1 REVERT JUMPDEST POP PUSH2 0x1F3 PUSH2 0x1EE CALLDATASIZE PUSH1 0x4 PUSH2 0x445F JUMP JUMPDEST PUSH2 0x4DA JUMP JUMPDEST PUSH1 0x40 DUP1 MLOAD PUSH1 0xFF SWAP9 DUP10 AND DUP2 MSTORE PUSH1 0x1 PUSH1 0x1 PUSH1 0xA0 SHL SUB SWAP1 SWAP8 AND PUSH1 0x20 DUP9 ADD MSTORE SWAP5 DUP8 AND SWAP5 DUP7 ADD SWAP5 SWAP1 SWAP5 MSTORE PUSH1 0x1 PUSH1 0x1 PUSH1 0xE0 SHL SUB NOT SWAP1 SWAP3 AND PUSH1 0x60 DUP6 ADD MSTORE PUSH2 0xFFFF SWAP1 DUP2 AND PUSH1 0x80 DUP6 ADD MSTORE AND PUSH1 0xA0 DUP4 ADD MSTORE SWAP2 SWAP1 SWAP2 AND PUSH1 0xC0 DUP3 ADD MSTORE PUSH1 0xE0 ADD PUSH2 0x124 JUMP JUMPDEST CALLVALUE DUP1 ISZERO PUSH2 0x257 JUMPI PUSH1 0x0 DUP1 REVERT JUMPDEST POP PUSH1 0x5 SLOAD PUSH2 0x118 SWAP1 PUSH1 0xFF AND DUP2 JUMP JUMPDEST CALLVALUE DUP1 ISZERO PUSH2 0x271 JUMPI PUSH1 0x0 DUP1 REVERT JUMPDEST POP PUSH2 0x14D PUSH2 0x280 CALLDATASIZE PUSH1 0x4 PUSH2 0x4880 JUMP JUMPDEST PUSH2 0x593 JUMP JUMPDEST CALLVALUE DUP1 ISZERO PUSH2 0x291 JUMPI PUSH1 0x0 DUP1 REVERT JUMPDEST POP PUSH2 0x14D PUSH2 0x2A0 CALLDATASIZE PUSH1 0x4 PUSH2 0x4534 JUMP JUMPDEST PUSH2 0x613 JUMP JUMPDEST CALLVALUE DUP1 ISZERO PUSH2 0x2B1 JUMPI PUSH1 0x0 DUP1 REVERT JUMPDEST POP PUSH2 0x17A PUSH2 0x2C0 CALLDATASIZE PUSH1 0x4 PUSH2 0x42DF JUMP JUMPDEST PUSH4 0xBC197C81 PUSH1 0xE0 SHL SWAP6 SWAP5 POP POP POP POP POP JUMP JUMPDEST CALLVALUE DUP1 ISZERO PUSH2 0x2DD JUMPI PUSH1 0x0 DUP1 REVERT JUMPDEST POP PUSH2 0x2E7 PUSH1 0x6 SLOAD DUP2 JUMP JUMPDEST PUSH1 0x40 MLOAD SWAP1 DUP2 MSTORE PUSH1 0x20 ADD PUSH2 0x124 JUMP JUMPDEST CALLVALUE DUP1 ISZERO PUSH2 0x301 JUMPI PUSH1 0x0 DUP1 REVERT JUMPDEST POP PUSH2 0x14D PUSH2 0x310 CALLDATASIZE PUSH1 0x4 PUSH2 0x4494 JUMP JUMPDEST PUSH2 0x649 JUMP JUMPDEST PUSH2 0x14D PUSH2 0x323 CALLDATASIZE PUSH1 0x4 PUSH2 0x4737 JUMP JUMPDEST PUSH2 0x6B0 JUMP JUMPDEST CALLVALUE DUP1 ISZERO PUSH2 0x334 JUMPI PUSH1 0x0 DUP1 REVERT JUMPDEST POP PUSH2 0x14D PUSH2 0x343 CALLDATASIZE PUSH1 0x4 PUSH2 0x45F8 JUMP JUMPDEST PUSH2 0x6EF JUMP JUMPDEST CALLVALUE DUP1 ISZERO PUSH2 0x354 JUMPI PUSH1 0x0 DUP1 REVERT JUMPDEST POP PUSH2 0x17A PUSH2 0x363 CALLDATASIZE PUSH1 0x4 PUSH2 0x43F7 JUMP JUMPDEST PUSH4 0xF23A6E61 PUSH1 0xE0 SHL SWAP6 SWAP5 POP POP POP POP POP JUMP JUMPDEST CALLVALUE DUP1 ISZERO PUSH2 0x380 JUMPI PUSH1 0x0 DUP1 REVERT JUMPDEST POP PUSH2 0x394 PUSH2 0x38F CALLDATASIZE PUSH1 0x4 PUSH2 0x445F JUMP JUMPDEST PUSH2 0x732 JUMP JUMPDEST PUSH1 0x40 DUP1 MLOAD PUSH1 0x1 PUSH1 0x1 PUSH1 0xA0 SHL SUB SWAP1 SWAP6 AND DUP6 MSTORE PUSH2 0xFFFF SWAP1 SWAP4 AND PUSH1 0x20 DUP6 ADD MSTORE PUSH1 0xFF SWAP1 SWAP2 AND SWAP2 DUP4 ADD SWAP2 SWAP1 SWAP2 MSTORE PUSH4 0xFFFFFFFF AND PUSH1 0x60 DUP3 ADD MSTORE PUSH1 0x80 ADD PUSH2 0x124 JUMP JUMPDEST PUSH1 0x0 PUSH1 0x1 PUSH1 0x1 PUSH1 0xE0 SHL SUB NOT DUP3 AND PUSH4 0x2711897 PUSH1 0xE5 SHL EQ DUP1 PUSH2 0x400 JUMPI POP PUSH4 0x1FFC9A7 PUSH1 0xE0 SHL PUSH1 0x1 PUSH1 0x1 PUSH1 0xE0 SHL SUB NOT DUP4 AND EQ JUMPDEST SWAP3 SWAP2 POP POP JUMP JUMPDEST PUSH1 0x5 SLOAD PUSH1 0xFF AND ISZERO PUSH2 0x432 JUMPI PUSH1 0x40 MLOAD PUSH3 0x461BCD PUSH1 0xE5 SHL DUP2 MSTORE PUSH1 0x4 ADD PUSH2 0x429 SWAP1 PUSH2 0x4AA2 JUMP JUMPDEST PUSH1 0x40 MLOAD DUP1 SWAP2 SUB SWAP1 REVERT JUMPDEST PUSH2 0x44A PUSH2 0x7B0 PUSH2 0x445 DUP8 DUP8 DUP8 DUP8 DUP8 PUSH2 0xD76 JUMP JUMPDEST PUSH2 0xF2D JUMP JUMPDEST POP POP POP POP POP JUMP JUMPDEST PUSH1 0x1 SLOAD PUSH1 0x1 PUSH1 0x1 PUSH1 0xA0 SHL SUB AND CALLER EQ PUSH2 0x47B JUMPI PUSH1 0x40 MLOAD PUSH3 0x461BCD PUSH1 0xE5 SHL DUP2 MSTORE PUSH1 0x4 ADD PUSH2 0x429 SWAP1 PUSH2 0x4AC9 JUMP JUMPDEST PUSH1 0x5 DUP1 SLOAD PUSH1 0xFF NOT AND SWAP2 ISZERO ISZERO SWAP2 SWAP1 SWAP2 OR SWAP1 SSTORE JUMP JUMPDEST PUSH1 0x1 SLOAD PUSH1 0x1 PUSH1 0x1 PUSH1 0xA0 SHL SUB AND CALLER EQ PUSH2 0x4B8 JUMPI PUSH1 0x40 MLOAD PUSH3 0x461BCD PUSH1 0xE5 SHL DUP2 MSTORE PUSH1 0x4 ADD PUSH2 0x429 SWAP1 PUSH2 0x4AC9 JUMP JUMPDEST PUSH1 0x2 DUP1 SLOAD PUSH1 0x1 PUSH1 0x1 PUSH1 0xA0 SHL SUB NOT AND PUSH1 0x1 PUSH1 0x1 PUSH1 0xA0 SHL SUB SWAP3 SWAP1 SWAP3 AND SWAP2 SWAP1 SWAP2 OR SWAP1 SSTORE JUMP JUMPDEST PUSH1 0x0 DUP1 PUSH1 0x0 DUP1 PUSH1 0x0 DUP1 PUSH1 0x0 DUP1 DUP11 DUP11 DUP11 PUSH1 0x40 MLOAD PUSH1 0x20 ADD PUSH2 0x4FB SWAP4 SWAP3 SWAP2 SWAP1 PUSH2 0x48F1 JUMP JUMPDEST PUSH1 0x40 DUP1 MLOAD PUSH1 0x1F NOT DUP2 DUP5 SUB ADD DUP2 MSTORE SWAP2 DUP2 MSTORE DUP2 MLOAD PUSH1 0x20 SWAP3 DUP4 ADD KECCAK256 PUSH1 0x0 DUP2 DUP2 MSTORE PUSH1 0x7 SWAP1 SWAP4 MSTORE SWAP2 KECCAK256 DUP1 SLOAD SWAP2 SWAP3 POP SWAP1 PUSH1 0xFF AND PUSH1 0x1 DUP2 GT ISZERO PUSH2 0x539 JUMPI PUSH2 0x539 PUSH2 0x4D47 JUMP JUMPDEST SWAP1 SLOAD SWAP1 SWAP13 PUSH1 0x1 PUSH1 0x1 PUSH1 0xA0 SHL SUB PUSH2 0x100 DUP4 DIV AND SWAP13 POP PUSH1 0xFF PUSH1 0x1 PUSH1 0xA8 SHL DUP4 DIV DUP2 AND SWAP13 POP PUSH1 0x1 PUSH1 0xB0 SHL DUP4 DIV PUSH1 0xE0 SHL SWAP12 POP PUSH2 0xFFFF PUSH1 0x1 PUSH1 0xD0 SHL DUP5 DIV DUP2 AND SWAP12 POP PUSH1 0x1 PUSH1 0xE0 SHL DUP5 DIV AND SWAP10 POP PUSH1 0x1 PUSH1 0xF0 SHL SWAP1 SWAP3 DIV SWAP1 SWAP2 AND SWAP7 POP SWAP5 POP POP POP POP POP JUMP JUMPDEST PUSH1 0x1 SLOAD PUSH1 0x1 PUSH1 0x1 PUSH1 0xA0 SHL SUB AND CALLER EQ PUSH2 0x5BD JUMPI PUSH1 0x40 MLOAD PUSH3 0x461BCD PUSH1 0xE5 SHL DUP2 MSTORE PUSH1 0x4 ADD PUSH2 0x429 SWAP1 PUSH2 0x4AC9 JUMP JUMPDEST PUSH2 0x2710 DUP2 LT PUSH2 0x60E JUMPI PUSH1 0x40 MLOAD PUSH3 0x461BCD PUSH1 0xE5 SHL DUP2 MSTORE PUSH1 0x20 PUSH1 0x4 DUP3 ADD MSTORE PUSH1 0x19 PUSH1 0x24 DUP3 ADD MSTORE PUSH32 0x52654E46543A3A66656520657863656564732031303070637400000000000000 PUSH1 0x44 DUP3 ADD MSTORE PUSH1 0x64 ADD PUSH2 0x429 JUMP JUMPDEST PUSH1 0x6 SSTORE JUMP JUMPDEST PUSH1 0x5 SLOAD PUSH1 0xFF AND ISZERO PUSH2 0x636 JUMPI PUSH1 0x40 MLOAD PUSH3 0x461BCD PUSH1 0xE5 SHL DUP2 MSTORE PUSH1 0x4 ADD PUSH2 0x429 SWAP1 PUSH2 0x4AA2 JUMP JUMPDEST PUSH2 0x44A PUSH2 0x1062 PUSH2 0x445 DUP8 DUP8 DUP8 DUP8 DUP8 PUSH2 0xD76 JUMP JUMPDEST PUSH1 0x5 SLOAD PUSH1 0xFF AND ISZERO PUSH2 0x66C JUMPI PUSH1 0x40 MLOAD PUSH3 0x461BCD PUSH1 0xE5 SHL DUP2 MSTORE PUSH1 0x4 ADD PUSH2 0x429 SWAP1 PUSH2 0x4AA2 JUMP JUMPDEST PUSH2 0x6AA PUSH2 0x149F PUSH2 0x445 DUP7 DUP7 DUP7 DUP7 PUSH1 0x0 PUSH1 0x40 MLOAD SWAP1 DUP1 DUP3 MSTORE DUP1 PUSH1 0x20 MUL PUSH1 0x20 ADD DUP3 ADD PUSH1 0x40 MSTORE DUP1 ISZERO PUSH2 0x6A4 JUMPI DUP2 PUSH1 0x20 ADD PUSH1 0x20 DUP3 MUL DUP1 CALLDATASIZE DUP4 CALLDATACOPY ADD SWAP1 POP JUMPDEST POP PUSH2 0xD76 JUMP JUMPDEST POP POP POP POP JUMP JUMPDEST PUSH1 0x5 SLOAD PUSH1 0xFF AND ISZERO PUSH2 0x6D3 JUMPI PUSH1 0x40 MLOAD PUSH3 0x461BCD PUSH1 0xE5 SHL DUP2 MSTORE PUSH1 0x4 ADD PUSH2 0x429 SWAP1 PUSH2 0x4AA2 JUMP JUMPDEST PUSH2 0x6E7 PUSH2 0x185B PUSH2 0x445 DUP9 DUP9 DUP9 DUP9 DUP9 DUP9 PUSH2 0x1FB1 JUMP JUMPDEST POP POP POP POP POP POP JUMP JUMPDEST PUSH1 0x5 SLOAD PUSH1 0xFF AND ISZERO PUSH2 0x712 JUMPI PUSH1 0x40 MLOAD PUSH3 0x461BCD PUSH1 0xE5 SHL DUP2 MSTORE PUSH1 0x4 ADD PUSH2 0x429 SWAP1 PUSH2 0x4AA2 JUMP JUMPDEST PUSH2 0x728 PUSH2 0x20E2 PUSH2 0x445 DUP11 DUP11 DUP11 DUP11 DUP11 DUP11 DUP11 DUP11 PUSH2 0x26CF JUMP JUMPDEST POP POP POP POP POP POP POP POP JUMP JUMPDEST PUSH1 0x0 DUP1 PUSH1 0x0 DUP1 PUSH1 0x0 DUP8 DUP8 DUP8 PUSH1 0x40 MLOAD PUSH1 0x20 ADD PUSH2 0x74F SWAP4 SWAP3 SWAP2 SWAP1 PUSH2 0x48F1 JUMP JUMPDEST PUSH1 0x40 DUP1 MLOAD DUP1 DUP4 SUB PUSH1 0x1F NOT ADD DUP2 MSTORE SWAP2 DUP2 MSTORE DUP2 MLOAD PUSH1 0x20 SWAP3 DUP4 ADD KECCAK256 PUSH1 0x0 SWAP1 DUP2 MSTORE PUSH1 0x8 SWAP1 SWAP3 MSTORE SWAP1 KECCAK256 SLOAD PUSH1 0x1 PUSH1 0x1 PUSH1 0xA0 SHL SUB DUP2 AND SWAP10 PUSH1 0x1 PUSH1 0xC8 SHL DUP3 DIV PUSH2 0xFFFF AND SWAP10 POP PUSH1 0x1 PUSH1 0xA0 SHL DUP3 DIV PUSH1 0xFF AND SWAP9 POP PUSH1 0x1 PUSH1 0xA8 SHL SWAP1 SWAP2 DIV PUSH4 0xFFFFFFFF AND SWAP7 POP SWAP5 POP POP POP POP POP JUMP JUMPDEST DUP1 MLOAD JUMPDEST DUP2 PUSH1 0x20 ADD MLOAD DUP2 LT ISZERO PUSH2 0xD72 JUMPI PUSH1 0x0 DUP3 PUSH1 0x60 ADD MLOAD DUP4 PUSH1 0x0 ADD MLOAD DUP2 MLOAD DUP2 LT PUSH2 0x7DB JUMPI PUSH2 0x7DB PUSH2 0x4D5D JUMP JUMPDEST PUSH1 0x20 MUL PUSH1 0x20 ADD ADD MLOAD DUP4 PUSH1 0x80 ADD MLOAD DUP4 DUP2 MLOAD DUP2 LT PUSH2 0x7F9 JUMPI PUSH2 0x7F9 PUSH2 0x4D5D JUMP JUMPDEST PUSH1 0x20 MUL PUSH1 0x20 ADD ADD MLOAD DUP5 PUSH2 0x100 ADD MLOAD DUP5 DUP2 MLOAD DUP2 LT PUSH2 0x818 JUMPI PUSH2 0x818 PUSH2 0x4D5D JUMP JUMPDEST PUSH1 0x20 MUL PUSH1 0x20 ADD ADD MLOAD PUSH1 0x40 MLOAD PUSH1 0x20 ADD PUSH2 0x832 SWAP4 SWAP3 SWAP2 SWAP1 PUSH2 0x48F1 JUMP JUMPDEST PUSH1 0x40 MLOAD PUSH1 0x20 DUP2 DUP4 SUB SUB DUP2 MSTORE SWAP1 PUSH1 0x40 MSTORE DUP1 MLOAD SWAP1 PUSH1 0x20 ADD KECCAK256 SWAP1 POP PUSH1 0x0 DUP4 PUSH1 0x60 ADD MLOAD DUP5 PUSH1 0x0 ADD MLOAD DUP2 MLOAD DUP2 LT PUSH2 0x866 JUMPI PUSH2 0x866 PUSH2 0x4D5D JUMP JUMPDEST PUSH1 0x20 MUL PUSH1 0x20 ADD ADD MLOAD DUP5 PUSH1 0x80 ADD MLOAD DUP5 DUP2 MLOAD DUP2 LT PUSH2 0x884 JUMPI PUSH2 0x884 PUSH2 0x4D5D JUMP JUMPDEST PUSH1 0x20 MUL PUSH1 0x20 ADD ADD MLOAD DUP6 PUSH2 0x120 ADD MLOAD DUP6 DUP2 MLOAD DUP2 LT PUSH2 0x8A3 JUMPI PUSH2 0x8A3 PUSH2 0x4D5D JUMP JUMPDEST PUSH1 0x20 MUL PUSH1 0x20 ADD ADD MLOAD PUSH1 0x40 MLOAD PUSH1 0x20 ADD PUSH2 0x8BD SWAP4 SWAP3 SWAP2 SWAP1 PUSH2 0x48F1 JUMP JUMPDEST PUSH1 0x40 DUP1 MLOAD PUSH1 0x1F NOT DUP2 DUP5 SUB ADD DUP2 MSTORE DUP3 DUP3 MSTORE DUP1 MLOAD PUSH1 0x20 SWAP2 DUP3 ADD KECCAK256 PUSH1 0x0 DUP7 DUP2 MSTORE PUSH1 0x7 DUP4 MSTORE DUP4 DUP2 KECCAK256 DUP3 DUP3 MSTORE PUSH1 0x8 SWAP1 SWAP4 MSTORE DUP4 SWAP1 KECCAK256 PUSH2 0x100 DUP6 ADD SWAP1 SWAP4 MSTORE DUP2 SLOAD SWAP1 SWAP5 POP SWAP1 SWAP3 PUSH2 0x9AB SWAP2 DUP5 SWAP1 DUP3 SWAP1 PUSH1 0xFF AND PUSH1 0x1 DUP2 GT ISZERO PUSH2 0x917 JUMPI PUSH2 0x917 PUSH2 0x4D47 JUMP JUMPDEST PUSH1 0x1 DUP2 GT ISZERO PUSH2 0x928 JUMPI PUSH2 0x928 PUSH2 0x4D47 JUMP JUMPDEST DUP2 MSTORE SWAP1 SLOAD PUSH2 0x100 DUP2 DIV PUSH1 0x1 PUSH1 0x1 PUSH1 0xA0 SHL SUB AND PUSH1 0x20 DUP4 ADD MSTORE PUSH1 0x1 PUSH1 0xA8 SHL DUP2 DIV PUSH1 0xFF SWAP1 DUP2 AND PUSH1 0x40 DUP5 ADD MSTORE PUSH1 0x1 PUSH1 0xB0 SHL DUP3 DIV PUSH1 0xE0 SWAP1 DUP2 SHL PUSH1 0x1 PUSH1 0x1 PUSH1 0xE0 SHL SUB NOT AND PUSH1 0x60 DUP6 ADD MSTORE PUSH1 0x1 PUSH1 0xD0 SHL DUP4 DIV PUSH2 0xFFFF SWAP1 DUP2 AND PUSH1 0x80 DUP7 ADD MSTORE PUSH1 0x1 PUSH1 0xE0 SHL DUP5 DIV AND PUSH1 0xA0 DUP6 ADD MSTORE PUSH1 0x1 PUSH1 0xF0 SHL DUP4 DIV DUP3 AND PUSH1 0xC0 DUP6 ADD MSTORE PUSH1 0x1 PUSH1 0xF8 SHL SWAP1 SWAP3 DIV AND ISZERO ISZERO SWAP2 ADD MSTORE PUSH2 0x2808 JUMP JUMPDEST PUSH1 0x40 DUP1 MLOAD PUSH1 0x80 DUP2 ADD DUP3 MSTORE DUP3 SLOAD PUSH1 0x1 PUSH1 0x1 PUSH1 0xA0 SHL SUB DUP2 AND DUP3 MSTORE PUSH1 0x1 PUSH1 0xA0 SHL DUP2 DIV PUSH1 0xFF AND PUSH1 0x20 DUP4 ADD MSTORE PUSH1 0x1 PUSH1 0xA8 SHL DUP2 DIV PUSH4 0xFFFFFFFF AND SWAP3 DUP3 ADD SWAP3 SWAP1 SWAP3 MSTORE PUSH1 0x1 PUSH1 0xC8 SHL SWAP1 SWAP2 DIV PUSH2 0xFFFF AND PUSH1 0x60 DUP3 ADD MSTORE PUSH2 0xA00 SWAP1 PUSH2 0x288B JUMP JUMPDEST PUSH1 0x40 DUP1 MLOAD PUSH1 0x80 DUP2 ADD DUP3 MSTORE DUP3 SLOAD PUSH1 0x1 PUSH1 0x1 PUSH1 0xA0 SHL SUB DUP2 AND DUP3 MSTORE PUSH1 0x1 PUSH1 0xA0 SHL DUP2 DIV PUSH1 0xFF AND PUSH1 0x20 DUP4 ADD MSTORE PUSH1 0x1 PUSH1 0xA8 SHL DUP2 DIV PUSH4 0xFFFFFFFF AND SWAP3 DUP3 ADD SWAP3 SWAP1 SWAP3 MSTORE PUSH1 0x1 PUSH1 0xC8 SHL SWAP1 SWAP2 DIV PUSH2 0xFFFF AND PUSH1 0x60 DUP3 ADD MSTORE PUSH2 0xA57 SWAP1 CALLER TIMESTAMP PUSH2 0x2911 JUMP JUMPDEST DUP2 SLOAD PUSH1 0xFF AND PUSH1 0x1 DUP2 GT ISZERO PUSH2 0xA6D JUMPI PUSH2 0xA6D PUSH2 0x4D47 JUMP JUMPDEST DUP7 PUSH1 0x40 ADD MLOAD DUP7 DUP2 MLOAD DUP2 LT PUSH2 0xA83 JUMPI PUSH2 0xA83 PUSH2 0x4D5D JUMP JUMPDEST PUSH1 0x20 MUL PUSH1 0x20 ADD ADD MLOAD PUSH1 0x1 DUP2 GT ISZERO PUSH2 0xA9C JUMPI PUSH2 0xA9C PUSH2 0x4D47 JUMP JUMPDEST EQ PUSH2 0xAB9 JUMPI PUSH1 0x40 MLOAD PUSH3 0x461BCD PUSH1 0xE5 SHL DUP2 MSTORE PUSH1 0x4 ADD PUSH2 0x429 SWAP1 PUSH2 0x49FD JUMP JUMPDEST DUP2 SLOAD DUP2 SLOAD PUSH1 0x1 PUSH1 0xD0 SHL SWAP1 SWAP2 DIV PUSH2 0xFFFF SWAP1 DUP2 AND PUSH1 0x1 PUSH1 0xC8 SHL SWAP1 SWAP3 DIV AND GT ISZERO PUSH2 0xB1A JUMPI PUSH1 0x40 MLOAD PUSH3 0x461BCD PUSH1 0xE5 SHL DUP2 MSTORE PUSH1 0x20 PUSH1 0x4 DUP3 ADD MSTORE PUSH1 0x15 PUSH1 0x24 DUP3 ADD MSTORE PUSH21 0x2932A7232A1D1D31B934BA34B1B0B61032B93937B9 PUSH1 0x59 SHL PUSH1 0x44 DUP3 ADD MSTORE PUSH1 0x64 ADD PUSH2 0x429 JUMP JUMPDEST DUP1 SLOAD PUSH1 0x0 SWAP1 PUSH2 0xB36 SWAP1 PUSH1 0x1 PUSH1 0xA8 SHL SWAP1 DIV PUSH4 0xFFFFFFFF AND TIMESTAMP PUSH2 0x4CD3 JUMP JUMPDEST PUSH1 0x40 DUP1 MLOAD PUSH2 0x100 DUP2 ADD SWAP1 SWAP2 MSTORE DUP5 SLOAD SWAP2 SWAP3 POP PUSH2 0xC53 SWAP2 DUP6 SWAP1 DUP3 SWAP1 PUSH1 0xFF AND PUSH1 0x1 DUP2 GT ISZERO PUSH2 0xB63 JUMPI PUSH2 0xB63 PUSH2 0x4D47 JUMP JUMPDEST PUSH1 0x1 DUP2 GT ISZERO PUSH2 0xB74 JUMPI PUSH2 0xB74 PUSH2 0x4D47 JUMP JUMPDEST DUP2 MSTORE SWAP1 SLOAD PUSH1 0x1 PUSH1 0x1 PUSH1 0xA0 SHL SUB PUSH2 0x100 DUP3 DIV DUP2 AND PUSH1 0x20 DUP1 DUP6 ADD SWAP2 SWAP1 SWAP2 MSTORE PUSH1 0xFF PUSH1 0x1 PUSH1 0xA8 SHL DUP1 DUP6 DIV DUP3 AND PUSH1 0x40 DUP1 DUP9 ADD SWAP2 SWAP1 SWAP2 MSTORE PUSH1 0x1 PUSH1 0x1 PUSH1 0xE0 SHL SUB NOT PUSH1 0x1 PUSH1 0xB0 SHL DUP8 DIV PUSH1 0xE0 SWAP1 DUP2 SHL SWAP2 SWAP1 SWAP2 AND PUSH1 0x60 DUP1 DUP11 ADD SWAP2 SWAP1 SWAP2 MSTORE PUSH2 0xFFFF PUSH1 0x1 PUSH1 0xD0 SHL DUP10 DIV DUP2 AND PUSH1 0x80 DUP1 DUP13 ADD SWAP2 SWAP1 SWAP2 MSTORE PUSH1 0x1 PUSH1 0xE0 SHL DUP11 DIV DUP3 AND PUSH1 0xA0 DUP13 ADD MSTORE PUSH1 0x1 PUSH1 0xF0 SHL DUP11 DIV DUP8 AND PUSH1 0xC0 DUP13 ADD MSTORE PUSH1 0x1 PUSH1 0xF8 SHL SWAP1 SWAP10 DIV DUP7 AND ISZERO ISZERO SWAP3 SWAP1 SWAP10 ADD SWAP2 SWAP1 SWAP2 MSTORE DUP2 MLOAD SWAP7 DUP8 ADD DUP3 MSTORE DUP12 SLOAD SWAP6 DUP7 AND DUP8 MSTORE PUSH1 0x1 PUSH1 0xA0 SHL DUP7 DIV SWAP1 SWAP4 AND SWAP4 DUP7 ADD SWAP4 SWAP1 SWAP4 MSTORE PUSH4 0xFFFFFFFF SWAP1 DUP5 DIV AND SWAP2 DUP5 ADD SWAP2 SWAP1 SWAP2 MSTORE PUSH1 0x1 PUSH1 0xC8 SHL SWAP1 SWAP2 DIV SWAP1 SWAP3 AND SWAP2 DUP2 ADD SWAP2 SWAP1 SWAP2 MSTORE DUP4 PUSH2 0x29C6 JUMP JUMPDEST PUSH2 0xCDE DUP4 DUP4 DUP10 PUSH1 0x60 ADD MLOAD DUP11 PUSH1 0x0 ADD MLOAD DUP2 MLOAD DUP2 LT PUSH2 0xC72 JUMPI PUSH2 0xC72 PUSH2 0x4D5D JUMP JUMPDEST PUSH1 0x20 MUL PUSH1 0x20 ADD ADD MLOAD DUP11 PUSH1 0x40 ADD MLOAD DUP12 PUSH1 0x0 ADD MLOAD DUP2 MLOAD DUP2 LT PUSH2 0xC94 JUMPI PUSH2 0xC94 PUSH2 0x4D5D JUMP JUMPDEST PUSH1 0x20 MUL PUSH1 0x20 ADD ADD MLOAD DUP12 PUSH1 0x80 ADD MLOAD DUP12 DUP2 MLOAD DUP2 LT PUSH2 0xCB2 JUMPI PUSH2 0xCB2 PUSH2 0x4D5D JUMP JUMPDEST PUSH1 0x20 MUL PUSH1 0x20 ADD ADD MLOAD DUP13 PUSH2 0x100 ADD MLOAD DUP13 DUP2 MLOAD DUP2 LT PUSH2 0xCD1 JUMPI PUSH2 0xCD1 PUSH2 0x4D5D JUMP JUMPDEST PUSH1 0x20 MUL PUSH1 0x20 ADD ADD MLOAD PUSH2 0x2C4F JUMP JUMPDEST DUP7 PUSH2 0x120 ADD MLOAD DUP7 DUP2 MLOAD DUP2 LT PUSH2 0xCF5 JUMPI PUSH2 0xCF5 PUSH2 0x4D5D JUMP JUMPDEST PUSH1 0x20 MUL PUSH1 0x20 ADD ADD MLOAD PUSH32 0x58855DD8908B14C6D7922D964418F37EFD968BC6B9B857560870B14A898F916D TIMESTAMP PUSH1 0x40 MLOAD PUSH2 0xD38 SWAP2 SWAP1 PUSH4 0xFFFFFFFF SWAP2 SWAP1 SWAP2 AND DUP2 MSTORE PUSH1 0x20 ADD SWAP1 JUMP JUMPDEST PUSH1 0x40 MLOAD DUP1 SWAP2 SUB SWAP1 LOG2 POP POP POP PUSH1 0x0 SWAP1 DUP2 MSTORE PUSH1 0x8 PUSH1 0x20 MSTORE PUSH1 0x40 SWAP1 KECCAK256 DUP1 SLOAD PUSH1 0x1 PUSH1 0x1 PUSH1 0xD8 SHL SUB NOT AND SWAP1 SSTORE POP DUP1 PUSH2 0xD6A DUP2 PUSH2 0x4D16 JUMP JUMPDEST SWAP2 POP POP PUSH2 0x7B3 JUMP JUMPDEST POP POP JUMP JUMPDEST PUSH2 0xD7E PUSH2 0x3F1B JUMP JUMPDEST PUSH1 0x40 MLOAD DUP1 PUSH2 0x1C0 ADD PUSH1 0x40 MSTORE DUP1 PUSH1 0x0 DUP2 MSTORE PUSH1 0x20 ADD PUSH1 0x1 DUP2 MSTORE PUSH1 0x20 ADD DUP8 DUP2 MSTORE PUSH1 0x20 ADD DUP7 DUP2 MSTORE PUSH1 0x20 ADD DUP6 DUP2 MSTORE PUSH1 0x20 ADD PUSH1 0x0 PUSH1 0x1 PUSH1 0x1 PUSH1 0x40 SHL SUB DUP2 GT ISZERO PUSH2 0xDC3 JUMPI PUSH2 0xDC3 PUSH2 0x4D73 JUMP JUMPDEST PUSH1 0x40 MLOAD SWAP1 DUP1 DUP3 MSTORE DUP1 PUSH1 0x20 MUL PUSH1 0x20 ADD DUP3 ADD PUSH1 0x40 MSTORE DUP1 ISZERO PUSH2 0xDEC JUMPI DUP2 PUSH1 0x20 ADD PUSH1 0x20 DUP3 MUL DUP1 CALLDATASIZE DUP4 CALLDATACOPY ADD SWAP1 POP JUMPDEST POP DUP2 MSTORE PUSH1 0x20 ADD PUSH1 0x0 PUSH1 0x40 MLOAD SWAP1 DUP1 DUP3 MSTORE DUP1 PUSH1 0x20 MUL PUSH1 0x20 ADD DUP3 ADD PUSH1 0x40 MSTORE DUP1 ISZERO PUSH2 0xE1D JUMPI DUP2 PUSH1 0x20 ADD PUSH1 0x20 DUP3 MUL DUP1 CALLDATASIZE DUP4 CALLDATACOPY ADD SWAP1 POP JUMPDEST POP DUP2 MSTORE PUSH1 0x20 ADD PUSH1 0x0 PUSH1 0x40 MLOAD SWAP1 DUP1 DUP3 MSTORE DUP1 PUSH1 0x20 MUL PUSH1 0x20 ADD DUP3 ADD PUSH1 0x40 MSTORE DUP1 ISZERO PUSH2 0xE4E JUMPI DUP2 PUSH1 0x20 ADD PUSH1 0x20 DUP3 MUL DUP1 CALLDATASIZE DUP4 CALLDATACOPY ADD SWAP1 POP JUMPDEST POP DUP2 MSTORE PUSH1 0x20 DUP2 ADD DUP6 SWAP1 MSTORE PUSH1 0x40 DUP2 ADD DUP5 SWAP1 MSTORE PUSH1 0x60 ADD PUSH1 0x0 PUSH1 0x40 MLOAD SWAP1 DUP1 DUP3 MSTORE DUP1 PUSH1 0x20 MUL PUSH1 0x20 ADD DUP3 ADD PUSH1 0x40 MSTORE DUP1 ISZERO PUSH2 0xE8D JUMPI DUP2 PUSH1 0x20 ADD PUSH1 0x20 DUP3 MUL DUP1 CALLDATASIZE DUP4 CALLDATACOPY ADD SWAP1 POP JUMPDEST POP DUP2 MSTORE PUSH1 0x20 ADD PUSH1 0x0 PUSH1 0x40 MLOAD SWAP1 DUP1 DUP3 MSTORE DUP1 PUSH1 0x20 MUL PUSH1 0x20 ADD DUP3 ADD PUSH1 0x40 MSTORE DUP1 ISZERO PUSH2 0xEBE JUMPI DUP2 PUSH1 0x20 ADD PUSH1 0x20 DUP3 MUL DUP1 CALLDATASIZE DUP4 CALLDATACOPY ADD SWAP1 POP JUMPDEST POP DUP2 MSTORE PUSH1 0x20 ADD PUSH1 0x0 PUSH1 0x40 MLOAD SWAP1 DUP1 DUP3 MSTORE DUP1 PUSH1 0x20 MUL PUSH1 0x20 ADD DUP3 ADD PUSH1 0x40 MSTORE DUP1 ISZERO PUSH2 0xEEF JUMPI DUP2 PUSH1 0x20 ADD PUSH1 0x20 DUP3 MUL DUP1 CALLDATASIZE DUP4 CALLDATACOPY ADD SWAP1 POP JUMPDEST POP DUP2 MSTORE PUSH1 0x20 ADD PUSH1 0x0 PUSH1 0x40 MLOAD SWAP1 DUP1 DUP3 MSTORE DUP1 PUSH1 0x20 MUL PUSH1 0x20 ADD DUP3 ADD PUSH1 0x40 MSTORE DUP1 ISZERO PUSH2 0xF20 JUMPI DUP2 PUSH1 0x20 ADD PUSH1 0x20 DUP3 MUL DUP1 CALLDATASIZE DUP4 CALLDATACOPY ADD SWAP1 POP JUMPDEST POP SWAP1 MSTORE SWAP7 SWAP6 POP POP POP POP POP POP JUMP JUMPDEST PUSH1 0x0 DUP2 PUSH1 0x60 ADD MLOAD MLOAD GT PUSH2 0xF73 JUMPI PUSH1 0x40 MLOAD PUSH3 0x461BCD PUSH1 0xE5 SHL DUP2 MSTORE PUSH1 0x20 PUSH1 0x4 DUP3 ADD MSTORE PUSH1 0xE PUSH1 0x24 DUP3 ADD MSTORE PUSH14 0x52654E46543A3A6E6F206E667473 PUSH1 0x90 SHL PUSH1 0x44 DUP3 ADD MSTORE PUSH1 0x64 ADD PUSH2 0x429 JUMP JUMPDEST DUP1 PUSH1 0x60 ADD MLOAD MLOAD DUP2 PUSH1 0x20 ADD MLOAD EQ PUSH2 0x1055 JUMPI DUP1 PUSH1 0x60 ADD MLOAD DUP2 PUSH1 0x20 ADD MLOAD DUP2 MLOAD DUP2 LT PUSH2 0xF9D JUMPI PUSH2 0xF9D PUSH2 0x4D5D JUMP JUMPDEST PUSH1 0x20 MUL PUSH1 0x20 ADD ADD MLOAD PUSH1 0x1 PUSH1 0x1 PUSH1 0xA0 SHL SUB AND DUP2 PUSH1 0x60 ADD MLOAD DUP3 PUSH1 0x0 ADD MLOAD DUP2 MLOAD DUP2 LT PUSH2 0xFC8 JUMPI PUSH2 0xFC8 PUSH2 0x4D5D JUMP JUMPDEST PUSH1 0x20 MUL PUSH1 0x20 ADD ADD MLOAD PUSH1 0x1 PUSH1 0x1 PUSH1 0xA0 SHL SUB AND EQ DUP1 ISZERO PUSH2 0x1018 JUMPI POP PUSH1 0x1 DUP2 PUSH1 0x40 ADD MLOAD DUP3 PUSH1 0x20 ADD MLOAD DUP2 MLOAD DUP2 LT PUSH2 0xFFD JUMPI PUSH2 0xFFD PUSH2 0x4D5D JUMP JUMPDEST PUSH1 0x20 MUL PUSH1 0x20 ADD ADD MLOAD PUSH1 0x1 DUP2 GT ISZERO PUSH2 0x1016 JUMPI PUSH2 0x1016 PUSH2 0x4D47 JUMP JUMPDEST EQ JUMPDEST ISZERO PUSH2 0x1035 JUMPI PUSH1 0x20 DUP2 ADD DUP1 MLOAD SWAP1 PUSH2 0x102D DUP3 PUSH2 0x4D16 JUMP JUMPDEST SWAP1 MSTORE POP PUSH2 0xF73 JUMP JUMPDEST PUSH2 0x1042 DUP2 DUP4 PUSH4 0xFFFFFFFF AND JUMP JUMPDEST PUSH1 0x20 DUP2 ADD DUP1 MLOAD DUP1 DUP4 MSTORE SWAP1 PUSH2 0x102D DUP3 PUSH2 0x4D16 JUMP JUMPDEST PUSH2 0xD72 DUP2 DUP4 PUSH4 0xFFFFFFFF AND JUMP JUMPDEST DUP1 MLOAD JUMPDEST DUP2 PUSH1 0x20 ADD MLOAD DUP2 LT ISZERO PUSH2 0xD72 JUMPI PUSH1 0x0 DUP3 PUSH1 0x60 ADD MLOAD DUP4 PUSH1 0x0 ADD MLOAD DUP2 MLOAD DUP2 LT PUSH2 0x108D JUMPI PUSH2 0x108D PUSH2 0x4D5D JUMP JUMPDEST PUSH1 0x20 MUL PUSH1 0x20 ADD ADD MLOAD DUP4 PUSH1 0x80 ADD MLOAD DUP4 DUP2 MLOAD DUP2 LT PUSH2 0x10AB JUMPI PUSH2 0x10AB PUSH2 0x4D5D JUMP JUMPDEST PUSH1 0x20 MUL PUSH1 0x20 ADD ADD MLOAD DUP5 PUSH2 0x100 ADD MLOAD DUP5 DUP2 MLOAD DUP2 LT PUSH2 0x10CA JUMPI PUSH2 0x10CA PUSH2 0x4D5D JUMP JUMPDEST PUSH1 0x20 MUL PUSH1 0x20 ADD ADD MLOAD PUSH1 0x40 MLOAD PUSH1 0x20 ADD PUSH2 0x10E4 SWAP4 SWAP3 SWAP2 SWAP1 PUSH2 0x48F1 JUMP JUMPDEST PUSH1 0x40 MLOAD PUSH1 0x20 DUP2 DUP4 SUB SUB DUP2 MSTORE SWAP1 PUSH1 0x40 MSTORE DUP1 MLOAD SWAP1 PUSH1 0x20 ADD KECCAK256 SWAP1 POP PUSH1 0x0 DUP4 PUSH1 0x60 ADD MLOAD DUP5 PUSH1 0x0 ADD MLOAD DUP2 MLOAD DUP2 LT PUSH2 0x1118 JUMPI PUSH2 0x1118 PUSH2 0x4D5D JUMP JUMPDEST PUSH1 0x20 MUL PUSH1 0x20 ADD ADD MLOAD DUP5 PUSH1 0x80 ADD MLOAD DUP5 DUP2 MLOAD DUP2 LT PUSH2 0x1136 JUMPI PUSH2 0x1136 PUSH2 0x4D5D JUMP JUMPDEST PUSH1 0x20 MUL PUSH1 0x20 ADD ADD MLOAD DUP6 PUSH2 0x120 ADD MLOAD DUP6 DUP2 MLOAD DUP2 LT PUSH2 0x1155 JUMPI PUSH2 0x1155 PUSH2 0x4D5D JUMP JUMPDEST PUSH1 0x20 MUL PUSH1 0x20 ADD ADD MLOAD PUSH1 0x40 MLOAD PUSH1 0x20 ADD PUSH2 0x116F SWAP4 SWAP3 SWAP2 SWAP1 PUSH2 0x48F1 JUMP JUMPDEST PUSH1 0x40 DUP1 MLOAD PUSH1 0x1F NOT DUP2 DUP5 SUB ADD DUP2 MSTORE DUP3 DUP3 MSTORE DUP1 MLOAD PUSH1 0x20 SWAP2 DUP3 ADD KECCAK256 PUSH1 0x0 DUP7 DUP2 MSTORE PUSH1 0x7 DUP4 MSTORE DUP4 DUP2 KECCAK256 DUP3 DUP3 MSTORE PUSH1 0x8 SWAP1 SWAP4 MSTORE DUP4 SWAP1 KECCAK256 PUSH2 0x100 DUP6 ADD SWAP1 SWAP4 MSTORE DUP2 SLOAD SWAP1 SWAP5 POP SWAP1 SWAP3 PUSH2 0x11C9 SWAP2 DUP5 SWAP1 DUP3 SWAP1 PUSH1 0xFF AND PUSH1 0x1 DUP2 GT ISZERO PUSH2 0x917 JUMPI PUSH2 0x917 PUSH2 0x4D47 JUMP JUMPDEST PUSH1 0x40 DUP1 MLOAD PUSH1 0x80 DUP2 ADD DUP3 MSTORE DUP3 SLOAD PUSH1 0x1 PUSH1 0x1 PUSH1 0xA0 SHL SUB DUP2 AND DUP3 MSTORE PUSH1 0x1 PUSH1 0xA0 SHL DUP2 DIV PUSH1 0xFF AND PUSH1 0x20 DUP4 ADD MSTORE PUSH1 0x1 PUSH1 0xA8 SHL DUP2 DIV PUSH4 0xFFFFFFFF AND SWAP3 DUP3 ADD SWAP3 SWAP1 SWAP3 MSTORE PUSH1 0x1 PUSH1 0xC8 SHL SWAP1 SWAP2 DIV PUSH2 0xFFFF AND PUSH1 0x60 DUP3 ADD MSTORE PUSH2 0x121E SWAP1 PUSH2 0x288B JUMP JUMPDEST PUSH1 0x40 DUP1 MLOAD PUSH1 0x80 DUP2 ADD DUP3 MSTORE DUP3 SLOAD PUSH1 0x1 PUSH1 0x1 PUSH1 0xA0 SHL SUB DUP2 AND DUP3 MSTORE PUSH1 0x1 PUSH1 0xA0 SHL DUP2 DIV PUSH1 0xFF AND PUSH1 0x20 DUP4 ADD MSTORE PUSH1 0x1 PUSH1 0xA8 SHL DUP2 DIV PUSH4 0xFFFFFFFF AND SWAP3 DUP3 ADD SWAP3 SWAP1 SWAP3 MSTORE PUSH1 0x1 PUSH1 0xC8 SHL SWAP1 SWAP2 DIV PUSH2 0xFFFF AND PUSH1 0x60 DUP3 ADD MSTORE PUSH2 0x1274 SWAP1 TIMESTAMP PUSH2 0x2F4F JUMP JUMPDEST PUSH1 0x40 DUP1 MLOAD PUSH2 0x100 DUP2 ADD SWAP1 SWAP2 MSTORE DUP3 SLOAD PUSH2 0x138E SWAP2 SWAP1 DUP5 SWAP1 DUP3 SWAP1 PUSH1 0xFF AND PUSH1 0x1 DUP2 GT ISZERO PUSH2 0x129F JUMPI PUSH2 0x129F PUSH2 0x4D47 JUMP JUMPDEST PUSH1 0x1 DUP2 GT ISZERO PUSH2 0x12B0 JUMPI PUSH2 0x12B0 PUSH2 0x4D47 JUMP JUMPDEST DUP2 MSTORE SWAP1 SLOAD PUSH1 0x1 PUSH1 0x1 PUSH1 0xA0 SHL SUB PUSH2 0x100 DUP3 DIV DUP2 AND PUSH1 0x20 DUP1 DUP6 ADD SWAP2 SWAP1 SWAP2 MSTORE PUSH1 0xFF PUSH1 0x1 PUSH1 0xA8 SHL DUP1 DUP6 DIV DUP3 AND PUSH1 0x40 DUP1 DUP9 ADD SWAP2 SWAP1 SWAP2 MSTORE PUSH1 0x1 PUSH1 0x1 PUSH1 0xE0 SHL SUB NOT PUSH1 0x1 PUSH1 0xB0 SHL DUP8 DIV PUSH1 0xE0 SWAP1 DUP2 SHL SWAP2 SWAP1 SWAP2 AND PUSH1 0x60 DUP1 DUP11 ADD SWAP2 SWAP1 SWAP2 MSTORE PUSH2 0xFFFF PUSH1 0x1 PUSH1 0xD0 SHL DUP10 DIV DUP2 AND PUSH1 0x80 DUP1 DUP13 ADD SWAP2 SWAP1 SWAP2 MSTORE PUSH1 0x1 PUSH1 0xE0 SHL DUP11 DIV DUP3 AND PUSH1 0xA0 DUP13 ADD MSTORE PUSH1 0x1 PUSH1 0xF0 SHL DUP11 DIV DUP8 AND PUSH1 0xC0 DUP13 ADD MSTORE PUSH1 0x1 PUSH1 0xF8 SHL SWAP1 SWAP10 DIV DUP7 AND ISZERO ISZERO SWAP3 SWAP1 SWAP10 ADD SWAP2 SWAP1 SWAP2 MSTORE DUP2 MLOAD SWAP7 DUP8 ADD DUP3 MSTORE DUP11 SLOAD SWAP6 DUP7 AND DUP8 MSTORE PUSH1 0x1 PUSH1 0xA0 SHL DUP7 DIV SWAP1 SWAP4 AND SWAP4 DUP7 ADD SWAP4 SWAP1 SWAP4 MSTORE PUSH4 0xFFFFFFFF SWAP1 DUP5 DIV AND SWAP2 DUP5 ADD SWAP2 SWAP1 SWAP2 MSTORE PUSH1 0x1 PUSH1 0xC8 SHL SWAP1 SWAP2 DIV SWAP1 SWAP3 AND SWAP2 DUP2 ADD SWAP2 SWAP1 SWAP2 MSTORE PUSH2 0x2FA5 JUMP JUMPDEST PUSH2 0x140C DUP3 DUP3 DUP9 PUSH1 0x60 ADD MLOAD DUP10 PUSH1 0x0 ADD MLOAD DUP2 MLOAD DUP2 LT PUSH2 0x13AD JUMPI PUSH2 0x13AD PUSH2 0x4D5D JUMP JUMPDEST PUSH1 0x20 MUL PUSH1 0x20 ADD ADD MLOAD DUP10 PUSH1 0x40 ADD MLOAD DUP11 PUSH1 0x0 ADD MLOAD DUP2 MLOAD DUP2 LT PUSH2 0x13CF JUMPI PUSH2 0x13CF PUSH2 0x4D5D JUMP JUMPDEST PUSH1 0x20 MUL PUSH1 0x20 ADD ADD MLOAD DUP11 PUSH1 0x80 ADD MLOAD DUP11 DUP2 MLOAD DUP2 LT PUSH2 0x13ED JUMPI PUSH2 0x13ED PUSH2 0x4D5D JUMP JUMPDEST PUSH1 0x20 MUL PUSH1 0x20 ADD ADD MLOAD DUP12 PUSH2 0x100 ADD MLOAD DUP12 DUP2 MLOAD DUP2 LT PUSH2 0xCD1 JUMPI PUSH2 0xCD1 PUSH2 0x4D5D JUMP JUMPDEST DUP6 PUSH2 0x120 ADD MLOAD DUP6 DUP2 MLOAD DUP2 LT PUSH2 0x1423 JUMPI PUSH2 0x1423 PUSH2 0x4D5D JUMP JUMPDEST PUSH1 0x20 MUL PUSH1 0x20 ADD ADD MLOAD PUSH32 0x4630B53A4335803B2A4F9C1CE896F4CADBF909907810E496EDA17614483D7B94 TIMESTAMP PUSH1 0x40 MLOAD PUSH2 0x1466 SWAP2 SWAP1 PUSH4 0xFFFFFFFF SWAP2 SWAP1 SWAP2 AND DUP2 MSTORE PUSH1 0x20 ADD SWAP1 JUMP JUMPDEST PUSH1 0x40 MLOAD DUP1 SWAP2 SUB SWAP1 LOG2 POP POP PUSH1 0x0 SWAP1 DUP2 MSTORE PUSH1 0x8 PUSH1 0x20 MSTORE PUSH1 0x40 SWAP1 KECCAK256 DUP1 SLOAD PUSH1 0x1 PUSH1 0x1 PUSH1 0xD8 SHL SUB NOT AND SWAP1 SSTORE POP DUP1 PUSH2 0x1497 DUP2 PUSH2 0x4D16 JUMP JUMPDEST SWAP2 POP POP PUSH2 0x1065 JUMP JUMPDEST DUP1 MLOAD PUSH1 0x20 DUP3 ADD MLOAD PUSH1 0x0 SWAP2 PUSH2 0x14B2 SWAP2 PUSH2 0x4CD3 JUMP JUMPDEST PUSH1 0x1 PUSH1 0x1 PUSH1 0x40 SHL SUB DUP2 GT ISZERO PUSH2 0x14C9 JUMPI PUSH2 0x14C9 PUSH2 0x4D73 JUMP JUMPDEST PUSH1 0x40 MLOAD SWAP1 DUP1 DUP3 MSTORE DUP1 PUSH1 0x20 MUL PUSH1 0x20 ADD DUP3 ADD PUSH1 0x40 MSTORE DUP1 ISZERO PUSH2 0x14F2 JUMPI DUP2 PUSH1 0x20 ADD PUSH1 0x20 DUP3 MUL DUP1 CALLDATASIZE DUP4 CALLDATACOPY ADD SWAP1 POP JUMPDEST POP DUP3 MLOAD SWAP1 SWAP2 POP JUMPDEST DUP3 PUSH1 0x20 ADD MLOAD DUP2 LT ISZERO PUSH2 0x1823 JUMPI PUSH1 0x0 DUP4 PUSH1 0x60 ADD MLOAD DUP5 PUSH1 0x0 ADD MLOAD DUP2 MLOAD DUP2 LT PUSH2 0x1521 JUMPI PUSH2 0x1521 PUSH2 0x4D5D JUMP JUMPDEST PUSH1 0x20 MUL PUSH1 0x20 ADD ADD MLOAD DUP5 PUSH1 0x80 ADD MLOAD DUP4 DUP2 MLOAD DUP2 LT PUSH2 0x153F JUMPI PUSH2 0x153F PUSH2 0x4D5D JUMP JUMPDEST PUSH1 0x20 MUL PUSH1 0x20 ADD ADD MLOAD DUP6 PUSH2 0x100 ADD MLOAD DUP5 DUP2 MLOAD DUP2 LT PUSH2 0x155E JUMPI PUSH2 0x155E PUSH2 0x4D5D JUMP JUMPDEST PUSH1 0x20 MUL PUSH1 0x20 ADD ADD MLOAD PUSH1 0x40 MLOAD PUSH1 0x20 ADD PUSH2 0x1578 SWAP4 SWAP3 SWAP2 SWAP1 PUSH2 0x48F1 JUMP JUMPDEST PUSH1 0x40 DUP1 MLOAD PUSH1 0x1F NOT DUP2 DUP5 SUB ADD DUP2 MSTORE DUP3 DUP3 MSTORE DUP1 MLOAD PUSH1 0x20 SWAP2 DUP3 ADD KECCAK256 PUSH1 0x0 DUP2 DUP2 MSTORE PUSH1 0x7 SWAP1 SWAP3 MSTORE SWAP1 DUP3 SWAP1 KECCAK256 PUSH2 0x100 DUP5 ADD SWAP1 SWAP3 MSTORE DUP2 SLOAD SWAP1 SWAP4 POP SWAP1 SWAP2 PUSH2 0x15C9 SWAP2 DUP4 SWAP1 DUP3 SWAP1 PUSH1 0xFF AND PUSH1 0x1 DUP2 GT ISZERO PUSH2 0x917 JUMPI PUSH2 0x917 PUSH2 0x4D47 JUMP JUMPDEST PUSH1 0x40 DUP1 MLOAD PUSH2 0x100 DUP2 ADD SWAP1 SWAP2 MSTORE DUP2 SLOAD PUSH2 0x1689 SWAP2 SWAP1 DUP4 SWAP1 DUP3 SWAP1 PUSH1 0xFF AND PUSH1 0x1 DUP2 GT ISZERO PUSH2 0x15F4 JUMPI PUSH2 0x15F4 PUSH2 0x4D47 JUMP JUMPDEST PUSH1 0x1 DUP2 GT ISZERO PUSH2 0x1605 JUMPI PUSH2 0x1605 PUSH2 0x4D47 JUMP JUMPDEST DUP2 MSTORE SWAP1 SLOAD PUSH2 0x100 DUP2 DIV PUSH1 0x1 PUSH1 0x1 PUSH1 0xA0 SHL SUB AND PUSH1 0x20 DUP4 ADD MSTORE PUSH1 0x1 PUSH1 0xA8 SHL DUP2 DIV PUSH1 0xFF SWAP1 DUP2 AND PUSH1 0x40 DUP5 ADD MSTORE PUSH1 0x1 PUSH1 0xB0 SHL DUP3 DIV PUSH1 0xE0 SWAP1 DUP2 SHL PUSH1 0x1 PUSH1 0x1 PUSH1 0xE0 SHL SUB NOT AND PUSH1 0x60 DUP6 ADD MSTORE PUSH1 0x1 PUSH1 0xD0 SHL DUP4 DIV PUSH2 0xFFFF SWAP1 DUP2 AND PUSH1 0x80 DUP7 ADD MSTORE PUSH1 0x1 PUSH1 0xE0 SHL DUP5 DIV AND PUSH1 0xA0 DUP6 ADD MSTORE PUSH1 0x1 PUSH1 0xF0 SHL DUP4 DIV DUP3 AND PUSH1 0xC0 DUP6 ADD MSTORE PUSH1 0x1 PUSH1 0xF8 SHL SWAP1 SWAP3 DIV AND ISZERO ISZERO SWAP2 ADD MSTORE CALLER PUSH2 0x3136 JUMP JUMPDEST DUP1 SLOAD PUSH1 0xFF AND PUSH1 0x1 DUP2 GT ISZERO PUSH2 0x169F JUMPI PUSH2 0x169F PUSH2 0x4D47 JUMP JUMPDEST DUP6 PUSH1 0x40 ADD MLOAD DUP5 DUP2 MLOAD DUP2 LT PUSH2 0x16B5 JUMPI PUSH2 0x16B5 PUSH2 0x4D5D JUMP JUMPDEST PUSH1 0x20 MUL PUSH1 0x20 ADD ADD MLOAD PUSH1 0x1 DUP2 GT ISZERO PUSH2 0x16CE JUMPI PUSH2 0x16CE PUSH2 0x4D47 JUMP JUMPDEST EQ PUSH2 0x16EB JUMPI PUSH1 0x40 MLOAD PUSH3 0x461BCD PUSH1 0xE5 SHL DUP2 MSTORE PUSH1 0x4 ADD PUSH2 0x429 SWAP1 PUSH2 0x49FD JUMP JUMPDEST DUP1 SLOAD PUSH1 0x1 PUSH1 0xD0 SHL DUP2 DIV PUSH2 0xFFFF SWAP1 DUP2 AND PUSH1 0x1 PUSH1 0xE0 SHL SWAP1 SWAP3 DIV AND EQ PUSH2 0x1749 JUMPI PUSH1 0x40 MLOAD PUSH3 0x461BCD PUSH1 0xE5 SHL DUP2 MSTORE PUSH1 0x20 PUSH1 0x4 DUP3 ADD MSTORE PUSH1 0x16 PUSH1 0x24 DUP3 ADD MSTORE PUSH22 0x14995391950E8E9858DD1A5D995B1E481C995B9D1959 PUSH1 0x52 SHL PUSH1 0x44 DUP3 ADD MSTORE PUSH1 0x64 ADD PUSH2 0x429 JUMP JUMPDEST DUP1 SLOAD DUP6 MLOAD PUSH1 0x1 PUSH1 0xD0 SHL SWAP1 SWAP2 DIV PUSH2 0xFFFF AND SWAP1 DUP6 SWAP1 PUSH2 0x1766 SWAP1 DUP7 PUSH2 0x4CD3 JUMP JUMPDEST DUP2 MLOAD DUP2 LT PUSH2 0x1776 JUMPI PUSH2 0x1776 PUSH2 0x4D5D JUMP JUMPDEST PUSH1 0x20 MUL PUSH1 0x20 ADD ADD DUP2 DUP2 MSTORE POP POP DUP5 PUSH2 0x100 ADD MLOAD DUP4 DUP2 MLOAD DUP2 LT PUSH2 0x1799 JUMPI PUSH2 0x1799 PUSH2 0x4D5D JUMP JUMPDEST PUSH1 0x20 MUL PUSH1 0x20 ADD ADD MLOAD PUSH32 0xFC33A7C95EE492CB6247BD90B28BBE1F459D8F80F3DC65F934CD020CF1E83EFB TIMESTAMP DUP4 PUSH1 0x0 ADD PUSH1 0x1A SWAP1 SLOAD SWAP1 PUSH2 0x100 EXP SWAP1 DIV PUSH2 0xFFFF AND PUSH1 0x40 MLOAD PUSH2 0x17F9 SWAP3 SWAP2 SWAP1 PUSH4 0xFFFFFFFF SWAP3 SWAP1 SWAP3 AND DUP3 MSTORE PUSH2 0xFFFF AND PUSH1 0x20 DUP3 ADD MSTORE PUSH1 0x40 ADD SWAP1 JUMP JUMPDEST PUSH1 0x40 MLOAD DUP1 SWAP2 SUB SWAP1 LOG2 POP PUSH1 0x0 SWAP1 DUP2 MSTORE PUSH1 0x7 PUSH1 0x20 MSTORE PUSH1 0x40 DUP2 KECCAK256 SSTORE DUP1 PUSH2 0x181B DUP2 PUSH2 0x4D16 JUMP JUMPDEST SWAP2 POP POP PUSH2 0x14F9 JUMP JUMPDEST POP PUSH2 0xD72 DUP3 ADDRESS CALLER PUSH2 0x1843 DUP7 PUSH1 0x80 ADD MLOAD DUP8 PUSH1 0x0 ADD MLOAD DUP9 PUSH1 0x20 ADD MLOAD PUSH1 0x0 PUSH2 0x318F JUMP JUMPDEST DUP7 MLOAD PUSH1 0x20 DUP9 ADD MLOAD PUSH2 0x1856 SWAP2 DUP9 SWAP2 DUP2 PUSH2 0x318F JUMP JUMPDEST PUSH2 0x324E JUMP JUMPDEST DUP1 MLOAD JUMPDEST DUP2 PUSH1 0x20 ADD MLOAD DUP2 LT ISZERO PUSH2 0xD72 JUMPI PUSH1 0x0 DUP3 PUSH1 0x60 ADD MLOAD DUP4 PUSH1 0x0 ADD MLOAD DUP2 MLOAD DUP2 LT PUSH2 0x1886 JUMPI PUSH2 0x1886 PUSH2 0x4D5D JUMP JUMPDEST PUSH1 0x20 MUL PUSH1 0x20 ADD ADD MLOAD DUP4 PUSH1 0x80 ADD MLOAD DUP4 DUP2 MLOAD DUP2 LT PUSH2 0x18A4 JUMPI PUSH2 0x18A4 PUSH2 0x4D5D JUMP JUMPDEST PUSH1 0x20 MUL PUSH1 0x20 ADD ADD MLOAD DUP5 PUSH2 0x100 ADD MLOAD DUP5 DUP2 MLOAD DUP2 LT PUSH2 0x18C3 JUMPI PUSH2 0x18C3 PUSH2 0x4D5D JUMP JUMPDEST PUSH1 0x20 MUL PUSH1 0x20 ADD ADD MLOAD PUSH1 0x40 MLOAD PUSH1 0x20 ADD PUSH2 0x18DD SWAP4 SWAP3 SWAP2 SWAP1 PUSH2 0x48F1 JUMP JUMPDEST PUSH1 0x40 MLOAD PUSH1 0x20 DUP2 DUP4 SUB SUB DUP2 MSTORE SWAP1 PUSH1 0x40 MSTORE DUP1 MLOAD SWAP1 PUSH1 0x20 ADD KECCAK256 SWAP1 POP PUSH1 0x0 DUP4 PUSH1 0x60 ADD MLOAD DUP5 PUSH1 0x0 ADD MLOAD DUP2 MLOAD DUP2 LT PUSH2 0x1911 JUMPI PUSH2 0x1911 PUSH2 0x4D5D JUMP JUMPDEST PUSH1 0x20 MUL PUSH1 0x20 ADD ADD MLOAD DUP5 PUSH1 0x80 ADD MLOAD DUP5 DUP2 MLOAD DUP2 LT PUSH2 0x192F JUMPI PUSH2 0x192F PUSH2 0x4D5D JUMP JUMPDEST PUSH1 0x20 MUL PUSH1 0x20 ADD ADD MLOAD PUSH1 0x4 SLOAD PUSH1 0x40 MLOAD PUSH1 0x20 ADD PUSH2 0x194C SWAP4 SWAP3 SWAP2 SWAP1 PUSH2 0x48F1 JUMP JUMPDEST PUSH1 0x40 DUP1 MLOAD PUSH1 0x1F NOT DUP2 DUP5 SUB ADD DUP2 MSTORE DUP3 DUP3 MSTORE DUP1 MLOAD PUSH1 0x20 SWAP2 DUP3 ADD KECCAK256 PUSH1 0x0 DUP7 DUP2 MSTORE PUSH1 0x7 DUP4 MSTORE DUP4 DUP2 KECCAK256 DUP3 DUP3 MSTORE PUSH1 0x8 SWAP1 SWAP4 MSTORE DUP4 SWAP1 KECCAK256 PUSH2 0x100 DUP6 ADD SWAP1 SWAP4 MSTORE DUP2 SLOAD SWAP1 SWAP5 POP SWAP1 SWAP3 PUSH2 0x19A6 SWAP2 DUP5 SWAP1 DUP3 SWAP1 PUSH1 0xFF AND PUSH1 0x1 DUP2 GT ISZERO PUSH2 0x917 JUMPI PUSH2 0x917 PUSH2 0x4D47 JUMP JUMPDEST PUSH1 0x40 DUP1 MLOAD PUSH1 0x80 DUP2 ADD DUP3 MSTORE DUP3 SLOAD PUSH1 0x1 PUSH1 0x1 PUSH1 0xA0 SHL SUB DUP2 AND DUP3 MSTORE PUSH1 0x1 PUSH1 0xA0 SHL DUP2 DIV PUSH1 0xFF AND PUSH1 0x20 DUP4 ADD MSTORE PUSH1 0x1 PUSH1 0xA8 SHL DUP2 DIV PUSH4 0xFFFFFFFF AND SWAP3 DUP3 ADD SWAP3 SWAP1 SWAP3 MSTORE PUSH1 0x1 PUSH1 0xC8 SHL SWAP1 SWAP2 DIV PUSH2 0xFFFF AND PUSH1 0x60 DUP3 ADD MSTORE PUSH2 0x19FB SWAP1 PUSH2 0x33C4 JUMP JUMPDEST PUSH1 0x40 DUP1 MLOAD PUSH2 0x100 DUP2 ADD SWAP1 SWAP2 MSTORE DUP3 SLOAD PUSH2 0x1ABD SWAP2 SWAP1 DUP5 SWAP1 DUP3 SWAP1 PUSH1 0xFF AND PUSH1 0x1 DUP2 GT ISZERO PUSH2 0x1A26 JUMPI PUSH2 0x1A26 PUSH2 0x4D47 JUMP JUMPDEST PUSH1 0x1 DUP2 GT ISZERO PUSH2 0x1A37 JUMPI PUSH2 0x1A37 PUSH2 0x4D47 JUMP JUMPDEST DUP2 MSTORE SWAP1 SLOAD PUSH2 0x100 DUP2 DIV PUSH1 0x1 PUSH1 0x1 PUSH1 0xA0 SHL SUB AND PUSH1 0x20 DUP4 ADD MSTORE PUSH1 0x1 PUSH1 0xA8 SHL DUP2 DIV PUSH1 0xFF SWAP1 DUP2 AND PUSH1 0x40 DUP5 ADD MSTORE PUSH1 0x1 PUSH1 0xB0 SHL DUP3 DIV PUSH1 0xE0 SWAP1 DUP2 SHL PUSH1 0x1 PUSH1 0x1 PUSH1 0xE0 SHL SUB NOT AND PUSH1 0x60 DUP6 ADD MSTORE PUSH1 0x1 PUSH1 0xD0 SHL DUP4 DIV PUSH2 0xFFFF SWAP1 DUP2 AND PUSH1 0x80 DUP7 ADD MSTORE PUSH1 0x1 PUSH1 0xE0 SHL DUP5 DIV AND PUSH1 0xA0 DUP6 ADD MSTORE PUSH1 0x1 PUSH1 0xF0 SHL DUP4 DIV DUP3 AND PUSH1 0xC0 DUP6 ADD MSTORE PUSH1 0x1 PUSH1 0xF8 SHL SWAP1 SWAP3 DIV AND ISZERO ISZERO SWAP2 ADD MSTORE DUP8 DUP8 CALLER PUSH2 0x3477 JUMP JUMPDEST DUP2 SLOAD PUSH1 0xFF AND PUSH1 0x1 DUP2 GT ISZERO PUSH2 0x1AD3 JUMPI PUSH2 0x1AD3 PUSH2 0x4D47 JUMP JUMPDEST DUP7 PUSH1 0x40 ADD MLOAD DUP7 DUP2 MLOAD DUP2 LT PUSH2 0x1AE9 JUMPI PUSH2 0x1AE9 PUSH2 0x4D5D JUMP JUMPDEST PUSH1 0x20 MUL PUSH1 0x20 ADD ADD MLOAD PUSH1 0x1 DUP2 GT ISZERO PUSH2 0x1B02 JUMPI PUSH2 0x1B02 PUSH2 0x4D47 JUMP JUMPDEST EQ PUSH2 0x1B1F JUMPI PUSH1 0x40 MLOAD PUSH3 0x461BCD PUSH1 0xE5 SHL DUP2 MSTORE PUSH1 0x4 ADD PUSH2 0x429 SWAP1 PUSH2 0x49FD JUMP JUMPDEST DUP2 SLOAD PUSH2 0x160 DUP8 ADD MLOAD DUP1 MLOAD PUSH1 0x1 PUSH1 0xE0 SHL SWAP1 SWAP3 DIV PUSH2 0xFFFF AND SWAP2 DUP8 SWAP1 DUP2 LT PUSH2 0x1B46 JUMPI PUSH2 0x1B46 PUSH2 0x4D5D JUMP JUMPDEST PUSH1 0x20 MUL PUSH1 0x20 ADD ADD MLOAD GT ISZERO PUSH2 0x1B9C JUMPI PUSH1 0x40 MLOAD PUSH3 0x461BCD PUSH1 0xE5 SHL DUP2 MSTORE PUSH1 0x20 PUSH1 0x4 DUP3 ADD MSTORE PUSH1 0x1A PUSH1 0x24 DUP3 ADD MSTORE PUSH32 0x52654E46543A3A696E76616C69642072656E7420616D6F756E74000000000000 PUSH1 0x44 DUP3 ADD MSTORE PUSH1 0x64 ADD PUSH2 0x429 JUMP JUMPDEST DUP2 SLOAD PUSH1 0x0 DUP1 SLOAD PUSH1 0x40 MLOAD PUSH4 0xC6EE427F PUSH1 0xE0 SHL DUP2 MSTORE PUSH1 0x1 PUSH1 0xF0 SHL SWAP1 SWAP4 DIV PUSH1 0xFF AND PUSH1 0x4 DUP5 ADD DUP2 SWAP1 MSTORE SWAP3 PUSH1 0x1 PUSH1 0x1 PUSH1 0xA0 SHL SUB SWAP1 SWAP2 AND SWAP1 PUSH4 0xC6EE427F SWAP1 PUSH1 0x24 ADD PUSH1 0x20 PUSH1 0x40 MLOAD DUP1 DUP4 SUB DUP2 DUP7 DUP1 EXTCODESIZE ISZERO DUP1 ISZERO PUSH2 0x1BEF JUMPI PUSH1 0x0 DUP1 REVERT JUMPDEST POP GAS STATICCALL ISZERO DUP1 ISZERO PUSH2 0x1C03 JUMPI RETURNDATASIZE PUSH1 0x0 DUP1 RETURNDATACOPY RETURNDATASIZE PUSH1 0x0 REVERT JUMPDEST POP POP POP POP PUSH1 0x40 MLOAD RETURNDATASIZE PUSH1 0x1F NOT PUSH1 0x1F DUP3 ADD AND DUP3 ADD DUP1 PUSH1 0x40 MSTORE POP DUP2 ADD SWAP1 PUSH2 0x1C27 SWAP2 SWAP1 PUSH2 0x42A5 JUMP JUMPDEST SWAP1 POP PUSH1 0x0 DUP2 PUSH1 0x1 PUSH1 0x1 PUSH1 0xA0 SHL SUB AND PUSH4 0x313CE567 PUSH1 0x40 MLOAD DUP2 PUSH4 0xFFFFFFFF AND PUSH1 0xE0 SHL DUP2 MSTORE PUSH1 0x4 ADD PUSH1 0x20 PUSH1 0x40 MLOAD DUP1 DUP4 SUB DUP2 DUP7 DUP1 EXTCODESIZE ISZERO DUP1 ISZERO PUSH2 0x1C64 JUMPI PUSH1 0x0 DUP1 REVERT JUMPDEST POP GAS STATICCALL ISZERO DUP1 ISZERO PUSH2 0x1C78 JUMPI RETURNDATASIZE PUSH1 0x0 DUP1 RETURNDATACOPY RETURNDATASIZE PUSH1 0x0 REVERT JUMPDEST POP POP POP POP PUSH1 0x40 MLOAD RETURNDATASIZE PUSH1 0x1F NOT PUSH1 0x1F DUP3 ADD AND DUP3 ADD DUP1 PUSH1 0x40 MSTORE POP DUP2 ADD SWAP1 PUSH2 0x1C9C SWAP2 SWAP1 PUSH2 0x4899 JUMP JUMPDEST PUSH1 0xFF AND SWAP1 POP PUSH1 0x0 PUSH2 0x1CAE DUP3 PUSH1 0xA PUSH2 0x4BE9 JUMP JUMPDEST DUP7 SLOAD SWAP1 SWAP2 POP PUSH1 0x0 SWAP1 PUSH2 0x1CCA SWAP1 PUSH1 0x1 PUSH1 0xB0 SHL SWAP1 DIV PUSH1 0xE0 SHL DUP4 PUSH2 0x36E2 JUMP JUMPDEST DUP12 PUSH2 0x140 ADD MLOAD DUP12 DUP2 MLOAD DUP2 LT PUSH2 0x1CE1 JUMPI PUSH2 0x1CE1 PUSH2 0x4D5D JUMP JUMPDEST PUSH1 0x20 MUL PUSH1 0x20 ADD ADD MLOAD PUSH1 0xFF AND DUP13 PUSH2 0x160 ADD MLOAD DUP13 DUP2 MLOAD DUP2 LT PUSH2 0x1D03 JUMPI PUSH2 0x1D03 PUSH2 0x4D5D JUMP JUMPDEST PUSH1 0x20 MUL PUSH1 0x20 ADD ADD MLOAD PUSH2 0x1D15 SWAP2 SWAP1 PUSH2 0x4C91 JUMP JUMPDEST PUSH2 0x1D1F SWAP2 SWAP1 PUSH2 0x4C91 JUMP JUMPDEST SWAP1 POP PUSH1 0x0 DUP2 GT PUSH2 0x1D41 JUMPI PUSH1 0x40 MLOAD PUSH3 0x461BCD PUSH1 0xE5 SHL DUP2 MSTORE PUSH1 0x4 ADD PUSH2 0x429 SWAP1 PUSH2 0x4A6B JUMP JUMPDEST PUSH2 0x1D56 PUSH1 0x1 PUSH1 0x1 PUSH1 0xA0 SHL SUB DUP6 AND CALLER ADDRESS DUP5 PUSH2 0x3771 JUMP JUMPDEST POP POP PUSH1 0x40 MLOAD DUP1 PUSH1 0x80 ADD PUSH1 0x40 MSTORE DUP1 CALLER PUSH1 0x1 PUSH1 0x1 PUSH1 0xA0 SHL SUB AND DUP2 MSTORE PUSH1 0x20 ADD DUP11 PUSH2 0x140 ADD MLOAD DUP11 DUP2 MLOAD DUP2 LT PUSH2 0x1D89 JUMPI PUSH2 0x1D89 PUSH2 0x4D5D JUMP JUMPDEST PUSH1 0x20 MUL PUSH1 0x20 ADD ADD MLOAD PUSH1 0xFF AND DUP2 MSTORE PUSH1 0x20 ADD TIMESTAMP PUSH4 0xFFFFFFFF AND DUP2 MSTORE PUSH1 0x20 ADD DUP11 PUSH2 0x160 ADD MLOAD DUP11 DUP2 MLOAD DUP2 LT PUSH2 0x1DBC JUMPI PUSH2 0x1DBC PUSH2 0x4D5D JUMP JUMPDEST PUSH1 0x20 SWAP1 DUP2 MUL SWAP2 SWAP1 SWAP2 ADD DUP2 ADD MLOAD PUSH2 0xFFFF SWAP1 DUP2 AND SWAP1 SWAP3 MSTORE PUSH1 0x0 DUP10 DUP2 MSTORE PUSH1 0x8 DUP3 MSTORE PUSH1 0x40 SWAP1 DUP2 SWAP1 KECCAK256 DUP5 MLOAD DUP2 SLOAD SWAP4 DUP7 ADD MLOAD SWAP3 DUP7 ADD MLOAD PUSH1 0x60 SWAP1 SWAP7 ADD MLOAD SWAP1 SWAP5 AND PUSH1 0x1 PUSH1 0xC8 SHL MUL PUSH2 0xFFFF PUSH1 0xC8 SHL NOT PUSH4 0xFFFFFFFF SWAP1 SWAP7 AND PUSH1 0x1 PUSH1 0xA8 SHL MUL SWAP6 SWAP1 SWAP6 AND PUSH6 0xFFFFFFFFFFFF PUSH1 0xA8 SHL NOT PUSH1 0xFF SWAP1 SWAP4 AND PUSH1 0x1 PUSH1 0xA0 SHL MUL PUSH1 0x1 PUSH1 0x1 PUSH1 0xA8 SHL SUB NOT SWAP1 SWAP5 AND PUSH1 0x1 PUSH1 0x1 PUSH1 0xA0 SHL SUB SWAP1 SWAP6 AND SWAP5 SWAP1 SWAP5 OR SWAP3 SWAP1 SWAP3 OR AND SWAP2 SWAP1 SWAP2 OR SWAP2 SWAP1 SWAP2 OR SWAP1 SSTORE PUSH2 0x160 DUP10 ADD MLOAD DUP1 MLOAD DUP10 SWAP1 DUP2 LT PUSH2 0x1E6C JUMPI PUSH2 0x1E6C PUSH2 0x4D5D JUMP JUMPDEST PUSH1 0x20 SWAP1 DUP2 MUL SWAP2 SWAP1 SWAP2 ADD DUP2 ADD MLOAD PUSH1 0x0 DUP10 DUP2 MSTORE PUSH1 0x7 SWAP1 SWAP3 MSTORE PUSH1 0x40 SWAP1 SWAP2 KECCAK256 DUP1 SLOAD PUSH1 0x1C SWAP1 PUSH2 0x1EA2 SWAP1 DUP5 SWAP1 PUSH1 0x1 PUSH1 0xE0 SHL SWAP1 DIV PUSH2 0xFFFF AND PUSH2 0x4CB0 JUMP JUMPDEST SWAP3 POP PUSH2 0x100 EXP DUP2 SLOAD DUP2 PUSH2 0xFFFF MUL NOT AND SWAP1 DUP4 PUSH2 0xFFFF AND MUL OR SWAP1 SSTORE POP PUSH1 0x4 SLOAD DUP10 PUSH2 0x100 ADD MLOAD DUP10 DUP2 MLOAD DUP2 LT PUSH2 0x1ED6 JUMPI PUSH2 0x1ED6 PUSH2 0x4D5D JUMP JUMPDEST PUSH1 0x20 MUL PUSH1 0x20 ADD ADD MLOAD CALLER PUSH1 0x1 PUSH1 0x1 PUSH1 0xA0 SHL SUB AND PUSH32 0x61E1A1E6F89EABA4BA0119B0023BD32B1BB0412AB96CCD8D0588A3E98A097631 DUP13 PUSH2 0x160 ADD MLOAD DUP13 DUP2 MLOAD DUP2 LT PUSH2 0x1F20 JUMPI PUSH2 0x1F20 PUSH2 0x4D5D JUMP JUMPDEST PUSH1 0x20 MUL PUSH1 0x20 ADD ADD MLOAD DUP14 PUSH2 0x140 ADD MLOAD DUP14 DUP2 MLOAD DUP2 LT PUSH2 0x1F3F JUMPI PUSH2 0x1F3F PUSH2 0x4D5D JUMP JUMPDEST PUSH1 0x20 SWAP1 DUP2 MUL SWAP2 SWAP1 SWAP2 ADD DUP2 ADD MLOAD DUP11 SLOAD PUSH1 0x40 DUP1 MLOAD PUSH2 0xFFFF SWAP1 SWAP6 AND DUP6 MSTORE PUSH1 0xFF SWAP1 SWAP3 AND SWAP3 DUP5 ADD SWAP3 SWAP1 SWAP3 MSTORE PUSH1 0x1 PUSH1 0xA8 SHL SWAP1 SWAP2 DIV PUSH4 0xFFFFFFFF AND SWAP1 DUP3 ADD MSTORE PUSH1 0x60 ADD PUSH1 0x40 MLOAD DUP1 SWAP2 SUB SWAP1 LOG4 PUSH1 0x4 DUP1 SLOAD SWAP1 PUSH1 0x0 PUSH2 0x1F92 DUP4 PUSH2 0x4D16 JUMP JUMPDEST SWAP2 SWAP1 POP SSTORE POP POP POP POP POP POP POP POP DUP1 DUP1 PUSH2 0x1FA9 SWAP1 PUSH2 0x4D16 JUMP JUMPDEST SWAP2 POP POP PUSH2 0x185E JUMP JUMPDEST PUSH2 0x1FB9 PUSH2 0x3F1B JUMP JUMPDEST PUSH1 0x40 MLOAD DUP1 PUSH2 0x1C0 ADD PUSH1 0x40 MSTORE DUP1 PUSH1 0x0 DUP2 MSTORE PUSH1 0x20 ADD PUSH1 0x1 DUP2 MSTORE PUSH1 0x20 ADD DUP9 DUP2 MSTORE PUSH1 0x20 ADD DUP8 DUP2 MSTORE PUSH1 0x20 ADD DUP7 DUP2 MSTORE PUSH1 0x20 ADD PUSH1 0x0 PUSH1 0x1 PUSH1 0x1 PUSH1 0x40 SHL SUB DUP2 GT ISZERO PUSH2 0x1FFE JUMPI PUSH2 0x1FFE PUSH2 0x4D73 JUMP JUMPDEST PUSH1 0x40 MLOAD SWAP1 DUP1 DUP3 MSTORE DUP1 PUSH1 0x20 MUL PUSH1 0x20 ADD DUP3 ADD PUSH1 0x40 MSTORE DUP1 ISZERO PUSH2 0x2027 JUMPI DUP2 PUSH1 0x20 ADD PUSH1 0x20 DUP3 MUL DUP1 CALLDATASIZE DUP4 CALLDATACOPY ADD SWAP1 POP JUMPDEST POP DUP2 MSTORE PUSH1 0x20 ADD PUSH1 0x0 PUSH1 0x40 MLOAD SWAP1 DUP1 DUP3 MSTORE DUP1 PUSH1 0x20 MUL PUSH1 0x20 ADD DUP3 ADD PUSH1 0x40 MSTORE DUP1 ISZERO PUSH2 0x2058 JUMPI DUP2 PUSH1 0x20 ADD PUSH1 0x20 DUP3 MUL DUP1 CALLDATASIZE DUP4 CALLDATACOPY ADD SWAP1 POP JUMPDEST POP DUP2 MSTORE PUSH1 0x20 ADD PUSH1 0x0 PUSH1 0x40 MLOAD SWAP1 DUP1 DUP3 MSTORE DUP1 PUSH1 0x20 MUL PUSH1 0x20 ADD DUP3 ADD PUSH1 0x40 MSTORE DUP1 ISZERO PUSH2 0x2089 JUMPI DUP2 PUSH1 0x20 ADD PUSH1 0x20 DUP3 MUL DUP1 CALLDATASIZE DUP4 CALLDATACOPY ADD SWAP1 POP JUMPDEST POP DUP2 MSTORE PUSH1 0x20 DUP1 DUP3 ADD SWAP7 SWAP1 SWAP7 MSTORE PUSH1 0x40 DUP1 MLOAD PUSH1 0x0 DUP1 DUP3 MSTORE DUP2 DUP10 ADD DUP4 MSTORE DUP3 DUP5 ADD SWAP2 SWAP1 SWAP2 MSTORE PUSH1 0x60 DUP4 ADD SWAP7 SWAP1 SWAP7 MSTORE PUSH1 0x80 DUP3 ADD SWAP5 SWAP1 SWAP5 MSTORE DUP4 MLOAD DUP6 DUP2 MSTORE DUP1 DUP8 ADD DUP6 MSTORE PUSH1 0xA0 DUP3 ADD MSTORE DUP4 MLOAD SWAP5 DUP6 MSTORE SWAP5 DUP5 ADD SWAP1 SWAP3 MSTORE POP PUSH1 0xC0 SWAP1 SWAP3 ADD MSTORE SWAP4 SWAP3 POP POP POP JUMP JUMPDEST DUP1 MLOAD JUMPDEST DUP2 PUSH1 0x20 ADD MLOAD DUP2 LT ISZERO PUSH2 0x2693 JUMPI PUSH2 0x20FB DUP3 DUP3 PUSH2 0x37DC JUMP JUMPDEST PUSH1 0x0 DUP3 PUSH1 0x60 ADD MLOAD DUP4 PUSH1 0x0 ADD MLOAD DUP2 MLOAD DUP2 LT PUSH2 0x2117 JUMPI PUSH2 0x2117 PUSH2 0x4D5D JUMP JUMPDEST PUSH1 0x20 MUL PUSH1 0x20 ADD ADD MLOAD DUP4 PUSH1 0x80 ADD MLOAD DUP4 DUP2 MLOAD DUP2 LT PUSH2 0x2135 JUMPI PUSH2 0x2135 PUSH2 0x4D5D JUMP JUMPDEST PUSH1 0x20 MUL PUSH1 0x20 ADD ADD MLOAD PUSH1 0x3 SLOAD PUSH1 0x40 MLOAD PUSH1 0x20 ADD PUSH2 0x2152 SWAP4 SWAP3 SWAP2 SWAP1 PUSH2 0x48F1 JUMP JUMPDEST PUSH1 0x40 DUP1 MLOAD PUSH1 0x1F NOT DUP2 DUP5 SUB ADD DUP2 MSTORE DUP3 DUP3 MSTORE DUP1 MLOAD PUSH1 0x20 SWAP2 DUP3 ADD KECCAK256 PUSH1 0x0 DUP2 DUP2 MSTORE PUSH1 0x7 SWAP1 SWAP3 MSTORE SWAP1 DUP3 SWAP1 KECCAK256 PUSH2 0x100 DUP5 ADD SWAP1 SWAP3 MSTORE DUP2 SLOAD SWAP1 SWAP4 POP SWAP1 SWAP2 PUSH2 0x2237 SWAP2 DUP4 SWAP1 DUP3 SWAP1 PUSH1 0xFF AND PUSH1 0x1 DUP2 GT ISZERO PUSH2 0x21A3 JUMPI PUSH2 0x21A3 PUSH2 0x4D47 JUMP JUMPDEST PUSH1 0x1 DUP2 GT ISZERO PUSH2 0x21B4 JUMPI PUSH2 0x21B4 PUSH2 0x4D47 JUMP JUMPDEST DUP2 MSTORE SWAP1 SLOAD PUSH2 0x100 DUP2 DIV PUSH1 0x1 PUSH1 0x1 PUSH1 0xA0 SHL SUB AND PUSH1 0x20 DUP4 ADD MSTORE PUSH1 0x1 PUSH1 0xA8 SHL DUP2 DIV PUSH1 0xFF SWAP1 DUP2 AND PUSH1 0x40 DUP5 ADD MSTORE PUSH1 0x1 PUSH1 0xB0 SHL DUP3 DIV PUSH1 0xE0 SWAP1 DUP2 SHL PUSH1 0x1 PUSH1 0x1 PUSH1 0xE0 SHL SUB NOT AND PUSH1 0x60 DUP6 ADD MSTORE PUSH1 0x1 PUSH1 0xD0 SHL DUP4 DIV PUSH2 0xFFFF SWAP1 DUP2 AND PUSH1 0x80 DUP7 ADD MSTORE PUSH1 0x1 PUSH1 0xE0 SHL DUP5 DIV AND PUSH1 0xA0 DUP6 ADD MSTORE PUSH1 0x1 PUSH1 0xF0 SHL DUP4 DIV DUP3 AND PUSH1 0xC0 DUP6 ADD MSTORE PUSH1 0x1 PUSH1 0xF8 SHL SWAP1 SWAP3 DIV AND ISZERO ISZERO SWAP2 ADD MSTORE PUSH2 0x399A JUMP JUMPDEST PUSH2 0x225E DUP5 PUSH2 0x180 ADD MLOAD DUP5 DUP2 MLOAD DUP2 LT PUSH2 0x2251 JUMPI PUSH2 0x2251 PUSH2 0x4D5D JUMP JUMPDEST PUSH1 0x20 MUL PUSH1 0x20 ADD ADD MLOAD PUSH2 0x3A53 JUMP JUMPDEST PUSH1 0x0 DUP1 DUP6 PUSH1 0x40 ADD MLOAD DUP6 DUP2 MLOAD DUP2 LT PUSH2 0x2277 JUMPI PUSH2 0x2277 PUSH2 0x4D5D JUMP JUMPDEST PUSH1 0x20 MUL PUSH1 0x20 ADD ADD MLOAD PUSH1 0x1 DUP2 GT ISZERO PUSH2 0x2290 JUMPI PUSH2 0x2290 PUSH2 0x4D47 JUMP JUMPDEST EQ SWAP1 POP PUSH1 0x0 DUP6 PUSH1 0xA0 ADD MLOAD DUP6 DUP2 MLOAD DUP2 LT PUSH2 0x22AB JUMPI PUSH2 0x22AB PUSH2 0x4D5D JUMP JUMPDEST PUSH1 0x20 MUL PUSH1 0x20 ADD ADD MLOAD SWAP1 POP DUP2 ISZERO PUSH2 0x231E JUMPI DUP1 PUSH2 0xFFFF AND PUSH1 0x1 EQ PUSH2 0x231E JUMPI PUSH1 0x40 MLOAD PUSH3 0x461BCD PUSH1 0xE5 SHL DUP2 MSTORE PUSH1 0x20 PUSH1 0x4 DUP3 ADD MSTORE PUSH1 0x26 PUSH1 0x24 DUP3 ADD MSTORE PUSH32 0x52654E46543A3A6C656E64416D6F756E742073686F756C642062652065717561 PUSH1 0x44 DUP3 ADD MSTORE PUSH6 0x6C20746F2031 PUSH1 0xD0 SHL PUSH1 0x64 DUP3 ADD MSTORE PUSH1 0x84 ADD PUSH2 0x429 JUMP JUMPDEST PUSH1 0x40 MLOAD DUP1 PUSH2 0x100 ADD PUSH1 0x40 MSTORE DUP1 DUP8 PUSH1 0x40 ADD MLOAD DUP8 DUP2 MLOAD DUP2 LT PUSH2 0x2340 JUMPI PUSH2 0x2340 PUSH2 0x4D5D JUMP JUMPDEST PUSH1 0x20 MUL PUSH1 0x20 ADD ADD MLOAD PUSH1 0x1 DUP2 GT ISZERO PUSH2 0x2359 JUMPI PUSH2 0x2359 PUSH2 0x4D47 JUMP JUMPDEST DUP2 MSTORE PUSH1 0x20 ADD CALLER PUSH1 0x1 PUSH1 0x1 PUSH1 0xA0 SHL SUB AND DUP2 MSTORE PUSH1 0x20 ADD DUP8 PUSH1 0xC0 ADD MLOAD DUP8 DUP2 MLOAD DUP2 LT PUSH2 0x2383 JUMPI PUSH2 0x2383 PUSH2 0x4D5D JUMP JUMPDEST PUSH1 0x20 MUL PUSH1 0x20 ADD ADD MLOAD PUSH1 0xFF AND DUP2 MSTORE PUSH1 0x20 ADD DUP8 PUSH1 0xE0 ADD MLOAD DUP8 DUP2 MLOAD DUP2 LT PUSH2 0x23A9 JUMPI PUSH2 0x23A9 PUSH2 0x4D5D JUMP JUMPDEST PUSH1 0x20 MUL PUSH1 0x20 ADD ADD MLOAD PUSH1 0x1 PUSH1 0x1 PUSH1 0xE0 SHL SUB NOT AND DUP2 MSTORE PUSH1 0x20 ADD DUP3 PUSH2 0xFFFF AND DUP2 MSTORE PUSH1 0x20 ADD DUP3 PUSH2 0xFFFF AND DUP2 MSTORE PUSH1 0x20 ADD DUP8 PUSH2 0x180 ADD MLOAD DUP8 DUP2 MLOAD DUP2 LT PUSH2 0x23EB JUMPI PUSH2 0x23EB PUSH2 0x4D5D JUMP JUMPDEST PUSH1 0x20 MUL PUSH1 0x20 ADD ADD MLOAD PUSH1 0xFF AND DUP2 MSTORE PUSH1 0x20 ADD DUP8 PUSH2 0x1A0 ADD MLOAD DUP8 DUP2 MLOAD DUP2 LT PUSH2 0x2412 JUMPI PUSH2 0x2412 PUSH2 0x4D5D JUMP JUMPDEST PUSH1 0x20 SWAP1 DUP2 MUL SWAP2 SWAP1 SWAP2 ADD DUP2 ADD MLOAD ISZERO ISZERO SWAP1 SWAP2 MSTORE PUSH1 0x0 DUP7 DUP2 MSTORE PUSH1 0x7 SWAP1 SWAP2 MSTORE PUSH1 0x40 SWAP1 KECCAK256 DUP2 MLOAD DUP2 SLOAD DUP3 SWAP1 PUSH1 0xFF NOT AND PUSH1 0x1 DUP4 DUP2 DUP2 GT ISZERO PUSH2 0x244E JUMPI PUSH2 0x244E PUSH2 0x4D47 JUMP JUMPDEST MUL OR SWAP1 SSTORE POP PUSH1 0x20 DUP3 ADD MLOAD DUP2 SLOAD PUSH1 0x40 DUP5 ADD MLOAD PUSH1 0x60 DUP6 ADD MLOAD PUSH1 0x80 DUP1 DUP8 ADD MLOAD PUSH1 0xA0 DUP9 ADD MLOAD PUSH1 0xC0 DUP10 ADD MLOAD PUSH1 0xE0 SWAP10 DUP11 ADD MLOAD PUSH2 0x100 PUSH1 0x1 PUSH1 0xB0 SHL SUB NOT SWAP1 SWAP8 AND PUSH2 0x100 PUSH1 0x1 PUSH1 0x1 PUSH1 0xA0 SHL SUB SWAP1 SWAP10 AND SWAP9 SWAP1 SWAP9 MUL PUSH1 0xFF PUSH1 0xA8 SHL NOT AND SWAP8 SWAP1 SWAP8 OR PUSH1 0x1 PUSH1 0xA8 SHL PUSH1 0xFF SWAP7 DUP8 AND MUL OR PUSH6 0xFFFFFFFFFFFF PUSH1 0xB0 SHL NOT AND PUSH1 0x1 PUSH1 0xB0 SHL SWAP5 SWAP1 SWAP10 SHR SWAP4 SWAP1 SWAP4 MUL PUSH2 0xFFFF PUSH1 0xD0 SHL NOT AND SWAP8 SWAP1 SWAP8 OR PUSH1 0x1 PUSH1 0xD0 SHL PUSH2 0xFFFF SWAP9 DUP10 AND MUL OR PUSH3 0xFFFFFF PUSH1 0xE0 SHL NOT AND PUSH1 0x1 PUSH1 0xE0 SHL SWAP8 SWAP1 SWAP3 AND SWAP7 SWAP1 SWAP7 MUL PUSH1 0xFF PUSH1 0xF0 SHL NOT AND OR PUSH1 0x1 PUSH1 0xF0 SHL SWAP2 SWAP1 SWAP4 AND MUL SWAP2 SWAP1 SWAP2 OR PUSH1 0x1 PUSH1 0x1 PUSH1 0xF8 SHL SUB AND PUSH1 0x1 PUSH1 0xF8 SHL SWAP2 ISZERO ISZERO SWAP2 SWAP1 SWAP2 MUL OR SWAP1 SSTORE DUP7 ADD MLOAD DUP1 MLOAD DUP7 SWAP1 DUP2 LT PUSH2 0x253B JUMPI PUSH2 0x253B PUSH2 0x4D5D JUMP JUMPDEST PUSH1 0x20 MUL PUSH1 0x20 ADD ADD MLOAD DUP7 PUSH1 0x60 ADD MLOAD DUP8 PUSH1 0x0 ADD MLOAD DUP2 MLOAD DUP2 LT PUSH2 0x255D JUMPI PUSH2 0x255D PUSH2 0x4D5D JUMP JUMPDEST PUSH1 0x20 MUL PUSH1 0x20 ADD ADD MLOAD PUSH1 0x1 PUSH1 0x1 PUSH1 0xA0 SHL SUB AND CALLER PUSH1 0x1 PUSH1 0x1 PUSH1 0xA0 SHL SUB AND PUSH32 0xF8D82FDBB496215C151D63910926322DCB6BA0F8CBD5FA216EF261106BB1AB46 DUP6 PUSH1 0x3 SLOAD DUP12 PUSH1 0xC0 ADD MLOAD DUP12 DUP2 MLOAD DUP2 LT PUSH2 0x25B3 JUMPI PUSH2 0x25B3 PUSH2 0x4D5D JUMP JUMPDEST PUSH1 0x20 MUL PUSH1 0x20 ADD ADD MLOAD DUP13 PUSH1 0xE0 ADD MLOAD DUP13 DUP2 MLOAD DUP2 LT PUSH2 0x25D1 JUMPI PUSH2 0x25D1 PUSH2 0x4D5D JUMP JUMPDEST PUSH1 0x20 MUL PUSH1 0x20 ADD ADD MLOAD DUP9 DUP15 PUSH2 0x180 ADD MLOAD DUP15 DUP2 MLOAD DUP2 LT PUSH2 0x25F1 JUMPI PUSH2 0x25F1 PUSH2 0x4D5D JUMP JUMPDEST PUSH1 0x20 MUL PUSH1 0x20 ADD ADD MLOAD DUP16 PUSH2 0x1A0 ADD MLOAD DUP16 DUP2 MLOAD DUP2 LT PUSH2 0x2610 JUMPI PUSH2 0x2610 PUSH2 0x4D5D JUMP JUMPDEST PUSH1 0x20 SWAP1 DUP2 MUL SWAP2 SWAP1 SWAP2 ADD DUP2 ADD MLOAD PUSH1 0x40 DUP1 MLOAD SWAP9 ISZERO ISZERO DUP10 MSTORE SWAP2 DUP9 ADD SWAP7 SWAP1 SWAP7 MSTORE PUSH1 0xFF SWAP5 DUP6 AND SWAP1 DUP8 ADD MSTORE PUSH1 0x1 PUSH1 0x1 PUSH1 0xE0 SHL SUB NOT SWAP1 SWAP3 AND PUSH1 0x60 DUP7 ADD MSTORE PUSH2 0xFFFF AND PUSH1 0x80 DUP6 ADD MSTORE AND PUSH1 0xA0 DUP4 ADD MSTORE ISZERO ISZERO PUSH1 0xC0 DUP3 ADD MSTORE PUSH1 0xE0 ADD PUSH1 0x40 MLOAD DUP1 SWAP2 SUB SWAP1 LOG4 PUSH1 0x3 DUP1 SLOAD SWAP1 PUSH1 0x0 PUSH2 0x2677 DUP4 PUSH2 0x4D16 JUMP JUMPDEST SWAP2 SWAP1 POP SSTORE POP POP POP POP POP DUP1 DUP1 PUSH2 0x268B SWAP1 PUSH2 0x4D16 JUMP JUMPDEST SWAP2 POP POP PUSH2 0x20E5 JUMP JUMPDEST POP PUSH2 0x26CC DUP2 CALLER ADDRESS PUSH2 0x26B3 DUP6 PUSH1 0x80 ADD MLOAD DUP7 PUSH1 0x0 ADD MLOAD DUP8 PUSH1 0x20 ADD MLOAD PUSH1 0x0 PUSH2 0x318F JUMP JUMPDEST PUSH2 0x1856 DUP7 PUSH1 0xA0 ADD MLOAD DUP8 PUSH1 0x0 ADD MLOAD DUP9 PUSH1 0x20 ADD MLOAD PUSH1 0x0 PUSH2 0x318F JUMP JUMPDEST POP JUMP JUMPDEST PUSH2 0x26D7 PUSH2 0x3F1B JUMP JUMPDEST PUSH1 0x40 MLOAD DUP1 PUSH2 0x1C0 ADD PUSH1 0x40 MSTORE DUP1 PUSH1 0x0 DUP2 MSTORE PUSH1 0x20 ADD PUSH1 0x1 DUP2 MSTORE PUSH1 0x20 ADD DUP11 DUP2 MSTORE PUSH1 0x20 ADD DUP10 DUP2 MSTORE PUSH1 0x20 ADD DUP9 DUP2 MSTORE PUSH1 0x20 ADD DUP8 DUP2 MSTORE PUSH1 0x20 ADD DUP7 DUP2 MSTORE PUSH1 0x20 ADD DUP6 DUP2 MSTORE PUSH1 0x20 ADD PUSH1 0x0 PUSH1 0x1 PUSH1 0x1 PUSH1 0x40 SHL SUB DUP2 GT ISZERO PUSH2 0x272E JUMPI PUSH2 0x272E PUSH2 0x4D73 JUMP JUMPDEST PUSH1 0x40 MLOAD SWAP1 DUP1 DUP3 MSTORE DUP1 PUSH1 0x20 MUL PUSH1 0x20 ADD DUP3 ADD PUSH1 0x40 MSTORE DUP1 ISZERO PUSH2 0x2757 JUMPI DUP2 PUSH1 0x20 ADD PUSH1 0x20 DUP3 MUL DUP1 CALLDATASIZE DUP4 CALLDATACOPY ADD SWAP1 POP JUMPDEST POP DUP2 MSTORE PUSH1 0x20 ADD PUSH1 0x0 PUSH1 0x40 MLOAD SWAP1 DUP1 DUP3 MSTORE DUP1 PUSH1 0x20 MUL PUSH1 0x20 ADD DUP3 ADD PUSH1 0x40 MSTORE DUP1 ISZERO PUSH2 0x2788 JUMPI DUP2 PUSH1 0x20 ADD PUSH1 0x20 DUP3 MUL DUP1 CALLDATASIZE DUP4 CALLDATACOPY ADD SWAP1 POP JUMPDEST POP DUP2 MSTORE PUSH1 0x20 ADD PUSH1 0x0 PUSH1 0x40 MLOAD SWAP1 DUP1 DUP3 MSTORE DUP1 PUSH1 0x20 MUL PUSH1 0x20 ADD DUP3 ADD PUSH1 0x40 MSTORE DUP1 ISZERO PUSH2 0x27B9 JUMPI DUP2 PUSH1 0x20 ADD PUSH1 0x20 DUP3 MUL DUP1 CALLDATASIZE DUP4 CALLDATACOPY ADD SWAP1 POP JUMPDEST POP DUP2 MSTORE PUSH1 0x20 ADD PUSH1 0x0 PUSH1 0x40 MLOAD SWAP1 DUP1 DUP3 MSTORE DUP1 PUSH1 0x20 MUL PUSH1 0x20 ADD DUP3 ADD PUSH1 0x40 MSTORE DUP1 ISZERO PUSH2 0x27EA JUMPI DUP2 PUSH1 0x20 ADD PUSH1 0x20 DUP3 MUL DUP1 CALLDATASIZE DUP4 CALLDATACOPY ADD SWAP1 POP JUMPDEST POP DUP2 MSTORE PUSH1 0x20 ADD DUP5 DUP2 MSTORE PUSH1 0x20 ADD DUP4 DUP2 MSTORE POP SWAP1 POP SWAP9 SWAP8 POP POP POP POP POP POP POP POP JUMP JUMPDEST PUSH2 0x2815 DUP2 PUSH1 0x20 ADD MLOAD PUSH2 0x3AA6 JUMP JUMPDEST PUSH1 0x40 DUP2 ADD MLOAD PUSH1 0xFF AND PUSH2 0x2860 JUMPI PUSH1 0x40 MLOAD PUSH3 0x461BCD PUSH1 0xE5 SHL DUP2 MSTORE PUSH1 0x20 PUSH1 0x4 DUP3 ADD MSTORE PUSH1 0x14 PUSH1 0x24 DUP3 ADD MSTORE PUSH20 0x52654E46543A3A6475726174696F6E207A65726F PUSH1 0x60 SHL PUSH1 0x44 DUP3 ADD MSTORE PUSH1 0x64 ADD PUSH2 0x429 JUMP JUMPDEST PUSH1 0x60 DUP2 ADD MLOAD PUSH1 0x1 PUSH1 0x1 PUSH1 0xE0 SHL SUB NOT AND PUSH2 0x26CC JUMPI PUSH1 0x40 MLOAD PUSH3 0x461BCD PUSH1 0xE5 SHL DUP2 MSTORE PUSH1 0x4 ADD PUSH2 0x429 SWAP1 PUSH2 0x4A6B JUMP JUMPDEST DUP1 MLOAD PUSH2 0x2896 SWAP1 PUSH2 0x3AA6 JUMP JUMPDEST PUSH1 0x20 DUP2 ADD MLOAD PUSH1 0xFF AND PUSH2 0x28BA JUMPI PUSH1 0x40 MLOAD PUSH3 0x461BCD PUSH1 0xE5 SHL DUP2 MSTORE PUSH1 0x4 ADD PUSH2 0x429 SWAP1 PUSH2 0x4A34 JUMP JUMPDEST PUSH1 0x40 DUP2 ADD MLOAD PUSH4 0xFFFFFFFF AND PUSH2 0x26CC JUMPI PUSH1 0x40 MLOAD PUSH3 0x461BCD PUSH1 0xE5 SHL DUP2 MSTORE PUSH1 0x20 PUSH1 0x4 DUP3 ADD MSTORE PUSH1 0x18 PUSH1 0x24 DUP3 ADD MSTORE PUSH32 0x52654E46543A3A72656E746564206174206973207A65726F0000000000000000 PUSH1 0x44 DUP3 ADD MSTORE PUSH1 0x64 ADD PUSH2 0x429 JUMP JUMPDEST DUP2 PUSH1 0x1 PUSH1 0x1 PUSH1 0xA0 SHL SUB AND DUP4 PUSH1 0x0 ADD MLOAD PUSH1 0x1 PUSH1 0x1 PUSH1 0xA0 SHL SUB AND EQ PUSH2 0x296A JUMPI PUSH1 0x40 MLOAD PUSH3 0x461BCD PUSH1 0xE5 SHL DUP2 MSTORE PUSH1 0x20 PUSH1 0x4 DUP3 ADD MSTORE PUSH1 0x11 PUSH1 0x24 DUP3 ADD MSTORE PUSH17 0x2932A7232A1D1D3737BA103932B73A32B9 PUSH1 0x79 SHL PUSH1 0x44 DUP3 ADD MSTORE PUSH1 0x64 ADD PUSH2 0x429 JUMP JUMPDEST PUSH2 0x2974 DUP4 DUP3 PUSH2 0x3AF2 JUMP JUMPDEST ISZERO PUSH2 0x29C1 JUMPI PUSH1 0x40 MLOAD PUSH3 0x461BCD PUSH1 0xE5 SHL DUP2 MSTORE PUSH1 0x20 PUSH1 0x4 DUP3 ADD MSTORE PUSH1 0x17 PUSH1 0x24 DUP3 ADD MSTORE PUSH32 0x52654E46543A3A706173742072657475726E2064617465000000000000000000 PUSH1 0x44 DUP3 ADD MSTORE PUSH1 0x64 ADD PUSH2 0x429 JUMP JUMPDEST POP POP POP JUMP JUMPDEST PUSH1 0xC0 DUP4 ADD MLOAD PUSH1 0x0 DUP1 SLOAD PUSH1 0x40 MLOAD PUSH4 0xC6EE427F PUSH1 0xE0 SHL DUP2 MSTORE PUSH1 0xFF DUP5 AND PUSH1 0x4 DUP3 ADD MSTORE PUSH1 0x1 PUSH1 0x1 PUSH1 0xA0 SHL SUB SWAP1 SWAP2 AND SWAP1 PUSH4 0xC6EE427F SWAP1 PUSH1 0x24 ADD PUSH1 0x20 PUSH1 0x40 MLOAD DUP1 DUP4 SUB DUP2 DUP7 DUP1 EXTCODESIZE ISZERO DUP1 ISZERO PUSH2 0x2A12 JUMPI PUSH1 0x0 DUP1 REVERT JUMPDEST POP GAS STATICCALL ISZERO DUP1 ISZERO PUSH2 0x2A26 JUMPI RETURNDATASIZE PUSH1 0x0 DUP1 RETURNDATACOPY RETURNDATASIZE PUSH1 0x0 REVERT JUMPDEST POP POP POP POP PUSH1 0x40 MLOAD RETURNDATASIZE PUSH1 0x1F NOT PUSH1 0x1F DUP3 ADD AND DUP3 ADD DUP1 PUSH1 0x40 MSTORE POP DUP2 ADD SWAP1 PUSH2 0x2A4A SWAP2 SWAP1 PUSH2 0x42A5 JUMP JUMPDEST SWAP1 POP PUSH1 0x0 DUP2 PUSH1 0x1 PUSH1 0x1 PUSH1 0xA0 SHL SUB AND PUSH4 0x313CE567 PUSH1 0x40 MLOAD DUP2 PUSH4 0xFFFFFFFF AND PUSH1 0xE0 SHL DUP2 MSTORE PUSH1 0x4 ADD PUSH1 0x20 PUSH1 0x40 MLOAD DUP1 DUP4 SUB DUP2 DUP7 DUP1 EXTCODESIZE ISZERO DUP1 ISZERO PUSH2 0x2A87 JUMPI PUSH1 0x0 DUP1 REVERT JUMPDEST POP GAS STATICCALL ISZERO DUP1 ISZERO PUSH2 0x2A9B JUMPI RETURNDATASIZE PUSH1 0x0 DUP1 RETURNDATACOPY RETURNDATASIZE PUSH1 0x0 REVERT JUMPDEST POP POP POP POP PUSH1 0x40 MLOAD RETURNDATASIZE PUSH1 0x1F NOT PUSH1 0x1F DUP3 ADD AND DUP3 ADD DUP1 PUSH1 0x40 MSTORE POP DUP2 ADD SWAP1 PUSH2 0x2ABF SWAP2 SWAP1 PUSH2 0x4899 JUMP JUMPDEST PUSH1 0xFF AND SWAP1 POP PUSH1 0x0 PUSH2 0x2AD1 DUP3 PUSH1 0xA PUSH2 0x4BE9 JUMP JUMPDEST SWAP1 POP PUSH1 0x0 PUSH2 0x2AE3 DUP9 PUSH1 0x60 ADD MLOAD DUP4 PUSH2 0x36E2 JUMP JUMPDEST DUP8 PUSH1 0x60 ADD MLOAD PUSH2 0xFFFF AND PUSH2 0x2AF6 SWAP2 SWAP1 PUSH2 0x4C91 JUMP JUMPDEST SWAP1 POP PUSH1 0x0 DUP8 PUSH1 0x20 ADD MLOAD PUSH1 0xFF AND DUP3 PUSH2 0x2B0D SWAP2 SWAP1 PUSH2 0x4C91 JUMP JUMPDEST SWAP1 POP PUSH1 0x0 PUSH3 0x15180 PUSH2 0x2B1F DUP5 DUP11 PUSH2 0x4C91 JUMP JUMPDEST PUSH2 0x2B29 SWAP2 SWAP1 PUSH2 0x4B84 JUMP JUMPDEST SWAP1 POP PUSH1 0x0 DUP3 GT PUSH2 0x2B87 JUMPI PUSH1 0x40 MLOAD PUSH3 0x461BCD PUSH1 0xE5 SHL DUP2 MSTORE PUSH1 0x20 PUSH1 0x4 DUP3 ADD MSTORE PUSH1 0x23 PUSH1 0x24 DUP3 ADD MSTORE PUSH32 0x52654E46543A3A746F74616C2072656E746572207061796D656E74206973207A PUSH1 0x44 DUP3 ADD MSTORE PUSH3 0x65726F PUSH1 0xE8 SHL PUSH1 0x64 DUP3 ADD MSTORE PUSH1 0x84 ADD PUSH2 0x429 JUMP JUMPDEST PUSH1 0x0 DUP2 GT PUSH2 0x2BD7 JUMPI PUSH1 0x40 MLOAD PUSH3 0x461BCD PUSH1 0xE5 SHL DUP2 MSTORE PUSH1 0x20 PUSH1 0x4 DUP3 ADD MSTORE PUSH1 0x1D PUSH1 0x24 DUP3 ADD MSTORE PUSH32 0x52654E46543A3A6C656E646572207061796D656E74206973207A65726F000000 PUSH1 0x44 DUP3 ADD MSTORE PUSH1 0x64 ADD PUSH2 0x429 JUMP JUMPDEST PUSH1 0x0 PUSH2 0x2BE3 DUP3 DUP5 PUSH2 0x4CD3 JUMP JUMPDEST SWAP1 POP PUSH1 0x6 SLOAD PUSH1 0x0 EQ PUSH2 0x2C0B JUMPI PUSH1 0x0 PUSH2 0x2BFB DUP4 DUP10 PUSH2 0x3B80 JUMP JUMPDEST SWAP1 POP PUSH2 0x2C07 DUP2 DUP5 PUSH2 0x4CD3 JUMP JUMPDEST SWAP3 POP POP JUMPDEST PUSH1 0x20 DUP12 ADD MLOAD PUSH2 0x2C25 SWAP1 PUSH1 0x1 PUSH1 0x1 PUSH1 0xA0 SHL SUB DUP10 AND SWAP1 DUP5 PUSH2 0x3BB7 JUMP JUMPDEST DUP1 ISZERO PUSH2 0x2C42 JUMPI DUP10 MLOAD PUSH2 0x2C42 SWAP1 PUSH1 0x1 PUSH1 0x1 PUSH1 0xA0 SHL SUB DUP10 AND SWAP1 DUP4 PUSH2 0x3BB7 JUMP JUMPDEST POP POP POP POP POP POP POP POP POP POP POP JUMP JUMPDEST DUP6 SLOAD PUSH1 0x1 PUSH1 0xF8 SHL SWAP1 DIV PUSH1 0xFF AND PUSH2 0x2F02 JUMPI DUP5 SLOAD DUP7 SLOAD PUSH1 0x1 PUSH1 0xC8 SHL SWAP1 SWAP2 DIV PUSH2 0xFFFF SWAP1 DUP2 AND PUSH1 0x1 PUSH1 0xD0 SHL SWAP1 SWAP3 DIV AND GT ISZERO PUSH2 0x2D43 JUMPI DUP5 SLOAD DUP7 SLOAD PUSH2 0xFFFF PUSH1 0x1 PUSH1 0xC8 SHL SWAP1 SWAP3 DIV DUP3 AND SWAP2 DUP9 SWAP2 PUSH1 0x1A SWAP2 PUSH2 0x2CAB SWAP2 DUP6 SWAP2 PUSH1 0x1 PUSH1 0xD0 SHL SWAP1 SWAP2 DIV AND PUSH2 0x4CB0 JUMP JUMPDEST DUP3 SLOAD PUSH2 0xFFFF SWAP2 DUP3 AND PUSH2 0x100 SWAP4 DUP5 EXP SWAP1 DUP2 MUL SWAP1 DUP4 MUL NOT SWAP1 SWAP2 AND OR SWAP1 SWAP3 SSTORE DUP9 SLOAD DUP9 SLOAD PUSH1 0x40 MLOAD PUSH4 0x79212195 PUSH1 0xE1 SHL DUP2 MSTORE PUSH1 0x1 PUSH1 0x1 PUSH1 0xA0 SHL SUB DUP1 DUP12 AND SWAP7 POP PUSH4 0xF242432A SWAP6 PUSH2 0x2D0C SWAP6 ADDRESS SWAP6 DIV SWAP1 SWAP2 AND SWAP3 DUP10 SWAP3 PUSH1 0x1 PUSH1 0xC8 SHL SWAP1 SWAP2 DIV SWAP1 SWAP2 AND SWAP1 PUSH1 0x4 ADD PUSH2 0x4937 JUMP JUMPDEST PUSH1 0x0 PUSH1 0x40 MLOAD DUP1 DUP4 SUB DUP2 PUSH1 0x0 DUP8 DUP1 EXTCODESIZE ISZERO DUP1 ISZERO PUSH2 0x2D26 JUMPI PUSH1 0x0 DUP1 REVERT JUMPDEST POP GAS CALL ISZERO DUP1 ISZERO PUSH2 0x2D3A JUMPI RETURNDATASIZE PUSH1 0x0 DUP1 RETURNDATACOPY RETURNDATASIZE PUSH1 0x0 REVERT JUMPDEST POP POP POP POP PUSH2 0x2EB0 JUMP JUMPDEST DUP5 SLOAD DUP7 SLOAD PUSH1 0x1 PUSH1 0xD0 SHL SWAP1 DIV PUSH2 0xFFFF SWAP1 DUP2 AND PUSH1 0x1 PUSH1 0xC8 SHL SWAP1 SWAP3 DIV AND EQ ISZERO PUSH2 0x2EB0 JUMPI PUSH1 0x0 DUP4 PUSH1 0x1 DUP2 GT ISZERO PUSH2 0x2D77 JUMPI PUSH2 0x2D77 PUSH2 0x4D47 JUMP JUMPDEST EQ ISZERO PUSH2 0x2DF2 JUMPI DUP6 SLOAD PUSH1 0x40 MLOAD PUSH4 0x23B872DD PUSH1 0xE0 SHL DUP2 MSTORE ADDRESS PUSH1 0x4 DUP3 ADD MSTORE PUSH2 0x100 SWAP1 SWAP2 DIV PUSH1 0x1 PUSH1 0x1 PUSH1 0xA0 SHL SUB SWAP1 DUP2 AND PUSH1 0x24 DUP4 ADD MSTORE PUSH1 0x44 DUP3 ADD DUP5 SWAP1 MSTORE DUP6 AND SWAP1 PUSH4 0x23B872DD SWAP1 PUSH1 0x64 ADD PUSH1 0x0 PUSH1 0x40 MLOAD DUP1 DUP4 SUB DUP2 PUSH1 0x0 DUP8 DUP1 EXTCODESIZE ISZERO DUP1 ISZERO PUSH2 0x2DD5 JUMPI PUSH1 0x0 DUP1 REVERT JUMPDEST POP GAS CALL ISZERO DUP1 ISZERO PUSH2 0x2DE9 JUMPI RETURNDATASIZE PUSH1 0x0 DUP1 RETURNDATACOPY RETURNDATASIZE PUSH1 0x0 REVERT JUMPDEST POP POP POP POP PUSH2 0x2E6E JUMP JUMPDEST DUP6 SLOAD DUP6 SLOAD PUSH1 0x40 MLOAD PUSH4 0x79212195 PUSH1 0xE1 SHL DUP2 MSTORE PUSH1 0x1 PUSH1 0x1 PUSH1 0xA0 SHL SUB DUP8 DUP2 AND SWAP4 PUSH4 0xF242432A SWAP4 PUSH2 0x2E3B SWAP4 ADDRESS SWAP4 PUSH2 0x100 SWAP1 SWAP4 DIV SWAP1 SWAP3 AND SWAP2 DUP9 SWAP2 PUSH1 0x1 PUSH1 0xC8 SHL SWAP1 DIV PUSH2 0xFFFF AND SWAP1 PUSH1 0x4 ADD PUSH2 0x4937 JUMP JUMPDEST PUSH1 0x0 PUSH1 0x40 MLOAD DUP1 DUP4 SUB DUP2 PUSH1 0x0 DUP8 DUP1 EXTCODESIZE ISZERO DUP1 ISZERO PUSH2 0x2E55 JUMPI PUSH1 0x0 DUP1 REVERT JUMPDEST POP GAS CALL ISZERO DUP1 ISZERO PUSH2 0x2E69 JUMPI RETURNDATASIZE PUSH1 0x0 DUP1 RETURNDATACOPY RETURNDATASIZE PUSH1 0x0 REVERT JUMPDEST POP POP POP POP JUMPDEST PUSH1 0x7 PUSH1 0x0 DUP6 DUP5 DUP5 PUSH1 0x40 MLOAD PUSH1 0x20 ADD PUSH2 0x2E87 SWAP4 SWAP3 SWAP2 SWAP1 PUSH2 0x48F1 JUMP JUMPDEST PUSH1 0x40 DUP1 MLOAD PUSH1 0x1F NOT DUP2 DUP5 SUB ADD DUP2 MSTORE SWAP2 DUP2 MSTORE DUP2 MLOAD PUSH1 0x20 SWAP3 DUP4 ADD KECCAK256 DUP4 MSTORE SWAP1 DUP3 ADD SWAP3 SWAP1 SWAP3 MSTORE ADD PUSH1 0x0 SWAP1 DUP2 KECCAK256 SSTORE JUMPDEST DUP5 SLOAD PUSH1 0x40 DUP1 MLOAD TIMESTAMP PUSH4 0xFFFFFFFF AND DUP2 MSTORE PUSH1 0x1 PUSH1 0xC8 SHL SWAP1 SWAP3 DIV PUSH2 0xFFFF AND PUSH1 0x20 DUP4 ADD MSTORE DUP3 SWAP2 PUSH32 0xFC33A7C95EE492CB6247BD90B28BBE1F459D8F80F3DC65F934CD020CF1E83EFB SWAP2 ADD PUSH1 0x40 MLOAD DUP1 SWAP2 SUB SWAP1 LOG2 PUSH2 0x6E7 JUMP JUMPDEST DUP5 SLOAD DUP7 SLOAD PUSH2 0xFFFF PUSH1 0x1 PUSH1 0xC8 SHL SWAP1 SWAP3 DIV DUP3 AND SWAP2 DUP9 SWAP2 PUSH1 0x1C SWAP2 PUSH2 0x2F2D SWAP2 DUP6 SWAP2 PUSH1 0x1 PUSH1 0xE0 SHL SWAP1 SWAP2 DIV AND PUSH2 0x4B46 JUMP JUMPDEST SWAP3 POP PUSH2 0x100 EXP DUP2 SLOAD DUP2 PUSH2 0xFFFF MUL NOT AND SWAP1 DUP4 PUSH2 0xFFFF AND MUL OR SWAP1 SSTORE POP POP POP POP POP POP POP JUMP JUMPDEST PUSH2 0x2F59 DUP3 DUP3 PUSH2 0x3AF2 JUMP JUMPDEST PUSH2 0xD72 JUMPI PUSH1 0x40 MLOAD PUSH3 0x461BCD PUSH1 0xE5 SHL DUP2 MSTORE PUSH1 0x20 PUSH1 0x4 DUP3 ADD MSTORE PUSH1 0x1D PUSH1 0x24 DUP3 ADD MSTORE PUSH32 0x52654E46543A3A72657475726E2064617465206E6F7420706173736564000000 PUSH1 0x44 DUP3 ADD MSTORE PUSH1 0x64 ADD PUSH2 0x429 JUMP JUMPDEST PUSH1 0xC0 DUP3 ADD MLOAD PUSH1 0x0 DUP1 SLOAD PUSH1 0x40 MLOAD PUSH4 0xC6EE427F PUSH1 0xE0 SHL DUP2 MSTORE PUSH1 0xFF DUP5 AND PUSH1 0x4 DUP3 ADD MSTORE PUSH1 0x1 PUSH1 0x1 PUSH1 0xA0 SHL SUB SWAP1 SWAP2 AND SWAP1 PUSH4 0xC6EE427F SWAP1 PUSH1 0x24 ADD PUSH1 0x20 PUSH1 0x40 MLOAD DUP1 DUP4 SUB DUP2 DUP7 DUP1 EXTCODESIZE ISZERO DUP1 ISZERO PUSH2 0x2FF1 JUMPI PUSH1 0x0 DUP1 REVERT JUMPDEST POP GAS STATICCALL ISZERO DUP1 ISZERO PUSH2 0x3005 JUMPI RETURNDATASIZE PUSH1 0x0 DUP1 RETURNDATACOPY RETURNDATASIZE PUSH1 0x0 REVERT JUMPDEST POP POP POP POP PUSH1 0x40 MLOAD RETURNDATASIZE PUSH1 0x1F NOT PUSH1 0x1F DUP3 ADD AND DUP3 ADD DUP1 PUSH1 0x40 MSTORE POP DUP2 ADD SWAP1 PUSH2 0x3029 SWAP2 SWAP1 PUSH2 0x42A5 JUMP JUMPDEST SWAP1 POP PUSH1 0x0 DUP2 PUSH1 0x1 PUSH1 0x1 PUSH1 0xA0 SHL SUB AND PUSH4 0x313CE567 PUSH1 0x40 MLOAD DUP2 PUSH4 0xFFFFFFFF AND PUSH1 0xE0 SHL DUP2 MSTORE PUSH1 0x4 ADD PUSH1 0x20 PUSH1 0x40 MLOAD DUP1 DUP4 SUB DUP2 DUP7 DUP1 EXTCODESIZE ISZERO DUP1 ISZERO PUSH2 0x3066 JUMPI PUSH1 0x0 DUP1 REVERT JUMPDEST POP GAS STATICCALL ISZERO DUP1 ISZERO PUSH2 0x307A JUMPI RETURNDATASIZE PUSH1 0x0 DUP1 RETURNDATACOPY RETURNDATASIZE PUSH1 0x0 REVERT JUMPDEST POP POP POP POP PUSH1 0x40 MLOAD RETURNDATASIZE PUSH1 0x1F NOT PUSH1 0x1F DUP3 ADD AND DUP3 ADD DUP1 PUSH1 0x40 MSTORE POP DUP2 ADD SWAP1 PUSH2 0x309E SWAP2 SWAP1 PUSH2 0x4899 JUMP JUMPDEST PUSH1 0xFF AND SWAP1 POP PUSH1 0x0 PUSH2 0x30B0 DUP3 PUSH1 0xA PUSH2 0x4BE9 JUMP JUMPDEST SWAP1 POP PUSH1 0x0 PUSH2 0x30C2 DUP8 PUSH1 0x60 ADD MLOAD DUP4 PUSH2 0x36E2 JUMP JUMPDEST DUP7 PUSH1 0x60 ADD MLOAD PUSH2 0xFFFF AND PUSH2 0x30D5 SWAP2 SWAP1 PUSH2 0x4C91 JUMP JUMPDEST SWAP1 POP PUSH1 0x0 DUP7 PUSH1 0x20 ADD MLOAD PUSH1 0xFF AND DUP3 PUSH2 0x30EC SWAP2 SWAP1 PUSH2 0x4C91 JUMP JUMPDEST SWAP1 POP PUSH1 0x0 PUSH1 0x6 SLOAD PUSH1 0x0 EQ PUSH2 0x3107 JUMPI PUSH2 0x3104 DUP3 DUP8 PUSH2 0x3B80 JUMP JUMPDEST SWAP1 POP JUMPDEST PUSH1 0x20 DUP10 ADD MLOAD PUSH2 0x312B SWAP1 PUSH2 0x311A DUP4 DUP6 PUSH2 0x4CD3 JUMP JUMPDEST PUSH1 0x1 PUSH1 0x1 PUSH1 0xA0 SHL SUB DUP10 AND SWAP2 SWAP1 PUSH2 0x3BB7 JUMP JUMPDEST POP POP POP POP POP POP POP POP POP JUMP JUMPDEST DUP1 PUSH1 0x1 PUSH1 0x1 PUSH1 0xA0 SHL SUB AND DUP3 PUSH1 0x20 ADD MLOAD PUSH1 0x1 PUSH1 0x1 PUSH1 0xA0 SHL SUB AND EQ PUSH2 0xD72 JUMPI PUSH1 0x40 MLOAD PUSH3 0x461BCD PUSH1 0xE5 SHL DUP2 MSTORE PUSH1 0x20 PUSH1 0x4 DUP3 ADD MSTORE PUSH1 0x11 PUSH1 0x24 DUP3 ADD MSTORE PUSH17 0x2932A7232A1D1D3737BA103632B73232B9 PUSH1 0x79 SHL PUSH1 0x44 DUP3 ADD MSTORE PUSH1 0x64 ADD PUSH2 0x429 JUMP JUMPDEST PUSH1 0x60 PUSH2 0x319B DUP5 DUP5 PUSH2 0x4CD3 JUMP JUMPDEST PUSH1 0x1 PUSH1 0x1 PUSH1 0x40 SHL SUB DUP2 GT ISZERO PUSH2 0x31B2 JUMPI PUSH2 0x31B2 PUSH2 0x4D73 JUMP JUMPDEST PUSH1 0x40 MLOAD SWAP1 DUP1 DUP3 MSTORE DUP1 PUSH1 0x20 MUL PUSH1 0x20 ADD DUP3 ADD PUSH1 0x40 MSTORE DUP1 ISZERO PUSH2 0x31DB JUMPI DUP2 PUSH1 0x20 ADD PUSH1 0x20 DUP3 MUL DUP1 CALLDATASIZE DUP4 CALLDATACOPY ADD SWAP1 POP JUMPDEST POP SWAP1 POP DUP4 JUMPDEST DUP4 DUP2 LT ISZERO PUSH2 0x3245 JUMPI DUP6 PUSH2 0x31F3 DUP5 DUP4 PUSH2 0x4CD3 JUMP JUMPDEST DUP2 MLOAD DUP2 LT PUSH2 0x3203 JUMPI PUSH2 0x3203 PUSH2 0x4D5D JUMP JUMPDEST PUSH1 0x20 MUL PUSH1 0x20 ADD ADD MLOAD DUP3 DUP7 DUP4 PUSH2 0x3218 SWAP2 SWAP1 PUSH2 0x4CD3 JUMP JUMPDEST DUP2 MLOAD DUP2 LT PUSH2 0x3228 JUMPI PUSH2 0x3228 PUSH2 0x4D5D JUMP JUMPDEST PUSH1 0x20 SWAP1 DUP2 MUL SWAP2 SWAP1 SWAP2 ADD ADD MSTORE DUP1 PUSH2 0x323D DUP2 PUSH2 0x4D16 JUMP JUMPDEST SWAP2 POP POP PUSH2 0x31E0 JUMP JUMPDEST POP SWAP5 SWAP4 POP POP POP POP JUMP JUMPDEST PUSH1 0x0 PUSH1 0x40 DUP7 ADD MLOAD DUP7 MLOAD DUP2 MLOAD DUP2 LT PUSH2 0x3267 JUMPI PUSH2 0x3267 PUSH2 0x4D5D JUMP JUMPDEST PUSH1 0x20 MUL PUSH1 0x20 ADD ADD MLOAD PUSH1 0x1 DUP2 GT ISZERO PUSH2 0x3280 JUMPI PUSH2 0x3280 PUSH2 0x4D47 JUMP JUMPDEST EQ ISZERO PUSH2 0x3346 JUMPI PUSH1 0x60 DUP6 ADD MLOAD DUP6 MLOAD DUP2 MLOAD DUP2 LT PUSH2 0x329D JUMPI PUSH2 0x329D PUSH2 0x4D5D JUMP JUMPDEST PUSH1 0x20 MUL PUSH1 0x20 ADD ADD MLOAD PUSH1 0x1 PUSH1 0x1 PUSH1 0xA0 SHL SUB AND PUSH4 0x23B872DD DUP6 DUP6 DUP9 PUSH1 0x80 ADD MLOAD DUP10 PUSH1 0x0 ADD MLOAD DUP2 MLOAD DUP2 LT PUSH2 0x32CF JUMPI PUSH2 0x32CF PUSH2 0x4D5D JUMP JUMPDEST PUSH1 0x20 SWAP1 DUP2 MUL SWAP2 SWAP1 SWAP2 ADD ADD MLOAD PUSH1 0x40 MLOAD PUSH1 0x1 PUSH1 0x1 PUSH1 0xE0 SHL SUB NOT PUSH1 0xE0 DUP7 SWAP1 SHL AND DUP2 MSTORE PUSH1 0x1 PUSH1 0x1 PUSH1 0xA0 SHL SUB SWAP4 DUP5 AND PUSH1 0x4 DUP3 ADD MSTORE SWAP3 SWAP1 SWAP2 AND PUSH1 0x24 DUP4 ADD MSTORE PUSH1 0x44 DUP3 ADD MSTORE PUSH1 0x64 ADD PUSH1 0x0 PUSH1 0x40 MLOAD DUP1 DUP4 SUB DUP2 PUSH1 0x0 DUP8 DUP1 EXTCODESIZE ISZERO DUP1 ISZERO PUSH2 0x3329 JUMPI PUSH1 0x0 DUP1 REVERT JUMPDEST POP GAS CALL ISZERO DUP1 ISZERO PUSH2 0x333D JUMPI RETURNDATASIZE PUSH1 0x0 DUP1 RETURNDATACOPY RETURNDATASIZE PUSH1 0x0 REVERT JUMPDEST POP POP POP POP PUSH2 0x44A JUMP JUMPDEST PUSH1 0x60 DUP6 ADD MLOAD DUP6 MLOAD DUP2 MLOAD DUP2 LT PUSH2 0x335D JUMPI PUSH2 0x335D PUSH2 0x4D5D JUMP JUMPDEST PUSH1 0x20 MUL PUSH1 0x20 ADD ADD MLOAD PUSH1 0x1 PUSH1 0x1 PUSH1 0xA0 SHL SUB AND PUSH4 0x2EB2C2D6 DUP6 DUP6 DUP6 DUP6 PUSH1 0x40 MLOAD DUP6 PUSH4 0xFFFFFFFF AND PUSH1 0xE0 SHL DUP2 MSTORE PUSH1 0x4 ADD PUSH2 0x3396 SWAP5 SWAP4 SWAP3 SWAP2 SWAP1 PUSH2 0x496F JUMP JUMPDEST PUSH1 0x0 PUSH1 0x40 MLOAD DUP1 DUP4 SUB DUP2 PUSH1 0x0 DUP8 DUP1 EXTCODESIZE ISZERO DUP1 ISZERO PUSH2 0x33B0 JUMPI PUSH1 0x0 DUP1 REVERT JUMPDEST POP GAS CALL ISZERO DUP1 ISZERO PUSH2 0x312B JUMPI RETURNDATASIZE PUSH1 0x0 DUP1 RETURNDATACOPY RETURNDATASIZE PUSH1 0x0 REVERT JUMPDEST DUP1 MLOAD PUSH2 0x33CF SWAP1 PUSH2 0x3BE7 JUMP JUMPDEST PUSH1 0x20 DUP2 ADD MLOAD PUSH1 0xFF AND ISZERO PUSH2 0x341F JUMPI PUSH1 0x40 MLOAD PUSH3 0x461BCD PUSH1 0xE5 SHL DUP2 MSTORE PUSH1 0x20 PUSH1 0x4 DUP3 ADD MSTORE PUSH1 0x18 PUSH1 0x24 DUP3 ADD MSTORE PUSH24 0x52654E46543A3A6475726174696F6E206E6F74207A65726F PUSH1 0x40 SHL PUSH1 0x44 DUP3 ADD MSTORE PUSH1 0x64 ADD PUSH2 0x429 JUMP JUMPDEST PUSH1 0x40 DUP2 ADD MLOAD PUSH4 0xFFFFFFFF AND ISZERO PUSH2 0x26CC JUMPI PUSH1 0x40 MLOAD PUSH3 0x461BCD PUSH1 0xE5 SHL DUP2 MSTORE PUSH1 0x20 PUSH1 0x4 DUP3 ADD MSTORE PUSH1 0x19 PUSH1 0x24 DUP3 ADD MSTORE PUSH32 0x52654E46543A3A72656E746564206174206E6F74207A65726F00000000000000 PUSH1 0x44 DUP3 ADD MSTORE PUSH1 0x64 ADD PUSH2 0x429 JUMP JUMPDEST DUP4 PUSH1 0x20 ADD MLOAD PUSH1 0x1 PUSH1 0x1 PUSH1 0xA0 SHL SUB AND DUP2 PUSH1 0x1 PUSH1 0x1 PUSH1 0xA0 SHL SUB AND EQ ISZERO PUSH2 0x34DD JUMPI PUSH1 0x40 MLOAD PUSH3 0x461BCD PUSH1 0xE5 SHL DUP2 MSTORE PUSH1 0x20 PUSH1 0x4 DUP3 ADD MSTORE PUSH1 0x18 PUSH1 0x24 DUP3 ADD MSTORE PUSH32 0x52654E46543A3A63616E742072656E74206F776E206E66740000000000000000 PUSH1 0x44 DUP3 ADD MSTORE PUSH1 0x64 ADD PUSH2 0x429 JUMP JUMPDEST PUSH1 0xFF DUP1 AND DUP4 PUSH2 0x140 ADD MLOAD DUP4 DUP2 MLOAD DUP2 LT PUSH2 0x34F8 JUMPI PUSH2 0x34F8 PUSH2 0x4D5D JUMP JUMPDEST PUSH1 0x20 MUL PUSH1 0x20 ADD ADD MLOAD PUSH1 0xFF AND GT ISZERO PUSH2 0x3544 JUMPI PUSH1 0x40 MLOAD PUSH3 0x461BCD PUSH1 0xE5 SHL DUP2 MSTORE PUSH1 0x20 PUSH1 0x4 DUP3 ADD MSTORE PUSH1 0x10 PUSH1 0x24 DUP3 ADD MSTORE PUSH16 0xA4CA9C8CA87474DCDEE840EAD2DCE87 PUSH1 0x83 SHL PUSH1 0x44 DUP3 ADD MSTORE PUSH1 0x64 ADD PUSH2 0x429 JUMP JUMPDEST PUSH1 0x0 DUP4 PUSH2 0x140 ADD MLOAD DUP4 DUP2 MLOAD DUP2 LT PUSH2 0x355D JUMPI PUSH2 0x355D PUSH2 0x4D5D JUMP JUMPDEST PUSH1 0x20 MUL PUSH1 0x20 ADD ADD MLOAD PUSH1 0xFF AND GT PUSH2 0x3585 JUMPI PUSH1 0x40 MLOAD PUSH3 0x461BCD PUSH1 0xE5 SHL DUP2 MSTORE PUSH1 0x4 ADD PUSH2 0x429 SWAP1 PUSH2 0x4A34 JUMP JUMPDEST PUSH2 0xFFFF DUP1 AND DUP4 PUSH2 0x160 ADD MLOAD DUP4 DUP2 MLOAD DUP2 LT PUSH2 0x35A1 JUMPI PUSH2 0x35A1 PUSH2 0x4D5D JUMP JUMPDEST PUSH1 0x20 MUL PUSH1 0x20 ADD ADD MLOAD GT ISZERO PUSH2 0x35EB JUMPI PUSH1 0x40 MLOAD PUSH3 0x461BCD PUSH1 0xE5 SHL DUP2 MSTORE PUSH1 0x20 PUSH1 0x4 DUP3 ADD MSTORE PUSH1 0x11 PUSH1 0x24 DUP3 ADD MSTORE PUSH17 0x2932A7232A1D1D3737BA103AB4B73A189B PUSH1 0x79 SHL PUSH1 0x44 DUP3 ADD MSTORE PUSH1 0x64 ADD PUSH2 0x429 JUMP JUMPDEST PUSH1 0x0 DUP4 PUSH2 0x160 ADD MLOAD DUP4 DUP2 MLOAD DUP2 LT PUSH2 0x3604 JUMPI PUSH2 0x3604 PUSH2 0x4D5D JUMP JUMPDEST PUSH1 0x20 MUL PUSH1 0x20 ADD ADD MLOAD GT PUSH2 0x3659 JUMPI PUSH1 0x40 MLOAD PUSH3 0x461BCD PUSH1 0xE5 SHL DUP2 MSTORE PUSH1 0x20 PUSH1 0x4 DUP3 ADD MSTORE PUSH1 0x19 PUSH1 0x24 DUP3 ADD MSTORE PUSH32 0x52654E46543A3A72656E74416D6F756E74206973207A65726F00000000000000 PUSH1 0x44 DUP3 ADD MSTORE PUSH1 0x64 ADD PUSH2 0x429 JUMP JUMPDEST DUP4 PUSH1 0x40 ADD MLOAD PUSH1 0xFF AND DUP4 PUSH2 0x140 ADD MLOAD DUP4 DUP2 MLOAD DUP2 LT PUSH2 0x3678 JUMPI PUSH2 0x3678 PUSH2 0x4D5D JUMP JUMPDEST PUSH1 0x20 MUL PUSH1 0x20 ADD ADD MLOAD PUSH1 0xFF AND GT ISZERO PUSH2 0x6AA JUMPI PUSH1 0x40 MLOAD PUSH3 0x461BCD PUSH1 0xE5 SHL DUP2 MSTORE PUSH1 0x20 PUSH1 0x4 DUP3 ADD MSTORE PUSH1 0x28 PUSH1 0x24 DUP3 ADD MSTORE PUSH32 0x52654E46543A3A72656E74206475726174696F6E206578636565647320616C6C PUSH1 0x44 DUP3 ADD MSTORE PUSH8 0xDEEECAC840DAC2F PUSH1 0xC3 SHL PUSH1 0x64 DUP3 ADD MSTORE PUSH1 0x84 ADD PUSH2 0x429 JUMP JUMPDEST PUSH1 0x0 PUSH2 0x36EE DUP4 DUP4 PUSH2 0x3C3E JUMP JUMPDEST PUSH1 0xF0 DUP4 SWAP1 SHR PUSH2 0xFFFF PUSH1 0xE0 DUP6 SWAP1 SHR AND PUSH1 0x0 PUSH2 0x370A PUSH2 0x2710 DUP7 PUSH2 0x4B84 JUMP JUMPDEST SWAP1 POP PUSH2 0x270F DUP4 PUSH2 0xFFFF AND GT ISZERO PUSH2 0x3720 JUMPI PUSH2 0x270F SWAP3 POP JUMPDEST PUSH2 0x270F DUP3 PUSH2 0xFFFF AND GT ISZERO PUSH2 0x3734 JUMPI PUSH2 0x270F SWAP2 POP JUMPDEST PUSH1 0x0 PUSH2 0x3744 DUP7 PUSH2 0xFFFF DUP7 AND PUSH2 0x4C91 JUMP JUMPDEST SWAP1 POP PUSH1 0x0 PUSH2 0x3756 DUP4 PUSH2 0xFFFF DUP7 AND PUSH2 0x4C91 JUMP JUMPDEST SWAP1 POP PUSH1 0x0 PUSH2 0x3764 DUP3 DUP5 PUSH2 0x4B6C JUMP JUMPDEST SWAP10 SWAP9 POP POP POP POP POP POP POP POP POP JUMP JUMPDEST PUSH1 0x40 MLOAD PUSH1 0x1 PUSH1 0x1 PUSH1 0xA0 SHL SUB DUP1 DUP6 AND PUSH1 0x24 DUP4 ADD MSTORE DUP4 AND PUSH1 0x44 DUP3 ADD MSTORE PUSH1 0x64 DUP2 ADD DUP3 SWAP1 MSTORE PUSH2 0x6AA SWAP1 DUP6 SWAP1 PUSH4 0x23B872DD PUSH1 0xE0 SHL SWAP1 PUSH1 0x84 ADD JUMPDEST PUSH1 0x40 DUP1 MLOAD PUSH1 0x1F NOT DUP2 DUP5 SUB ADD DUP2 MSTORE SWAP2 SWAP1 MSTORE PUSH1 0x20 DUP2 ADD DUP1 MLOAD PUSH1 0x1 PUSH1 0x1 PUSH1 0xE0 SHL SUB AND PUSH1 0x1 PUSH1 0x1 PUSH1 0xE0 SHL SUB NOT SWAP1 SWAP4 AND SWAP3 SWAP1 SWAP3 OR SWAP1 SWAP2 MSTORE PUSH2 0x3CCF JUMP JUMPDEST PUSH1 0x0 DUP3 PUSH1 0xA0 ADD MLOAD DUP3 DUP2 MLOAD DUP2 LT PUSH2 0x37F4 JUMPI PUSH2 0x37F4 PUSH2 0x4D5D JUMP JUMPDEST PUSH1 0x20 MUL PUSH1 0x20 ADD ADD MLOAD GT PUSH2 0x3849 JUMPI PUSH1 0x40 MLOAD PUSH3 0x461BCD PUSH1 0xE5 SHL DUP2 MSTORE PUSH1 0x20 PUSH1 0x4 DUP3 ADD MSTORE PUSH1 0x1A PUSH1 0x24 DUP3 ADD MSTORE PUSH32 0x52654E46543A3A6C656E6420616D6F756E74206973207A65726F000000000000 PUSH1 0x44 DUP3 ADD MSTORE PUSH1 0x64 ADD PUSH2 0x429 JUMP JUMPDEST PUSH2 0xFFFF DUP1 AND DUP3 PUSH1 0xA0 ADD MLOAD DUP3 DUP2 MLOAD DUP2 LT PUSH2 0x3864 JUMPI PUSH2 0x3864 PUSH2 0x4D5D JUMP JUMPDEST PUSH1 0x20 MUL PUSH1 0x20 ADD ADD MLOAD GT ISZERO PUSH2 0x38AE JUMPI PUSH1 0x40 MLOAD PUSH3 0x461BCD PUSH1 0xE5 SHL DUP2 MSTORE PUSH1 0x20 PUSH1 0x4 DUP3 ADD MSTORE PUSH1 0x11 PUSH1 0x24 DUP3 ADD MSTORE PUSH17 0x2932A7232A1D1D3737BA103AB4B73A189B PUSH1 0x79 SHL PUSH1 0x44 DUP3 ADD MSTORE PUSH1 0x64 ADD PUSH2 0x429 JUMP JUMPDEST PUSH1 0x0 DUP3 PUSH1 0xC0 ADD MLOAD DUP3 DUP2 MLOAD DUP2 LT PUSH2 0x38C6 JUMPI PUSH2 0x38C6 PUSH2 0x4D5D JUMP JUMPDEST PUSH1 0x20 MUL PUSH1 0x20 ADD ADD MLOAD PUSH1 0xFF AND GT PUSH2 0x38EE JUMPI PUSH1 0x40 MLOAD PUSH3 0x461BCD PUSH1 0xE5 SHL DUP2 MSTORE PUSH1 0x4 ADD PUSH2 0x429 SWAP1 PUSH2 0x4A34 JUMP JUMPDEST PUSH1 0xFF DUP1 AND DUP3 PUSH1 0xC0 ADD MLOAD DUP3 DUP2 MLOAD DUP2 LT PUSH2 0x3908 JUMPI PUSH2 0x3908 PUSH2 0x4D5D JUMP JUMPDEST PUSH1 0x20 MUL PUSH1 0x20 ADD ADD MLOAD PUSH1 0xFF AND GT ISZERO PUSH2 0x3954 JUMPI PUSH1 0x40 MLOAD PUSH3 0x461BCD PUSH1 0xE5 SHL DUP2 MSTORE PUSH1 0x20 PUSH1 0x4 DUP3 ADD MSTORE PUSH1 0x10 PUSH1 0x24 DUP3 ADD MSTORE PUSH16 0xA4CA9C8CA87474DCDEE840EAD2DCE87 PUSH1 0x83 SHL PUSH1 0x44 DUP3 ADD MSTORE PUSH1 0x64 ADD PUSH2 0x429 JUMP JUMPDEST PUSH1 0x0 DUP3 PUSH1 0xE0 ADD MLOAD DUP3 DUP2 MLOAD DUP2 LT PUSH2 0x396C JUMPI PUSH2 0x396C PUSH2 0x4D5D JUMP JUMPDEST PUSH1 0x20 MUL PUSH1 0x20 ADD ADD MLOAD PUSH1 0xE0 SHR PUSH4 0xFFFFFFFF AND GT PUSH2 0xD72 JUMPI PUSH1 0x40 MLOAD PUSH3 0x461BCD PUSH1 0xE5 SHL DUP2 MSTORE PUSH1 0x4 ADD PUSH2 0x429 SWAP1 PUSH2 0x4A6B JUMP JUMPDEST PUSH2 0x39A7 DUP2 PUSH1 0x20 ADD MLOAD PUSH2 0x3BE7 JUMP JUMPDEST PUSH1 0x40 DUP2 ADD MLOAD PUSH1 0xFF AND ISZERO PUSH2 0x39F7 JUMPI PUSH1 0x40 MLOAD PUSH3 0x461BCD PUSH1 0xE5 SHL DUP2 MSTORE PUSH1 0x20 PUSH1 0x4 DUP3 ADD MSTORE PUSH1 0x18 PUSH1 0x24 DUP3 ADD MSTORE PUSH24 0x52654E46543A3A6475726174696F6E206E6F74207A65726F PUSH1 0x40 SHL PUSH1 0x44 DUP3 ADD MSTORE PUSH1 0x64 ADD PUSH2 0x429 JUMP JUMPDEST PUSH1 0x60 DUP2 ADD MLOAD PUSH1 0x1 PUSH1 0x1 PUSH1 0xE0 SHL SUB NOT AND ISZERO PUSH2 0x26CC JUMPI PUSH1 0x40 MLOAD PUSH3 0x461BCD PUSH1 0xE5 SHL DUP2 MSTORE PUSH1 0x20 PUSH1 0x4 DUP3 ADD MSTORE PUSH1 0x1A PUSH1 0x24 DUP3 ADD MSTORE PUSH32 0x52654E46543A3A72656E74207072696365206E6F74207A65726F000000000000 PUSH1 0x44 DUP3 ADD MSTORE PUSH1 0x64 ADD PUSH2 0x429 JUMP JUMPDEST PUSH1 0x0 DUP2 PUSH1 0xFF AND GT PUSH2 0x26CC JUMPI PUSH1 0x40 MLOAD PUSH3 0x461BCD PUSH1 0xE5 SHL DUP2 MSTORE PUSH1 0x20 PUSH1 0x4 DUP3 ADD MSTORE PUSH1 0x18 PUSH1 0x24 DUP3 ADD MSTORE PUSH32 0x52654E46543A3A746F6B656E2069732073656E74696E656C0000000000000000 PUSH1 0x44 DUP3 ADD MSTORE PUSH1 0x64 ADD PUSH2 0x429 JUMP JUMPDEST PUSH1 0x1 PUSH1 0x1 PUSH1 0xA0 SHL SUB DUP2 AND PUSH2 0x26CC JUMPI PUSH1 0x40 MLOAD PUSH3 0x461BCD PUSH1 0xE5 SHL DUP2 MSTORE PUSH1 0x20 PUSH1 0x4 DUP3 ADD MSTORE PUSH1 0x13 PUSH1 0x24 DUP3 ADD MSTORE PUSH19 0x52654E46543A3A7A65726F2061646472657373 PUSH1 0x68 SHL PUSH1 0x44 DUP3 ADD MSTORE PUSH1 0x64 ADD PUSH2 0x429 JUMP JUMPDEST PUSH1 0x0 DUP3 PUSH1 0x40 ADD MLOAD PUSH4 0xFFFFFFFF AND DUP3 GT PUSH2 0x3B4D JUMPI PUSH1 0x40 MLOAD PUSH3 0x461BCD PUSH1 0xE5 SHL DUP2 MSTORE PUSH1 0x20 PUSH1 0x4 DUP3 ADD MSTORE PUSH1 0x18 PUSH1 0x24 DUP3 ADD MSTORE PUSH32 0x52654E46543A3A6E6F77206265666F72652072656E7465640000000000000000 PUSH1 0x44 DUP3 ADD MSTORE PUSH1 0x64 ADD PUSH2 0x429 JUMP JUMPDEST PUSH3 0x15180 DUP4 PUSH1 0x20 ADD MLOAD PUSH1 0xFF AND PUSH2 0x3B63 SWAP2 SWAP1 PUSH2 0x4C91 JUMP JUMPDEST PUSH1 0x40 DUP5 ADD MLOAD PUSH2 0x3B78 SWAP1 PUSH4 0xFFFFFFFF AND DUP5 PUSH2 0x4CD3 JUMP JUMPDEST GT SWAP4 SWAP3 POP POP POP JUMP JUMPDEST PUSH1 0x0 PUSH1 0x6 SLOAD DUP4 PUSH2 0x3B90 SWAP2 SWAP1 PUSH2 0x4C91 JUMP JUMPDEST SWAP1 POP PUSH2 0x3B9E PUSH2 0x2710 DUP3 PUSH2 0x4B84 JUMP JUMPDEST PUSH1 0x2 SLOAD SWAP1 SWAP2 POP PUSH2 0x400 SWAP1 PUSH1 0x1 PUSH1 0x1 PUSH1 0xA0 SHL SUB DUP5 DUP2 AND SWAP2 AND DUP4 JUMPDEST PUSH1 0x40 MLOAD PUSH1 0x1 PUSH1 0x1 PUSH1 0xA0 SHL SUB DUP4 AND PUSH1 0x24 DUP3 ADD MSTORE PUSH1 0x44 DUP2 ADD DUP3 SWAP1 MSTORE PUSH2 0x29C1 SWAP1 DUP5 SWAP1 PUSH4 0xA9059CBB PUSH1 0xE0 SHL SWAP1 PUSH1 0x64 ADD PUSH2 0x37A5 JUMP JUMPDEST PUSH1 0x1 PUSH1 0x1 PUSH1 0xA0 SHL SUB DUP2 AND ISZERO PUSH2 0x26CC JUMPI PUSH1 0x40 MLOAD PUSH3 0x461BCD PUSH1 0xE5 SHL DUP2 MSTORE PUSH1 0x20 PUSH1 0x4 DUP3 ADD MSTORE PUSH1 0x19 PUSH1 0x24 DUP3 ADD MSTORE PUSH32 0x52654E46543A3A6E6F742061207A65726F206164647265737300000000000000 PUSH1 0x44 DUP3 ADD MSTORE PUSH1 0x64 ADD PUSH2 0x429 JUMP JUMPDEST PUSH1 0xE0 DUP3 SWAP1 SHR PUSH2 0x3C86 JUMPI PUSH1 0x40 MLOAD PUSH3 0x461BCD PUSH1 0xE5 SHL DUP2 MSTORE PUSH1 0x20 PUSH1 0x4 DUP3 ADD MSTORE PUSH1 0x14 PUSH1 0x24 DUP3 ADD MSTORE PUSH20 0x52654E46543A3A696E76616C6964207072696365 PUSH1 0x60 SHL PUSH1 0x44 DUP3 ADD MSTORE PUSH1 0x64 ADD PUSH2 0x429 JUMP JUMPDEST PUSH2 0x2710 DUP2 LT ISZERO PUSH2 0xD72 JUMPI PUSH1 0x40 MLOAD PUSH3 0x461BCD PUSH1 0xE5 SHL DUP2 MSTORE PUSH1 0x20 PUSH1 0x4 DUP3 ADD MSTORE PUSH1 0x14 PUSH1 0x24 DUP3 ADD MSTORE PUSH20 0x52654E46543A3A696E76616C6964207363616C65 PUSH1 0x60 SHL PUSH1 0x44 DUP3 ADD MSTORE PUSH1 0x64 ADD PUSH2 0x429 JUMP JUMPDEST PUSH1 0x0 PUSH2 0x3D24 DUP3 PUSH1 0x40 MLOAD DUP1 PUSH1 0x40 ADD PUSH1 0x40 MSTORE DUP1 PUSH1 0x20 DUP2 MSTORE PUSH1 0x20 ADD PUSH32 0x5361666545524332303A206C6F772D6C6576656C2063616C6C206661696C6564 DUP2 MSTORE POP DUP6 PUSH1 0x1 PUSH1 0x1 PUSH1 0xA0 SHL SUB AND PUSH2 0x3DA1 SWAP1 SWAP3 SWAP2 SWAP1 PUSH4 0xFFFFFFFF AND JUMP JUMPDEST DUP1 MLOAD SWAP1 SWAP2 POP ISZERO PUSH2 0x29C1 JUMPI DUP1 DUP1 PUSH1 0x20 ADD SWAP1 MLOAD DUP2 ADD SWAP1 PUSH2 0x3D42 SWAP2 SWAP1 PUSH2 0x4848 JUMP JUMPDEST PUSH2 0x29C1 JUMPI PUSH1 0x40 MLOAD PUSH3 0x461BCD PUSH1 0xE5 SHL DUP2 MSTORE PUSH1 0x20 PUSH1 0x4 DUP3 ADD MSTORE PUSH1 0x2A PUSH1 0x24 DUP3 ADD MSTORE PUSH32 0x5361666545524332303A204552433230206F7065726174696F6E20646964206E PUSH1 0x44 DUP3 ADD MSTORE PUSH10 0x1BDD081CDD58D8D95959 PUSH1 0xB2 SHL PUSH1 0x64 DUP3 ADD MSTORE PUSH1 0x84 ADD PUSH2 0x429 JUMP JUMPDEST PUSH1 0x60 PUSH2 0x3DB0 DUP5 DUP5 PUSH1 0x0 DUP6 PUSH2 0x3DBA JUMP JUMPDEST SWAP1 POP JUMPDEST SWAP4 SWAP3 POP POP POP JUMP JUMPDEST PUSH1 0x60 DUP3 SELFBALANCE LT ISZERO PUSH2 0x3E1B JUMPI PUSH1 0x40 MLOAD PUSH3 0x461BCD PUSH1 0xE5 SHL DUP2 MSTORE PUSH1 0x20 PUSH1 0x4 DUP3 ADD MSTORE PUSH1 0x26 PUSH1 0x24 DUP3 ADD MSTORE PUSH32 0x416464726573733A20696E73756666696369656E742062616C616E636520666F PUSH1 0x44 DUP3 ADD MSTORE PUSH6 0x1C8818D85B1B PUSH1 0xD2 SHL PUSH1 0x64 DUP3 ADD MSTORE PUSH1 0x84 ADD PUSH2 0x429 JUMP JUMPDEST DUP5 EXTCODESIZE PUSH2 0x3E69 JUMPI PUSH1 0x40 MLOAD PUSH3 0x461BCD PUSH1 0xE5 SHL DUP2 MSTORE PUSH1 0x20 PUSH1 0x4 DUP3 ADD MSTORE PUSH1 0x1D PUSH1 0x24 DUP3 ADD MSTORE PUSH32 0x416464726573733A2063616C6C20746F206E6F6E2D636F6E7472616374000000 PUSH1 0x44 DUP3 ADD MSTORE PUSH1 0x64 ADD PUSH2 0x429 JUMP JUMPDEST PUSH1 0x0 DUP1 DUP7 PUSH1 0x1 PUSH1 0x1 PUSH1 0xA0 SHL SUB AND DUP6 DUP8 PUSH1 0x40 MLOAD PUSH2 0x3E85 SWAP2 SWAP1 PUSH2 0x491B JUMP JUMPDEST PUSH1 0x0 PUSH1 0x40 MLOAD DUP1 DUP4 SUB DUP2 DUP6 DUP8 GAS CALL SWAP3 POP POP POP RETURNDATASIZE DUP1 PUSH1 0x0 DUP2 EQ PUSH2 0x3EC2 JUMPI PUSH1 0x40 MLOAD SWAP2 POP PUSH1 0x1F NOT PUSH1 0x3F RETURNDATASIZE ADD AND DUP3 ADD PUSH1 0x40 MSTORE RETURNDATASIZE DUP3 MSTORE RETURNDATASIZE PUSH1 0x0 PUSH1 0x20 DUP5 ADD RETURNDATACOPY PUSH2 0x3EC7 JUMP JUMPDEST PUSH1 0x60 SWAP2 POP JUMPDEST POP SWAP2 POP SWAP2 POP PUSH2 0x3ED7 DUP3 DUP3 DUP7 PUSH2 0x3EE2 JUMP JUMPDEST SWAP8 SWAP7 POP POP POP POP POP POP POP JUMP JUMPDEST PUSH1 0x60 DUP4 ISZERO PUSH2 0x3EF1 JUMPI POP DUP2 PUSH2 0x3DB3 JUMP JUMPDEST DUP3 MLOAD ISZERO PUSH2 0x3F01 JUMPI DUP3 MLOAD DUP1 DUP5 PUSH1 0x20 ADD REVERT JUMPDEST DUP2 PUSH1 0x40 MLOAD PUSH3 0x461BCD PUSH1 0xE5 SHL DUP2 MSTORE PUSH1 0x4 ADD PUSH2 0x429 SWAP2 SWAP1 PUSH2 0x49CA JUMP JUMPDEST PUSH1 0x40 MLOAD DUP1 PUSH2 0x1C0 ADD PUSH1 0x40 MSTORE DUP1 PUSH1 0x0 DUP2 MSTORE PUSH1 0x20 ADD PUSH1 0x0 DUP2 MSTORE PUSH1 0x20 ADD PUSH1 0x60 DUP2 MSTORE PUSH1 0x20 ADD PUSH1 0x60 DUP2 MSTORE PUSH1 0x20 ADD PUSH1 0x60 DUP2 MSTORE PUSH1 0x20 ADD PUSH1 0x60 DUP2 MSTORE PUSH1 0x20 ADD PUSH1 0x60 DUP2 MSTORE PUSH1 0x20 ADD PUSH1 0x60 DUP2 MSTORE PUSH1 0x20 ADD PUSH1 0x60 DUP2 MSTORE PUSH1 0x20 ADD PUSH1 0x60 DUP2 MSTORE PUSH1 0x20 ADD PUSH1 0x60 DUP2 MSTORE PUSH1 0x20 ADD PUSH1 0x60 DUP2 MSTORE PUSH1 0x20 ADD PUSH1 0x60 DUP2 MSTORE PUSH1 0x20 ADD PUSH1 0x60 DUP2 MSTORE POP SWAP1 JUMP JUMPDEST PUSH1 0x0 DUP3 PUSH1 0x1F DUP4 ADD SLT PUSH2 0x3F9B JUMPI PUSH1 0x0 DUP1 REVERT JUMPDEST DUP2 CALLDATALOAD PUSH1 0x20 PUSH2 0x3FB0 PUSH2 0x3FAB DUP4 PUSH2 0x4B23 JUMP JUMPDEST PUSH2 0x4AF3 JUMP JUMPDEST DUP1 DUP4 DUP3 MSTORE DUP3 DUP3 ADD SWAP2 POP DUP3 DUP7 ADD DUP8 DUP5 DUP7 PUSH1 0x5 SHL DUP10 ADD ADD GT ISZERO PUSH2 0x3FD0 JUMPI PUSH1 0x0 DUP1 REVERT JUMPDEST PUSH1 0x0 JUMPDEST DUP6 DUP2 LT ISZERO PUSH2 0x3FF8 JUMPI DUP2 CALLDATALOAD PUSH2 0x3FE6 DUP2 PUSH2 0x4D89 JUMP JUMPDEST DUP5 MSTORE SWAP3 DUP5 ADD SWAP3 SWAP1 DUP5 ADD SWAP1 PUSH1 0x1 ADD PUSH2 0x3FD3 JUMP JUMPDEST POP SWAP1 SWAP8 SWAP7 POP POP POP POP POP POP POP JUMP JUMPDEST PUSH1 0x0 DUP3 PUSH1 0x1F DUP4 ADD SLT PUSH2 0x4016 JUMPI PUSH1 0x0 DUP1 REVERT JUMPDEST DUP2 CALLDATALOAD PUSH1 0x20 PUSH2 0x4026 PUSH2 0x3FAB DUP4 PUSH2 0x4B23 JUMP JUMPDEST DUP1 DUP4 DUP3 MSTORE DUP3 DUP3 ADD SWAP2 POP DUP3 DUP7 ADD DUP8 DUP5 DUP7 PUSH1 0x5 SHL DUP10 ADD ADD GT ISZERO PUSH2 0x4046 JUMPI PUSH1 0x0 DUP1 REVERT JUMPDEST PUSH1 0x0 JUMPDEST DUP6 DUP2 LT ISZERO PUSH2 0x3FF8 JUMPI DUP2 CALLDATALOAD PUSH2 0x405C DUP2 PUSH2 0x4D9E JUMP JUMPDEST DUP5 MSTORE SWAP3 DUP5 ADD SWAP3 SWAP1 DUP5 ADD SWAP1 PUSH1 0x1 ADD PUSH2 0x4049 JUMP JUMPDEST PUSH1 0x0 DUP3 PUSH1 0x1F DUP4 ADD SLT PUSH2 0x407F JUMPI PUSH1 0x0 DUP1 REVERT JUMPDEST DUP2 CALLDATALOAD PUSH1 0x20 PUSH2 0x408F PUSH2 0x3FAB DUP4 PUSH2 0x4B23 JUMP JUMPDEST DUP1 DUP4 DUP3 MSTORE DUP3 DUP3 ADD SWAP2 POP DUP3 DUP7 ADD DUP8 DUP5 DUP7 PUSH1 0x5 SHL DUP10 ADD ADD GT ISZERO PUSH2 0x40AF JUMPI PUSH1 0x0 DUP1 REVERT JUMPDEST PUSH1 0x0 JUMPDEST DUP6 DUP2 LT ISZERO PUSH2 0x3FF8 JUMPI PUSH2 0x40C3 DUP3 PUSH2 0x4219 JUMP JUMPDEST DUP5 MSTORE SWAP3 DUP5 ADD SWAP3 SWAP1 DUP5 ADD SWAP1 PUSH1 0x1 ADD PUSH2 0x40B2 JUMP JUMPDEST PUSH1 0x0 DUP3 PUSH1 0x1F DUP4 ADD SLT PUSH2 0x40E6 JUMPI PUSH1 0x0 DUP1 REVERT JUMPDEST DUP2 CALLDATALOAD PUSH1 0x20 PUSH2 0x40F6 PUSH2 0x3FAB DUP4 PUSH2 0x4B23 JUMP JUMPDEST DUP1 DUP4 DUP3 MSTORE DUP3 DUP3 ADD SWAP2 POP DUP3 DUP7 ADD DUP8 DUP5 DUP7 PUSH1 0x5 SHL DUP10 ADD ADD GT ISZERO PUSH2 0x4116 JUMPI PUSH1 0x0 DUP1 REVERT JUMPDEST PUSH1 0x0 DUP1 JUMPDEST DUP7 DUP2 LT ISZERO PUSH2 0x4142 JUMPI DUP3 CALLDATALOAD PUSH1 0x2 DUP2 LT PUSH2 0x4130 JUMPI DUP3 DUP4 REVERT JUMPDEST DUP6 MSTORE SWAP4 DUP6 ADD SWAP4 SWAP2 DUP6 ADD SWAP2 PUSH1 0x1 ADD PUSH2 0x411A JUMP JUMPDEST POP SWAP2 SWAP9 SWAP8 POP POP POP POP POP POP POP POP JUMP JUMPDEST PUSH1 0x0 DUP3 PUSH1 0x1F DUP4 ADD SLT PUSH2 0x4161 JUMPI PUSH1 0x0 DUP1 REVERT JUMPDEST DUP2 CALLDATALOAD PUSH1 0x20 PUSH2 0x4171 PUSH2 0x3FAB DUP4 PUSH2 0x4B23 JUMP JUMPDEST DUP1 DUP4 DUP3 MSTORE DUP3 DUP3 ADD SWAP2 POP DUP3 DUP7 ADD DUP8 DUP5 DUP7 PUSH1 0x5 SHL DUP10 ADD ADD GT ISZERO PUSH2 0x4191 JUMPI PUSH1 0x0 DUP1 REVERT JUMPDEST PUSH1 0x0 JUMPDEST DUP6 DUP2 LT ISZERO PUSH2 0x3FF8 JUMPI DUP2 CALLDATALOAD DUP5 MSTORE SWAP3 DUP5 ADD SWAP3 SWAP1 DUP5 ADD SWAP1 PUSH1 0x1 ADD PUSH2 0x4194 JUMP JUMPDEST PUSH1 0x0 DUP3 PUSH1 0x1F DUP4 ADD SLT PUSH2 0x41C1 JUMPI PUSH1 0x0 DUP1 REVERT JUMPDEST DUP2 CALLDATALOAD PUSH1 0x20 PUSH2 0x41D1 PUSH2 0x3FAB DUP4 PUSH2 0x4B23 JUMP JUMPDEST DUP1 DUP4 DUP3 MSTORE DUP3 DUP3 ADD SWAP2 POP DUP3 DUP7 ADD DUP8 DUP5 DUP7 PUSH1 0x5 SHL DUP10 ADD ADD GT ISZERO PUSH2 0x41F1 JUMPI PUSH1 0x0 DUP1 REVERT JUMPDEST PUSH1 0x0 JUMPDEST DUP6 DUP2 LT ISZERO PUSH2 0x3FF8 JUMPI DUP2 CALLDATALOAD PUSH2 0x4207 DUP2 PUSH2 0x4DAC JUMP JUMPDEST DUP5 MSTORE SWAP3 DUP5 ADD SWAP3 SWAP1 DUP5 ADD SWAP1 PUSH1 0x1 ADD PUSH2 0x41F4 JUMP JUMPDEST DUP1 CALLDATALOAD PUSH1 0x1 PUSH1 0x1 PUSH1 0xE0 SHL SUB NOT DUP2 AND DUP2 EQ PUSH2 0x4231 JUMPI PUSH1 0x0 DUP1 REVERT JUMPDEST SWAP2 SWAP1 POP JUMP JUMPDEST PUSH1 0x0 DUP3 PUSH1 0x1F DUP4 ADD SLT PUSH2 0x4247 JUMPI PUSH1 0x0 DUP1 REVERT JUMPDEST DUP2 CALLDATALOAD PUSH1 0x1 PUSH1 0x1 PUSH1 0x40 SHL SUB DUP2 GT ISZERO PUSH2 0x4260 JUMPI PUSH2 0x4260 PUSH2 0x4D73 JUMP JUMPDEST PUSH2 0x4273 PUSH1 0x1F DUP3 ADD PUSH1 0x1F NOT AND PUSH1 0x20 ADD PUSH2 0x4AF3 JUMP JUMPDEST DUP2 DUP2 MSTORE DUP5 PUSH1 0x20 DUP4 DUP7 ADD ADD GT ISZERO PUSH2 0x4288 JUMPI PUSH1 0x0 DUP1 REVERT JUMPDEST DUP2 PUSH1 0x20 DUP6 ADD PUSH1 0x20 DUP4 ADD CALLDATACOPY PUSH1 0x0 SWAP2 DUP2 ADD PUSH1 0x20 ADD SWAP2 SWAP1 SWAP2 MSTORE SWAP4 SWAP3 POP POP POP JUMP JUMPDEST PUSH1 0x0 PUSH1 0x20 DUP3 DUP5 SUB SLT ISZERO PUSH2 0x42B7 JUMPI PUSH1 0x0 DUP1 REVERT JUMPDEST DUP2 MLOAD PUSH2 0x3DB3 DUP2 PUSH2 0x4D89 JUMP JUMPDEST PUSH1 0x0 PUSH1 0x20 DUP3 DUP5 SUB SLT ISZERO PUSH2 0x42D4 JUMPI PUSH1 0x0 DUP1 REVERT JUMPDEST DUP2 CALLDATALOAD PUSH2 0x3DB3 DUP2 PUSH2 0x4D89 JUMP JUMPDEST PUSH1 0x0 DUP1 PUSH1 0x0 DUP1 PUSH1 0x0 PUSH1 0xA0 DUP7 DUP9 SUB SLT ISZERO PUSH2 0x42F7 JUMPI PUSH1 0x0 DUP1 REVERT JUMPDEST DUP6 CALLDATALOAD PUSH2 0x4302 DUP2 PUSH2 0x4D89 JUMP JUMPDEST SWAP5 POP PUSH1 0x20 DUP7 ADD CALLDATALOAD PUSH2 0x4312 DUP2 PUSH2 0x4D89 JUMP JUMPDEST SWAP4 POP PUSH1 0x40 DUP7 ADD CALLDATALOAD PUSH1 0x1 PUSH1 0x1 PUSH1 0x40 SHL SUB DUP1 DUP3 GT ISZERO PUSH2 0x432E JUMPI PUSH1 0x0 DUP1 REVERT JUMPDEST PUSH2 0x433A DUP10 DUP4 DUP11 ADD PUSH2 0x4150 JUMP JUMPDEST SWAP5 POP PUSH1 0x60 DUP9 ADD CALLDATALOAD SWAP2 POP DUP1 DUP3 GT ISZERO PUSH2 0x4350 JUMPI PUSH1 0x0 DUP1 REVERT JUMPDEST PUSH2 0x435C DUP10 DUP4 DUP11 ADD PUSH2 0x4150 JUMP JUMPDEST SWAP4 POP PUSH1 0x80 DUP9 ADD CALLDATALOAD SWAP2 POP DUP1 DUP3 GT ISZERO PUSH2 0x4372 JUMPI PUSH1 0x0 DUP1 REVERT JUMPDEST POP PUSH2 0x437F DUP9 DUP3 DUP10 ADD PUSH2 0x4236 JUMP JUMPDEST SWAP2 POP POP SWAP3 SWAP6 POP SWAP3 SWAP6 SWAP1 SWAP4 POP JUMP JUMPDEST PUSH1 0x0 DUP1 PUSH1 0x0 DUP1 PUSH1 0x80 DUP6 DUP8 SUB SLT ISZERO PUSH2 0x43A2 JUMPI PUSH1 0x0 DUP1 REVERT JUMPDEST DUP5 CALLDATALOAD PUSH2 0x43AD DUP2 PUSH2 0x4D89 JUMP JUMPDEST SWAP4 POP PUSH1 0x20 DUP6 ADD CALLDATALOAD PUSH2 0x43BD DUP2 PUSH2 0x4D89 JUMP JUMPDEST SWAP3 POP PUSH1 0x40 DUP6 ADD CALLDATALOAD SWAP2 POP PUSH1 0x60 DUP6 ADD CALLDATALOAD PUSH1 0x1 PUSH1 0x1 PUSH1 0x40 SHL SUB DUP2 GT ISZERO PUSH2 0x43DF JUMPI PUSH1 0x0 DUP1 REVERT JUMPDEST PUSH2 0x43EB DUP8 DUP3 DUP9 ADD PUSH2 0x4236 JUMP JUMPDEST SWAP2 POP POP SWAP3 SWAP6 SWAP2 SWAP5 POP SWAP3 POP JUMP JUMPDEST PUSH1 0x0 DUP1 PUSH1 0x0 DUP1 PUSH1 0x0 PUSH1 0xA0 DUP7 DUP9 SUB SLT ISZERO PUSH2 0x440F JUMPI PUSH1 0x0 DUP1 REVERT JUMPDEST DUP6 CALLDATALOAD PUSH2 0x441A DUP2 PUSH2 0x4D89 JUMP JUMPDEST SWAP5 POP PUSH1 0x20 DUP7 ADD CALLDATALOAD PUSH2 0x442A DUP2 PUSH2 0x4D89 JUMP JUMPDEST SWAP4 POP PUSH1 0x40 DUP7 ADD CALLDATALOAD SWAP3 POP PUSH1 0x60 DUP7 ADD CALLDATALOAD SWAP2 POP PUSH1 0x80 DUP7 ADD CALLDATALOAD PUSH1 0x1 PUSH1 0x1 PUSH1 0x40 SHL SUB DUP2 GT ISZERO PUSH2 0x4453 JUMPI PUSH1 0x0 DUP1 REVERT JUMPDEST PUSH2 0x437F DUP9 DUP3 DUP10 ADD PUSH2 0x4236 JUMP JUMPDEST PUSH1 0x0 DUP1 PUSH1 0x0 PUSH1 0x60 DUP5 DUP7 SUB SLT ISZERO PUSH2 0x4474 JUMPI PUSH1 0x0 DUP1 REVERT JUMPDEST DUP4 CALLDATALOAD PUSH2 0x447F DUP2 PUSH2 0x4D89 JUMP JUMPDEST SWAP6 PUSH1 0x20 DUP6 ADD CALLDATALOAD SWAP6 POP PUSH1 0x40 SWAP1 SWAP5 ADD CALLDATALOAD SWAP4 SWAP3 POP POP POP JUMP JUMPDEST PUSH1 0x0 DUP1 PUSH1 0x0 DUP1 PUSH1 0x80 DUP6 DUP8 SUB SLT ISZERO PUSH2 0x44AA JUMPI PUSH1 0x0 DUP1 REVERT JUMPDEST DUP5 CALLDATALOAD PUSH1 0x1 PUSH1 0x1 PUSH1 0x40 SHL SUB DUP1 DUP3 GT ISZERO PUSH2 0x44C1 JUMPI PUSH1 0x0 DUP1 REVERT JUMPDEST PUSH2 0x44CD DUP9 DUP4 DUP10 ADD PUSH2 0x40D5 JUMP JUMPDEST SWAP6 POP PUSH1 0x20 DUP8 ADD CALLDATALOAD SWAP2 POP DUP1 DUP3 GT ISZERO PUSH2 0x44E3 JUMPI PUSH1 0x0 DUP1 REVERT JUMPDEST PUSH2 0x44EF DUP9 DUP4 DUP10 ADD PUSH2 0x3F8A JUMP JUMPDEST SWAP5 POP PUSH1 0x40 DUP8 ADD CALLDATALOAD SWAP2 POP DUP1 DUP3 GT ISZERO PUSH2 0x4505 JUMPI PUSH1 0x0 DUP1 REVERT JUMPDEST PUSH2 0x4511 DUP9 DUP4 DUP10 ADD PUSH2 0x4150 JUMP JUMPDEST SWAP4 POP PUSH1 0x60 DUP8 ADD CALLDATALOAD SWAP2 POP DUP1 DUP3 GT ISZERO PUSH2 0x4527 JUMPI PUSH1 0x0 DUP1 REVERT JUMPDEST POP PUSH2 0x43EB DUP8 DUP3 DUP9 ADD PUSH2 0x4150 JUMP JUMPDEST PUSH1 0x0 DUP1 PUSH1 0x0 DUP1 PUSH1 0x0 PUSH1 0xA0 DUP7 DUP9 SUB SLT ISZERO PUSH2 0x454C JUMPI PUSH1 0x0 DUP1 REVERT JUMPDEST DUP6 CALLDATALOAD PUSH1 0x1 PUSH1 0x1 PUSH1 0x40 SHL SUB DUP1 DUP3 GT ISZERO PUSH2 0x4563 JUMPI PUSH1 0x0 DUP1 REVERT JUMPDEST PUSH2 0x456F DUP10 DUP4 DUP11 ADD PUSH2 0x40D5 JUMP JUMPDEST SWAP7 POP PUSH1 0x20 DUP9 ADD CALLDATALOAD SWAP2 POP DUP1 DUP3 GT ISZERO PUSH2 0x4585 JUMPI PUSH1 0x0 DUP1 REVERT JUMPDEST PUSH2 0x4591 DUP10 DUP4 DUP11 ADD PUSH2 0x3F8A JUMP JUMPDEST SWAP6 POP PUSH1 0x40 DUP9 ADD CALLDATALOAD SWAP2 POP DUP1 DUP3 GT ISZERO PUSH2 0x45A7 JUMPI PUSH1 0x0 DUP1 REVERT JUMPDEST PUSH2 0x45B3 DUP10 DUP4 DUP11 ADD PUSH2 0x4150 JUMP JUMPDEST SWAP5 POP PUSH1 0x60 DUP9 ADD CALLDATALOAD SWAP2 POP DUP1 DUP3 GT ISZERO PUSH2 0x45C9 JUMPI PUSH1 0x0 DUP1 REVERT JUMPDEST PUSH2 0x45D5 DUP10 DUP4 DUP11 ADD PUSH2 0x4150 JUMP JUMPDEST SWAP4 POP PUSH1 0x80 DUP9 ADD CALLDATALOAD SWAP2 POP DUP1 DUP3 GT ISZERO PUSH2 0x45EB JUMPI PUSH1 0x0 DUP1 REVERT JUMPDEST POP PUSH2 0x437F DUP9 DUP3 DUP10 ADD PUSH2 0x4150 JUMP JUMPDEST PUSH1 0x0 DUP1 PUSH1 0x0 DUP1 PUSH1 0x0 DUP1 PUSH1 0x0 DUP1 PUSH2 0x100 DUP10 DUP12 SUB SLT ISZERO PUSH2 0x4615 JUMPI PUSH1 0x0 DUP1 REVERT JUMPDEST DUP9 CALLDATALOAD PUSH1 0x1 PUSH1 0x1 PUSH1 0x40 SHL SUB DUP1 DUP3 GT ISZERO PUSH2 0x462C JUMPI PUSH1 0x0 DUP1 REVERT JUMPDEST PUSH2 0x4638 DUP13 DUP4 DUP14 ADD PUSH2 0x40D5 JUMP JUMPDEST SWAP10 POP PUSH1 0x20 DUP12 ADD CALLDATALOAD SWAP2 POP DUP1 DUP3 GT ISZERO PUSH2 0x464E JUMPI PUSH1 0x0 DUP1 REVERT JUMPDEST PUSH2 0x465A DUP13 DUP4 DUP14 ADD PUSH2 0x3F8A JUMP JUMPDEST SWAP9 POP PUSH1 0x40 DUP12 ADD CALLDATALOAD SWAP2 POP DUP1 DUP3 GT ISZERO PUSH2 0x4670 JUMPI PUSH1 0x0 DUP1 REVERT JUMPDEST PUSH2 0x467C DUP13 DUP4 DUP14 ADD PUSH2 0x4150 JUMP JUMPDEST SWAP8 POP PUSH1 0x60 DUP12 ADD CALLDATALOAD SWAP2 POP DUP1 DUP3 GT ISZERO PUSH2 0x4692 JUMPI PUSH1 0x0 DUP1 REVERT JUMPDEST PUSH2 0x469E DUP13 DUP4 DUP14 ADD PUSH2 0x4150 JUMP JUMPDEST SWAP7 POP PUSH1 0x80 DUP12 ADD CALLDATALOAD SWAP2 POP DUP1 DUP3 GT ISZERO PUSH2 0x46B4 JUMPI PUSH1 0x0 DUP1 REVERT JUMPDEST PUSH2 0x46C0 DUP13 DUP4 DUP14 ADD PUSH2 0x41B0 JUMP JUMPDEST SWAP6 POP PUSH1 0xA0 DUP12 ADD CALLDATALOAD SWAP2 POP DUP1 DUP3 GT ISZERO PUSH2 0x46D6 JUMPI PUSH1 0x0 DUP1 REVERT JUMPDEST PUSH2 0x46E2 DUP13 DUP4 DUP14 ADD PUSH2 0x406E JUMP JUMPDEST SWAP5 POP PUSH1 0xC0 DUP12 ADD CALLDATALOAD SWAP2 POP DUP1 DUP3 GT ISZERO PUSH2 0x46F8 JUMPI PUSH1 0x0 DUP1 REVERT JUMPDEST PUSH2 0x4704 DUP13 DUP4 DUP14 ADD PUSH2 0x41B0 JUMP JUMPDEST SWAP4 POP PUSH1 0xE0 DUP12 ADD CALLDATALOAD SWAP2 POP DUP1 DUP3 GT ISZERO PUSH2 0x471A JUMPI PUSH1 0x0 DUP1 REVERT JUMPDEST POP PUSH2 0x4727 DUP12 DUP3 DUP13 ADD PUSH2 0x4005 JUMP JUMPDEST SWAP2 POP POP SWAP3 SWAP6 SWAP9 POP SWAP3 SWAP6 SWAP9 SWAP1 SWAP4 SWAP7 POP JUMP JUMPDEST PUSH1 0x0 DUP1 PUSH1 0x0 DUP1 PUSH1 0x0 DUP1 PUSH1 0xC0 DUP8 DUP10 SUB SLT ISZERO PUSH2 0x4750 JUMPI PUSH1 0x0 DUP1 REVERT JUMPDEST DUP7 CALLDATALOAD PUSH1 0x1 PUSH1 0x1 PUSH1 0x40 SHL SUB DUP1 DUP3 GT ISZERO PUSH2 0x4767 JUMPI PUSH1 0x0 DUP1 REVERT JUMPDEST PUSH2 0x4773 DUP11 DUP4 DUP12 ADD PUSH2 0x40D5 JUMP JUMPDEST SWAP8 POP PUSH1 0x20 DUP10 ADD CALLDATALOAD SWAP2 POP DUP1 DUP3 GT ISZERO PUSH2 0x4789 JUMPI PUSH1 0x0 DUP1 REVERT JUMPDEST PUSH2 0x4795 DUP11 DUP4 DUP12 ADD PUSH2 0x3F8A JUMP JUMPDEST SWAP7 POP PUSH1 0x40 DUP10 ADD CALLDATALOAD SWAP2 POP DUP1 DUP3 GT ISZERO PUSH2 0x47AB JUMPI PUSH1 0x0 DUP1 REVERT JUMPDEST PUSH2 0x47B7 DUP11 DUP4 DUP12 ADD PUSH2 0x4150 JUMP JUMPDEST SWAP6 POP PUSH1 0x60 DUP10 ADD CALLDATALOAD SWAP2 POP DUP1 DUP3 GT ISZERO PUSH2 0x47CD JUMPI PUSH1 0x0 DUP1 REVERT JUMPDEST PUSH2 0x47D9 DUP11 DUP4 DUP12 ADD PUSH2 0x4150 JUMP JUMPDEST SWAP5 POP PUSH1 0x80 DUP10 ADD CALLDATALOAD SWAP2 POP DUP1 DUP3 GT ISZERO PUSH2 0x47EF JUMPI PUSH1 0x0 DUP1 REVERT JUMPDEST PUSH2 0x47FB DUP11 DUP4 DUP12 ADD PUSH2 0x41B0 JUMP JUMPDEST SWAP4 POP PUSH1 0xA0 DUP10 ADD CALLDATALOAD SWAP2 POP DUP1 DUP3 GT ISZERO PUSH2 0x4811 JUMPI PUSH1 0x0 DUP1 REVERT JUMPDEST POP PUSH2 0x481E DUP10 DUP3 DUP11 ADD PUSH2 0x4150 JUMP JUMPDEST SWAP2 POP POP SWAP3 SWAP6 POP SWAP3 SWAP6 POP SWAP3 SWAP6 JUMP JUMPDEST PUSH1 0x0 PUSH1 0x20 DUP3 DUP5 SUB SLT ISZERO PUSH2 0x483D JUMPI PUSH1 0x0 DUP1 REVERT JUMPDEST DUP2 CALLDATALOAD PUSH2 0x3DB3 DUP2 PUSH2 0x4D9E JUMP JUMPDEST PUSH1 0x0 PUSH1 0x20 DUP3 DUP5 SUB SLT ISZERO PUSH2 0x485A JUMPI PUSH1 0x0 DUP1 REVERT JUMPDEST DUP2 MLOAD PUSH2 0x3DB3 DUP2 PUSH2 0x4D9E JUMP JUMPDEST PUSH1 0x0 PUSH1 0x20 DUP3 DUP5 SUB SLT ISZERO PUSH2 0x4877 JUMPI PUSH1 0x0 DUP1 REVERT JUMPDEST PUSH2 0x3DB3 DUP3 PUSH2 0x4219 JUMP JUMPDEST PUSH1 0x0 PUSH1 0x20 DUP3 DUP5 SUB SLT ISZERO PUSH2 0x4892 JUMPI PUSH1 0x0 DUP1 REVERT JUMPDEST POP CALLDATALOAD SWAP2 SWAP1 POP JUMP JUMPDEST PUSH1 0x0 PUSH1 0x20 DUP3 DUP5 SUB SLT ISZERO PUSH2 0x48AB JUMPI PUSH1 0x0 DUP1 REVERT JUMPDEST DUP2 MLOAD PUSH2 0x3DB3 DUP2 PUSH2 0x4DAC JUMP JUMPDEST PUSH1 0x0 DUP2 MLOAD DUP1 DUP5 MSTORE PUSH1 0x20 DUP1 DUP6 ADD SWAP5 POP DUP1 DUP5 ADD PUSH1 0x0 JUMPDEST DUP4 DUP2 LT ISZERO PUSH2 0x48E6 JUMPI DUP2 MLOAD DUP8 MSTORE SWAP6 DUP3 ADD SWAP6 SWAP1 DUP3 ADD SWAP1 PUSH1 0x1 ADD PUSH2 0x48CA JUMP JUMPDEST POP SWAP5 SWAP6 SWAP5 POP POP POP POP POP JUMP JUMPDEST PUSH1 0x60 SWAP4 SWAP1 SWAP4 SHL PUSH12 0xFFFFFFFFFFFFFFFFFFFFFFFF NOT AND DUP4 MSTORE PUSH1 0x14 DUP4 ADD SWAP2 SWAP1 SWAP2 MSTORE PUSH1 0x34 DUP3 ADD MSTORE PUSH1 0x54 ADD SWAP1 JUMP JUMPDEST PUSH1 0x0 DUP3 MLOAD PUSH2 0x492D DUP2 DUP5 PUSH1 0x20 DUP8 ADD PUSH2 0x4CEA JUMP JUMPDEST SWAP2 SWAP1 SWAP2 ADD SWAP3 SWAP2 POP POP JUMP JUMPDEST PUSH1 0x1 PUSH1 0x1 PUSH1 0xA0 SHL SUB SWAP5 DUP6 AND DUP2 MSTORE SWAP3 SWAP1 SWAP4 AND PUSH1 0x20 DUP4 ADD MSTORE PUSH1 0x40 DUP3 ADD MSTORE PUSH1 0x60 DUP2 ADD SWAP2 SWAP1 SWAP2 MSTORE PUSH1 0xA0 PUSH1 0x80 DUP3 ADD DUP2 SWAP1 MSTORE PUSH1 0x0 SWAP1 DUP3 ADD MSTORE PUSH1 0xC0 ADD SWAP1 JUMP JUMPDEST PUSH1 0x1 PUSH1 0x1 PUSH1 0xA0 SHL SUB DUP6 DUP2 AND DUP3 MSTORE DUP5 AND PUSH1 0x20 DUP3 ADD MSTORE PUSH1 0xA0 PUSH1 0x40 DUP3 ADD DUP2 SWAP1 MSTORE PUSH1 0x0 SWAP1 PUSH2 0x499B SWAP1 DUP4 ADD DUP6 PUSH2 0x48B6 JUMP JUMPDEST DUP3 DUP2 SUB PUSH1 0x60 DUP5 ADD MSTORE PUSH2 0x49AD DUP2 DUP6 PUSH2 0x48B6 JUMP JUMPDEST DUP4 DUP2 SUB PUSH1 0x80 SWAP1 SWAP5 ADD SWAP4 SWAP1 SWAP4 MSTORE POP POP PUSH1 0x0 DUP2 MSTORE PUSH1 0x20 ADD SWAP5 SWAP4 POP POP POP POP JUMP JUMPDEST PUSH1 0x20 DUP2 MSTORE PUSH1 0x0 DUP3 MLOAD DUP1 PUSH1 0x20 DUP5 ADD MSTORE PUSH2 0x49E9 DUP2 PUSH1 0x40 DUP6 ADD PUSH1 0x20 DUP8 ADD PUSH2 0x4CEA JUMP JUMPDEST PUSH1 0x1F ADD PUSH1 0x1F NOT AND SWAP2 SWAP1 SWAP2 ADD PUSH1 0x40 ADD SWAP3 SWAP2 POP POP JUMP JUMPDEST PUSH1 0x20 DUP1 DUP3 MSTORE PUSH1 0x1B SWAP1 DUP3 ADD MSTORE PUSH32 0x52654E46543A3A696E76616C6964206E6674207374616E646172640000000000 PUSH1 0x40 DUP3 ADD MSTORE PUSH1 0x60 ADD SWAP1 JUMP JUMPDEST PUSH1 0x20 DUP1 DUP3 MSTORE PUSH1 0x17 SWAP1 DUP3 ADD MSTORE PUSH32 0x52654E46543A3A6475726174696F6E206973207A65726F000000000000000000 PUSH1 0x40 DUP3 ADD MSTORE PUSH1 0x60 ADD SWAP1 JUMP JUMPDEST PUSH1 0x20 DUP1 DUP3 MSTORE PUSH1 0x19 SWAP1 DUP3 ADD MSTORE PUSH32 0x52654E46543A3A72656E74207072696365206973207A65726F00000000000000 PUSH1 0x40 DUP3 ADD MSTORE PUSH1 0x60 ADD SWAP1 JUMP JUMPDEST PUSH1 0x20 DUP1 DUP3 MSTORE PUSH1 0xD SWAP1 DUP3 ADD MSTORE PUSH13 0x14995391950E8E9C185D5CD959 PUSH1 0x9A SHL PUSH1 0x40 DUP3 ADD MSTORE PUSH1 0x60 ADD SWAP1 JUMP JUMPDEST PUSH1 0x20 DUP1 DUP3 MSTORE PUSH1 0x10 SWAP1 DUP3 ADD MSTORE PUSH16 0x2932A7232A1D1D3737BA1030B236B4B7 PUSH1 0x81 SHL PUSH1 0x40 DUP3 ADD MSTORE PUSH1 0x60 ADD SWAP1 JUMP JUMPDEST PUSH1 0x40 MLOAD PUSH1 0x1F DUP3 ADD PUSH1 0x1F NOT AND DUP2 ADD PUSH1 0x1 PUSH1 0x1 PUSH1 0x40 SHL SUB DUP2 GT DUP3 DUP3 LT OR ISZERO PUSH2 0x4B1B JUMPI PUSH2 0x4B1B PUSH2 0x4D73 JUMP JUMPDEST PUSH1 0x40 MSTORE SWAP2 SWAP1 POP JUMP JUMPDEST PUSH1 0x0 PUSH1 0x1 PUSH1 0x1 PUSH1 0x40 SHL SUB DUP3 GT ISZERO PUSH2 0x4B3C JUMPI PUSH2 0x4B3C PUSH2 0x4D73 JUMP JUMPDEST POP PUSH1 0x5 SHL PUSH1 0x20 ADD SWAP1 JUMP JUMPDEST PUSH1 0x0 PUSH2 0xFFFF DUP1 DUP4 AND DUP2 DUP6 AND DUP1 DUP4 SUB DUP3 GT ISZERO PUSH2 0x4B63 JUMPI PUSH2 0x4B63 PUSH2 0x4D31 JUMP JUMPDEST ADD SWAP5 SWAP4 POP POP POP POP JUMP JUMPDEST PUSH1 0x0 DUP3 NOT DUP3 GT ISZERO PUSH2 0x4B7F JUMPI PUSH2 0x4B7F PUSH2 0x4D31 JUMP JUMPDEST POP ADD SWAP1 JUMP JUMPDEST PUSH1 0x0 DUP3 PUSH2 0x4BA1 JUMPI PUSH4 0x4E487B71 PUSH1 0xE0 SHL PUSH1 0x0 MSTORE PUSH1 0x12 PUSH1 0x4 MSTORE PUSH1 0x24 PUSH1 0x0 REVERT JUMPDEST POP DIV SWAP1 JUMP JUMPDEST PUSH1 0x1 DUP2 DUP2 JUMPDEST DUP1 DUP6 GT ISZERO PUSH2 0x4BE1 JUMPI DUP2 PUSH1 0x0 NOT DIV DUP3 GT ISZERO PUSH2 0x4BC7 JUMPI PUSH2 0x4BC7 PUSH2 0x4D31 JUMP JUMPDEST DUP1 DUP6 AND ISZERO PUSH2 0x4BD4 JUMPI SWAP2 DUP2 MUL SWAP2 JUMPDEST SWAP4 DUP5 SHR SWAP4 SWAP1 DUP1 MUL SWAP1 PUSH2 0x4BAB JUMP JUMPDEST POP SWAP3 POP SWAP3 SWAP1 POP JUMP JUMPDEST PUSH1 0x0 PUSH2 0x3DB3 DUP4 DUP4 PUSH1 0x0 DUP3 PUSH2 0x4BFF JUMPI POP PUSH1 0x1 PUSH2 0x400 JUMP JUMPDEST DUP2 PUSH2 0x4C0C JUMPI POP PUSH1 0x0 PUSH2 0x400 JUMP JUMPDEST DUP2 PUSH1 0x1 DUP2 EQ PUSH2 0x4C22 JUMPI PUSH1 0x2 DUP2 EQ PUSH2 0x4C2C JUMPI PUSH2 0x4C48 JUMP JUMPDEST PUSH1 0x1 SWAP2 POP POP PUSH2 0x400 JUMP JUMPDEST PUSH1 0xFF DUP5 GT ISZERO PUSH2 0x4C3D JUMPI PUSH2 0x4C3D PUSH2 0x4D31 JUMP JUMPDEST POP POP PUSH1 0x1 DUP3 SHL PUSH2 0x400 JUMP JUMPDEST POP PUSH1 0x20 DUP4 LT PUSH2 0x133 DUP4 LT AND PUSH1 0x4E DUP5 LT PUSH1 0xB DUP5 LT AND OR ISZERO PUSH2 0x4C6B JUMPI POP DUP2 DUP2 EXP PUSH2 0x400 JUMP JUMPDEST PUSH2 0x4C75 DUP4 DUP4 PUSH2 0x4BA6 JUMP JUMPDEST DUP1 PUSH1 0x0 NOT DIV DUP3 GT ISZERO PUSH2 0x4C89 JUMPI PUSH2 0x4C89 PUSH2 0x4D31 JUMP JUMPDEST MUL SWAP4 SWAP3 POP POP POP JUMP JUMPDEST PUSH1 0x0 DUP2 PUSH1 0x0 NOT DIV DUP4 GT DUP3 ISZERO ISZERO AND ISZERO PUSH2 0x4CAB JUMPI PUSH2 0x4CAB PUSH2 0x4D31 JUMP JUMPDEST POP MUL SWAP1 JUMP JUMPDEST PUSH1 0x0 PUSH2 0xFFFF DUP4 DUP2 AND SWAP1 DUP4 AND DUP2 DUP2 LT ISZERO PUSH2 0x4CCB JUMPI PUSH2 0x4CCB PUSH2 0x4D31 JUMP JUMPDEST SUB SWAP4 SWAP3 POP POP POP JUMP JUMPDEST PUSH1 0x0 DUP3 DUP3 LT ISZERO PUSH2 0x4CE5 JUMPI PUSH2 0x4CE5 PUSH2 0x4D31 JUMP JUMPDEST POP SUB SWAP1 JUMP JUMPDEST PUSH1 0x0 JUMPDEST DUP4 DUP2 LT ISZERO PUSH2 0x4D05 JUMPI DUP2 DUP2 ADD MLOAD DUP4 DUP3 ADD MSTORE PUSH1 0x20 ADD PUSH2 0x4CED JUMP JUMPDEST DUP4 DUP2 GT ISZERO PUSH2 0x6AA JUMPI POP POP PUSH1 0x0 SWAP2 ADD MSTORE JUMP JUMPDEST PUSH1 0x0 PUSH1 0x0 NOT DUP3 EQ ISZERO PUSH2 0x4D2A JUMPI PUSH2 0x4D2A PUSH2 0x4D31 JUMP JUMPDEST POP PUSH1 0x1 ADD SWAP1 JUMP JUMPDEST PUSH4 0x4E487B71 PUSH1 0xE0 SHL PUSH1 0x0 MSTORE PUSH1 0x11 PUSH1 0x4 MSTORE PUSH1 0x24 PUSH1 0x0 REVERT JUMPDEST PUSH4 0x4E487B71 PUSH1 0xE0 SHL PUSH1 0x0 MSTORE PUSH1 0x21 PUSH1 0x4 MSTORE PUSH1 0x24 PUSH1 0x0 REVERT JUMPDEST PUSH4 0x4E487B71 PUSH1 0xE0 SHL PUSH1 0x0 MSTORE PUSH1 0x32 PUSH1 0x4 MSTORE PUSH1 0x24 PUSH1 0x0 REVERT JUMPDEST PUSH4 0x4E487B71 PUSH1 0xE0 SHL PUSH1 0x0 MSTORE PUSH1 0x41 PUSH1 0x4 MSTORE PUSH1 0x24 PUSH1 0x0 REVERT JUMPDEST PUSH1 0x1 PUSH1 0x1 PUSH1 0xA0 SHL SUB DUP2 AND DUP2 EQ PUSH2 0x26CC JUMPI PUSH1 0x0 DUP1 REVERT JUMPDEST DUP1 ISZERO ISZERO DUP2 EQ PUSH2 0x26CC JUMPI PUSH1 0x0 DUP1 REVERT JUMPDEST PUSH1 0xFF DUP2 AND DUP2 EQ PUSH2 0x26CC JUMPI PUSH1 0x0 DUP1 REVERT INVALID LOG2 PUSH5 0x6970667358 0x22 SLT KECCAK256 SWAP6 SWAP11 0xA8 0x4D 0xC9 PUSH2 0x2489 KECCAK256 SDIV CALLDATALOAD 0xCA MUL PUSH18 0x8710F16C79EC7E39A0D76E55DC56FFC1572D PUSH5 0x736F6C6343 STOP ADDMOD SMOD STOP CALLER ",
  "sha1": "ef2264e32977a3034e0c3ecad8897b5c25804676",
  "source": "// SPDX-License-Identifier: MIT\npragma solidity =0.8.7;\n\nimport \"OpenZeppelin/openzeppelin-contracts@4.3.0/contracts/token/ERC20/ERC20.sol\";\nimport \"OpenZeppelin/openzeppelin-contracts@4.3.0/contracts/token/ERC20/IERC20.sol\";\nimport \"OpenZeppelin/openzeppelin-contracts@4.3.0/contracts/token/ERC20/utils/SafeERC20.sol\";\nimport \"OpenZeppelin/openzeppelin-contracts@4.3.0/contracts/token/ERC721/IERC721.sol\";\nimport \"OpenZeppelin/openzeppelin-contracts@4.3.0/contracts/token/ERC721/utils/ERC721Holder.sol\";\nimport \"OpenZeppelin/openzeppelin-contracts@4.3.0/contracts/token/ERC1155/IERC1155.sol\";\nimport \"OpenZeppelin/openzeppelin-contracts@4.3.0/contracts/token/ERC1155/utils/ERC1155Holder.sol\";\nimport \"OpenZeppelin/openzeppelin-contracts@4.3.0/contracts/token/ERC1155/utils/ERC1155Receiver.sol\";\n\nimport \"./interfaces/IRegistry.sol\";\n\n//              @@@@@@@@@@@@@@@@        ,@@@@@@@@@@@@@@@@\n//              @@@,,,,,,,,,,@@@        ,@@&,,,,,,,,,,@@@\n//         @@@@@@@@,,,,,,,,,,@@@@@@@@&  ,@@&,,,,,,,,,,@@@@@@@@\n//         @@@**********@@@@@@@@@@@@@&  ,@@@@@@@@**********@@@\n//         @@@**********@@@@@@@@@@@@@&  ,@@@@@@@@**********@@@@@@@@\n//         @@@**********@@@@@@@@@@@@@&       .@@@**********@@@@@@@@\n//    @@@@@@@@**********@@@@@@@@@@@@@&       .@@@**********@@@@@@@@\n//    @@@**********@@@@@@@@@@@@@&            .@@@@@@@@**********@@@\n//    @@@**********@@@@@@@@@@@@@&            .@@@@@@@@**********@@@@@@@@\n//    @@@@@@@@**********@@@@@@@@&            .@@@**********@@@@@@@@@@@@@\n//    @@@@@@@@//////////@@@@@@@@&            .@@@//////////@@@@@@@@@@@@@\n//         @@@//////////@@@@@@@@&            .@@@//////////@@@@@@@@@@@@@\n//         @@@//////////@@@@@@@@&       ,@@@@@@@@//////////@@@@@@@@@@@@@\n//         @@@%%%%%/////(((((@@@&       ,@@@(((((/////%%%%%@@@@@@@@\n//         @@@@@@@@//////////@@@@@@@@&  ,@@@//////////@@@@@@@@@@@@@\n//              @@@%%%%%%%%%%@@@@@@@@&  ,@@@%%%%%%%%%%@@@@@@@@@@@@@\n//              @@@@@@@@@@@@@@@@@@@@@&  ,@@@@@@@@@@@@@@@@@@@@@@@@@@\n//                   @@@@@@@@@@@@@@@@&        @@@@@@@@@@@@@@@@\n//                   @@@@@@@@@@@@@@@@&        @@@@@@@@@@@@@@@@\n\ncontract Registry is IRegistry, ERC721Holder, ERC1155Receiver, ERC1155Holder {\n    using SafeERC20 for ERC20;\n\n    IResolver private resolver;\n    address private admin;\n    address payable private beneficiary;\n    uint256 private lendingID = 1;\n    uint256 private rentingID = 1;\n    bool public paused = false;\n    uint256 public rentFee = 0;\n    uint256 private constant SECONDS_IN_DAY = 86400;\n    mapping(bytes32 => Lending) private lendings;\n    mapping(bytes32 => Renting) private rentings;\n\n    modifier onlyAdmin() {\n        require(msg.sender == admin, \"ReNFT::not admin\");\n        _;\n    }\n\n    modifier notPaused() {\n        require(!paused, \"ReNFT::paused\");\n        _;\n    }\n\n    constructor(address newResolver, address payable newBeneficiary, address newAdmin) {\n        ensureIsNotZeroAddr(newResolver);\n        ensureIsNotZeroAddr(newBeneficiary);\n        ensureIsNotZeroAddr(newAdmin);\n        resolver = IResolver(newResolver);\n        beneficiary = newBeneficiary;\n        admin = newAdmin;\n    }\n\n    function lend(\n        IRegistry.NFTStandard[] memory nftStandard,\n        address[] memory nftAddress,\n        uint256[] memory tokenID,\n        uint256[] memory lendAmount,\n        uint8[] memory maxRentDuration,\n        bytes4[] memory dailyRentPrice,\n        uint8[] memory paymentToken,\n        bool[] memory willAutoRenew\n    ) external override notPaused {\n        bundleCall(\n            handleLend,\n            createLendCallData(\n                nftStandard,\n                nftAddress,\n                tokenID,\n                lendAmount,\n                maxRentDuration,\n                dailyRentPrice,\n                paymentToken,\n                willAutoRenew\n            )\n        );\n    }\n\n    function stopLend(\n        IRegistry.NFTStandard[] memory nftStandard,\n        address[] memory nftAddress,\n        uint256[] memory tokenID,\n        uint256[] memory _lendingID\n    ) external override notPaused {\n        bundleCall(handleStopLend, createActionCallData(nftStandard, nftAddress, tokenID, _lendingID, new uint256[](0)));\n    }\n\n    function rent(\n        IRegistry.NFTStandard[] memory nftStandard,\n        address[] memory nftAddress,\n        uint256[] memory tokenID,\n        uint256[] memory _lendingID,\n        uint8[] memory rentDuration,\n        uint256[] memory rentAmount\n    ) external payable override notPaused {\n        bundleCall(\n            handleRent, createRentCallData(nftStandard, nftAddress, tokenID, _lendingID, rentDuration, rentAmount)\n        );\n    }\n\n    function stopRent(\n        IRegistry.NFTStandard[] memory nftStandard,\n        address[] memory nftAddress,\n        uint256[] memory tokenID,\n        uint256[] memory _lendingID,\n        uint256[] memory _rentingID\n    ) external override notPaused {\n        bundleCall(handleStopRent, createActionCallData(nftStandard, nftAddress, tokenID, _lendingID, _rentingID));\n    }\n\n    function claimRent(\n        IRegistry.NFTStandard[] memory nftStandard,\n        address[] memory nftAddress,\n        uint256[] memory tokenID,\n        uint256[] memory _lendingID,\n        uint256[] memory _rentingID\n    ) external override notPaused {\n        bundleCall(handleClaimRent, createActionCallData(nftStandard, nftAddress, tokenID, _lendingID, _rentingID));\n    }\n\n    //      .-.     .-.     .-.     .-.     .-.     .-.     .-.     .-.     .-.     .-.\n    // `._.'   `._.'   `._.'   `._.'   `._.'   `._.'   `._.'   `._.'   `._.'   `._.'   `._.'\n\n    function handleLend(IRegistry.CallData memory cd) private {\n        for (uint256 i = cd.left; i < cd.right; i++) {\n            ensureIsLendable(cd, i);\n            bytes32 identifier = keccak256(abi.encodePacked(cd.nftAddress[cd.left], cd.tokenID[i], lendingID));\n            IRegistry.Lending storage lending = lendings[identifier];\n            ensureIsNull(lending);\n            ensureTokenNotSentinel(uint8(cd.paymentToken[i]));\n            bool is721 = cd.nftStandard[i] == IRegistry.NFTStandard.E721;\n            uint16 _lendAmount = uint16(cd.lendAmount[i]);\n            if (is721) require(_lendAmount == 1, \"ReNFT::lendAmount should be equal to 1\");\n            lendings[identifier] = IRegistry.Lending({\n                nftStandard: cd.nftStandard[i],\n                lenderAddress: payable(msg.sender),\n                maxRentDuration: cd.maxRentDuration[i],\n                dailyRentPrice: cd.dailyRentPrice[i],\n                lendAmount: _lendAmount,\n                availableAmount: _lendAmount,\n                paymentToken: cd.paymentToken[i],\n                willAutoRenew: cd.willAutoRenew[i]\n            });\n            emit IRegistry.Lend(\n                is721,\n                msg.sender,\n                cd.nftAddress[cd.left],\n                cd.tokenID[i],\n                lendingID,\n                cd.maxRentDuration[i],\n                cd.dailyRentPrice[i],\n                _lendAmount,\n                cd.paymentToken[i],\n                cd.willAutoRenew[i]\n                );\n            lendingID++;\n        }\n        safeTransfer(\n            cd,\n            msg.sender,\n            address(this),\n            sliceArr(cd.tokenID, cd.left, cd.right, 0),\n            sliceArr(cd.lendAmount, cd.left, cd.right, 0)\n        );\n    }\n\n    function handleStopLend(IRegistry.CallData memory cd) private {\n        uint256[] memory lentAmounts = new uint256[](cd.right - cd.left);\n        for (uint256 i = cd.left; i < cd.right; i++) {\n            bytes32 lendingIdentifier =\n                keccak256(abi.encodePacked(cd.nftAddress[cd.left], cd.tokenID[i], cd.lendingID[i]));\n            Lending storage lending = lendings[lendingIdentifier];\n            ensureIsNotNull(lending);\n            ensureIsStoppable(lending, msg.sender);\n            require(cd.nftStandard[i] == lending.nftStandard, \"ReNFT::invalid nft standard\");\n            require(lending.lendAmount == lending.availableAmount, \"ReNFT::actively rented\");\n            lentAmounts[i - cd.left] = lending.lendAmount;\n            emit IRegistry.StopLend(cd.lendingID[i], uint32(block.timestamp), lending.lendAmount);\n            delete lendings[lendingIdentifier];\n        }\n        safeTransfer(\n            cd,\n            address(this),\n            msg.sender,\n            sliceArr(cd.tokenID, cd.left, cd.right, 0),\n            sliceArr(lentAmounts, cd.left, cd.right, cd.left)\n        );\n    }\n\n    function handleRent(IRegistry.CallData memory cd) private {\n        for (uint256 i = cd.left; i < cd.right; i++) {\n            bytes32 lendingIdentifier =\n                keccak256(abi.encodePacked(cd.nftAddress[cd.left], cd.tokenID[i], cd.lendingID[i]));\n            bytes32 rentingIdentifier = keccak256(abi.encodePacked(cd.nftAddress[cd.left], cd.tokenID[i], rentingID));\n            IRegistry.Lending storage lending = lendings[lendingIdentifier];\n            IRegistry.Renting storage renting = rentings[rentingIdentifier];\n            ensureIsNotNull(lending);\n            ensureIsNull(renting);\n            ensureIsRentable(lending, cd, i, msg.sender);\n            require(cd.nftStandard[i] == lending.nftStandard, \"ReNFT::invalid nft standard\");\n            require(cd.rentAmount[i] <= lending.availableAmount, \"ReNFT::invalid rent amount\");\n            uint8 paymentTokenIx = uint8(lending.paymentToken);\n            ERC20 paymentToken = ERC20(resolver.getPaymentToken(paymentTokenIx));\n            uint256 decimals = paymentToken.decimals();\n            {\n                uint256 scale = 10 ** decimals;\n                uint256 rentPrice = cd.rentAmount[i] * cd.rentDuration[i] * unpackPrice(lending.dailyRentPrice, scale);\n                require(rentPrice > 0, \"ReNFT::rent price is zero\");\n                paymentToken.safeTransferFrom(msg.sender, address(this), rentPrice);\n            }\n            rentings[rentingIdentifier] = IRegistry.Renting({\n                renterAddress: payable(msg.sender),\n                rentAmount: uint16(cd.rentAmount[i]),\n                rentDuration: cd.rentDuration[i],\n                rentedAt: uint32(block.timestamp)\n            });\n            lendings[lendingIdentifier].availableAmount -= uint16(cd.rentAmount[i]);\n            emit IRegistry.Rent(\n                msg.sender, cd.lendingID[i], rentingID, uint16(cd.rentAmount[i]), cd.rentDuration[i], renting.rentedAt\n                );\n            rentingID++;\n        }\n    }\n\n    function handleStopRent(IRegistry.CallData memory cd) private {\n        for (uint256 i = cd.left; i < cd.right; i++) {\n            bytes32 lendingIdentifier =\n                keccak256(abi.encodePacked(cd.nftAddress[cd.left], cd.tokenID[i], cd.lendingID[i]));\n            bytes32 rentingIdentifier =\n                keccak256(abi.encodePacked(cd.nftAddress[cd.left], cd.tokenID[i], cd.rentingID[i]));\n            IRegistry.Lending storage lending = lendings[lendingIdentifier];\n            IRegistry.Renting storage renting = rentings[rentingIdentifier];\n            ensureIsNotNull(lending);\n            ensureIsNotNull(renting);\n            ensureIsReturnable(renting, msg.sender, block.timestamp);\n            require(cd.nftStandard[i] == lending.nftStandard, \"ReNFT::invalid nft standard\");\n            require(renting.rentAmount <= lending.lendAmount, \"ReNFT::critical error\");\n            uint256 secondsSinceRentStart = block.timestamp - renting.rentedAt;\n            distributePayments(lending, renting, secondsSinceRentStart);\n            manageWillAutoRenew(\n                lending, renting, cd.nftAddress[cd.left], cd.nftStandard[cd.left], cd.tokenID[i], cd.lendingID[i]\n            );\n            emit IRegistry.StopRent(cd.rentingID[i], uint32(block.timestamp));\n            delete rentings[rentingIdentifier];\n        }\n    }\n\n    function handleClaimRent(CallData memory cd) private {\n        for (uint256 i = cd.left; i < cd.right; i++) {\n            bytes32 lendingIdentifier =\n                keccak256(abi.encodePacked(cd.nftAddress[cd.left], cd.tokenID[i], cd.lendingID[i]));\n            bytes32 rentingIdentifier =\n                keccak256(abi.encodePacked(cd.nftAddress[cd.left], cd.tokenID[i], cd.rentingID[i]));\n            IRegistry.Lending storage lending = lendings[lendingIdentifier];\n            IRegistry.Renting storage renting = rentings[rentingIdentifier];\n            ensureIsNotNull(lending);\n            ensureIsNotNull(renting);\n            ensureIsClaimable(renting, block.timestamp);\n            distributeClaimPayment(lending, renting);\n            manageWillAutoRenew(\n                lending, renting, cd.nftAddress[cd.left], cd.nftStandard[cd.left], cd.tokenID[i], cd.lendingID[i]\n            );\n            emit IRegistry.RentClaimed(cd.rentingID[i], uint32(block.timestamp));\n            delete rentings[rentingIdentifier];\n        }\n    }\n\n    //      .-.     .-.     .-.     .-.     .-.     .-.     .-.     .-.     .-.     .-.\n    // `._.'   `._.'   `._.'   `._.'   `._.'   `._.'   `._.'   `._.'   `._.'   `._.'   `._.'\n\n    function manageWillAutoRenew(\n        IRegistry.Lending storage lending,\n        IRegistry.Renting storage renting,\n        address nftAddress,\n        IRegistry.NFTStandard nftStandard,\n        uint256 tokenID,\n        uint256 lendingID\n    ) private {\n        if (lending.willAutoRenew == false) {\n            // No automatic renewal, stop the lending (or a portion of it) completely!\n\n            // We must be careful here, because the lending might be for an ERC1155 token, which means\n            // that the renting.rentAmount might not be the same as the lending.lendAmount. In this case, we\n            // must NOT delete the lending, but only decrement the lending.lendAmount by the renting.rentAmount.\n            // Notice: this is only possible for an ERC1155 tokens!\n            if (lending.lendAmount > renting.rentAmount) {\n                // update lending lendAmount to reflect NOT renewing the lending\n                // Do not update lending.availableAmount, because the assets will not be lent out again\n                lending.lendAmount -= renting.rentAmount;\n                // return the assets to the lender\n                IERC1155(nftAddress).safeTransferFrom(\n                    address(this), lending.lenderAddress, tokenID, uint256(renting.rentAmount), \"\"\n                );\n            }\n            // If the lending is for an ERC721 token, then the renting.rentAmount is always the same as the\n            // lending.lendAmount, and we can delete the lending. If the lending is for an ERC1155 token and\n            // the renting.rentAmount is the same as the lending.lendAmount, then we can also delete the\n            // lending.\n            else if (lending.lendAmount == renting.rentAmount) {\n                // return the assets to the lender\n                if (nftStandard == IRegistry.NFTStandard.E721) {\n                    IERC721(nftAddress).transferFrom(address(this), lending.lenderAddress, tokenID);\n                } else {\n                    IERC1155(nftAddress).safeTransferFrom(\n                        address(this), lending.lenderAddress, tokenID, uint256(renting.rentAmount), \"\"\n                    );\n                }\n                delete lendings[keccak256(abi.encodePacked(nftAddress, tokenID, lendingID))];\n            }\n            // StopLend event but only the amount that was not renewed (or all of it)\n            emit IRegistry.StopLend(lendingID, uint32(block.timestamp), renting.rentAmount);\n        } else {\n            // automatic renewal, make the assets available to be lent out again\n            lending.availableAmount += renting.rentAmount;\n        }\n    }\n\n    function bundleCall(function(IRegistry.CallData memory) handler, IRegistry.CallData memory cd) private {\n        require(cd.nftAddress.length > 0, \"ReNFT::no nfts\");\n        while (cd.right != cd.nftAddress.length) {\n            if (\n                (cd.nftAddress[cd.left] == cd.nftAddress[cd.right])\n                    && (cd.nftStandard[cd.right] == IRegistry.NFTStandard.E1155)\n            ) {\n                cd.right++;\n            } else {\n                handler(cd);\n                cd.left = cd.right;\n                cd.right++;\n            }\n        }\n        handler(cd);\n    }\n\n    function takeFee(uint256 rentAmt, ERC20 token) private returns (uint256 fee) {\n        fee = rentAmt * rentFee;\n        fee /= 10000;\n        token.safeTransfer(beneficiary, fee);\n    }\n\n    function distributePayments(\n        IRegistry.Lending memory lending,\n        IRegistry.Renting memory renting,\n        uint256 secondsSinceRentStart\n    ) private {\n        uint8 paymentTokenIx = uint8(lending.paymentToken);\n        ERC20 paymentToken = ERC20(resolver.getPaymentToken(paymentTokenIx));\n        uint256 decimals = paymentToken.decimals();\n        uint256 scale = 10 ** decimals;\n        uint256 rentPrice = renting.rentAmount * unpackPrice(lending.dailyRentPrice, scale);\n        uint256 totalRenterPmt = rentPrice * renting.rentDuration;\n        uint256 sendLenderAmt = (secondsSinceRentStart * rentPrice) / SECONDS_IN_DAY;\n        require(totalRenterPmt > 0, \"ReNFT::total renter payment is zero\");\n        require(sendLenderAmt > 0, \"ReNFT::lender payment is zero\");\n        uint256 sendRenterAmt = totalRenterPmt - sendLenderAmt;\n        if (rentFee != 0) {\n            uint256 takenFee = takeFee(sendLenderAmt, paymentToken);\n            sendLenderAmt -= takenFee;\n        }\n        paymentToken.safeTransfer(lending.lenderAddress, sendLenderAmt);\n        if (sendRenterAmt > 0) {\n            paymentToken.safeTransfer(renting.renterAddress, sendRenterAmt);\n        }\n    }\n\n    function distributeClaimPayment(IRegistry.Lending memory lending, IRegistry.Renting memory renting) private {\n        uint8 paymentTokenIx = uint8(lending.paymentToken);\n        ERC20 paymentToken = ERC20(resolver.getPaymentToken(paymentTokenIx));\n        uint256 decimals = paymentToken.decimals();\n        uint256 scale = 10 ** decimals;\n        uint256 rentPrice = renting.rentAmount * unpackPrice(lending.dailyRentPrice, scale);\n        uint256 finalAmt = rentPrice * renting.rentDuration;\n        uint256 takenFee = 0;\n        if (rentFee != 0) {\n            takenFee = takeFee(finalAmt, paymentToken);\n        }\n        paymentToken.safeTransfer(lending.lenderAddress, finalAmt - takenFee);\n    }\n\n    function safeTransfer(\n        CallData memory cd,\n        address from,\n        address to,\n        uint256[] memory tokenID,\n        uint256[] memory lendAmount\n    ) private {\n        if (cd.nftStandard[cd.left] == IRegistry.NFTStandard.E721) {\n            IERC721(cd.nftAddress[cd.left]).transferFrom(from, to, cd.tokenID[cd.left]);\n        } else {\n            IERC1155(cd.nftAddress[cd.left]).safeBatchTransferFrom(from, to, tokenID, lendAmount, \"\");\n        }\n    }\n\n    //      .-.     .-.     .-.     .-.     .-.     .-.     .-.     .-.     .-.     .-.\n    // `._.'   `._.'   `._.'   `._.'   `._.'   `._.'   `._.'   `._.'   `._.'   `._.'   `._.'\n\n    function getLending(address nftAddress, uint256 tokenID, uint256 _lendingID)\n        external\n        view\n        returns (uint8, address, uint8, bytes4, uint16, uint16, uint8)\n    {\n        bytes32 identifier = keccak256(abi.encodePacked(nftAddress, tokenID, _lendingID));\n        IRegistry.Lending storage lending = lendings[identifier];\n        return (\n            uint8(lending.nftStandard),\n            lending.lenderAddress,\n            lending.maxRentDuration,\n            lending.dailyRentPrice,\n            lending.lendAmount,\n            lending.availableAmount,\n            uint8(lending.paymentToken)\n        );\n    }\n\n    function getRenting(address nftAddress, uint256 tokenID, uint256 _rentingID)\n        external\n        view\n        returns (address, uint16, uint8, uint32)\n    {\n        bytes32 identifier = keccak256(abi.encodePacked(nftAddress, tokenID, _rentingID));\n        IRegistry.Renting storage renting = rentings[identifier];\n        return (renting.renterAddress, renting.rentAmount, renting.rentDuration, renting.rentedAt);\n    }\n\n    //      .-.     .-.     .-.     .-.     .-.     .-.     .-.     .-.     .-.     .-.\n    // `._.'   `._.'   `._.'   `._.'   `._.'   `._.'   `._.'   `._.'   `._.'   `._.'   `._.'\n\n    function createLendCallData(\n        IRegistry.NFTStandard[] memory nftStandard,\n        address[] memory nftAddress,\n        uint256[] memory tokenID,\n        uint256[] memory lendAmount,\n        uint8[] memory maxRentDuration,\n        bytes4[] memory dailyRentPrice,\n        uint8[] memory paymentToken,\n        bool[] memory willAutoRenew\n    ) private pure returns (CallData memory cd) {\n        cd = CallData({\n            left: 0,\n            right: 1,\n            nftStandard: nftStandard,\n            nftAddress: nftAddress,\n            tokenID: tokenID,\n            lendAmount: lendAmount,\n            lendingID: new uint256[](0),\n            rentingID: new uint256[](0),\n            rentDuration: new uint8[](0),\n            rentAmount: new uint256[](0),\n            maxRentDuration: maxRentDuration,\n            dailyRentPrice: dailyRentPrice,\n            paymentToken: paymentToken,\n            willAutoRenew: willAutoRenew\n        });\n    }\n\n    function createRentCallData(\n        IRegistry.NFTStandard[] memory nftStandard,\n        address[] memory nftAddress,\n        uint256[] memory tokenID,\n        uint256[] memory _lendingID,\n        uint8[] memory rentDuration,\n        uint256[] memory rentAmount\n    ) private pure returns (CallData memory cd) {\n        cd = CallData({\n            left: 0,\n            right: 1,\n            nftStandard: nftStandard,\n            nftAddress: nftAddress,\n            tokenID: tokenID,\n            lendAmount: new uint256[](0),\n            lendingID: _lendingID,\n            rentingID: new uint256[](0),\n            rentDuration: rentDuration,\n            rentAmount: rentAmount,\n            maxRentDuration: new uint8[](0),\n            dailyRentPrice: new bytes4[](0),\n            paymentToken: new uint8[](0),\n            willAutoRenew: new bool[](0)\n        });\n    }\n\n    function createActionCallData(\n        IRegistry.NFTStandard[] memory nftStandard,\n        address[] memory nftAddress,\n        uint256[] memory tokenID,\n        uint256[] memory _lendingID,\n        uint256[] memory _rentingID\n    ) private pure returns (CallData memory cd) {\n        cd = CallData({\n            left: 0,\n            right: 1,\n            nftStandard: nftStandard,\n            nftAddress: nftAddress,\n            tokenID: tokenID,\n            lendAmount: new uint256[](0),\n            lendingID: _lendingID,\n            rentingID: _rentingID,\n            rentDuration: new uint8[](0),\n            rentAmount: new uint256[](0),\n            maxRentDuration: new uint8[](0),\n            dailyRentPrice: new bytes4[](0),\n            paymentToken: new uint8[](0),\n            willAutoRenew: new bool[](0)\n        });\n    }\n\n    function unpackPrice(bytes4 price, uint256 scale) private pure returns (uint256) {\n        ensureIsUnpackablePrice(price, scale);\n        uint16 whole = uint16(bytes2(price));\n        uint16 decimal = uint16(bytes2(price << 16));\n        uint256 decimalScale = scale / 10000;\n        if (whole > 9999) {\n            whole = 9999;\n        }\n        if (decimal > 9999) {\n            decimal = 9999;\n        }\n        uint256 w = whole * scale;\n        uint256 d = decimal * decimalScale;\n        uint256 fullPrice = w + d;\n        return fullPrice;\n    }\n\n    function sliceArr(uint256[] memory arr, uint256 fromIx, uint256 toIx, uint256 arrOffset)\n        private\n        pure\n        returns (uint256[] memory r)\n    {\n        r = new uint256[](toIx - fromIx);\n        for (uint256 i = fromIx; i < toIx; i++) {\n            r[i - fromIx] = arr[i - arrOffset];\n        }\n    }\n\n    //      .-.     .-.     .-.     .-.     .-.     .-.     .-.     .-.     .-.     .-.\n    // `._.'   `._.'   `._.'   `._.'   `._.'   `._.'   `._.'   `._.'   `._.'   `._.'   `._.'\n\n    function ensureIsNotZeroAddr(address addr) private pure {\n        require(addr != address(0), \"ReNFT::zero address\");\n    }\n\n    function ensureIsZeroAddr(address addr) private pure {\n        require(addr == address(0), \"ReNFT::not a zero address\");\n    }\n\n    function ensureIsNull(Lending memory lending) private pure {\n        ensureIsZeroAddr(lending.lenderAddress);\n        require(lending.maxRentDuration == 0, \"ReNFT::duration not zero\");\n        require(lending.dailyRentPrice == 0, \"ReNFT::rent price not zero\");\n    }\n\n    function ensureIsNotNull(Lending memory lending) private pure {\n        ensureIsNotZeroAddr(lending.lenderAddress);\n        require(lending.maxRentDuration != 0, \"ReNFT::duration zero\");\n        require(lending.dailyRentPrice != 0, \"ReNFT::rent price is zero\");\n    }\n\n    function ensureIsNull(Renting memory renting) private pure {\n        ensureIsZeroAddr(renting.renterAddress);\n        require(renting.rentDuration == 0, \"ReNFT::duration not zero\");\n        require(renting.rentedAt == 0, \"ReNFT::rented at not zero\");\n    }\n\n    function ensureIsNotNull(Renting memory renting) private pure {\n        ensureIsNotZeroAddr(renting.renterAddress);\n        require(renting.rentDuration != 0, \"ReNFT::duration is zero\");\n        require(renting.rentedAt != 0, \"ReNFT::rented at is zero\");\n    }\n\n    function ensureIsLendable(CallData memory cd, uint256 i) private pure {\n        require(cd.lendAmount[i] > 0, \"ReNFT::lend amount is zero\");\n        require(cd.lendAmount[i] <= type(uint16).max, \"ReNFT::not uint16\");\n        require(cd.maxRentDuration[i] > 0, \"ReNFT::duration is zero\");\n        require(cd.maxRentDuration[i] <= type(uint8).max, \"ReNFT::not uint8\");\n        require(uint32(cd.dailyRentPrice[i]) > 0, \"ReNFT::rent price is zero\");\n    }\n\n    function ensureIsRentable(Lending memory lending, CallData memory cd, uint256 i, address msgSender) private pure {\n        require(msgSender != lending.lenderAddress, \"ReNFT::cant rent own nft\");\n        require(cd.rentDuration[i] <= type(uint8).max, \"ReNFT::not uint8\");\n        require(cd.rentDuration[i] > 0, \"ReNFT::duration is zero\");\n        require(cd.rentAmount[i] <= type(uint16).max, \"ReNFT::not uint16\");\n        require(cd.rentAmount[i] > 0, \"ReNFT::rentAmount is zero\");\n        require(cd.rentDuration[i] <= lending.maxRentDuration, \"ReNFT::rent duration exceeds allowed max\");\n    }\n\n    function ensureIsReturnable(Renting memory renting, address msgSender, uint256 blockTimestamp) private pure {\n        require(renting.renterAddress == msgSender, \"ReNFT::not renter\");\n        require(!isPastReturnDate(renting, blockTimestamp), \"ReNFT::past return date\");\n    }\n\n    function ensureIsStoppable(Lending memory lending, address msgSender) private pure {\n        require(lending.lenderAddress == msgSender, \"ReNFT::not lender\");\n    }\n\n    function ensureIsUnpackablePrice(bytes4 price, uint256 scale) private pure {\n        require(uint32(price) > 0, \"ReNFT::invalid price\");\n        require(scale >= 10000, \"ReNFT::invalid scale\");\n    }\n\n    function ensureTokenNotSentinel(uint8 paymentIx) private pure {\n        require(paymentIx > 0, \"ReNFT::token is sentinel\");\n    }\n\n    function ensureIsClaimable(IRegistry.Renting memory renting, uint256 blockTimestamp) private pure {\n        require(isPastReturnDate(renting, blockTimestamp), \"ReNFT::return date not passed\");\n    }\n\n    function isPastReturnDate(Renting memory renting, uint256 nowTime) private pure returns (bool) {\n        require(nowTime > renting.rentedAt, \"ReNFT::now before rented\");\n        return nowTime - renting.rentedAt > renting.rentDuration * SECONDS_IN_DAY;\n    }\n\n    //      .-.     .-.     .-.     .-.     .-.     .-.     .-.     .-.     .-.     .-.\n    // `._.'   `._.'   `._.'   `._.'   `._.'   `._.'   `._.'   `._.'   `._.'   `._.'   `._.'\n\n    function setRentFee(uint256 newRentFee) external onlyAdmin {\n        require(newRentFee < 10000, \"ReNFT::fee exceeds 100pct\");\n        rentFee = newRentFee;\n    }\n\n    function setBeneficiary(address payable newBeneficiary) external onlyAdmin {\n        beneficiary = newBeneficiary;\n    }\n\n    function setPaused(bool newPaused) external onlyAdmin {\n        paused = newPaused;\n    }\n}\n\n//              @@@@@@@@@@@@@@@@        ,@@@@@@@@@@@@@@@@\n//              @@@,,,,,,,,,,@@@        ,@@&,,,,,,,,,,@@@\n//         @@@@@@@@,,,,,,,,,,@@@@@@@@&  ,@@&,,,,,,,,,,@@@@@@@@\n//         @@@**********@@@@@@@@@@@@@&  ,@@@@@@@@**********@@@\n//         @@@**********@@@@@@@@@@@@@&  ,@@@@@@@@**********@@@@@@@@\n//         @@@**********@@@@@@@@@@@@@&       .@@@**********@@@@@@@@\n//    @@@@@@@@**********@@@@@@@@@@@@@&       .@@@**********@@@@@@@@\n//    @@@**********@@@@@@@@@@@@@&            .@@@@@@@@**********@@@\n//    @@@**********@@@@@@@@@@@@@&            .@@@@@@@@**********@@@@@@@@\n//    @@@@@@@@**********@@@@@@@@&            .@@@**********@@@@@@@@@@@@@\n//    @@@@@@@@//////////@@@@@@@@&            .@@@//////////@@@@@@@@@@@@@\n//         @@@//////////@@@@@@@@&            .@@@//////////@@@@@@@@@@@@@\n//         @@@//////////@@@@@@@@&       ,@@@@@@@@//////////@@@@@@@@@@@@@\n//         @@@%%%%%/////(((((@@@&       ,@@@(((((/////%%%%%@@@@@@@@\n//         @@@@@@@@//////////@@@@@@@@&  ,@@@//////////@@@@@@@@@@@@@\n//              @@@%%%%%%%%%%@@@@@@@@&  ,@@@%%%%%%%%%%@@@@@@@@@@@@@\n//              @@@@@@@@@@@@@@@@@@@@@&  ,@@@@@@@@@@@@@@@@@@@@@@@@@@\n//                   @@@@@@@@@@@@@@@@&        @@@@@@@@@@@@@@@@\n//                   @@@@@@@@@@@@@@@@&        @@@@@@@@@@@@@@@@\n",
  "sourcePath": "contracts/Registry.sol",
  "type": "contract"
}