{
  "abi": [
    {
      "inputs": [
        {
          "internalType": "address",
          "name": "_resolver",
          "type": "address"
        },
        {
          "internalType": "address payable",
          "name": "_beneficiary",
          "type": "address"
        },
        {
          "internalType": "address",
          "name": "_admin",
          "type": "address"
        }
      ],
      "stateMutability": "nonpayable",
      "type": "constructor"
    },
    {
      "anonymous": false,
      "inputs": [
        {
          "indexed": true,
          "internalType": "uint256",
          "name": "lendingId",
          "type": "uint256"
        },
        {
          "indexed": false,
          "internalType": "uint32",
          "name": "claimedAt",
          "type": "uint32"
        }
      ],
      "name": "CollateralClaimed",
      "type": "event"
    },
    {
      "anonymous": false,
      "inputs": [
        {
          "indexed": true,
          "internalType": "uint256",
          "name": "lendingId",
          "type": "uint256"
        },
        {
          "indexed": false,
          "internalType": "uint32",
          "name": "stoppedAt",
          "type": "uint32"
        }
      ],
      "name": "LendingStopped",
      "type": "event"
    },
    {
      "anonymous": false,
      "inputs": [
        {
          "indexed": true,
          "internalType": "address",
          "name": "nftAddress",
          "type": "address"
        },
        {
          "indexed": true,
          "internalType": "uint256",
          "name": "tokenId",
          "type": "uint256"
        },
        {
          "indexed": false,
          "internalType": "uint8",
          "name": "lentAmount",
          "type": "uint8"
        },
        {
          "indexed": false,
          "internalType": "uint256",
          "name": "lendingId",
          "type": "uint256"
        },
        {
          "indexed": true,
          "internalType": "address",
          "name": "lenderAddress",
          "type": "address"
        },
        {
          "indexed": false,
          "internalType": "uint8",
          "name": "maxRentDuration",
          "type": "uint8"
        },
        {
          "indexed": false,
          "internalType": "bytes4",
          "name": "dailyRentPrice",
          "type": "bytes4"
        },
        {
          "indexed": false,
          "internalType": "bytes4",
          "name": "nftPrice",
          "type": "bytes4"
        },
        {
          "indexed": false,
          "internalType": "bool",
          "name": "isERC721",
          "type": "bool"
        },
        {
          "indexed": false,
          "internalType": "enum IResolver.PaymentToken",
          "name": "paymentToken",
          "type": "uint8"
        }
      ],
      "name": "Lent",
      "type": "event"
    },
    {
      "anonymous": false,
      "inputs": [
        {
          "indexed": false,
          "internalType": "uint256",
          "name": "lendingId",
          "type": "uint256"
        },
        {
          "indexed": true,
          "internalType": "address",
          "name": "renterAddress",
          "type": "address"
        },
        {
          "indexed": false,
          "internalType": "uint8",
          "name": "rentDuration",
          "type": "uint8"
        },
        {
          "indexed": false,
          "internalType": "uint32",
          "name": "rentedAt",
          "type": "uint32"
        }
      ],
      "name": "Rented",
      "type": "event"
    },
    {
      "anonymous": false,
      "inputs": [
        {
          "indexed": true,
          "internalType": "uint256",
          "name": "lendingId",
          "type": "uint256"
        },
        {
          "indexed": false,
          "internalType": "uint32",
          "name": "returnedAt",
          "type": "uint32"
        }
      ],
      "name": "Returned",
      "type": "event"
    },
    {
      "inputs": [
        {
          "internalType": "address[]",
          "name": "_nfts",
          "type": "address[]"
        },
        {
          "internalType": "uint256[]",
          "name": "_tokenIds",
          "type": "uint256[]"
        },
        {
          "internalType": "uint256[]",
          "name": "_lendingIds",
          "type": "uint256[]"
        }
      ],
      "name": "claimCollateral",
      "outputs": [],
      "stateMutability": "nonpayable",
      "type": "function"
    },
    {
      "inputs": [
        {
          "internalType": "address[]",
          "name": "_nfts",
          "type": "address[]"
        },
        {
          "internalType": "uint256[]",
          "name": "_tokenIds",
          "type": "uint256[]"
        },
        {
          "internalType": "uint256[]",
          "name": "_lendAmounts",
          "type": "uint256[]"
        },
        {
          "internalType": "uint8[]",
          "name": "_maxRentDurations",
          "type": "uint8[]"
        },
        {
          "internalType": "bytes4[]",
          "name": "_dailyRentPrices",
          "type": "bytes4[]"
        },
        {
          "internalType": "bytes4[]",
          "name": "_nftPrices",
          "type": "bytes4[]"
        },
        {
          "internalType": "enum IResolver.PaymentToken[]",
          "name": "_paymentTokens",
          "type": "uint8[]"
        }
      ],
      "name": "lend",
      "outputs": [],
      "stateMutability": "nonpayable",
      "type": "function"
    },
    {
      "inputs": [
        {
          "internalType": "address",
          "name": "",
          "type": "address"
        },
        {
          "internalType": "address",
          "name": "",
          "type": "address"
        },
        {
          "internalType": "uint256[]",
          "name": "",
          "type": "uint256[]"
        },
        {
          "internalType": "uint256[]",
          "name": "",
          "type": "uint256[]"
        },
        {
          "internalType": "bytes",
          "name": "",
          "type": "bytes"
        }
      ],
      "name": "onERC1155BatchReceived",
      "outputs": [
        {
          "internalType": "bytes4",
          "name": "",
          "type": "bytes4"
        }
      ],
      "stateMutability": "nonpayable",
      "type": "function"
    },
    {
      "inputs": [
        {
          "internalType": "address",
          "name": "",
          "type": "address"
        },
        {
          "internalType": "address",
          "name": "",
          "type": "address"
        },
        {
          "internalType": "uint256",
          "name": "",
          "type": "uint256"
        },
        {
          "internalType": "uint256",
          "name": "",
          "type": "uint256"
        },
        {
          "internalType": "bytes",
          "name": "",
          "type": "bytes"
        }
      ],
      "name": "onERC1155Received",
      "outputs": [
        {
          "internalType": "bytes4",
          "name": "",
          "type": "bytes4"
        }
      ],
      "stateMutability": "nonpayable",
      "type": "function"
    },
    {
      "inputs": [
        {
          "internalType": "address",
          "name": "",
          "type": "address"
        },
        {
          "internalType": "address",
          "name": "",
          "type": "address"
        },
        {
          "internalType": "uint256",
          "name": "",
          "type": "uint256"
        },
        {
          "internalType": "bytes",
          "name": "",
          "type": "bytes"
        }
      ],
      "name": "onERC721Received",
      "outputs": [
        {
          "internalType": "bytes4",
          "name": "",
          "type": "bytes4"
        }
      ],
      "stateMutability": "nonpayable",
      "type": "function"
    },
    {
      "inputs": [],
      "name": "paused",
      "outputs": [
        {
          "internalType": "bool",
          "name": "",
          "type": "bool"
        }
      ],
      "stateMutability": "view",
      "type": "function"
    },
    {
      "inputs": [
        {
          "internalType": "address[]",
          "name": "_nfts",
          "type": "address[]"
        },
        {
          "internalType": "uint256[]",
          "name": "_tokenIds",
          "type": "uint256[]"
        },
        {
          "internalType": "uint256[]",
          "name": "_lendingIds",
          "type": "uint256[]"
        },
        {
          "internalType": "uint8[]",
          "name": "_rentDurations",
          "type": "uint8[]"
        }
      ],
      "name": "rent",
      "outputs": [],
      "stateMutability": "nonpayable",
      "type": "function"
    },
    {
      "inputs": [],
      "name": "rentFee",
      "outputs": [
        {
          "internalType": "uint256",
          "name": "",
          "type": "uint256"
        }
      ],
      "stateMutability": "view",
      "type": "function"
    },
    {
      "inputs": [
        {
          "internalType": "address[]",
          "name": "_nfts",
          "type": "address[]"
        },
        {
          "internalType": "uint256[]",
          "name": "_tokenIds",
          "type": "uint256[]"
        },
        {
          "internalType": "uint256[]",
          "name": "_lendingIds",
          "type": "uint256[]"
        }
      ],
      "name": "returnIt",
      "outputs": [],
      "stateMutability": "nonpayable",
      "type": "function"
    },
    {
      "inputs": [
        {
          "internalType": "address payable",
          "name": "_newBeneficiary",
          "type": "address"
        }
      ],
      "name": "setBeneficiary",
      "outputs": [],
      "stateMutability": "nonpayable",
      "type": "function"
    },
    {
      "inputs": [
        {
          "internalType": "bool",
          "name": "_paused",
          "type": "bool"
        }
      ],
      "name": "setPaused",
      "outputs": [],
      "stateMutability": "nonpayable",
      "type": "function"
    },
    {
      "inputs": [
        {
          "internalType": "uint256",
          "name": "_rentFee",
          "type": "uint256"
        }
      ],
      "name": "setRentFee",
      "outputs": [],
      "stateMutability": "nonpayable",
      "type": "function"
    },
    {
      "inputs": [
        {
          "internalType": "address[]",
          "name": "_nfts",
          "type": "address[]"
        },
        {
          "internalType": "uint256[]",
          "name": "_tokenIds",
          "type": "uint256[]"
        },
        {
          "internalType": "uint256[]",
          "name": "_lendingIds",
          "type": "uint256[]"
        }
      ],
      "name": "stopLending",
      "outputs": [],
      "stateMutability": "nonpayable",
      "type": "function"
    },
    {
      "inputs": [
        {
          "internalType": "bytes4",
          "name": "interfaceId",
          "type": "bytes4"
        }
      ],
      "name": "supportsInterface",
      "outputs": [
        {
          "internalType": "bool",
          "name": "",
          "type": "bool"
        }
      ],
      "stateMutability": "view",
      "type": "function"
    }
  ],
  "bytecode": "608060405260016003556004805460ff1916905560006005553480156200002557600080fd5b50604051620042ab380380620042ab83398101604081905262000048916200010a565b6200005383620000ac565b6200005e82620000ac565b6200006981620000ac565b600080546001600160a01b039485166001600160a01b03199182161790915560028054938516938216939093179092556001805491909316911617905562000174565b6001600160a01b038116620001075760405162461bcd60e51b815260206004820152601360248201527f52654e46543a3a7a65726f206164647265737300000000000000000000000000604482015260640160405180910390fd5b50565b6000806000606084860312156200012057600080fd5b83516200012d816200015e565b602085015190935062000140816200015e565b604085015190925062000153816200015e565b809150509250925092565b6001600160a01b03811681146200010757600080fd5b61412780620001846000396000f3fe608060405234801561001057600080fd5b50600436106100ea5760003560e01c80635de07ca31161008c578063bf2b23ea11610066578063bf2b23ea146101ee578063e50364b214610205578063f23a6e6114610218578063fb1585191461023757600080fd5b80635de07ca3146101a957806376774ea3146101bc578063bc197c81146101cf57600080fd5b806316c38b3c116100c857806316c38b3c146101635780631c31f7101461017657806359fe66e4146101895780635c975abb1461019c57600080fd5b806301ffc9a7146100ef578063098130df14610117578063150b7a021461012c575b600080fd5b6101026100fd366004613b89565b61024a565b60405190151581526020015b60405180910390f35b61012a61012536600461390e565b610281565b005b61014a61013a36600461383b565b630a85bd0160e11b949350505050565b6040516001600160e01b0319909116815260200161010e565b61012a610171366004613b4f565b6102c8565b61012a610184366004613771565b610305565b61012a61019736600461390e565b610351565b6004546101029060ff1681565b61012a6101b7366004613995565b610385565b61012a6101ca366004613ba4565b6103c0565b61014a6101dd36600461378e565b63bc197c8160e01b95945050505050565b6101f760055481565b60405190815260200161010e565b61012a610213366004613a35565b610440565b61014a6102263660046138a6565b63f23a6e6160e01b95945050505050565b61012a61024536600461390e565b610481565b60006001600160e01b03198216630271189760e51b148061027b57506301ffc9a760e01b6001600160e01b03198316145b92915050565b60045460ff16156102ad5760405162461bcd60e51b81526004016102a490613d81565b60405180910390fd5b6102c36104b56102be858585610844565b610980565b505050565b6001546001600160a01b031633146102f25760405162461bcd60e51b81526004016102a490613ddf565b6004805460ff1916911515919091179055565b6001546001600160a01b0316331461032f5760405162461bcd60e51b81526004016102a490613ddf565b600280546001600160a01b0319166001600160a01b0392909216919091179055565b60045460ff16156103745760405162461bcd60e51b81526004016102a490613d81565b6102c3610aa86102be858585610844565b60045460ff16156103a85760405162461bcd60e51b81526004016102a490613d81565b6103ba610dfa6102be868686866113eb565b50505050565b6001546001600160a01b031633146103ea5760405162461bcd60e51b81526004016102a490613ddf565b612710811061043b5760405162461bcd60e51b815260206004820152601960248201527f52654e46543a3a6665652065786365656473203130307063740000000000000060448201526064016102a4565b600555565b60045460ff16156104635760405162461bcd60e51b81526004016102a490613d81565b6104786115396102be89898989898989611a56565b50505050505050565b60045460ff16156104a45760405162461bcd60e51b81526004016102a490613d81565b6102c3611b246102be858585610844565b805160208201516000916104c891614009565b6001600160401b038111156104df576104df6140a9565b604051908082528060200260200182016040528015610508578160200160208202803683370190505b5082519091505b826020015181101561080857600060066000856040015186600001518151811061053b5761053b614093565b60200260200101518660600151858151811061055957610559614093565b6020026020010151876101000151868151811061057857610578614093565b602002602001015160405160200161059293929190613c15565b60408051601f198184030181529181528151602092830120835282820193909352908201600020825160c08101845281546001600160a01b038116825260ff600160a01b82048116948301949094526001600160e01b0319600160a81b820460e090811b821696840196909652600160c81b820490951b9094166060820152600160e81b840483166080820152909350610662929091849160a0840191600160f01b9091041660038111156106495761064961407d565b600381111561065a5761065a61407d565b905250611e0a565b6040805160608101825260018301546001600160a01b0381168252600160a01b810460ff166020830152600160a81b900463ffffffff16918101919091526106a990611eb6565b6040805160c08101825282546001600160a01b038116825260ff600160a01b8204811660208401526001600160e01b0319600160a81b830460e090811b821695850195909552600160c81b830490941b9093166060830152600160e81b81048316608083015261074e92849160a0840191600160f01b9091041660038111156107345761073461407d565b60038111156107455761074561407d565b90525033611f69565b80548451600160e81b90910460ff1690849061076a9085614009565b8151811061077a5761077a614093565b602002602001018181525050836101000151828151811061079d5761079d614093565b60200260200101517f61bcecd87c002ae006d9d8c760291b4f3646fa6109590b4b3ea93084aae4bb6a426040516107e0919063ffffffff91909116815260200190565b60405180910390a280546001600160f81b0319169055806108008161404c565b91505061050f565b506108408230336108288660600151876000015188602001516000611fc2565b8651602088015161083b91889181611fc2565b612081565b5050565b61084c613448565b604051806101600160405280600081526020016001815260200185815260200184815260200160006001600160401b0381111561088b5761088b6140a9565b6040519080825280602002602001820160405280156108b4578160200160208202803683370190505b50815260200160006040519080825280602002602001820160405280156108e5578160200160208202803683370190505b5081526020016000604051908082528060200260200182016040528015610916578160200160208202803683370190505b5081526020016000604051908082528060200260200182016040528015610947578160200160208202803683370190505b50815260208082019490945260408051600080825281870183528284019190915281519081529485019052606001929092525092915050565b6000816040015151116109c65760405162461bcd60e51b815260206004820152600e60248201526d52654e46543a3a6e6f206e66747360901b60448201526064016102a4565b806040015151816020015114610a9b5780604001518160200151815181106109f0576109f0614093565b60200260200101516001600160a01b03168160400151826000015181518110610a1b57610a1b614093565b60200260200101516001600160a01b0316148015610a5e5750610a5e8160400151826020015181518110610a5157610a51614093565b6020026020010151612225565b15610a7b5760208101805190610a738261404c565b9052506109c6565b610a88818363ffffffff16565b60208101805180835290610a738261404c565b610840818363ffffffff16565b80515b8160200151811015610840576000600660008460400151856000015181518110610ad757610ad7614093565b602002602001015185606001518581518110610af557610af5614093565b60200260200101518661010001518681518110610b1457610b14614093565b6020026020010151604051602001610b2e93929190613c15565b60408051601f198184030181529181528151602092830120835282820193909352908201600020825160c08101845281546001600160a01b038116825260ff600160a01b82048116948301949094526001600160e01b0319600160a81b820460e090811b821696840196909652600160c81b820490951b9094166060820152600160e81b840483166080820152909350610be5929091849160a0840191600160f01b9091041660038111156106495761064961407d565b6040805160608101825260018301546001600160a01b0381168252600160a01b810460ff166020830152600160a81b900463ffffffff1691810191909152610c2c906122a7565b6040805160608101825260018301546001600160a01b0381168252600160a01b810460ff166020830152600160a81b900463ffffffff1691810191909152610c74904261232d565b604080516101008101825282546001600160a01b03811692820192835260ff600160a01b8204811660608401526001600160e01b0319600160a81b830460e090811b82166080860152600160c81b8404811b90911660a0850152600160e81b8304821660c0850152610d6794869385939192859290850191600160f01b9004166003811115610d0557610d0561407d565b6003811115610d1657610d1661407d565b905250815260408051606081018252600193909301546001600160a01b0381168452600160a01b810460ff16602080860191909152600160a81b90910463ffffffff16918401919091520152612383565b8261010001518281518110610d7e57610d7e614093565b60200260200101517f8ac1440f996b8b13e31275705c447bd09a92005cf2ec131a8183afedc636f5a242604051610dc1919063ffffffff91909116815260200190565b60405180910390a280546001600160f81b031916815560010180546001600160c81b031916905580610df28161404c565b915050610aab565b80516020820151600091610e0d91614009565b6001600160401b03811115610e2457610e246140a9565b604051908082528060200260200182016040528015610e4d578160200160208202803683370190505b5082519091505b8260200151811015610808576000600660008560400151866000015181518110610e8057610e80614093565b602002602001015186606001518581518110610e9e57610e9e614093565b60200260200101518761010001518681518110610ebd57610ebd614093565b6020026020010151604051602001610ed793929190613c15565b60408051601f198184030181529181528151602092830120835282820193909352908201600020825160c08101845281546001600160a01b038116825260ff600160a01b82048116948301949094526001600160e01b0319600160a81b820460e090811b821696840196909652600160c81b820490951b9094166060820152600160e81b840483166080820152909350610f8e929091849160a0840191600160f01b9091041660038111156106495761064961407d565b6040805160608101825260018301546001600160a01b0381168252600160a01b810460ff166020830152600160a81b900463ffffffff1691810191909152610fd590611eb6565b6040805160c08101825282546001600160a01b038116825260ff600160a01b8204811660208401526001600160e01b0319600160a81b830460e090811b821695850195909552600160c81b830490941b9093166060830152600160e81b81048316608083015261107c92849160a0840191600160f01b9091041660038111156110605761106061407d565b60038111156110715761107161407d565b9052508584336125c4565b8054600090600160f01b900460ff16600381111561109c5761109c61407d565b90506110a78161272f565b6000805460405163c6ee427f60e01b815260ff841660048201526001600160a01b039091169063c6ee427f9060240160206040518083038186803b1580156110ee57600080fd5b505afa158015611102573d6000803e3d6000fd5b505050506040513d601f19601f820116820180604052508101906111269190613754565b90506000816001600160a01b031663313ce5676040518163ffffffff1660e01b815260040160206040518083038186803b15801561116357600080fd5b505afa158015611177573d6000803e3d6000fd5b505050506040513d601f19601f8201168201806040525081019061119b9190613bbd565b60ff16905060006111ad82600a613f42565b85549091506000906111c990600160a81b900460e01b83612782565b89610120015188815181106111e0576111e0614093565b602002602001015160ff166111f59190613fea565b865490915060009061121190600160c81b900460e01b84612782565b87546112279190600160e81b900460ff16613fea565b9050600082116112495760405162461bcd60e51b81526004016102a490613d20565b600081116112695760405162461bcd60e51b81526004016102a490613da8565b61128a33306112788486613ec5565b6001600160a01b038916929190612811565b505084548851600160e81b90910460ff16915087906112a99088614009565b815181106112b9576112b9614093565b60209081029190910101526001840180546001600160a01b031916331790556101208701518051869081106112f0576112f0614093565b602090810291909101015160018501805464ffffffffff60a01b1916600160a01b60ff9093169290920263ffffffff60a81b191691909117600160a81b4263ffffffff1602179055610100870151805133917f3140d73adcc923e4a0de3b1522aeec546a872bcdc06a3e25fe1209df30b954ec918890811061137457611374614093565b6020026020010151896101200151888151811061139357611393614093565b60209081029190910181015160018901546040805194855260ff90921692840192909252600160a81b90910463ffffffff169082015260600160405180910390a25050505080806113e39061404c565b915050610e54565b6113f3613448565b604051806101600160405280600081526020016001815260200186815260200185815260200160006001600160401b03811115611432576114326140a9565b60405190808252806020026020018201604052801561145b578160200160208202803683370190505b508152602001600060405190808252806020026020018201604052801561148c578160200160208202803683370190505b50815260200160006040519080825280602002602001820160405280156114bd578160200160208202803683370190505b50815260200160006040519080825280602002602001820160405280156114ee578160200160208202803683370190505b5081526020810185905260408101849052606001600060405190808252806020026020018201604052801561152d578160200160208202803683370190505b50905295945050505050565b80515b8160200151811015611a1a57611552828261287c565b600060066000846040015185600001518151811061157257611572614093565b60200260200101518560600151858151811061159057611590614093565b60200260200101516003546040516020016115ad93929190613c15565b60408051601f198184030181529181528151602092830120835282820193909352908201600020825160c08101845281546001600160a01b038116825260ff600160a01b82048116948301949094526001600160e01b0319600160a81b820460e090811b821696840196909652600160c81b820490951b9094166060820152600160e81b84048316608082015290935061167d929091849160a0840191600160f01b9091041660038111156116645761166461407d565b60038111156116755761167561407d565b905250612a38565b6040805160608101825260018301546001600160a01b0381168252600160a01b810460ff166020830152600160a81b900463ffffffff16918101919091526116c490611eb6565b60006116ec846040015184815181106116df576116df614093565b6020026020010151612b4b565b90506040518060c00160405280336001600160a01b031681526020018560a00151858151811061171e5761171e614093565b602002602001015160ff1681526020018560c00151858151811061174457611744614093565b60200260200101516001600160e01b03191681526020018560e00151858151811061177157611771614093565b60200260200101516001600160e01b0319168152602001826117b057856080015185815181106117a3576117a3614093565b60200260200101516117b3565b60015b60ff16815260200185610140015185815181106117d2576117d2614093565b602002602001015160038111156117eb576117eb61407d565b90528051835460208301516040840151606085015160808601516001600160a01b039095166001600160a81b031990941693909317600160a01b60ff938416021767ffffffffffffffff60a81b1916600160a81b60e092831c0263ffffffff60c81b191617600160c81b9390911c929092029190911760ff60e81b198116600160e81b9290931691909102918217855560a083015185929091839161ffff60e81b1990911660ff60f01b1990911617600160f01b8360038111156118b1576118b161407d565b0217905550905050336001600160a01b0316846060015184815181106118d9576118d9614093565b602002602001015185604001518660000151815181106118fb576118fb614093565b60200260200101516001600160a01b03167fc1b2f77226541f6b308379a3110d77af45464d9a161a6eb4b6cfdcd0fb2089c684611955578760800151878151811061194857611948614093565b6020026020010151611958565b60015b6003548960a00151898151811061197157611971614093565b60200260200101518a60c001518a8151811061198f5761198f614093565b60200260200101518b60e001518b815181106119ad576119ad614093565b6020026020010151898d61014001518d815181106119cd576119cd614093565b60200260200101516040516119e89796959493929190613e09565b60405180910390a460038054906000611a008361404c565b919050555050508080611a129061404c565b91505061153c565b50611a53813330611a3a8560600151866000015187602001516000611fc2565b61083b8660800151876000015188602001516000611fc2565b50565b611a5e613448565b604051806101600160405280600081526020016001815260200189815260200188815260200187815260200186815260200185815260200184815260200160006001600160401b03811115611ab557611ab56140a9565b604051908082528060200260200182016040528015611ade578160200160208202803683370190505b5081526020016000604051908082528060200260200182016040528015611b0f578160200160208202803683370190505b50815260200192909252509695505050505050565b80516020820151600091611b3791614009565b6001600160401b03811115611b4e57611b4e6140a9565b604051908082528060200260200182016040528015611b77578160200160208202803683370190505b5082519091505b8260200151811015611dea576000600660008560400151866000015181518110611baa57611baa614093565b602002602001015186606001518581518110611bc857611bc8614093565b60200260200101518761010001518681518110611be757611be7614093565b6020026020010151604051602001611c0193929190613c15565b60408051601f198184030181529181528151602092830120835282820193909352908201600020825160c08101845281546001600160a01b038116825260ff600160a01b82048116948301949094526001600160e01b0319600160a81b820460e090811b821696840196909652600160c81b820490951b9094166060820152600160e81b840483166080820152909350611cb8929091849160a0840191600160f01b9091041660038111156106495761064961407d565b6040805160608101825260018301546001600160a01b0381168252600160a01b810460ff166020830152600160a81b900463ffffffff1691810191909152611d01903342612b81565b6001810154600090611d2090600160a81b900463ffffffff1642614009565b9050611d2c8282612c31565b81548551600160e81b90910460ff16908590611d489086614009565b81518110611d5857611d58614093565b6020026020010181815250508461010001518381518110611d7b57611d7b614093565b60200260200101517f289da9cb3ecd362ad5ae230d4daa346e68abbd8972cd9c01df54b7b1b97ab15b42604051611dbe919063ffffffff91909116815260200190565b60405180910390a25060010180546001600160c81b031916905580611de28161404c565b915050611b7e565b506108408233306108288660600151876000015188602001516000611fc2565b8051611e1590612f27565b602081015160ff16611e605760405162461bcd60e51b815260206004820152601460248201527352654e46543a3a6475726174696f6e207a65726f60601b60448201526064016102a4565b60408101516001600160e01b031916611e8b5760405162461bcd60e51b81526004016102a490613d20565b60608101516001600160e01b031916611a535760405162461bcd60e51b81526004016102a490613da8565b8051611ec190612f73565b602081015160ff1615611f115760405162461bcd60e51b815260206004820152601860248201527752654e46543a3a6475726174696f6e206e6f74207a65726f60401b60448201526064016102a4565b604081015163ffffffff1615611a535760405162461bcd60e51b815260206004820152601960248201527f52654e46543a3a72656e746564206174206e6f74207a65726f0000000000000060448201526064016102a4565b806001600160a01b031682600001516001600160a01b0316146108405760405162461bcd60e51b81526020600482015260116024820152702932a7232a1d1d3737ba103632b73232b960791b60448201526064016102a4565b6060611fce8484614009565b6001600160401b03811115611fe557611fe56140a9565b60405190808252806020026020018201604052801561200e578160200160208202803683370190505b509050835b8381101561207857856120268483614009565b8151811061203657612036614093565b602002602001015182868361204b9190614009565b8151811061205b5761205b614093565b6020908102919091010152806120708161404c565b915050612013565b50949350505050565b61209e85604001518660000151815181106116df576116df614093565b156121645760408501518551815181106120ba576120ba614093565b60200260200101516001600160a01b03166323b872dd858588606001518960000151815181106120ec576120ec614093565b60209081029190910101516040516001600160e01b031960e086901b1681526001600160a01b03938416600482015292909116602483015260448201526064015b600060405180830381600087803b15801561214757600080fd5b505af115801561215b573d6000803e3d6000fd5b5050505061221e565b6121818560400151866000015181518110610a5157610a51614093565b156121d657604085015185518151811061219d5761219d614093565b60200260200101516001600160a01b0316632eb2c2d6858585856040518563ffffffff1660e01b815260040161212d9493929190613c5b565b60405162461bcd60e51b815260206004820152601d60248201527f52654e46543a3a756e737570706f7274656420746f6b656e207479706500000060448201526064016102a4565b5050505050565b6040516301ffc9a760e01b8152636cdb3d1360e11b60048201526000906001600160a01b038316906301ffc9a7906024015b60206040518083038186803b15801561226f57600080fd5b505afa158015612283573d6000803e3d6000fd5b505050506040513d601f19601f8201168201806040525081019061027b9190613b6c565b80516122b290612f27565b602081015160ff166122d65760405162461bcd60e51b81526004016102a490613ce9565b604081015163ffffffff16611a535760405162461bcd60e51b815260206004820152601860248201527f52654e46543a3a72656e746564206174206973207a65726f000000000000000060448201526064016102a4565b6123378282612fca565b6108405760405162461bcd60e51b815260206004820152601d60248201527f52654e46543a3a72657475726e2064617465206e6f742070617373656400000060448201526064016102a4565b805160a00151600090600381111561239d5761239d61407d565b90506123a88161272f565b6000805460405163c6ee427f60e01b815260ff841660048201526001600160a01b039091169063c6ee427f9060240160206040518083038186803b1580156123ef57600080fd5b505afa158015612403573d6000803e3d6000fd5b505050506040513d601f19601f820116820180604052508101906124279190613754565b90506000816001600160a01b031663313ce5676040518163ffffffff1660e01b815260040160206040518083038186803b15801561246457600080fd5b505afa158015612478573d6000803e3d6000fd5b505050506040513d601f19601f8201168201806040525081019061249c9190613bbd565b60ff16905060006124ae82600a613f42565b905060006124c486600001516060015183612782565b8651608001516124d7919060ff16613fea565b905060006124ed87600001516040015184612782565b9050600087602001516020015160ff16826125089190613fea565b9050600061252a828960ff1660038111156125255761252561407d565b613058565b905060006125388584613ec5565b9050600083116125965760405162461bcd60e51b815260206004820152602360248201527f52654e46543a3a636f6c6c61746572616c20706c75732072656e74206973207a60448201526265726f60e81b60648201526084016102a4565b8951516125b8906125a78484614009565b6001600160a01b038b16919061313b565b50505050505050505050565b83516001600160a01b03828116911614156126215760405162461bcd60e51b815260206004820152601860248201527f52654e46543a3a63616e742072656e74206f776e206e6674000000000000000060448201526064016102a4565b60ff8016836101200151838151811061263c5761263c614093565b602002602001015160ff1611156126655760405162461bcd60e51b81526004016102a490613d57565b6000836101200151838151811061267e5761267e614093565b602002602001015160ff16116126a65760405162461bcd60e51b81526004016102a490613ce9565b836020015160ff1683610120015183815181106126c5576126c5614093565b602002602001015160ff1611156103ba5760405162461bcd60e51b815260206004820152602860248201527f52654e46543a3a72656e74206475726174696f6e206578636565647320616c6c6044820152670deeecac840dac2f60c31b60648201526084016102a4565b60008160ff1611611a535760405162461bcd60e51b815260206004820152601860248201527f52654e46543a3a746f6b656e2069732073656e74696e656c000000000000000060448201526064016102a4565b600061278e838361316b565b60f083901c61ffff60e085901c1660006127aa61271086613edd565b905061270f8361ffff1611156127c05761270f92505b61270f8261ffff1611156127d45761270f91505b60006127e48661ffff8616613fea565b905060006127f68361ffff8616613fea565b905060006128048284613ec5565b9998505050505050505050565b6040516001600160a01b03808516602483015283166044820152606481018290526103ba9085906323b872dd60e01b906084015b60408051601f198184030181529190526020810180516001600160e01b03166001600160e01b0319909316929092179091526131fc565b60008260800151828151811061289457612894614093565b6020026020010151116128e95760405162461bcd60e51b815260206004820152601a60248201527f52654e46543a3a6c656e6420616d6f756e74206973207a65726f00000000000060448201526064016102a4565b60ff80168260800151828151811061290357612903614093565b602002602001015111156129295760405162461bcd60e51b81526004016102a490613d57565b60008260a00151828151811061294157612941614093565b602002602001015160ff16116129695760405162461bcd60e51b81526004016102a490613ce9565b60ff80168260a00151828151811061298357612983614093565b602002602001015160ff1611156129ac5760405162461bcd60e51b81526004016102a490613d57565b60008260c0015182815181106129c4576129c4614093565b602002602001015160e01c63ffffffff16116129f25760405162461bcd60e51b81526004016102a490613d20565b60008260e001518281518110612a0a57612a0a614093565b602002602001015160e01c63ffffffff16116108405760405162461bcd60e51b81526004016102a490613da8565b8051612a4390612f73565b602081015160ff1615612a935760405162461bcd60e51b815260206004820152601860248201527752654e46543a3a6475726174696f6e206e6f74207a65726f60401b60448201526064016102a4565b60408101516001600160e01b03191615612aef5760405162461bcd60e51b815260206004820152601a60248201527f52654e46543a3a72656e74207072696365206e6f74207a65726f00000000000060448201526064016102a4565b60608101516001600160e01b03191615611a535760405162461bcd60e51b815260206004820152601960248201527f52654e46543a3a6e6674207072696365206e6f74207a65726f0000000000000060448201526064016102a4565b6040516301ffc9a760e01b81526380ac58cd60e01b60048201526000906001600160a01b038316906301ffc9a790602401612257565b816001600160a01b031683600001516001600160a01b031614612bda5760405162461bcd60e51b81526020600482015260116024820152702932a7232a1d1d3737ba103932b73a32b960791b60448201526064016102a4565b612be48382612fca565b156102c35760405162461bcd60e51b815260206004820152601760248201527f52654e46543a3a706173742072657475726e206461746500000000000000000060448201526064016102a4565b8154600090600160f01b900460ff166003811115612c5157612c5161407d565b9050612c5c8161272f565b6000805460405163c6ee427f60e01b815260ff841660048201526001600160a01b039091169063c6ee427f9060240160206040518083038186803b158015612ca357600080fd5b505afa158015612cb7573d6000803e3d6000fd5b505050506040513d601f19601f82011682018060405250810190612cdb9190613754565b90506000816001600160a01b031663313ce5676040518163ffffffff1660e01b815260040160206040518083038186803b158015612d1857600080fd5b505afa158015612d2c573d6000803e3d6000fd5b505050506040513d601f19601f82011682018060405250810190612d509190613bbd565b60ff1690506000612d6282600a613f42565b8654909150600090612d7e90600160c81b900460e01b83612782565b8754612d949190600160e81b900460ff16613fea565b8754909150600090612db090600160a81b900460e01b84612782565b6001890154909150600090612dcf90600160a01b900460ff1683613fea565b9050600062015180612de1848b613fea565b612deb9190613edd565b905060008211612e505760405162461bcd60e51b815260206004820152602a60248201527f52654e46543a3a746f74616c207061796d656e7420776f20636f6c6c61746572604482015269616c206973207a65726f60b01b60648201526084016102a4565b60008111612ea05760405162461bcd60e51b815260206004820152601d60248201527f52654e46543a3a6c656e646572207061796d656e74206973207a65726f00000060448201526064016102a4565b6000612eac8284614009565b8b54909150600090612ec9908490600160f01b900460ff16613058565b9050612ed58184614009565b9250612ee18683613ec5565b8c54909250612efd906001600160a01b038b811691168561313b565b60018c0154612f19906001600160a01b038b811691168461313b565b505050505050505050505050565b6001600160a01b038116611a535760405162461bcd60e51b815260206004820152601360248201527252654e46543a3a7a65726f206164647265737360681b60448201526064016102a4565b6001600160a01b03811615611a535760405162461bcd60e51b815260206004820152601960248201527f52654e46543a3a6e6f742061207a65726f20616464726573730000000000000060448201526064016102a4565b6000826040015163ffffffff1682116130255760405162461bcd60e51b815260206004820152601860248201527f52654e46543a3a6e6f77206265666f72652072656e746564000000000000000060448201526064016102a4565b62015180836020015160ff1661303b9190613fea565b60408401516130509063ffffffff1684614009565b119392505050565b6000600554836130689190613fea565b905061307661271082613edd565b9050600082600381111561308c5761308c61407d565b90506130978161272f565b6000805460405163c6ee427f60e01b815260ff841660048201526001600160a01b039091169063c6ee427f9060240160206040518083038186803b1580156130de57600080fd5b505afa1580156130f2573d6000803e3d6000fd5b505050506040513d601f19601f820116820180604052508101906131169190613754565b600254909150613133906001600160a01b0380841691168561313b565b505092915050565b6040516001600160a01b0383166024820152604481018290526102c390849063a9059cbb60e01b90606401612845565b60e082901c6131b35760405162461bcd60e51b815260206004820152601460248201527352654e46543a3a696e76616c696420707269636560601b60448201526064016102a4565b6127108110156108405760405162461bcd60e51b815260206004820152601460248201527352654e46543a3a696e76616c6964207363616c6560601b60448201526064016102a4565b6000613251826040518060400160405280602081526020017f5361666545524332303a206c6f772d6c6576656c2063616c6c206661696c6564815250856001600160a01b03166132ce9092919063ffffffff16565b8051909150156102c3578080602001905181019061326f9190613b6c565b6102c35760405162461bcd60e51b815260206004820152602a60248201527f5361666545524332303a204552433230206f7065726174696f6e20646964206e6044820152691bdd081cdd58d8d9595960b21b60648201526084016102a4565b60606132dd84846000856132e7565b90505b9392505050565b6060824710156133485760405162461bcd60e51b815260206004820152602660248201527f416464726573733a20696e73756666696369656e742062616c616e636520666f6044820152651c8818d85b1b60d21b60648201526084016102a4565b843b6133965760405162461bcd60e51b815260206004820152601d60248201527f416464726573733a2063616c6c20746f206e6f6e2d636f6e747261637400000060448201526064016102a4565b600080866001600160a01b031685876040516133b29190613c3f565b60006040518083038185875af1925050503d80600081146133ef576040519150601f19603f3d011682016040523d82523d6000602084013e6133f4565b606091505b509150915061340482828661340f565b979650505050505050565b6060831561341e5750816132e0565b82511561342e5782518084602001fd5b8160405162461bcd60e51b81526004016102a49190613cb6565b60405180610160016040528060008152602001600081526020016060815260200160608152602001606081526020016060815260200160608152602001606081526020016060815260200160608152602001606081525090565b600082601f8301126134b357600080fd5b813560206134c86134c383613ea2565b613e72565b80838252828201915082860187848660051b89010111156134e857600080fd5b60005b858110156135105781356134fe816140bf565b845292840192908401906001016134eb565b5090979650505050505050565b600082601f83011261352e57600080fd5b8135602061353e6134c383613ea2565b80838252828201915082860187848660051b890101111561355e57600080fd5b60005b8581101561351057613572826136c8565b84529284019290840190600101613561565b600082601f83011261359557600080fd5b813560206135a56134c383613ea2565b80838252828201915082860187848660051b89010111156135c557600080fd5b6000805b868110156135f1578235600481106135df578283fd5b855293850193918501916001016135c9565b509198975050505050505050565b600082601f83011261361057600080fd5b813560206136206134c383613ea2565b80838252828201915082860187848660051b890101111561364057600080fd5b60005b8581101561351057813584529284019290840190600101613643565b600082601f83011261367057600080fd5b813560206136806134c383613ea2565b80838252828201915082860187848660051b89010111156136a057600080fd5b60005b858110156135105781356136b6816140e2565b845292840192908401906001016136a3565b80356001600160e01b0319811681146136e057600080fd5b919050565b600082601f8301126136f657600080fd5b81356001600160401b0381111561370f5761370f6140a9565b613722601f8201601f1916602001613e72565b81815284602083860101111561373757600080fd5b816020850160208301376000918101602001919091529392505050565b60006020828403121561376657600080fd5b81516132e0816140bf565b60006020828403121561378357600080fd5b81356132e0816140bf565b600080600080600060a086880312156137a657600080fd5b85356137b1816140bf565b945060208601356137c1816140bf565b935060408601356001600160401b03808211156137dd57600080fd5b6137e989838a016135ff565b945060608801359150808211156137ff57600080fd5b61380b89838a016135ff565b9350608088013591508082111561382157600080fd5b5061382e888289016136e5565b9150509295509295909350565b6000806000806080858703121561385157600080fd5b843561385c816140bf565b9350602085013561386c816140bf565b92506040850135915060608501356001600160401b0381111561388e57600080fd5b61389a878288016136e5565b91505092959194509250565b600080600080600060a086880312156138be57600080fd5b85356138c9816140bf565b945060208601356138d9816140bf565b9350604086013592506060860135915060808601356001600160401b0381111561390257600080fd5b61382e888289016136e5565b60008060006060848603121561392357600080fd5b83356001600160401b038082111561393a57600080fd5b613946878388016134a2565b9450602086013591508082111561395c57600080fd5b613968878388016135ff565b9350604086013591508082111561397e57600080fd5b5061398b868287016135ff565b9150509250925092565b600080600080608085870312156139ab57600080fd5b84356001600160401b03808211156139c257600080fd5b6139ce888389016134a2565b955060208701359150808211156139e457600080fd5b6139f0888389016135ff565b94506040870135915080821115613a0657600080fd5b613a12888389016135ff565b93506060870135915080821115613a2857600080fd5b5061389a8782880161365f565b600080600080600080600060e0888a031215613a5057600080fd5b87356001600160401b0380821115613a6757600080fd5b613a738b838c016134a2565b985060208a0135915080821115613a8957600080fd5b613a958b838c016135ff565b975060408a0135915080821115613aab57600080fd5b613ab78b838c016135ff565b965060608a0135915080821115613acd57600080fd5b613ad98b838c0161365f565b955060808a0135915080821115613aef57600080fd5b613afb8b838c0161351d565b945060a08a0135915080821115613b1157600080fd5b613b1d8b838c0161351d565b935060c08a0135915080821115613b3357600080fd5b50613b408a828b01613584565b91505092959891949750929550565b600060208284031215613b6157600080fd5b81356132e0816140d4565b600060208284031215613b7e57600080fd5b81516132e0816140d4565b600060208284031215613b9b57600080fd5b6132e0826136c8565b600060208284031215613bb657600080fd5b5035919050565b600060208284031215613bcf57600080fd5b81516132e0816140e2565b600081518084526020808501945080840160005b83811015613c0a57815187529582019590820190600101613bee565b509495945050505050565b60609390931b6bffffffffffffffffffffffff191683526014830191909152603482015260540190565b60008251613c51818460208701614020565b9190910192915050565b6001600160a01b0385811682528416602082015260a060408201819052600090613c8790830185613bda565b8281036060840152613c998185613bda565b838103608090940193909352505060008152602001949350505050565b6020815260008251806020840152613cd5816040850160208701614020565b601f01601f19169190910160400192915050565b60208082526017908201527f52654e46543a3a6475726174696f6e206973207a65726f000000000000000000604082015260600190565b60208082526019908201527f52654e46543a3a72656e74207072696365206973207a65726f00000000000000604082015260600190565b60208082526010908201526f0a4ca9c8ca87474dcdee840ead2dce8760831b604082015260600190565b6020808252600d908201526c14995391950e8e9c185d5cd959609a1b604082015260600190565b60208082526018908201527f52654e46543a3a6e6674207072696365206973207a65726f0000000000000000604082015260600190565b60208082526010908201526f2932a7232a1d1d3737ba1030b236b4b760811b604082015260600190565b60ff888116825260208201889052861660408201526001600160e01b031985811660608301528416608082015282151560a082015260e0810160048310613e6057634e487b7160e01b600052602160045260246000fd5b8260c083015298975050505050505050565b604051601f8201601f191681016001600160401b0381118282101715613e9a57613e9a6140a9565b604052919050565b60006001600160401b03821115613ebb57613ebb6140a9565b5060051b60200190565b60008219821115613ed857613ed8614067565b500190565b600082613efa57634e487b7160e01b600052601260045260246000fd5b500490565b600181815b80851115613f3a578160001904821115613f2057613f20614067565b80851615613f2d57918102915b93841c9390800290613f04565b509250929050565b60006132e08383600082613f585750600161027b565b81613f655750600061027b565b8160018114613f7b5760028114613f8557613fa1565b600191505061027b565b60ff841115613f9657613f96614067565b50506001821b61027b565b5060208310610133831016604e8410600b8410161715613fc4575081810a61027b565b613fce8383613eff565b8060001904821115613fe257613fe2614067565b029392505050565b600081600019048311821515161561400457614004614067565b500290565b60008282101561401b5761401b614067565b500390565b60005b8381101561403b578181015183820152602001614023565b838111156103ba5750506000910152565b600060001982141561406057614060614067565b5060010190565b634e487b7160e01b600052601160045260246000fd5b634e487b7160e01b600052602160045260246000fd5b634e487b7160e01b600052603260045260246000fd5b634e487b7160e01b600052604160045260246000fd5b6001600160a01b0381168114611a5357600080fd5b8015158114611a5357600080fd5b60ff81168114611a5357600080fdfea26469706673582212205716c244f65f9a93775023fdbfbdcf0772c63ce6fe28509200cd54ee4fa7a79d64736f6c63430008060033",
  "bytecodeSha1": "3a0569869d32e41549b216e5e79a34b1487c280c",
  "compiler": {
    "evm_version": "istanbul",
    "optimizer": {
      "enabled": true,
      "runs": 200
    },
    "version": "0.8.6+commit.11564f7e"
  },
  "contractName": "ReNFT",
  "language": "Solidity",
  "natspec": {
    "kind": "dev",
    "methods": {
      "claimCollateral(address[],uint256[],uint256[])": {
        "details": "claim collateral on rentals that are past their due date"
      },
      "onERC721Received(address,address,uint256,bytes)": {
        "details": "See {IERC721Receiver-onERC721Received}. Always returns `IERC721Receiver.onERC721Received.selector`."
      },
      "supportsInterface(bytes4)": {
        "details": "See {IERC165-supportsInterface}."
      }
    },
    "version": 1
  },
  "opcodes": "PUSH1 0x80 PUSH1 0x40 MSTORE CALLVALUE DUP1 ISZERO PUSH2 0x10 JUMPI PUSH1 0x0 DUP1 REVERT JUMPDEST POP PUSH1 0x4 CALLDATASIZE LT PUSH2 0xEA JUMPI PUSH1 0x0 CALLDATALOAD PUSH1 0xE0 SHR DUP1 PUSH4 0x5DE07CA3 GT PUSH2 0x8C JUMPI DUP1 PUSH4 0xBF2B23EA GT PUSH2 0x66 JUMPI DUP1 PUSH4 0xBF2B23EA EQ PUSH2 0x1EE JUMPI DUP1 PUSH4 0xE50364B2 EQ PUSH2 0x205 JUMPI DUP1 PUSH4 0xF23A6E61 EQ PUSH2 0x218 JUMPI DUP1 PUSH4 0xFB158519 EQ PUSH2 0x237 JUMPI PUSH1 0x0 DUP1 REVERT JUMPDEST DUP1 PUSH4 0x5DE07CA3 EQ PUSH2 0x1A9 JUMPI DUP1 PUSH4 0x76774EA3 EQ PUSH2 0x1BC JUMPI DUP1 PUSH4 0xBC197C81 EQ PUSH2 0x1CF JUMPI PUSH1 0x0 DUP1 REVERT JUMPDEST DUP1 PUSH4 0x16C38B3C GT PUSH2 0xC8 JUMPI DUP1 PUSH4 0x16C38B3C EQ PUSH2 0x163 JUMPI DUP1 PUSH4 0x1C31F710 EQ PUSH2 0x176 JUMPI DUP1 PUSH4 0x59FE66E4 EQ PUSH2 0x189 JUMPI DUP1 PUSH4 0x5C975ABB EQ PUSH2 0x19C JUMPI PUSH1 0x0 DUP1 REVERT JUMPDEST DUP1 PUSH4 0x1FFC9A7 EQ PUSH2 0xEF JUMPI DUP1 PUSH4 0x98130DF EQ PUSH2 0x117 JUMPI DUP1 PUSH4 0x150B7A02 EQ PUSH2 0x12C JUMPI JUMPDEST PUSH1 0x0 DUP1 REVERT JUMPDEST PUSH2 0x102 PUSH2 0xFD CALLDATASIZE PUSH1 0x4 PUSH2 0x3B89 JUMP JUMPDEST PUSH2 0x24A JUMP JUMPDEST PUSH1 0x40 MLOAD SWAP1 ISZERO ISZERO DUP2 MSTORE PUSH1 0x20 ADD JUMPDEST PUSH1 0x40 MLOAD DUP1 SWAP2 SUB SWAP1 RETURN JUMPDEST PUSH2 0x12A PUSH2 0x125 CALLDATASIZE PUSH1 0x4 PUSH2 0x390E JUMP JUMPDEST PUSH2 0x281 JUMP JUMPDEST STOP JUMPDEST PUSH2 0x14A PUSH2 0x13A CALLDATASIZE PUSH1 0x4 PUSH2 0x383B JUMP JUMPDEST PUSH4 0xA85BD01 PUSH1 0xE1 SHL SWAP5 SWAP4 POP POP POP POP JUMP JUMPDEST PUSH1 0x40 MLOAD PUSH1 0x1 PUSH1 0x1 PUSH1 0xE0 SHL SUB NOT SWAP1 SWAP2 AND DUP2 MSTORE PUSH1 0x20 ADD PUSH2 0x10E JUMP JUMPDEST PUSH2 0x12A PUSH2 0x171 CALLDATASIZE PUSH1 0x4 PUSH2 0x3B4F JUMP JUMPDEST PUSH2 0x2C8 JUMP JUMPDEST PUSH2 0x12A PUSH2 0x184 CALLDATASIZE PUSH1 0x4 PUSH2 0x3771 JUMP JUMPDEST PUSH2 0x305 JUMP JUMPDEST PUSH2 0x12A PUSH2 0x197 CALLDATASIZE PUSH1 0x4 PUSH2 0x390E JUMP JUMPDEST PUSH2 0x351 JUMP JUMPDEST PUSH1 0x4 SLOAD PUSH2 0x102 SWAP1 PUSH1 0xFF AND DUP2 JUMP JUMPDEST PUSH2 0x12A PUSH2 0x1B7 CALLDATASIZE PUSH1 0x4 PUSH2 0x3995 JUMP JUMPDEST PUSH2 0x385 JUMP JUMPDEST PUSH2 0x12A PUSH2 0x1CA CALLDATASIZE PUSH1 0x4 PUSH2 0x3BA4 JUMP JUMPDEST PUSH2 0x3C0 JUMP JUMPDEST PUSH2 0x14A PUSH2 0x1DD CALLDATASIZE PUSH1 0x4 PUSH2 0x378E JUMP JUMPDEST PUSH4 0xBC197C81 PUSH1 0xE0 SHL SWAP6 SWAP5 POP POP POP POP POP JUMP JUMPDEST PUSH2 0x1F7 PUSH1 0x5 SLOAD DUP2 JUMP JUMPDEST PUSH1 0x40 MLOAD SWAP1 DUP2 MSTORE PUSH1 0x20 ADD PUSH2 0x10E JUMP JUMPDEST PUSH2 0x12A PUSH2 0x213 CALLDATASIZE PUSH1 0x4 PUSH2 0x3A35 JUMP JUMPDEST PUSH2 0x440 JUMP JUMPDEST PUSH2 0x14A PUSH2 0x226 CALLDATASIZE PUSH1 0x4 PUSH2 0x38A6 JUMP JUMPDEST PUSH4 0xF23A6E61 PUSH1 0xE0 SHL SWAP6 SWAP5 POP POP POP POP POP JUMP JUMPDEST PUSH2 0x12A PUSH2 0x245 CALLDATASIZE PUSH1 0x4 PUSH2 0x390E JUMP JUMPDEST PUSH2 0x481 JUMP JUMPDEST PUSH1 0x0 PUSH1 0x1 PUSH1 0x1 PUSH1 0xE0 SHL SUB NOT DUP3 AND PUSH4 0x2711897 PUSH1 0xE5 SHL EQ DUP1 PUSH2 0x27B JUMPI POP PUSH4 0x1FFC9A7 PUSH1 0xE0 SHL PUSH1 0x1 PUSH1 0x1 PUSH1 0xE0 SHL SUB NOT DUP4 AND EQ JUMPDEST SWAP3 SWAP2 POP POP JUMP JUMPDEST PUSH1 0x4 SLOAD PUSH1 0xFF AND ISZERO PUSH2 0x2AD JUMPI PUSH1 0x40 MLOAD PUSH3 0x461BCD PUSH1 0xE5 SHL DUP2 MSTORE PUSH1 0x4 ADD PUSH2 0x2A4 SWAP1 PUSH2 0x3D81 JUMP JUMPDEST PUSH1 0x40 MLOAD DUP1 SWAP2 SUB SWAP1 REVERT JUMPDEST PUSH2 0x2C3 PUSH2 0x4B5 PUSH2 0x2BE DUP6 DUP6 DUP6 PUSH2 0x844 JUMP JUMPDEST PUSH2 0x980 JUMP JUMPDEST POP POP POP JUMP JUMPDEST PUSH1 0x1 SLOAD PUSH1 0x1 PUSH1 0x1 PUSH1 0xA0 SHL SUB AND CALLER EQ PUSH2 0x2F2 JUMPI PUSH1 0x40 MLOAD PUSH3 0x461BCD PUSH1 0xE5 SHL DUP2 MSTORE PUSH1 0x4 ADD PUSH2 0x2A4 SWAP1 PUSH2 0x3DDF JUMP JUMPDEST PUSH1 0x4 DUP1 SLOAD PUSH1 0xFF NOT AND SWAP2 ISZERO ISZERO SWAP2 SWAP1 SWAP2 OR SWAP1 SSTORE JUMP JUMPDEST PUSH1 0x1 SLOAD PUSH1 0x1 PUSH1 0x1 PUSH1 0xA0 SHL SUB AND CALLER EQ PUSH2 0x32F JUMPI PUSH1 0x40 MLOAD PUSH3 0x461BCD PUSH1 0xE5 SHL DUP2 MSTORE PUSH1 0x4 ADD PUSH2 0x2A4 SWAP1 PUSH2 0x3DDF JUMP JUMPDEST PUSH1 0x2 DUP1 SLOAD PUSH1 0x1 PUSH1 0x1 PUSH1 0xA0 SHL SUB NOT AND PUSH1 0x1 PUSH1 0x1 PUSH1 0xA0 SHL SUB SWAP3 SWAP1 SWAP3 AND SWAP2 SWAP1 SWAP2 OR SWAP1 SSTORE JUMP JUMPDEST PUSH1 0x4 SLOAD PUSH1 0xFF AND ISZERO PUSH2 0x374 JUMPI PUSH1 0x40 MLOAD PUSH3 0x461BCD PUSH1 0xE5 SHL DUP2 MSTORE PUSH1 0x4 ADD PUSH2 0x2A4 SWAP1 PUSH2 0x3D81 JUMP JUMPDEST PUSH2 0x2C3 PUSH2 0xAA8 PUSH2 0x2BE DUP6 DUP6 DUP6 PUSH2 0x844 JUMP JUMPDEST PUSH1 0x4 SLOAD PUSH1 0xFF AND ISZERO PUSH2 0x3A8 JUMPI PUSH1 0x40 MLOAD PUSH3 0x461BCD PUSH1 0xE5 SHL DUP2 MSTORE PUSH1 0x4 ADD PUSH2 0x2A4 SWAP1 PUSH2 0x3D81 JUMP JUMPDEST PUSH2 0x3BA PUSH2 0xDFA PUSH2 0x2BE DUP7 DUP7 DUP7 DUP7 PUSH2 0x13EB JUMP JUMPDEST POP POP POP POP JUMP JUMPDEST PUSH1 0x1 SLOAD PUSH1 0x1 PUSH1 0x1 PUSH1 0xA0 SHL SUB AND CALLER EQ PUSH2 0x3EA JUMPI PUSH1 0x40 MLOAD PUSH3 0x461BCD PUSH1 0xE5 SHL DUP2 MSTORE PUSH1 0x4 ADD PUSH2 0x2A4 SWAP1 PUSH2 0x3DDF JUMP JUMPDEST PUSH2 0x2710 DUP2 LT PUSH2 0x43B JUMPI PUSH1 0x40 MLOAD PUSH3 0x461BCD PUSH1 0xE5 SHL DUP2 MSTORE PUSH1 0x20 PUSH1 0x4 DUP3 ADD MSTORE PUSH1 0x19 PUSH1 0x24 DUP3 ADD MSTORE PUSH32 0x52654E46543A3A66656520657863656564732031303070637400000000000000 PUSH1 0x44 DUP3 ADD MSTORE PUSH1 0x64 ADD PUSH2 0x2A4 JUMP JUMPDEST PUSH1 0x5 SSTORE JUMP JUMPDEST PUSH1 0x4 SLOAD PUSH1 0xFF AND ISZERO PUSH2 0x463 JUMPI PUSH1 0x40 MLOAD PUSH3 0x461BCD PUSH1 0xE5 SHL DUP2 MSTORE PUSH1 0x4 ADD PUSH2 0x2A4 SWAP1 PUSH2 0x3D81 JUMP JUMPDEST PUSH2 0x478 PUSH2 0x1539 PUSH2 0x2BE DUP10 DUP10 DUP10 DUP10 DUP10 DUP10 DUP10 PUSH2 0x1A56 JUMP JUMPDEST POP POP POP POP POP POP POP JUMP JUMPDEST PUSH1 0x4 SLOAD PUSH1 0xFF AND ISZERO PUSH2 0x4A4 JUMPI PUSH1 0x40 MLOAD PUSH3 0x461BCD PUSH1 0xE5 SHL DUP2 MSTORE PUSH1 0x4 ADD PUSH2 0x2A4 SWAP1 PUSH2 0x3D81 JUMP JUMPDEST PUSH2 0x2C3 PUSH2 0x1B24 PUSH2 0x2BE DUP6 DUP6 DUP6 PUSH2 0x844 JUMP JUMPDEST DUP1 MLOAD PUSH1 0x20 DUP3 ADD MLOAD PUSH1 0x0 SWAP2 PUSH2 0x4C8 SWAP2 PUSH2 0x4009 JUMP JUMPDEST PUSH1 0x1 PUSH1 0x1 PUSH1 0x40 SHL SUB DUP2 GT ISZERO PUSH2 0x4DF JUMPI PUSH2 0x4DF PUSH2 0x40A9 JUMP JUMPDEST PUSH1 0x40 MLOAD SWAP1 DUP1 DUP3 MSTORE DUP1 PUSH1 0x20 MUL PUSH1 0x20 ADD DUP3 ADD PUSH1 0x40 MSTORE DUP1 ISZERO PUSH2 0x508 JUMPI DUP2 PUSH1 0x20 ADD PUSH1 0x20 DUP3 MUL DUP1 CALLDATASIZE DUP4 CALLDATACOPY ADD SWAP1 POP JUMPDEST POP DUP3 MLOAD SWAP1 SWAP2 POP JUMPDEST DUP3 PUSH1 0x20 ADD MLOAD DUP2 LT ISZERO PUSH2 0x808 JUMPI PUSH1 0x0 PUSH1 0x6 PUSH1 0x0 DUP6 PUSH1 0x40 ADD MLOAD DUP7 PUSH1 0x0 ADD MLOAD DUP2 MLOAD DUP2 LT PUSH2 0x53B JUMPI PUSH2 0x53B PUSH2 0x4093 JUMP JUMPDEST PUSH1 0x20 MUL PUSH1 0x20 ADD ADD MLOAD DUP7 PUSH1 0x60 ADD MLOAD DUP6 DUP2 MLOAD DUP2 LT PUSH2 0x559 JUMPI PUSH2 0x559 PUSH2 0x4093 JUMP JUMPDEST PUSH1 0x20 MUL PUSH1 0x20 ADD ADD MLOAD DUP8 PUSH2 0x100 ADD MLOAD DUP7 DUP2 MLOAD DUP2 LT PUSH2 0x578 JUMPI PUSH2 0x578 PUSH2 0x4093 JUMP JUMPDEST PUSH1 0x20 MUL PUSH1 0x20 ADD ADD MLOAD PUSH1 0x40 MLOAD PUSH1 0x20 ADD PUSH2 0x592 SWAP4 SWAP3 SWAP2 SWAP1 PUSH2 0x3C15 JUMP JUMPDEST PUSH1 0x40 DUP1 MLOAD PUSH1 0x1F NOT DUP2 DUP5 SUB ADD DUP2 MSTORE SWAP2 DUP2 MSTORE DUP2 MLOAD PUSH1 0x20 SWAP3 DUP4 ADD KECCAK256 DUP4 MSTORE DUP3 DUP3 ADD SWAP4 SWAP1 SWAP4 MSTORE SWAP1 DUP3 ADD PUSH1 0x0 KECCAK256 DUP3 MLOAD PUSH1 0xC0 DUP2 ADD DUP5 MSTORE DUP2 SLOAD PUSH1 0x1 PUSH1 0x1 PUSH1 0xA0 SHL SUB DUP2 AND DUP3 MSTORE PUSH1 0xFF PUSH1 0x1 PUSH1 0xA0 SHL DUP3 DIV DUP2 AND SWAP5 DUP4 ADD SWAP5 SWAP1 SWAP5 MSTORE PUSH1 0x1 PUSH1 0x1 PUSH1 0xE0 SHL SUB NOT PUSH1 0x1 PUSH1 0xA8 SHL DUP3 DIV PUSH1 0xE0 SWAP1 DUP2 SHL DUP3 AND SWAP7 DUP5 ADD SWAP7 SWAP1 SWAP7 MSTORE PUSH1 0x1 PUSH1 0xC8 SHL DUP3 DIV SWAP1 SWAP6 SHL SWAP1 SWAP5 AND PUSH1 0x60 DUP3 ADD MSTORE PUSH1 0x1 PUSH1 0xE8 SHL DUP5 DIV DUP4 AND PUSH1 0x80 DUP3 ADD MSTORE SWAP1 SWAP4 POP PUSH2 0x662 SWAP3 SWAP1 SWAP2 DUP5 SWAP2 PUSH1 0xA0 DUP5 ADD SWAP2 PUSH1 0x1 PUSH1 0xF0 SHL SWAP1 SWAP2 DIV AND PUSH1 0x3 DUP2 GT ISZERO PUSH2 0x649 JUMPI PUSH2 0x649 PUSH2 0x407D JUMP JUMPDEST PUSH1 0x3 DUP2 GT ISZERO PUSH2 0x65A JUMPI PUSH2 0x65A PUSH2 0x407D JUMP JUMPDEST SWAP1 MSTORE POP PUSH2 0x1E0A JUMP JUMPDEST PUSH1 0x40 DUP1 MLOAD PUSH1 0x60 DUP2 ADD DUP3 MSTORE PUSH1 0x1 DUP4 ADD SLOAD PUSH1 0x1 PUSH1 0x1 PUSH1 0xA0 SHL SUB DUP2 AND DUP3 MSTORE PUSH1 0x1 PUSH1 0xA0 SHL DUP2 DIV PUSH1 0xFF AND PUSH1 0x20 DUP4 ADD MSTORE PUSH1 0x1 PUSH1 0xA8 SHL SWAP1 DIV PUSH4 0xFFFFFFFF AND SWAP2 DUP2 ADD SWAP2 SWAP1 SWAP2 MSTORE PUSH2 0x6A9 SWAP1 PUSH2 0x1EB6 JUMP JUMPDEST PUSH1 0x40 DUP1 MLOAD PUSH1 0xC0 DUP2 ADD DUP3 MSTORE DUP3 SLOAD PUSH1 0x1 PUSH1 0x1 PUSH1 0xA0 SHL SUB DUP2 AND DUP3 MSTORE PUSH1 0xFF PUSH1 0x1 PUSH1 0xA0 SHL DUP3 DIV DUP2 AND PUSH1 0x20 DUP5 ADD MSTORE PUSH1 0x1 PUSH1 0x1 PUSH1 0xE0 SHL SUB NOT PUSH1 0x1 PUSH1 0xA8 SHL DUP4 DIV PUSH1 0xE0 SWAP1 DUP2 SHL DUP3 AND SWAP6 DUP6 ADD SWAP6 SWAP1 SWAP6 MSTORE PUSH1 0x1 PUSH1 0xC8 SHL DUP4 DIV SWAP1 SWAP5 SHL SWAP1 SWAP4 AND PUSH1 0x60 DUP4 ADD MSTORE PUSH1 0x1 PUSH1 0xE8 SHL DUP2 DIV DUP4 AND PUSH1 0x80 DUP4 ADD MSTORE PUSH2 0x74E SWAP3 DUP5 SWAP2 PUSH1 0xA0 DUP5 ADD SWAP2 PUSH1 0x1 PUSH1 0xF0 SHL SWAP1 SWAP2 DIV AND PUSH1 0x3 DUP2 GT ISZERO PUSH2 0x734 JUMPI PUSH2 0x734 PUSH2 0x407D JUMP JUMPDEST PUSH1 0x3 DUP2 GT ISZERO PUSH2 0x745 JUMPI PUSH2 0x745 PUSH2 0x407D JUMP JUMPDEST SWAP1 MSTORE POP CALLER PUSH2 0x1F69 JUMP JUMPDEST DUP1 SLOAD DUP5 MLOAD PUSH1 0x1 PUSH1 0xE8 SHL SWAP1 SWAP2 DIV PUSH1 0xFF AND SWAP1 DUP5 SWAP1 PUSH2 0x76A SWAP1 DUP6 PUSH2 0x4009 JUMP JUMPDEST DUP2 MLOAD DUP2 LT PUSH2 0x77A JUMPI PUSH2 0x77A PUSH2 0x4093 JUMP JUMPDEST PUSH1 0x20 MUL PUSH1 0x20 ADD ADD DUP2 DUP2 MSTORE POP POP DUP4 PUSH2 0x100 ADD MLOAD DUP3 DUP2 MLOAD DUP2 LT PUSH2 0x79D JUMPI PUSH2 0x79D PUSH2 0x4093 JUMP JUMPDEST PUSH1 0x20 MUL PUSH1 0x20 ADD ADD MLOAD PUSH32 0x61BCECD87C002AE006D9D8C760291B4F3646FA6109590B4B3EA93084AAE4BB6A TIMESTAMP PUSH1 0x40 MLOAD PUSH2 0x7E0 SWAP2 SWAP1 PUSH4 0xFFFFFFFF SWAP2 SWAP1 SWAP2 AND DUP2 MSTORE PUSH1 0x20 ADD SWAP1 JUMP JUMPDEST PUSH1 0x40 MLOAD DUP1 SWAP2 SUB SWAP1 LOG2 DUP1 SLOAD PUSH1 0x1 PUSH1 0x1 PUSH1 0xF8 SHL SUB NOT AND SWAP1 SSTORE DUP1 PUSH2 0x800 DUP2 PUSH2 0x404C JUMP JUMPDEST SWAP2 POP POP PUSH2 0x50F JUMP JUMPDEST POP PUSH2 0x840 DUP3 ADDRESS CALLER PUSH2 0x828 DUP7 PUSH1 0x60 ADD MLOAD DUP8 PUSH1 0x0 ADD MLOAD DUP9 PUSH1 0x20 ADD MLOAD PUSH1 0x0 PUSH2 0x1FC2 JUMP JUMPDEST DUP7 MLOAD PUSH1 0x20 DUP9 ADD MLOAD PUSH2 0x83B SWAP2 DUP9 SWAP2 DUP2 PUSH2 0x1FC2 JUMP JUMPDEST PUSH2 0x2081 JUMP JUMPDEST POP POP JUMP JUMPDEST PUSH2 0x84C PUSH2 0x3448 JUMP JUMPDEST PUSH1 0x40 MLOAD DUP1 PUSH2 0x160 ADD PUSH1 0x40 MSTORE DUP1 PUSH1 0x0 DUP2 MSTORE PUSH1 0x20 ADD PUSH1 0x1 DUP2 MSTORE PUSH1 0x20 ADD DUP6 DUP2 MSTORE PUSH1 0x20 ADD DUP5 DUP2 MSTORE PUSH1 0x20 ADD PUSH1 0x0 PUSH1 0x1 PUSH1 0x1 PUSH1 0x40 SHL SUB DUP2 GT ISZERO PUSH2 0x88B JUMPI PUSH2 0x88B PUSH2 0x40A9 JUMP JUMPDEST PUSH1 0x40 MLOAD SWAP1 DUP1 DUP3 MSTORE DUP1 PUSH1 0x20 MUL PUSH1 0x20 ADD DUP3 ADD PUSH1 0x40 MSTORE DUP1 ISZERO PUSH2 0x8B4 JUMPI DUP2 PUSH1 0x20 ADD PUSH1 0x20 DUP3 MUL DUP1 CALLDATASIZE DUP4 CALLDATACOPY ADD SWAP1 POP JUMPDEST POP DUP2 MSTORE PUSH1 0x20 ADD PUSH1 0x0 PUSH1 0x40 MLOAD SWAP1 DUP1 DUP3 MSTORE DUP1 PUSH1 0x20 MUL PUSH1 0x20 ADD DUP3 ADD PUSH1 0x40 MSTORE DUP1 ISZERO PUSH2 0x8E5 JUMPI DUP2 PUSH1 0x20 ADD PUSH1 0x20 DUP3 MUL DUP1 CALLDATASIZE DUP4 CALLDATACOPY ADD SWAP1 POP JUMPDEST POP DUP2 MSTORE PUSH1 0x20 ADD PUSH1 0x0 PUSH1 0x40 MLOAD SWAP1 DUP1 DUP3 MSTORE DUP1 PUSH1 0x20 MUL PUSH1 0x20 ADD DUP3 ADD PUSH1 0x40 MSTORE DUP1 ISZERO PUSH2 0x916 JUMPI DUP2 PUSH1 0x20 ADD PUSH1 0x20 DUP3 MUL DUP1 CALLDATASIZE DUP4 CALLDATACOPY ADD SWAP1 POP JUMPDEST POP DUP2 MSTORE PUSH1 0x20 ADD PUSH1 0x0 PUSH1 0x40 MLOAD SWAP1 DUP1 DUP3 MSTORE DUP1 PUSH1 0x20 MUL PUSH1 0x20 ADD DUP3 ADD PUSH1 0x40 MSTORE DUP1 ISZERO PUSH2 0x947 JUMPI DUP2 PUSH1 0x20 ADD PUSH1 0x20 DUP3 MUL DUP1 CALLDATASIZE DUP4 CALLDATACOPY ADD SWAP1 POP JUMPDEST POP DUP2 MSTORE PUSH1 0x20 DUP1 DUP3 ADD SWAP5 SWAP1 SWAP5 MSTORE PUSH1 0x40 DUP1 MLOAD PUSH1 0x0 DUP1 DUP3 MSTORE DUP2 DUP8 ADD DUP4 MSTORE DUP3 DUP5 ADD SWAP2 SWAP1 SWAP2 MSTORE DUP2 MLOAD SWAP1 DUP2 MSTORE SWAP5 DUP6 ADD SWAP1 MSTORE PUSH1 0x60 ADD SWAP3 SWAP1 SWAP3 MSTORE POP SWAP3 SWAP2 POP POP JUMP JUMPDEST PUSH1 0x0 DUP2 PUSH1 0x40 ADD MLOAD MLOAD GT PUSH2 0x9C6 JUMPI PUSH1 0x40 MLOAD PUSH3 0x461BCD PUSH1 0xE5 SHL DUP2 MSTORE PUSH1 0x20 PUSH1 0x4 DUP3 ADD MSTORE PUSH1 0xE PUSH1 0x24 DUP3 ADD MSTORE PUSH14 0x52654E46543A3A6E6F206E667473 PUSH1 0x90 SHL PUSH1 0x44 DUP3 ADD MSTORE PUSH1 0x64 ADD PUSH2 0x2A4 JUMP JUMPDEST DUP1 PUSH1 0x40 ADD MLOAD MLOAD DUP2 PUSH1 0x20 ADD MLOAD EQ PUSH2 0xA9B JUMPI DUP1 PUSH1 0x40 ADD MLOAD DUP2 PUSH1 0x20 ADD MLOAD DUP2 MLOAD DUP2 LT PUSH2 0x9F0 JUMPI PUSH2 0x9F0 PUSH2 0x4093 JUMP JUMPDEST PUSH1 0x20 MUL PUSH1 0x20 ADD ADD MLOAD PUSH1 0x1 PUSH1 0x1 PUSH1 0xA0 SHL SUB AND DUP2 PUSH1 0x40 ADD MLOAD DUP3 PUSH1 0x0 ADD MLOAD DUP2 MLOAD DUP2 LT PUSH2 0xA1B JUMPI PUSH2 0xA1B PUSH2 0x4093 JUMP JUMPDEST PUSH1 0x20 MUL PUSH1 0x20 ADD ADD MLOAD PUSH1 0x1 PUSH1 0x1 PUSH1 0xA0 SHL SUB AND EQ DUP1 ISZERO PUSH2 0xA5E JUMPI POP PUSH2 0xA5E DUP2 PUSH1 0x40 ADD MLOAD DUP3 PUSH1 0x20 ADD MLOAD DUP2 MLOAD DUP2 LT PUSH2 0xA51 JUMPI PUSH2 0xA51 PUSH2 0x4093 JUMP JUMPDEST PUSH1 0x20 MUL PUSH1 0x20 ADD ADD MLOAD PUSH2 0x2225 JUMP JUMPDEST ISZERO PUSH2 0xA7B JUMPI PUSH1 0x20 DUP2 ADD DUP1 MLOAD SWAP1 PUSH2 0xA73 DUP3 PUSH2 0x404C JUMP JUMPDEST SWAP1 MSTORE POP PUSH2 0x9C6 JUMP JUMPDEST PUSH2 0xA88 DUP2 DUP4 PUSH4 0xFFFFFFFF AND JUMP JUMPDEST PUSH1 0x20 DUP2 ADD DUP1 MLOAD DUP1 DUP4 MSTORE SWAP1 PUSH2 0xA73 DUP3 PUSH2 0x404C JUMP JUMPDEST PUSH2 0x840 DUP2 DUP4 PUSH4 0xFFFFFFFF AND JUMP JUMPDEST DUP1 MLOAD JUMPDEST DUP2 PUSH1 0x20 ADD MLOAD DUP2 LT ISZERO PUSH2 0x840 JUMPI PUSH1 0x0 PUSH1 0x6 PUSH1 0x0 DUP5 PUSH1 0x40 ADD MLOAD DUP6 PUSH1 0x0 ADD MLOAD DUP2 MLOAD DUP2 LT PUSH2 0xAD7 JUMPI PUSH2 0xAD7 PUSH2 0x4093 JUMP JUMPDEST PUSH1 0x20 MUL PUSH1 0x20 ADD ADD MLOAD DUP6 PUSH1 0x60 ADD MLOAD DUP6 DUP2 MLOAD DUP2 LT PUSH2 0xAF5 JUMPI PUSH2 0xAF5 PUSH2 0x4093 JUMP JUMPDEST PUSH1 0x20 MUL PUSH1 0x20 ADD ADD MLOAD DUP7 PUSH2 0x100 ADD MLOAD DUP7 DUP2 MLOAD DUP2 LT PUSH2 0xB14 JUMPI PUSH2 0xB14 PUSH2 0x4093 JUMP JUMPDEST PUSH1 0x20 MUL PUSH1 0x20 ADD ADD MLOAD PUSH1 0x40 MLOAD PUSH1 0x20 ADD PUSH2 0xB2E SWAP4 SWAP3 SWAP2 SWAP1 PUSH2 0x3C15 JUMP JUMPDEST PUSH1 0x40 DUP1 MLOAD PUSH1 0x1F NOT DUP2 DUP5 SUB ADD DUP2 MSTORE SWAP2 DUP2 MSTORE DUP2 MLOAD PUSH1 0x20 SWAP3 DUP4 ADD KECCAK256 DUP4 MSTORE DUP3 DUP3 ADD SWAP4 SWAP1 SWAP4 MSTORE SWAP1 DUP3 ADD PUSH1 0x0 KECCAK256 DUP3 MLOAD PUSH1 0xC0 DUP2 ADD DUP5 MSTORE DUP2 SLOAD PUSH1 0x1 PUSH1 0x1 PUSH1 0xA0 SHL SUB DUP2 AND DUP3 MSTORE PUSH1 0xFF PUSH1 0x1 PUSH1 0xA0 SHL DUP3 DIV DUP2 AND SWAP5 DUP4 ADD SWAP5 SWAP1 SWAP5 MSTORE PUSH1 0x1 PUSH1 0x1 PUSH1 0xE0 SHL SUB NOT PUSH1 0x1 PUSH1 0xA8 SHL DUP3 DIV PUSH1 0xE0 SWAP1 DUP2 SHL DUP3 AND SWAP7 DUP5 ADD SWAP7 SWAP1 SWAP7 MSTORE PUSH1 0x1 PUSH1 0xC8 SHL DUP3 DIV SWAP1 SWAP6 SHL SWAP1 SWAP5 AND PUSH1 0x60 DUP3 ADD MSTORE PUSH1 0x1 PUSH1 0xE8 SHL DUP5 DIV DUP4 AND PUSH1 0x80 DUP3 ADD MSTORE SWAP1 SWAP4 POP PUSH2 0xBE5 SWAP3 SWAP1 SWAP2 DUP5 SWAP2 PUSH1 0xA0 DUP5 ADD SWAP2 PUSH1 0x1 PUSH1 0xF0 SHL SWAP1 SWAP2 DIV AND PUSH1 0x3 DUP2 GT ISZERO PUSH2 0x649 JUMPI PUSH2 0x649 PUSH2 0x407D JUMP JUMPDEST PUSH1 0x40 DUP1 MLOAD PUSH1 0x60 DUP2 ADD DUP3 MSTORE PUSH1 0x1 DUP4 ADD SLOAD PUSH1 0x1 PUSH1 0x1 PUSH1 0xA0 SHL SUB DUP2 AND DUP3 MSTORE PUSH1 0x1 PUSH1 0xA0 SHL DUP2 DIV PUSH1 0xFF AND PUSH1 0x20 DUP4 ADD MSTORE PUSH1 0x1 PUSH1 0xA8 SHL SWAP1 DIV PUSH4 0xFFFFFFFF AND SWAP2 DUP2 ADD SWAP2 SWAP1 SWAP2 MSTORE PUSH2 0xC2C SWAP1 PUSH2 0x22A7 JUMP JUMPDEST PUSH1 0x40 DUP1 MLOAD PUSH1 0x60 DUP2 ADD DUP3 MSTORE PUSH1 0x1 DUP4 ADD SLOAD PUSH1 0x1 PUSH1 0x1 PUSH1 0xA0 SHL SUB DUP2 AND DUP3 MSTORE PUSH1 0x1 PUSH1 0xA0 SHL DUP2 DIV PUSH1 0xFF AND PUSH1 0x20 DUP4 ADD MSTORE PUSH1 0x1 PUSH1 0xA8 SHL SWAP1 DIV PUSH4 0xFFFFFFFF AND SWAP2 DUP2 ADD SWAP2 SWAP1 SWAP2 MSTORE PUSH2 0xC74 SWAP1 TIMESTAMP PUSH2 0x232D JUMP JUMPDEST PUSH1 0x40 DUP1 MLOAD PUSH2 0x100 DUP2 ADD DUP3 MSTORE DUP3 SLOAD PUSH1 0x1 PUSH1 0x1 PUSH1 0xA0 SHL SUB DUP2 AND SWAP3 DUP3 ADD SWAP3 DUP4 MSTORE PUSH1 0xFF PUSH1 0x1 PUSH1 0xA0 SHL DUP3 DIV DUP2 AND PUSH1 0x60 DUP5 ADD MSTORE PUSH1 0x1 PUSH1 0x1 PUSH1 0xE0 SHL SUB NOT PUSH1 0x1 PUSH1 0xA8 SHL DUP4 DIV PUSH1 0xE0 SWAP1 DUP2 SHL DUP3 AND PUSH1 0x80 DUP7 ADD MSTORE PUSH1 0x1 PUSH1 0xC8 SHL DUP5 DIV DUP2 SHL SWAP1 SWAP2 AND PUSH1 0xA0 DUP6 ADD MSTORE PUSH1 0x1 PUSH1 0xE8 SHL DUP4 DIV DUP3 AND PUSH1 0xC0 DUP6 ADD MSTORE PUSH2 0xD67 SWAP5 DUP7 SWAP4 DUP6 SWAP4 SWAP2 SWAP3 DUP6 SWAP3 SWAP1 DUP6 ADD SWAP2 PUSH1 0x1 PUSH1 0xF0 SHL SWAP1 DIV AND PUSH1 0x3 DUP2 GT ISZERO PUSH2 0xD05 JUMPI PUSH2 0xD05 PUSH2 0x407D JUMP JUMPDEST PUSH1 0x3 DUP2 GT ISZERO PUSH2 0xD16 JUMPI PUSH2 0xD16 PUSH2 0x407D JUMP JUMPDEST SWAP1 MSTORE POP DUP2 MSTORE PUSH1 0x40 DUP1 MLOAD PUSH1 0x60 DUP2 ADD DUP3 MSTORE PUSH1 0x1 SWAP4 SWAP1 SWAP4 ADD SLOAD PUSH1 0x1 PUSH1 0x1 PUSH1 0xA0 SHL SUB DUP2 AND DUP5 MSTORE PUSH1 0x1 PUSH1 0xA0 SHL DUP2 DIV PUSH1 0xFF AND PUSH1 0x20 DUP1 DUP7 ADD SWAP2 SWAP1 SWAP2 MSTORE PUSH1 0x1 PUSH1 0xA8 SHL SWAP1 SWAP2 DIV PUSH4 0xFFFFFFFF AND SWAP2 DUP5 ADD SWAP2 SWAP1 SWAP2 MSTORE ADD MSTORE PUSH2 0x2383 JUMP JUMPDEST DUP3 PUSH2 0x100 ADD MLOAD DUP3 DUP2 MLOAD DUP2 LT PUSH2 0xD7E JUMPI PUSH2 0xD7E PUSH2 0x4093 JUMP JUMPDEST PUSH1 0x20 MUL PUSH1 0x20 ADD ADD MLOAD PUSH32 0x8AC1440F996B8B13E31275705C447BD09A92005CF2EC131A8183AFEDC636F5A2 TIMESTAMP PUSH1 0x40 MLOAD PUSH2 0xDC1 SWAP2 SWAP1 PUSH4 0xFFFFFFFF SWAP2 SWAP1 SWAP2 AND DUP2 MSTORE PUSH1 0x20 ADD SWAP1 JUMP JUMPDEST PUSH1 0x40 MLOAD DUP1 SWAP2 SUB SWAP1 LOG2 DUP1 SLOAD PUSH1 0x1 PUSH1 0x1 PUSH1 0xF8 SHL SUB NOT AND DUP2 SSTORE PUSH1 0x1 ADD DUP1 SLOAD PUSH1 0x1 PUSH1 0x1 PUSH1 0xC8 SHL SUB NOT AND SWAP1 SSTORE DUP1 PUSH2 0xDF2 DUP2 PUSH2 0x404C JUMP JUMPDEST SWAP2 POP POP PUSH2 0xAAB JUMP JUMPDEST DUP1 MLOAD PUSH1 0x20 DUP3 ADD MLOAD PUSH1 0x0 SWAP2 PUSH2 0xE0D SWAP2 PUSH2 0x4009 JUMP JUMPDEST PUSH1 0x1 PUSH1 0x1 PUSH1 0x40 SHL SUB DUP2 GT ISZERO PUSH2 0xE24 JUMPI PUSH2 0xE24 PUSH2 0x40A9 JUMP JUMPDEST PUSH1 0x40 MLOAD SWAP1 DUP1 DUP3 MSTORE DUP1 PUSH1 0x20 MUL PUSH1 0x20 ADD DUP3 ADD PUSH1 0x40 MSTORE DUP1 ISZERO PUSH2 0xE4D JUMPI DUP2 PUSH1 0x20 ADD PUSH1 0x20 DUP3 MUL DUP1 CALLDATASIZE DUP4 CALLDATACOPY ADD SWAP1 POP JUMPDEST POP DUP3 MLOAD SWAP1 SWAP2 POP JUMPDEST DUP3 PUSH1 0x20 ADD MLOAD DUP2 LT ISZERO PUSH2 0x808 JUMPI PUSH1 0x0 PUSH1 0x6 PUSH1 0x0 DUP6 PUSH1 0x40 ADD MLOAD DUP7 PUSH1 0x0 ADD MLOAD DUP2 MLOAD DUP2 LT PUSH2 0xE80 JUMPI PUSH2 0xE80 PUSH2 0x4093 JUMP JUMPDEST PUSH1 0x20 MUL PUSH1 0x20 ADD ADD MLOAD DUP7 PUSH1 0x60 ADD MLOAD DUP6 DUP2 MLOAD DUP2 LT PUSH2 0xE9E JUMPI PUSH2 0xE9E PUSH2 0x4093 JUMP JUMPDEST PUSH1 0x20 MUL PUSH1 0x20 ADD ADD MLOAD DUP8 PUSH2 0x100 ADD MLOAD DUP7 DUP2 MLOAD DUP2 LT PUSH2 0xEBD JUMPI PUSH2 0xEBD PUSH2 0x4093 JUMP JUMPDEST PUSH1 0x20 MUL PUSH1 0x20 ADD ADD MLOAD PUSH1 0x40 MLOAD PUSH1 0x20 ADD PUSH2 0xED7 SWAP4 SWAP3 SWAP2 SWAP1 PUSH2 0x3C15 JUMP JUMPDEST PUSH1 0x40 DUP1 MLOAD PUSH1 0x1F NOT DUP2 DUP5 SUB ADD DUP2 MSTORE SWAP2 DUP2 MSTORE DUP2 MLOAD PUSH1 0x20 SWAP3 DUP4 ADD KECCAK256 DUP4 MSTORE DUP3 DUP3 ADD SWAP4 SWAP1 SWAP4 MSTORE SWAP1 DUP3 ADD PUSH1 0x0 KECCAK256 DUP3 MLOAD PUSH1 0xC0 DUP2 ADD DUP5 MSTORE DUP2 SLOAD PUSH1 0x1 PUSH1 0x1 PUSH1 0xA0 SHL SUB DUP2 AND DUP3 MSTORE PUSH1 0xFF PUSH1 0x1 PUSH1 0xA0 SHL DUP3 DIV DUP2 AND SWAP5 DUP4 ADD SWAP5 SWAP1 SWAP5 MSTORE PUSH1 0x1 PUSH1 0x1 PUSH1 0xE0 SHL SUB NOT PUSH1 0x1 PUSH1 0xA8 SHL DUP3 DIV PUSH1 0xE0 SWAP1 DUP2 SHL DUP3 AND SWAP7 DUP5 ADD SWAP7 SWAP1 SWAP7 MSTORE PUSH1 0x1 PUSH1 0xC8 SHL DUP3 DIV SWAP1 SWAP6 SHL SWAP1 SWAP5 AND PUSH1 0x60 DUP3 ADD MSTORE PUSH1 0x1 PUSH1 0xE8 SHL DUP5 DIV DUP4 AND PUSH1 0x80 DUP3 ADD MSTORE SWAP1 SWAP4 POP PUSH2 0xF8E SWAP3 SWAP1 SWAP2 DUP5 SWAP2 PUSH1 0xA0 DUP5 ADD SWAP2 PUSH1 0x1 PUSH1 0xF0 SHL SWAP1 SWAP2 DIV AND PUSH1 0x3 DUP2 GT ISZERO PUSH2 0x649 JUMPI PUSH2 0x649 PUSH2 0x407D JUMP JUMPDEST PUSH1 0x40 DUP1 MLOAD PUSH1 0x60 DUP2 ADD DUP3 MSTORE PUSH1 0x1 DUP4 ADD SLOAD PUSH1 0x1 PUSH1 0x1 PUSH1 0xA0 SHL SUB DUP2 AND DUP3 MSTORE PUSH1 0x1 PUSH1 0xA0 SHL DUP2 DIV PUSH1 0xFF AND PUSH1 0x20 DUP4 ADD MSTORE PUSH1 0x1 PUSH1 0xA8 SHL SWAP1 DIV PUSH4 0xFFFFFFFF AND SWAP2 DUP2 ADD SWAP2 SWAP1 SWAP2 MSTORE PUSH2 0xFD5 SWAP1 PUSH2 0x1EB6 JUMP JUMPDEST PUSH1 0x40 DUP1 MLOAD PUSH1 0xC0 DUP2 ADD DUP3 MSTORE DUP3 SLOAD PUSH1 0x1 PUSH1 0x1 PUSH1 0xA0 SHL SUB DUP2 AND DUP3 MSTORE PUSH1 0xFF PUSH1 0x1 PUSH1 0xA0 SHL DUP3 DIV DUP2 AND PUSH1 0x20 DUP5 ADD MSTORE PUSH1 0x1 PUSH1 0x1 PUSH1 0xE0 SHL SUB NOT PUSH1 0x1 PUSH1 0xA8 SHL DUP4 DIV PUSH1 0xE0 SWAP1 DUP2 SHL DUP3 AND SWAP6 DUP6 ADD SWAP6 SWAP1 SWAP6 MSTORE PUSH1 0x1 PUSH1 0xC8 SHL DUP4 DIV SWAP1 SWAP5 SHL SWAP1 SWAP4 AND PUSH1 0x60 DUP4 ADD MSTORE PUSH1 0x1 PUSH1 0xE8 SHL DUP2 DIV DUP4 AND PUSH1 0x80 DUP4 ADD MSTORE PUSH2 0x107C SWAP3 DUP5 SWAP2 PUSH1 0xA0 DUP5 ADD SWAP2 PUSH1 0x1 PUSH1 0xF0 SHL SWAP1 SWAP2 DIV AND PUSH1 0x3 DUP2 GT ISZERO PUSH2 0x1060 JUMPI PUSH2 0x1060 PUSH2 0x407D JUMP JUMPDEST PUSH1 0x3 DUP2 GT ISZERO PUSH2 0x1071 JUMPI PUSH2 0x1071 PUSH2 0x407D JUMP JUMPDEST SWAP1 MSTORE POP DUP6 DUP5 CALLER PUSH2 0x25C4 JUMP JUMPDEST DUP1 SLOAD PUSH1 0x0 SWAP1 PUSH1 0x1 PUSH1 0xF0 SHL SWAP1 DIV PUSH1 0xFF AND PUSH1 0x3 DUP2 GT ISZERO PUSH2 0x109C JUMPI PUSH2 0x109C PUSH2 0x407D JUMP JUMPDEST SWAP1 POP PUSH2 0x10A7 DUP2 PUSH2 0x272F JUMP JUMPDEST PUSH1 0x0 DUP1 SLOAD PUSH1 0x40 MLOAD PUSH4 0xC6EE427F PUSH1 0xE0 SHL DUP2 MSTORE PUSH1 0xFF DUP5 AND PUSH1 0x4 DUP3 ADD MSTORE PUSH1 0x1 PUSH1 0x1 PUSH1 0xA0 SHL SUB SWAP1 SWAP2 AND SWAP1 PUSH4 0xC6EE427F SWAP1 PUSH1 0x24 ADD PUSH1 0x20 PUSH1 0x40 MLOAD DUP1 DUP4 SUB DUP2 DUP7 DUP1 EXTCODESIZE ISZERO DUP1 ISZERO PUSH2 0x10EE JUMPI PUSH1 0x0 DUP1 REVERT JUMPDEST POP GAS STATICCALL ISZERO DUP1 ISZERO PUSH2 0x1102 JUMPI RETURNDATASIZE PUSH1 0x0 DUP1 RETURNDATACOPY RETURNDATASIZE PUSH1 0x0 REVERT JUMPDEST POP POP POP POP PUSH1 0x40 MLOAD RETURNDATASIZE PUSH1 0x1F NOT PUSH1 0x1F DUP3 ADD AND DUP3 ADD DUP1 PUSH1 0x40 MSTORE POP DUP2 ADD SWAP1 PUSH2 0x1126 SWAP2 SWAP1 PUSH2 0x3754 JUMP JUMPDEST SWAP1 POP PUSH1 0x0 DUP2 PUSH1 0x1 PUSH1 0x1 PUSH1 0xA0 SHL SUB AND PUSH4 0x313CE567 PUSH1 0x40 MLOAD DUP2 PUSH4 0xFFFFFFFF AND PUSH1 0xE0 SHL DUP2 MSTORE PUSH1 0x4 ADD PUSH1 0x20 PUSH1 0x40 MLOAD DUP1 DUP4 SUB DUP2 DUP7 DUP1 EXTCODESIZE ISZERO DUP1 ISZERO PUSH2 0x1163 JUMPI PUSH1 0x0 DUP1 REVERT JUMPDEST POP GAS STATICCALL ISZERO DUP1 ISZERO PUSH2 0x1177 JUMPI RETURNDATASIZE PUSH1 0x0 DUP1 RETURNDATACOPY RETURNDATASIZE PUSH1 0x0 REVERT JUMPDEST POP POP POP POP PUSH1 0x40 MLOAD RETURNDATASIZE PUSH1 0x1F NOT PUSH1 0x1F DUP3 ADD AND DUP3 ADD DUP1 PUSH1 0x40 MSTORE POP DUP2 ADD SWAP1 PUSH2 0x119B SWAP2 SWAP1 PUSH2 0x3BBD JUMP JUMPDEST PUSH1 0xFF AND SWAP1 POP PUSH1 0x0 PUSH2 0x11AD DUP3 PUSH1 0xA PUSH2 0x3F42 JUMP JUMPDEST DUP6 SLOAD SWAP1 SWAP2 POP PUSH1 0x0 SWAP1 PUSH2 0x11C9 SWAP1 PUSH1 0x1 PUSH1 0xA8 SHL SWAP1 DIV PUSH1 0xE0 SHL DUP4 PUSH2 0x2782 JUMP JUMPDEST DUP10 PUSH2 0x120 ADD MLOAD DUP9 DUP2 MLOAD DUP2 LT PUSH2 0x11E0 JUMPI PUSH2 0x11E0 PUSH2 0x4093 JUMP JUMPDEST PUSH1 0x20 MUL PUSH1 0x20 ADD ADD MLOAD PUSH1 0xFF AND PUSH2 0x11F5 SWAP2 SWAP1 PUSH2 0x3FEA JUMP JUMPDEST DUP7 SLOAD SWAP1 SWAP2 POP PUSH1 0x0 SWAP1 PUSH2 0x1211 SWAP1 PUSH1 0x1 PUSH1 0xC8 SHL SWAP1 DIV PUSH1 0xE0 SHL DUP5 PUSH2 0x2782 JUMP JUMPDEST DUP8 SLOAD PUSH2 0x1227 SWAP2 SWAP1 PUSH1 0x1 PUSH1 0xE8 SHL SWAP1 DIV PUSH1 0xFF AND PUSH2 0x3FEA JUMP JUMPDEST SWAP1 POP PUSH1 0x0 DUP3 GT PUSH2 0x1249 JUMPI PUSH1 0x40 MLOAD PUSH3 0x461BCD PUSH1 0xE5 SHL DUP2 MSTORE PUSH1 0x4 ADD PUSH2 0x2A4 SWAP1 PUSH2 0x3D20 JUMP JUMPDEST PUSH1 0x0 DUP2 GT PUSH2 0x1269 JUMPI PUSH1 0x40 MLOAD PUSH3 0x461BCD PUSH1 0xE5 SHL DUP2 MSTORE PUSH1 0x4 ADD PUSH2 0x2A4 SWAP1 PUSH2 0x3DA8 JUMP JUMPDEST PUSH2 0x128A CALLER ADDRESS PUSH2 0x1278 DUP5 DUP7 PUSH2 0x3EC5 JUMP JUMPDEST PUSH1 0x1 PUSH1 0x1 PUSH1 0xA0 SHL SUB DUP10 AND SWAP3 SWAP2 SWAP1 PUSH2 0x2811 JUMP JUMPDEST POP POP DUP5 SLOAD DUP9 MLOAD PUSH1 0x1 PUSH1 0xE8 SHL SWAP1 SWAP2 DIV PUSH1 0xFF AND SWAP2 POP DUP8 SWAP1 PUSH2 0x12A9 SWAP1 DUP9 PUSH2 0x4009 JUMP JUMPDEST DUP2 MLOAD DUP2 LT PUSH2 0x12B9 JUMPI PUSH2 0x12B9 PUSH2 0x4093 JUMP JUMPDEST PUSH1 0x20 SWAP1 DUP2 MUL SWAP2 SWAP1 SWAP2 ADD ADD MSTORE PUSH1 0x1 DUP5 ADD DUP1 SLOAD PUSH1 0x1 PUSH1 0x1 PUSH1 0xA0 SHL SUB NOT AND CALLER OR SWAP1 SSTORE PUSH2 0x120 DUP8 ADD MLOAD DUP1 MLOAD DUP7 SWAP1 DUP2 LT PUSH2 0x12F0 JUMPI PUSH2 0x12F0 PUSH2 0x4093 JUMP JUMPDEST PUSH1 0x20 SWAP1 DUP2 MUL SWAP2 SWAP1 SWAP2 ADD ADD MLOAD PUSH1 0x1 DUP6 ADD DUP1 SLOAD PUSH5 0xFFFFFFFFFF PUSH1 0xA0 SHL NOT AND PUSH1 0x1 PUSH1 0xA0 SHL PUSH1 0xFF SWAP1 SWAP4 AND SWAP3 SWAP1 SWAP3 MUL PUSH4 0xFFFFFFFF PUSH1 0xA8 SHL NOT AND SWAP2 SWAP1 SWAP2 OR PUSH1 0x1 PUSH1 0xA8 SHL TIMESTAMP PUSH4 0xFFFFFFFF AND MUL OR SWAP1 SSTORE PUSH2 0x100 DUP8 ADD MLOAD DUP1 MLOAD CALLER SWAP2 PUSH32 0x3140D73ADCC923E4A0DE3B1522AEEC546A872BCDC06A3E25FE1209DF30B954EC SWAP2 DUP9 SWAP1 DUP2 LT PUSH2 0x1374 JUMPI PUSH2 0x1374 PUSH2 0x4093 JUMP JUMPDEST PUSH1 0x20 MUL PUSH1 0x20 ADD ADD MLOAD DUP10 PUSH2 0x120 ADD MLOAD DUP9 DUP2 MLOAD DUP2 LT PUSH2 0x1393 JUMPI PUSH2 0x1393 PUSH2 0x4093 JUMP JUMPDEST PUSH1 0x20 SWAP1 DUP2 MUL SWAP2 SWAP1 SWAP2 ADD DUP2 ADD MLOAD PUSH1 0x1 DUP10 ADD SLOAD PUSH1 0x40 DUP1 MLOAD SWAP5 DUP6 MSTORE PUSH1 0xFF SWAP1 SWAP3 AND SWAP3 DUP5 ADD SWAP3 SWAP1 SWAP3 MSTORE PUSH1 0x1 PUSH1 0xA8 SHL SWAP1 SWAP2 DIV PUSH4 0xFFFFFFFF AND SWAP1 DUP3 ADD MSTORE PUSH1 0x60 ADD PUSH1 0x40 MLOAD DUP1 SWAP2 SUB SWAP1 LOG2 POP POP POP POP DUP1 DUP1 PUSH2 0x13E3 SWAP1 PUSH2 0x404C JUMP JUMPDEST SWAP2 POP POP PUSH2 0xE54 JUMP JUMPDEST PUSH2 0x13F3 PUSH2 0x3448 JUMP JUMPDEST PUSH1 0x40 MLOAD DUP1 PUSH2 0x160 ADD PUSH1 0x40 MSTORE DUP1 PUSH1 0x0 DUP2 MSTORE PUSH1 0x20 ADD PUSH1 0x1 DUP2 MSTORE PUSH1 0x20 ADD DUP7 DUP2 MSTORE PUSH1 0x20 ADD DUP6 DUP2 MSTORE PUSH1 0x20 ADD PUSH1 0x0 PUSH1 0x1 PUSH1 0x1 PUSH1 0x40 SHL SUB DUP2 GT ISZERO PUSH2 0x1432 JUMPI PUSH2 0x1432 PUSH2 0x40A9 JUMP JUMPDEST PUSH1 0x40 MLOAD SWAP1 DUP1 DUP3 MSTORE DUP1 PUSH1 0x20 MUL PUSH1 0x20 ADD DUP3 ADD PUSH1 0x40 MSTORE DUP1 ISZERO PUSH2 0x145B JUMPI DUP2 PUSH1 0x20 ADD PUSH1 0x20 DUP3 MUL DUP1 CALLDATASIZE DUP4 CALLDATACOPY ADD SWAP1 POP JUMPDEST POP DUP2 MSTORE PUSH1 0x20 ADD PUSH1 0x0 PUSH1 0x40 MLOAD SWAP1 DUP1 DUP3 MSTORE DUP1 PUSH1 0x20 MUL PUSH1 0x20 ADD DUP3 ADD PUSH1 0x40 MSTORE DUP1 ISZERO PUSH2 0x148C JUMPI DUP2 PUSH1 0x20 ADD PUSH1 0x20 DUP3 MUL DUP1 CALLDATASIZE DUP4 CALLDATACOPY ADD SWAP1 POP JUMPDEST POP DUP2 MSTORE PUSH1 0x20 ADD PUSH1 0x0 PUSH1 0x40 MLOAD SWAP1 DUP1 DUP3 MSTORE DUP1 PUSH1 0x20 MUL PUSH1 0x20 ADD DUP3 ADD PUSH1 0x40 MSTORE DUP1 ISZERO PUSH2 0x14BD JUMPI DUP2 PUSH1 0x20 ADD PUSH1 0x20 DUP3 MUL DUP1 CALLDATASIZE DUP4 CALLDATACOPY ADD SWAP1 POP JUMPDEST POP DUP2 MSTORE PUSH1 0x20 ADD PUSH1 0x0 PUSH1 0x40 MLOAD SWAP1 DUP1 DUP3 MSTORE DUP1 PUSH1 0x20 MUL PUSH1 0x20 ADD DUP3 ADD PUSH1 0x40 MSTORE DUP1 ISZERO PUSH2 0x14EE JUMPI DUP2 PUSH1 0x20 ADD PUSH1 0x20 DUP3 MUL DUP1 CALLDATASIZE DUP4 CALLDATACOPY ADD SWAP1 POP JUMPDEST POP DUP2 MSTORE PUSH1 0x20 DUP2 ADD DUP6 SWAP1 MSTORE PUSH1 0x40 DUP2 ADD DUP5 SWAP1 MSTORE PUSH1 0x60 ADD PUSH1 0x0 PUSH1 0x40 MLOAD SWAP1 DUP1 DUP3 MSTORE DUP1 PUSH1 0x20 MUL PUSH1 0x20 ADD DUP3 ADD PUSH1 0x40 MSTORE DUP1 ISZERO PUSH2 0x152D JUMPI DUP2 PUSH1 0x20 ADD PUSH1 0x20 DUP3 MUL DUP1 CALLDATASIZE DUP4 CALLDATACOPY ADD SWAP1 POP JUMPDEST POP SWAP1 MSTORE SWAP6 SWAP5 POP POP POP POP POP JUMP JUMPDEST DUP1 MLOAD JUMPDEST DUP2 PUSH1 0x20 ADD MLOAD DUP2 LT ISZERO PUSH2 0x1A1A JUMPI PUSH2 0x1552 DUP3 DUP3 PUSH2 0x287C JUMP JUMPDEST PUSH1 0x0 PUSH1 0x6 PUSH1 0x0 DUP5 PUSH1 0x40 ADD MLOAD DUP6 PUSH1 0x0 ADD MLOAD DUP2 MLOAD DUP2 LT PUSH2 0x1572 JUMPI PUSH2 0x1572 PUSH2 0x4093 JUMP JUMPDEST PUSH1 0x20 MUL PUSH1 0x20 ADD ADD MLOAD DUP6 PUSH1 0x60 ADD MLOAD DUP6 DUP2 MLOAD DUP2 LT PUSH2 0x1590 JUMPI PUSH2 0x1590 PUSH2 0x4093 JUMP JUMPDEST PUSH1 0x20 MUL PUSH1 0x20 ADD ADD MLOAD PUSH1 0x3 SLOAD PUSH1 0x40 MLOAD PUSH1 0x20 ADD PUSH2 0x15AD SWAP4 SWAP3 SWAP2 SWAP1 PUSH2 0x3C15 JUMP JUMPDEST PUSH1 0x40 DUP1 MLOAD PUSH1 0x1F NOT DUP2 DUP5 SUB ADD DUP2 MSTORE SWAP2 DUP2 MSTORE DUP2 MLOAD PUSH1 0x20 SWAP3 DUP4 ADD KECCAK256 DUP4 MSTORE DUP3 DUP3 ADD SWAP4 SWAP1 SWAP4 MSTORE SWAP1 DUP3 ADD PUSH1 0x0 KECCAK256 DUP3 MLOAD PUSH1 0xC0 DUP2 ADD DUP5 MSTORE DUP2 SLOAD PUSH1 0x1 PUSH1 0x1 PUSH1 0xA0 SHL SUB DUP2 AND DUP3 MSTORE PUSH1 0xFF PUSH1 0x1 PUSH1 0xA0 SHL DUP3 DIV DUP2 AND SWAP5 DUP4 ADD SWAP5 SWAP1 SWAP5 MSTORE PUSH1 0x1 PUSH1 0x1 PUSH1 0xE0 SHL SUB NOT PUSH1 0x1 PUSH1 0xA8 SHL DUP3 DIV PUSH1 0xE0 SWAP1 DUP2 SHL DUP3 AND SWAP7 DUP5 ADD SWAP7 SWAP1 SWAP7 MSTORE PUSH1 0x1 PUSH1 0xC8 SHL DUP3 DIV SWAP1 SWAP6 SHL SWAP1 SWAP5 AND PUSH1 0x60 DUP3 ADD MSTORE PUSH1 0x1 PUSH1 0xE8 SHL DUP5 DIV DUP4 AND PUSH1 0x80 DUP3 ADD MSTORE SWAP1 SWAP4 POP PUSH2 0x167D SWAP3 SWAP1 SWAP2 DUP5 SWAP2 PUSH1 0xA0 DUP5 ADD SWAP2 PUSH1 0x1 PUSH1 0xF0 SHL SWAP1 SWAP2 DIV AND PUSH1 0x3 DUP2 GT ISZERO PUSH2 0x1664 JUMPI PUSH2 0x1664 PUSH2 0x407D JUMP JUMPDEST PUSH1 0x3 DUP2 GT ISZERO PUSH2 0x1675 JUMPI PUSH2 0x1675 PUSH2 0x407D JUMP JUMPDEST SWAP1 MSTORE POP PUSH2 0x2A38 JUMP JUMPDEST PUSH1 0x40 DUP1 MLOAD PUSH1 0x60 DUP2 ADD DUP3 MSTORE PUSH1 0x1 DUP4 ADD SLOAD PUSH1 0x1 PUSH1 0x1 PUSH1 0xA0 SHL SUB DUP2 AND DUP3 MSTORE PUSH1 0x1 PUSH1 0xA0 SHL DUP2 DIV PUSH1 0xFF AND PUSH1 0x20 DUP4 ADD MSTORE PUSH1 0x1 PUSH1 0xA8 SHL SWAP1 DIV PUSH4 0xFFFFFFFF AND SWAP2 DUP2 ADD SWAP2 SWAP1 SWAP2 MSTORE PUSH2 0x16C4 SWAP1 PUSH2 0x1EB6 JUMP JUMPDEST PUSH1 0x0 PUSH2 0x16EC DUP5 PUSH1 0x40 ADD MLOAD DUP5 DUP2 MLOAD DUP2 LT PUSH2 0x16DF JUMPI PUSH2 0x16DF PUSH2 0x4093 JUMP JUMPDEST PUSH1 0x20 MUL PUSH1 0x20 ADD ADD MLOAD PUSH2 0x2B4B JUMP JUMPDEST SWAP1 POP PUSH1 0x40 MLOAD DUP1 PUSH1 0xC0 ADD PUSH1 0x40 MSTORE DUP1 CALLER PUSH1 0x1 PUSH1 0x1 PUSH1 0xA0 SHL SUB AND DUP2 MSTORE PUSH1 0x20 ADD DUP6 PUSH1 0xA0 ADD MLOAD DUP6 DUP2 MLOAD DUP2 LT PUSH2 0x171E JUMPI PUSH2 0x171E PUSH2 0x4093 JUMP JUMPDEST PUSH1 0x20 MUL PUSH1 0x20 ADD ADD MLOAD PUSH1 0xFF AND DUP2 MSTORE PUSH1 0x20 ADD DUP6 PUSH1 0xC0 ADD MLOAD DUP6 DUP2 MLOAD DUP2 LT PUSH2 0x1744 JUMPI PUSH2 0x1744 PUSH2 0x4093 JUMP JUMPDEST PUSH1 0x20 MUL PUSH1 0x20 ADD ADD MLOAD PUSH1 0x1 PUSH1 0x1 PUSH1 0xE0 SHL SUB NOT AND DUP2 MSTORE PUSH1 0x20 ADD DUP6 PUSH1 0xE0 ADD MLOAD DUP6 DUP2 MLOAD DUP2 LT PUSH2 0x1771 JUMPI PUSH2 0x1771 PUSH2 0x4093 JUMP JUMPDEST PUSH1 0x20 MUL PUSH1 0x20 ADD ADD MLOAD PUSH1 0x1 PUSH1 0x1 PUSH1 0xE0 SHL SUB NOT AND DUP2 MSTORE PUSH1 0x20 ADD DUP3 PUSH2 0x17B0 JUMPI DUP6 PUSH1 0x80 ADD MLOAD DUP6 DUP2 MLOAD DUP2 LT PUSH2 0x17A3 JUMPI PUSH2 0x17A3 PUSH2 0x4093 JUMP JUMPDEST PUSH1 0x20 MUL PUSH1 0x20 ADD ADD MLOAD PUSH2 0x17B3 JUMP JUMPDEST PUSH1 0x1 JUMPDEST PUSH1 0xFF AND DUP2 MSTORE PUSH1 0x20 ADD DUP6 PUSH2 0x140 ADD MLOAD DUP6 DUP2 MLOAD DUP2 LT PUSH2 0x17D2 JUMPI PUSH2 0x17D2 PUSH2 0x4093 JUMP JUMPDEST PUSH1 0x20 MUL PUSH1 0x20 ADD ADD MLOAD PUSH1 0x3 DUP2 GT ISZERO PUSH2 0x17EB JUMPI PUSH2 0x17EB PUSH2 0x407D JUMP JUMPDEST SWAP1 MSTORE DUP1 MLOAD DUP4 SLOAD PUSH1 0x20 DUP4 ADD MLOAD PUSH1 0x40 DUP5 ADD MLOAD PUSH1 0x60 DUP6 ADD MLOAD PUSH1 0x80 DUP7 ADD MLOAD PUSH1 0x1 PUSH1 0x1 PUSH1 0xA0 SHL SUB SWAP1 SWAP6 AND PUSH1 0x1 PUSH1 0x1 PUSH1 0xA8 SHL SUB NOT SWAP1 SWAP5 AND SWAP4 SWAP1 SWAP4 OR PUSH1 0x1 PUSH1 0xA0 SHL PUSH1 0xFF SWAP4 DUP5 AND MUL OR PUSH8 0xFFFFFFFFFFFFFFFF PUSH1 0xA8 SHL NOT AND PUSH1 0x1 PUSH1 0xA8 SHL PUSH1 0xE0 SWAP3 DUP4 SHR MUL PUSH4 0xFFFFFFFF PUSH1 0xC8 SHL NOT AND OR PUSH1 0x1 PUSH1 0xC8 SHL SWAP4 SWAP1 SWAP2 SHR SWAP3 SWAP1 SWAP3 MUL SWAP2 SWAP1 SWAP2 OR PUSH1 0xFF PUSH1 0xE8 SHL NOT DUP2 AND PUSH1 0x1 PUSH1 0xE8 SHL SWAP3 SWAP1 SWAP4 AND SWAP2 SWAP1 SWAP2 MUL SWAP2 DUP3 OR DUP6 SSTORE PUSH1 0xA0 DUP4 ADD MLOAD DUP6 SWAP3 SWAP1 SWAP2 DUP4 SWAP2 PUSH2 0xFFFF PUSH1 0xE8 SHL NOT SWAP1 SWAP2 AND PUSH1 0xFF PUSH1 0xF0 SHL NOT SWAP1 SWAP2 AND OR PUSH1 0x1 PUSH1 0xF0 SHL DUP4 PUSH1 0x3 DUP2 GT ISZERO PUSH2 0x18B1 JUMPI PUSH2 0x18B1 PUSH2 0x407D JUMP JUMPDEST MUL OR SWAP1 SSTORE POP SWAP1 POP POP CALLER PUSH1 0x1 PUSH1 0x1 PUSH1 0xA0 SHL SUB AND DUP5 PUSH1 0x60 ADD MLOAD DUP5 DUP2 MLOAD DUP2 LT PUSH2 0x18D9 JUMPI PUSH2 0x18D9 PUSH2 0x4093 JUMP JUMPDEST PUSH1 0x20 MUL PUSH1 0x20 ADD ADD MLOAD DUP6 PUSH1 0x40 ADD MLOAD DUP7 PUSH1 0x0 ADD MLOAD DUP2 MLOAD DUP2 LT PUSH2 0x18FB JUMPI PUSH2 0x18FB PUSH2 0x4093 JUMP JUMPDEST PUSH1 0x20 MUL PUSH1 0x20 ADD ADD MLOAD PUSH1 0x1 PUSH1 0x1 PUSH1 0xA0 SHL SUB AND PUSH32 0xC1B2F77226541F6B308379A3110D77AF45464D9A161A6EB4B6CFDCD0FB2089C6 DUP5 PUSH2 0x1955 JUMPI DUP8 PUSH1 0x80 ADD MLOAD DUP8 DUP2 MLOAD DUP2 LT PUSH2 0x1948 JUMPI PUSH2 0x1948 PUSH2 0x4093 JUMP JUMPDEST PUSH1 0x20 MUL PUSH1 0x20 ADD ADD MLOAD PUSH2 0x1958 JUMP JUMPDEST PUSH1 0x1 JUMPDEST PUSH1 0x3 SLOAD DUP10 PUSH1 0xA0 ADD MLOAD DUP10 DUP2 MLOAD DUP2 LT PUSH2 0x1971 JUMPI PUSH2 0x1971 PUSH2 0x4093 JUMP JUMPDEST PUSH1 0x20 MUL PUSH1 0x20 ADD ADD MLOAD DUP11 PUSH1 0xC0 ADD MLOAD DUP11 DUP2 MLOAD DUP2 LT PUSH2 0x198F JUMPI PUSH2 0x198F PUSH2 0x4093 JUMP JUMPDEST PUSH1 0x20 MUL PUSH1 0x20 ADD ADD MLOAD DUP12 PUSH1 0xE0 ADD MLOAD DUP12 DUP2 MLOAD DUP2 LT PUSH2 0x19AD JUMPI PUSH2 0x19AD PUSH2 0x4093 JUMP JUMPDEST PUSH1 0x20 MUL PUSH1 0x20 ADD ADD MLOAD DUP10 DUP14 PUSH2 0x140 ADD MLOAD DUP14 DUP2 MLOAD DUP2 LT PUSH2 0x19CD JUMPI PUSH2 0x19CD PUSH2 0x4093 JUMP JUMPDEST PUSH1 0x20 MUL PUSH1 0x20 ADD ADD MLOAD PUSH1 0x40 MLOAD PUSH2 0x19E8 SWAP8 SWAP7 SWAP6 SWAP5 SWAP4 SWAP3 SWAP2 SWAP1 PUSH2 0x3E09 JUMP JUMPDEST PUSH1 0x40 MLOAD DUP1 SWAP2 SUB SWAP1 LOG4 PUSH1 0x3 DUP1 SLOAD SWAP1 PUSH1 0x0 PUSH2 0x1A00 DUP4 PUSH2 0x404C JUMP JUMPDEST SWAP2 SWAP1 POP SSTORE POP POP POP DUP1 DUP1 PUSH2 0x1A12 SWAP1 PUSH2 0x404C JUMP JUMPDEST SWAP2 POP POP PUSH2 0x153C JUMP JUMPDEST POP PUSH2 0x1A53 DUP2 CALLER ADDRESS PUSH2 0x1A3A DUP6 PUSH1 0x60 ADD MLOAD DUP7 PUSH1 0x0 ADD MLOAD DUP8 PUSH1 0x20 ADD MLOAD PUSH1 0x0 PUSH2 0x1FC2 JUMP JUMPDEST PUSH2 0x83B DUP7 PUSH1 0x80 ADD MLOAD DUP8 PUSH1 0x0 ADD MLOAD DUP9 PUSH1 0x20 ADD MLOAD PUSH1 0x0 PUSH2 0x1FC2 JUMP JUMPDEST POP JUMP JUMPDEST PUSH2 0x1A5E PUSH2 0x3448 JUMP JUMPDEST PUSH1 0x40 MLOAD DUP1 PUSH2 0x160 ADD PUSH1 0x40 MSTORE DUP1 PUSH1 0x0 DUP2 MSTORE PUSH1 0x20 ADD PUSH1 0x1 DUP2 MSTORE PUSH1 0x20 ADD DUP10 DUP2 MSTORE PUSH1 0x20 ADD DUP9 DUP2 MSTORE PUSH1 0x20 ADD DUP8 DUP2 MSTORE PUSH1 0x20 ADD DUP7 DUP2 MSTORE PUSH1 0x20 ADD DUP6 DUP2 MSTORE PUSH1 0x20 ADD DUP5 DUP2 MSTORE PUSH1 0x20 ADD PUSH1 0x0 PUSH1 0x1 PUSH1 0x1 PUSH1 0x40 SHL SUB DUP2 GT ISZERO PUSH2 0x1AB5 JUMPI PUSH2 0x1AB5 PUSH2 0x40A9 JUMP JUMPDEST PUSH1 0x40 MLOAD SWAP1 DUP1 DUP3 MSTORE DUP1 PUSH1 0x20 MUL PUSH1 0x20 ADD DUP3 ADD PUSH1 0x40 MSTORE DUP1 ISZERO PUSH2 0x1ADE JUMPI DUP2 PUSH1 0x20 ADD PUSH1 0x20 DUP3 MUL DUP1 CALLDATASIZE DUP4 CALLDATACOPY ADD SWAP1 POP JUMPDEST POP DUP2 MSTORE PUSH1 0x20 ADD PUSH1 0x0 PUSH1 0x40 MLOAD SWAP1 DUP1 DUP3 MSTORE DUP1 PUSH1 0x20 MUL PUSH1 0x20 ADD DUP3 ADD PUSH1 0x40 MSTORE DUP1 ISZERO PUSH2 0x1B0F JUMPI DUP2 PUSH1 0x20 ADD PUSH1 0x20 DUP3 MUL DUP1 CALLDATASIZE DUP4 CALLDATACOPY ADD SWAP1 POP JUMPDEST POP DUP2 MSTORE PUSH1 0x20 ADD SWAP3 SWAP1 SWAP3 MSTORE POP SWAP7 SWAP6 POP POP POP POP POP POP JUMP JUMPDEST DUP1 MLOAD PUSH1 0x20 DUP3 ADD MLOAD PUSH1 0x0 SWAP2 PUSH2 0x1B37 SWAP2 PUSH2 0x4009 JUMP JUMPDEST PUSH1 0x1 PUSH1 0x1 PUSH1 0x40 SHL SUB DUP2 GT ISZERO PUSH2 0x1B4E JUMPI PUSH2 0x1B4E PUSH2 0x40A9 JUMP JUMPDEST PUSH1 0x40 MLOAD SWAP1 DUP1 DUP3 MSTORE DUP1 PUSH1 0x20 MUL PUSH1 0x20 ADD DUP3 ADD PUSH1 0x40 MSTORE DUP1 ISZERO PUSH2 0x1B77 JUMPI DUP2 PUSH1 0x20 ADD PUSH1 0x20 DUP3 MUL DUP1 CALLDATASIZE DUP4 CALLDATACOPY ADD SWAP1 POP JUMPDEST POP DUP3 MLOAD SWAP1 SWAP2 POP JUMPDEST DUP3 PUSH1 0x20 ADD MLOAD DUP2 LT ISZERO PUSH2 0x1DEA JUMPI PUSH1 0x0 PUSH1 0x6 PUSH1 0x0 DUP6 PUSH1 0x40 ADD MLOAD DUP7 PUSH1 0x0 ADD MLOAD DUP2 MLOAD DUP2 LT PUSH2 0x1BAA JUMPI PUSH2 0x1BAA PUSH2 0x4093 JUMP JUMPDEST PUSH1 0x20 MUL PUSH1 0x20 ADD ADD MLOAD DUP7 PUSH1 0x60 ADD MLOAD DUP6 DUP2 MLOAD DUP2 LT PUSH2 0x1BC8 JUMPI PUSH2 0x1BC8 PUSH2 0x4093 JUMP JUMPDEST PUSH1 0x20 MUL PUSH1 0x20 ADD ADD MLOAD DUP8 PUSH2 0x100 ADD MLOAD DUP7 DUP2 MLOAD DUP2 LT PUSH2 0x1BE7 JUMPI PUSH2 0x1BE7 PUSH2 0x4093 JUMP JUMPDEST PUSH1 0x20 MUL PUSH1 0x20 ADD ADD MLOAD PUSH1 0x40 MLOAD PUSH1 0x20 ADD PUSH2 0x1C01 SWAP4 SWAP3 SWAP2 SWAP1 PUSH2 0x3C15 JUMP JUMPDEST PUSH1 0x40 DUP1 MLOAD PUSH1 0x1F NOT DUP2 DUP5 SUB ADD DUP2 MSTORE SWAP2 DUP2 MSTORE DUP2 MLOAD PUSH1 0x20 SWAP3 DUP4 ADD KECCAK256 DUP4 MSTORE DUP3 DUP3 ADD SWAP4 SWAP1 SWAP4 MSTORE SWAP1 DUP3 ADD PUSH1 0x0 KECCAK256 DUP3 MLOAD PUSH1 0xC0 DUP2 ADD DUP5 MSTORE DUP2 SLOAD PUSH1 0x1 PUSH1 0x1 PUSH1 0xA0 SHL SUB DUP2 AND DUP3 MSTORE PUSH1 0xFF PUSH1 0x1 PUSH1 0xA0 SHL DUP3 DIV DUP2 AND SWAP5 DUP4 ADD SWAP5 SWAP1 SWAP5 MSTORE PUSH1 0x1 PUSH1 0x1 PUSH1 0xE0 SHL SUB NOT PUSH1 0x1 PUSH1 0xA8 SHL DUP3 DIV PUSH1 0xE0 SWAP1 DUP2 SHL DUP3 AND SWAP7 DUP5 ADD SWAP7 SWAP1 SWAP7 MSTORE PUSH1 0x1 PUSH1 0xC8 SHL DUP3 DIV SWAP1 SWAP6 SHL SWAP1 SWAP5 AND PUSH1 0x60 DUP3 ADD MSTORE PUSH1 0x1 PUSH1 0xE8 SHL DUP5 DIV DUP4 AND PUSH1 0x80 DUP3 ADD MSTORE SWAP1 SWAP4 POP PUSH2 0x1CB8 SWAP3 SWAP1 SWAP2 DUP5 SWAP2 PUSH1 0xA0 DUP5 ADD SWAP2 PUSH1 0x1 PUSH1 0xF0 SHL SWAP1 SWAP2 DIV AND PUSH1 0x3 DUP2 GT ISZERO PUSH2 0x649 JUMPI PUSH2 0x649 PUSH2 0x407D JUMP JUMPDEST PUSH1 0x40 DUP1 MLOAD PUSH1 0x60 DUP2 ADD DUP3 MSTORE PUSH1 0x1 DUP4 ADD SLOAD PUSH1 0x1 PUSH1 0x1 PUSH1 0xA0 SHL SUB DUP2 AND DUP3 MSTORE PUSH1 0x1 PUSH1 0xA0 SHL DUP2 DIV PUSH1 0xFF AND PUSH1 0x20 DUP4 ADD MSTORE PUSH1 0x1 PUSH1 0xA8 SHL SWAP1 DIV PUSH4 0xFFFFFFFF AND SWAP2 DUP2 ADD SWAP2 SWAP1 SWAP2 MSTORE PUSH2 0x1D01 SWAP1 CALLER TIMESTAMP PUSH2 0x2B81 JUMP JUMPDEST PUSH1 0x1 DUP2 ADD SLOAD PUSH1 0x0 SWAP1 PUSH2 0x1D20 SWAP1 PUSH1 0x1 PUSH1 0xA8 SHL SWAP1 DIV PUSH4 0xFFFFFFFF AND TIMESTAMP PUSH2 0x4009 JUMP JUMPDEST SWAP1 POP PUSH2 0x1D2C DUP3 DUP3 PUSH2 0x2C31 JUMP JUMPDEST DUP2 SLOAD DUP6 MLOAD PUSH1 0x1 PUSH1 0xE8 SHL SWAP1 SWAP2 DIV PUSH1 0xFF AND SWAP1 DUP6 SWAP1 PUSH2 0x1D48 SWAP1 DUP7 PUSH2 0x4009 JUMP JUMPDEST DUP2 MLOAD DUP2 LT PUSH2 0x1D58 JUMPI PUSH2 0x1D58 PUSH2 0x4093 JUMP JUMPDEST PUSH1 0x20 MUL PUSH1 0x20 ADD ADD DUP2 DUP2 MSTORE POP POP DUP5 PUSH2 0x100 ADD MLOAD DUP4 DUP2 MLOAD DUP2 LT PUSH2 0x1D7B JUMPI PUSH2 0x1D7B PUSH2 0x4093 JUMP JUMPDEST PUSH1 0x20 MUL PUSH1 0x20 ADD ADD MLOAD PUSH32 0x289DA9CB3ECD362AD5AE230D4DAA346E68ABBD8972CD9C01DF54B7B1B97AB15B TIMESTAMP PUSH1 0x40 MLOAD PUSH2 0x1DBE SWAP2 SWAP1 PUSH4 0xFFFFFFFF SWAP2 SWAP1 SWAP2 AND DUP2 MSTORE PUSH1 0x20 ADD SWAP1 JUMP JUMPDEST PUSH1 0x40 MLOAD DUP1 SWAP2 SUB SWAP1 LOG2 POP PUSH1 0x1 ADD DUP1 SLOAD PUSH1 0x1 PUSH1 0x1 PUSH1 0xC8 SHL SUB NOT AND SWAP1 SSTORE DUP1 PUSH2 0x1DE2 DUP2 PUSH2 0x404C JUMP JUMPDEST SWAP2 POP POP PUSH2 0x1B7E JUMP JUMPDEST POP PUSH2 0x840 DUP3 CALLER ADDRESS PUSH2 0x828 DUP7 PUSH1 0x60 ADD MLOAD DUP8 PUSH1 0x0 ADD MLOAD DUP9 PUSH1 0x20 ADD MLOAD PUSH1 0x0 PUSH2 0x1FC2 JUMP JUMPDEST DUP1 MLOAD PUSH2 0x1E15 SWAP1 PUSH2 0x2F27 JUMP JUMPDEST PUSH1 0x20 DUP2 ADD MLOAD PUSH1 0xFF AND PUSH2 0x1E60 JUMPI PUSH1 0x40 MLOAD PUSH3 0x461BCD PUSH1 0xE5 SHL DUP2 MSTORE PUSH1 0x20 PUSH1 0x4 DUP3 ADD MSTORE PUSH1 0x14 PUSH1 0x24 DUP3 ADD MSTORE PUSH20 0x52654E46543A3A6475726174696F6E207A65726F PUSH1 0x60 SHL PUSH1 0x44 DUP3 ADD MSTORE PUSH1 0x64 ADD PUSH2 0x2A4 JUMP JUMPDEST PUSH1 0x40 DUP2 ADD MLOAD PUSH1 0x1 PUSH1 0x1 PUSH1 0xE0 SHL SUB NOT AND PUSH2 0x1E8B JUMPI PUSH1 0x40 MLOAD PUSH3 0x461BCD PUSH1 0xE5 SHL DUP2 MSTORE PUSH1 0x4 ADD PUSH2 0x2A4 SWAP1 PUSH2 0x3D20 JUMP JUMPDEST PUSH1 0x60 DUP2 ADD MLOAD PUSH1 0x1 PUSH1 0x1 PUSH1 0xE0 SHL SUB NOT AND PUSH2 0x1A53 JUMPI PUSH1 0x40 MLOAD PUSH3 0x461BCD PUSH1 0xE5 SHL DUP2 MSTORE PUSH1 0x4 ADD PUSH2 0x2A4 SWAP1 PUSH2 0x3DA8 JUMP JUMPDEST DUP1 MLOAD PUSH2 0x1EC1 SWAP1 PUSH2 0x2F73 JUMP JUMPDEST PUSH1 0x20 DUP2 ADD MLOAD PUSH1 0xFF AND ISZERO PUSH2 0x1F11 JUMPI PUSH1 0x40 MLOAD PUSH3 0x461BCD PUSH1 0xE5 SHL DUP2 MSTORE PUSH1 0x20 PUSH1 0x4 DUP3 ADD MSTORE PUSH1 0x18 PUSH1 0x24 DUP3 ADD MSTORE PUSH24 0x52654E46543A3A6475726174696F6E206E6F74207A65726F PUSH1 0x40 SHL PUSH1 0x44 DUP3 ADD MSTORE PUSH1 0x64 ADD PUSH2 0x2A4 JUMP JUMPDEST PUSH1 0x40 DUP2 ADD MLOAD PUSH4 0xFFFFFFFF AND ISZERO PUSH2 0x1A53 JUMPI PUSH1 0x40 MLOAD PUSH3 0x461BCD PUSH1 0xE5 SHL DUP2 MSTORE PUSH1 0x20 PUSH1 0x4 DUP3 ADD MSTORE PUSH1 0x19 PUSH1 0x24 DUP3 ADD MSTORE PUSH32 0x52654E46543A3A72656E746564206174206E6F74207A65726F00000000000000 PUSH1 0x44 DUP3 ADD MSTORE PUSH1 0x64 ADD PUSH2 0x2A4 JUMP JUMPDEST DUP1 PUSH1 0x1 PUSH1 0x1 PUSH1 0xA0 SHL SUB AND DUP3 PUSH1 0x0 ADD MLOAD PUSH1 0x1 PUSH1 0x1 PUSH1 0xA0 SHL SUB AND EQ PUSH2 0x840 JUMPI PUSH1 0x40 MLOAD PUSH3 0x461BCD PUSH1 0xE5 SHL DUP2 MSTORE PUSH1 0x20 PUSH1 0x4 DUP3 ADD MSTORE PUSH1 0x11 PUSH1 0x24 DUP3 ADD MSTORE PUSH17 0x2932A7232A1D1D3737BA103632B73232B9 PUSH1 0x79 SHL PUSH1 0x44 DUP3 ADD MSTORE PUSH1 0x64 ADD PUSH2 0x2A4 JUMP JUMPDEST PUSH1 0x60 PUSH2 0x1FCE DUP5 DUP5 PUSH2 0x4009 JUMP JUMPDEST PUSH1 0x1 PUSH1 0x1 PUSH1 0x40 SHL SUB DUP2 GT ISZERO PUSH2 0x1FE5 JUMPI PUSH2 0x1FE5 PUSH2 0x40A9 JUMP JUMPDEST PUSH1 0x40 MLOAD SWAP1 DUP1 DUP3 MSTORE DUP1 PUSH1 0x20 MUL PUSH1 0x20 ADD DUP3 ADD PUSH1 0x40 MSTORE DUP1 ISZERO PUSH2 0x200E JUMPI DUP2 PUSH1 0x20 ADD PUSH1 0x20 DUP3 MUL DUP1 CALLDATASIZE DUP4 CALLDATACOPY ADD SWAP1 POP JUMPDEST POP SWAP1 POP DUP4 JUMPDEST DUP4 DUP2 LT ISZERO PUSH2 0x2078 JUMPI DUP6 PUSH2 0x2026 DUP5 DUP4 PUSH2 0x4009 JUMP JUMPDEST DUP2 MLOAD DUP2 LT PUSH2 0x2036 JUMPI PUSH2 0x2036 PUSH2 0x4093 JUMP JUMPDEST PUSH1 0x20 MUL PUSH1 0x20 ADD ADD MLOAD DUP3 DUP7 DUP4 PUSH2 0x204B SWAP2 SWAP1 PUSH2 0x4009 JUMP JUMPDEST DUP2 MLOAD DUP2 LT PUSH2 0x205B JUMPI PUSH2 0x205B PUSH2 0x4093 JUMP JUMPDEST PUSH1 0x20 SWAP1 DUP2 MUL SWAP2 SWAP1 SWAP2 ADD ADD MSTORE DUP1 PUSH2 0x2070 DUP2 PUSH2 0x404C JUMP JUMPDEST SWAP2 POP POP PUSH2 0x2013 JUMP JUMPDEST POP SWAP5 SWAP4 POP POP POP POP JUMP JUMPDEST PUSH2 0x209E DUP6 PUSH1 0x40 ADD MLOAD DUP7 PUSH1 0x0 ADD MLOAD DUP2 MLOAD DUP2 LT PUSH2 0x16DF JUMPI PUSH2 0x16DF PUSH2 0x4093 JUMP JUMPDEST ISZERO PUSH2 0x2164 JUMPI PUSH1 0x40 DUP6 ADD MLOAD DUP6 MLOAD DUP2 MLOAD DUP2 LT PUSH2 0x20BA JUMPI PUSH2 0x20BA PUSH2 0x4093 JUMP JUMPDEST PUSH1 0x20 MUL PUSH1 0x20 ADD ADD MLOAD PUSH1 0x1 PUSH1 0x1 PUSH1 0xA0 SHL SUB AND PUSH4 0x23B872DD DUP6 DUP6 DUP9 PUSH1 0x60 ADD MLOAD DUP10 PUSH1 0x0 ADD MLOAD DUP2 MLOAD DUP2 LT PUSH2 0x20EC JUMPI PUSH2 0x20EC PUSH2 0x4093 JUMP JUMPDEST PUSH1 0x20 SWAP1 DUP2 MUL SWAP2 SWAP1 SWAP2 ADD ADD MLOAD PUSH1 0x40 MLOAD PUSH1 0x1 PUSH1 0x1 PUSH1 0xE0 SHL SUB NOT PUSH1 0xE0 DUP7 SWAP1 SHL AND DUP2 MSTORE PUSH1 0x1 PUSH1 0x1 PUSH1 0xA0 SHL SUB SWAP4 DUP5 AND PUSH1 0x4 DUP3 ADD MSTORE SWAP3 SWAP1 SWAP2 AND PUSH1 0x24 DUP4 ADD MSTORE PUSH1 0x44 DUP3 ADD MSTORE PUSH1 0x64 ADD JUMPDEST PUSH1 0x0 PUSH1 0x40 MLOAD DUP1 DUP4 SUB DUP2 PUSH1 0x0 DUP8 DUP1 EXTCODESIZE ISZERO DUP1 ISZERO PUSH2 0x2147 JUMPI PUSH1 0x0 DUP1 REVERT JUMPDEST POP GAS CALL ISZERO DUP1 ISZERO PUSH2 0x215B JUMPI RETURNDATASIZE PUSH1 0x0 DUP1 RETURNDATACOPY RETURNDATASIZE PUSH1 0x0 REVERT JUMPDEST POP POP POP POP PUSH2 0x221E JUMP JUMPDEST PUSH2 0x2181 DUP6 PUSH1 0x40 ADD MLOAD DUP7 PUSH1 0x0 ADD MLOAD DUP2 MLOAD DUP2 LT PUSH2 0xA51 JUMPI PUSH2 0xA51 PUSH2 0x4093 JUMP JUMPDEST ISZERO PUSH2 0x21D6 JUMPI PUSH1 0x40 DUP6 ADD MLOAD DUP6 MLOAD DUP2 MLOAD DUP2 LT PUSH2 0x219D JUMPI PUSH2 0x219D PUSH2 0x4093 JUMP JUMPDEST PUSH1 0x20 MUL PUSH1 0x20 ADD ADD MLOAD PUSH1 0x1 PUSH1 0x1 PUSH1 0xA0 SHL SUB AND PUSH4 0x2EB2C2D6 DUP6 DUP6 DUP6 DUP6 PUSH1 0x40 MLOAD DUP6 PUSH4 0xFFFFFFFF AND PUSH1 0xE0 SHL DUP2 MSTORE PUSH1 0x4 ADD PUSH2 0x212D SWAP5 SWAP4 SWAP3 SWAP2 SWAP1 PUSH2 0x3C5B JUMP JUMPDEST PUSH1 0x40 MLOAD PUSH3 0x461BCD PUSH1 0xE5 SHL DUP2 MSTORE PUSH1 0x20 PUSH1 0x4 DUP3 ADD MSTORE PUSH1 0x1D PUSH1 0x24 DUP3 ADD MSTORE PUSH32 0x52654E46543A3A756E737570706F7274656420746F6B656E2074797065000000 PUSH1 0x44 DUP3 ADD MSTORE PUSH1 0x64 ADD PUSH2 0x2A4 JUMP JUMPDEST POP POP POP POP POP JUMP JUMPDEST PUSH1 0x40 MLOAD PUSH4 0x1FFC9A7 PUSH1 0xE0 SHL DUP2 MSTORE PUSH4 0x6CDB3D13 PUSH1 0xE1 SHL PUSH1 0x4 DUP3 ADD MSTORE PUSH1 0x0 SWAP1 PUSH1 0x1 PUSH1 0x1 PUSH1 0xA0 SHL SUB DUP4 AND SWAP1 PUSH4 0x1FFC9A7 SWAP1 PUSH1 0x24 ADD JUMPDEST PUSH1 0x20 PUSH1 0x40 MLOAD DUP1 DUP4 SUB DUP2 DUP7 DUP1 EXTCODESIZE ISZERO DUP1 ISZERO PUSH2 0x226F JUMPI PUSH1 0x0 DUP1 REVERT JUMPDEST POP GAS STATICCALL ISZERO DUP1 ISZERO PUSH2 0x2283 JUMPI RETURNDATASIZE PUSH1 0x0 DUP1 RETURNDATACOPY RETURNDATASIZE PUSH1 0x0 REVERT JUMPDEST POP POP POP POP PUSH1 0x40 MLOAD RETURNDATASIZE PUSH1 0x1F NOT PUSH1 0x1F DUP3 ADD AND DUP3 ADD DUP1 PUSH1 0x40 MSTORE POP DUP2 ADD SWAP1 PUSH2 0x27B SWAP2 SWAP1 PUSH2 0x3B6C JUMP JUMPDEST DUP1 MLOAD PUSH2 0x22B2 SWAP1 PUSH2 0x2F27 JUMP JUMPDEST PUSH1 0x20 DUP2 ADD MLOAD PUSH1 0xFF AND PUSH2 0x22D6 JUMPI PUSH1 0x40 MLOAD PUSH3 0x461BCD PUSH1 0xE5 SHL DUP2 MSTORE PUSH1 0x4 ADD PUSH2 0x2A4 SWAP1 PUSH2 0x3CE9 JUMP JUMPDEST PUSH1 0x40 DUP2 ADD MLOAD PUSH4 0xFFFFFFFF AND PUSH2 0x1A53 JUMPI PUSH1 0x40 MLOAD PUSH3 0x461BCD PUSH1 0xE5 SHL DUP2 MSTORE PUSH1 0x20 PUSH1 0x4 DUP3 ADD MSTORE PUSH1 0x18 PUSH1 0x24 DUP3 ADD MSTORE PUSH32 0x52654E46543A3A72656E746564206174206973207A65726F0000000000000000 PUSH1 0x44 DUP3 ADD MSTORE PUSH1 0x64 ADD PUSH2 0x2A4 JUMP JUMPDEST PUSH2 0x2337 DUP3 DUP3 PUSH2 0x2FCA JUMP JUMPDEST PUSH2 0x840 JUMPI PUSH1 0x40 MLOAD PUSH3 0x461BCD PUSH1 0xE5 SHL DUP2 MSTORE PUSH1 0x20 PUSH1 0x4 DUP3 ADD MSTORE PUSH1 0x1D PUSH1 0x24 DUP3 ADD MSTORE PUSH32 0x52654E46543A3A72657475726E2064617465206E6F7420706173736564000000 PUSH1 0x44 DUP3 ADD MSTORE PUSH1 0x64 ADD PUSH2 0x2A4 JUMP JUMPDEST DUP1 MLOAD PUSH1 0xA0 ADD MLOAD PUSH1 0x0 SWAP1 PUSH1 0x3 DUP2 GT ISZERO PUSH2 0x239D JUMPI PUSH2 0x239D PUSH2 0x407D JUMP JUMPDEST SWAP1 POP PUSH2 0x23A8 DUP2 PUSH2 0x272F JUMP JUMPDEST PUSH1 0x0 DUP1 SLOAD PUSH1 0x40 MLOAD PUSH4 0xC6EE427F PUSH1 0xE0 SHL DUP2 MSTORE PUSH1 0xFF DUP5 AND PUSH1 0x4 DUP3 ADD MSTORE PUSH1 0x1 PUSH1 0x1 PUSH1 0xA0 SHL SUB SWAP1 SWAP2 AND SWAP1 PUSH4 0xC6EE427F SWAP1 PUSH1 0x24 ADD PUSH1 0x20 PUSH1 0x40 MLOAD DUP1 DUP4 SUB DUP2 DUP7 DUP1 EXTCODESIZE ISZERO DUP1 ISZERO PUSH2 0x23EF JUMPI PUSH1 0x0 DUP1 REVERT JUMPDEST POP GAS STATICCALL ISZERO DUP1 ISZERO PUSH2 0x2403 JUMPI RETURNDATASIZE PUSH1 0x0 DUP1 RETURNDATACOPY RETURNDATASIZE PUSH1 0x0 REVERT JUMPDEST POP POP POP POP PUSH1 0x40 MLOAD RETURNDATASIZE PUSH1 0x1F NOT PUSH1 0x1F DUP3 ADD AND DUP3 ADD DUP1 PUSH1 0x40 MSTORE POP DUP2 ADD SWAP1 PUSH2 0x2427 SWAP2 SWAP1 PUSH2 0x3754 JUMP JUMPDEST SWAP1 POP PUSH1 0x0 DUP2 PUSH1 0x1 PUSH1 0x1 PUSH1 0xA0 SHL SUB AND PUSH4 0x313CE567 PUSH1 0x40 MLOAD DUP2 PUSH4 0xFFFFFFFF AND PUSH1 0xE0 SHL DUP2 MSTORE PUSH1 0x4 ADD PUSH1 0x20 PUSH1 0x40 MLOAD DUP1 DUP4 SUB DUP2 DUP7 DUP1 EXTCODESIZE ISZERO DUP1 ISZERO PUSH2 0x2464 JUMPI PUSH1 0x0 DUP1 REVERT JUMPDEST POP GAS STATICCALL ISZERO DUP1 ISZERO PUSH2 0x2478 JUMPI RETURNDATASIZE PUSH1 0x0 DUP1 RETURNDATACOPY RETURNDATASIZE PUSH1 0x0 REVERT JUMPDEST POP POP POP POP PUSH1 0x40 MLOAD RETURNDATASIZE PUSH1 0x1F NOT PUSH1 0x1F DUP3 ADD AND DUP3 ADD DUP1 PUSH1 0x40 MSTORE POP DUP2 ADD SWAP1 PUSH2 0x249C SWAP2 SWAP1 PUSH2 0x3BBD JUMP JUMPDEST PUSH1 0xFF AND SWAP1 POP PUSH1 0x0 PUSH2 0x24AE DUP3 PUSH1 0xA PUSH2 0x3F42 JUMP JUMPDEST SWAP1 POP PUSH1 0x0 PUSH2 0x24C4 DUP7 PUSH1 0x0 ADD MLOAD PUSH1 0x60 ADD MLOAD DUP4 PUSH2 0x2782 JUMP JUMPDEST DUP7 MLOAD PUSH1 0x80 ADD MLOAD PUSH2 0x24D7 SWAP2 SWAP1 PUSH1 0xFF AND PUSH2 0x3FEA JUMP JUMPDEST SWAP1 POP PUSH1 0x0 PUSH2 0x24ED DUP8 PUSH1 0x0 ADD MLOAD PUSH1 0x40 ADD MLOAD DUP5 PUSH2 0x2782 JUMP JUMPDEST SWAP1 POP PUSH1 0x0 DUP8 PUSH1 0x20 ADD MLOAD PUSH1 0x20 ADD MLOAD PUSH1 0xFF AND DUP3 PUSH2 0x2508 SWAP2 SWAP1 PUSH2 0x3FEA JUMP JUMPDEST SWAP1 POP PUSH1 0x0 PUSH2 0x252A DUP3 DUP10 PUSH1 0xFF AND PUSH1 0x3 DUP2 GT ISZERO PUSH2 0x2525 JUMPI PUSH2 0x2525 PUSH2 0x407D JUMP JUMPDEST PUSH2 0x3058 JUMP JUMPDEST SWAP1 POP PUSH1 0x0 PUSH2 0x2538 DUP6 DUP5 PUSH2 0x3EC5 JUMP JUMPDEST SWAP1 POP PUSH1 0x0 DUP4 GT PUSH2 0x2596 JUMPI PUSH1 0x40 MLOAD PUSH3 0x461BCD PUSH1 0xE5 SHL DUP2 MSTORE PUSH1 0x20 PUSH1 0x4 DUP3 ADD MSTORE PUSH1 0x23 PUSH1 0x24 DUP3 ADD MSTORE PUSH32 0x52654E46543A3A636F6C6C61746572616C20706C75732072656E74206973207A PUSH1 0x44 DUP3 ADD MSTORE PUSH3 0x65726F PUSH1 0xE8 SHL PUSH1 0x64 DUP3 ADD MSTORE PUSH1 0x84 ADD PUSH2 0x2A4 JUMP JUMPDEST DUP10 MLOAD MLOAD PUSH2 0x25B8 SWAP1 PUSH2 0x25A7 DUP5 DUP5 PUSH2 0x4009 JUMP JUMPDEST PUSH1 0x1 PUSH1 0x1 PUSH1 0xA0 SHL SUB DUP12 AND SWAP2 SWAP1 PUSH2 0x313B JUMP JUMPDEST POP POP POP POP POP POP POP POP POP POP JUMP JUMPDEST DUP4 MLOAD PUSH1 0x1 PUSH1 0x1 PUSH1 0xA0 SHL SUB DUP3 DUP2 AND SWAP2 AND EQ ISZERO PUSH2 0x2621 JUMPI PUSH1 0x40 MLOAD PUSH3 0x461BCD PUSH1 0xE5 SHL DUP2 MSTORE PUSH1 0x20 PUSH1 0x4 DUP3 ADD MSTORE PUSH1 0x18 PUSH1 0x24 DUP3 ADD MSTORE PUSH32 0x52654E46543A3A63616E742072656E74206F776E206E66740000000000000000 PUSH1 0x44 DUP3 ADD MSTORE PUSH1 0x64 ADD PUSH2 0x2A4 JUMP JUMPDEST PUSH1 0xFF DUP1 AND DUP4 PUSH2 0x120 ADD MLOAD DUP4 DUP2 MLOAD DUP2 LT PUSH2 0x263C JUMPI PUSH2 0x263C PUSH2 0x4093 JUMP JUMPDEST PUSH1 0x20 MUL PUSH1 0x20 ADD ADD MLOAD PUSH1 0xFF AND GT ISZERO PUSH2 0x2665 JUMPI PUSH1 0x40 MLOAD PUSH3 0x461BCD PUSH1 0xE5 SHL DUP2 MSTORE PUSH1 0x4 ADD PUSH2 0x2A4 SWAP1 PUSH2 0x3D57 JUMP JUMPDEST PUSH1 0x0 DUP4 PUSH2 0x120 ADD MLOAD DUP4 DUP2 MLOAD DUP2 LT PUSH2 0x267E JUMPI PUSH2 0x267E PUSH2 0x4093 JUMP JUMPDEST PUSH1 0x20 MUL PUSH1 0x20 ADD ADD MLOAD PUSH1 0xFF AND GT PUSH2 0x26A6 JUMPI PUSH1 0x40 MLOAD PUSH3 0x461BCD PUSH1 0xE5 SHL DUP2 MSTORE PUSH1 0x4 ADD PUSH2 0x2A4 SWAP1 PUSH2 0x3CE9 JUMP JUMPDEST DUP4 PUSH1 0x20 ADD MLOAD PUSH1 0xFF AND DUP4 PUSH2 0x120 ADD MLOAD DUP4 DUP2 MLOAD DUP2 LT PUSH2 0x26C5 JUMPI PUSH2 0x26C5 PUSH2 0x4093 JUMP JUMPDEST PUSH1 0x20 MUL PUSH1 0x20 ADD ADD MLOAD PUSH1 0xFF AND GT ISZERO PUSH2 0x3BA JUMPI PUSH1 0x40 MLOAD PUSH3 0x461BCD PUSH1 0xE5 SHL DUP2 MSTORE PUSH1 0x20 PUSH1 0x4 DUP3 ADD MSTORE PUSH1 0x28 PUSH1 0x24 DUP3 ADD MSTORE PUSH32 0x52654E46543A3A72656E74206475726174696F6E206578636565647320616C6C PUSH1 0x44 DUP3 ADD MSTORE PUSH8 0xDEEECAC840DAC2F PUSH1 0xC3 SHL PUSH1 0x64 DUP3 ADD MSTORE PUSH1 0x84 ADD PUSH2 0x2A4 JUMP JUMPDEST PUSH1 0x0 DUP2 PUSH1 0xFF AND GT PUSH2 0x1A53 JUMPI PUSH1 0x40 MLOAD PUSH3 0x461BCD PUSH1 0xE5 SHL DUP2 MSTORE PUSH1 0x20 PUSH1 0x4 DUP3 ADD MSTORE PUSH1 0x18 PUSH1 0x24 DUP3 ADD MSTORE PUSH32 0x52654E46543A3A746F6B656E2069732073656E74696E656C0000000000000000 PUSH1 0x44 DUP3 ADD MSTORE PUSH1 0x64 ADD PUSH2 0x2A4 JUMP JUMPDEST PUSH1 0x0 PUSH2 0x278E DUP4 DUP4 PUSH2 0x316B JUMP JUMPDEST PUSH1 0xF0 DUP4 SWAP1 SHR PUSH2 0xFFFF PUSH1 0xE0 DUP6 SWAP1 SHR AND PUSH1 0x0 PUSH2 0x27AA PUSH2 0x2710 DUP7 PUSH2 0x3EDD JUMP JUMPDEST SWAP1 POP PUSH2 0x270F DUP4 PUSH2 0xFFFF AND GT ISZERO PUSH2 0x27C0 JUMPI PUSH2 0x270F SWAP3 POP JUMPDEST PUSH2 0x270F DUP3 PUSH2 0xFFFF AND GT ISZERO PUSH2 0x27D4 JUMPI PUSH2 0x270F SWAP2 POP JUMPDEST PUSH1 0x0 PUSH2 0x27E4 DUP7 PUSH2 0xFFFF DUP7 AND PUSH2 0x3FEA JUMP JUMPDEST SWAP1 POP PUSH1 0x0 PUSH2 0x27F6 DUP4 PUSH2 0xFFFF DUP7 AND PUSH2 0x3FEA JUMP JUMPDEST SWAP1 POP PUSH1 0x0 PUSH2 0x2804 DUP3 DUP5 PUSH2 0x3EC5 JUMP JUMPDEST SWAP10 SWAP9 POP POP POP POP POP POP POP POP POP JUMP JUMPDEST PUSH1 0x40 MLOAD PUSH1 0x1 PUSH1 0x1 PUSH1 0xA0 SHL SUB DUP1 DUP6 AND PUSH1 0x24 DUP4 ADD MSTORE DUP4 AND PUSH1 0x44 DUP3 ADD MSTORE PUSH1 0x64 DUP2 ADD DUP3 SWAP1 MSTORE PUSH2 0x3BA SWAP1 DUP6 SWAP1 PUSH4 0x23B872DD PUSH1 0xE0 SHL SWAP1 PUSH1 0x84 ADD JUMPDEST PUSH1 0x40 DUP1 MLOAD PUSH1 0x1F NOT DUP2 DUP5 SUB ADD DUP2 MSTORE SWAP2 SWAP1 MSTORE PUSH1 0x20 DUP2 ADD DUP1 MLOAD PUSH1 0x1 PUSH1 0x1 PUSH1 0xE0 SHL SUB AND PUSH1 0x1 PUSH1 0x1 PUSH1 0xE0 SHL SUB NOT SWAP1 SWAP4 AND SWAP3 SWAP1 SWAP3 OR SWAP1 SWAP2 MSTORE PUSH2 0x31FC JUMP JUMPDEST PUSH1 0x0 DUP3 PUSH1 0x80 ADD MLOAD DUP3 DUP2 MLOAD DUP2 LT PUSH2 0x2894 JUMPI PUSH2 0x2894 PUSH2 0x4093 JUMP JUMPDEST PUSH1 0x20 MUL PUSH1 0x20 ADD ADD MLOAD GT PUSH2 0x28E9 JUMPI PUSH1 0x40 MLOAD PUSH3 0x461BCD PUSH1 0xE5 SHL DUP2 MSTORE PUSH1 0x20 PUSH1 0x4 DUP3 ADD MSTORE PUSH1 0x1A PUSH1 0x24 DUP3 ADD MSTORE PUSH32 0x52654E46543A3A6C656E6420616D6F756E74206973207A65726F000000000000 PUSH1 0x44 DUP3 ADD MSTORE PUSH1 0x64 ADD PUSH2 0x2A4 JUMP JUMPDEST PUSH1 0xFF DUP1 AND DUP3 PUSH1 0x80 ADD MLOAD DUP3 DUP2 MLOAD DUP2 LT PUSH2 0x2903 JUMPI PUSH2 0x2903 PUSH2 0x4093 JUMP JUMPDEST PUSH1 0x20 MUL PUSH1 0x20 ADD ADD MLOAD GT ISZERO PUSH2 0x2929 JUMPI PUSH1 0x40 MLOAD PUSH3 0x461BCD PUSH1 0xE5 SHL DUP2 MSTORE PUSH1 0x4 ADD PUSH2 0x2A4 SWAP1 PUSH2 0x3D57 JUMP JUMPDEST PUSH1 0x0 DUP3 PUSH1 0xA0 ADD MLOAD DUP3 DUP2 MLOAD DUP2 LT PUSH2 0x2941 JUMPI PUSH2 0x2941 PUSH2 0x4093 JUMP JUMPDEST PUSH1 0x20 MUL PUSH1 0x20 ADD ADD MLOAD PUSH1 0xFF AND GT PUSH2 0x2969 JUMPI PUSH1 0x40 MLOAD PUSH3 0x461BCD PUSH1 0xE5 SHL DUP2 MSTORE PUSH1 0x4 ADD PUSH2 0x2A4 SWAP1 PUSH2 0x3CE9 JUMP JUMPDEST PUSH1 0xFF DUP1 AND DUP3 PUSH1 0xA0 ADD MLOAD DUP3 DUP2 MLOAD DUP2 LT PUSH2 0x2983 JUMPI PUSH2 0x2983 PUSH2 0x4093 JUMP JUMPDEST PUSH1 0x20 MUL PUSH1 0x20 ADD ADD MLOAD PUSH1 0xFF AND GT ISZERO PUSH2 0x29AC JUMPI PUSH1 0x40 MLOAD PUSH3 0x461BCD PUSH1 0xE5 SHL DUP2 MSTORE PUSH1 0x4 ADD PUSH2 0x2A4 SWAP1 PUSH2 0x3D57 JUMP JUMPDEST PUSH1 0x0 DUP3 PUSH1 0xC0 ADD MLOAD DUP3 DUP2 MLOAD DUP2 LT PUSH2 0x29C4 JUMPI PUSH2 0x29C4 PUSH2 0x4093 JUMP JUMPDEST PUSH1 0x20 MUL PUSH1 0x20 ADD ADD MLOAD PUSH1 0xE0 SHR PUSH4 0xFFFFFFFF AND GT PUSH2 0x29F2 JUMPI PUSH1 0x40 MLOAD PUSH3 0x461BCD PUSH1 0xE5 SHL DUP2 MSTORE PUSH1 0x4 ADD PUSH2 0x2A4 SWAP1 PUSH2 0x3D20 JUMP JUMPDEST PUSH1 0x0 DUP3 PUSH1 0xE0 ADD MLOAD DUP3 DUP2 MLOAD DUP2 LT PUSH2 0x2A0A JUMPI PUSH2 0x2A0A PUSH2 0x4093 JUMP JUMPDEST PUSH1 0x20 MUL PUSH1 0x20 ADD ADD MLOAD PUSH1 0xE0 SHR PUSH4 0xFFFFFFFF AND GT PUSH2 0x840 JUMPI PUSH1 0x40 MLOAD PUSH3 0x461BCD PUSH1 0xE5 SHL DUP2 MSTORE PUSH1 0x4 ADD PUSH2 0x2A4 SWAP1 PUSH2 0x3DA8 JUMP JUMPDEST DUP1 MLOAD PUSH2 0x2A43 SWAP1 PUSH2 0x2F73 JUMP JUMPDEST PUSH1 0x20 DUP2 ADD MLOAD PUSH1 0xFF AND ISZERO PUSH2 0x2A93 JUMPI PUSH1 0x40 MLOAD PUSH3 0x461BCD PUSH1 0xE5 SHL DUP2 MSTORE PUSH1 0x20 PUSH1 0x4 DUP3 ADD MSTORE PUSH1 0x18 PUSH1 0x24 DUP3 ADD MSTORE PUSH24 0x52654E46543A3A6475726174696F6E206E6F74207A65726F PUSH1 0x40 SHL PUSH1 0x44 DUP3 ADD MSTORE PUSH1 0x64 ADD PUSH2 0x2A4 JUMP JUMPDEST PUSH1 0x40 DUP2 ADD MLOAD PUSH1 0x1 PUSH1 0x1 PUSH1 0xE0 SHL SUB NOT AND ISZERO PUSH2 0x2AEF JUMPI PUSH1 0x40 MLOAD PUSH3 0x461BCD PUSH1 0xE5 SHL DUP2 MSTORE PUSH1 0x20 PUSH1 0x4 DUP3 ADD MSTORE PUSH1 0x1A PUSH1 0x24 DUP3 ADD MSTORE PUSH32 0x52654E46543A3A72656E74207072696365206E6F74207A65726F000000000000 PUSH1 0x44 DUP3 ADD MSTORE PUSH1 0x64 ADD PUSH2 0x2A4 JUMP JUMPDEST PUSH1 0x60 DUP2 ADD MLOAD PUSH1 0x1 PUSH1 0x1 PUSH1 0xE0 SHL SUB NOT AND ISZERO PUSH2 0x1A53 JUMPI PUSH1 0x40 MLOAD PUSH3 0x461BCD PUSH1 0xE5 SHL DUP2 MSTORE PUSH1 0x20 PUSH1 0x4 DUP3 ADD MSTORE PUSH1 0x19 PUSH1 0x24 DUP3 ADD MSTORE PUSH32 0x52654E46543A3A6E6674207072696365206E6F74207A65726F00000000000000 PUSH1 0x44 DUP3 ADD MSTORE PUSH1 0x64 ADD PUSH2 0x2A4 JUMP JUMPDEST PUSH1 0x40 MLOAD PUSH4 0x1FFC9A7 PUSH1 0xE0 SHL DUP2 MSTORE PUSH4 0x80AC58CD PUSH1 0xE0 SHL PUSH1 0x4 DUP3 ADD MSTORE PUSH1 0x0 SWAP1 PUSH1 0x1 PUSH1 0x1 PUSH1 0xA0 SHL SUB DUP4 AND SWAP1 PUSH4 0x1FFC9A7 SWAP1 PUSH1 0x24 ADD PUSH2 0x2257 JUMP JUMPDEST DUP2 PUSH1 0x1 PUSH1 0x1 PUSH1 0xA0 SHL SUB AND DUP4 PUSH1 0x0 ADD MLOAD PUSH1 0x1 PUSH1 0x1 PUSH1 0xA0 SHL SUB AND EQ PUSH2 0x2BDA JUMPI PUSH1 0x40 MLOAD PUSH3 0x461BCD PUSH1 0xE5 SHL DUP2 MSTORE PUSH1 0x20 PUSH1 0x4 DUP3 ADD MSTORE PUSH1 0x11 PUSH1 0x24 DUP3 ADD MSTORE PUSH17 0x2932A7232A1D1D3737BA103932B73A32B9 PUSH1 0x79 SHL PUSH1 0x44 DUP3 ADD MSTORE PUSH1 0x64 ADD PUSH2 0x2A4 JUMP JUMPDEST PUSH2 0x2BE4 DUP4 DUP3 PUSH2 0x2FCA JUMP JUMPDEST ISZERO PUSH2 0x2C3 JUMPI PUSH1 0x40 MLOAD PUSH3 0x461BCD PUSH1 0xE5 SHL DUP2 MSTORE PUSH1 0x20 PUSH1 0x4 DUP3 ADD MSTORE PUSH1 0x17 PUSH1 0x24 DUP3 ADD MSTORE PUSH32 0x52654E46543A3A706173742072657475726E2064617465000000000000000000 PUSH1 0x44 DUP3 ADD MSTORE PUSH1 0x64 ADD PUSH2 0x2A4 JUMP JUMPDEST DUP2 SLOAD PUSH1 0x0 SWAP1 PUSH1 0x1 PUSH1 0xF0 SHL SWAP1 DIV PUSH1 0xFF AND PUSH1 0x3 DUP2 GT ISZERO PUSH2 0x2C51 JUMPI PUSH2 0x2C51 PUSH2 0x407D JUMP JUMPDEST SWAP1 POP PUSH2 0x2C5C DUP2 PUSH2 0x272F JUMP JUMPDEST PUSH1 0x0 DUP1 SLOAD PUSH1 0x40 MLOAD PUSH4 0xC6EE427F PUSH1 0xE0 SHL DUP2 MSTORE PUSH1 0xFF DUP5 AND PUSH1 0x4 DUP3 ADD MSTORE PUSH1 0x1 PUSH1 0x1 PUSH1 0xA0 SHL SUB SWAP1 SWAP2 AND SWAP1 PUSH4 0xC6EE427F SWAP1 PUSH1 0x24 ADD PUSH1 0x20 PUSH1 0x40 MLOAD DUP1 DUP4 SUB DUP2 DUP7 DUP1 EXTCODESIZE ISZERO DUP1 ISZERO PUSH2 0x2CA3 JUMPI PUSH1 0x0 DUP1 REVERT JUMPDEST POP GAS STATICCALL ISZERO DUP1 ISZERO PUSH2 0x2CB7 JUMPI RETURNDATASIZE PUSH1 0x0 DUP1 RETURNDATACOPY RETURNDATASIZE PUSH1 0x0 REVERT JUMPDEST POP POP POP POP PUSH1 0x40 MLOAD RETURNDATASIZE PUSH1 0x1F NOT PUSH1 0x1F DUP3 ADD AND DUP3 ADD DUP1 PUSH1 0x40 MSTORE POP DUP2 ADD SWAP1 PUSH2 0x2CDB SWAP2 SWAP1 PUSH2 0x3754 JUMP JUMPDEST SWAP1 POP PUSH1 0x0 DUP2 PUSH1 0x1 PUSH1 0x1 PUSH1 0xA0 SHL SUB AND PUSH4 0x313CE567 PUSH1 0x40 MLOAD DUP2 PUSH4 0xFFFFFFFF AND PUSH1 0xE0 SHL DUP2 MSTORE PUSH1 0x4 ADD PUSH1 0x20 PUSH1 0x40 MLOAD DUP1 DUP4 SUB DUP2 DUP7 DUP1 EXTCODESIZE ISZERO DUP1 ISZERO PUSH2 0x2D18 JUMPI PUSH1 0x0 DUP1 REVERT JUMPDEST POP GAS STATICCALL ISZERO DUP1 ISZERO PUSH2 0x2D2C JUMPI RETURNDATASIZE PUSH1 0x0 DUP1 RETURNDATACOPY RETURNDATASIZE PUSH1 0x0 REVERT JUMPDEST POP POP POP POP PUSH1 0x40 MLOAD RETURNDATASIZE PUSH1 0x1F NOT PUSH1 0x1F DUP3 ADD AND DUP3 ADD DUP1 PUSH1 0x40 MSTORE POP DUP2 ADD SWAP1 PUSH2 0x2D50 SWAP2 SWAP1 PUSH2 0x3BBD JUMP JUMPDEST PUSH1 0xFF AND SWAP1 POP PUSH1 0x0 PUSH2 0x2D62 DUP3 PUSH1 0xA PUSH2 0x3F42 JUMP JUMPDEST DUP7 SLOAD SWAP1 SWAP2 POP PUSH1 0x0 SWAP1 PUSH2 0x2D7E SWAP1 PUSH1 0x1 PUSH1 0xC8 SHL SWAP1 DIV PUSH1 0xE0 SHL DUP4 PUSH2 0x2782 JUMP JUMPDEST DUP8 SLOAD PUSH2 0x2D94 SWAP2 SWAP1 PUSH1 0x1 PUSH1 0xE8 SHL SWAP1 DIV PUSH1 0xFF AND PUSH2 0x3FEA JUMP JUMPDEST DUP8 SLOAD SWAP1 SWAP2 POP PUSH1 0x0 SWAP1 PUSH2 0x2DB0 SWAP1 PUSH1 0x1 PUSH1 0xA8 SHL SWAP1 DIV PUSH1 0xE0 SHL DUP5 PUSH2 0x2782 JUMP JUMPDEST PUSH1 0x1 DUP10 ADD SLOAD SWAP1 SWAP2 POP PUSH1 0x0 SWAP1 PUSH2 0x2DCF SWAP1 PUSH1 0x1 PUSH1 0xA0 SHL SWAP1 DIV PUSH1 0xFF AND DUP4 PUSH2 0x3FEA JUMP JUMPDEST SWAP1 POP PUSH1 0x0 PUSH3 0x15180 PUSH2 0x2DE1 DUP5 DUP12 PUSH2 0x3FEA JUMP JUMPDEST PUSH2 0x2DEB SWAP2 SWAP1 PUSH2 0x3EDD JUMP JUMPDEST SWAP1 POP PUSH1 0x0 DUP3 GT PUSH2 0x2E50 JUMPI PUSH1 0x40 MLOAD PUSH3 0x461BCD PUSH1 0xE5 SHL DUP2 MSTORE PUSH1 0x20 PUSH1 0x4 DUP3 ADD MSTORE PUSH1 0x2A PUSH1 0x24 DUP3 ADD MSTORE PUSH32 0x52654E46543A3A746F74616C207061796D656E7420776F20636F6C6C61746572 PUSH1 0x44 DUP3 ADD MSTORE PUSH10 0x616C206973207A65726F PUSH1 0xB0 SHL PUSH1 0x64 DUP3 ADD MSTORE PUSH1 0x84 ADD PUSH2 0x2A4 JUMP JUMPDEST PUSH1 0x0 DUP2 GT PUSH2 0x2EA0 JUMPI PUSH1 0x40 MLOAD PUSH3 0x461BCD PUSH1 0xE5 SHL DUP2 MSTORE PUSH1 0x20 PUSH1 0x4 DUP3 ADD MSTORE PUSH1 0x1D PUSH1 0x24 DUP3 ADD MSTORE PUSH32 0x52654E46543A3A6C656E646572207061796D656E74206973207A65726F000000 PUSH1 0x44 DUP3 ADD MSTORE PUSH1 0x64 ADD PUSH2 0x2A4 JUMP JUMPDEST PUSH1 0x0 PUSH2 0x2EAC DUP3 DUP5 PUSH2 0x4009 JUMP JUMPDEST DUP12 SLOAD SWAP1 SWAP2 POP PUSH1 0x0 SWAP1 PUSH2 0x2EC9 SWAP1 DUP5 SWAP1 PUSH1 0x1 PUSH1 0xF0 SHL SWAP1 DIV PUSH1 0xFF AND PUSH2 0x3058 JUMP JUMPDEST SWAP1 POP PUSH2 0x2ED5 DUP2 DUP5 PUSH2 0x4009 JUMP JUMPDEST SWAP3 POP PUSH2 0x2EE1 DUP7 DUP4 PUSH2 0x3EC5 JUMP JUMPDEST DUP13 SLOAD SWAP1 SWAP3 POP PUSH2 0x2EFD SWAP1 PUSH1 0x1 PUSH1 0x1 PUSH1 0xA0 SHL SUB DUP12 DUP2 AND SWAP2 AND DUP6 PUSH2 0x313B JUMP JUMPDEST PUSH1 0x1 DUP13 ADD SLOAD PUSH2 0x2F19 SWAP1 PUSH1 0x1 PUSH1 0x1 PUSH1 0xA0 SHL SUB DUP12 DUP2 AND SWAP2 AND DUP5 PUSH2 0x313B JUMP JUMPDEST POP POP POP POP POP POP POP POP POP POP POP POP JUMP JUMPDEST PUSH1 0x1 PUSH1 0x1 PUSH1 0xA0 SHL SUB DUP2 AND PUSH2 0x1A53 JUMPI PUSH1 0x40 MLOAD PUSH3 0x461BCD PUSH1 0xE5 SHL DUP2 MSTORE PUSH1 0x20 PUSH1 0x4 DUP3 ADD MSTORE PUSH1 0x13 PUSH1 0x24 DUP3 ADD MSTORE PUSH19 0x52654E46543A3A7A65726F2061646472657373 PUSH1 0x68 SHL PUSH1 0x44 DUP3 ADD MSTORE PUSH1 0x64 ADD PUSH2 0x2A4 JUMP JUMPDEST PUSH1 0x1 PUSH1 0x1 PUSH1 0xA0 SHL SUB DUP2 AND ISZERO PUSH2 0x1A53 JUMPI PUSH1 0x40 MLOAD PUSH3 0x461BCD PUSH1 0xE5 SHL DUP2 MSTORE PUSH1 0x20 PUSH1 0x4 DUP3 ADD MSTORE PUSH1 0x19 PUSH1 0x24 DUP3 ADD MSTORE PUSH32 0x52654E46543A3A6E6F742061207A65726F206164647265737300000000000000 PUSH1 0x44 DUP3 ADD MSTORE PUSH1 0x64 ADD PUSH2 0x2A4 JUMP JUMPDEST PUSH1 0x0 DUP3 PUSH1 0x40 ADD MLOAD PUSH4 0xFFFFFFFF AND DUP3 GT PUSH2 0x3025 JUMPI PUSH1 0x40 MLOAD PUSH3 0x461BCD PUSH1 0xE5 SHL DUP2 MSTORE PUSH1 0x20 PUSH1 0x4 DUP3 ADD MSTORE PUSH1 0x18 PUSH1 0x24 DUP3 ADD MSTORE PUSH32 0x52654E46543A3A6E6F77206265666F72652072656E7465640000000000000000 PUSH1 0x44 DUP3 ADD MSTORE PUSH1 0x64 ADD PUSH2 0x2A4 JUMP JUMPDEST PUSH3 0x15180 DUP4 PUSH1 0x20 ADD MLOAD PUSH1 0xFF AND PUSH2 0x303B SWAP2 SWAP1 PUSH2 0x3FEA JUMP JUMPDEST PUSH1 0x40 DUP5 ADD MLOAD PUSH2 0x3050 SWAP1 PUSH4 0xFFFFFFFF AND DUP5 PUSH2 0x4009 JUMP JUMPDEST GT SWAP4 SWAP3 POP POP POP JUMP JUMPDEST PUSH1 0x0 PUSH1 0x5 SLOAD DUP4 PUSH2 0x3068 SWAP2 SWAP1 PUSH2 0x3FEA JUMP JUMPDEST SWAP1 POP PUSH2 0x3076 PUSH2 0x2710 DUP3 PUSH2 0x3EDD JUMP JUMPDEST SWAP1 POP PUSH1 0x0 DUP3 PUSH1 0x3 DUP2 GT ISZERO PUSH2 0x308C JUMPI PUSH2 0x308C PUSH2 0x407D JUMP JUMPDEST SWAP1 POP PUSH2 0x3097 DUP2 PUSH2 0x272F JUMP JUMPDEST PUSH1 0x0 DUP1 SLOAD PUSH1 0x40 MLOAD PUSH4 0xC6EE427F PUSH1 0xE0 SHL DUP2 MSTORE PUSH1 0xFF DUP5 AND PUSH1 0x4 DUP3 ADD MSTORE PUSH1 0x1 PUSH1 0x1 PUSH1 0xA0 SHL SUB SWAP1 SWAP2 AND SWAP1 PUSH4 0xC6EE427F SWAP1 PUSH1 0x24 ADD PUSH1 0x20 PUSH1 0x40 MLOAD DUP1 DUP4 SUB DUP2 DUP7 DUP1 EXTCODESIZE ISZERO DUP1 ISZERO PUSH2 0x30DE JUMPI PUSH1 0x0 DUP1 REVERT JUMPDEST POP GAS STATICCALL ISZERO DUP1 ISZERO PUSH2 0x30F2 JUMPI RETURNDATASIZE PUSH1 0x0 DUP1 RETURNDATACOPY RETURNDATASIZE PUSH1 0x0 REVERT JUMPDEST POP POP POP POP PUSH1 0x40 MLOAD RETURNDATASIZE PUSH1 0x1F NOT PUSH1 0x1F DUP3 ADD AND DUP3 ADD DUP1 PUSH1 0x40 MSTORE POP DUP2 ADD SWAP1 PUSH2 0x3116 SWAP2 SWAP1 PUSH2 0x3754 JUMP JUMPDEST PUSH1 0x2 SLOAD SWAP1 SWAP2 POP PUSH2 0x3133 SWAP1 PUSH1 0x1 PUSH1 0x1 PUSH1 0xA0 SHL SUB DUP1 DUP5 AND SWAP2 AND DUP6 PUSH2 0x313B JUMP JUMPDEST POP POP SWAP3 SWAP2 POP POP JUMP JUMPDEST PUSH1 0x40 MLOAD PUSH1 0x1 PUSH1 0x1 PUSH1 0xA0 SHL SUB DUP4 AND PUSH1 0x24 DUP3 ADD MSTORE PUSH1 0x44 DUP2 ADD DUP3 SWAP1 MSTORE PUSH2 0x2C3 SWAP1 DUP5 SWAP1 PUSH4 0xA9059CBB PUSH1 0xE0 SHL SWAP1 PUSH1 0x64 ADD PUSH2 0x2845 JUMP JUMPDEST PUSH1 0xE0 DUP3 SWAP1 SHR PUSH2 0x31B3 JUMPI PUSH1 0x40 MLOAD PUSH3 0x461BCD PUSH1 0xE5 SHL DUP2 MSTORE PUSH1 0x20 PUSH1 0x4 DUP3 ADD MSTORE PUSH1 0x14 PUSH1 0x24 DUP3 ADD MSTORE PUSH20 0x52654E46543A3A696E76616C6964207072696365 PUSH1 0x60 SHL PUSH1 0x44 DUP3 ADD MSTORE PUSH1 0x64 ADD PUSH2 0x2A4 JUMP JUMPDEST PUSH2 0x2710 DUP2 LT ISZERO PUSH2 0x840 JUMPI PUSH1 0x40 MLOAD PUSH3 0x461BCD PUSH1 0xE5 SHL DUP2 MSTORE PUSH1 0x20 PUSH1 0x4 DUP3 ADD MSTORE PUSH1 0x14 PUSH1 0x24 DUP3 ADD MSTORE PUSH20 0x52654E46543A3A696E76616C6964207363616C65 PUSH1 0x60 SHL PUSH1 0x44 DUP3 ADD MSTORE PUSH1 0x64 ADD PUSH2 0x2A4 JUMP JUMPDEST PUSH1 0x0 PUSH2 0x3251 DUP3 PUSH1 0x40 MLOAD DUP1 PUSH1 0x40 ADD PUSH1 0x40 MSTORE DUP1 PUSH1 0x20 DUP2 MSTORE PUSH1 0x20 ADD PUSH32 0x5361666545524332303A206C6F772D6C6576656C2063616C6C206661696C6564 DUP2 MSTORE POP DUP6 PUSH1 0x1 PUSH1 0x1 PUSH1 0xA0 SHL SUB AND PUSH2 0x32CE SWAP1 SWAP3 SWAP2 SWAP1 PUSH4 0xFFFFFFFF AND JUMP JUMPDEST DUP1 MLOAD SWAP1 SWAP2 POP ISZERO PUSH2 0x2C3 JUMPI DUP1 DUP1 PUSH1 0x20 ADD SWAP1 MLOAD DUP2 ADD SWAP1 PUSH2 0x326F SWAP2 SWAP1 PUSH2 0x3B6C JUMP JUMPDEST PUSH2 0x2C3 JUMPI PUSH1 0x40 MLOAD PUSH3 0x461BCD PUSH1 0xE5 SHL DUP2 MSTORE PUSH1 0x20 PUSH1 0x4 DUP3 ADD MSTORE PUSH1 0x2A PUSH1 0x24 DUP3 ADD MSTORE PUSH32 0x5361666545524332303A204552433230206F7065726174696F6E20646964206E PUSH1 0x44 DUP3 ADD MSTORE PUSH10 0x1BDD081CDD58D8D95959 PUSH1 0xB2 SHL PUSH1 0x64 DUP3 ADD MSTORE PUSH1 0x84 ADD PUSH2 0x2A4 JUMP JUMPDEST PUSH1 0x60 PUSH2 0x32DD DUP5 DUP5 PUSH1 0x0 DUP6 PUSH2 0x32E7 JUMP JUMPDEST SWAP1 POP JUMPDEST SWAP4 SWAP3 POP POP POP JUMP JUMPDEST PUSH1 0x60 DUP3 SELFBALANCE LT ISZERO PUSH2 0x3348 JUMPI PUSH1 0x40 MLOAD PUSH3 0x461BCD PUSH1 0xE5 SHL DUP2 MSTORE PUSH1 0x20 PUSH1 0x4 DUP3 ADD MSTORE PUSH1 0x26 PUSH1 0x24 DUP3 ADD MSTORE PUSH32 0x416464726573733A20696E73756666696369656E742062616C616E636520666F PUSH1 0x44 DUP3 ADD MSTORE PUSH6 0x1C8818D85B1B PUSH1 0xD2 SHL PUSH1 0x64 DUP3 ADD MSTORE PUSH1 0x84 ADD PUSH2 0x2A4 JUMP JUMPDEST DUP5 EXTCODESIZE PUSH2 0x3396 JUMPI PUSH1 0x40 MLOAD PUSH3 0x461BCD PUSH1 0xE5 SHL DUP2 MSTORE PUSH1 0x20 PUSH1 0x4 DUP3 ADD MSTORE PUSH1 0x1D PUSH1 0x24 DUP3 ADD MSTORE PUSH32 0x416464726573733A2063616C6C20746F206E6F6E2D636F6E7472616374000000 PUSH1 0x44 DUP3 ADD MSTORE PUSH1 0x64 ADD PUSH2 0x2A4 JUMP JUMPDEST PUSH1 0x0 DUP1 DUP7 PUSH1 0x1 PUSH1 0x1 PUSH1 0xA0 SHL SUB AND DUP6 DUP8 PUSH1 0x40 MLOAD PUSH2 0x33B2 SWAP2 SWAP1 PUSH2 0x3C3F JUMP JUMPDEST PUSH1 0x0 PUSH1 0x40 MLOAD DUP1 DUP4 SUB DUP2 DUP6 DUP8 GAS CALL SWAP3 POP POP POP RETURNDATASIZE DUP1 PUSH1 0x0 DUP2 EQ PUSH2 0x33EF JUMPI PUSH1 0x40 MLOAD SWAP2 POP PUSH1 0x1F NOT PUSH1 0x3F RETURNDATASIZE ADD AND DUP3 ADD PUSH1 0x40 MSTORE RETURNDATASIZE DUP3 MSTORE RETURNDATASIZE PUSH1 0x0 PUSH1 0x20 DUP5 ADD RETURNDATACOPY PUSH2 0x33F4 JUMP JUMPDEST PUSH1 0x60 SWAP2 POP JUMPDEST POP SWAP2 POP SWAP2 POP PUSH2 0x3404 DUP3 DUP3 DUP7 PUSH2 0x340F JUMP JUMPDEST SWAP8 SWAP7 POP POP POP POP POP POP POP JUMP JUMPDEST PUSH1 0x60 DUP4 ISZERO PUSH2 0x341E JUMPI POP DUP2 PUSH2 0x32E0 JUMP JUMPDEST DUP3 MLOAD ISZERO PUSH2 0x342E JUMPI DUP3 MLOAD DUP1 DUP5 PUSH1 0x20 ADD REVERT JUMPDEST DUP2 PUSH1 0x40 MLOAD PUSH3 0x461BCD PUSH1 0xE5 SHL DUP2 MSTORE PUSH1 0x4 ADD PUSH2 0x2A4 SWAP2 SWAP1 PUSH2 0x3CB6 JUMP JUMPDEST PUSH1 0x40 MLOAD DUP1 PUSH2 0x160 ADD PUSH1 0x40 MSTORE DUP1 PUSH1 0x0 DUP2 MSTORE PUSH1 0x20 ADD PUSH1 0x0 DUP2 MSTORE PUSH1 0x20 ADD PUSH1 0x60 DUP2 MSTORE PUSH1 0x20 ADD PUSH1 0x60 DUP2 MSTORE PUSH1 0x20 ADD PUSH1 0x60 DUP2 MSTORE PUSH1 0x20 ADD PUSH1 0x60 DUP2 MSTORE PUSH1 0x20 ADD PUSH1 0x60 DUP2 MSTORE PUSH1 0x20 ADD PUSH1 0x60 DUP2 MSTORE PUSH1 0x20 ADD PUSH1 0x60 DUP2 MSTORE PUSH1 0x20 ADD PUSH1 0x60 DUP2 MSTORE PUSH1 0x20 ADD PUSH1 0x60 DUP2 MSTORE POP SWAP1 JUMP JUMPDEST PUSH1 0x0 DUP3 PUSH1 0x1F DUP4 ADD SLT PUSH2 0x34B3 JUMPI PUSH1 0x0 DUP1 REVERT JUMPDEST DUP2 CALLDATALOAD PUSH1 0x20 PUSH2 0x34C8 PUSH2 0x34C3 DUP4 PUSH2 0x3EA2 JUMP JUMPDEST PUSH2 0x3E72 JUMP JUMPDEST DUP1 DUP4 DUP3 MSTORE DUP3 DUP3 ADD SWAP2 POP DUP3 DUP7 ADD DUP8 DUP5 DUP7 PUSH1 0x5 SHL DUP10 ADD ADD GT ISZERO PUSH2 0x34E8 JUMPI PUSH1 0x0 DUP1 REVERT JUMPDEST PUSH1 0x0 JUMPDEST DUP6 DUP2 LT ISZERO PUSH2 0x3510 JUMPI DUP2 CALLDATALOAD PUSH2 0x34FE DUP2 PUSH2 0x40BF JUMP JUMPDEST DUP5 MSTORE SWAP3 DUP5 ADD SWAP3 SWAP1 DUP5 ADD SWAP1 PUSH1 0x1 ADD PUSH2 0x34EB JUMP JUMPDEST POP SWAP1 SWAP8 SWAP7 POP POP POP POP POP POP POP JUMP JUMPDEST PUSH1 0x0 DUP3 PUSH1 0x1F DUP4 ADD SLT PUSH2 0x352E JUMPI PUSH1 0x0 DUP1 REVERT JUMPDEST DUP2 CALLDATALOAD PUSH1 0x20 PUSH2 0x353E PUSH2 0x34C3 DUP4 PUSH2 0x3EA2 JUMP JUMPDEST DUP1 DUP4 DUP3 MSTORE DUP3 DUP3 ADD SWAP2 POP DUP3 DUP7 ADD DUP8 DUP5 DUP7 PUSH1 0x5 SHL DUP10 ADD ADD GT ISZERO PUSH2 0x355E JUMPI PUSH1 0x0 DUP1 REVERT JUMPDEST PUSH1 0x0 JUMPDEST DUP6 DUP2 LT ISZERO PUSH2 0x3510 JUMPI PUSH2 0x3572 DUP3 PUSH2 0x36C8 JUMP JUMPDEST DUP5 MSTORE SWAP3 DUP5 ADD SWAP3 SWAP1 DUP5 ADD SWAP1 PUSH1 0x1 ADD PUSH2 0x3561 JUMP JUMPDEST PUSH1 0x0 DUP3 PUSH1 0x1F DUP4 ADD SLT PUSH2 0x3595 JUMPI PUSH1 0x0 DUP1 REVERT JUMPDEST DUP2 CALLDATALOAD PUSH1 0x20 PUSH2 0x35A5 PUSH2 0x34C3 DUP4 PUSH2 0x3EA2 JUMP JUMPDEST DUP1 DUP4 DUP3 MSTORE DUP3 DUP3 ADD SWAP2 POP DUP3 DUP7 ADD DUP8 DUP5 DUP7 PUSH1 0x5 SHL DUP10 ADD ADD GT ISZERO PUSH2 0x35C5 JUMPI PUSH1 0x0 DUP1 REVERT JUMPDEST PUSH1 0x0 DUP1 JUMPDEST DUP7 DUP2 LT ISZERO PUSH2 0x35F1 JUMPI DUP3 CALLDATALOAD PUSH1 0x4 DUP2 LT PUSH2 0x35DF JUMPI DUP3 DUP4 REVERT JUMPDEST DUP6 MSTORE SWAP4 DUP6 ADD SWAP4 SWAP2 DUP6 ADD SWAP2 PUSH1 0x1 ADD PUSH2 0x35C9 JUMP JUMPDEST POP SWAP2 SWAP9 SWAP8 POP POP POP POP POP POP POP POP JUMP JUMPDEST PUSH1 0x0 DUP3 PUSH1 0x1F DUP4 ADD SLT PUSH2 0x3610 JUMPI PUSH1 0x0 DUP1 REVERT JUMPDEST DUP2 CALLDATALOAD PUSH1 0x20 PUSH2 0x3620 PUSH2 0x34C3 DUP4 PUSH2 0x3EA2 JUMP JUMPDEST DUP1 DUP4 DUP3 MSTORE DUP3 DUP3 ADD SWAP2 POP DUP3 DUP7 ADD DUP8 DUP5 DUP7 PUSH1 0x5 SHL DUP10 ADD ADD GT ISZERO PUSH2 0x3640 JUMPI PUSH1 0x0 DUP1 REVERT JUMPDEST PUSH1 0x0 JUMPDEST DUP6 DUP2 LT ISZERO PUSH2 0x3510 JUMPI DUP2 CALLDATALOAD DUP5 MSTORE SWAP3 DUP5 ADD SWAP3 SWAP1 DUP5 ADD SWAP1 PUSH1 0x1 ADD PUSH2 0x3643 JUMP JUMPDEST PUSH1 0x0 DUP3 PUSH1 0x1F DUP4 ADD SLT PUSH2 0x3670 JUMPI PUSH1 0x0 DUP1 REVERT JUMPDEST DUP2 CALLDATALOAD PUSH1 0x20 PUSH2 0x3680 PUSH2 0x34C3 DUP4 PUSH2 0x3EA2 JUMP JUMPDEST DUP1 DUP4 DUP3 MSTORE DUP3 DUP3 ADD SWAP2 POP DUP3 DUP7 ADD DUP8 DUP5 DUP7 PUSH1 0x5 SHL DUP10 ADD ADD GT ISZERO PUSH2 0x36A0 JUMPI PUSH1 0x0 DUP1 REVERT JUMPDEST PUSH1 0x0 JUMPDEST DUP6 DUP2 LT ISZERO PUSH2 0x3510 JUMPI DUP2 CALLDATALOAD PUSH2 0x36B6 DUP2 PUSH2 0x40E2 JUMP JUMPDEST DUP5 MSTORE SWAP3 DUP5 ADD SWAP3 SWAP1 DUP5 ADD SWAP1 PUSH1 0x1 ADD PUSH2 0x36A3 JUMP JUMPDEST DUP1 CALLDATALOAD PUSH1 0x1 PUSH1 0x1 PUSH1 0xE0 SHL SUB NOT DUP2 AND DUP2 EQ PUSH2 0x36E0 JUMPI PUSH1 0x0 DUP1 REVERT JUMPDEST SWAP2 SWAP1 POP JUMP JUMPDEST PUSH1 0x0 DUP3 PUSH1 0x1F DUP4 ADD SLT PUSH2 0x36F6 JUMPI PUSH1 0x0 DUP1 REVERT JUMPDEST DUP2 CALLDATALOAD PUSH1 0x1 PUSH1 0x1 PUSH1 0x40 SHL SUB DUP2 GT ISZERO PUSH2 0x370F JUMPI PUSH2 0x370F PUSH2 0x40A9 JUMP JUMPDEST PUSH2 0x3722 PUSH1 0x1F DUP3 ADD PUSH1 0x1F NOT AND PUSH1 0x20 ADD PUSH2 0x3E72 JUMP JUMPDEST DUP2 DUP2 MSTORE DUP5 PUSH1 0x20 DUP4 DUP7 ADD ADD GT ISZERO PUSH2 0x3737 JUMPI PUSH1 0x0 DUP1 REVERT JUMPDEST DUP2 PUSH1 0x20 DUP6 ADD PUSH1 0x20 DUP4 ADD CALLDATACOPY PUSH1 0x0 SWAP2 DUP2 ADD PUSH1 0x20 ADD SWAP2 SWAP1 SWAP2 MSTORE SWAP4 SWAP3 POP POP POP JUMP JUMPDEST PUSH1 0x0 PUSH1 0x20 DUP3 DUP5 SUB SLT ISZERO PUSH2 0x3766 JUMPI PUSH1 0x0 DUP1 REVERT JUMPDEST DUP2 MLOAD PUSH2 0x32E0 DUP2 PUSH2 0x40BF JUMP JUMPDEST PUSH1 0x0 PUSH1 0x20 DUP3 DUP5 SUB SLT ISZERO PUSH2 0x3783 JUMPI PUSH1 0x0 DUP1 REVERT JUMPDEST DUP2 CALLDATALOAD PUSH2 0x32E0 DUP2 PUSH2 0x40BF JUMP JUMPDEST PUSH1 0x0 DUP1 PUSH1 0x0 DUP1 PUSH1 0x0 PUSH1 0xA0 DUP7 DUP9 SUB SLT ISZERO PUSH2 0x37A6 JUMPI PUSH1 0x0 DUP1 REVERT JUMPDEST DUP6 CALLDATALOAD PUSH2 0x37B1 DUP2 PUSH2 0x40BF JUMP JUMPDEST SWAP5 POP PUSH1 0x20 DUP7 ADD CALLDATALOAD PUSH2 0x37C1 DUP2 PUSH2 0x40BF JUMP JUMPDEST SWAP4 POP PUSH1 0x40 DUP7 ADD CALLDATALOAD PUSH1 0x1 PUSH1 0x1 PUSH1 0x40 SHL SUB DUP1 DUP3 GT ISZERO PUSH2 0x37DD JUMPI PUSH1 0x0 DUP1 REVERT JUMPDEST PUSH2 0x37E9 DUP10 DUP4 DUP11 ADD PUSH2 0x35FF JUMP JUMPDEST SWAP5 POP PUSH1 0x60 DUP9 ADD CALLDATALOAD SWAP2 POP DUP1 DUP3 GT ISZERO PUSH2 0x37FF JUMPI PUSH1 0x0 DUP1 REVERT JUMPDEST PUSH2 0x380B DUP10 DUP4 DUP11 ADD PUSH2 0x35FF JUMP JUMPDEST SWAP4 POP PUSH1 0x80 DUP9 ADD CALLDATALOAD SWAP2 POP DUP1 DUP3 GT ISZERO PUSH2 0x3821 JUMPI PUSH1 0x0 DUP1 REVERT JUMPDEST POP PUSH2 0x382E DUP9 DUP3 DUP10 ADD PUSH2 0x36E5 JUMP JUMPDEST SWAP2 POP POP SWAP3 SWAP6 POP SWAP3 SWAP6 SWAP1 SWAP4 POP JUMP JUMPDEST PUSH1 0x0 DUP1 PUSH1 0x0 DUP1 PUSH1 0x80 DUP6 DUP8 SUB SLT ISZERO PUSH2 0x3851 JUMPI PUSH1 0x0 DUP1 REVERT JUMPDEST DUP5 CALLDATALOAD PUSH2 0x385C DUP2 PUSH2 0x40BF JUMP JUMPDEST SWAP4 POP PUSH1 0x20 DUP6 ADD CALLDATALOAD PUSH2 0x386C DUP2 PUSH2 0x40BF JUMP JUMPDEST SWAP3 POP PUSH1 0x40 DUP6 ADD CALLDATALOAD SWAP2 POP PUSH1 0x60 DUP6 ADD CALLDATALOAD PUSH1 0x1 PUSH1 0x1 PUSH1 0x40 SHL SUB DUP2 GT ISZERO PUSH2 0x388E JUMPI PUSH1 0x0 DUP1 REVERT JUMPDEST PUSH2 0x389A DUP8 DUP3 DUP9 ADD PUSH2 0x36E5 JUMP JUMPDEST SWAP2 POP POP SWAP3 SWAP6 SWAP2 SWAP5 POP SWAP3 POP JUMP JUMPDEST PUSH1 0x0 DUP1 PUSH1 0x0 DUP1 PUSH1 0x0 PUSH1 0xA0 DUP7 DUP9 SUB SLT ISZERO PUSH2 0x38BE JUMPI PUSH1 0x0 DUP1 REVERT JUMPDEST DUP6 CALLDATALOAD PUSH2 0x38C9 DUP2 PUSH2 0x40BF JUMP JUMPDEST SWAP5 POP PUSH1 0x20 DUP7 ADD CALLDATALOAD PUSH2 0x38D9 DUP2 PUSH2 0x40BF JUMP JUMPDEST SWAP4 POP PUSH1 0x40 DUP7 ADD CALLDATALOAD SWAP3 POP PUSH1 0x60 DUP7 ADD CALLDATALOAD SWAP2 POP PUSH1 0x80 DUP7 ADD CALLDATALOAD PUSH1 0x1 PUSH1 0x1 PUSH1 0x40 SHL SUB DUP2 GT ISZERO PUSH2 0x3902 JUMPI PUSH1 0x0 DUP1 REVERT JUMPDEST PUSH2 0x382E DUP9 DUP3 DUP10 ADD PUSH2 0x36E5 JUMP JUMPDEST PUSH1 0x0 DUP1 PUSH1 0x0 PUSH1 0x60 DUP5 DUP7 SUB SLT ISZERO PUSH2 0x3923 JUMPI PUSH1 0x0 DUP1 REVERT JUMPDEST DUP4 CALLDATALOAD PUSH1 0x1 PUSH1 0x1 PUSH1 0x40 SHL SUB DUP1 DUP3 GT ISZERO PUSH2 0x393A JUMPI PUSH1 0x0 DUP1 REVERT JUMPDEST PUSH2 0x3946 DUP8 DUP4 DUP9 ADD PUSH2 0x34A2 JUMP JUMPDEST SWAP5 POP PUSH1 0x20 DUP7 ADD CALLDATALOAD SWAP2 POP DUP1 DUP3 GT ISZERO PUSH2 0x395C JUMPI PUSH1 0x0 DUP1 REVERT JUMPDEST PUSH2 0x3968 DUP8 DUP4 DUP9 ADD PUSH2 0x35FF JUMP JUMPDEST SWAP4 POP PUSH1 0x40 DUP7 ADD CALLDATALOAD SWAP2 POP DUP1 DUP3 GT ISZERO PUSH2 0x397E JUMPI PUSH1 0x0 DUP1 REVERT JUMPDEST POP PUSH2 0x398B DUP7 DUP3 DUP8 ADD PUSH2 0x35FF JUMP JUMPDEST SWAP2 POP POP SWAP3 POP SWAP3 POP SWAP3 JUMP JUMPDEST PUSH1 0x0 DUP1 PUSH1 0x0 DUP1 PUSH1 0x80 DUP6 DUP8 SUB SLT ISZERO PUSH2 0x39AB JUMPI PUSH1 0x0 DUP1 REVERT JUMPDEST DUP5 CALLDATALOAD PUSH1 0x1 PUSH1 0x1 PUSH1 0x40 SHL SUB DUP1 DUP3 GT ISZERO PUSH2 0x39C2 JUMPI PUSH1 0x0 DUP1 REVERT JUMPDEST PUSH2 0x39CE DUP9 DUP4 DUP10 ADD PUSH2 0x34A2 JUMP JUMPDEST SWAP6 POP PUSH1 0x20 DUP8 ADD CALLDATALOAD SWAP2 POP DUP1 DUP3 GT ISZERO PUSH2 0x39E4 JUMPI PUSH1 0x0 DUP1 REVERT JUMPDEST PUSH2 0x39F0 DUP9 DUP4 DUP10 ADD PUSH2 0x35FF JUMP JUMPDEST SWAP5 POP PUSH1 0x40 DUP8 ADD CALLDATALOAD SWAP2 POP DUP1 DUP3 GT ISZERO PUSH2 0x3A06 JUMPI PUSH1 0x0 DUP1 REVERT JUMPDEST PUSH2 0x3A12 DUP9 DUP4 DUP10 ADD PUSH2 0x35FF JUMP JUMPDEST SWAP4 POP PUSH1 0x60 DUP8 ADD CALLDATALOAD SWAP2 POP DUP1 DUP3 GT ISZERO PUSH2 0x3A28 JUMPI PUSH1 0x0 DUP1 REVERT JUMPDEST POP PUSH2 0x389A DUP8 DUP3 DUP9 ADD PUSH2 0x365F JUMP JUMPDEST PUSH1 0x0 DUP1 PUSH1 0x0 DUP1 PUSH1 0x0 DUP1 PUSH1 0x0 PUSH1 0xE0 DUP9 DUP11 SUB SLT ISZERO PUSH2 0x3A50 JUMPI PUSH1 0x0 DUP1 REVERT JUMPDEST DUP8 CALLDATALOAD PUSH1 0x1 PUSH1 0x1 PUSH1 0x40 SHL SUB DUP1 DUP3 GT ISZERO PUSH2 0x3A67 JUMPI PUSH1 0x0 DUP1 REVERT JUMPDEST PUSH2 0x3A73 DUP12 DUP4 DUP13 ADD PUSH2 0x34A2 JUMP JUMPDEST SWAP9 POP PUSH1 0x20 DUP11 ADD CALLDATALOAD SWAP2 POP DUP1 DUP3 GT ISZERO PUSH2 0x3A89 JUMPI PUSH1 0x0 DUP1 REVERT JUMPDEST PUSH2 0x3A95 DUP12 DUP4 DUP13 ADD PUSH2 0x35FF JUMP JUMPDEST SWAP8 POP PUSH1 0x40 DUP11 ADD CALLDATALOAD SWAP2 POP DUP1 DUP3 GT ISZERO PUSH2 0x3AAB JUMPI PUSH1 0x0 DUP1 REVERT JUMPDEST PUSH2 0x3AB7 DUP12 DUP4 DUP13 ADD PUSH2 0x35FF JUMP JUMPDEST SWAP7 POP PUSH1 0x60 DUP11 ADD CALLDATALOAD SWAP2 POP DUP1 DUP3 GT ISZERO PUSH2 0x3ACD JUMPI PUSH1 0x0 DUP1 REVERT JUMPDEST PUSH2 0x3AD9 DUP12 DUP4 DUP13 ADD PUSH2 0x365F JUMP JUMPDEST SWAP6 POP PUSH1 0x80 DUP11 ADD CALLDATALOAD SWAP2 POP DUP1 DUP3 GT ISZERO PUSH2 0x3AEF JUMPI PUSH1 0x0 DUP1 REVERT JUMPDEST PUSH2 0x3AFB DUP12 DUP4 DUP13 ADD PUSH2 0x351D JUMP JUMPDEST SWAP5 POP PUSH1 0xA0 DUP11 ADD CALLDATALOAD SWAP2 POP DUP1 DUP3 GT ISZERO PUSH2 0x3B11 JUMPI PUSH1 0x0 DUP1 REVERT JUMPDEST PUSH2 0x3B1D DUP12 DUP4 DUP13 ADD PUSH2 0x351D JUMP JUMPDEST SWAP4 POP PUSH1 0xC0 DUP11 ADD CALLDATALOAD SWAP2 POP DUP1 DUP3 GT ISZERO PUSH2 0x3B33 JUMPI PUSH1 0x0 DUP1 REVERT JUMPDEST POP PUSH2 0x3B40 DUP11 DUP3 DUP12 ADD PUSH2 0x3584 JUMP JUMPDEST SWAP2 POP POP SWAP3 SWAP6 SWAP9 SWAP2 SWAP5 SWAP8 POP SWAP3 SWAP6 POP JUMP JUMPDEST PUSH1 0x0 PUSH1 0x20 DUP3 DUP5 SUB SLT ISZERO PUSH2 0x3B61 JUMPI PUSH1 0x0 DUP1 REVERT JUMPDEST DUP2 CALLDATALOAD PUSH2 0x32E0 DUP2 PUSH2 0x40D4 JUMP JUMPDEST PUSH1 0x0 PUSH1 0x20 DUP3 DUP5 SUB SLT ISZERO PUSH2 0x3B7E JUMPI PUSH1 0x0 DUP1 REVERT JUMPDEST DUP2 MLOAD PUSH2 0x32E0 DUP2 PUSH2 0x40D4 JUMP JUMPDEST PUSH1 0x0 PUSH1 0x20 DUP3 DUP5 SUB SLT ISZERO PUSH2 0x3B9B JUMPI PUSH1 0x0 DUP1 REVERT JUMPDEST PUSH2 0x32E0 DUP3 PUSH2 0x36C8 JUMP JUMPDEST PUSH1 0x0 PUSH1 0x20 DUP3 DUP5 SUB SLT ISZERO PUSH2 0x3BB6 JUMPI PUSH1 0x0 DUP1 REVERT JUMPDEST POP CALLDATALOAD SWAP2 SWAP1 POP JUMP JUMPDEST PUSH1 0x0 PUSH1 0x20 DUP3 DUP5 SUB SLT ISZERO PUSH2 0x3BCF JUMPI PUSH1 0x0 DUP1 REVERT JUMPDEST DUP2 MLOAD PUSH2 0x32E0 DUP2 PUSH2 0x40E2 JUMP JUMPDEST PUSH1 0x0 DUP2 MLOAD DUP1 DUP5 MSTORE PUSH1 0x20 DUP1 DUP6 ADD SWAP5 POP DUP1 DUP5 ADD PUSH1 0x0 JUMPDEST DUP4 DUP2 LT ISZERO PUSH2 0x3C0A JUMPI DUP2 MLOAD DUP8 MSTORE SWAP6 DUP3 ADD SWAP6 SWAP1 DUP3 ADD SWAP1 PUSH1 0x1 ADD PUSH2 0x3BEE JUMP JUMPDEST POP SWAP5 SWAP6 SWAP5 POP POP POP POP POP JUMP JUMPDEST PUSH1 0x60 SWAP4 SWAP1 SWAP4 SHL PUSH12 0xFFFFFFFFFFFFFFFFFFFFFFFF NOT AND DUP4 MSTORE PUSH1 0x14 DUP4 ADD SWAP2 SWAP1 SWAP2 MSTORE PUSH1 0x34 DUP3 ADD MSTORE PUSH1 0x54 ADD SWAP1 JUMP JUMPDEST PUSH1 0x0 DUP3 MLOAD PUSH2 0x3C51 DUP2 DUP5 PUSH1 0x20 DUP8 ADD PUSH2 0x4020 JUMP JUMPDEST SWAP2 SWAP1 SWAP2 ADD SWAP3 SWAP2 POP POP JUMP JUMPDEST PUSH1 0x1 PUSH1 0x1 PUSH1 0xA0 SHL SUB DUP6 DUP2 AND DUP3 MSTORE DUP5 AND PUSH1 0x20 DUP3 ADD MSTORE PUSH1 0xA0 PUSH1 0x40 DUP3 ADD DUP2 SWAP1 MSTORE PUSH1 0x0 SWAP1 PUSH2 0x3C87 SWAP1 DUP4 ADD DUP6 PUSH2 0x3BDA JUMP JUMPDEST DUP3 DUP2 SUB PUSH1 0x60 DUP5 ADD MSTORE PUSH2 0x3C99 DUP2 DUP6 PUSH2 0x3BDA JUMP JUMPDEST DUP4 DUP2 SUB PUSH1 0x80 SWAP1 SWAP5 ADD SWAP4 SWAP1 SWAP4 MSTORE POP POP PUSH1 0x0 DUP2 MSTORE PUSH1 0x20 ADD SWAP5 SWAP4 POP POP POP POP JUMP JUMPDEST PUSH1 0x20 DUP2 MSTORE PUSH1 0x0 DUP3 MLOAD DUP1 PUSH1 0x20 DUP5 ADD MSTORE PUSH2 0x3CD5 DUP2 PUSH1 0x40 DUP6 ADD PUSH1 0x20 DUP8 ADD PUSH2 0x4020 JUMP JUMPDEST PUSH1 0x1F ADD PUSH1 0x1F NOT AND SWAP2 SWAP1 SWAP2 ADD PUSH1 0x40 ADD SWAP3 SWAP2 POP POP JUMP JUMPDEST PUSH1 0x20 DUP1 DUP3 MSTORE PUSH1 0x17 SWAP1 DUP3 ADD MSTORE PUSH32 0x52654E46543A3A6475726174696F6E206973207A65726F000000000000000000 PUSH1 0x40 DUP3 ADD MSTORE PUSH1 0x60 ADD SWAP1 JUMP JUMPDEST PUSH1 0x20 DUP1 DUP3 MSTORE PUSH1 0x19 SWAP1 DUP3 ADD MSTORE PUSH32 0x52654E46543A3A72656E74207072696365206973207A65726F00000000000000 PUSH1 0x40 DUP3 ADD MSTORE PUSH1 0x60 ADD SWAP1 JUMP JUMPDEST PUSH1 0x20 DUP1 DUP3 MSTORE PUSH1 0x10 SWAP1 DUP3 ADD MSTORE PUSH16 0xA4CA9C8CA87474DCDEE840EAD2DCE87 PUSH1 0x83 SHL PUSH1 0x40 DUP3 ADD MSTORE PUSH1 0x60 ADD SWAP1 JUMP JUMPDEST PUSH1 0x20 DUP1 DUP3 MSTORE PUSH1 0xD SWAP1 DUP3 ADD MSTORE PUSH13 0x14995391950E8E9C185D5CD959 PUSH1 0x9A SHL PUSH1 0x40 DUP3 ADD MSTORE PUSH1 0x60 ADD SWAP1 JUMP JUMPDEST PUSH1 0x20 DUP1 DUP3 MSTORE PUSH1 0x18 SWAP1 DUP3 ADD MSTORE PUSH32 0x52654E46543A3A6E6674207072696365206973207A65726F0000000000000000 PUSH1 0x40 DUP3 ADD MSTORE PUSH1 0x60 ADD SWAP1 JUMP JUMPDEST PUSH1 0x20 DUP1 DUP3 MSTORE PUSH1 0x10 SWAP1 DUP3 ADD MSTORE PUSH16 0x2932A7232A1D1D3737BA1030B236B4B7 PUSH1 0x81 SHL PUSH1 0x40 DUP3 ADD MSTORE PUSH1 0x60 ADD SWAP1 JUMP JUMPDEST PUSH1 0xFF DUP9 DUP2 AND DUP3 MSTORE PUSH1 0x20 DUP3 ADD DUP9 SWAP1 MSTORE DUP7 AND PUSH1 0x40 DUP3 ADD MSTORE PUSH1 0x1 PUSH1 0x1 PUSH1 0xE0 SHL SUB NOT DUP6 DUP2 AND PUSH1 0x60 DUP4 ADD MSTORE DUP5 AND PUSH1 0x80 DUP3 ADD MSTORE DUP3 ISZERO ISZERO PUSH1 0xA0 DUP3 ADD MSTORE PUSH1 0xE0 DUP2 ADD PUSH1 0x4 DUP4 LT PUSH2 0x3E60 JUMPI PUSH4 0x4E487B71 PUSH1 0xE0 SHL PUSH1 0x0 MSTORE PUSH1 0x21 PUSH1 0x4 MSTORE PUSH1 0x24 PUSH1 0x0 REVERT JUMPDEST DUP3 PUSH1 0xC0 DUP4 ADD MSTORE SWAP9 SWAP8 POP POP POP POP POP POP POP POP JUMP JUMPDEST PUSH1 0x40 MLOAD PUSH1 0x1F DUP3 ADD PUSH1 0x1F NOT AND DUP2 ADD PUSH1 0x1 PUSH1 0x1 PUSH1 0x40 SHL SUB DUP2 GT DUP3 DUP3 LT OR ISZERO PUSH2 0x3E9A JUMPI PUSH2 0x3E9A PUSH2 0x40A9 JUMP JUMPDEST PUSH1 0x40 MSTORE SWAP2 SWAP1 POP JUMP JUMPDEST PUSH1 0x0 PUSH1 0x1 PUSH1 0x1 PUSH1 0x40 SHL SUB DUP3 GT ISZERO PUSH2 0x3EBB JUMPI PUSH2 0x3EBB PUSH2 0x40A9 JUMP JUMPDEST POP PUSH1 0x5 SHL PUSH1 0x20 ADD SWAP1 JUMP JUMPDEST PUSH1 0x0 DUP3 NOT DUP3 GT ISZERO PUSH2 0x3ED8 JUMPI PUSH2 0x3ED8 PUSH2 0x4067 JUMP JUMPDEST POP ADD SWAP1 JUMP JUMPDEST PUSH1 0x0 DUP3 PUSH2 0x3EFA JUMPI PUSH4 0x4E487B71 PUSH1 0xE0 SHL PUSH1 0x0 MSTORE PUSH1 0x12 PUSH1 0x4 MSTORE PUSH1 0x24 PUSH1 0x0 REVERT JUMPDEST POP DIV SWAP1 JUMP JUMPDEST PUSH1 0x1 DUP2 DUP2 JUMPDEST DUP1 DUP6 GT ISZERO PUSH2 0x3F3A JUMPI DUP2 PUSH1 0x0 NOT DIV DUP3 GT ISZERO PUSH2 0x3F20 JUMPI PUSH2 0x3F20 PUSH2 0x4067 JUMP JUMPDEST DUP1 DUP6 AND ISZERO PUSH2 0x3F2D JUMPI SWAP2 DUP2 MUL SWAP2 JUMPDEST SWAP4 DUP5 SHR SWAP4 SWAP1 DUP1 MUL SWAP1 PUSH2 0x3F04 JUMP JUMPDEST POP SWAP3 POP SWAP3 SWAP1 POP JUMP JUMPDEST PUSH1 0x0 PUSH2 0x32E0 DUP4 DUP4 PUSH1 0x0 DUP3 PUSH2 0x3F58 JUMPI POP PUSH1 0x1 PUSH2 0x27B JUMP JUMPDEST DUP2 PUSH2 0x3F65 JUMPI POP PUSH1 0x0 PUSH2 0x27B JUMP JUMPDEST DUP2 PUSH1 0x1 DUP2 EQ PUSH2 0x3F7B JUMPI PUSH1 0x2 DUP2 EQ PUSH2 0x3F85 JUMPI PUSH2 0x3FA1 JUMP JUMPDEST PUSH1 0x1 SWAP2 POP POP PUSH2 0x27B JUMP JUMPDEST PUSH1 0xFF DUP5 GT ISZERO PUSH2 0x3F96 JUMPI PUSH2 0x3F96 PUSH2 0x4067 JUMP JUMPDEST POP POP PUSH1 0x1 DUP3 SHL PUSH2 0x27B JUMP JUMPDEST POP PUSH1 0x20 DUP4 LT PUSH2 0x133 DUP4 LT AND PUSH1 0x4E DUP5 LT PUSH1 0xB DUP5 LT AND OR ISZERO PUSH2 0x3FC4 JUMPI POP DUP2 DUP2 EXP PUSH2 0x27B JUMP JUMPDEST PUSH2 0x3FCE DUP4 DUP4 PUSH2 0x3EFF JUMP JUMPDEST DUP1 PUSH1 0x0 NOT DIV DUP3 GT ISZERO PUSH2 0x3FE2 JUMPI PUSH2 0x3FE2 PUSH2 0x4067 JUMP JUMPDEST MUL SWAP4 SWAP3 POP POP POP JUMP JUMPDEST PUSH1 0x0 DUP2 PUSH1 0x0 NOT DIV DUP4 GT DUP3 ISZERO ISZERO AND ISZERO PUSH2 0x4004 JUMPI PUSH2 0x4004 PUSH2 0x4067 JUMP JUMPDEST POP MUL SWAP1 JUMP JUMPDEST PUSH1 0x0 DUP3 DUP3 LT ISZERO PUSH2 0x401B JUMPI PUSH2 0x401B PUSH2 0x4067 JUMP JUMPDEST POP SUB SWAP1 JUMP JUMPDEST PUSH1 0x0 JUMPDEST DUP4 DUP2 LT ISZERO PUSH2 0x403B JUMPI DUP2 DUP2 ADD MLOAD DUP4 DUP3 ADD MSTORE PUSH1 0x20 ADD PUSH2 0x4023 JUMP JUMPDEST DUP4 DUP2 GT ISZERO PUSH2 0x3BA JUMPI POP POP PUSH1 0x0 SWAP2 ADD MSTORE JUMP JUMPDEST PUSH1 0x0 PUSH1 0x0 NOT DUP3 EQ ISZERO PUSH2 0x4060 JUMPI PUSH2 0x4060 PUSH2 0x4067 JUMP JUMPDEST POP PUSH1 0x1 ADD SWAP1 JUMP JUMPDEST PUSH4 0x4E487B71 PUSH1 0xE0 SHL PUSH1 0x0 MSTORE PUSH1 0x11 PUSH1 0x4 MSTORE PUSH1 0x24 PUSH1 0x0 REVERT JUMPDEST PUSH4 0x4E487B71 PUSH1 0xE0 SHL PUSH1 0x0 MSTORE PUSH1 0x21 PUSH1 0x4 MSTORE PUSH1 0x24 PUSH1 0x0 REVERT JUMPDEST PUSH4 0x4E487B71 PUSH1 0xE0 SHL PUSH1 0x0 MSTORE PUSH1 0x32 PUSH1 0x4 MSTORE PUSH1 0x24 PUSH1 0x0 REVERT JUMPDEST PUSH4 0x4E487B71 PUSH1 0xE0 SHL PUSH1 0x0 MSTORE PUSH1 0x41 PUSH1 0x4 MSTORE PUSH1 0x24 PUSH1 0x0 REVERT JUMPDEST PUSH1 0x1 PUSH1 0x1 PUSH1 0xA0 SHL SUB DUP2 AND DUP2 EQ PUSH2 0x1A53 JUMPI PUSH1 0x0 DUP1 REVERT JUMPDEST DUP1 ISZERO ISZERO DUP2 EQ PUSH2 0x1A53 JUMPI PUSH1 0x0 DUP1 REVERT JUMPDEST PUSH1 0xFF DUP2 AND DUP2 EQ PUSH2 0x1A53 JUMPI PUSH1 0x0 DUP1 REVERT INVALID LOG2 PUSH5 0x6970667358 0x22 SLT KECCAK256 JUMPI AND 0xC2 DIFFICULTY 0xF6 0x5F SWAP11 SWAP4 PUSH24 0x5023FDBFBDCF0772C63CE6FE28509200CD54EE4FA7A79D64 PUSH20 0x6F6C634300080600330000000000000000000000 ",
  "sha1": "ccd68c7770e6b4a39952a13c4d0cf53438bb755d",
  "source": "// SPDX-License-Identifier: MIT\npragma solidity =0.8.6;\n\nimport \"@openzeppelin/contracts/token/ERC20/IERC20.sol\";\nimport \"@openzeppelin/contracts/token/ERC20/ERC20.sol\";\nimport \"@openzeppelin/contracts/token/ERC721/IERC721.sol\";\nimport \"@openzeppelin/contracts/token/ERC1155/IERC1155.sol\";\nimport \"@openzeppelin/contracts/token/ERC721/utils/ERC721Holder.sol\";\nimport \"@openzeppelin/contracts/token/ERC1155/utils/ERC1155Receiver.sol\";\nimport \"@openzeppelin/contracts/token/ERC1155/utils/ERC1155Holder.sol\";\n\nimport \"./interfaces/IResolver.sol\";\nimport \"./interfaces/IReNFT.sol\";\n\n//              @@@@@@@@@@@@@@@@        ,@@@@@@@@@@@@@@@@\n//              @@@,,,,,,,,,,@@@        ,@@&,,,,,,,,,,@@@\n//         @@@@@@@@,,,,,,,,,,@@@@@@@@&  ,@@&,,,,,,,,,,@@@@@@@@\n//         @@@**********@@@@@@@@@@@@@&  ,@@@@@@@@**********@@@\n//         @@@**********@@@@@@@@@@@@@&  ,@@@@@@@@**********@@@@@@@@\n//         @@@**********@@@@@@@@@@@@@&       .@@@**********@@@@@@@@\n//    @@@@@@@@**********@@@@@@@@@@@@@&       .@@@**********@@@@@@@@\n//    @@@**********@@@@@@@@@@@@@&            .@@@@@@@@**********@@@\n//    @@@**********@@@@@@@@@@@@@&            .@@@@@@@@**********@@@@@@@@\n//    @@@@@@@@**********@@@@@@@@&            .@@@**********@@@@@@@@@@@@@\n//    @@@@@@@@//////////@@@@@@@@&            .@@@//////////@@@@@@@@@@@@@\n//         @@@//////////@@@@@@@@&            .@@@//////////@@@@@@@@@@@@@\n//         @@@//////////@@@@@@@@&       ,@@@@@@@@//////////@@@@@@@@@@@@@\n//         @@@%%%%%/////(((((@@@&       ,@@@(((((/////%%%%%@@@@@@@@\n//         @@@@@@@@//////////@@@@@@@@&  ,@@@//////////@@@@@@@@@@@@@\n//              @@@%%%%%%%%%%@@@@@@@@&  ,@@@%%%%%%%%%%@@@@@@@@@@@@@\n//              @@@@@@@@@@@@@@@@@@@@@&  ,@@@@@@@@@@@@@@@@@@@@@@@@@@\n//                   @@@@@@@@@@@@@@@@&        @@@@@@@@@@@@@@@@\n//                   @@@@@@@@@@@@@@@@&        @@@@@@@@@@@@@@@@\n\ncontract ReNFT is IReNft, ERC721Holder, ERC1155Receiver, ERC1155Holder {\n    using SafeERC20 for ERC20;\n\n    IResolver private resolver;\n    address private admin;\n    address payable private beneficiary;\n    uint256 private lendingId = 1;\n    bool public paused = false;\n\n    // in bps. so 1000 => 1%\n    uint256 public rentFee = 0;\n\n    uint256 private constant SECONDS_IN_DAY = 86400;\n\n    // single storage slot: address - 160 bits, 168, 200, 232, 240, 248\n    struct Lending {\n        address payable lenderAddress;\n        uint8 maxRentDuration;\n        bytes4 dailyRentPrice;\n        bytes4 nftPrice;\n        uint8 lentAmount;\n        IResolver.PaymentToken paymentToken;\n    }\n\n    // single storage slot: 160 bits, 168, 200\n    struct Renting {\n        address payable renterAddress;\n        uint8 rentDuration;\n        uint32 rentedAt;\n    }\n\n    struct LendingRenting {\n        Lending lending;\n        Renting renting;\n    }\n\n    mapping(bytes32 => LendingRenting) private lendingRenting;\n\n    struct CallData {\n        uint256 left;\n        uint256 right;\n        address[] nfts;\n        uint256[] tokenIds;\n        uint256[] lentAmounts;\n        uint8[] maxRentDurations;\n        bytes4[] dailyRentPrices;\n        bytes4[] nftPrices;\n        uint256[] lendingIds;\n        uint8[] rentDurations;\n        IResolver.PaymentToken[] paymentTokens;\n    }\n\n    modifier onlyAdmin {\n        require(msg.sender == admin, \"ReNFT::not admin\");\n        _;\n    }\n\n    modifier notPaused {\n        require(!paused, \"ReNFT::paused\");\n        _;\n    }\n\n    constructor(\n        address _resolver,\n        address payable _beneficiary,\n        address _admin\n    ) {\n        ensureIsNotZeroAddr(_resolver);\n        ensureIsNotZeroAddr(_beneficiary);\n        ensureIsNotZeroAddr(_admin);\n        resolver = IResolver(_resolver);\n        beneficiary = _beneficiary;\n        admin = _admin;\n    }\n\n    function bundleCall(function(CallData memory) _handler, CallData memory _cd)\n        private\n    {\n        require(_cd.nfts.length > 0, \"ReNFT::no nfts\");\n        while (_cd.right != _cd.nfts.length) {\n            if (\n                (_cd.nfts[_cd.left] == _cd.nfts[_cd.right]) &&\n                (is1155(_cd.nfts[_cd.right]))\n            ) {\n                _cd.right++;\n            } else {\n                _handler(_cd);\n                _cd.left = _cd.right;\n                _cd.right++;\n            }\n        }\n        _handler(_cd);\n    }\n\n    // lend, rent, return, stop, claim\n\n    function lend(\n        address[] memory _nfts,\n        uint256[] memory _tokenIds,\n        uint256[] memory _lendAmounts,\n        uint8[] memory _maxRentDurations,\n        bytes4[] memory _dailyRentPrices,\n        bytes4[] memory _nftPrices,\n        IResolver.PaymentToken[] memory _paymentTokens\n    ) external override notPaused {\n        bundleCall(\n            handleLend,\n            createLendCallData(\n                _nfts,\n                _tokenIds,\n                _lendAmounts,\n                _maxRentDurations,\n                _dailyRentPrices,\n                _nftPrices,\n                _paymentTokens\n            )\n        );\n    }\n\n    function rent(\n        address[] memory _nfts,\n        uint256[] memory _tokenIds,\n        uint256[] memory _lendingIds,\n        uint8[] memory _rentDurations\n    ) external override notPaused {\n        bundleCall(\n            handleRent,\n            createRentCallData(_nfts, _tokenIds, _lendingIds, _rentDurations)\n        );\n    }\n\n    function returnIt(\n        address[] memory _nfts,\n        uint256[] memory _tokenIds,\n        uint256[] memory _lendingIds\n    ) external override notPaused {\n        bundleCall(\n            handleReturn,\n            createActionCallData(_nfts, _tokenIds, _lendingIds)\n        );\n    }\n\n    function stopLending(\n        address[] memory _nfts,\n        uint256[] memory _tokenIds,\n        uint256[] memory _lendingIds\n    ) external override notPaused {\n        bundleCall(\n            handleStopLending,\n            createActionCallData(_nfts, _tokenIds, _lendingIds)\n        );\n    }\n\n    function claimCollateral(\n        address[] memory _nfts,\n        uint256[] memory _tokenIds,\n        uint256[] memory _lendingIds\n    ) external override notPaused {\n        bundleCall(\n            handleClaimCollateral,\n            createActionCallData(_nfts, _tokenIds, _lendingIds)\n        );\n    }\n\n    //      .-.     .-.     .-.     .-.     .-.     .-.     .-.     .-.     .-.     .-.\n    // `._.'   `._.'   `._.'   `._.'   `._.'   `._.'   `._.'   `._.'   `._.'   `._.'   `._.'\n\n    function takeFee(uint256 _rent, IResolver.PaymentToken _paymentToken)\n        private\n        returns (uint256 fee)\n    {\n        fee = _rent * rentFee;\n        fee /= 10000;\n        uint8 paymentTokenIx = uint8(_paymentToken);\n        ensureTokenNotSentinel(paymentTokenIx);\n        ERC20 paymentToken = ERC20(resolver.getPaymentToken(paymentTokenIx));\n        paymentToken.safeTransfer(beneficiary, fee);\n    }\n\n    function distributePayments(\n        LendingRenting storage _lendingRenting,\n        uint256 _secondsSinceRentStart\n    ) private {\n        uint8 paymentTokenIx = uint8(_lendingRenting.lending.paymentToken);\n        ensureTokenNotSentinel(paymentTokenIx);\n        address paymentToken = resolver.getPaymentToken(paymentTokenIx);\n        uint256 decimals = ERC20(paymentToken).decimals();\n\n        uint256 scale = 10**decimals;\n        uint256 nftPrice =\n            _lendingRenting.lending.lentAmount *\n                unpackPrice(_lendingRenting.lending.nftPrice, scale);\n        uint256 rentPrice =\n            unpackPrice(_lendingRenting.lending.dailyRentPrice, scale);\n        uint256 totalRenterPmtWoCollateral =\n            rentPrice * _lendingRenting.renting.rentDuration;\n        uint256 sendLenderAmt =\n            (_secondsSinceRentStart * rentPrice) / SECONDS_IN_DAY;\n        require(\n            totalRenterPmtWoCollateral > 0,\n            \"ReNFT::total payment wo collateral is zero\"\n        );\n        require(sendLenderAmt > 0, \"ReNFT::lender payment is zero\");\n        uint256 sendRenterAmt = totalRenterPmtWoCollateral - sendLenderAmt;\n\n        uint256 takenFee =\n            takeFee(sendLenderAmt, _lendingRenting.lending.paymentToken);\n\n        sendLenderAmt -= takenFee;\n        sendRenterAmt += nftPrice;\n\n        ERC20(paymentToken).safeTransfer(\n            _lendingRenting.lending.lenderAddress,\n            sendLenderAmt\n        );\n        ERC20(paymentToken).safeTransfer(\n            _lendingRenting.renting.renterAddress,\n            sendRenterAmt\n        );\n    }\n\n    function distributeClaimPayment(LendingRenting memory _lendingRenting)\n        private\n    {\n        uint8 paymentTokenIx = uint8(_lendingRenting.lending.paymentToken);\n        ensureTokenNotSentinel(paymentTokenIx);\n        ERC20 paymentToken = ERC20(resolver.getPaymentToken(paymentTokenIx));\n\n        uint256 decimals = ERC20(paymentToken).decimals();\n        uint256 scale = 10**decimals;\n        uint256 nftPrice =\n            _lendingRenting.lending.lentAmount *\n                unpackPrice(_lendingRenting.lending.nftPrice, scale);\n        uint256 rentPrice =\n            unpackPrice(_lendingRenting.lending.dailyRentPrice, scale);\n        uint256 maxRentPayment =\n            rentPrice * _lendingRenting.renting.rentDuration;\n        uint256 takenFee =\n            takeFee(maxRentPayment, IResolver.PaymentToken(paymentTokenIx));\n        uint256 finalAmt = maxRentPayment + nftPrice;\n\n        require(maxRentPayment > 0, \"ReNFT::collateral plus rent is zero\");\n\n        paymentToken.safeTransfer(\n            _lendingRenting.lending.lenderAddress,\n            finalAmt - takenFee\n        );\n    }\n\n    function safeTransfer(\n        CallData memory _cd,\n        address _from,\n        address _to,\n        uint256[] memory _tokenIds,\n        uint256[] memory _lentAmounts\n    ) private {\n        if (is721(_cd.nfts[_cd.left])) {\n            IERC721(_cd.nfts[_cd.left]).transferFrom(\n                _from,\n                _to,\n                _cd.tokenIds[_cd.left]\n            );\n        } else if (is1155(_cd.nfts[_cd.left])) {\n            IERC1155(_cd.nfts[_cd.left]).safeBatchTransferFrom(\n                _from,\n                _to,\n                _tokenIds,\n                _lentAmounts,\n                \"\"\n            );\n        } else {\n            revert(\"ReNFT::unsupported token type\");\n        }\n    }\n\n    //      .-.     .-.     .-.     .-.     .-.     .-.     .-.     .-.     .-.     .-.\n    // `._.'   `._.'   `._.'   `._.'   `._.'   `._.'   `._.'   `._.'   `._.'   `._.'   `._.'\n\n    function handleLend(CallData memory _cd) private {\n        for (uint256 i = _cd.left; i < _cd.right; i++) {\n            ensureIsLendable(_cd, i);\n\n            LendingRenting storage item =\n                lendingRenting[\n                    keccak256(\n                        abi.encodePacked(\n                            _cd.nfts[_cd.left],\n                            _cd.tokenIds[i],\n                            lendingId\n                        )\n                    )\n                ];\n\n            ensureIsNull(item.lending);\n            ensureIsNull(item.renting);\n\n            bool nftIs721 = is721(_cd.nfts[i]);\n            item.lending = Lending({\n                lenderAddress: payable(msg.sender),\n                lentAmount: nftIs721 ? 1 : uint8(_cd.lentAmounts[i]),\n                maxRentDuration: _cd.maxRentDurations[i],\n                dailyRentPrice: _cd.dailyRentPrices[i],\n                nftPrice: _cd.nftPrices[i],\n                paymentToken: _cd.paymentTokens[i]\n            });\n\n            emit Lent(\n                _cd.nfts[_cd.left],\n                _cd.tokenIds[i],\n                nftIs721 ? 1 : uint8(_cd.lentAmounts[i]),\n                lendingId,\n                msg.sender,\n                _cd.maxRentDurations[i],\n                _cd.dailyRentPrices[i],\n                _cd.nftPrices[i],\n                nftIs721,\n                _cd.paymentTokens[i]\n            );\n\n            lendingId++;\n        }\n\n        safeTransfer(\n            _cd,\n            msg.sender,\n            address(this),\n            sliceArr(_cd.tokenIds, _cd.left, _cd.right, 0),\n            sliceArr(_cd.lentAmounts, _cd.left, _cd.right, 0)\n        );\n    }\n\n    function handleRent(CallData memory _cd) private {\n        uint256[] memory lentAmounts = new uint256[](_cd.right - _cd.left);\n\n        for (uint256 i = _cd.left; i < _cd.right; i++) {\n            LendingRenting storage item =\n                lendingRenting[\n                    keccak256(\n                        abi.encodePacked(\n                            _cd.nfts[_cd.left],\n                            _cd.tokenIds[i],\n                            _cd.lendingIds[i]\n                        )\n                    )\n                ];\n\n            ensureIsNotNull(item.lending);\n            ensureIsNull(item.renting);\n            ensureIsRentable(item.lending, _cd, i, msg.sender);\n\n            uint8 paymentTokenIx = uint8(item.lending.paymentToken);\n            ensureTokenNotSentinel(paymentTokenIx);\n            address paymentToken = resolver.getPaymentToken(paymentTokenIx);\n            uint256 decimals = ERC20(paymentToken).decimals();\n\n            {\n                uint256 scale = 10**decimals;\n                uint256 rentPrice =\n                    _cd.rentDurations[i] *\n                        unpackPrice(item.lending.dailyRentPrice, scale);\n                uint256 nftPrice =\n                    item.lending.lentAmount *\n                        unpackPrice(item.lending.nftPrice, scale);\n\n                require(rentPrice > 0, \"ReNFT::rent price is zero\");\n                require(nftPrice > 0, \"ReNFT::nft price is zero\");\n\n                ERC20(paymentToken).safeTransferFrom(\n                    msg.sender,\n                    address(this),\n                    rentPrice + nftPrice\n                );\n            }\n\n            lentAmounts[i - _cd.left] = item.lending.lentAmount;\n\n            item.renting.renterAddress = payable(msg.sender);\n            item.renting.rentDuration = _cd.rentDurations[i];\n            item.renting.rentedAt = uint32(block.timestamp);\n\n            emit Rented(\n                _cd.lendingIds[i],\n                msg.sender,\n                _cd.rentDurations[i],\n                item.renting.rentedAt\n            );\n        }\n\n        safeTransfer(\n            _cd,\n            address(this),\n            msg.sender,\n            sliceArr(_cd.tokenIds, _cd.left, _cd.right, 0),\n            sliceArr(lentAmounts, _cd.left, _cd.right, _cd.left)\n        );\n    }\n\n    function handleReturn(CallData memory _cd) private {\n        uint256[] memory lentAmounts = new uint256[](_cd.right - _cd.left);\n\n        for (uint256 i = _cd.left; i < _cd.right; i++) {\n            LendingRenting storage item =\n                lendingRenting[\n                    keccak256(\n                        abi.encodePacked(\n                            _cd.nfts[_cd.left],\n                            _cd.tokenIds[i],\n                            _cd.lendingIds[i]\n                        )\n                    )\n                ];\n\n            ensureIsNotNull(item.lending);\n            ensureIsReturnable(item.renting, msg.sender, block.timestamp);\n\n            uint256 secondsSinceRentStart =\n                block.timestamp - item.renting.rentedAt;\n            distributePayments(item, secondsSinceRentStart);\n\n            lentAmounts[i - _cd.left] = item.lending.lentAmount;\n\n            emit Returned(_cd.lendingIds[i], uint32(block.timestamp));\n\n            delete item.renting;\n        }\n\n        safeTransfer(\n            _cd,\n            msg.sender,\n            address(this),\n            sliceArr(_cd.tokenIds, _cd.left, _cd.right, 0),\n            sliceArr(lentAmounts, _cd.left, _cd.right, _cd.left)\n        );\n    }\n\n    function handleStopLending(CallData memory _cd) private {\n        uint256[] memory lentAmounts = new uint256[](_cd.right - _cd.left);\n\n        for (uint256 i = _cd.left; i < _cd.right; i++) {\n            LendingRenting storage item =\n                lendingRenting[\n                    keccak256(\n                        abi.encodePacked(\n                            _cd.nfts[_cd.left],\n                            _cd.tokenIds[i],\n                            _cd.lendingIds[i]\n                        )\n                    )\n                ];\n\n            ensureIsNotNull(item.lending);\n            ensureIsNull(item.renting);\n            ensureIsStoppable(item.lending, msg.sender);\n\n            lentAmounts[i - _cd.left] = item.lending.lentAmount;\n\n            emit LendingStopped(_cd.lendingIds[i], uint32(block.timestamp));\n\n            delete item.lending;\n        }\n\n        safeTransfer(\n            _cd,\n            address(this),\n            msg.sender,\n            sliceArr(_cd.tokenIds, _cd.left, _cd.right, 0),\n            sliceArr(lentAmounts, _cd.left, _cd.right, _cd.left)\n        );\n    }\n\n    function handleClaimCollateral(CallData memory _cd) private {\n        for (uint256 i = _cd.left; i < _cd.right; i++) {\n            LendingRenting storage item =\n                lendingRenting[\n                    keccak256(\n                        abi.encodePacked(\n                            _cd.nfts[_cd.left],\n                            _cd.tokenIds[i],\n                            _cd.lendingIds[i]\n                        )\n                    )\n                ];\n\n            ensureIsNotNull(item.lending);\n            ensureIsNotNull(item.renting);\n            ensureIsClaimable(item.renting, block.timestamp);\n\n            distributeClaimPayment(item);\n\n            emit CollateralClaimed(_cd.lendingIds[i], uint32(block.timestamp));\n\n            delete item.lending;\n            delete item.renting;\n        }\n    }\n\n    //      .-.     .-.     .-.     .-.     .-.     .-.     .-.     .-.     .-.     .-.\n    // `._.'   `._.'   `._.'   `._.'   `._.'   `._.'   `._.'   `._.'   `._.'   `._.'   `._.'\n\n    function is721(address _nft) private view returns (bool) {\n        return IERC165(_nft).supportsInterface(type(IERC721).interfaceId);\n    }\n\n    function is1155(address _nft) private view returns (bool) {\n        return IERC165(_nft).supportsInterface(type(IERC1155).interfaceId);\n    }\n\n    //      .-.     .-.     .-.     .-.     .-.     .-.     .-.     .-.     .-.     .-.\n    // `._.'   `._.'   `._.'   `._.'   `._.'   `._.'   `._.'   `._.'   `._.'   `._.'   `._.'\n\n    function createLendCallData(\n        address[] memory _nfts,\n        uint256[] memory _tokenIds,\n        uint256[] memory _lendAmounts,\n        uint8[] memory _maxRentDurations,\n        bytes4[] memory _dailyRentPrices,\n        bytes4[] memory _nftPrices,\n        IResolver.PaymentToken[] memory _paymentTokens\n    ) private pure returns (CallData memory cd) {\n        cd = CallData({\n            left: 0,\n            right: 1,\n            nfts: _nfts,\n            tokenIds: _tokenIds,\n            lentAmounts: _lendAmounts,\n            lendingIds: new uint256[](0),\n            rentDurations: new uint8[](0),\n            maxRentDurations: _maxRentDurations,\n            dailyRentPrices: _dailyRentPrices,\n            nftPrices: _nftPrices,\n            paymentTokens: _paymentTokens\n        });\n    }\n\n    function createRentCallData(\n        address[] memory _nfts,\n        uint256[] memory _tokenIds,\n        uint256[] memory _lendingIds,\n        uint8[] memory _rentDurations\n    ) private pure returns (CallData memory cd) {\n        cd = CallData({\n            left: 0,\n            right: 1,\n            nfts: _nfts,\n            tokenIds: _tokenIds,\n            lentAmounts: new uint256[](0),\n            lendingIds: _lendingIds,\n            rentDurations: _rentDurations,\n            maxRentDurations: new uint8[](0),\n            dailyRentPrices: new bytes4[](0),\n            nftPrices: new bytes4[](0),\n            paymentTokens: new IResolver.PaymentToken[](0)\n        });\n    }\n\n    function createActionCallData(\n        address[] memory _nfts,\n        uint256[] memory _tokenIds,\n        uint256[] memory _lendingIds\n    ) private pure returns (CallData memory cd) {\n        cd = CallData({\n            left: 0,\n            right: 1,\n            nfts: _nfts,\n            tokenIds: _tokenIds,\n            lentAmounts: new uint256[](0),\n            lendingIds: _lendingIds,\n            rentDurations: new uint8[](0),\n            maxRentDurations: new uint8[](0),\n            dailyRentPrices: new bytes4[](0),\n            nftPrices: new bytes4[](0),\n            paymentTokens: new IResolver.PaymentToken[](0)\n        });\n    }\n\n    function unpackPrice(bytes4 _price, uint256 _scale)\n        private\n        pure\n        returns (uint256)\n    {\n        ensureIsUnpackablePrice(_price, _scale);\n\n        uint16 whole = uint16(bytes2(_price));\n        uint16 decimal = uint16(bytes2(_price << 16));\n        uint256 decimalScale = _scale / 10000;\n\n        if (whole > 9999) {\n            whole = 9999;\n        }\n        if (decimal > 9999) {\n            decimal = 9999;\n        }\n\n        uint256 w = whole * _scale;\n        uint256 d = decimal * decimalScale;\n        uint256 price = w + d;\n\n        return price;\n    }\n\n    function sliceArr(\n        uint256[] memory _arr,\n        uint256 _fromIx,\n        uint256 _toIx,\n        uint256 _arrOffset\n    ) private pure returns (uint256[] memory r) {\n        r = new uint256[](_toIx - _fromIx);\n        for (uint256 i = _fromIx; i < _toIx; i++) {\n            r[i - _fromIx] = _arr[i - _arrOffset];\n        }\n    }\n\n    //      .-.     .-.     .-.     .-.     .-.     .-.     .-.     .-.     .-.     .-.\n    // `._.'   `._.'   `._.'   `._.'   `._.'   `._.'   `._.'   `._.'   `._.'   `._.'   `._.'\n\n    function ensureIsNotZeroAddr(address _addr) private pure {\n        require(_addr != address(0), \"ReNFT::zero address\");\n    }\n\n    function ensureIsZeroAddr(address _addr) private pure {\n        require(_addr == address(0), \"ReNFT::not a zero address\");\n    }\n\n    function ensureIsNull(Lending memory _lending) private pure {\n        ensureIsZeroAddr(_lending.lenderAddress);\n        require(_lending.maxRentDuration == 0, \"ReNFT::duration not zero\");\n        require(_lending.dailyRentPrice == 0, \"ReNFT::rent price not zero\");\n        require(_lending.nftPrice == 0, \"ReNFT::nft price not zero\");\n    }\n\n    function ensureIsNotNull(Lending memory _lending) private pure {\n        ensureIsNotZeroAddr(_lending.lenderAddress);\n        require(_lending.maxRentDuration != 0, \"ReNFT::duration zero\");\n        require(_lending.dailyRentPrice != 0, \"ReNFT::rent price is zero\");\n        require(_lending.nftPrice != 0, \"ReNFT::nft price is zero\");\n    }\n\n    function ensureIsNull(Renting memory _renting) private pure {\n        ensureIsZeroAddr(_renting.renterAddress);\n        require(_renting.rentDuration == 0, \"ReNFT::duration not zero\");\n        require(_renting.rentedAt == 0, \"ReNFT::rented at not zero\");\n    }\n\n    function ensureIsNotNull(Renting memory _renting) private pure {\n        ensureIsNotZeroAddr(_renting.renterAddress);\n        require(_renting.rentDuration != 0, \"ReNFT::duration is zero\");\n        require(_renting.rentedAt != 0, \"ReNFT::rented at is zero\");\n    }\n\n    function ensureIsLendable(CallData memory _cd, uint256 _i) private pure {\n        require(_cd.lentAmounts[_i] > 0, \"ReNFT::lend amount is zero\");\n        require(_cd.lentAmounts[_i] <= type(uint8).max, \"ReNFT::not uint8\");\n        require(_cd.maxRentDurations[_i] > 0, \"ReNFT::duration is zero\");\n        require(\n            _cd.maxRentDurations[_i] <= type(uint8).max,\n            \"ReNFT::not uint8\"\n        );\n        require(\n            uint32(_cd.dailyRentPrices[_i]) > 0,\n            \"ReNFT::rent price is zero\"\n        );\n        require(uint32(_cd.nftPrices[_i]) > 0, \"ReNFT::nft price is zero\");\n    }\n\n    function ensureIsRentable(\n        Lending memory _lending,\n        CallData memory _cd,\n        uint256 _i,\n        address _msgSender\n    ) private pure {\n        require(\n            _msgSender != _lending.lenderAddress,\n            \"ReNFT::cant rent own nft\"\n        );\n        require(_cd.rentDurations[_i] <= type(uint8).max, \"ReNFT::not uint8\");\n        require(_cd.rentDurations[_i] > 0, \"ReNFT::duration is zero\");\n        require(\n            _cd.rentDurations[_i] <= _lending.maxRentDuration,\n            \"ReNFT::rent duration exceeds allowed max\"\n        );\n    }\n\n    function ensureIsReturnable(\n        Renting memory _renting,\n        address _msgSender,\n        uint256 _blockTimestamp\n    ) private pure {\n        require(_renting.renterAddress == _msgSender, \"ReNFT::not renter\");\n        require(\n            !isPastReturnDate(_renting, _blockTimestamp),\n            \"ReNFT::past return date\"\n        );\n    }\n\n    function ensureIsStoppable(Lending memory _lending, address _msgSender)\n        private\n        pure\n    {\n        require(_lending.lenderAddress == _msgSender, \"ReNFT::not lender\");\n    }\n\n    function ensureIsClaimable(Renting memory _renting, uint256 _blockTimestamp)\n        private\n        pure\n    {\n        require(\n            isPastReturnDate(_renting, _blockTimestamp),\n            \"ReNFT::return date not passed\"\n        );\n    }\n\n    function ensureIsUnpackablePrice(bytes4 _price, uint256 _scale)\n        private\n        pure\n    {\n        require(uint32(_price) > 0, \"ReNFT::invalid price\");\n        require(_scale >= 10000, \"ReNFT::invalid scale\");\n    }\n\n    function ensureTokenNotSentinel(uint8 _paymentIx) private pure {\n        require(_paymentIx > 0, \"ReNFT::token is sentinel\");\n    }\n\n    function isPastReturnDate(Renting memory _renting, uint256 _now)\n        private\n        pure\n        returns (bool)\n    {\n        require(_now > _renting.rentedAt, \"ReNFT::now before rented\");\n        return\n            _now - _renting.rentedAt > _renting.rentDuration * SECONDS_IN_DAY;\n    }\n\n    //      .-.     .-.     .-.     .-.     .-.     .-.     .-.     .-.     .-.     .-.\n    // `._.'   `._.'   `._.'   `._.'   `._.'   `._.'   `._.'   `._.'   `._.'   `._.'   `._.'\n\n    function setRentFee(uint256 _rentFee) external onlyAdmin {\n        require(_rentFee < 10000, \"ReNFT::fee exceeds 100pct\");\n        rentFee = _rentFee;\n    }\n\n    function setBeneficiary(address payable _newBeneficiary)\n        external\n        onlyAdmin\n    {\n        beneficiary = _newBeneficiary;\n    }\n\n    function setPaused(bool _paused) external onlyAdmin {\n        paused = _paused;\n    }\n}\n\n//              @@@@@@@@@@@@@@@@        ,@@@@@@@@@@@@@@@@\n//              @@@,,,,,,,,,,@@@        ,@@&,,,,,,,,,,@@@\n//         @@@@@@@@,,,,,,,,,,@@@@@@@@&  ,@@&,,,,,,,,,,@@@@@@@@\n//         @@@**********@@@@@@@@@@@@@&  ,@@@@@@@@**********@@@\n//         @@@**********@@@@@@@@@@@@@&  ,@@@@@@@@**********@@@@@@@@\n//         @@@**********@@@@@@@@@@@@@&       .@@@**********@@@@@@@@\n//    @@@@@@@@**********@@@@@@@@@@@@@&       .@@@**********@@@@@@@@\n//    @@@**********@@@@@@@@@@@@@&            .@@@@@@@@**********@@@\n//    @@@**********@@@@@@@@@@@@@&            .@@@@@@@@**********@@@@@@@@\n//    @@@@@@@@**********@@@@@@@@&            .@@@**********@@@@@@@@@@@@@\n//    @@@@@@@@//////////@@@@@@@@&            .@@@//////////@@@@@@@@@@@@@\n//         @@@//////////@@@@@@@@&            .@@@//////////@@@@@@@@@@@@@\n//         @@@//////////@@@@@@@@&       ,@@@@@@@@//////////@@@@@@@@@@@@@\n//         @@@%%%%%/////(((((@@@&       ,@@@(((((/////%%%%%@@@@@@@@\n//         @@@@@@@@//////////@@@@@@@@&  ,@@@//////////@@@@@@@@@@@@@\n//              @@@%%%%%%%%%%@@@@@@@@&  ,@@@%%%%%%%%%%@@@@@@@@@@@@@\n//              @@@@@@@@@@@@@@@@@@@@@&  ,@@@@@@@@@@@@@@@@@@@@@@@@@@\n//                   @@@@@@@@@@@@@@@@&        @@@@@@@@@@@@@@@@\n//                   @@@@@@@@@@@@@@@@&        @@@@@@@@@@@@@@@@",
  "sourcePath": "contracts/ReNFT.sol",
  "type": "contract"
}