{
  "abi": [
    {
      "inputs": [
        {
          "internalType": "address",
          "name": "_admin",
          "type": "address"
        }
      ],
      "stateMutability": "nonpayable",
      "type": "constructor"
    },
    {
      "inputs": [
        {
          "internalType": "uint8",
          "name": "_pt",
          "type": "uint8"
        }
      ],
      "name": "getPaymentToken",
      "outputs": [
        {
          "internalType": "address",
          "name": "",
          "type": "address"
        }
      ],
      "stateMutability": "view",
      "type": "function"
    },
    {
      "inputs": [
        {
          "internalType": "uint8",
          "name": "_pt",
          "type": "uint8"
        },
        {
          "internalType": "address",
          "name": "_v",
          "type": "address"
        }
      ],
      "name": "setPaymentToken",
      "outputs": [],
      "stateMutability": "nonpayable",
      "type": "function"
    }
  ],
  "bytecode": "608060405234801561001057600080fd5b5060405161031b38038061031b83398101604081905261002f91610054565b600080546001600160a01b0319166001600160a01b0392909216919091179055610084565b60006020828403121561006657600080fd5b81516001600160a01b038116811461007d57600080fd5b9392505050565b610288806100936000396000f3fe608060405234801561001057600080fd5b50600436106100365760003560e01c8063321c6aea1461003b578063c6ee427f14610050575b600080fd5b61004e61004936600461020f565b610098565b005b61007c61005e3660046101ed565b60ff166000908152600160205260409020546001600160a01b031690565b6040516001600160a01b03909116815260200160405180910390f35b60ff82166100ed5760405162461bcd60e51b815260206004820152601860248201527f52654e46543a3a63616e74207365742073656e74696e656c000000000000000060448201526064015b60405180910390fd5b60ff82166000908152600160205260409020546001600160a01b0316156101565760405162461bcd60e51b815260206004820152601f60248201527f52654e46543a3a63616e6e6f742072657365742074686520616464726573730060448201526064016100e4565b6000546001600160a01b031633146101a45760405162461bcd60e51b81526020600482015260116024820152702932a7232a1d1d37b7363c9030b236b4b760791b60448201526064016100e4565b60ff91909116600090815260016020526040902080546001600160a01b0319166001600160a01b03909216919091179055565b803560ff811681146101e857600080fd5b919050565b6000602082840312156101ff57600080fd5b610208826101d7565b9392505050565b6000806040838503121561022257600080fd5b61022b836101d7565b915060208301356001600160a01b038116811461024757600080fd5b80915050925092905056fea264697066735822122053f3d4eeaccf169724d0756025d9884c8e12decce0a451b172932364e7c7298064736f6c63430008070033",
  "bytecodeSha1": "386663497f519360b7ae50d6fe2a1c37ef21d368",
  "compiler": {
    "evm_version": "istanbul",
    "optimizer": {
      "enabled": true,
      "runs": 200
    },
    "version": "0.8.7+commit.e28d00a7"
  },
  "contractName": "Resolver",
  "language": "Solidity",
  "natspec": {
    "kind": "dev",
    "methods": {},
    "version": 1
  },
  "opcodes": "PUSH1 0x80 PUSH1 0x40 MSTORE CALLVALUE DUP1 ISZERO PUSH2 0x10 JUMPI PUSH1 0x0 DUP1 REVERT JUMPDEST POP PUSH1 0x4 CALLDATASIZE LT PUSH2 0x36 JUMPI PUSH1 0x0 CALLDATALOAD PUSH1 0xE0 SHR DUP1 PUSH4 0x321C6AEA EQ PUSH2 0x3B JUMPI DUP1 PUSH4 0xC6EE427F EQ PUSH2 0x50 JUMPI JUMPDEST PUSH1 0x0 DUP1 REVERT JUMPDEST PUSH2 0x4E PUSH2 0x49 CALLDATASIZE PUSH1 0x4 PUSH2 0x20F JUMP JUMPDEST PUSH2 0x98 JUMP JUMPDEST STOP JUMPDEST PUSH2 0x7C PUSH2 0x5E CALLDATASIZE PUSH1 0x4 PUSH2 0x1ED JUMP JUMPDEST PUSH1 0xFF AND PUSH1 0x0 SWAP1 DUP2 MSTORE PUSH1 0x1 PUSH1 0x20 MSTORE PUSH1 0x40 SWAP1 KECCAK256 SLOAD PUSH1 0x1 PUSH1 0x1 PUSH1 0xA0 SHL SUB AND SWAP1 JUMP JUMPDEST PUSH1 0x40 MLOAD PUSH1 0x1 PUSH1 0x1 PUSH1 0xA0 SHL SUB SWAP1 SWAP2 AND DUP2 MSTORE PUSH1 0x20 ADD PUSH1 0x40 MLOAD DUP1 SWAP2 SUB SWAP1 RETURN JUMPDEST PUSH1 0xFF DUP3 AND PUSH2 0xED JUMPI PUSH1 0x40 MLOAD PUSH3 0x461BCD PUSH1 0xE5 SHL DUP2 MSTORE PUSH1 0x20 PUSH1 0x4 DUP3 ADD MSTORE PUSH1 0x18 PUSH1 0x24 DUP3 ADD MSTORE PUSH32 0x52654E46543A3A63616E74207365742073656E74696E656C0000000000000000 PUSH1 0x44 DUP3 ADD MSTORE PUSH1 0x64 ADD JUMPDEST PUSH1 0x40 MLOAD DUP1 SWAP2 SUB SWAP1 REVERT JUMPDEST PUSH1 0xFF DUP3 AND PUSH1 0x0 SWAP1 DUP2 MSTORE PUSH1 0x1 PUSH1 0x20 MSTORE PUSH1 0x40 SWAP1 KECCAK256 SLOAD PUSH1 0x1 PUSH1 0x1 PUSH1 0xA0 SHL SUB AND ISZERO PUSH2 0x156 JUMPI PUSH1 0x40 MLOAD PUSH3 0x461BCD PUSH1 0xE5 SHL DUP2 MSTORE PUSH1 0x20 PUSH1 0x4 DUP3 ADD MSTORE PUSH1 0x1F PUSH1 0x24 DUP3 ADD MSTORE PUSH32 0x52654E46543A3A63616E6E6F7420726573657420746865206164647265737300 PUSH1 0x44 DUP3 ADD MSTORE PUSH1 0x64 ADD PUSH2 0xE4 JUMP JUMPDEST PUSH1 0x0 SLOAD PUSH1 0x1 PUSH1 0x1 PUSH1 0xA0 SHL SUB AND CALLER EQ PUSH2 0x1A4 JUMPI PUSH1 0x40 MLOAD PUSH3 0x461BCD PUSH1 0xE5 SHL DUP2 MSTORE PUSH1 0x20 PUSH1 0x4 DUP3 ADD MSTORE PUSH1 0x11 PUSH1 0x24 DUP3 ADD MSTORE PUSH17 0x2932A7232A1D1D37B7363C9030B236B4B7 PUSH1 0x79 SHL PUSH1 0x44 DUP3 ADD MSTORE PUSH1 0x64 ADD PUSH2 0xE4 JUMP JUMPDEST PUSH1 0xFF SWAP2 SWAP1 SWAP2 AND PUSH1 0x0 SWAP1 DUP2 MSTORE PUSH1 0x1 PUSH1 0x20 MSTORE PUSH1 0x40 SWAP1 KECCAK256 DUP1 SLOAD PUSH1 0x1 PUSH1 0x1 PUSH1 0xA0 SHL SUB NOT AND PUSH1 0x1 PUSH1 0x1 PUSH1 0xA0 SHL SUB SWAP1 SWAP3 AND SWAP2 SWAP1 SWAP2 OR SWAP1 SSTORE JUMP JUMPDEST DUP1 CALLDATALOAD PUSH1 0xFF DUP2 AND DUP2 EQ PUSH2 0x1E8 JUMPI PUSH1 0x0 DUP1 REVERT JUMPDEST SWAP2 SWAP1 POP JUMP JUMPDEST PUSH1 0x0 PUSH1 0x20 DUP3 DUP5 SUB SLT ISZERO PUSH2 0x1FF JUMPI PUSH1 0x0 DUP1 REVERT JUMPDEST PUSH2 0x208 DUP3 PUSH2 0x1D7 JUMP JUMPDEST SWAP4 SWAP3 POP POP POP JUMP JUMPDEST PUSH1 0x0 DUP1 PUSH1 0x40 DUP4 DUP6 SUB SLT ISZERO PUSH2 0x222 JUMPI PUSH1 0x0 DUP1 REVERT JUMPDEST PUSH2 0x22B DUP4 PUSH2 0x1D7 JUMP JUMPDEST SWAP2 POP PUSH1 0x20 DUP4 ADD CALLDATALOAD PUSH1 0x1 PUSH1 0x1 PUSH1 0xA0 SHL SUB DUP2 AND DUP2 EQ PUSH2 0x247 JUMPI PUSH1 0x0 DUP1 REVERT JUMPDEST DUP1 SWAP2 POP POP SWAP3 POP SWAP3 SWAP1 POP JUMP INVALID LOG2 PUSH5 0x6970667358 0x22 SLT KECCAK256 MSTORE8 RETURN 0xD4 0xEE 0xAC 0xCF AND SWAP8 0x24 0xD0 PUSH22 0x6025D9884C8E12DECCE0A451B172932364E7C7298064 PUSH20 0x6F6C634300080700330000000000000000000000 ",
  "sha1": "ac96a3c33ac67b06f3e170d9f57e17beb7d7ebc0",
  "source": "// SPDX-License-Identifier: MIT\npragma solidity =0.8.7;\n\nimport \"./interfaces/IResolver.sol\";\n\n//              @@@@@@@@@@@@@@@@        ,@@@@@@@@@@@@@@@@\n//              @@@,,,,,,,,,,@@@        ,@@&,,,,,,,,,,@@@\n//         @@@@@@@@,,,,,,,,,,@@@@@@@@&  ,@@&,,,,,,,,,,@@@@@@@@\n//         @@@**********@@@@@@@@@@@@@&  ,@@@@@@@@**********@@@\n//         @@@**********@@@@@@@@@@@@@&  ,@@@@@@@@**********@@@@@@@@\n//         @@@**********@@@@@@@@@@@@@&       .@@@**********@@@@@@@@\n//    @@@@@@@@**********@@@@@@@@@@@@@&       .@@@**********@@@@@@@@\n//    @@@**********@@@@@@@@@@@@@&            .@@@@@@@@**********@@@\n//    @@@**********@@@@@@@@@@@@@&            .@@@@@@@@**********@@@@@@@@\n//    @@@@@@@@**********@@@@@@@@&            .@@@**********@@@@@@@@@@@@@\n//    @@@@@@@@//////////@@@@@@@@&            .@@@//////////@@@@@@@@@@@@@\n//         @@@//////////@@@@@@@@&            .@@@//////////@@@@@@@@@@@@@\n//         @@@//////////@@@@@@@@&       ,@@@@@@@@//////////@@@@@@@@@@@@@\n//         @@@%%%%%/////(((((@@@&       ,@@@(((((/////%%%%%@@@@@@@@\n//         @@@@@@@@//////////@@@@@@@@&  ,@@@//////////@@@@@@@@@@@@@\n//              @@@%%%%%%%%%%@@@@@@@@&  ,@@@%%%%%%%%%%@@@@@@@@@@@@@\n//              @@@@@@@@@@@@@@@@@@@@@&  ,@@@@@@@@@@@@@@@@@@@@@@@@@@\n//                   @@@@@@@@@@@@@@@@&        @@@@@@@@@@@@@@@@\n//                   @@@@@@@@@@@@@@@@&        @@@@@@@@@@@@@@@@\n\ncontract Resolver is IResolver {\n    address private admin;\n    mapping(uint8 => address) private addresses;\n\n    constructor(address _admin) {\n        admin = _admin;\n    }\n\n    function getPaymentToken(uint8 _pt) external view override returns (address) {\n        return addresses[_pt];\n    }\n\n    function setPaymentToken(uint8 _pt, address _v) external override {\n        require(_pt != 0, \"ReNFT::cant set sentinel\");\n        require(addresses[_pt] == address(0), \"ReNFT::cannot reset the address\");\n        require(msg.sender == admin, \"ReNFT::only admin\");\n        addresses[_pt] = _v;\n    }\n}\n\n//              @@@@@@@@@@@@@@@@        ,@@@@@@@@@@@@@@@@\n//              @@@,,,,,,,,,,@@@        ,@@&,,,,,,,,,,@@@\n//         @@@@@@@@,,,,,,,,,,@@@@@@@@&  ,@@&,,,,,,,,,,@@@@@@@@\n//         @@@**********@@@@@@@@@@@@@&  ,@@@@@@@@**********@@@\n//         @@@**********@@@@@@@@@@@@@&  ,@@@@@@@@**********@@@@@@@@\n//         @@@**********@@@@@@@@@@@@@&       .@@@**********@@@@@@@@\n//    @@@@@@@@**********@@@@@@@@@@@@@&       .@@@**********@@@@@@@@\n//    @@@**********@@@@@@@@@@@@@&            .@@@@@@@@**********@@@\n//    @@@**********@@@@@@@@@@@@@&            .@@@@@@@@**********@@@@@@@@\n//    @@@@@@@@**********@@@@@@@@&            .@@@**********@@@@@@@@@@@@@\n//    @@@@@@@@//////////@@@@@@@@&            .@@@//////////@@@@@@@@@@@@@\n//         @@@//////////@@@@@@@@&            .@@@//////////@@@@@@@@@@@@@\n//         @@@//////////@@@@@@@@&       ,@@@@@@@@//////////@@@@@@@@@@@@@\n//         @@@%%%%%/////(((((@@@&       ,@@@(((((/////%%%%%@@@@@@@@\n//         @@@@@@@@//////////@@@@@@@@&  ,@@@//////////@@@@@@@@@@@@@\n//              @@@%%%%%%%%%%@@@@@@@@&  ,@@@%%%%%%%%%%@@@@@@@@@@@@@\n//              @@@@@@@@@@@@@@@@@@@@@&  ,@@@@@@@@@@@@@@@@@@@@@@@@@@\n//                   @@@@@@@@@@@@@@@@&        @@@@@@@@@@@@@@@@\n//                   @@@@@@@@@@@@@@@@&        @@@@@@@@@@@@@@@@\n",
  "sourcePath": "contracts/Resolver.sol",
  "type": "contract"
}